{
  "contractName": "CommissionSplitterV2",
  "abi": [
    {
      "anonymous": false,
      "inputs": [
        {
          "indexed": false,
          "internalType": "uint256",
          "name": "outputAmount_1",
          "type": "uint256"
        },
        {
          "indexed": false,
          "internalType": "uint256",
          "name": "outputAmount_2",
          "type": "uint256"
        },
        {
          "indexed": false,
          "internalType": "uint256",
          "name": "outputAmount_3",
          "type": "uint256"
        },
        {
          "indexed": false,
          "internalType": "uint256",
          "name": "outputTokenGovernAmount_1",
          "type": "uint256"
        },
        {
          "indexed": false,
          "internalType": "uint256",
          "name": "outputTokenGovernAmount_2",
          "type": "uint256"
        }
      ],
      "name": "SplitExecuted",
      "type": "event"
    },
    {
      "constant": true,
      "inputs": [],
      "name": "PRECISION",
      "outputs": [
        {
          "internalType": "uint256",
          "name": "",
          "type": "uint256"
        }
      ],
      "payable": false,
      "stateMutability": "view",
      "type": "function"
    },
    {
      "constant": false,
      "inputs": [
        {
          "internalType": "contract IGovernor",
          "name": "newIGovernor",
          "type": "address"
        }
      ],
      "name": "changeIGovernor",
      "outputs": [],
      "payable": false,
      "stateMutability": "nonpayable",
      "type": "function"
    },
    {
      "constant": true,
      "inputs": [],
      "name": "governor",
      "outputs": [
        {
          "internalType": "contract IGovernor",
          "name": "",
          "type": "address"
        }
      ],
      "payable": false,
      "stateMutability": "view",
      "type": "function"
    },
    {
      "constant": true,
      "inputs": [],
      "name": "outputAddress_2",
      "outputs": [
        {
          "internalType": "address",
          "name": "",
          "type": "address"
        }
      ],
      "payable": false,
      "stateMutability": "view",
      "type": "function"
    },
    {
      "constant": true,
      "inputs": [],
      "name": "outputAddress_3",
      "outputs": [
        {
          "internalType": "address",
          "name": "",
          "type": "address"
        }
      ],
      "payable": false,
      "stateMutability": "view",
      "type": "function"
    },
    {
      "constant": true,
      "inputs": [],
      "name": "outputMoC",
      "outputs": [
        {
          "internalType": "contract IMoC",
          "name": "",
          "type": "address"
        }
      ],
      "payable": false,
      "stateMutability": "view",
      "type": "function"
    },
    {
      "constant": true,
      "inputs": [],
      "name": "outputProportionTokenGovern_1",
      "outputs": [
        {
          "internalType": "uint256",
          "name": "",
          "type": "uint256"
        }
      ],
      "payable": false,
      "stateMutability": "view",
      "type": "function"
    },
    {
      "constant": true,
      "inputs": [],
      "name": "outputProportion_1",
      "outputs": [
        {
          "internalType": "uint256",
          "name": "",
          "type": "uint256"
        }
      ],
      "payable": false,
      "stateMutability": "view",
      "type": "function"
    },
    {
      "constant": true,
      "inputs": [],
      "name": "outputProportion_2",
      "outputs": [
        {
          "internalType": "uint256",
          "name": "",
          "type": "uint256"
        }
      ],
      "payable": false,
      "stateMutability": "view",
      "type": "function"
    },
    {
      "constant": true,
      "inputs": [],
      "name": "outputTokenGovernAddress_1",
      "outputs": [
        {
          "internalType": "address",
          "name": "",
          "type": "address"
        }
      ],
      "payable": false,
      "stateMutability": "view",
      "type": "function"
    },
    {
      "constant": true,
      "inputs": [],
      "name": "outputTokenGovernAddress_2",
      "outputs": [
        {
          "internalType": "address",
          "name": "",
          "type": "address"
        }
      ],
      "payable": false,
      "stateMutability": "view",
      "type": "function"
    },
    {
      "constant": true,
      "inputs": [],
      "name": "reserveToken",
      "outputs": [
        {
          "internalType": "contract IERC20",
          "name": "",
          "type": "address"
        }
      ],
      "payable": false,
      "stateMutability": "view",
      "type": "function"
    },
    {
      "constant": true,
      "inputs": [],
      "name": "tokenGovern",
      "outputs": [
        {
          "internalType": "contract IERC20",
          "name": "",
          "type": "address"
        }
      ],
      "payable": false,
      "stateMutability": "view",
      "type": "function"
    },
    {
      "constant": false,
      "inputs": [
        {
          "internalType": "contract IGovernor",
          "name": "_governor",
          "type": "address"
        },
        {
          "internalType": "contract IERC20",
          "name": "_reserveToken",
          "type": "address"
        },
        {
          "internalType": "contract IMoC",
          "name": "_outputMoC",
          "type": "address"
        },
        {
          "internalType": "address",
          "name": "_outputAddress_2",
          "type": "address"
        },
        {
          "internalType": "address",
          "name": "_outputAddress_3",
          "type": "address"
        },
        {
          "internalType": "uint256",
          "name": "_outputProportion_1",
          "type": "uint256"
        },
        {
          "internalType": "uint256",
          "name": "_outputProportion_2",
          "type": "uint256"
        },
        {
          "internalType": "address",
          "name": "_outputTokenGovernAddress_1",
          "type": "address"
        },
        {
          "internalType": "address",
          "name": "_outputTokenGovernAddress_2",
          "type": "address"
        },
        {
          "internalType": "uint256",
          "name": "_outputProportionTokenGovern_1",
          "type": "uint256"
        },
        {
          "internalType": "contract IERC20",
          "name": "_tokenGovern",
          "type": "address"
        }
      ],
      "name": "initialize",
      "outputs": [],
      "payable": false,
      "stateMutability": "nonpayable",
      "type": "function"
    },
    {
      "constant": false,
      "inputs": [
        {
          "internalType": "contract IGovernor",
          "name": "_governor",
          "type": "address"
        }
      ],
      "name": "initialize",
      "outputs": [],
      "payable": false,
      "stateMutability": "nonpayable",
      "type": "function"
    },
    {
      "constant": false,
      "inputs": [],
      "name": "initialize",
      "outputs": [],
      "payable": false,
      "stateMutability": "nonpayable",
      "type": "function"
    },
    {
      "constant": false,
      "inputs": [],
      "name": "split",
      "outputs": [],
      "payable": false,
      "stateMutability": "nonpayable",
      "type": "function"
    },
    {
      "constant": false,
      "inputs": [
        {
          "internalType": "address payable",
          "name": "_outputAddress_2",
          "type": "address"
        }
      ],
      "name": "setOutputAddress_2",
      "outputs": [],
      "payable": false,
      "stateMutability": "nonpayable",
      "type": "function"
    },
    {
      "constant": false,
      "inputs": [
        {
          "internalType": "address payable",
          "name": "_outputAddress_3",
          "type": "address"
        }
      ],
      "name": "setOutputAddress_3",
      "outputs": [],
      "payable": false,
      "stateMutability": "nonpayable",
      "type": "function"
    },
    {
      "constant": false,
      "inputs": [
        {
          "internalType": "uint256",
          "name": "_outputProportion_1",
          "type": "uint256"
        }
      ],
      "name": "setOutputProportion_1",
      "outputs": [],
      "payable": false,
      "stateMutability": "nonpayable",
      "type": "function"
    },
    {
      "constant": false,
      "inputs": [
        {
          "internalType": "uint256",
          "name": "_outputProportion_2",
          "type": "uint256"
        }
      ],
      "name": "setOutputProportion_2",
      "outputs": [],
      "payable": false,
      "stateMutability": "nonpayable",
      "type": "function"
    },
    {
      "constant": false,
      "inputs": [
        {
          "internalType": "address payable",
          "name": "_outputTokenGovernAddress_1",
          "type": "address"
        }
      ],
      "name": "setOutputTokenGovernAddress_1",
      "outputs": [],
      "payable": false,
      "stateMutability": "nonpayable",
      "type": "function"
    },
    {
      "constant": false,
      "inputs": [
        {
          "internalType": "address payable",
          "name": "_outputTokenGovernAddress_2",
          "type": "address"
        }
      ],
      "name": "setOutputTokenGovernAddress_2",
      "outputs": [],
      "payable": false,
      "stateMutability": "nonpayable",
      "type": "function"
    },
    {
      "constant": false,
      "inputs": [
        {
          "internalType": "uint256",
          "name": "_outputProportionTokenGovern_1",
          "type": "uint256"
        }
      ],
      "name": "setOutputProportionTokenGovern_1",
      "outputs": [],
      "payable": false,
      "stateMutability": "nonpayable",
      "type": "function"
    },
    {
      "constant": false,
      "inputs": [
        {
          "internalType": "address",
          "name": "_tokenGovern",
          "type": "address"
        }
      ],
      "name": "setTokenGovern",
      "outputs": [],
      "payable": false,
      "stateMutability": "nonpayable",
      "type": "function"
    }
  ],
  "bytecode": "0x608060405234801561001057600080fd5b50611baf806100206000396000f3fe608060405234801561001057600080fd5b5060043610610190576000357c0100000000000000000000000000000000000000000000000000000000900480638129fc1c116100fb578063c4d66de8116100b4578063e46c70c91161008e578063e46c70c9146103c2578063f4325d67146103df578063f7654176146103e7578063fdc29a78146103ef57610190565b8063c4d66de814610350578063c574dd3314610376578063c8fa463d1461039c57610190565b80638129fc1c14610302578063912ca0b01461030a57806396acc69e14610312578063aaf5eb681461031a578063b4506f9314610322578063b6e083301461032a57610190565b806335cd2f461161014d57806335cd2f46146102285780633946f4a3146102305780635d0fa9c6146102385780636ccbac9b146102ae5780636e25e604146102d4578063752f8d66146102dc57610190565b80630c340a241461019557806322f576c0146101b95780632af4c90a146101d35780632d697460146101db5780632fab5282146102035780633311ee7214610220575b600080fd5b61019d61040c565b60408051600160a060020a039092168252519081900360200190f35b6101c161041b565b60408051918252519081900360200190f35b6101c1610421565b610201600480360360208110156101f157600080fd5b5035600160a060020a0316610427565b005b6102016004803603602081101561021957600080fd5b5035610572565b61019d6106ad565b61019d6106bc565b6101c16106cb565b610201600480360361016081101561024f57600080fd5b50600160a060020a038135811691602081013582169160408201358116916060810135821691608082013581169160a08101359160c08201359160e08101358216916101008201358116916101208101359161014090910135166106d1565b610201600480360360208110156102c457600080fd5b5035600160a060020a03166108f4565b61019d610a60565b610201600480360360208110156102f257600080fd5b5035600160a060020a0316610a6f565b610201610b7d565b61019d610c27565b61019d610c36565b6101c1610c45565b61019d610c51565b6102016004803603602081101561034057600080fd5b5035600160a060020a0316610c60565b6102016004803603602081101561036657600080fd5b5035600160a060020a0316610d6e565b6102016004803603602081101561038c57600080fd5b5035600160a060020a0316610e2f565b610201600480360360208110156103b257600080fd5b5035600160a060020a0316610f3d565b610201600480360360208110156103d857600080fd5b503561104b565b61019d611186565b610201611195565b6102016004803603602081101561040557600080fd5b5035611738565b603354600160a060020a031681565b609e5481565b60a15481565b6033546040805160e060020a63d994d6d50281523360048201529051600160a060020a039092169163d994d6d591602480820192602092909190829003018186803b15801561047557600080fd5b505afa158015610489573d6000803e3d6000fd5b505050506040513d602081101561049f57600080fd5b50516040805180820190915260168152600080516020611b5b83398151915260208201529061054f5760405160e560020a62461bcd0281526004018080602001828103825283818151815260200191508051906020019080838360005b838110156105145781810151838201526020016104fc565b50505050905090810190601f1680156105415780820380516001836020036101000a031916815260200191505b509250505060405180910390fd5b50609c8054600160a060020a031916600160a060020a0392909216919091179055565b6033546040805160e060020a63d994d6d50281523360048201529051600160a060020a039092169163d994d6d591602480820192602092909190829003018186803b1580156105c057600080fd5b505afa1580156105d4573d6000803e3d6000fd5b505050506040513d60208110156105ea57600080fd5b50516040805180820190915260168152600080516020611b5b83398151915260208201529061065d5760405160e560020a62461bcd0281526020600482018181528351602484015283519092839260449091019190850190808383600083156105145781810151838201526020016104fc565b50670de0b6b3a76400008111156106a85760405160e560020a62461bcd028152600401808060200182810382526042815260200180611a5a6042913960600191505060405180910390fd5b60a155565b609f54600160a060020a031681565b60a254600160a060020a031681565b609d5481565b600054610100900460ff16806106ea57506106ea611873565b806106f8575060005460ff16155b6107365760405160e560020a62461bcd02815260040180806020018281038252602e815260200180611b2d602e913960400191505060405180910390fd5b600054610100900460ff16158015610761576000805460ff1961ff0019909116610100171660011790555b670de0b6b3a76400008711156107ab5760405160e560020a62461bcd028152600401808060200182810382526038815260200180611af56038913960400191505060405180910390fd5b670de0b6b3a76400006107c4888863ffffffff61187916565b11156108045760405160e560020a62461bcd028152600401808060200182810382526051815260200180611a096051913960600191505060405180910390fd5b670de0b6b3a764000083111561084e5760405160e560020a62461bcd028152600401808060200182810382526042815260200180611a5a6042913960600191505060405180910390fd5b60998054600160a060020a0319908116600160a060020a038e811691909117909255609a805482168d8416179055609b805482168c8416179055609c805482168b8416179055609d899055609e889055609f8054821688841617905560a08054821687841617905560a185905560a280549091169184169190911790556108d48c610d6e565b80156108e6576000805461ff00191690555b505050505050505050505050565b6033546040805160e060020a63d994d6d50281523360048201529051600160a060020a039092169163d994d6d591602480820192602092909190829003018186803b15801561094257600080fd5b505afa158015610956573d6000803e3d6000fd5b505050506040513d602081101561096c57600080fd5b50516040805180820190915260168152600080516020611b5b8339815191526020820152906109df5760405160e560020a62461bcd0281526020600482018181528351602484015283519092839260449091019190850190808383600083156105145781810151838201526020016104fc565b50600160a060020a038116610a3e576040805160e560020a62461bcd02815260206004820152601c60248201527f476f7665726e20546f6b656e206d757374206e6f742062652030783000000000604482015290519081900360640190fd5b60a28054600160a060020a031916600160a060020a0392909216919091179055565b60a054600160a060020a031681565b6033546040805160e060020a63d994d6d50281523360048201529051600160a060020a039092169163d994d6d591602480820192602092909190829003018186803b158015610abd57600080fd5b505afa158015610ad1573d6000803e3d6000fd5b505050506040513d6020811015610ae757600080fd5b50516040805180820190915260168152600080516020611b5b833981519152602082015290610b5a5760405160e560020a62461bcd0281526020600482018181528351602484015283519092839260449091019190850190808383600083156105145781810151838201526020016104fc565b50609f8054600160a060020a031916600160a060020a0392909216919091179055565b600054610100900460ff1680610b965750610b96611873565b80610ba4575060005460ff16155b610be25760405160e560020a62461bcd02815260040180806020018281038252602e815260200180611b2d602e913960400191505060405180910390fd5b600054610100900460ff16158015610c0d576000805460ff1961ff0019909116610100171660011790555b60016066558015610c24576000805461ff00191690555b50565b609b54600160a060020a031681565b609a54600160a060020a031681565b670de0b6b3a764000081565b609c54600160a060020a031681565b6033546040805160e060020a63d994d6d50281523360048201529051600160a060020a039092169163d994d6d591602480820192602092909190829003018186803b158015610cae57600080fd5b505afa158015610cc2573d6000803e3d6000fd5b505050506040513d6020811015610cd857600080fd5b50516040805180820190915260168152600080516020611b5b833981519152602082015290610d4b5760405160e560020a62461bcd0281526020600482018181528351602484015283519092839260449091019190850190808383600083156105145781810151838201526020016104fc565b5060338054600160a060020a031916600160a060020a0392909216919091179055565b600054610100900460ff1680610d875750610d87611873565b80610d95575060005460ff16155b610dd35760405160e560020a62461bcd02815260040180806020018281038252602e815260200180611b2d602e913960400191505060405180910390fd5b600054610100900460ff16158015610dfe576000805460ff1961ff0019909116610100171660011790555b60338054600160a060020a031916600160a060020a0384161790558015610e2b576000805461ff00191690555b5050565b6033546040805160e060020a63d994d6d50281523360048201529051600160a060020a039092169163d994d6d591602480820192602092909190829003018186803b158015610e7d57600080fd5b505afa158015610e91573d6000803e3d6000fd5b505050506040513d6020811015610ea757600080fd5b50516040805180820190915260168152600080516020611b5b833981519152602082015290610f1a5760405160e560020a62461bcd0281526020600482018181528351602484015283519092839260449091019190850190808383600083156105145781810151838201526020016104fc565b5060a08054600160a060020a031916600160a060020a0392909216919091179055565b6033546040805160e060020a63d994d6d50281523360048201529051600160a060020a039092169163d994d6d591602480820192602092909190829003018186803b158015610f8b57600080fd5b505afa158015610f9f573d6000803e3d6000fd5b505050506040513d6020811015610fb557600080fd5b50516040805180820190915260168152600080516020611b5b8339815191526020820152906110285760405160e560020a62461bcd0281526020600482018181528351602484015283519092839260449091019190850190808383600083156105145781810151838201526020016104fc565b50609b8054600160a060020a031916600160a060020a0392909216919091179055565b6033546040805160e060020a63d994d6d50281523360048201529051600160a060020a039092169163d994d6d591602480820192602092909190829003018186803b15801561109957600080fd5b505afa1580156110ad573d6000803e3d6000fd5b505050506040513d60208110156110c357600080fd5b50516040805180820190915260168152600080516020611b5b8339815191526020820152906111365760405160e560020a62461bcd0281526020600482018181528351602484015283519092839260449091019190850190808383600083156105145781810151838201526020016104fc565b50670de0b6b3a76400008111156111815760405160e560020a62461bcd028152600401808060200182810382526038815260200180611abd6038913960400191505060405180910390fd5b609e55565b609954600160a060020a031681565b6066805460010190819055609954604080517f70a082310000000000000000000000000000000000000000000000000000000081523060048201529051600092600160a060020a0316916370a08231916024808301926020929190829003018186803b15801561120457600080fd5b505afa158015611218573d6000803e3d6000fd5b505050506040513d602081101561122e57600080fd5b5051609d5490915060009061126490670de0b6b3a76400009061125890859063ffffffff6118df16565b9063ffffffff61193b16565b90506000611289670de0b6b3a7640000611258609e54866118df90919063ffffffff16565b905060006112ad6112a0848463ffffffff61187916565b859063ffffffff6119a816565b905082156113d257609954609a54604080517f095ea7b3000000000000000000000000000000000000000000000000000000008152600160a060020a039283166004820152602481018790529051919092169163095ea7b39160448083019260209291908290030181600087803b15801561132757600080fd5b505af115801561133b573d6000803e3d6000fd5b505050506040513d602081101561135157600080fd5b5050609a54604080517f7821a514000000000000000000000000000000000000000000000000000000008152600481018690529051600160a060020a0390921691637821a5149160248082019260009290919082900301818387803b1580156113b957600080fd5b505af11580156113cd573d6000803e3d6000fd5b505050505b811561146157609954609b546040805160e060020a63a9059cbb028152600160a060020a039283166004820152602481018690529051919092169163a9059cbb9160448083019260209291908290030181600087803b15801561143457600080fd5b505af1158015611448573d6000803e3d6000fd5b505050506040513d602081101561145e57600080fd5b50505b80156114f057609954609c546040805160e060020a63a9059cbb028152600160a060020a039283166004820152602481018590529051919092169163a9059cbb9160448083019260209291908290030181600087803b1580156114c357600080fd5b505af11580156114d7573d6000803e3d6000fd5b505050506040513d60208110156114ed57600080fd5b50505b60a254604080517f70a082310000000000000000000000000000000000000000000000000000000081523060048201529051600092600160a060020a0316916370a08231916024808301926020929190829003018186803b15801561155457600080fd5b505afa158015611568573d6000803e3d6000fd5b505050506040513d602081101561157e57600080fd5b505160a1549091506000906115a890670de0b6b3a76400009061125890859063ffffffff6118df16565b905060006115bc838363ffffffff6119a816565b905082156116d55760a254609f546040805160e060020a63a9059cbb028152600160a060020a039283166004820152602481018690529051919092169163a9059cbb9160448083019260209291908290030181600087803b15801561162057600080fd5b505af1158015611634573d6000803e3d6000fd5b505050506040513d602081101561164a57600080fd5b505060a25460a0546040805160e060020a63a9059cbb028152600160a060020a039283166004820152602481018590529051919092169163a9059cbb9160448083019260209291908290030181600087803b1580156116a857600080fd5b505af11580156116bc573d6000803e3d6000fd5b505050506040513d60208110156116d257600080fd5b50505b6040805187815260208101879052808201869052606081018490526080810183905290517f504da91540266b45e8658ec4aef5111968fef7de874a8baf5bc85e66259c0e0c9181900360a00190a1505050505050506066548114610c2457600080fd5b6033546040805160e060020a63d994d6d50281523360048201529051600160a060020a039092169163d994d6d591602480820192602092909190829003018186803b15801561178657600080fd5b505afa15801561179a573d6000803e3d6000fd5b505050506040513d60208110156117b057600080fd5b50516040805180820190915260168152600080516020611b5b8339815191526020820152906118235760405160e560020a62461bcd0281526020600482018181528351602484015283519092839260449091019190850190808383600083156105145781810151838201526020016104fc565b50670de0b6b3a764000081111561186e5760405160e560020a62461bcd028152600401808060200182810382526038815260200180611af56038913960400191505060405180910390fd5b609d55565b303b1590565b6000828201838110156118d6576040805160e560020a62461bcd02815260206004820152601b60248201527f536166654d6174683a206164646974696f6e206f766572666c6f770000000000604482015290519081900360640190fd5b90505b92915050565b6000826118ee575060006118d9565b828202828482816118fb57fe5b04146118d65760405160e560020a62461bcd028152600401808060200182810382526021815260200180611a9c6021913960400191505060405180910390fd5b6000808211611994576040805160e560020a62461bcd02815260206004820152601a60248201527f536166654d6174683a206469766973696f6e206279207a65726f000000000000604482015290519081900360640190fd5b600082848161199f57fe5b04949350505050565b600082821115611a02576040805160e560020a62461bcd02815260206004820152601e60248201527f536166654d6174683a207375627472616374696f6e206f766572666c6f770000604482015290519081900360640190fd5b5090039056fe4f75747075742050726f706f7274696f6e20233120616e64204f75747075742050726f706f7274696f6e2023322073686f756c64206e6f7420626520686967686572207468616e20707265636973696f6e4f75747075742050726f706f7274696f6e20546f6b656e20476f7665726e2073686f756c64206e6f7420626520686967686572207468616e20707265636973696f6e536166654d6174683a206d756c7469706c69636174696f6e206f766572666c6f774f75747075742050726f706f7274696f6e2023322073686f756c64206e6f7420626520686967686572207468616e20707265636973696f6e4f75747075742050726f706f7274696f6e2023312073686f756c64206e6f7420626520686967686572207468616e20707265636973696f6e436f6e747261637420696e7374616e63652068617320616c7265616479206265656e20696e697469616c697a65646e6f745f617574686f72697a65645f6368616e67657200000000000000000000a265627a7a723158203f25dc408a42073d33752f07cca2b55dbde521f60a44b87522967f05e9d8e7d564736f6c63430005110032",
  "source": "pragma solidity ^0.5.8;\n\nimport \"moc-governance/contracts/Governance/Governed.sol\";\nimport \"moc-governance/contracts/Governance/IGovernor.sol\";\nimport \"../interfaces/IMoC.sol\";\nimport \"openzeppelin-solidity/contracts/token/ERC20/IERC20.sol\";\nimport \"openzeppelin-solidity/contracts/math/SafeMath.sol\";\nimport \"openzeppelin-eth/contracts/utils/ReentrancyGuard.sol\";\n\n/**\n  @dev Contract that split his balance between two addresses based on a\n  proportion defined by Governance.\n */\n// TODO: TBD new CommissionSplitter implementation and its migration. It shouldn't split commissions to MoCV2\ncontract CommissionSplitterV2 is Governed, ReentrancyGuard {\n\n  event SplitExecuted(\n    uint256 outputAmount_1,\n    uint256 outputAmount_2,\n    uint256 outputAmount_3,\n    uint256 outputTokenGovernAmount_1,\n    uint256 outputTokenGovernAmount_2\n  );\n\n  // Math\n  using SafeMath for uint256;\n  uint256 public constant PRECISION = 10**18;\n\n  // Collateral asset splitter\n\n  IERC20 public reserveToken;\n\n  // Output_1 receiver MoC Contract address\n  IMoC public outputMoC;\n\n  // Output_2 receiver address\n  address public outputAddress_2;\n\n  // Output_3 receiver address\n  address public outputAddress_3;\n\n  // Proportion of the balance to Output 1\n  uint256 public outputProportion_1;\n\n  // Proportion of the balance to Output 2\n  uint256 public outputProportion_2;\n\n  // Token Govern splitter\n\n  // Output Token Govern #1 receiver address\n  address public outputTokenGovernAddress_1;\n\n  // Output Token Govern #2 receiver address\n  address public outputTokenGovernAddress_2;\n\n  // Proportion of the balance of Token Govern to Output 1\n  uint256 public outputProportionTokenGovern_1;\n\n  // Token Govern Address\n  IERC20 public tokenGovern;\n\n  /**\n    @dev Initialize commission splitter contract\n    @param _governor the address of the IGovernor contract\n    @param _reserveToken the address of the ReserveToken contract\n    @param _outputMoC the address receiver MoC Contract #1\n    @param _outputAddress_2 the address receiver #2\n    @param _outputAddress_3 the address receiver #3\n    @param _outputProportion_1 the proportion of commission will send to address #1, it should have PRECISION precision\n    @param _outputProportion_2 the proportion of commission will send to address #2, it should have PRECISION precision\n    @param _outputTokenGovernAddress_1 the address receiver #1\n    @param _outputTokenGovernAddress_2 the address receiver #2\n    @param _outputProportionTokenGovern_1 the proportion of commission will send to address #1, it should have PRECISION precision\n    @param _tokenGovern the address of Token Govern contract\n   */\n  function initialize(\n    IGovernor _governor,\n    IERC20 _reserveToken,\n    IMoC _outputMoC,\n    address _outputAddress_2,\n    address _outputAddress_3,\n    uint256 _outputProportion_1,\n    uint256 _outputProportion_2,\n    address _outputTokenGovernAddress_1,\n    address _outputTokenGovernAddress_2,\n    uint256 _outputProportionTokenGovern_1,\n    IERC20 _tokenGovern\n  ) public initializer {\n\n    require(\n      _outputProportion_1 <= PRECISION,\n      \"Output Proportion #1 should not be higher than precision\"\n    );\n\n    require(\n      _outputProportion_1.add(_outputProportion_2) <= PRECISION,\n      \"Output Proportion #1 and Output Proportion #2 should not be higher than precision\"\n    );\n\n    require(\n      _outputProportionTokenGovern_1 <= PRECISION,\n      \"Output Proportion Token Govern should not be higher than precision\"\n    );\n\n    reserveToken = IERC20(_reserveToken);\n    outputMoC = IMoC(_outputMoC);\n    outputAddress_2 = _outputAddress_2;\n    outputAddress_3 = _outputAddress_3;\n    outputProportion_1 = _outputProportion_1;\n    outputProportion_2 = _outputProportion_2;\n    outputTokenGovernAddress_1 = _outputTokenGovernAddress_1;\n    outputTokenGovernAddress_2 = _outputTokenGovernAddress_2;\n    outputProportionTokenGovern_1 = _outputProportionTokenGovern_1;\n    tokenGovern = IERC20(_tokenGovern);\n    Governed.initialize(_governor);\n  }\n\n  /**\n  @dev Split current balance of the contract, and sends one part\n  to destination address #1 and the other to destination address #2.\n   */\n  function split() public nonReentrant {\n\n    // Split collateral Assets\n\n    uint256 currentBalance = reserveToken.balanceOf(address(this));\n    uint256 outputAmount_1 = currentBalance.mul(outputProportion_1).div(PRECISION);\n    uint256 outputAmount_2 = currentBalance.mul(outputProportion_2).div(PRECISION);\n    uint256 outputAmount_3 = currentBalance.sub(outputAmount_1.add(outputAmount_2));\n\n    // sends reserve token to MoC Contracts\n    if (outputAmount_1 > 0) {\n      reserveToken.approve(address(outputMoC), outputAmount_1);\n      outputMoC.addReserves(outputAmount_1);\n    }\n\n    // send reserve token to output 2\n    if (outputAmount_2 > 0) {\n      reserveToken.transfer(outputAddress_2, outputAmount_2);\n    }\n\n    // send reserve token to output 3\n    if (outputAmount_3 > 0) {\n      reserveToken.transfer(outputAddress_3, outputAmount_3);\n    }\n\n    // Split Token Govern\n    uint256 tokenGovernBalance = tokenGovern.balanceOf(address(this));\n    uint256 outputTokenGovernAmount_1 = tokenGovernBalance.mul(outputProportionTokenGovern_1).div(PRECISION);\n    uint256 outputTokenGovernAmount_2 = tokenGovernBalance.sub(outputTokenGovernAmount_1);\n\n    if (tokenGovernBalance > 0) {\n      tokenGovern.transfer(outputTokenGovernAddress_1, outputTokenGovernAmount_1);\n      tokenGovern.transfer(outputTokenGovernAddress_2, outputTokenGovernAmount_2);\n    }\n\n    emit SplitExecuted(outputAmount_1, outputAmount_2, outputAmount_3, outputTokenGovernAmount_1, outputTokenGovernAmount_2);\n  }\n\n  // Governance Setters\n\n  function setOutputAddress_2(address payable _outputAddress_2)\n    public\n    onlyAuthorizedChanger\n  {\n    outputAddress_2 = _outputAddress_2;\n  }\n\n  function setOutputAddress_3(address payable _outputAddress_3)\n    public\n    onlyAuthorizedChanger\n  {\n    outputAddress_3 = _outputAddress_3;\n  }\n\n  function setOutputProportion_1(uint256 _outputProportion_1)\n    public\n    onlyAuthorizedChanger\n  {\n    require(\n      _outputProportion_1 <= PRECISION,\n      \"Output Proportion #1 should not be higher than precision\"\n    );\n    outputProportion_1 = _outputProportion_1;\n  }\n\n  function setOutputProportion_2(uint256 _outputProportion_2)\n    public\n    onlyAuthorizedChanger\n  {\n    require(\n      _outputProportion_2 <= PRECISION,\n      \"Output Proportion #2 should not be higher than precision\"\n    );\n    outputProportion_2 = _outputProportion_2;\n  }\n\n  function setOutputTokenGovernAddress_1(address payable _outputTokenGovernAddress_1)\n    public\n    onlyAuthorizedChanger\n  {\n    outputTokenGovernAddress_1 = _outputTokenGovernAddress_1;\n  }\n\n  function setOutputTokenGovernAddress_2(address payable _outputTokenGovernAddress_2)\n    public\n    onlyAuthorizedChanger\n  {\n    outputTokenGovernAddress_2 = _outputTokenGovernAddress_2;\n  }\n\n  function setOutputProportionTokenGovern_1(uint256 _outputProportionTokenGovern_1)\n    public\n    onlyAuthorizedChanger\n  {\n    require(\n      _outputProportionTokenGovern_1 <= PRECISION,\n      \"Output Proportion Token Govern should not be higher than precision\"\n    );\n    outputProportionTokenGovern_1 = _outputProportionTokenGovern_1;\n  }\n\n  function setTokenGovern(address _tokenGovern) public onlyAuthorizedChanger {\n    require(_tokenGovern != address(0), \"Govern Token must not be 0x0\");\n    tokenGovern = IERC20(_tokenGovern);\n  }\n\n\n}\n",
  "sourcePath": "/Users/f.ruiz/projects/moc/RDOC-Contract-Internal/contracts/auxiliar/CommissionSplitterV2.sol",
  "compiler": {
    "name": "solc",
    "version": "0.5.17+commit.d19bba13.Emscripten.clang"
  },
  "schemaVersion": "3.0.11",
  "updatedAt": "2023-10-17T16:24:04.052Z",
  "devdoc": {
    "details": "Contract that split his balance between two addresses based on a proportion defined by Governance.",
    "methods": {
      "changeIGovernor(address)": {
        "params": {
          "newIGovernor": "New governor address"
        }
      },
      "initialize(address)": {
        "details": "This initialize replaces the constructor but it is not called automatically. It is necessary because of the upgradeability of the contracts",
        "params": {
          "_governor": "Governor address"
        }
      },
      "initialize(address,address,address,address,address,uint256,uint256,address,address,uint256,address)": {
        "details": "Initialize commission splitter contract",
        "params": {
          "_governor": "the address of the IGovernor contract",
          "_outputAddress_2": "the address receiver #2",
          "_outputAddress_3": "the address receiver #3",
          "_outputMoC": "the address receiver MoC Contract #1",
          "_outputProportionTokenGovern_1": "the proportion of commission will send to address #1, it should have PRECISION precision",
          "_outputProportion_1": "the proportion of commission will send to address #1, it should have PRECISION precision",
          "_outputProportion_2": "the proportion of commission will send to address #2, it should have PRECISION precision",
          "_outputTokenGovernAddress_1": "the address receiver #1",
          "_outputTokenGovernAddress_2": "the address receiver #2",
          "_reserveToken": "the address of the ReserveToken contract",
          "_tokenGovern": "the address of Token Govern contract"
        }
      },
      "split()": {
        "details": "Split current balance of the contract, and sends one part to destination address #1 and the other to destination address #2."
      }
    }
  },
  "userdoc": {
    "methods": {
      "changeIGovernor(address)": {
        "notice": "Change the contract's governor. Should be called through the old governance system"
      },
      "initialize(address)": {
        "notice": "Initialize the contract with the basic settings"
      }
    }
  }
}