{
  "contractName": "CommissionSplitterV3",
  "abi": [
    {
      "anonymous": false,
      "inputs": [
        {
          "indexed": false,
          "internalType": "uint256",
          "name": "outputAmount_1",
          "type": "uint256"
        },
        {
          "indexed": false,
          "internalType": "uint256",
          "name": "outputAmount_2",
          "type": "uint256"
        }
      ],
      "name": "SplitExecuted",
      "type": "event"
    },
    {
      "constant": true,
      "inputs": [],
      "name": "PRECISION",
      "outputs": [
        {
          "internalType": "uint256",
          "name": "",
          "type": "uint256"
        }
      ],
      "payable": false,
      "stateMutability": "view",
      "type": "function"
    },
    {
      "constant": false,
      "inputs": [
        {
          "internalType": "contract IGovernor",
          "name": "newIGovernor",
          "type": "address"
        }
      ],
      "name": "changeIGovernor",
      "outputs": [],
      "payable": false,
      "stateMutability": "nonpayable",
      "type": "function"
    },
    {
      "constant": true,
      "inputs": [],
      "name": "governor",
      "outputs": [
        {
          "internalType": "contract IGovernor",
          "name": "",
          "type": "address"
        }
      ],
      "payable": false,
      "stateMutability": "view",
      "type": "function"
    },
    {
      "constant": true,
      "inputs": [],
      "name": "outputAddress_1",
      "outputs": [
        {
          "internalType": "address",
          "name": "",
          "type": "address"
        }
      ],
      "payable": false,
      "stateMutability": "view",
      "type": "function"
    },
    {
      "constant": true,
      "inputs": [],
      "name": "outputAddress_2",
      "outputs": [
        {
          "internalType": "address",
          "name": "",
          "type": "address"
        }
      ],
      "payable": false,
      "stateMutability": "view",
      "type": "function"
    },
    {
      "constant": true,
      "inputs": [],
      "name": "outputProportion_1",
      "outputs": [
        {
          "internalType": "uint256",
          "name": "",
          "type": "uint256"
        }
      ],
      "payable": false,
      "stateMutability": "view",
      "type": "function"
    },
    {
      "constant": true,
      "inputs": [],
      "name": "reserveToken",
      "outputs": [
        {
          "internalType": "contract IERC20",
          "name": "",
          "type": "address"
        }
      ],
      "payable": false,
      "stateMutability": "view",
      "type": "function"
    },
    {
      "constant": false,
      "inputs": [],
      "name": "initialize",
      "outputs": [],
      "payable": false,
      "stateMutability": "nonpayable",
      "type": "function"
    },
    {
      "constant": false,
      "inputs": [
        {
          "internalType": "contract IGovernor",
          "name": "_governor",
          "type": "address"
        }
      ],
      "name": "initialize",
      "outputs": [],
      "payable": false,
      "stateMutability": "nonpayable",
      "type": "function"
    },
    {
      "constant": false,
      "inputs": [
        {
          "internalType": "contract IGovernor",
          "name": "_governor",
          "type": "address"
        },
        {
          "internalType": "contract IERC20",
          "name": "_reserveToken",
          "type": "address"
        },
        {
          "internalType": "address",
          "name": "_outputAddress_1",
          "type": "address"
        },
        {
          "internalType": "address",
          "name": "_outputAddress_2",
          "type": "address"
        },
        {
          "internalType": "uint256",
          "name": "_outputProportion_1",
          "type": "uint256"
        }
      ],
      "name": "initialize",
      "outputs": [],
      "payable": false,
      "stateMutability": "nonpayable",
      "type": "function"
    },
    {
      "constant": false,
      "inputs": [],
      "name": "split",
      "outputs": [],
      "payable": false,
      "stateMutability": "nonpayable",
      "type": "function"
    },
    {
      "constant": false,
      "inputs": [
        {
          "internalType": "address payable",
          "name": "_outputAddress_1",
          "type": "address"
        }
      ],
      "name": "setOutputAddress_1",
      "outputs": [],
      "payable": false,
      "stateMutability": "nonpayable",
      "type": "function"
    },
    {
      "constant": false,
      "inputs": [
        {
          "internalType": "address payable",
          "name": "_outputAddress_2",
          "type": "address"
        }
      ],
      "name": "setOutputAddress_2",
      "outputs": [],
      "payable": false,
      "stateMutability": "nonpayable",
      "type": "function"
    },
    {
      "constant": false,
      "inputs": [
        {
          "internalType": "uint256",
          "name": "_outputProportion_1",
          "type": "uint256"
        }
      ],
      "name": "setOutputProportion_1",
      "outputs": [],
      "payable": false,
      "stateMutability": "nonpayable",
      "type": "function"
    }
  ],
  "bytecode": "0x608060405234801561001057600080fd5b50610ee1806100206000396000f3fe608060405234801561001057600080fd5b5060043610610107576000357c010000000000000000000000000000000000000000000000000000000090048063c4d66de8116100a9578063f4325d6711610083578063f4325d6714610204578063f7013ef61461020c578063f765417614610252578063fdc29a781461025a57610107565b8063c4d66de814610192578063c8fa463d146101b8578063ed9f84df146101de57610107565b8063912ca0b0116100e5578063912ca0b014610154578063aaf5eb681461015c578063b6e0833014610164578063bcfd36921461018a57610107565b80630c340a241461010c5780633946f4a3146101305780638129fc1c1461014a575b600080fd5b610114610277565b60408051600160a060020a039092168252519081900360200190f35b610138610286565b60408051918252519081900360200190f35b61015261028c565b005b610114610336565b610138610345565b6101526004803603602081101561017a57600080fd5b5035600160a060020a0316610351565b6101146104a9565b610152600480360360208110156101a857600080fd5b5035600160a060020a03166104b8565b610152600480360360208110156101ce57600080fd5b5035600160a060020a0316610586565b610152600480360360208110156101f457600080fd5b5035600160a060020a03166106a1565b6101146107bc565b610152600480360360a081101561022257600080fd5b50600160a060020a03813581169160208101358216916040820135811691606081013590911690608001356107cb565b610152610917565b6101526004803603602081101561027057600080fd5b5035610b92565b603354600160a060020a031681565b609c5481565b600054610100900460ff16806102a557506102a5610ccd565b806102b3575060005460ff16155b6102f15760405160e560020a62461bcd02815260040180806020018281038252602e815260200180610e5f602e913960400191505060405180910390fd5b600054610100900460ff1615801561031c576000805460ff1961ff0019909116610100171660011790555b60016066558015610333576000805461ff00191690555b50565b609b54600160a060020a031681565b670de0b6b3a764000081565b6033546040805160e060020a63d994d6d50281523360048201529051600160a060020a039092169163d994d6d591602480820192602092909190829003018186803b15801561039f57600080fd5b505afa1580156103b3573d6000803e3d6000fd5b505050506040513d60208110156103c957600080fd5b50516040805180820190915260168152600080516020610e8d8339815191526020820152906104795760405160e560020a62461bcd0281526004018080602001828103825283818151815260200191508051906020019080838360005b8381101561043e578181015183820152602001610426565b50505050905090810190601f16801561046b5780820380516001836020036101000a031916815260200191505b509250505060405180910390fd5b506033805473ffffffffffffffffffffffffffffffffffffffff1916600160a060020a0392909216919091179055565b609a54600160a060020a031681565b600054610100900460ff16806104d157506104d1610ccd565b806104df575060005460ff16155b61051d5760405160e560020a62461bcd02815260040180806020018281038252602e815260200180610e5f602e913960400191505060405180910390fd5b600054610100900460ff16158015610548576000805460ff1961ff0019909116610100171660011790555b6033805473ffffffffffffffffffffffffffffffffffffffff1916600160a060020a0384161790558015610582576000805461ff00191690555b5050565b6033546040805160e060020a63d994d6d50281523360048201529051600160a060020a039092169163d994d6d591602480820192602092909190829003018186803b1580156105d457600080fd5b505afa1580156105e8573d6000803e3d6000fd5b505050506040513d60208110156105fe57600080fd5b50516040805180820190915260168152600080516020610e8d8339815191526020820152906106715760405160e560020a62461bcd02815260206004820181815283516024840152835190928392604490910191908501908083836000831561043e578181015183820152602001610426565b50609b805473ffffffffffffffffffffffffffffffffffffffff1916600160a060020a0392909216919091179055565b6033546040805160e060020a63d994d6d50281523360048201529051600160a060020a039092169163d994d6d591602480820192602092909190829003018186803b1580156106ef57600080fd5b505afa158015610703573d6000803e3d6000fd5b505050506040513d602081101561071957600080fd5b50516040805180820190915260168152600080516020610e8d83398151915260208201529061078c5760405160e560020a62461bcd02815260206004820181815283516024840152835190928392604490910191908501908083836000831561043e578181015183820152602001610426565b50609a805473ffffffffffffffffffffffffffffffffffffffff1916600160a060020a0392909216919091179055565b609954600160a060020a031681565b600054610100900460ff16806107e457506107e4610ccd565b806107f2575060005460ff16155b6108305760405160e560020a62461bcd02815260040180806020018281038252602e815260200180610e5f602e913960400191505060405180910390fd5b600054610100900460ff1615801561085b576000805460ff1961ff0019909116610100171660011790555b670de0b6b3a76400008211156108a55760405160e560020a62461bcd028152600401808060200182810382526038815260200180610e276038913960400191505060405180910390fd5b60998054600160a060020a0380881673ffffffffffffffffffffffffffffffffffffffff1992831617909255609a8054878416908316179055609b805492861692909116919091179055609c8290556108fd866104b8565b801561090f576000805461ff00191690555b505050505050565b6066805460010190819055609954604080517f70a082310000000000000000000000000000000000000000000000000000000081523060048201529051600092600160a060020a0316916370a08231916024808301926020929190829003018186803b15801561098657600080fd5b505afa15801561099a573d6000803e3d6000fd5b505050506040513d60208110156109b057600080fd5b5051609c549091506000906109e690670de0b6b3a7640000906109da90859063ffffffff610cd316565b9063ffffffff610d3816565b905060006109fa838363ffffffff610da516565b90508115610aa157609954609a54604080517fa9059cbb000000000000000000000000000000000000000000000000000000008152600160a060020a039283166004820152602481018690529051919092169163a9059cbb9160448083019260209291908290030181600087803b158015610a7457600080fd5b505af1158015610a88573d6000803e3d6000fd5b505050506040513d6020811015610a9e57600080fd5b50505b8015610b4657609954609b54604080517fa9059cbb000000000000000000000000000000000000000000000000000000008152600160a060020a039283166004820152602481018590529051919092169163a9059cbb9160448083019260209291908290030181600087803b158015610b1957600080fd5b505af1158015610b2d573d6000803e3d6000fd5b505050506040513d6020811015610b4357600080fd5b50505b604080518381526020810183905281517f45ea62cc28374066b8fbc70bce25c83b45495028f4b759baec3f347c099d2d85929181900390910190a1505050606654811461033357600080fd5b6033546040805160e060020a63d994d6d50281523360048201529051600160a060020a039092169163d994d6d591602480820192602092909190829003018186803b158015610be057600080fd5b505afa158015610bf4573d6000803e3d6000fd5b505050506040513d6020811015610c0a57600080fd5b50516040805180820190915260168152600080516020610e8d833981519152602082015290610c7d5760405160e560020a62461bcd02815260206004820181815283516024840152835190928392604490910191908501908083836000831561043e578181015183820152602001610426565b50670de0b6b3a7640000811115610cc85760405160e560020a62461bcd028152600401808060200182810382526038815260200180610e276038913960400191505060405180910390fd5b609c55565b303b1590565b600082610ce257506000610d32565b82820282848281610cef57fe5b0414610d2f5760405160e560020a62461bcd028152600401808060200182810382526021815260200180610e066021913960400191505060405180910390fd5b90505b92915050565b6000808211610d91576040805160e560020a62461bcd02815260206004820152601a60248201527f536166654d6174683a206469766973696f6e206279207a65726f000000000000604482015290519081900360640190fd5b6000828481610d9c57fe5b04949350505050565b600082821115610dff576040805160e560020a62461bcd02815260206004820152601e60248201527f536166654d6174683a207375627472616374696f6e206f766572666c6f770000604482015290519081900360640190fd5b5090039056fe536166654d6174683a206d756c7469706c69636174696f6e206f766572666c6f774f75747075742050726f706f7274696f6e2023312073686f756c64206e6f7420626520686967686572207468616e20707265636973696f6e436f6e747261637420696e7374616e63652068617320616c7265616479206265656e20696e697469616c697a65646e6f745f617574686f72697a65645f6368616e67657200000000000000000000a265627a7a723158201402015cc5dbd41fc9386114a8efc51af882993b35adc3574034f74fdc5b170b64736f6c63430005110032",
  "source": "pragma solidity ^0.5.8;\n\nimport \"moc-governance/contracts/Governance/Governed.sol\";\nimport \"moc-governance/contracts/Governance/IGovernor.sol\";\nimport \"openzeppelin-solidity/contracts/token/ERC20/IERC20.sol\";\nimport \"openzeppelin-solidity/contracts/math/SafeMath.sol\";\nimport \"openzeppelin-eth/contracts/utils/ReentrancyGuard.sol\";\n\n/**\n  @dev Contract that split his balance between two addresses based on a\n  proportion defined by Governance.\n */\n// TODO: TBD new CommissionSplitter implementation and its migration. It shouldn't split commissions to MoCV2\ncontract CommissionSplitterV3 is Governed, ReentrancyGuard {\n\n  event SplitExecuted(uint256 outputAmount_1, uint256 outputAmount_2);\n\n  // Math\n  using SafeMath for uint256;\n  uint256 public constant PRECISION = 10**18;\n\n  // Collateral asset splitter\n\n  IERC20 public reserveToken;\n\n  // Output_1 receiver address\n  address public outputAddress_1;\n\n  // Output_2 receiver address\n  address public outputAddress_2;\n\n  // Proportion of the balance to Output 1\n  uint256 public outputProportion_1;\n\n  /**\n    @dev Initialize commission splitter contract\n    @param _governor the address of the IGovernor contract\n    @param _reserveToken the address of the ReserveToken contract\n    @param _outputAddress_1 the address receiver #1\n    @param _outputAddress_2 the address receiver #2\n    @param _outputProportion_1 the proportion of commission will send to address #1, it should have PRECISION precision\n   */\n  function initialize(\n    IGovernor _governor,\n    IERC20 _reserveToken,\n    address _outputAddress_1,\n    address _outputAddress_2,\n    uint256 _outputProportion_1\n  ) public initializer {\n\n    require(\n      _outputProportion_1 <= PRECISION,\n      \"Output Proportion #1 should not be higher than precision\"\n    );\n\n    reserveToken = IERC20(_reserveToken);\n    outputAddress_1 = _outputAddress_1;\n    outputAddress_2 = _outputAddress_2;\n    outputProportion_1 = _outputProportion_1;\n    Governed.initialize(_governor);\n  }\n\n  /**\n  @dev Split current balance of the contract, and sends one part\n  to destination address #1 and the other to destination address #2.\n   */\n  function split() public nonReentrant {\n\n    // Split collateral Assets\n\n    uint256 currentBalance = reserveToken.balanceOf(address(this));\n    uint256 outputAmount_1 = currentBalance.mul(outputProportion_1).div(PRECISION);\n    uint256 outputAmount_2 = currentBalance.sub(outputAmount_1);\n\n    // sends reserve token to output 1\n    if (outputAmount_1 > 0) {\n      reserveToken.transfer(outputAddress_1, outputAmount_1);\n    }\n\n    // send reserve token to output 2\n    if (outputAmount_2 > 0) {\n      reserveToken.transfer(outputAddress_2, outputAmount_2);\n    }\n\n    emit SplitExecuted(outputAmount_1, outputAmount_2);\n  }\n\n  // Governance Setters\n\n  function setOutputAddress_1(address payable _outputAddress_1)\n    public\n    onlyAuthorizedChanger\n  {\n    outputAddress_1 = _outputAddress_1;\n  }\n\n  function setOutputAddress_2(address payable _outputAddress_2)\n    public\n    onlyAuthorizedChanger\n  {\n    outputAddress_2 = _outputAddress_2;\n  }\n\n  function setOutputProportion_1(uint256 _outputProportion_1)\n    public\n    onlyAuthorizedChanger\n  {\n    require(\n      _outputProportion_1 <= PRECISION,\n      \"Output Proportion #1 should not be higher than precision\"\n    );\n    outputProportion_1 = _outputProportion_1;\n  }\n\n}\n",
  "sourcePath": "/Users/f.ruiz/projects/moc/RDOC-Contract-Internal/contracts/auxiliar/CommissionSplitterV3.sol",
  "compiler": {
    "name": "solc",
    "version": "0.5.17+commit.d19bba13.Emscripten.clang"
  },
  "schemaVersion": "3.0.11",
  "updatedAt": "2023-10-17T16:24:04.055Z",
  "devdoc": {
    "details": "Contract that split his balance between two addresses based on a proportion defined by Governance.",
    "methods": {
      "changeIGovernor(address)": {
        "params": {
          "newIGovernor": "New governor address"
        }
      },
      "initialize(address)": {
        "details": "This initialize replaces the constructor but it is not called automatically. It is necessary because of the upgradeability of the contracts",
        "params": {
          "_governor": "Governor address"
        }
      },
      "initialize(address,address,address,address,uint256)": {
        "details": "Initialize commission splitter contract",
        "params": {
          "_governor": "the address of the IGovernor contract",
          "_outputAddress_1": "the address receiver #1",
          "_outputAddress_2": "the address receiver #2",
          "_outputProportion_1": "the proportion of commission will send to address #1, it should have PRECISION precision",
          "_reserveToken": "the address of the ReserveToken contract"
        }
      },
      "split()": {
        "details": "Split current balance of the contract, and sends one part to destination address #1 and the other to destination address #2."
      }
    }
  },
  "userdoc": {
    "methods": {
      "changeIGovernor(address)": {
        "notice": "Change the contract's governor. Should be called through the old governance system"
      },
      "initialize(address)": {
        "notice": "Initialize the contract with the basic settings"
      }
    }
  }
}