{
  "contractName": "MoC",
  "abi": [
    {
      "anonymous": false,
      "inputs": [
        {
          "indexed": false,
          "internalType": "bytes32",
          "name": "bucket",
          "type": "bytes32"
        }
      ],
      "name": "BucketLiquidation",
      "type": "event"
    },
    {
      "anonymous": false,
      "inputs": [],
      "name": "CallRevert",
      "type": "event"
    },
    {
      "anonymous": false,
      "inputs": [
        {
          "indexed": false,
          "internalType": "address",
          "name": "mocAddress",
          "type": "address"
        }
      ],
      "name": "ContractLiquidated",
      "type": "event"
    },
    {
      "anonymous": false,
      "inputs": [
        {
          "indexed": true,
          "internalType": "address",
          "name": "origin",
          "type": "address"
        },
        {
          "indexed": false,
          "internalType": "uint256",
          "name": "amount",
          "type": "uint256"
        }
      ],
      "name": "DepositFailed",
      "type": "event"
    },
    {
      "anonymous": false,
      "inputs": [
        {
          "indexed": false,
          "internalType": "address",
          "name": "account",
          "type": "address"
        }
      ],
      "name": "Paused",
      "type": "event"
    },
    {
      "anonymous": false,
      "inputs": [
        {
          "indexed": false,
          "internalType": "address",
          "name": "account",
          "type": "address"
        }
      ],
      "name": "Unpaused",
      "type": "event"
    },
    {
      "anonymous": false,
      "inputs": [
        {
          "indexed": true,
          "internalType": "address",
          "name": "destination",
          "type": "address"
        },
        {
          "indexed": false,
          "internalType": "uint256",
          "name": "amount",
          "type": "uint256"
        }
      ],
      "name": "WithdrawFailed",
      "type": "event"
    },
    {
      "constant": true,
      "inputs": [],
      "name": "BUCKET_C0",
      "outputs": [
        {
          "internalType": "bytes32",
          "name": "",
          "type": "bytes32"
        }
      ],
      "payable": false,
      "stateMutability": "view",
      "type": "function"
    },
    {
      "constant": true,
      "inputs": [],
      "name": "BUCKET_X2",
      "outputs": [
        {
          "internalType": "bytes32",
          "name": "",
          "type": "bytes32"
        }
      ],
      "payable": false,
      "stateMutability": "view",
      "type": "function"
    },
    {
      "constant": true,
      "inputs": [],
      "name": "DEPRECATED_mocBurnout",
      "outputs": [
        {
          "internalType": "address",
          "name": "",
          "type": "address"
        }
      ],
      "payable": false,
      "stateMutability": "view",
      "type": "function"
    },
    {
      "constant": false,
      "inputs": [
        {
          "internalType": "uint256",
          "name": "tokenAmount",
          "type": "uint256"
        }
      ],
      "name": "addReserves",
      "outputs": [],
      "payable": false,
      "stateMutability": "nonpayable",
      "type": "function"
    },
    {
      "constant": false,
      "inputs": [
        {
          "internalType": "bool",
          "name": "isAddition",
          "type": "bool"
        },
        {
          "internalType": "uint256",
          "name": "delta",
          "type": "uint256"
        }
      ],
      "name": "alterRedeemRequestAmount",
      "outputs": [],
      "payable": false,
      "stateMutability": "nonpayable",
      "type": "function"
    },
    {
      "constant": true,
      "inputs": [],
      "name": "calculateRiskProHoldersInterest",
      "outputs": [
        {
          "internalType": "uint256",
          "name": "",
          "type": "uint256"
        },
        {
          "internalType": "uint256",
          "name": "",
          "type": "uint256"
        }
      ],
      "payable": false,
      "stateMutability": "view",
      "type": "function"
    },
    {
      "constant": false,
      "inputs": [
        {
          "internalType": "contract IGovernor",
          "name": "newIGovernor",
          "type": "address"
        }
      ],
      "name": "changeIGovernor",
      "outputs": [],
      "payable": false,
      "stateMutability": "nonpayable",
      "type": "function"
    },
    {
      "constant": true,
      "inputs": [],
      "name": "connector",
      "outputs": [
        {
          "internalType": "contract MoCConnector",
          "name": "",
          "type": "address"
        }
      ],
      "payable": false,
      "stateMutability": "view",
      "type": "function"
    },
    {
      "constant": false,
      "inputs": [],
      "name": "dailyInratePayment",
      "outputs": [],
      "payable": false,
      "stateMutability": "nonpayable",
      "type": "function"
    },
    {
      "constant": false,
      "inputs": [
        {
          "internalType": "bytes32",
          "name": "bucket",
          "type": "bytes32"
        }
      ],
      "name": "evalBucketLiquidation",
      "outputs": [],
      "payable": false,
      "stateMutability": "nonpayable",
      "type": "function"
    },
    {
      "constant": false,
      "inputs": [],
      "name": "evalLiquidation",
      "outputs": [],
      "payable": false,
      "stateMutability": "nonpayable",
      "type": "function"
    },
    {
      "constant": true,
      "inputs": [
        {
          "internalType": "address",
          "name": "account",
          "type": "address"
        }
      ],
      "name": "getAllowance",
      "outputs": [
        {
          "internalType": "uint256",
          "name": "",
          "type": "uint256"
        }
      ],
      "payable": false,
      "stateMutability": "view",
      "type": "function"
    },
    {
      "constant": true,
      "inputs": [],
      "name": "getDayPrecision",
      "outputs": [
        {
          "internalType": "uint256",
          "name": "",
          "type": "uint256"
        }
      ],
      "payable": false,
      "stateMutability": "view",
      "type": "function"
    },
    {
      "constant": true,
      "inputs": [],
      "name": "getMocPrecision",
      "outputs": [
        {
          "internalType": "uint256",
          "name": "",
          "type": "uint256"
        }
      ],
      "payable": false,
      "stateMutability": "view",
      "type": "function"
    },
    {
      "constant": true,
      "inputs": [
        {
          "internalType": "uint256",
          "name": "index",
          "type": "uint256"
        }
      ],
      "name": "getRedeemRequestAt",
      "outputs": [
        {
          "internalType": "address",
          "name": "",
          "type": "address"
        },
        {
          "internalType": "uint256",
          "name": "",
          "type": "uint256"
        }
      ],
      "payable": false,
      "stateMutability": "view",
      "type": "function"
    },
    {
      "constant": true,
      "inputs": [],
      "name": "getReservePrecision",
      "outputs": [
        {
          "internalType": "uint256",
          "name": "",
          "type": "uint256"
        }
      ],
      "payable": false,
      "stateMutability": "view",
      "type": "function"
    },
    {
      "constant": true,
      "inputs": [],
      "name": "getRiskProInterestAddress",
      "outputs": [
        {
          "internalType": "address",
          "name": "",
          "type": "address"
        }
      ],
      "payable": false,
      "stateMutability": "view",
      "type": "function"
    },
    {
      "constant": true,
      "inputs": [],
      "name": "getRiskProInterestBlockSpan",
      "outputs": [
        {
          "internalType": "uint256",
          "name": "",
          "type": "uint256"
        }
      ],
      "payable": false,
      "stateMutability": "view",
      "type": "function"
    },
    {
      "constant": true,
      "inputs": [],
      "name": "getRiskProRate",
      "outputs": [
        {
          "internalType": "uint256",
          "name": "",
          "type": "uint256"
        }
      ],
      "payable": false,
      "stateMutability": "view",
      "type": "function"
    },
    {
      "constant": true,
      "inputs": [],
      "name": "governor",
      "outputs": [
        {
          "internalType": "contract IGovernor",
          "name": "",
          "type": "address"
        }
      ],
      "payable": false,
      "stateMutability": "view",
      "type": "function"
    },
    {
      "constant": false,
      "inputs": [
        {
          "internalType": "address",
          "name": "_stopper",
          "type": "address"
        },
        {
          "internalType": "contract IGovernor",
          "name": "_governor",
          "type": "address"
        }
      ],
      "name": "initialize",
      "outputs": [],
      "payable": false,
      "stateMutability": "nonpayable",
      "type": "function"
    },
    {
      "constant": false,
      "inputs": [
        {
          "internalType": "contract IGovernor",
          "name": "_governor",
          "type": "address"
        }
      ],
      "name": "initialize",
      "outputs": [],
      "payable": false,
      "stateMutability": "nonpayable",
      "type": "function"
    },
    {
      "constant": false,
      "inputs": [
        {
          "internalType": "address",
          "name": "_stopper",
          "type": "address"
        },
        {
          "internalType": "contract IGovernor",
          "name": "_governor",
          "type": "address"
        },
        {
          "internalType": "bool",
          "name": "_stoppable",
          "type": "bool"
        }
      ],
      "name": "initialize",
      "outputs": [],
      "payable": false,
      "stateMutability": "nonpayable",
      "type": "function"
    },
    {
      "constant": false,
      "inputs": [
        {
          "internalType": "address",
          "name": "connectorAddress",
          "type": "address"
        },
        {
          "internalType": "address",
          "name": "governorAddress",
          "type": "address"
        },
        {
          "internalType": "address",
          "name": "stopperAddress",
          "type": "address"
        },
        {
          "internalType": "bool",
          "name": "startStoppable",
          "type": "bool"
        }
      ],
      "name": "initialize",
      "outputs": [],
      "payable": false,
      "stateMutability": "nonpayable",
      "type": "function"
    },
    {
      "constant": true,
      "inputs": [
        {
          "internalType": "bytes32",
          "name": "bucket",
          "type": "bytes32"
        }
      ],
      "name": "isBucketLiquidationReached",
      "outputs": [
        {
          "internalType": "bool",
          "name": "",
          "type": "bool"
        }
      ],
      "payable": false,
      "stateMutability": "view",
      "type": "function"
    },
    {
      "constant": true,
      "inputs": [],
      "name": "isDailyEnabled",
      "outputs": [
        {
          "internalType": "bool",
          "name": "",
          "type": "bool"
        }
      ],
      "payable": false,
      "stateMutability": "view",
      "type": "function"
    },
    {
      "constant": true,
      "inputs": [],
      "name": "isRiskProInterestEnabled",
      "outputs": [
        {
          "internalType": "bool",
          "name": "",
          "type": "bool"
        }
      ],
      "payable": false,
      "stateMutability": "view",
      "type": "function"
    },
    {
      "constant": true,
      "inputs": [],
      "name": "isSettlementEnabled",
      "outputs": [
        {
          "internalType": "bool",
          "name": "",
          "type": "bool"
        }
      ],
      "payable": false,
      "stateMutability": "view",
      "type": "function"
    },
    {
      "constant": false,
      "inputs": [],
      "name": "makeStoppable",
      "outputs": [],
      "payable": false,
      "stateMutability": "nonpayable",
      "type": "function"
    },
    {
      "constant": false,
      "inputs": [],
      "name": "makeUnstoppable",
      "outputs": [],
      "payable": false,
      "stateMutability": "nonpayable",
      "type": "function"
    },
    {
      "constant": false,
      "inputs": [
        {
          "internalType": "uint256",
          "name": "resTokensToMint",
          "type": "uint256"
        }
      ],
      "name": "mintRiskPro",
      "outputs": [],
      "payable": false,
      "stateMutability": "nonpayable",
      "type": "function"
    },
    {
      "constant": false,
      "inputs": [
        {
          "internalType": "uint256",
          "name": "resTokensToMint",
          "type": "uint256"
        },
        {
          "internalType": "address",
          "name": "vendorAccount",
          "type": "address"
        }
      ],
      "name": "mintRiskProVendors",
      "outputs": [],
      "payable": false,
      "stateMutability": "nonpayable",
      "type": "function"
    },
    {
      "constant": false,
      "inputs": [
        {
          "internalType": "bytes32",
          "name": "bucket",
          "type": "bytes32"
        },
        {
          "internalType": "uint256",
          "name": "resTokensToMint",
          "type": "uint256"
        }
      ],
      "name": "mintRiskProx",
      "outputs": [],
      "payable": false,
      "stateMutability": "nonpayable",
      "type": "function"
    },
    {
      "constant": false,
      "inputs": [
        {
          "internalType": "bytes32",
          "name": "bucket",
          "type": "bytes32"
        },
        {
          "internalType": "uint256",
          "name": "resTokensToMint",
          "type": "uint256"
        },
        {
          "internalType": "address",
          "name": "vendorAccount",
          "type": "address"
        }
      ],
      "name": "mintRiskProxVendors",
      "outputs": [],
      "payable": false,
      "stateMutability": "nonpayable",
      "type": "function"
    },
    {
      "constant": false,
      "inputs": [
        {
          "internalType": "uint256",
          "name": "resTokensToMint",
          "type": "uint256"
        }
      ],
      "name": "mintStableToken",
      "outputs": [],
      "payable": false,
      "stateMutability": "nonpayable",
      "type": "function"
    },
    {
      "constant": false,
      "inputs": [
        {
          "internalType": "uint256",
          "name": "resTokensToMint",
          "type": "uint256"
        },
        {
          "internalType": "address",
          "name": "vendorAccount",
          "type": "address"
        }
      ],
      "name": "mintStableTokenVendors",
      "outputs": [],
      "payable": false,
      "stateMutability": "nonpayable",
      "type": "function"
    },
    {
      "constant": false,
      "inputs": [],
      "name": "pause",
      "outputs": [],
      "payable": false,
      "stateMutability": "nonpayable",
      "type": "function"
    },
    {
      "constant": true,
      "inputs": [],
      "name": "paused",
      "outputs": [
        {
          "internalType": "bool",
          "name": "",
          "type": "bool"
        }
      ],
      "payable": false,
      "stateMutability": "view",
      "type": "function"
    },
    {
      "constant": false,
      "inputs": [],
      "name": "payRiskProHoldersInterestPayment",
      "outputs": [],
      "payable": false,
      "stateMutability": "nonpayable",
      "type": "function"
    },
    {
      "constant": false,
      "inputs": [],
      "name": "redeemAllStableToken",
      "outputs": [],
      "payable": false,
      "stateMutability": "nonpayable",
      "type": "function"
    },
    {
      "constant": false,
      "inputs": [
        {
          "internalType": "uint256",
          "name": "stableTokenAmount",
          "type": "uint256"
        }
      ],
      "name": "redeemFreeStableToken",
      "outputs": [],
      "payable": false,
      "stateMutability": "nonpayable",
      "type": "function"
    },
    {
      "constant": false,
      "inputs": [
        {
          "internalType": "uint256",
          "name": "stableTokenAmount",
          "type": "uint256"
        },
        {
          "internalType": "address",
          "name": "vendorAccount",
          "type": "address"
        }
      ],
      "name": "redeemFreeStableTokenVendors",
      "outputs": [],
      "payable": false,
      "stateMutability": "nonpayable",
      "type": "function"
    },
    {
      "constant": true,
      "inputs": [],
      "name": "redeemQueueSize",
      "outputs": [
        {
          "internalType": "uint256",
          "name": "",
          "type": "uint256"
        }
      ],
      "payable": false,
      "stateMutability": "view",
      "type": "function"
    },
    {
      "constant": false,
      "inputs": [
        {
          "internalType": "uint256",
          "name": "riskProAmount",
          "type": "uint256"
        }
      ],
      "name": "redeemRiskPro",
      "outputs": [],
      "payable": false,
      "stateMutability": "nonpayable",
      "type": "function"
    },
    {
      "constant": false,
      "inputs": [
        {
          "internalType": "uint256",
          "name": "riskProAmount",
          "type": "uint256"
        },
        {
          "internalType": "address",
          "name": "vendorAccount",
          "type": "address"
        }
      ],
      "name": "redeemRiskProVendors",
      "outputs": [],
      "payable": false,
      "stateMutability": "nonpayable",
      "type": "function"
    },
    {
      "constant": false,
      "inputs": [
        {
          "internalType": "bytes32",
          "name": "bucket",
          "type": "bytes32"
        },
        {
          "internalType": "uint256",
          "name": "riskProxAmount",
          "type": "uint256"
        }
      ],
      "name": "redeemRiskProx",
      "outputs": [],
      "payable": false,
      "stateMutability": "nonpayable",
      "type": "function"
    },
    {
      "constant": false,
      "inputs": [
        {
          "internalType": "bytes32",
          "name": "bucket",
          "type": "bytes32"
        },
        {
          "internalType": "uint256",
          "name": "riskProxAmount",
          "type": "uint256"
        },
        {
          "internalType": "address",
          "name": "vendorAccount",
          "type": "address"
        }
      ],
      "name": "redeemRiskProxVendors",
      "outputs": [],
      "payable": false,
      "stateMutability": "nonpayable",
      "type": "function"
    },
    {
      "constant": false,
      "inputs": [
        {
          "internalType": "uint256",
          "name": "stableTokenAmount",
          "type": "uint256"
        }
      ],
      "name": "redeemStableTokenRequest",
      "outputs": [],
      "payable": false,
      "stateMutability": "nonpayable",
      "type": "function"
    },
    {
      "constant": true,
      "inputs": [],
      "name": "reserveToken",
      "outputs": [
        {
          "internalType": "contract IERC20",
          "name": "",
          "type": "address"
        }
      ],
      "payable": false,
      "stateMutability": "view",
      "type": "function"
    },
    {
      "constant": true,
      "inputs": [
        {
          "internalType": "bytes32",
          "name": "bucket",
          "type": "bytes32"
        },
        {
          "internalType": "address",
          "name": "account",
          "type": "address"
        }
      ],
      "name": "riskProxBalanceOf",
      "outputs": [
        {
          "internalType": "uint256",
          "name": "",
          "type": "uint256"
        }
      ],
      "payable": false,
      "stateMutability": "view",
      "type": "function"
    },
    {
      "constant": false,
      "inputs": [
        {
          "internalType": "uint256",
          "name": "steps",
          "type": "uint256"
        }
      ],
      "name": "runSettlement",
      "outputs": [],
      "payable": false,
      "stateMutability": "nonpayable",
      "type": "function"
    },
    {
      "constant": false,
      "inputs": [
        {
          "internalType": "address",
          "name": "receiver",
          "type": "address"
        },
        {
          "internalType": "uint256",
          "name": "tokenAmount",
          "type": "uint256"
        }
      ],
      "name": "sendToAddress",
      "outputs": [
        {
          "internalType": "bool",
          "name": "",
          "type": "bool"
        }
      ],
      "payable": false,
      "stateMutability": "nonpayable",
      "type": "function"
    },
    {
      "constant": false,
      "inputs": [
        {
          "internalType": "address",
          "name": "newStopper",
          "type": "address"
        }
      ],
      "name": "setStopper",
      "outputs": [],
      "payable": false,
      "stateMutability": "nonpayable",
      "type": "function"
    },
    {
      "constant": true,
      "inputs": [
        {
          "internalType": "address",
          "name": "redeemer",
          "type": "address"
        }
      ],
      "name": "stableTokenAmountToRedeem",
      "outputs": [
        {
          "internalType": "uint256",
          "name": "",
          "type": "uint256"
        }
      ],
      "payable": false,
      "stateMutability": "view",
      "type": "function"
    },
    {
      "constant": true,
      "inputs": [],
      "name": "stoppable",
      "outputs": [
        {
          "internalType": "bool",
          "name": "",
          "type": "bool"
        }
      ],
      "payable": false,
      "stateMutability": "view",
      "type": "function"
    },
    {
      "constant": true,
      "inputs": [],
      "name": "stopper",
      "outputs": [
        {
          "internalType": "address",
          "name": "",
          "type": "address"
        }
      ],
      "payable": false,
      "stateMutability": "view",
      "type": "function"
    },
    {
      "constant": false,
      "inputs": [],
      "name": "unpause",
      "outputs": [],
      "payable": false,
      "stateMutability": "nonpayable",
      "type": "function"
    },
    {
      "constant": false,
      "inputs": [
        {
          "internalType": "address",
          "name": "mocV2Address_",
          "type": "address"
        }
      ],
      "name": "migrateToV2",
      "outputs": [],
      "payable": false,
      "stateMutability": "nonpayable",
      "type": "function"
    }
  ],
  "bytecode": "0x608060405234801561001057600080fd5b506164e180620000216000396000f3fe608060405234801561001057600080fd5b50600436106103925760003560e060020a90048063703355d0116101e2578063d6a8aba911610113578063e5a3c656116100b1578063f1a528ae11610080578063f1a528ae1461090d578063f4325d671461092a578063f715e29314610932578063fecf97341461093a57610392565b8063e5a3c65614610873578063ea7217e61461087b578063eb5a662e146108a7578063eef13ca1146108cd57610392565b8063ded76383116100ed578063ded763831461080e578063e22155f61461082b578063e2414a7314610833578063e4bbb5a81461083b57610392565b8063d6a8aba9146107be578063dae2844e146107e1578063dc15ec4b1461080657610392565b8063a52c53d911610180578063c375536b1161015a578063c375536b14610780578063c4d66de814610788578063cc7ed886146107ae578063d1a76714146107b657610392565b8063a52c53d914610726578063b6e0833014610752578063bb4872de1461077857610392565b806383f3084f116101bc57806383f3084f146106ed5780638456cb59146106f55780638bd24796146106fd5780639d5a3ba81461071e57610392565b8063703355d0146106a55780637821a514146106c85780637caca79c146106e557610392565b80633f4ba83a116102c75780635b0217c81161026557806366ebd54c1161023457806366ebd54c1461064357806368274357146106695780636872c429146106715780636c5aedf11461067957610392565b80635b0217c8146105e45780635c975abb1461060157806363762cb214610609578063638dd5281461062657610392565b8063485cc955116102a1578063485cc955146105745780635210570c146105a2578063522dd90c146105aa57806357a13a16146105dc57610392565b80633f4ba83a1461054757806341c056061461054f57806342af302c1461055757610392565b80632816d6811161033457806333421c381161030e57806333421c38146104df5780633727922b146104e75780633acb38d1146105135780633debd2d81461051b57610392565b80632816d681146104705780632b28a6c71461048d57806332549a07146104b957610392565b80630c340a24116103705780630c340a24146103f6578063236649261461041a57806325833afc1461044c5780632768ef091461045457610392565b806306bdce8c1461039757806307760687146103b15780630a58f47a146103d0575b600080fd5b61039f610978565b60408051918252519081900360200190f35b6103ce600480360360208110156103c757600080fd5b503561097e565b005b6103ce600480360360208110156103e657600080fd5b5035600160a060020a031661098c565b6103fe610aed565b60408051600160a060020a039092168252519081900360200190f35b6103ce6004803603606081101561043057600080fd5b5080359060208101359060400135600160a060020a0316610afc565b6103ce610ffb565b61045c6112b4565b604080519115158252519081900360200190f35b6103ce6004803603602081101561048657600080fd5b5035611344565b61039f600480360360408110156104a357600080fd5b5080359060200135600160a060020a031661168a565b61039f600480360360208110156104cf57600080fd5b5035600160a060020a031661172f565b6103ce6117ce565b6103ce600480360360408110156104fd57600080fd5b5080359060200135600160a060020a03166118dc565b6103ce611c22565b61045c6004803603604081101561053157600080fd5b50600160a060020a038135169060200135611d1f565b6103ce611eb6565b6103fe612020565b61045c6004803603602081101561056d57600080fd5b5035612030565b6103ce6004803603604081101561058a57600080fd5b50600160a060020a0381358116916020013516612162565b6103ce612214565b6103ce600480360360608110156105c057600080fd5b5080359060208101359060400135600160a060020a031661230d565b61039f6127f9565b6103ce600480360360208110156105fa57600080fd5b503561281d565b61045c612abc565b6103ce6004803603602081101561061f57600080fd5b5035612acb565b6103ce6004803603602081101561063c57600080fd5b5035612ad6565b6103ce6004803603602081101561065957600080fd5b5035600160a060020a0316612ae1565b6103ce612d17565b61039f612e13565b6103ce6004803603604081101561068f57600080fd5b5080359060200135600160a060020a0316612e72565b6103ce600480360360408110156106bb57600080fd5b50803590602001356131a8565b6103ce600480360360208110156106de57600080fd5b50356131b4565b61045c613240565b6103fe61329f565b6103ce6132ae565b610705613496565b6040805192835260208301919091528051918290030190f35b61039f613531565b6103ce6004803603604081101561073c57600080fd5b5080359060200135600160a060020a0316613590565b6103ce6004803603602081101561076857600080fd5b5035600160a060020a031661394b565b61045c613a59565b6103fe613a63565b6103ce6004803603602081101561079e57600080fd5b5035600160a060020a0316613ac2565b61039f613b82565b6103fe613be1565b6103ce600480360360408110156107d457600080fd5b5080359060200135613bf7565b6103ce600480360360408110156107f757600080fd5b50803515159060200135613c03565b6103ce613dcf565b6103ce6004803603602081101561082457600080fd5b5035613f32565b61039f6140da565b61039f6140e6565b6103ce6004803603606081101561085157600080fd5b50600160a060020a0381358116916020810135909116906040013515156140ec565b61045c6141d5565b6103ce6004803603604081101561089157600080fd5b5080359060200135600160a060020a0316614234565b61039f600480360360208110156108bd57600080fd5b5035600160a060020a03166145e6565b6108ea600480360360208110156108e357600080fd5b503561472c565b60408051600160a060020a03909316835260208301919091528051918290030190f35b6103ce6004803603602081101561092357600080fd5b50356147cf565b6103fe6147da565b61039f6147e9565b6103ce6004803603608081101561095057600080fd5b50600160a060020a0381358116916020810135821691604082013516906060013515156147ef565b60335490565b610989816000614234565b50565b60ce546040805160e060020a63d994d6d50281523360048201529051600160a060020a039092169163d994d6d591602480820192602092909190829003018186803b1580156109da57600080fd5b505afa1580156109ee573d6000803e3d6000fd5b505050506040513d6020811015610a0457600080fd5b5051604080518082019091526016815260008051602061648d833981519152602082015290610ab45760405160e560020a62461bcd0281526004018080602001828103825283818151815260200191508051906020019080838360005b83811015610a79578181015183820152602001610a61565b50505050905090810190601f168015610aa65780820380516001836020036101000a031916815260200191505b509250505060405180910390fd5b506101018054600160a060020a03909216620100000275ffffffffffffffffffffffffffffffffffffffff000019909216919091179055565b60ce54600160a060020a031681565b6101015460408051808201909152601281526000805160206162c7833981519152602082015290610100900460ff1615610b7a5760405160e560020a62461bcd028152602060048201818152835160248401528351909283926044909101919085019080838360008315610a79578181015183820152602001610a61565b5061013960009054906101000a9004600160a060020a0316600160a060020a03166318de7ffc6040518163ffffffff1660e060020a02815260040160206040518083038186803b158015610bcd57600080fd5b505afa158015610be1573d6000803e3d6000fd5b505050506040513d6020811015610bf757600080fd5b5051610c375760405160e560020a62461bcd0281526004018080602001828103825260348152602001806163f96034913960400191505060405180910390fd5b61013654604080517fed7dfd320000000000000000000000000000000000000000000000000000000081526004810186905290518592600160a060020a03169163ed7dfd32916024808301926020929190829003018186803b158015610c9c57600080fd5b505afa158015610cb0573d6000803e3d6000fd5b505050506040513d6020811015610cc657600080fd5b5051610d1c576040805160e560020a62461bcd02815260206004820152601760248201527f4275636b6574206973206e6f7420617661696c61626c65000000000000000000604482015290519081900360640190fd5b61013654604080517f633ba2880000000000000000000000000000000000000000000000000000000081526004810187905290518692600160a060020a03169163633ba288916024808301926020929190829003018186803b158015610d8157600080fd5b505afa158015610d95573d6000803e3d6000fd5b505050506040513d6020811015610dab57600080fd5b505115610dec5760405160e560020a62461bcd0281526004018080602001828103825260278152602001806162e76027913960400191505060405180910390fd5b61013760009054906101000a9004600160a060020a0316600160a060020a03166314007c6d6040518163ffffffff1660e060020a028152600401600060405180830381600087803b158015610e4057600080fd5b505af1158015610e54573d6000803e3d6000fd5b5060009250610e61915050565b61013760009054906101000a9004600160a060020a0316600160a060020a031663c19d93fb6040518163ffffffff1660e060020a02815260040160206040518083038186803b158015610eb357600080fd5b505afa158015610ec7573d6000803e3d6000fd5b505050506040513d6020811015610edd57600080fd5b50516003811115610eea57fe5b1415610efd57610ef8614d93565b610ff4565b84610f0781611344565b61013a54604080517ff7eda0420000000000000000000000000000000000000000000000000000000081523360048201526024810189905260448101889052600160a060020a03878116606483015291516000938493849384938493929092169163f7eda0429160848082019260a09290919082900301818787803b158015610f8f57600080fd5b505af1158015610fa3573d6000803e3d6000fd5b505050506040513d60a0811015610fb957600080fd5b50805160208201516040830151606084015160809094015192985090965094509092509050610fed338686868d878761508a565b5050505050505b5050505050565b6101015460408051808201909152601281526000805160206162c7833981519152602082015290610100900460ff16156110795760405160e560020a62461bcd028152602060048201818152835160248401528351909283926044909101919085019080838360008315610a79578181015183820152602001610a61565b5061013b54604080517f25833afc0000000000000000000000000000000000000000000000000000000081529051600092600160a060020a0316916325833afc91600480830192602092919082900301818787803b1580156110da57600080fd5b505af11580156110ee573d6000803e3d6000fd5b505050506040513d602081101561110457600080fd5b505161013b54604080517fc375536b000000000000000000000000000000000000000000000000000000008152905192935061119c928492600160a060020a03169163c375536b916004808301926020929190829003018186803b15801561116b57600080fd5b505afa15801561117f573d6000803e3d6000fd5b505050506040513d602081101561119557600080fd5b505161518a565b156109895761013754604080517f3ecbf7ee000000000000000000000000000000000000000000000000000000008152600481018490529051600160a060020a0390921691633ecbf7ee9160248082019260009290919082900301818387803b15801561120857600080fd5b505af115801561121c573d6000803e3d6000fd5b505061013654604080517f119e2ad600000000000000000000000000000000000000000000000000000000815260f460020a61043302600482015260248101869052600060448201819052606482018190529151600160a060020a03909316945063119e2ad693506084808201939182900301818387803b1580156112a057600080fd5b505af1158015610ff4573d6000803e3d6000fd5b61013954604080517f2768ef090000000000000000000000000000000000000000000000000000000081529051600092600160a060020a031691632768ef09916004808301926020929190829003018186803b15801561131357600080fd5b505afa158015611327573d6000803e3d6000fd5b505050506040513d602081101561133d57600080fd5b5051905090565b61013654604080517fed7dfd320000000000000000000000000000000000000000000000000000000081526004810184905290518392600160a060020a03169163ed7dfd32916024808301926020929190829003018186803b1580156113a957600080fd5b505afa1580156113bd573d6000803e3d6000fd5b505050506040513d60208110156113d357600080fd5b5051611429576040805160e560020a62461bcd02815260206004820152601760248201527f4275636b6574206973206e6f7420617661696c61626c65000000000000000000604482015290519081900360640190fd5b61013654604080517f633ba2880000000000000000000000000000000000000000000000000000000081526004810185905290518492600160a060020a03169163633ba288916024808301926020929190829003018186803b15801561148e57600080fd5b505afa1580156114a2573d6000803e3d6000fd5b505050506040513d60208110156114b857600080fd5b5051156114f95760405160e560020a62461bcd0281526004018080602001828103825260278152602001806162e76027913960400191505060405180910390fd5b61013960009054906101000a9004600160a060020a0316600160a060020a03166318de7ffc6040518163ffffffff1660e060020a02815260040160206040518083038186803b15801561154b57600080fd5b505afa15801561155f573d6000803e3d6000fd5b505050506040513d602081101561157557600080fd5b50516115b55760405160e560020a62461bcd0281526004018080602001828103825260348152602001806163f96034913960400191505060405180910390fd5b6115be83612030565b156116855761013654604080517f15d1b0d60000000000000000000000000000000000000000000000000000000081526004810186905260f460020a6104330260248201529051600160a060020a03909216916315d1b0d69160448082019260009290919082900301818387803b15801561163857600080fd5b505af115801561164c573d6000803e3d6000fd5b50506040805186815290517f03b09556eaf1538697123fabf059066271cafa36dc147deec0ec8c90ea14c89b9350908190036020019150a15b505050565b61013654604080517f2b28a6c700000000000000000000000000000000000000000000000000000000815260048101859052600160a060020a03848116602483015291516000939290921691632b28a6c791604480820192602092909190829003018186803b1580156116fc57600080fd5b505afa158015611710573d6000803e3d6000fd5b505050506040513d602081101561172657600080fd5b50519392505050565b61013954604080517f32549a07000000000000000000000000000000000000000000000000000000008152600160a060020a038481166004830152915160009392909216916332549a0791602480820192602092909190829003018186803b15801561179a57600080fd5b505afa1580156117ae573d6000803e3d6000fd5b505050506040513d60208110156117c457600080fd5b505190505b919050565b61013760009054906101000a9004600160a060020a0316600160a060020a03166314007c6d6040518163ffffffff1660e060020a028152600401600060405180830381600087803b15801561182257600080fd5b505af1158015611836573d6000803e3d6000fd5b5060009250611843915050565b61013760009054906101000a9004600160a060020a0316600160a060020a031663c19d93fb6040518163ffffffff1660e060020a02815260040160206040518083038186803b15801561189557600080fd5b505afa1580156118a9573d6000803e3d6000fd5b505050506040513d60208110156118bf57600080fd5b505160038111156118cc57fe5b14156118da576118da614d93565b565b6101015460408051808201909152601281526000805160206162c7833981519152602082015290610100900460ff161561195a5760405160e560020a62461bcd028152602060048201818152835160248401528351909283926044909101919085019080838360008315610a79578181015183820152602001610a61565b5061013760009054906101000a9004600160a060020a0316600160a060020a03166314007c6d6040518163ffffffff1660e060020a028152600401600060405180830381600087803b1580156119af57600080fd5b505af11580156119c3573d6000803e3d6000fd5b50600092506119d0915050565b61013760009054906101000a9004600160a060020a0316600160a060020a031663c19d93fb6040518163ffffffff1660e060020a02815260040160206040518083038186803b158015611a2257600080fd5b505afa158015611a36573d6000803e3d6000fd5b505050506040513d6020811015611a4c57600080fd5b50516003811115611a5957fe5b1415611a6c57611a67614d93565b611c1e565b60038061013760009054906101000a9004600160a060020a0316600160a060020a031663c19d93fb6040518163ffffffff1660e060020a02815260040160206040518083038186803b158015611ac157600080fd5b505afa158015611ad5573d6000803e3d6000fd5b505050506040513d6020811015611aeb57600080fd5b50516003811115611af857fe5b1015611b385760405160e560020a62461bcd0281526004018080602001828103825260288152602001806163a76028913960400191505060405180910390fd5b61013a54604080517f9ede63e700000000000000000000000000000000000000000000000000000000815233600482015260248101869052600160a060020a038581166044830152915160009384938493849384939290921691639ede63e79160648082019260a09290919082900301818787803b158015611bb957600080fd5b505af1158015611bcd573d6000803e3d6000fd5b505050506040513d60a0811015611be357600080fd5b50805160208201516040830151606084015160809094015192985090965094509092509050611c17338686868b878761508a565b5050505050505b5050565b6101015460408051808201909152601281526000805160206162c7833981519152602082015290610100900460ff1615611ca05760405160e560020a62461bcd028152602060048201818152835160248401528351909283926044909101919085019080838360008315610a79578181015183820152602001610a61565b5061013b60009054906101000a9004600160a060020a0316600160a060020a0316633acb38d16040518163ffffffff1660e060020a028152600401602060405180830381600087803b158015611cf557600080fd5b505af1158015611d09573d6000803e3d6000fd5b505050506040513d6020811015611c1e57600080fd5b609b54604080517f3af32abf00000000000000000000000000000000000000000000000000000000815233600482018190529151600093600160a060020a031691633af32abf916024808301926020929190829003018186803b158015611d8557600080fd5b505afa158015611d99573d6000803e3d6000fd5b505050506040513d6020811015611daf57600080fd5b5051611e05576040805160e560020a62461bcd02815260206004820152601a60248201527f41646472657373206973206e6f742077686974656c6973746564000000000000604482015290519081900360640190fd5b82611e135760019150611eaf565b611e1d838561518a565b15611eaa5761013754604080517f3ecbf7ee000000000000000000000000000000000000000000000000000000008152600481018690529051600160a060020a0390921691633ecbf7ee9160248082019260009290919082900301818387803b158015611e8957600080fd5b505af1158015611e9d573d6000803e3d6000fd5b5050505060019150611eaf565b600091505b5092915050565b6101015460408051808201909152600b81527f6e6f745f73746f70706572000000000000000000000000000000000000000000602082015290620100009004600160a060020a03163314611f4e5760405160e560020a62461bcd028152602060048201818152835160248401528351909283926044909101919085019080838360008315610a79578181015183820152602001610a61565b506101015460408051808201909152601281527f636f6e74726163745f69735f6163746976650000000000000000000000000000602082015290610100900460ff16611fde5760405160e560020a62461bcd028152602060048201818152835160248401528351909283926044909101919085019080838360008315610a79578181015183820152602001610a61565b50610101805461ff00191690556040805133815290517f5db9ee0a495bf2e6ff9c91a7834c1ba4fdd244a5e8aa4e537bd38aeae4b073aa9181900360200190a1565b61013c54600160a060020a031681565b61013754604080517ffaba8c3b0000000000000000000000000000000000000000000000000000000081529051600092600160a060020a03169163faba8c3b916004808301926020929190829003018186803b15801561208f57600080fd5b505afa1580156120a3573d6000803e3d6000fd5b505050506040513d60208110156120b957600080fd5b505161013754604080517f8c3e0502000000000000000000000000000000000000000000000000000000008152600481018690529051600160a060020a0390921691638c3e050291602480820192602092909190829003018186803b15801561212157600080fd5b505afa158015612135573d6000803e3d6000fd5b505050506040513d602081101561214b57600080fd5b50511161215a575060016117c9565b506000919050565b606854610100900460ff168061217b575061217b6151e5565b80612189575060685460ff16155b6121c75760405160e560020a62461bcd02815260040180806020018281038252602e815260200180616345602e913960400191505060405180910390fd5b606854610100900460ff161580156121f2576068805460ff1961ff0019909116610100171660011790555b6121fe838360016140ec565b8015611685576068805461ff0019169055505050565b60ce546040805160e060020a63d994d6d50281523360048201529051600160a060020a039092169163d994d6d591602480820192602092909190829003018186803b15801561226257600080fd5b505afa158015612276573d6000803e3d6000fd5b505050506040513d602081101561228c57600080fd5b5051604080518082019091526016815260008051602061648d8339815191526020820152906122ff5760405160e560020a62461bcd028152602060048201818152835160248401528351909283926044909101919085019080838360008315610a79578181015183820152602001610a61565b50610101805460ff19169055565b6101015460408051808201909152601281526000805160206162c7833981519152602082015290610100900460ff161561238b5760405160e560020a62461bcd028152602060048201818152835160248401528351909283926044909101919085019080838360008315610a79578181015183820152602001610a61565b5061013960009054906101000a9004600160a060020a0316600160a060020a03166318de7ffc6040518163ffffffff1660e060020a02815260040160206040518083038186803b1580156123de57600080fd5b505afa1580156123f2573d6000803e3d6000fd5b505050506040513d602081101561240857600080fd5b50516124485760405160e560020a62461bcd0281526004018080602001828103825260348152602001806163f96034913960400191505060405180910390fd5b61013654604080517fed7dfd320000000000000000000000000000000000000000000000000000000081526004810186905290518592600160a060020a03169163ed7dfd32916024808301926020929190829003018186803b1580156124ad57600080fd5b505afa1580156124c1573d6000803e3d6000fd5b505050506040513d60208110156124d757600080fd5b505161252d576040805160e560020a62461bcd02815260206004820152601760248201527f4275636b6574206973206e6f7420617661696c61626c65000000000000000000604482015290519081900360640190fd5b61013654604080517f633ba2880000000000000000000000000000000000000000000000000000000081526004810187905290518692600160a060020a03169163633ba288916024808301926020929190829003018186803b15801561259257600080fd5b505afa1580156125a6573d6000803e3d6000fd5b505050506040513d60208110156125bc57600080fd5b5051156125fd5760405160e560020a62461bcd0281526004018080602001828103825260278152602001806162e76027913960400191505060405180910390fd5b61013760009054906101000a9004600160a060020a0316600160a060020a03166314007c6d6040518163ffffffff1660e060020a028152600401600060405180830381600087803b15801561265157600080fd5b505af1158015612665573d6000803e3d6000fd5b5060009250612672915050565b61013760009054906101000a9004600160a060020a0316600160a060020a031663c19d93fb6040518163ffffffff1660e060020a02815260040160206040518083038186803b1580156126c457600080fd5b505afa1580156126d8573d6000803e3d6000fd5b505050506040513d60208110156126ee57600080fd5b505160038111156126fb57fe5b141561270957610ef8614d93565b8461271381611344565b61013a54604080517fcfae19290000000000000000000000000000000000000000000000000000000081523360048201526024810189905260448101889052600160a060020a03878116606483015291516000938493849384938493929092169163cfae19299160848082019260a09290919082900301818787803b15801561279b57600080fd5b505af11580156127af573d6000803e3d6000fd5b505050506040513d60a08110156127c557600080fd5b50805160208201516040830151606084015160809094015192985090965094509092509050610fed3385858c86868b6151eb565b7f583200000000000000000000000000000000000000000000000000000000000081565b6101015460408051808201909152601281526000805160206162c7833981519152602082015290610100900460ff161561289b5760405160e560020a62461bcd028152602060048201818152835160248401528351909283926044909101919085019080838360008315610a79578181015183820152602001610a61565b5061013760009054906101000a9004600160a060020a0316600160a060020a03166314007c6d6040518163ffffffff1660e060020a028152600401600060405180830381600087803b1580156128f057600080fd5b505af1158015612904573d6000803e3d6000fd5b5060009250612911915050565b61013760009054906101000a9004600160a060020a0316600160a060020a031663c19d93fb6040518163ffffffff1660e060020a02815260040160206040518083038186803b15801561296357600080fd5b505afa158015612977573d6000803e3d6000fd5b505050506040513d602081101561298d57600080fd5b5051600381111561299a57fe5b14156129ad576129a8614d93565b610989565b61013b546040805160e260020a6330a5e173028152905161098992600160a060020a03169163c29785cc916004808301926020929190829003018186803b1580156129f757600080fd5b505afa158015612a0b573d6000803e3d6000fd5b505050506040513d6020811015612a2157600080fd5b505161013954604080517f5b0217c8000000000000000000000000000000000000000000000000000000008152600481018690529051600160a060020a0390921691635b0217c8916024808201926020929091908290030181600087803b158015612a8b57600080fd5b505af1158015612a9f573d6000803e3d6000fd5b505050506040513d6020811015612ab557600080fd5b5051615283565b61010154610100900460ff1690565b6109898160006118dc565b610989816000613590565b60008054604080517f70a082310000000000000000000000000000000000000000000000000000000081523060048201529051600160a060020a03909216916370a0823191602480820192602092909190829003018186803b158015612b4657600080fd5b505afa158015612b5a573d6000803e3d6000fd5b505050506040513d6020811015612b7057600080fd5b505160008054604080517fa9059cbb000000000000000000000000000000000000000000000000000000008152600160a060020a03878116600483015260248201869052915194955091169263a9059cbb92604480840193602093929083900390910190829087803b158015612be557600080fd5b505af1158015612bf9573d6000803e3d6000fd5b505050506040513d6020811015612c0f57600080fd5b505061013554604080517f82dc1ec4000000000000000000000000000000000000000000000000000000008152600160a060020a038581166004830152915191909216916382dc1ec491602480830192600092919082900301818387803b158015612c7957600080fd5b505af1158015612c8d573d6000803e3d6000fd5b5050505061013560009054906101000a9004600160a060020a0316600160a060020a0316636ef8d66d6040518163ffffffff1660e060020a028152600401600060405180830381600087803b158015612ce557600080fd5b505af1158015612cf9573d6000803e3d6000fd5b5050600054611c1e9250600160a060020a03169050836000196152f4565b60ce546040805160e060020a63d994d6d50281523360048201529051600160a060020a039092169163d994d6d591602480820192602092909190829003018186803b158015612d6557600080fd5b505afa158015612d79573d6000803e3d6000fd5b505050506040513d6020811015612d8f57600080fd5b5051604080518082019091526016815260008051602061648d833981519152602082015290612e025760405160e560020a62461bcd028152602060048201818152835160248401528351909283926044909101919085019080838360008315610a79578181015183820152602001610a61565b50610101805460ff19166001179055565b61013b54604080517f6872c4290000000000000000000000000000000000000000000000000000000081529051600092600160a060020a031691636872c429916004808301926020929190829003018186803b15801561131357600080fd5b6101015460408051808201909152601281526000805160206162c7833981519152602082015290610100900460ff1615612ef05760405160e560020a62461bcd028152602060048201818152835160248401528351909283926044909101919085019080838360008315610a79578181015183820152602001610a61565b5061013760009054906101000a9004600160a060020a0316600160a060020a03166314007c6d6040518163ffffffff1660e060020a028152600401600060405180830381600087803b158015612f4557600080fd5b505af1158015612f59573d6000803e3d6000fd5b5060009250612f66915050565b61013760009054906101000a9004600160a060020a0316600160a060020a031663c19d93fb6040518163ffffffff1660e060020a02815260040160206040518083038186803b158015612fb857600080fd5b505afa158015612fcc573d6000803e3d6000fd5b505050506040513d6020811015612fe257600080fd5b50516003811115612fef57fe5b1415612ffd57611a67614d93565b60038061013760009054906101000a9004600160a060020a0316600160a060020a031663c19d93fb6040518163ffffffff1660e060020a02815260040160206040518083038186803b15801561305257600080fd5b505afa158015613066573d6000803e3d6000fd5b505050506040513d602081101561307c57600080fd5b5051600381111561308957fe5b10156130c95760405160e560020a62461bcd0281526004018080602001828103825260288152602001806163a76028913960400191505060405180910390fd5b61013a54604080517fe357132d00000000000000000000000000000000000000000000000000000000815233600482015260248101869052600160a060020a03858116604483015291516000938493849384938493929092169163e357132d9160648082019260a09290919082900301818787803b15801561314a57600080fd5b505af115801561315e573d6000803e3d6000fd5b505050506040513d60a081101561317457600080fd5b50805160208201516040830151606084015160809094015192985090965094509092509050611c173385858a86868b6151eb565b611c1e8282600061230d565b6131be3382615451565b61013654604080517fab9757c000000000000000000000000000000000000000000000000000000000815260f460020a61043302600482015260248101849052600060448201819052606482018190529151600160a060020a039093169263ab9757c09260848084019391929182900301818387803b1580156112a057600080fd5b61013b54604080517f7caca79c0000000000000000000000000000000000000000000000000000000081529051600092600160a060020a031691637caca79c916004808301926020929190829003018186803b15801561131357600080fd5b609b54600160a060020a031681565b6101015460408051808201909152600b81527f756e73746f707061626c6500000000000000000000000000000000000000000060208201529060ff166133385760405160e560020a62461bcd028152602060048201818152835160248401528351909283926044909101919085019080838360008315610a79578181015183820152602001610a61565b506101015460408051808201909152600b81527f6e6f745f73746f70706572000000000000000000000000000000000000000000602082015290620100009004600160a060020a031633146133d15760405160e560020a62461bcd028152602060048201818152835160248401528351909283926044909101919085019080838360008315610a79578181015183820152602001610a61565b506101015460408051808201909152601281526000805160206162c7833981519152602082015290610100900460ff16156134505760405160e560020a62461bcd028152602060048201818152835160248401528351909283926044909101919085019080838360008315610a79578181015183820152602001610a61565b50610101805461ff0019166101001790556040805133815290517f62e78cea01bee320cd4e420270b5ea74000d11b0c9f74754ebdbfc544b05a2589181900360200190a1565b61013b54604080517f8bd2479600000000000000000000000000000000000000000000000000000000815281516000938493600160a060020a0390911692638bd247969260048083019392829003018186803b1580156134f557600080fd5b505afa158015613509573d6000803e3d6000fd5b505050506040513d604081101561351f57600080fd5b50805160209091015190925090509091565b61013954604080517f9d5a3ba80000000000000000000000000000000000000000000000000000000081529051600092600160a060020a031691639d5a3ba8916004808301926020929190829003018186803b15801561131357600080fd5b6101015460408051808201909152601281526000805160206162c7833981519152602082015290610100900460ff161561360e5760405160e560020a62461bcd028152602060048201818152835160248401528351909283926044909101919085019080838360008315610a79578181015183820152602001610a61565b5061013760009054906101000a9004600160a060020a0316600160a060020a03166314007c6d6040518163ffffffff1660e060020a028152600401600060405180830381600087803b15801561366357600080fd5b505af1158015613677573d6000803e3d6000fd5b5060009250613684915050565b61013760009054906101000a9004600160a060020a0316600160a060020a031663c19d93fb6040518163ffffffff1660e060020a02815260040160206040518083038186803b1580156136d657600080fd5b505afa1580156136ea573d6000803e3d6000fd5b505050506040513d602081101561370057600080fd5b5051600381111561370d57fe5b141561371b57611a67614d93565b61013760009054906101000a9004600160a060020a0316600160a060020a031663e480e5b96040518163ffffffff1660e060020a02815260040160206040518083038186803b15801561376d57600080fd5b505afa158015613781573d6000803e3d6000fd5b505050506040513d602081101561379757600080fd5b505161013754604080517fc4ee19ea0000000000000000000000000000000000000000000000000000000081529051600160a060020a039092169163c4ee19ea91600480820192602092909190829003018186803b1580156137f857600080fd5b505afa15801561380c573d6000803e3d6000fd5b505050506040513d602081101561382257600080fd5b5051116138635760405160e560020a62461bcd02815260040180806020018281038252602d81526020018061629a602d913960400191505060405180910390fd5b61013a54604080517fd855152000000000000000000000000000000000000000000000000000000000815233600482015260248101859052600160a060020a03848116604483015291516000938493849384938493929092169163d85515209160648082019260a09290919082900301818787803b1580156138e457600080fd5b505af11580156138f8573d6000803e3d6000fd5b505050506040513d60a081101561390e57600080fd5b508051602082015160408301516060840151608090940151929850909650945090925090506139423385858986868b6151eb565b50505050505050565b60ce546040805160e060020a63d994d6d50281523360048201529051600160a060020a039092169163d994d6d591602480820192602092909190829003018186803b15801561399957600080fd5b505afa1580156139ad573d6000803e3d6000fd5b505050506040513d60208110156139c357600080fd5b5051604080518082019091526016815260008051602061648d833981519152602082015290613a365760405160e560020a62461bcd028152602060048201818152835160248401528351909283926044909101919085019080838360008315610a79578181015183820152602001610a61565b5060ce8054600160a060020a031916600160a060020a0392909216919091179055565b6101015460ff1681565b61013b54604080517fc375536b0000000000000000000000000000000000000000000000000000000081529051600092600160a060020a03169163c375536b916004808301926020929190829003018186803b15801561131357600080fd5b606854610100900460ff1680613adb5750613adb6151e5565b80613ae9575060685460ff16155b613b275760405160e560020a62461bcd02815260040180806020018281038252602e815260200180616345602e913960400191505060405180910390fd5b606854610100900460ff16158015613b52576068805460ff1961ff0019909116610100171660011790555b60ce8054600160a060020a031916600160a060020a0384161790558015611c1e576068805461ff00191690555050565b61013b54604080517fcc7ed8860000000000000000000000000000000000000000000000000000000081529051600092600160a060020a03169163cc7ed886916004808301926020929190829003018186803b15801561131357600080fd5b61010154620100009004600160a060020a031681565b611c1e82826000610afc565b6101015460408051808201909152601281526000805160206162c7833981519152602082015290610100900460ff1615613c815760405160e560020a62461bcd028152602060048201818152835160248401528351909283926044909101919085019080838360008315610a79578181015183820152602001610a61565b5061013960009054906101000a9004600160a060020a0316600160a060020a03166318de7ffc6040518163ffffffff1660e060020a02815260040160206040518083038186803b158015613cd457600080fd5b505afa158015613ce8573d6000803e3d6000fd5b505050506040513d6020811015613cfe57600080fd5b5051613d3e5760405160e560020a62461bcd0281526004018080602001828103825260348152602001806163f96034913960400191505060405180910390fd5b61013954604080517f57c0fac70000000000000000000000000000000000000000000000000000000081528415156004820152602481018490523360448201529051600160a060020a03909216916357c0fac79160648082019260009290919082900301818387803b158015613db357600080fd5b505af1158015613dc7573d6000803e3d6000fd5b505050505050565b60008061013760009054906101000a9004600160a060020a0316600160a060020a031663c19d93fb6040518163ffffffff1660e060020a02815260040160206040518083038186803b158015613e2457600080fd5b505afa158015613e38573d6000803e3d6000fd5b505050506040513d6020811015613e4e57600080fd5b50516003811115613e5b57fe5b14613e9a5760405160e560020a62461bcd0281526004018080602001828103825260288152602001806163a76028913960400191505060405180910390fd5b61013a54604080517f17cd5156000000000000000000000000000000000000000000000000000000008152336004820181905260248201529051600160a060020a03909216916317cd5156916044808201926020929091908290030181600087803b158015613f0857600080fd5b505af1158015613f1c573d6000803e3d6000fd5b505050506040513d602081101561168557600080fd5b6101015460408051808201909152601281526000805160206162c7833981519152602082015290610100900460ff1615613fb05760405160e560020a62461bcd028152602060048201818152835160248401528351909283926044909101919085019080838360008315610a79578181015183820152602001610a61565b5061013960009054906101000a9004600160a060020a0316600160a060020a03166318de7ffc6040518163ffffffff1660e060020a02815260040160206040518083038186803b15801561400357600080fd5b505afa158015614017573d6000803e3d6000fd5b505050506040513d602081101561402d57600080fd5b505161406d5760405160e560020a62461bcd0281526004018080602001828103825260348152602001806163f96034913960400191505060405180910390fd5b61013954604080517f7cfad7a1000000000000000000000000000000000000000000000000000000008152600481018490523360248201529051600160a060020a0390921691637cfad7a19160448082019260009290919082900301818387803b1580156112a057600080fd5b60f460020a6104330281565b60345490565b606854610100900460ff168061410557506141056151e5565b80614113575060685460ff16155b6141515760405160e560020a62461bcd02815260040180806020018281038252602e815260200180616345602e913960400191505060405180910390fd5b606854610100900460ff1615801561417c576068805460ff1961ff0019909116610100171660011790555b610101805460ff19168315151775ffffffffffffffffffffffffffffffffffffffff0000191662010000600160a060020a038716021790556141bd83613ac2565b80156141cf576068805461ff00191690555b50505050565b61013b54604080517fe5a3c6560000000000000000000000000000000000000000000000000000000081529051600092600160a060020a03169163e5a3c656916004808301926020929190829003018186803b15801561131357600080fd5b6101015460408051808201909152601281526000805160206162c7833981519152602082015290610100900460ff16156142b25760405160e560020a62461bcd028152602060048201818152835160248401528351909283926044909101919085019080838360008315610a79578181015183820152602001610a61565b5061013760009054906101000a9004600160a060020a0316600160a060020a03166314007c6d6040518163ffffffff1660e060020a028152600401600060405180830381600087803b15801561430757600080fd5b505af115801561431b573d6000803e3d6000fd5b5060009250614328915050565b61013760009054906101000a9004600160a060020a0316600160a060020a031663c19d93fb6040518163ffffffff1660e060020a02815260040160206040518083038186803b15801561437a57600080fd5b505afa15801561438e573d6000803e3d6000fd5b505050506040513d60208110156143a457600080fd5b505160038111156143b157fe5b14156143bf57611a67614d93565b61013760009054906101000a9004600160a060020a0316600160a060020a031663e480e5b96040518163ffffffff1660e060020a02815260040160206040518083038186803b15801561441157600080fd5b505afa158015614425573d6000803e3d6000fd5b505050506040513d602081101561443b57600080fd5b505161013754604080517fc4ee19ea0000000000000000000000000000000000000000000000000000000081529051600160a060020a039092169163c4ee19ea91600480820192602092909190829003018186803b15801561449c57600080fd5b505afa1580156144b0573d6000803e3d6000fd5b505050506040513d60208110156144c657600080fd5b5051116145075760405160e560020a62461bcd02815260040180806020018281038252602d81526020018061629a602d913960400191505060405180910390fd5b61013a54604080517f44f79aa700000000000000000000000000000000000000000000000000000000815233600482015260248101859052600160a060020a0384811660448301529151600093849384938493849392909216916344f79aa79160648082019260a09290919082900301818787803b15801561458857600080fd5b505af115801561459c573d6000803e3d6000fd5b505050506040513d60a08110156145b257600080fd5b50805160208201516040830151606084015160809094015192985090965094509092509050613942338686868a878761508a565b60008054604080517f70a08231000000000000000000000000000000000000000000000000000000008152600160a060020a0385811660048301529151849392909216916370a0823191602480820192602092909190829003018186803b15801561465057600080fd5b505afa158015614664573d6000803e3d6000fd5b505050506040513d602081101561467a57600080fd5b505160008054604080517fdd62ed3e000000000000000000000000000000000000000000000000000000008152600160a060020a0388811660048301523060248301529151949550929391169163dd62ed3e916044808301926020929190829003018186803b1580156146ec57600080fd5b505afa158015614700573d6000803e3d6000fd5b505050506040513d602081101561471657600080fd5b505190506147248282615500565b949350505050565b61013954604080517feef13ca10000000000000000000000000000000000000000000000000000000081526004810184905281516000938493600160a060020a039091169263eef13ca19260248083019392829003018186803b15801561479257600080fd5b505afa1580156147a6573d6000803e3d6000fd5b505050506040513d60408110156147bc57600080fd5b5080516020909101519092509050915091565b610989816000612e72565b600054600160a060020a031681565b60355490565b606854610100900460ff168061480857506148086151e5565b80614816575060685460ff16155b6148545760405160e560020a62461bcd02815260040180806020018281038252602e815260200180616345602e913960400191505060405180910390fd5b606854610100900460ff1615801561487f576068805460ff1961ff0019909116610100171660011790555b614887615516565b61489085615549565b609b60009054906101000a9004600160a060020a0316600160a060020a031663a9d75b2b6040518163ffffffff1660e060020a02815260040160206040518083038186803b1580156148e157600080fd5b505afa1580156148f5573d6000803e3d6000fd5b505050506040513d602081101561490b57600080fd5b50516101348054600160a060020a031916600160a060020a03928316179055609b54604080517f9b35777e00000000000000000000000000000000000000000000000000000000815290519190921691639b35777e916004808301926020929190829003018186803b15801561498057600080fd5b505afa158015614994573d6000803e3d6000fd5b505050506040513d60208110156149aa57600080fd5b50516101358054600160a060020a031916600160a060020a03928316179055609b54604080517f360b41b10000000000000000000000000000000000000000000000000000000081529051919092169163360b41b1916004808301926020929190829003018186803b158015614a1f57600080fd5b505afa158015614a33573d6000803e3d6000fd5b505050506040513d6020811015614a4957600080fd5b50516101368054600160a060020a031916600160a060020a03928316179055609b54604080517f12529f1f000000000000000000000000000000000000000000000000000000008152905191909216916312529f1f916004808301926020929190829003018186803b158015614abe57600080fd5b505afa158015614ad2573d6000803e3d6000fd5b505050506040513d6020811015614ae857600080fd5b50516101378054600160a060020a031916600160a060020a03928316179055609b54604080517fb29ead6c0000000000000000000000000000000000000000000000000000000081529051919092169163b29ead6c916004808301926020929190829003018186803b158015614b5d57600080fd5b505afa158015614b71573d6000803e3d6000fd5b505050506040513d6020811015614b8757600080fd5b50516101398054600160a060020a031916600160a060020a03928316179055609b54604080517f8557af6f00000000000000000000000000000000000000000000000000000000815290519190921691638557af6f916004808301926020929190829003018186803b158015614bfc57600080fd5b505afa158015614c10573d6000803e3d6000fd5b505050506040513d6020811015614c2657600080fd5b505161013a8054600160a060020a031916600160a060020a03928316179055609b54604080517fffb691300000000000000000000000000000000000000000000000000000000081529051919092169163ffb69130916004808301926020929190829003018186803b158015614c9b57600080fd5b505afa158015614caf573d6000803e3d6000fd5b505050506040513d6020811015614cc557600080fd5b505161013b8054600160a060020a031916600160a060020a03928316179055609b54604080517ff4325d670000000000000000000000000000000000000000000000000000000081529051614d7093929092169163f4325d6791600480820192602092909190829003018186803b158015614d3f57600080fd5b505afa158015614d53573d6000803e3d6000fd5b505050506040513d6020811015614d6957600080fd5b5051615609565b614d7b8385846140ec565b8015610ff4576068805461ff00191690555050505050565b61013c5474010000000000000000000000000000000000000000900460ff166118da5761013560009054906101000a9004600160a060020a0316600160a060020a0316635c975abb6040518163ffffffff1660e060020a02815260040160206040518083038186803b158015614e0857600080fd5b505afa158015614e1c573d6000803e3d6000fd5b505050506040513d6020811015614e3257600080fd5b5051614ea55761013560009054906101000a9004600160a060020a0316600160a060020a0316638456cb596040518163ffffffff1660e060020a028152600401600060405180830381600087803b158015614e8c57600080fd5b505af1158015614ea0573d6000803e3d6000fd5b505050505b61013b546040805160e260020a6330a5e1730281529051614f8e92600160a060020a03169163c29785cc916004808301926020929190829003018186803b158015614eef57600080fd5b505afa158015614f03573d6000803e3d6000fd5b505050506040513d6020811015614f1957600080fd5b505161013754604080517f1ced55410000000000000000000000000000000000000000000000000000000081529051600160a060020a0390921691631ced554191600480820192602092909190829003018186803b158015614f7a57600080fd5b505afa158015612a9f573d6000803e3d6000fd5b61013c805474ff0000000000000000000000000000000000000000191674010000000000000000000000000000000000000000179055609b54604080517f5342825300000000000000000000000000000000000000000000000000000000815290517faf905e9cf428f582ba291af107597e8a811842567b96a9cd61ca5b0239ddb78892600160a060020a0316916353428253916004808301926020929190829003018186803b15801561504157600080fd5b505afa158015615055573d6000803e3d6000fd5b505050506040513d602081101561506b57600080fd5b505160408051600160a060020a039092168252519081900360200190a1565b61013754604080517fb0920b6d000000000000000000000000000000000000000000000000000000008152600481018990529051600160a060020a039092169163b0920b6d9160248082019260009290919082900301818387803b1580156150f157600080fd5b505af1158015615105573d6000803e3d6000fd5b5050505061513561512f83615123888a61562b90919063ffffffff16565b9063ffffffff61562b16565b88615688565b6151735760405160e560020a62461bcd0281526004018080602001828103825260348152602001806163736034913960400191505060405180910390fd5b61517f87858584615732565b613942838684615bd1565b6000806151978385615e21565b9050806151de57604080518581529051600160a060020a038516917fa2269912b47133fae1d7f448c9284ea248951ac29b8c7c41d301f8721a38d10d919081900360200190a25b9392505050565b303b1590565b6151f58782615ee8565b61013754600160a060020a0316633ecbf7ee61521b85615123858b63ffffffff61562b16565b6040518263ffffffff1660e060020a02815260040180828152602001915050600060405180830381600087803b15801561525457600080fd5b505af1158015615268573d6000803e3d6000fd5b5050505061527887868685615732565b613942848785615bd1565b61528d8282615ee8565b61013754604080517f3ecbf7ee000000000000000000000000000000000000000000000000000000008152600481018490529051600160a060020a0390921691633ecbf7ee9160248082019260009290919082900301818387803b158015613db357600080fd5b8015806153935750604080517fdd62ed3e000000000000000000000000000000000000000000000000000000008152306004820152600160a060020a03848116602483015291519185169163dd62ed3e91604480820192602092909190829003018186803b15801561536557600080fd5b505afa158015615379573d6000803e3d6000fd5b505050506040513d602081101561538f57600080fd5b5051155b6153d15760405160e560020a62461bcd0281526004018080602001828103825260368152602001806164576036913960400191505060405180910390fd5b60408051600160a060020a038416602482015260448082018490528251808303909101815260649091019091526020810180517bffffffffffffffffffffffffffffffffffffffffffffffffffffffff167f095ea7b300000000000000000000000000000000000000000000000000000000179052611685908490615f30565b61545b8183615688565b6154995760405160e560020a62461bcd0281526004018080602001828103825260348152602001806163736034913960400191505060405180910390fd5b61013754604080517fb0920b6d000000000000000000000000000000000000000000000000000000008152600481018490529051600160a060020a039092169163b0920b6d9160248082019260009290919082900301818387803b158015613db357600080fd5b600081831061550f57816151de565b5090919050565b60408051606081018252670de0b6b3a7640000808252600160208301819052919092018290526033829055603455603555565b606854610100900460ff168061556257506155626151e5565b80615570575060685460ff16155b6155ae5760405160e560020a62461bcd02815260040180806020018281038252602e815260200180616345602e913960400191505060405180910390fd5b606854610100900460ff161580156155d9576068805460ff1961ff0019909116610100171660011790555b609b8054600160a060020a031916600160a060020a0384161790558015611c1e576068805461ff00191690555050565b60008054600160a060020a031916600160a060020a0392909216919091179055565b6000828201838110156151de576040805160e560020a62461bcd02815260206004820152601b60248201527f536166654d6174683a206164646974696f6e206f766572666c6f770000000000604482015290519081900360640190fd5b60008282615695816145e6565b8211156156d65760405160e560020a62461bcd02815260040180806020018281038252602a8152602001806163cf602a913960400191505060405180910390fd5b60006156e285876160f1565b90508061572957604080518781529051600160a060020a038716917fb25cefcd019c9ac00557fa1cae5f952455cd9ad7b058f91d66e1bbe895e31ece919081900360200190a25b95945050505050565b6000615744848363ffffffff61562b16565b90508015610ff45761013754604080517f5e10ad790000000000000000000000000000000000000000000000000000000081529051600092600160a060020a031691635e10ad79916004808301926020929190829003018186803b1580156157ab57600080fd5b505afa1580156157bf573d6000803e3d6000fd5b505050506040513d60208110156157d557600080fd5b505161013754604080517f7f13cb060000000000000000000000000000000000000000000000000000000081529051929350600092600160a060020a0390921691637f13cb0691600480820192602092909190829003018186803b15801561583c57600080fd5b505afa158015615850573d6000803e3d6000fd5b505050506040513d602081101561586657600080fd5b5051604080517f88114db3000000000000000000000000000000000000000000000000000000008152600160a060020a0388811660048301526024820188905260006044830181905292519394508516926388114db392606480840193602093929083900390910190829087803b1580156158e057600080fd5b505af11580156158f4573d6000803e3d6000fd5b505050506040513d602081101561590a57600080fd5b505115615ab957604080517f23b872dd000000000000000000000000000000000000000000000000000000008152600160a060020a0389811660048301528781166024830152604482018790529151918316916323b872dd916064808201926020929091908290030181600087803b15801561598557600080fd5b505af1158015615999573d6000803e3d6000fd5b505050506040513d60208110156159af57600080fd5b505061013b546040805160e260020a6330a5e1730281529051600160a060020a03808516936323b872dd938c93919092169163c29785cc916004808301926020929190829003018186803b158015615a0657600080fd5b505afa158015615a1a573d6000803e3d6000fd5b505050506040513d6020811015615a3057600080fd5b50516040805160e060020a63ffffffff8616028152600160a060020a039384166004820152929091166024830152604482018a90525160648083019260209291908290030181600087803b158015615a8757600080fd5b505af1158015615a9b573d6000803e3d6000fd5b505050506040513d6020811015615ab157600080fd5b506139429050565b80600160a060020a03166323b872dd8861013b60009054906101000a9004600160a060020a0316600160a060020a031663c29785cc6040518163ffffffff1660e060020a02815260040160206040518083038186803b158015615b1b57600080fd5b505afa158015615b2f573d6000803e3d6000fd5b505050506040513d6020811015615b4557600080fd5b50516040805160e060020a63ffffffff8616028152600160a060020a039384166004820152929091166024830152604482018790525160648083019260209291908290030181600087803b158015615b9c57600080fd5b505af1158015615bb0573d6000803e3d6000fd5b505050506040513d6020811015615bc657600080fd5b505050505050505050565b6000615be3838363ffffffff61562b16565b905080156141cf5761013754604080517f5e10ad790000000000000000000000000000000000000000000000000000000081529051600092600160a060020a031691635e10ad79916004808301926020929190829003018186803b158015615c4a57600080fd5b505afa158015615c5e573d6000803e3d6000fd5b505050506040513d6020811015615c7457600080fd5b5051604080517f88114db3000000000000000000000000000000000000000000000000000000008152600160a060020a0388811660048301526000602483018190526044830188905292519394508416926388114db392606480840193602093929083900390910190829087803b158015615cee57600080fd5b505af1158015615d02573d6000803e3d6000fd5b505050506040513d6020811015615d1857600080fd5b505115615da557615d298584615ee8565b61013b546040805160e260020a6330a5e1730281529051610ef892600160a060020a03169163c29785cc916004808301926020929190829003018186803b158015615d7357600080fd5b505afa158015615d87573d6000803e3d6000fd5b505050506040513d6020811015615d9d57600080fd5b505185615ee8565b61013b546040805160e260020a6330a5e1730281529051610ff492600160a060020a03169163c29785cc916004808301926020929190829003018186803b158015615def57600080fd5b505afa158015615e03573d6000803e3d6000fd5b505050506040513d6020811015615e1957600080fd5b505183615ee8565b60408051600160a060020a038416602080830191909152818301849052825180830384018152606083019093527fa9059cbb000000000000000000000000000000000000000000000000000000006080830181815284516000956151de959394909360840191908401908083835b60208310615eae5780518252601f199092019160209182019101615e8f565b6001836020036101000a03801982511681845116808217855250505050505090500192505050604051602081830303815290604052616185565b615ef2818361518a565b611c1e5760405160e560020a62461bcd02815260040180806020018281038252603781526020018061630e6037913960400191505060405180910390fd5b615f4282600160a060020a0316616293565b615f96576040805160e560020a62461bcd02815260206004820152601f60248201527f5361666545524332303a2063616c6c20746f206e6f6e2d636f6e747261637400604482015290519081900360640190fd5b6000606083600160a060020a0316836040518082805190602001908083835b60208310615fd45780518252601f199092019160209182019101615fb5565b6001836020036101000a0380198251168184511680821785525050505050509050019150506000604051808303816000865af19150503d8060008114616036576040519150601f19603f3d011682016040523d82523d6000602084013e61603b565b606091505b509150915081616095576040805160e560020a62461bcd02815260206004820181905260248201527f5361666545524332303a206c6f772d6c6576656c2063616c6c206661696c6564604482015290519081900360640190fd5b8051156141cf578080602001905160208110156160b157600080fd5b50516141cf5760405160e560020a62461bcd02815260040180806020018281038252602a81526020018061642d602a913960400191505060405180910390fd5b60408051600160a060020a0384166020808301919091523082840152606080830185905283518084039091018152608083019093527f23b872dd0000000000000000000000000000000000000000000000000000000060a0830181815284516000956151de959394909360a401919084019080838360208310615eae5780518252601f199092019160209182019101615e8f565b6000805460405183518392606092600160a060020a0390911691869190819060208401908083835b602083106161cc5780518252601f1990920191602091820191016161ad565b6001836020036101000a0380198251168184511680821785525050505050509050019150506000604051808303816000865af19150503d806000811461622e576040519150601f19603f3d011682016040523d82523d6000602084013e616233565b606091505b5091509150811561625f5780806020019051602081101561625357600080fd5b505192506117c9915050565b6040517f4e6492c3bd8ce28f74eeccbc3e461f243ee12a981a34e14fe75b98291a291d7690600090a16000925050506117c9565b3b15159056fe46756e6374696f6e2063616e6e6f742062652063616c6c65642061742070726f74656374696f6e206d6f64652e636f6e74726163745f69735f70617573656400000000000000000000000000004275636b65742073686f756c64206e6f74206265206120626173652074797065206275636b6574546f6b656e207769746864726177616c206661696c6564206f6e205252433230205265736572766520746f6b656e207472616e73666572436f6e747261637420696e7374616e63652068617320616c7265616479206265656e20696e697469616c697a6564546f6b656e206465706f736974206661696c6564206f6e205252433230205265736572766520746f6b656e207472616e7366657246756e6374696f6e2063616e6e6f742062652063616c6c656420617420746869732073746174652e4e6f7420656e6f75676820616c6c6f77616e636520746f206d616b6520746865206f7065726174696f6e46756e6374696f6e2063616e206f6e6c792062652063616c6c6564207768656e20736574746c656d656e742069732072656164795361666545524332303a204552433230206f7065726174696f6e20646964206e6f7420737563636565645361666545524332303a20617070726f76652066726f6d206e6f6e2d7a65726f20746f206e6f6e2d7a65726f20616c6c6f77616e63656e6f745f617574686f72697a65645f6368616e67657200000000000000000000a265627a7a7231582039c4f91594132c9993bf5f3918162dfc9aa608d15944e781e36757b8995821e464736f6c63430005110032",
  "source": "pragma solidity ^0.5.8;\n\nimport \"./MoC_v0117.sol\";\nimport \"openzeppelin-solidity/contracts/token/ERC20/SafeERC20.sol\";\n\ncontract MoC is MoC_v0117 {\n\n  /************************************/\n  /***** UPGRADE v020       ***********/\n  /************************************/\n\n  uint256 internal constant UINT256_MAX = ~uint256(0);\n\n  function migrateToV2(address mocV2Address_) external {\n    uint256 balance = reserveToken.balanceOf(address(this));\n    reserveToken.transfer(mocV2Address_, balance);\n    // transfer riskProToken pauser role\n    riskProToken.addPauser(mocV2Address_);\n    riskProToken.renouncePauser();\n    // infinite allowance to Moc Core\n    SafeERC20.safeApprove(reserveToken, mocV2Address_, UINT256_MAX);\n  }\n}\n",
  "sourcePath": "/Users/f.ruiz/projects/moc/RDOC-Contract-Internal/contracts_updated/MoC.sol",
  "compiler": {
    "name": "solc",
    "version": "0.5.17+commit.d19bba13.Emscripten.clang"
  },
  "schemaVersion": "3.0.11",
  "updatedAt": "2023-05-12T22:20:29.431Z",
  "devdoc": {
    "methods": {
      "addReserves(uint256)": {
        "details": "Adding tokens to the token reserve and C0 Bucket without minting any token. Could revert.",
        "params": {
          "tokenAmount": "Amount to deposit."
        }
      },
      "alterRedeemRequestAmount(bool,uint256)": {
        "details": "Alters the redeem amount position for the redeemer",
        "params": {
          "delta": "the amount to add/substract to current position",
          "isAddition": "true if adding amount to redeem, false to substract."
        }
      },
      "calculateRiskProHoldersInterest()": {
        "details": "Calculates RiskPro holders holder interest by taking the total amount of RBCs available on Bucket 0. RiskPro interests = Nb (bucket 0) * riskProRate."
      },
      "changeIGovernor(address)": {
        "params": {
          "newIGovernor": "New governor address"
        }
      },
      "dailyInratePayment()": {
        "details": "Moves the daily amount of interest rate to C0 bucket"
      },
      "evalLiquidation()": {
        "details": "Evaluates if liquidation state has been reached and runs liq if that's the case"
      },
      "getAllowance(address)": {
        "details": "Returns the amount of token reserve an account is allowed to use for deposit.",
        "params": {
          "account": "User account to check allowance."
        },
        "return": "The minimum value between MoC allowance for that account and the account's balance."
      },
      "getRedeemRequestAt(uint256)": {
        "details": "Gets the RedeemRequest at the queue index position",
        "params": {
          "index": "queue position to get"
        },
        "return": "redeemer's address and amount he submitted"
      },
      "getRiskProInterestAddress()": {
        "details": "Gets the target address to transfer RiskPro Holders rate",
        "return": "Target address to transfer RiskPro Holders interest"
      },
      "getRiskProInterestBlockSpan()": {
        "details": "Gets the blockspan of RiskPro that represents the frecuency of RiskPro holders interest payment",
        "return": "returns power of bitProInterestBlockSpan"
      },
      "getRiskProRate()": {
        "details": "Gets the rate for RiskPro Holders",
        "return": "RiskPro Rate"
      },
      "initialize(address)": {
        "details": "This initialize replaces the constructor but it is not called automatically. It is necessary because of the upgradeability of the contracts",
        "params": {
          "_governor": "Governor address"
        }
      },
      "initialize(address,address)": {
        "details": "This initialize replaces the constructor but it is not called automatically. It is necessary because of the upgradeability of the contracts. Either this function or the next can be used",
        "params": {
          "_governor": "The address that will define when a change contract is authorized to do this unstoppable/stoppable again",
          "_stopper": "The address that is authorized to stop this contract"
        }
      },
      "initialize(address,address,address,bool)": {
        "details": "Initializes the contract",
        "params": {
          "connectorAddress": "MoCConnector contract address",
          "governorAddress": "Governor contract address",
          "startStoppable": "Indicates if the contract starts being unstoppable or not",
          "stopperAddress": "Stopper contract address"
        }
      },
      "initialize(address,address,bool)": {
        "details": "This initialize replaces the constructor but it is not called automatically. It is necessary because of the upgradeability of the contracts. Either this function or the previous can be used",
        "params": {
          "_governor": "The address that will define when a change contract is authorized to do this unstoppable/stoppable again",
          "_stoppable": "Define if the contract starts being unstoppable or not",
          "_stopper": "The address that is authorized to stop this contract"
        }
      },
      "isBucketLiquidationReached(bytes32)": {
        "details": "Checks if bucket liquidation is reached.",
        "params": {
          "bucket": "Name of bucket."
        },
        "return": "true if bucket liquidation is reached, false otherwise"
      },
      "isSettlementEnabled()": {
        "details": "Indicates if settlement is enabled",
        "return": "Returns true if blockSpan number of blocks has passed since last execution; otherwise false"
      },
      "makeStoppable()": {
        "details": "Should be called through governance"
      },
      "makeUnstoppable()": {
        "details": "Should be called through governance"
      },
      "mintRiskPro(uint256)": {
        "details": "Mints RiskPro and pays the comissions of the operation (retrocompatible function).Retrocompatible function.",
        "params": {
          "resTokensToMint": "Amount in ReserveToken to mint"
        }
      },
      "mintRiskProVendors(uint256,address)": {
        "details": "Mints RiskPro and pays the comissions of the operation.",
        "params": {
          "resTokensToMint": "Amount Reserve Tokens to spend in minting",
          "vendorAccount": "Vendor address"
        }
      },
      "mintRiskProx(bytes32,uint256)": {
        "details": "BUCKET riskProx riskProx (retrocompatible function).Retrocompatible function.",
        "params": {
          "bucket": "Name of the bucket used",
          "resTokensToMint": "amount to mint on ReserveToken"
        }
      },
      "mintRiskProxVendors(bytes32,uint256,address)": {
        "details": "BUCKET riskProx minting",
        "params": {
          "bucket": "Name of the bucket used",
          "resTokensToMint": "amount to mint on ReserveToken",
          "vendorAccount": "Vendor address"
        }
      },
      "mintStableToken(uint256)": {
        "details": "StableToken Doc tokens and pays the commisions of the operation (retrocompatible function).Retrocompatible function.",
        "params": {
          "resTokensToMint": "Amount in ReserveToken to mint"
        }
      },
      "mintStableTokenVendors(uint256,address)": {
        "details": "Mint StableToken tokens and pays the commisions of the operation",
        "params": {
          "resTokensToMint": "Amount in ReserveTokens to mint",
          "vendorAccount": "Vendor address"
        }
      },
      "pause()": {
        "details": "Should only be called by the pauser and when it is stoppable"
      },
      "payRiskProHoldersInterestPayment()": {
        "details": "Pays the RiskPro interest and transfers it to the address mocInrate.riskProInterestAddress RiskPro interests = Nb (bucket 0) * riskProRate."
      },
      "redeemAllStableToken()": {
        "details": "Allow redeem on liquidation state, user StableTokens get burned and he receives the equivalent ReserveTokens if can be covered, or the maximum available*"
      },
      "redeemFreeStableToken(uint256)": {
        "details": "Redeems the requested amount for the msg.sender, or the max amount of free stableTokens possible (retrocompatible function).Retrocompatible function.",
        "params": {
          "stableTokenAmount": "Amount of StableTokens to redeem."
        }
      },
      "redeemFreeStableTokenVendors(uint256,address)": {
        "details": "Redeems the requested amount for the msg.sender, or the max amount of free stableTokens possible.",
        "params": {
          "stableTokenAmount": "Amount of StableTokens to redeem.",
          "vendorAccount": "Vendor address"
        }
      },
      "redeemQueueSize()": {
        "details": "Returns current redeem queue size",
        "return": "redeem queue size"
      },
      "redeemRiskPro(uint256)": {
        "details": "Redeems RiskPro Tokens and pays the comissions of the operation (retrocompatible function).",
        "params": {
          "riskProAmount": "Amout in RiskPro"
        }
      },
      "redeemRiskProVendors(uint256,address)": {
        "details": "Redeems RiskPro Tokens and pays the comissions of the operation in ReserveTokens",
        "params": {
          "riskProAmount": "Amout in RiskPro",
          "vendorAccount": "Vendor address"
        }
      },
      "redeemRiskProx(bytes32,uint256)": {
        "details": "Redeems RiskProx Tokens and pays the comissions of the operation in ReserveToken (retrocompatible function).Retrocompatible function.",
        "params": {
          "bucket": "Bucket to reedem, for example X2",
          "riskProxAmount": "Amount in RiskProx"
        }
      },
      "redeemRiskProxVendors(bytes32,uint256,address)": {
        "details": "Redeems RiskProx Tokens and pays the comissions of the operation in ReserveTokens",
        "params": {
          "bucket": "Bucket to reedem, for example X2",
          "riskProxAmount": "Amount in RiskProx",
          "vendorAccount": "Vendor address"
        }
      },
      "redeemStableTokenRequest(uint256)": {
        "details": "Creates or updates the amount of a StableToken redeem Request from the msg.sender",
        "params": {
          "stableTokenAmount": "Amount of StableTokens to redeem on settlement [using mocPrecision]"
        }
      },
      "riskProxBalanceOf(bytes32,address)": {
        "details": "Gets the RiskProx balance of an address",
        "params": {
          "account": "Address",
          "bucket": "Name of the bucket"
        },
        "return": "RiskProx balance of the address"
      },
      "runSettlement(uint256)": {
        "details": "Runs all settlement process",
        "params": {
          "steps": "Number of steps"
        }
      },
      "sendToAddress(address,uint256)": {
        "details": "Public function to extract and send tokens from the reserve. Will return false if transfer reverts or fails.",
        "params": {
          "receiver": "Account to which the tokens will be send",
          "tokenAmount": "Amount of tokens to send"
        },
        "return": "False if RRC20 transfer fails or revert and true if succeeds*"
      },
      "setStopper(address)": {
        "details": "Should be called through governance",
        "params": {
          "newStopper": "Address of the newStopper"
        }
      },
      "stableTokenAmountToRedeem(address)": {
        "details": "Returns the total amount of StableTokens in the redeem queue for redeemer",
        "params": {
          "redeemer": "address for which ^ is computed"
        },
        "return": "total amount of Docs in the redeem queue for redeemer"
      }
    }
  },
  "userdoc": {
    "methods": {
      "changeIGovernor(address)": {
        "notice": "Change the contract's governor. Should be called through the old governance system"
      },
      "initialize(address)": {
        "notice": "Initialize the contract with the basic settings"
      },
      "initialize(address,address)": {
        "notice": "Initialize the contract with the basic settings"
      },
      "initialize(address,address,bool)": {
        "notice": "Initialize the contract with the basic settings"
      },
      "makeStoppable()": {
        "notice": "Switches ON the stoppability of the contract; if the contract was paused before making it unstoppable it will be paused again after calling this function"
      },
      "makeUnstoppable()": {
        "notice": "Switches OFF the stoppability of the contract; if the contract was paused it will no longer be so"
      },
      "pause()": {
        "notice": "Called by the owner to pause, triggers stopped state"
      },
      "paused()": {
        "notice": "Returns true if paused"
      },
      "setStopper(address)": {
        "notice": "Changes the address which is enable to stop this contract"
      },
      "unpause()": {
        "notice": "Called by the owner to unpause, returns to normal state"
      }
    }
  }
}