{
  "contractName": "MoCConnector",
  "abi": [
    {
      "constant": true,
      "inputs": [],
      "name": "DEPRECATED_mocConverter",
      "outputs": [
        {
          "internalType": "address",
          "name": "",
          "type": "address"
        }
      ],
      "payable": false,
      "stateMutability": "view",
      "type": "function"
    },
    {
      "constant": true,
      "inputs": [
        {
          "internalType": "address",
          "name": "account",
          "type": "address"
        }
      ],
      "name": "isWhitelisted",
      "outputs": [
        {
          "internalType": "bool",
          "name": "",
          "type": "bool"
        }
      ],
      "payable": false,
      "stateMutability": "view",
      "type": "function"
    },
    {
      "constant": true,
      "inputs": [],
      "name": "moc",
      "outputs": [
        {
          "internalType": "address payable",
          "name": "",
          "type": "address"
        }
      ],
      "payable": false,
      "stateMutability": "view",
      "type": "function"
    },
    {
      "constant": true,
      "inputs": [],
      "name": "mocBurnout",
      "outputs": [
        {
          "internalType": "address",
          "name": "",
          "type": "address"
        }
      ],
      "payable": false,
      "stateMutability": "view",
      "type": "function"
    },
    {
      "constant": true,
      "inputs": [],
      "name": "mocExchange",
      "outputs": [
        {
          "internalType": "address",
          "name": "",
          "type": "address"
        }
      ],
      "payable": false,
      "stateMutability": "view",
      "type": "function"
    },
    {
      "constant": true,
      "inputs": [],
      "name": "mocInrate",
      "outputs": [
        {
          "internalType": "address",
          "name": "",
          "type": "address"
        }
      ],
      "payable": false,
      "stateMutability": "view",
      "type": "function"
    },
    {
      "constant": true,
      "inputs": [],
      "name": "mocSettlement",
      "outputs": [
        {
          "internalType": "address",
          "name": "",
          "type": "address"
        }
      ],
      "payable": false,
      "stateMutability": "view",
      "type": "function"
    },
    {
      "constant": true,
      "inputs": [],
      "name": "mocState",
      "outputs": [
        {
          "internalType": "address",
          "name": "",
          "type": "address"
        }
      ],
      "payable": false,
      "stateMutability": "view",
      "type": "function"
    },
    {
      "constant": true,
      "inputs": [],
      "name": "reserveToken",
      "outputs": [
        {
          "internalType": "address",
          "name": "",
          "type": "address"
        }
      ],
      "payable": false,
      "stateMutability": "view",
      "type": "function"
    },
    {
      "constant": true,
      "inputs": [],
      "name": "riskProToken",
      "outputs": [
        {
          "internalType": "address",
          "name": "",
          "type": "address"
        }
      ],
      "payable": false,
      "stateMutability": "view",
      "type": "function"
    },
    {
      "constant": true,
      "inputs": [],
      "name": "riskProxManager",
      "outputs": [
        {
          "internalType": "address",
          "name": "",
          "type": "address"
        }
      ],
      "payable": false,
      "stateMutability": "view",
      "type": "function"
    },
    {
      "constant": true,
      "inputs": [],
      "name": "stableToken",
      "outputs": [
        {
          "internalType": "address",
          "name": "",
          "type": "address"
        }
      ],
      "payable": false,
      "stateMutability": "view",
      "type": "function"
    },
    {
      "constant": false,
      "inputs": [
        {
          "internalType": "address payable",
          "name": "mocAddress",
          "type": "address"
        },
        {
          "internalType": "address",
          "name": "stableTokenAddress",
          "type": "address"
        },
        {
          "internalType": "address",
          "name": "riskProAddress",
          "type": "address"
        },
        {
          "internalType": "address",
          "name": "riskProxAddress",
          "type": "address"
        },
        {
          "internalType": "address",
          "name": "stateAddress",
          "type": "address"
        },
        {
          "internalType": "address",
          "name": "settlementAddress",
          "type": "address"
        },
        {
          "internalType": "address",
          "name": "exchangeAddress",
          "type": "address"
        },
        {
          "internalType": "address",
          "name": "inrateAddress",
          "type": "address"
        },
        {
          "internalType": "address",
          "name": "burnoutBookAddress",
          "type": "address"
        },
        {
          "internalType": "address",
          "name": "reserveTokenAddress",
          "type": "address"
        }
      ],
      "name": "initialize",
      "outputs": [],
      "payable": false,
      "stateMutability": "nonpayable",
      "type": "function"
    }
  ],
  "bytecode": "0x608060405234801561001057600080fd5b50610644806100206000396000f3fe608060405234801561001057600080fd5b50600436106100ec576000357c0100000000000000000000000000000000000000000000000000000000900480639b35777e116100a9578063c306b37811610083578063c306b37814610187578063ec12f974146101fa578063f4325d6714610202578063ffb691301461020a576100ec565b80639b35777e1461016f578063a9d75b2b14610177578063b29ead6c1461017f576100ec565b806312529f1f146100f1578063360b41b1146101155780633af32abf1461011d578063534282531461015757806361b122041461015f5780638557af6f14610167575b600080fd5b6100f9610212565b60408051600160a060020a039092168252519081900360200190f35b6100f9610221565b6101436004803603602081101561013357600080fd5b5035600160a060020a0316610230565b604080519115158252519081900360200190f35b6100f96102af565b6100f96102be565b6100f96102cd565b6100f96102dc565b6100f96102eb565b6100f96102fa565b6101f8600480360361014081101561019e57600080fd5b50600160a060020a038135811691602081013582169160408201358116916060810135821691608082013581169160a081013582169160c082013581169160e0810135821691610100820135811691610120013516610309565b005b6100f96104b1565b6100f96104c0565b6100f96104cf565b606a54600160a060020a031681565b606954600160a060020a031681565b6000600160a060020a038216610290576040805160e560020a62461bcd02815260206004820152601760248201527f4163636f756e74206d757374206e6f7420626520307830000000000000000000604482015290519081900360640190fd5b50600160a060020a031660009081526020819052604090205460ff1690565b606654600160a060020a031681565b606f54600160a060020a031681565b606d54600160a060020a031681565b606854600160a060020a031681565b606754600160a060020a031681565b606c54600160a060020a031681565b603354610100900460ff168061032257506103226104de565b80610330575060335460ff16155b61036e5760405160e560020a62461bcd02815260040180806020018281038252602e8152602001806105e2602e913960400191505060405180910390fd5b603354610100900460ff16158015610399576033805460ff1961ff0019909116610100171660011790555b6066805473ffffffffffffffffffffffffffffffffffffffff19908116600160a060020a038e8116919091179092556067805482168d84161790556068805482168c84161790556069805482168b8416179055606a805482168a8416179055606c80548216898416179055606d80548216888416179055606e80548216878416179055606f80548216868416179055607080549091169184169190911790556104418b6104e4565b61044a8a6104e4565b610453896104e4565b61045c886104e4565b610465876104e4565b61046e866104e4565b610477856104e4565b610480846104e4565b610489836104e4565b610492826104e4565b80156104a4576033805461ff00191690555b5050505050505050505050565b606b54600160a060020a031681565b607054600160a060020a031681565b606e54600160a060020a031681565b303b1590565b600160a060020a038116610542576040805160e560020a62461bcd02815260206004820152601760248201527f4163636f756e74206d757374206e6f7420626520307830000000000000000000604482015290519081900360640190fd5b61054b81610230565b1561058a5760405160e560020a62461bcd0281526004018080602001828103825260338152602001806105af6033913960400191505060405180910390fd5b600160a060020a03166000908152602081905260409020805460ff1916600117905556fe4163636f756e74206e6f7420616c6c6f77656420746f20616464206163636f756e747320696e746f207768697465206c697374436f6e747261637420696e7374616e63652068617320616c7265616479206265656e20696e697469616c697a6564a265627a7a72315820cb68c97495e090db075acafc779b8075183d74d75cf6e099b1d7398a9b457abb64736f6c63430005110032",
  "source": "pragma solidity ^0.5.8;\n\nimport \"zos-lib/contracts/Initializable.sol\";\n\nimport \"./MoCWhitelist.sol\";\n\n/**\n  @dev Provides access control between all MoC Contracts\n */\ncontract MoCConnector is MoCWhitelist, Initializable {\n  // References\n  address payable public moc;\n  address public stableToken;\n  address public riskProToken;\n  address public riskProxManager;\n  address public mocState;\n  /** DEPRECATED **/\n  // solium-disable-next-line mixedcase\n  address public DEPRECATED_mocConverter;\n  address public mocSettlement;\n  address public mocExchange;\n  address public mocInrate;\n  /** DEPRECATED mocBurnout **/\n  address public mocBurnout;\n  address public reserveToken;\n\n  bool internal initialized;\n\n  /**\n    @dev Initializes the contract\n    @param mocAddress MoC contract address\n    @param stableTokenAddress Stable token contract address\n    @param riskProAddress RiskPro token contract address\n    @param riskProxAddress RiskProxManager contract address\n    @param stateAddress MoCState contract address\n    @param settlementAddress MoCSettlement contract address\n    @param exchangeAddress MoCExchange contract address\n    @param inrateAddress MoCInrate contract address\n    @param burnoutBookAddress (DEPRECATED) MoCBurnout contract address. DO NOT USE.\n    @param reserveTokenAddress Reserve token contract address\n  */\n  function initialize(\n    address payable mocAddress,\n    address stableTokenAddress,\n    address riskProAddress,\n    address riskProxAddress,\n    address stateAddress,\n    address settlementAddress,\n    address exchangeAddress,\n    address inrateAddress,\n    address burnoutBookAddress,\n    address reserveTokenAddress\n  ) public initializer {\n    moc = mocAddress;\n    stableToken = stableTokenAddress;\n    riskProToken = riskProAddress;\n    riskProxManager = riskProxAddress;\n    mocState = stateAddress;\n    mocSettlement = settlementAddress;\n    mocExchange = exchangeAddress;\n    mocInrate = inrateAddress;\n    mocBurnout = burnoutBookAddress;\n    reserveToken = reserveTokenAddress;\n\n    // Add to Whitelist\n    add(mocAddress);\n    add(stableTokenAddress);\n    add(riskProAddress);\n    add(riskProxAddress);\n    add(stateAddress);\n    add(settlementAddress);\n    add(exchangeAddress);\n    add(inrateAddress);\n    add(burnoutBookAddress);\n    add(reserveTokenAddress);\n  }\n\n  /************************************/\n  /***** UPGRADE v0116       ***********/\n  /************************************/\n  \n  // DEPRECATED. \n  // This function was used atomically in upgrade v0115 to migrate stableTokenV1 to stableTokenV2\n  // After that, it is removed in this contract version to cannot be called more than once.\n  //\n  // event StableTokenMigrated(address oldStableTokenAddress_, address newStableTokenAddress_);\n  //\n  // /**\n  //   @dev Migrates to a new stable token contract\n  //   @param newStableTokenAddress_ new stable token contract address\n  // */\n  // function migrateStableToken(address newStableTokenAddress_) public {\n  //   emit StableTokenMigrated(stableToken, newStableTokenAddress_);  \n  //   stableToken = newStableTokenAddress_;\n  // }\n  \n  // Leave a gap betweeen inherited contracts variables in order to be\n  // able to add more variables in them later\n  uint256[50] private upgradeGap;\n}\n",
  "sourcePath": "/Users/f.ruiz/projects/moc/RDOC-Contract-Internal/contracts_updated/base/MoCConnector.sol",
  "compiler": {
    "name": "solc",
    "version": "0.5.17+commit.d19bba13.Emscripten.clang"
  },
  "schemaVersion": "3.0.11",
  "updatedAt": "2023-05-12T22:20:29.640Z",
  "devdoc": {
    "details": "Provides access control between all MoC Contracts",
    "methods": {
      "initialize(address,address,address,address,address,address,address,address,address,address)": {
        "details": "Initializes the contract",
        "params": {
          "burnoutBookAddress": "(DEPRECATED) MoCBurnout contract address. DO NOT USE.",
          "exchangeAddress": "MoCExchange contract address",
          "inrateAddress": "MoCInrate contract address",
          "mocAddress": "MoC contract address",
          "reserveTokenAddress": "Reserve token contract address",
          "riskProAddress": "RiskPro token contract address",
          "riskProxAddress": "RiskProxManager contract address",
          "settlementAddress": "MoCSettlement contract address",
          "stableTokenAddress": "Stable token contract address",
          "stateAddress": "MoCState contract address"
        }
      },
      "isWhitelisted(address)": {
        "details": "Check if an account is whitelisted",
        "return": "Bool"
      }
    }
  },
  "userdoc": {
    "methods": {}
  }
}