{
  "contractName": "MoCInrate",
  "abi": [
    {
      "anonymous": false,
      "inputs": [
        {
          "indexed": false,
          "internalType": "uint256",
          "name": "amount",
          "type": "uint256"
        },
        {
          "indexed": false,
          "internalType": "uint256",
          "name": "daysToSettlement",
          "type": "uint256"
        },
        {
          "indexed": false,
          "internalType": "uint256",
          "name": "nReserveBucketC0",
          "type": "uint256"
        }
      ],
      "name": "InrateDailyPay",
      "type": "event"
    },
    {
      "anonymous": false,
      "inputs": [
        {
          "indexed": false,
          "internalType": "uint256",
          "name": "amount",
          "type": "uint256"
        },
        {
          "indexed": false,
          "internalType": "uint256",
          "name": "nReserveBucketC0BeforePay",
          "type": "uint256"
        }
      ],
      "name": "RiskProHoldersInterestPay",
      "type": "event"
    },
    {
      "constant": true,
      "inputs": [],
      "name": "BUCKET_C0",
      "outputs": [
        {
          "internalType": "bytes32",
          "name": "",
          "type": "bytes32"
        }
      ],
      "payable": false,
      "stateMutability": "view",
      "type": "function"
    },
    {
      "constant": true,
      "inputs": [],
      "name": "BUCKET_X2",
      "outputs": [
        {
          "internalType": "bytes32",
          "name": "",
          "type": "bytes32"
        }
      ],
      "payable": false,
      "stateMutability": "view",
      "type": "function"
    },
    {
      "constant": true,
      "inputs": [],
      "name": "DEPRECATED_commissionRate",
      "outputs": [
        {
          "internalType": "uint256",
          "name": "",
          "type": "uint256"
        }
      ],
      "payable": false,
      "stateMutability": "view",
      "type": "function"
    },
    {
      "constant": true,
      "inputs": [],
      "name": "MINT_RISKPROX_FEES_MOC",
      "outputs": [
        {
          "internalType": "uint8",
          "name": "",
          "type": "uint8"
        }
      ],
      "payable": false,
      "stateMutability": "view",
      "type": "function"
    },
    {
      "constant": true,
      "inputs": [],
      "name": "MINT_RISKPROX_FEES_RESERVE",
      "outputs": [
        {
          "internalType": "uint8",
          "name": "",
          "type": "uint8"
        }
      ],
      "payable": false,
      "stateMutability": "view",
      "type": "function"
    },
    {
      "constant": true,
      "inputs": [],
      "name": "MINT_RISKPRO_FEES_MOC",
      "outputs": [
        {
          "internalType": "uint8",
          "name": "",
          "type": "uint8"
        }
      ],
      "payable": false,
      "stateMutability": "view",
      "type": "function"
    },
    {
      "constant": true,
      "inputs": [],
      "name": "MINT_RISKPRO_FEES_RESERVE",
      "outputs": [
        {
          "internalType": "uint8",
          "name": "",
          "type": "uint8"
        }
      ],
      "payable": false,
      "stateMutability": "view",
      "type": "function"
    },
    {
      "constant": true,
      "inputs": [],
      "name": "MINT_STABLETOKEN_FEES_MOC",
      "outputs": [
        {
          "internalType": "uint8",
          "name": "",
          "type": "uint8"
        }
      ],
      "payable": false,
      "stateMutability": "view",
      "type": "function"
    },
    {
      "constant": true,
      "inputs": [],
      "name": "MINT_STABLETOKEN_FEES_RESERVE",
      "outputs": [
        {
          "internalType": "uint8",
          "name": "",
          "type": "uint8"
        }
      ],
      "payable": false,
      "stateMutability": "view",
      "type": "function"
    },
    {
      "constant": true,
      "inputs": [],
      "name": "REDEEM_RISKPROX_FEES_MOC",
      "outputs": [
        {
          "internalType": "uint8",
          "name": "",
          "type": "uint8"
        }
      ],
      "payable": false,
      "stateMutability": "view",
      "type": "function"
    },
    {
      "constant": true,
      "inputs": [],
      "name": "REDEEM_RISKPROX_FEES_RESERVE",
      "outputs": [
        {
          "internalType": "uint8",
          "name": "",
          "type": "uint8"
        }
      ],
      "payable": false,
      "stateMutability": "view",
      "type": "function"
    },
    {
      "constant": true,
      "inputs": [],
      "name": "REDEEM_RISKPRO_FEES_MOC",
      "outputs": [
        {
          "internalType": "uint8",
          "name": "",
          "type": "uint8"
        }
      ],
      "payable": false,
      "stateMutability": "view",
      "type": "function"
    },
    {
      "constant": true,
      "inputs": [],
      "name": "REDEEM_RISKPRO_FEES_RESERVE",
      "outputs": [
        {
          "internalType": "uint8",
          "name": "",
          "type": "uint8"
        }
      ],
      "payable": false,
      "stateMutability": "view",
      "type": "function"
    },
    {
      "constant": true,
      "inputs": [],
      "name": "REDEEM_STABLETOKEN_FEES_MOC",
      "outputs": [
        {
          "internalType": "uint8",
          "name": "",
          "type": "uint8"
        }
      ],
      "payable": false,
      "stateMutability": "view",
      "type": "function"
    },
    {
      "constant": true,
      "inputs": [],
      "name": "REDEEM_STABLETOKEN_FEES_RESERVE",
      "outputs": [
        {
          "internalType": "uint8",
          "name": "",
          "type": "uint8"
        }
      ],
      "payable": false,
      "stateMutability": "view",
      "type": "function"
    },
    {
      "constant": false,
      "inputs": [
        {
          "internalType": "contract IGovernor",
          "name": "newIGovernor",
          "type": "address"
        }
      ],
      "name": "changeIGovernor",
      "outputs": [],
      "payable": false,
      "stateMutability": "nonpayable",
      "type": "function"
    },
    {
      "constant": true,
      "inputs": [
        {
          "internalType": "uint8",
          "name": "",
          "type": "uint8"
        }
      ],
      "name": "commissionRatesByTxType",
      "outputs": [
        {
          "internalType": "uint256",
          "name": "",
          "type": "uint256"
        }
      ],
      "payable": false,
      "stateMutability": "view",
      "type": "function"
    },
    {
      "constant": true,
      "inputs": [],
      "name": "commissionsAddress",
      "outputs": [
        {
          "internalType": "address payable",
          "name": "",
          "type": "address"
        }
      ],
      "payable": false,
      "stateMutability": "view",
      "type": "function"
    },
    {
      "constant": true,
      "inputs": [],
      "name": "connector",
      "outputs": [
        {
          "internalType": "contract MoCConnector",
          "name": "",
          "type": "address"
        }
      ],
      "payable": false,
      "stateMutability": "view",
      "type": "function"
    },
    {
      "constant": true,
      "inputs": [],
      "name": "getDayPrecision",
      "outputs": [
        {
          "internalType": "uint256",
          "name": "",
          "type": "uint256"
        }
      ],
      "payable": false,
      "stateMutability": "view",
      "type": "function"
    },
    {
      "constant": true,
      "inputs": [],
      "name": "getMocPrecision",
      "outputs": [
        {
          "internalType": "uint256",
          "name": "",
          "type": "uint256"
        }
      ],
      "payable": false,
      "stateMutability": "view",
      "type": "function"
    },
    {
      "constant": true,
      "inputs": [],
      "name": "getReservePrecision",
      "outputs": [
        {
          "internalType": "uint256",
          "name": "",
          "type": "uint256"
        }
      ],
      "payable": false,
      "stateMutability": "view",
      "type": "function"
    },
    {
      "constant": true,
      "inputs": [],
      "name": "governor",
      "outputs": [
        {
          "internalType": "contract IGovernor",
          "name": "",
          "type": "address"
        }
      ],
      "payable": false,
      "stateMutability": "view",
      "type": "function"
    },
    {
      "constant": true,
      "inputs": [],
      "name": "lastDailyPayBlock",
      "outputs": [
        {
          "internalType": "uint256",
          "name": "",
          "type": "uint256"
        }
      ],
      "payable": false,
      "stateMutability": "view",
      "type": "function"
    },
    {
      "constant": true,
      "inputs": [],
      "name": "lastRiskProInterestBlock",
      "outputs": [
        {
          "internalType": "uint256",
          "name": "",
          "type": "uint256"
        }
      ],
      "payable": false,
      "stateMutability": "view",
      "type": "function"
    },
    {
      "constant": true,
      "inputs": [],
      "name": "riskProInterestAddress",
      "outputs": [
        {
          "internalType": "address payable",
          "name": "",
          "type": "address"
        }
      ],
      "payable": false,
      "stateMutability": "view",
      "type": "function"
    },
    {
      "constant": true,
      "inputs": [],
      "name": "riskProInterestBlockSpan",
      "outputs": [
        {
          "internalType": "uint256",
          "name": "",
          "type": "uint256"
        }
      ],
      "payable": false,
      "stateMutability": "view",
      "type": "function"
    },
    {
      "constant": true,
      "inputs": [],
      "name": "riskProRate",
      "outputs": [
        {
          "internalType": "uint256",
          "name": "",
          "type": "uint256"
        }
      ],
      "payable": false,
      "stateMutability": "view",
      "type": "function"
    },
    {
      "constant": true,
      "inputs": [],
      "name": "stablePower",
      "outputs": [
        {
          "internalType": "uint256",
          "name": "",
          "type": "uint256"
        }
      ],
      "payable": false,
      "stateMutability": "view",
      "type": "function"
    },
    {
      "constant": true,
      "inputs": [],
      "name": "stableTmax",
      "outputs": [
        {
          "internalType": "uint256",
          "name": "",
          "type": "uint256"
        }
      ],
      "payable": false,
      "stateMutability": "view",
      "type": "function"
    },
    {
      "constant": true,
      "inputs": [],
      "name": "stableTmin",
      "outputs": [
        {
          "internalType": "uint256",
          "name": "",
          "type": "uint256"
        }
      ],
      "payable": false,
      "stateMutability": "view",
      "type": "function"
    },
    {
      "constant": false,
      "inputs": [
        {
          "internalType": "uint256",
          "name": "_stableTmin",
          "type": "uint256"
        }
      ],
      "name": "setStableTmin",
      "outputs": [],
      "payable": false,
      "stateMutability": "nonpayable",
      "type": "function"
    },
    {
      "constant": false,
      "inputs": [
        {
          "internalType": "uint256",
          "name": "_stableTmax",
          "type": "uint256"
        }
      ],
      "name": "setStableTmax",
      "outputs": [],
      "payable": false,
      "stateMutability": "nonpayable",
      "type": "function"
    },
    {
      "constant": false,
      "inputs": [
        {
          "internalType": "uint256",
          "name": "_stablePower",
          "type": "uint256"
        }
      ],
      "name": "setStablePower",
      "outputs": [],
      "payable": false,
      "stateMutability": "nonpayable",
      "type": "function"
    },
    {
      "constant": true,
      "inputs": [],
      "name": "getStableTmin",
      "outputs": [
        {
          "internalType": "uint256",
          "name": "",
          "type": "uint256"
        }
      ],
      "payable": false,
      "stateMutability": "view",
      "type": "function"
    },
    {
      "constant": true,
      "inputs": [],
      "name": "getStableTmax",
      "outputs": [
        {
          "internalType": "uint256",
          "name": "",
          "type": "uint256"
        }
      ],
      "payable": false,
      "stateMutability": "view",
      "type": "function"
    },
    {
      "constant": true,
      "inputs": [],
      "name": "getStablePower",
      "outputs": [
        {
          "internalType": "uint256",
          "name": "",
          "type": "uint256"
        }
      ],
      "payable": false,
      "stateMutability": "view",
      "type": "function"
    },
    {
      "constant": true,
      "inputs": [
        {
          "internalType": "uint256",
          "name": "stableTokenRedeem",
          "type": "uint256"
        }
      ],
      "name": "stableTokenInrateAvg",
      "outputs": [
        {
          "internalType": "uint256",
          "name": "",
          "type": "uint256"
        }
      ],
      "payable": false,
      "stateMutability": "view",
      "type": "function"
    },
    {
      "constant": false,
      "inputs": [
        {
          "internalType": "contract IGovernor",
          "name": "_governor",
          "type": "address"
        }
      ],
      "name": "initialize",
      "outputs": [],
      "payable": false,
      "stateMutability": "nonpayable",
      "type": "function"
    },
    {
      "constant": false,
      "inputs": [
        {
          "internalType": "address",
          "name": "connectorAddress",
          "type": "address"
        },
        {
          "internalType": "address",
          "name": "_governor",
          "type": "address"
        },
        {
          "internalType": "uint256",
          "name": "riskProxTmin",
          "type": "uint256"
        },
        {
          "internalType": "uint256",
          "name": "riskProxPower",
          "type": "uint256"
        },
        {
          "internalType": "uint256",
          "name": "riskProxTmax",
          "type": "uint256"
        },
        {
          "internalType": "uint256",
          "name": "_riskProRate",
          "type": "uint256"
        },
        {
          "internalType": "uint256",
          "name": "blockSpanRiskPro",
          "type": "uint256"
        },
        {
          "internalType": "address payable",
          "name": "riskProInterestTargetAddress",
          "type": "address"
        },
        {
          "internalType": "address payable",
          "name": "commissionsAddressTarget",
          "type": "address"
        },
        {
          "internalType": "uint256",
          "name": "_stableTmin",
          "type": "uint256"
        },
        {
          "internalType": "uint256",
          "name": "_stablePower",
          "type": "uint256"
        },
        {
          "internalType": "uint256",
          "name": "_stableTmax",
          "type": "uint256"
        }
      ],
      "name": "initialize",
      "outputs": [],
      "payable": false,
      "stateMutability": "nonpayable",
      "type": "function"
    },
    {
      "constant": true,
      "inputs": [],
      "name": "getRiskProxTmin",
      "outputs": [
        {
          "internalType": "uint256",
          "name": "",
          "type": "uint256"
        }
      ],
      "payable": false,
      "stateMutability": "view",
      "type": "function"
    },
    {
      "constant": true,
      "inputs": [],
      "name": "getRiskProxTmax",
      "outputs": [
        {
          "internalType": "uint256",
          "name": "",
          "type": "uint256"
        }
      ],
      "payable": false,
      "stateMutability": "view",
      "type": "function"
    },
    {
      "constant": true,
      "inputs": [],
      "name": "getRiskProxPower",
      "outputs": [
        {
          "internalType": "uint256",
          "name": "",
          "type": "uint256"
        }
      ],
      "payable": false,
      "stateMutability": "view",
      "type": "function"
    },
    {
      "constant": true,
      "inputs": [],
      "name": "getRiskProInterestBlockSpan",
      "outputs": [
        {
          "internalType": "uint256",
          "name": "",
          "type": "uint256"
        }
      ],
      "payable": false,
      "stateMutability": "view",
      "type": "function"
    },
    {
      "constant": false,
      "inputs": [
        {
          "internalType": "uint256",
          "name": "_btxcTmin",
          "type": "uint256"
        }
      ],
      "name": "setRiskProxTmin",
      "outputs": [],
      "payable": false,
      "stateMutability": "nonpayable",
      "type": "function"
    },
    {
      "constant": false,
      "inputs": [
        {
          "internalType": "uint256",
          "name": "_btxcTax",
          "type": "uint256"
        }
      ],
      "name": "setRiskProxTmax",
      "outputs": [],
      "payable": false,
      "stateMutability": "nonpayable",
      "type": "function"
    },
    {
      "constant": false,
      "inputs": [
        {
          "internalType": "uint256",
          "name": "_btxcPower",
          "type": "uint256"
        }
      ],
      "name": "setRiskProxPower",
      "outputs": [],
      "payable": false,
      "stateMutability": "nonpayable",
      "type": "function"
    },
    {
      "constant": true,
      "inputs": [],
      "name": "getRiskProRate",
      "outputs": [
        {
          "internalType": "uint256",
          "name": "",
          "type": "uint256"
        }
      ],
      "payable": false,
      "stateMutability": "view",
      "type": "function"
    },
    {
      "constant": false,
      "inputs": [
        {
          "internalType": "uint256",
          "name": "newRiskProRate",
          "type": "uint256"
        }
      ],
      "name": "setRiskProRate",
      "outputs": [],
      "payable": false,
      "stateMutability": "nonpayable",
      "type": "function"
    },
    {
      "constant": false,
      "inputs": [
        {
          "internalType": "uint256",
          "name": "newRiskProBlockSpan",
          "type": "uint256"
        }
      ],
      "name": "setRiskProInterestBlockSpan",
      "outputs": [],
      "payable": false,
      "stateMutability": "nonpayable",
      "type": "function"
    },
    {
      "constant": true,
      "inputs": [],
      "name": "getRiskProInterestAddress",
      "outputs": [
        {
          "internalType": "address payable",
          "name": "",
          "type": "address"
        }
      ],
      "payable": false,
      "stateMutability": "view",
      "type": "function"
    },
    {
      "constant": false,
      "inputs": [
        {
          "internalType": "address payable",
          "name": "newRiskProInterestAddress",
          "type": "address"
        }
      ],
      "name": "setRiskProInterestAddress",
      "outputs": [],
      "payable": false,
      "stateMutability": "nonpayable",
      "type": "function"
    },
    {
      "constant": false,
      "inputs": [
        {
          "internalType": "address payable",
          "name": "newCommissionsAddress",
          "type": "address"
        }
      ],
      "name": "setCommissionsAddress",
      "outputs": [],
      "payable": false,
      "stateMutability": "nonpayable",
      "type": "function"
    },
    {
      "constant": true,
      "inputs": [],
      "name": "spotInrate",
      "outputs": [
        {
          "internalType": "uint256",
          "name": "",
          "type": "uint256"
        }
      ],
      "payable": false,
      "stateMutability": "view",
      "type": "function"
    },
    {
      "constant": true,
      "inputs": [
        {
          "internalType": "bytes32",
          "name": "bucket",
          "type": "bytes32"
        },
        {
          "internalType": "uint256",
          "name": "resTokensAmount",
          "type": "uint256"
        },
        {
          "internalType": "bool",
          "name": "onMinting",
          "type": "bool"
        }
      ],
      "name": "riskProxInrateAvg",
      "outputs": [
        {
          "internalType": "uint256",
          "name": "",
          "type": "uint256"
        }
      ],
      "payable": false,
      "stateMutability": "view",
      "type": "function"
    },
    {
      "constant": true,
      "inputs": [],
      "name": "dailyInrate",
      "outputs": [
        {
          "internalType": "uint256",
          "name": "",
          "type": "uint256"
        }
      ],
      "payable": false,
      "stateMutability": "view",
      "type": "function"
    },
    {
      "constant": true,
      "inputs": [
        {
          "internalType": "bytes32",
          "name": "bucket",
          "type": "bytes32"
        },
        {
          "internalType": "uint256",
          "name": "reserveTokenAmount",
          "type": "uint256"
        }
      ],
      "name": "calcMintInterestValues",
      "outputs": [
        {
          "internalType": "uint256",
          "name": "",
          "type": "uint256"
        }
      ],
      "payable": false,
      "stateMutability": "view",
      "type": "function"
    },
    {
      "constant": true,
      "inputs": [
        {
          "internalType": "uint256",
          "name": "stableTokenAmount",
          "type": "uint256"
        },
        {
          "internalType": "uint256",
          "name": "reserveTokenAmount",
          "type": "uint256"
        }
      ],
      "name": "calcStableTokenRedInterestValues",
      "outputs": [
        {
          "internalType": "uint256",
          "name": "",
          "type": "uint256"
        }
      ],
      "payable": false,
      "stateMutability": "view",
      "type": "function"
    },
    {
      "constant": true,
      "inputs": [
        {
          "internalType": "bytes32",
          "name": "bucket",
          "type": "bytes32"
        },
        {
          "internalType": "uint256",
          "name": "reserveTokenToRedeem",
          "type": "uint256"
        }
      ],
      "name": "calcFinalRedeemInterestValue",
      "outputs": [
        {
          "internalType": "uint256",
          "name": "",
          "type": "uint256"
        }
      ],
      "payable": false,
      "stateMutability": "view",
      "type": "function"
    },
    {
      "constant": true,
      "inputs": [
        {
          "internalType": "uint256",
          "name": "reserveTokenAmount",
          "type": "uint256"
        }
      ],
      "name": "calcCommissionValue",
      "outputs": [
        {
          "internalType": "uint256",
          "name": "",
          "type": "uint256"
        }
      ],
      "payable": false,
      "stateMutability": "view",
      "type": "function"
    },
    {
      "constant": true,
      "inputs": [
        {
          "internalType": "uint256",
          "name": "reserveTokenAmount",
          "type": "uint256"
        },
        {
          "internalType": "uint8",
          "name": "txType",
          "type": "uint8"
        }
      ],
      "name": "calcCommissionValue",
      "outputs": [
        {
          "internalType": "uint256",
          "name": "",
          "type": "uint256"
        }
      ],
      "payable": false,
      "stateMutability": "view",
      "type": "function"
    },
    {
      "constant": true,
      "inputs": [
        {
          "internalType": "address",
          "name": "vendorAccount",
          "type": "address"
        },
        {
          "internalType": "uint256",
          "name": "amount",
          "type": "uint256"
        }
      ],
      "name": "calculateVendorMarkup",
      "outputs": [
        {
          "internalType": "uint256",
          "name": "markup",
          "type": "uint256"
        }
      ],
      "payable": false,
      "stateMutability": "view",
      "type": "function"
    },
    {
      "constant": true,
      "inputs": [
        {
          "internalType": "bytes32",
          "name": "bucket",
          "type": "bytes32"
        },
        {
          "internalType": "uint256",
          "name": "reserveTokenToRedeem",
          "type": "uint256"
        }
      ],
      "name": "calcRedeemInterestValue",
      "outputs": [
        {
          "internalType": "uint256",
          "name": "",
          "type": "uint256"
        }
      ],
      "payable": false,
      "stateMutability": "view",
      "type": "function"
    },
    {
      "constant": false,
      "inputs": [],
      "name": "dailyInratePayment",
      "outputs": [
        {
          "internalType": "uint256",
          "name": "",
          "type": "uint256"
        }
      ],
      "payable": false,
      "stateMutability": "nonpayable",
      "type": "function"
    },
    {
      "constant": true,
      "inputs": [],
      "name": "isDailyEnabled",
      "outputs": [
        {
          "internalType": "bool",
          "name": "",
          "type": "bool"
        }
      ],
      "payable": false,
      "stateMutability": "view",
      "type": "function"
    },
    {
      "constant": true,
      "inputs": [],
      "name": "isRiskProInterestEnabled",
      "outputs": [
        {
          "internalType": "bool",
          "name": "",
          "type": "bool"
        }
      ],
      "payable": false,
      "stateMutability": "view",
      "type": "function"
    },
    {
      "constant": true,
      "inputs": [],
      "name": "calculateRiskProHoldersInterest",
      "outputs": [
        {
          "internalType": "uint256",
          "name": "",
          "type": "uint256"
        },
        {
          "internalType": "uint256",
          "name": "",
          "type": "uint256"
        }
      ],
      "payable": false,
      "stateMutability": "view",
      "type": "function"
    },
    {
      "constant": false,
      "inputs": [],
      "name": "payRiskProHoldersInterestPayment",
      "outputs": [
        {
          "internalType": "uint256",
          "name": "",
          "type": "uint256"
        }
      ],
      "payable": false,
      "stateMutability": "nonpayable",
      "type": "function"
    },
    {
      "constant": false,
      "inputs": [
        {
          "internalType": "uint8",
          "name": "txType",
          "type": "uint8"
        },
        {
          "internalType": "uint256",
          "name": "value",
          "type": "uint256"
        }
      ],
      "name": "setCommissionRateByTxType",
      "outputs": [],
      "payable": false,
      "stateMutability": "nonpayable",
      "type": "function"
    }
  ],
  "bytecode": "0x60e060405265ed858e6eedd86080819052600060a0819052600160c0819052918155815560025534801561003257600080fd5b5061372a806100426000396000f3fe608060405234801561001057600080fd5b506004361061040b5760003560e060020a9004806383f3084f11610224578063c4d66de811610134578063e5057cfd116100bc578063f715e2931161008b578063f715e29314610924578063f78609ab1461092c578063fce941c71461094f578063fd415e4e14610957578063fd954c231461095f5761040b565b8063e5057cfd146108d1578063e5a3c656146108d9578063e99cd68d146108e1578063f5aae159146108fe5761040b565b8063cfddeef911610103578063cfddeef91461087c578063d795d14114610899578063dbff01b6146108b9578063e22155f6146108c1578063e2414a73146108c95761040b565b8063c4d66de814610829578063c4e5a9b41461084f578063cb8a9c9514610857578063cc7ed886146108745761040b565b8063b3a8c114116101b7578063b978cff311610186578063b978cff3146107c5578063b9a690ba146107eb578063bcbe0a35146107f3578063c29785cc14610819578063c375536b146108215761040b565b8063b3a8c11414610746578063b4f9377a14610771578063b550048f14610779578063b6e083301461079f5761040b565b80639a8e5cee116101f35780639a8e5cee146107265780639ba94a4e1461072e5780639e70341814610736578063a048afa21461073e5761040b565b806383f3084f146106bd578063891224ce146106c55780638a1b3838146106e85780638bd24796146107055761040b565b80634b45752b1161031f5780635d67dce0116102b2578063743e9c2711610281578063743e9c27146106815780637caca79c146106895780637cc011d9146106a55780637e9e8c7b146106ad5780637efd892a146106b55761040b565b80635d67dce0146106615780635f3b6217146106695780636847f802146106715780636872c429146106795761040b565b806356554802116102ee578063565548021461062c57806357a13a161461063457806358bab9d01461063c5780635a91066d146106595761040b565b80634b45752b146105c75780634d43e094146105ea5780634f92f34c146105f25780635603631d1461060f5761040b565b806325833afc116103a25780633515356511610371578063351535651461050a5780633869b9cd146105275780633acb38d11461054457806341922c561461054c578063490e8200146105545761040b565b806325833afc146104b95780632b31c39f146104c157806330848a59146104df57806334a7787c146104e75761040b565b80630d73b63c116103de5780630d73b63c146104755780630e20ead11461047d57806311465f8f146104a95780631494c290146104b15761040b565b806306bdce8c146104105780630982658c1461042a57806309efbd6f146104325780630c340a2414610451575b600080fd5b610418610967565b60408051918252519081900360200190f35b61041861096e565b61044f6004803603602081101561044857600080fd5b5035610ab3565b005b610459610be1565b60408051600160a060020a039092168252519081900360200190f35b610418610bf0565b6104186004803603604081101561049357600080fd5b50600160a060020a038135169060200135610bf6565b610418610d4f565b610418610d55565b610418610d5b565b6104c9610edc565b6040805160ff9092168252519081900360200190f35b6104c9610ee1565b610418600480360360408110156104fd57600080fd5b5080359060200135610ee6565b61044f6004803603602081101561052057600080fd5b50356110d5565b61044f6004803603602081101561053d57600080fd5b50356111c6565b6104186112b7565b6104186115df565b61044f600480360361018081101561056b57600080fd5b50600160a060020a038135811691602081013582169160408201359160608101359160808201359160a08101359160c08201359160e08101358216916101008201351690610120810135906101408101359061016001356115e5565b610418600480360360408110156105dd57600080fd5b50803590602001356116c2565b6104c96117ff565b61044f6004803603602081101561060857600080fd5b5035611804565b61044f6004803603602081101561062557600080fd5b50356118f5565b6104c96119e6565b6104186119eb565b61044f6004803603602081101561065257600080fd5b5035611a0f565b610459611b00565b610418611b0f565b610418611b15565b6104c9611b1b565b610418611b20565b6104c9611b26565b610691611b2b565b604080519115158252519081900360200190f35b6104c9611bc2565b610418611bc7565b610418611bcd565b610459611bd3565b610418600480360360408110156106db57600080fd5b5080359060200135611be2565b61044f600480360360208110156106fe57600080fd5b5035611c12565b61070d611d03565b6040805192835260208301919091528051918290030190f35b610418611dce565b6104c9611dd4565b610418611dd9565b6104c9611f44565b6104186004803603606081101561075c57600080fd5b50803590602081013590604001351515611f49565b610418612120565b61044f6004803603602081101561078f57600080fd5b5035600160a060020a0316612126565b61044f600480360360208110156107b557600080fd5b5035600160a060020a0316612234565b610418600480360360408110156107db57600080fd5b508035906020013560ff16612342565b6104186123cb565b61044f6004803603604081101561080957600080fd5b5060ff81351690602001356123d1565b6104596124d3565b6104596124e2565b61044f6004803603602081101561083f57600080fd5b5035600160a060020a03166124f1565b6104c96125b2565b6104186004803603602081101561086d57600080fd5b50356125b7565b61041861260b565b61044f6004803603602081101561089257600080fd5b5035612611565b610418600480360360208110156108af57600080fd5b503560ff16612702565b610418612714565b61041861271a565b610418612726565b61041861272c565b610691612732565b610418600480360360208110156108f757600080fd5b503561274d565b61044f6004803603602081101561091457600080fd5b5035600160a060020a03166129a5565b610418612ab3565b6104186004803603604081101561094257600080fd5b5080359060200135612ab9565b6104c9612b53565b6104c9612b58565b610418612b5d565b6069545b90565b60008060db60009054906101000a9004600160a060020a0316600160a060020a031663b81047736040518163ffffffff1660e060020a02815260040160206040518083038186803b1580156109c257600080fd5b505afa1580156109d6573d6000803e3d6000fd5b505050506040513d60208110156109ec57600080fd5b5051600054600254600154604080517f10c3a94b00000000000000000000000000000000000000000000000000000000815260696004820152602481019490945260448401929092526064830152608482018390525191925073__MoCHelperLib__________________________916310c3a94b9160a480820192602092909190829003018186803b158015610a8157600080fd5b505af4158015610a95573d6000803e3d6000fd5b505050506040513d6020811015610aab57600080fd5b505191505090565b609e546040805160e060020a63d994d6d50281523360048201529051600160a060020a039092169163d994d6d591602480820192602092909190829003018186803b158015610b0157600080fd5b505afa158015610b15573d6000803e3d6000fd5b505050506040513d6020811015610b2b57600080fd5b505160408051808201909152601681526000805160206136d6833981519152602082015290610bdb5760405160e560020a62461bcd0281526004018080602001828103825283818151815260200191508051906020019080838360005b83811015610ba0578181015183820152602001610b88565b50505050905090810190601f168015610bcd5780820380516001836020036101000a031916815260200191505b509250505060405180910390fd5b5060d855565b609e54600160a060020a031681565b60da5490565b6000600160a060020a03831615610d495760db54604080517f5e10ad790000000000000000000000000000000000000000000000000000000081529051600092600160a060020a031691635e10ad79916004808301926020929190829003018186803b158015610c6557600080fd5b505afa158015610c79573d6000803e3d6000fd5b505050506040513d6020811015610c8f57600080fd5b5051606b54604080517f86566bff000000000000000000000000000000000000000000000000000000008152600160a060020a0388811660048301529151939450610d4593610d39928616916386566bff916024808301926020929190829003018186803b158015610d0057600080fd5b505afa158015610d14573d6000803e3d6000fd5b505050506040513d6020811015610d2a57600080fd5b5051869063ffffffff612b6316565b9063ffffffff612bbf16565b9150505b92915050565b60d95490565b60d45481565b603654604080517f3af32abf00000000000000000000000000000000000000000000000000000000815233600482018190529151600093600160a060020a031691633af32abf916024808301926020929190829003018186803b158015610dc157600080fd5b505afa158015610dd5573d6000803e3d6000fd5b505050506040513d6020811015610deb57600080fd5b5051610e41576040805160e560020a62461bcd02815260206004820152601a60248201527f41646472657373206973206e6f742077686974656c6973746564000000000000604482015290519081900360640190fd5b610e49612732565b610e875760405160e560020a62461bcd02815260040180806020018281038252603881526020018061364f6038913960400191505060405180910390fd5b600080610e92611d03565b4360d455604080518381526020810183905281519395509193507f1abf94cc69cdea86e6aa6eabfe4d0c6931b808d45cb1a2b0830a05604cffb38992918290030190a15091505090565b600981565b600881565b600080606973__MoCHelperLib__________________________636d89c85e90918560db60009054906101000a9004600160a060020a0316600160a060020a031663eb892a62896040518263ffffffff1660e060020a0281526004018082815260200191505060206040518083038186803b158015610f6457600080fd5b505afa158015610f78573d6000803e3d6000fd5b505050506040513d6020811015610f8e57600080fd5b50516040805160e060020a63ffffffff8716028152600481019490945260248401929092526044830152516064808301926020929190829003018186803b158015610fd857600080fd5b505af4158015610fec573d6000803e3d6000fd5b505050506040513d602081101561100257600080fd5b505190506000611013858583611f49565b90506000611022826000612c2c565b604080517f6f598155000000000000000000000000000000000000000000000000000000008152606960048201526024810186905260448101839052905191925073__MoCHelperLib__________________________91636f59815591606480820192602092909190829003018186803b15801561109f57600080fd5b505af41580156110b3573d6000803e3d6000fd5b505050506040513d60208110156110c957600080fd5b50519695505050505050565b609e546040805160e060020a63d994d6d50281523360048201529051600160a060020a039092169163d994d6d591602480820192602092909190829003018186803b15801561112357600080fd5b505afa158015611137573d6000803e3d6000fd5b505050506040513d602081101561114d57600080fd5b505160408051808201909152601681526000805160206136d68339815191526020820152906111c05760405160e560020a62461bcd028152602060048201818152835160248401528351909283926044909101919085019080838360008315610ba0578181015183820152602001610b88565b5060d955565b609e546040805160e060020a63d994d6d50281523360048201529051600160a060020a039092169163d994d6d591602480820192602092909190829003018186803b15801561121457600080fd5b505afa158015611228573d6000803e3d6000fd5b505050506040513d602081101561123e57600080fd5b505160408051808201909152601681526000805160206136d68339815191526020820152906112b15760405160e560020a62461bcd028152602060048201818152835160248401528351909283926044909101919085019080838360008315610ba0578181015183820152602001610b88565b5060da55565b603654604080517f3af32abf00000000000000000000000000000000000000000000000000000000815233600482018190529151600093600160a060020a031691633af32abf916024808301926020929190829003018186803b15801561131d57600080fd5b505afa158015611331573d6000803e3d6000fd5b505050506040513d602081101561134757600080fd5b505161139d576040805160e560020a62461bcd02815260206004820152601a60248201527f41646472657373206973206e6f742077686974656c6973746564000000000000604482015290519081900360640190fd5b6113a5611b2b565b6113e35760405160e560020a62461bcd02815260040180806020018281038252602181526020018061362e6021913960400191505060405180910390fd5b60006113ed611dd9565b4360d155905080156114865760dd54604080517f3b6daf0600000000000000000000000000000000000000000000000000000000815260f460020a610433026004820152602481018490529051600160a060020a0390921691633b6daf069160448082019260009290919082900301818387803b15801561146d57600080fd5b505af1158015611481573d6000803e3d6000fd5b505050505b7f5ecdabf873ced8a4bb0ca113ecbf92bf880cc423d5a45ab60b8cb65479bbc1ff8160db60009054906101000a9004600160a060020a0316600160a060020a03166311a2e50b6040518163ffffffff1660e060020a02815260040160206040518083038186803b1580156114f957600080fd5b505afa15801561150d573d6000803e3d6000fd5b505050506040513d602081101561152357600080fd5b505160db54604080517ff98b43c400000000000000000000000000000000000000000000000000000000815260f460020a6104330260048201529051600160a060020a039092169163f98b43c491602480820192602092909190829003018186803b15801561159157600080fd5b505afa1580156115a5573d6000803e3d6000fd5b505050506040513d60208110156115bb57600080fd5b505160408051938452602084019290925282820152519081900360600190a1505090565b60d75481565b600354610100900460ff16806115fe57506115fe612c52565b8061160c575060035460ff16155b61164a5760405160e560020a62461bcd02815260040180806020018281038252602e8152602001806136a8602e913960400191505060405180910390fd5b600354610100900460ff16158015611675576003805460ff1961ff0019909116610100171660011790555b61167d612c58565b6116868d612c8b565b61168e612d4b565b6116a18c8c8c8c8c8a8d8d8c8c8c612e87565b80156116b3576003805461ff00191690555b50505050505050505050505050565b600080606973__MoCHelperLib__________________________636d89c85e90918560db60009054906101000a9004600160a060020a0316600160a060020a031663eb892a62896040518263ffffffff1660e060020a0281526004018082815260200191505060206040518083038186803b15801561174057600080fd5b505afa158015611754573d6000803e3d6000fd5b505050506040513d602081101561176a57600080fd5b50516040805160e060020a63ffffffff8716028152600481019490945260248401929092526044830152516064808301926020929190829003018186803b1580156117b457600080fd5b505af41580156117c8573d6000803e3d6000fd5b505050506040513d60208110156117de57600080fd5b5051905060006117f085856001611f49565b90506000611022826001612c2c565b600181565b609e546040805160e060020a63d994d6d50281523360048201529051600160a060020a039092169163d994d6d591602480820192602092909190829003018186803b15801561185257600080fd5b505afa158015611866573d6000803e3d6000fd5b505050506040513d602081101561187c57600080fd5b505160408051808201909152601681526000805160206136d68339815191526020820152906118ef5760405160e560020a62461bcd028152602060048201818152835160248401528351909283926044909101919085019080838360008315610ba0578181015183820152602001610b88565b50600255565b609e546040805160e060020a63d994d6d50281523360048201529051600160a060020a039092169163d994d6d591602480820192602092909190829003018186803b15801561194357600080fd5b505afa158015611957573d6000803e3d6000fd5b505050506040513d602081101561196d57600080fd5b505160408051808201909152601681526000805160206136d68339815191526020820152906119e05760405160e560020a62461bcd028152602060048201818152835160248401528351909283926044909101919085019080838360008315610ba0578181015183820152602001610b88565b50600055565b600c81565b7f583200000000000000000000000000000000000000000000000000000000000081565b609e546040805160e060020a63d994d6d50281523360048201529051600160a060020a039092169163d994d6d591602480820192602092909190829003018186803b158015611a5d57600080fd5b505afa158015611a71573d6000803e3d6000fd5b505050506040513d6020811015611a8757600080fd5b505160408051808201909152601681526000805160206136d6833981519152602082015290611afa5760405160e560020a62461bcd028152602060048201818152835160248401528351909283926044909101919085019080838360008315610ba0578181015183820152602001610b88565b5060d555565b60d354600160a060020a031681565b60d25481565b60d85490565b600381565b60d25490565b600581565b600060d15460001480611bbd575060db60009054906101000a9004600160a060020a0316600160a060020a031663717c01c06040518163ffffffff1660e060020a02815260040160206040518083038186803b158015611b8a57600080fd5b505afa158015611b9e573d6000803e3d6000fd5b505050506040513d6020811015611bb457600080fd5b505160d1540143115b905090565b600281565b60d55481565b60015490565b603654600160a060020a031681565b600080611bef8484610ee6565b90506000611bfd8583612eee565b9050611c098183612fbe565b95945050505050565b609e546040805160e060020a63d994d6d50281523360048201529051600160a060020a039092169163d994d6d591602480820192602092909190829003018186803b158015611c6057600080fd5b505afa158015611c74573d6000803e3d6000fd5b505050506040513d6020811015611c8a57600080fd5b505160408051808201909152601681526000805160206136d6833981519152602082015290611cfd5760405160e560020a62461bcd028152602060048201818152835160248401528351909283926044909101919085019080838360008315610ba0578181015183820152602001610b88565b5060d255565b60dd54604080517ff98b43c400000000000000000000000000000000000000000000000000000000815260f460020a610433026004820152905160009283928392600160a060020a039092169163f98b43c491602480820192602092909190829003018186803b158015611d7657600080fd5b505afa158015611d8a573d6000803e3d6000fd5b505050506040513d6020811015611da057600080fd5b5051606b5460d254919250600091611dc49190610d3990859063ffffffff612b6316565b9350909150509091565b60da5481565b600481565b60008060db60009054906101000a9004600160a060020a0316600160a060020a03166311a2e50b6040518163ffffffff1660e060020a02815260040160206040518083038186803b158015611e2d57600080fd5b505afa158015611e41573d6000803e3d6000fd5b505050506040513d6020811015611e5757600080fd5b505160dd54604080517f889d9b6400000000000000000000000000000000000000000000000000000000815260f460020a6104330260048201529051929350600092600160a060020a039092169163889d9b6491602480820192602092909190829003018186803b158015611ecb57600080fd5b505afa158015611edf573d6000803e3d6000fd5b505050506040513d6020811015611ef557600080fd5b5051606a54909150821015611f0d57915061096b9050565b606a54600090611f3c90611f2890859063ffffffff612fd416565b606a54610d3990859063ffffffff612b6316565b935050505090565b600681565b60008060db60009054906101000a9004600160a060020a0316600160a060020a031663b81047736040518163ffffffff1660e060020a02815260040160206040518083038186803b158015611f9d57600080fd5b505afa158015611fb1573d6000803e3d6000fd5b505050506040513d6020811015611fc757600080fd5b505160db54909150600090600160a060020a031663f74326f9611feb888888613031565b6040518263ffffffff1660e060020a0281526004018082815260200191505060206040518083038186803b15801561202257600080fd5b505afa158015612036573d6000803e3d6000fd5b505050506040513d602081101561204c57600080fd5b5051600054600254600154604080517f537e0ff5000000000000000000000000000000000000000000000000000000008152606960048201526024810194909452604484019290925260648301526084820185905260a482018390525191925073__MoCHelperLib__________________________9163537e0ff59160c480820192602092909190829003018186803b1580156120e857600080fd5b505af41580156120fc573d6000803e3d6000fd5b505050506040513d602081101561211257600080fd5b5051925050505b9392505050565b60d95481565b609e546040805160e060020a63d994d6d50281523360048201529051600160a060020a039092169163d994d6d591602480820192602092909190829003018186803b15801561217457600080fd5b505afa158015612188573d6000803e3d6000fd5b505050506040513d602081101561219e57600080fd5b505160408051808201909152601681526000805160206136d68339815191526020820152906122115760405160e560020a62461bcd028152602060048201818152835160248401528351909283926044909101919085019080838360008315610ba0578181015183820152602001610b88565b5060d38054600160a060020a031916600160a060020a0392909216919091179055565b609e546040805160e060020a63d994d6d50281523360048201529051600160a060020a039092169163d994d6d591602480820192602092909190829003018186803b15801561228257600080fd5b505afa158015612296573d6000803e3d6000fd5b505050506040513d60208110156122ac57600080fd5b505160408051808201909152601681526000805160206136d683398151915260208201529061231f5760405160e560020a62461bcd028152602060048201818152835160248401528351909283926044909101919085019080838360008315610ba0578181015183820152602001610b88565b50609e8054600160a060020a031916600160a060020a0392909216919091179055565b6000808260ff161161239e576040805160e560020a62461bcd02815260206004820152600e60248201527f496e76616c696420747854797065000000000000000000000000000000000000604482015290519081900360640190fd5b606b5460ff8316600090815260de60205260408120549091610d4591610d3990879063ffffffff612b6316565b60025490565b609e546040805160e060020a63d994d6d50281523360048201529051600160a060020a039092169163d994d6d591602480820192602092909190829003018186803b15801561241f57600080fd5b505afa158015612433573d6000803e3d6000fd5b505050506040513d602081101561244957600080fd5b505160408051808201909152601681526000805160206136d68339815191526020820152906124bc5760405160e560020a62461bcd028152602060048201818152835160248401528351909283926044909101919085019080838360008315610ba0578181015183820152602001610b88565b5060ff909116600090815260de6020526040902055565b60d654600160a060020a031681565b60d354600160a060020a031690565b600354610100900460ff168061250a575061250a612c52565b80612518575060035460ff16155b6125565760405160e560020a62461bcd02815260040180806020018281038252602e8152602001806136a8602e913960400191505060405180910390fd5b600354610100900460ff16158015612581576003805460ff1961ff0019909116610100171660011790555b609e8054600160a060020a031916600160a060020a03841617905580156125ae576003805461ff00191690555b5050565b600781565b606b546001600090815260de6020527f0f51f75b1bfb09f92af99bfb43392a61116579f319c49cb341553e171cb61f9654909182916126029190610d3990869063ffffffff612b6316565b9150505b919050565b60d55490565b609e546040805160e060020a63d994d6d50281523360048201529051600160a060020a039092169163d994d6d591602480820192602092909190829003018186803b15801561265f57600080fd5b505afa158015612673573d6000803e3d6000fd5b505050506040513d602081101561268957600080fd5b505160408051808201909152601681526000805160206136d68339815191526020820152906126fc5760405160e560020a62461bcd028152602060048201818152835160248401528351909283926044909101919085019080838360008315610ba0578181015183820152602001610b88565b50600155565b60de6020526000908152604090205481565b60d15481565b60f460020a6104330281565b606a5490565b60005490565b600060d45460001480611bbd57505060d55460d45401431190565b60008060db60009054906101000a9004600160a060020a0316600160a060020a031663b81047736040518163ffffffff1660e060020a02815260040160206040518083038186803b1580156127a157600080fd5b505afa1580156127b5573d6000803e3d6000fd5b505050506040513d60208110156127cb57600080fd5b505160db5460dd546040805160e160020a63709c638502815260f460020a6104330260048201529051939450600093600160a060020a039384169363f74326f993612874938a93919092169163e138c70a916024808301926020929190829003018186803b15801561283c57600080fd5b505afa158015612850573d6000803e3d6000fd5b505050506040513d602081101561286657600080fd5b50519063ffffffff6133f816565b6040518263ffffffff1660e060020a0281526004018082815260200191505060206040518083038186803b1580156128ab57600080fd5b505afa1580156128bf573d6000803e3d6000fd5b505050506040513d60208110156128d557600080fd5b505160da5460d95460d854604080517f537e0ff5000000000000000000000000000000000000000000000000000000008152606960048201526024810194909452604484019290925260648301526084820185905260a482018390525191925073__MoCHelperLib__________________________9163537e0ff59160c480820192602092909190829003018186803b15801561297157600080fd5b505af4158015612985573d6000803e3d6000fd5b505050506040513d602081101561299b57600080fd5b5051949350505050565b609e546040805160e060020a63d994d6d50281523360048201529051600160a060020a039092169163d994d6d591602480820192602092909190829003018186803b1580156129f357600080fd5b505afa158015612a07573d6000803e3d6000fd5b505050506040513d6020811015612a1d57600080fd5b505160408051808201909152601681526000805160206136d6833981519152602082015290612a905760405160e560020a62461bcd028152602060048201818152835160248401528351909283926044909101919085019080838360008315610ba0578181015183820152602001610b88565b5060d68054600160a060020a031916600160a060020a0392909216919091179055565b606b5490565b600080612ac58461274d565b90506000612ad4826001612c2c565b604080517f6f598155000000000000000000000000000000000000000000000000000000008152606960048201526024810187905260448101839052905191925060009173__MoCHelperLib__________________________91636f598155916064808301926020929190829003018186803b15801561109f57600080fd5b600b81565b600a81565b60d85481565b600082612b7257506000610d49565b82820282848281612b7f57fe5b04146121195760405160e560020a62461bcd0281526004018080602001828103825260218152602001806136876021913960400191505060405180910390fd5b6000808211612c18576040805160e560020a62461bcd02815260206004820152601a60248201527f536166654d6174683a206469766973696f6e206279207a65726f000000000000604482015290519081900360640190fd5b6000828481612c2357fe5b04949350505050565b600080612c3883613458565b606a54909150610d4590610d39868463ffffffff612b6316565b303b1590565b60408051606081018252670de0b6b3a7640000808252600160208301819052919092018290526069829055606a55606b55565b600354610100900460ff1680612ca45750612ca4612c52565b80612cb2575060035460ff16155b612cf05760405160e560020a62461bcd02815260040180806020018281038252602e8152602001806136a8602e913960400191505060405180910390fd5b600354610100900460ff16158015612d1b576003805460ff1961ff0019909116610100171660011790555b60368054600160a060020a031916600160a060020a03841617905580156125ae576003805461ff00191690555050565b603660009054906101000a9004600160a060020a0316600160a060020a031663360b41b16040518163ffffffff1660e060020a02815260040160206040518083038186803b158015612d9c57600080fd5b505afa158015612db0573d6000803e3d6000fd5b505050506040513d6020811015612dc657600080fd5b505160dd8054600160a060020a031916600160a060020a03928316179055603654604080517f12529f1f000000000000000000000000000000000000000000000000000000008152905191909216916312529f1f916004808301926020929190829003018186803b158015612e3a57600080fd5b505afa158015612e4e573d6000803e3d6000fd5b505050506040513d6020811015612e6457600080fd5b505160db8054600160a060020a031916600160a060020a03909216919091179055565b609e8054600160a060020a0319908116600160a060020a039d8e161790915560019a909a5560029890985560009690965560d29490945560d38054881691891691909117905560d55560d6805490951695169490941790925560d89290925560d95560da55565b600080612efa84613510565b60dd54604080517f889d9b6400000000000000000000000000000000000000000000000000000000815260f460020a6104330260048201529051929350600092600160a060020a039092169163889d9b6491602480820192602092909190829003018186803b158015612f6c57600080fd5b505afa158015612f80573d6000803e3d6000fd5b505050506040513d6020811015612f9657600080fd5b5051905081612faa57600092505050610d49565b611c0982610d39868463ffffffff612b6316565b6000818310612fcd5781612119565b5090919050565b600082820183811015612119576040805160e560020a62461bcd02815260206004820152601b60248201527f536166654d6174683a206164646974696f6e206f766572666c6f770000000000604482015290519081900360640190fd5b600080606973__MoCHelperLib__________________________636d89c85e90918660db60009054906101000a9004600160a060020a0316600160a060020a031663eb892a628a6040518263ffffffff1660e060020a0281526004018082815260200191505060206040518083038186803b1580156130af57600080fd5b505afa1580156130c3573d6000803e3d6000fd5b505050506040513d60208110156130d957600080fd5b50516040805160e060020a63ffffffff8716028152600481019490945260248401929092526044830152516064808301926020929190829003018186803b15801561312357600080fd5b505af4158015613137573d6000803e3d6000fd5b505050506040513d602081101561314d57600080fd5b505160db54604080517f423fae7c000000000000000000000000000000000000000000000000000000008152600481018490529051929350600092600160a060020a039092169163423fae7c91602480820192602092909190829003018186803b1580156131ba57600080fd5b505afa1580156131ce573d6000803e3d6000fd5b505050506040513d60208110156131e457600080fd5b5051905083156132e05760dd546040805160e160020a63709c638502815260f460020a61043302600482015290518392600160a060020a03169163e138c70a916024808301926020929190829003018186803b15801561324357600080fd5b505afa158015613257573d6000803e3d6000fd5b505050506040513d602081101561326d57600080fd5b50511161327b5760006132d7565b60dd546040805160e160020a63709c638502815260f460020a61043302600482015290516132d7928492600160a060020a039091169163e138c70a91602480820192602092909190829003018186803b15801561283c57600080fd5b92505050612119565b60dd546040805160e160020a63709c63850281526004810189905290516132d79261336a928592600160a060020a039092169163e138c70a91602480820192602092909190829003018186803b15801561333957600080fd5b505afa15801561334d573d6000803e3d6000fd5b505050506040513d602081101561336357600080fd5b5051612fbe565b60dd546040805160e160020a63709c638502815260f460020a6104330260048201529051600160a060020a039092169163e138c70a91602480820192602092909190829003018186803b1580156133c057600080fd5b505afa1580156133d4573d6000803e3d6000fd5b505050506040513d60208110156133ea57600080fd5b50519063ffffffff612fd416565b600082821115613452576040805160e560020a62461bcd02815260206004820152601e60248201527f536166654d6174683a207375627472616374696f6e206f766572666c6f770000604482015290519081900360640190fd5b50900390565b60008060db60009054906101000a9004600160a060020a0316600160a060020a03166311a2e50b6040518163ffffffff1660e060020a02815260040160206040518083038186803b1580156134ac57600080fd5b505afa1580156134c0573d6000803e3d6000fd5b505050506040513d60208110156134d657600080fd5b5051606a549091508110156134ef576000915050612606565b82156134fc579050612606565b606a5461260290829063ffffffff6133f816565b60db5460dd54604080517f9f3d87b50000000000000000000000000000000000000000000000000000000081526004810185905290516000938493600160a060020a039182169363281acfb8939190921691639f3d87b5916024808301926020929190829003018186803b15801561358757600080fd5b505afa15801561359b573d6000803e3d6000fd5b505050506040513d60208110156135b157600080fd5b50516040805160e060020a63ffffffff8516028152600481019290925260248201879052516044808301926020929190829003018186803b1580156135f557600080fd5b505afa158015613609573d6000803e3d6000fd5b505050506040513d602081101561361f57600080fd5b505190506126028382610ee656fe496e746572657374207261746520616c726561647920706179656420746f646179496e7465726573742072617465206f66205269736b50726f20686f6c6465727320616c72656164792070617965642074686973207765656b536166654d6174683a206d756c7469706c69636174696f6e206f766572666c6f77436f6e747261637420696e7374616e63652068617320616c7265616479206265656e20696e697469616c697a65646e6f745f617574686f72697a65645f6368616e67657200000000000000000000a265627a7a72315820f525cd0b1211b16071048b64982e0b4589fb14b76d7fa576d999ef264e6c346164736f6c63430005110032",
  "source": "pragma solidity ^0.5.8;\n\nimport \"moc-governance/contracts/Governance/Governed.sol\";\nimport \"moc-governance/contracts/Governance/IGovernor.sol\";\nimport \"./MoCLibConnection.sol\";\nimport \"./interfaces/IMoCState.sol\";\nimport \"./MoCRiskProxManager.sol\";\nimport \"./base/MoCBase.sol\";\nimport \"../contracts/interfaces/IMoCVendors.sol\";\nimport \"./interfaces/IMoCInrate.sol\";\n\ncontract MoCInrateEvents {\n  event InrateDailyPay(uint256 amount, uint256 daysToSettlement, uint256 nReserveBucketC0);\n  event RiskProHoldersInterestPay(uint256 amount, uint256 nReserveBucketC0BeforePay);\n}\n\ncontract MoCInrateStructs {\n  struct InrateParams {\n    uint256 tMax;\n    uint256 tMin;\n    uint256 power;\n  }\n\n  InrateParams riskProxParams = InrateParams({\n    tMax: 261157876067800,\n    tMin: 0,\n    power: 1\n  });\n}\n\n\ncontract MoCInrate is MoCInrateEvents, MoCInrateStructs, MoCBase, MoCLibConnection, Governed, IMoCInrate {\n  using SafeMath for uint256;\n\n  // Last block when a payment was executed\n  uint256 public lastDailyPayBlock;\n  // Absolute  RiskPro holders rate for the given riskProInterestBlockSpan time span. [using mocPrecision]\n  uint256 public riskProRate;\n  // Target address to transfer RiskPro holders interests\n  address payable public riskProInterestAddress;\n  // Last block when an RiskPro holders instereste was calculated\n  uint256 public lastRiskProInterestBlock;\n  // RiskPro interest Blockspan to configure blocks between payments\n  uint256 public riskProInterestBlockSpan;\n\n  // Target addres to transfer commissions of mint/redeem\n  address payable public commissionsAddress;\n  /** UPDATE V0110: 24/09/2020 - Upgrade to support multiple commission rates **/\n  /** DEPRECATED **/\n  // commissionRate [using mocPrecision]\n  // solium-disable-next-line mixedcase\n  uint256 public DEPRECATED_commissionRate;\n\n  /************************************/\n  /***** UPGRADE v017       ***********/\n  /************************************/\n\n  /** START UPDATE V017: 01/11/2019 **/\n\n  // Upgrade to support redeem stable inrate parameter\n  uint256 public stableTmin;\n  uint256 public stablePower;\n  uint256 public stableTmax;\n\n  /**CONTRACTS**/\n  IMoCState internal mocState;\n  /** DEPRECATED **/\n  // solium-disable-next-line mixedcase\n  address internal DEPRECATED_mocConverter;\n  MoCRiskProxManager internal riskProxManager;\n\n  function setStableTmin(uint256 _stableTmin) public onlyAuthorizedChanger() {\n    stableTmin = _stableTmin;\n  }\n\n  function setStableTmax(uint256 _stableTmax) public onlyAuthorizedChanger() {\n    stableTmax = _stableTmax;\n  }\n\n  function setStablePower(uint256 _stablePower) public onlyAuthorizedChanger() {\n    stablePower = _stablePower;\n  }\n\n  function getStableTmin() public view returns (uint256) {\n    return stableTmin;\n  }\n\n  function getStableTmax() public view returns (uint256) {\n    return stableTmax;\n  }\n\n  function getStablePower() public view returns (uint256) {\n    return stablePower;\n  }\n\n  /**\n    @dev Calculates an average interest rate between after and before free stableToken Redemption\n    @param stableTokenRedeem StableTokens to redeem [using mocPrecision]\n    @return Interest rate value [using mocPrecision]\n   */\n  function stableTokenInrateAvg(uint256 stableTokenRedeem) public view returns (uint256) {\n    uint256 preAbRatio = mocState.currentAbundanceRatio();\n    uint256 posAbRatio = mocState.abundanceRatio(riskProxManager.getBucketNStableToken(BUCKET_C0).sub(stableTokenRedeem));\n\n    return mocLibConfig.inrateAvg(stableTmax, stablePower, stableTmin, preAbRatio, posAbRatio);\n  }\n\n  /** END UPDATE V017: 01/11/2019 **/\n\n  /**\n    @dev Initializes the contract\n    @param connectorAddress MoCConnector contract address\n    @param _governor Governor contract address\n    @param riskProxTmin  Minimum interest rate [using mocPrecision]\n    @param riskProxPower Power is a parameter for interest rate calculation [using noPrecision]\n    @param riskProxTmax Maximun interest rate [using mocPrecision]\n    @param _riskProRate BitPro holder interest rate [using mocPrecision]\n    @param blockSpanRiskPro BitPro blockspan to configure payments periods[using mocPrecision]\n    @param riskProInterestTargetAddress Target address to transfer the weekly BitPro holders interest\n    @param commissionsAddressTarget Target addres to transfer commissions of mint/redeem\n    @param _stableTmin Upgrade to support red stable inrate parameter\n    @param _stablePower Upgrade to support red stable inrate parameter\n    @param _stableTmax Upgrade to support red stable inrate parameter\n  */\n  function initialize(\n    address connectorAddress,\n    address _governor,\n    uint256 riskProxTmin,\n    uint256 riskProxPower,\n    uint256 riskProxTmax,\n    uint256 _riskProRate,\n    uint256 blockSpanRiskPro,\n    address payable riskProInterestTargetAddress,\n    address payable commissionsAddressTarget,\n    //uint256 commissionRateParam,\n    uint256 _stableTmin,\n    uint256 _stablePower,\n    uint256 _stableTmax\n  ) public initializer {\n    initializePrecisions();\n    initializeBase(connectorAddress);\n    initializeContracts();\n    initializeValues(\n      _governor,\n      riskProxTmin,\n      riskProxPower,\n      riskProxTmax,\n      _riskProRate,\n      commissionsAddressTarget,\n      //commissionRateParam,\n      blockSpanRiskPro,\n      riskProInterestTargetAddress,\n      _stableTmin,\n      _stablePower,\n      _stableTmax\n    );\n  }\n\n/**\n   * @dev gets tMin param of RiskProx tokens\n   * @return returns tMin of RiskProx\n   */\n  function getRiskProxTmin() public view returns (uint256) {\n    return riskProxParams.tMin;\n  }\n\n  /**\n   * @dev gets tMax param of RiskProx tokens\n   * @return returns tMax of RiskProx\n   */\n  function getRiskProxTmax() public view returns (uint256) {\n    return riskProxParams.tMax;\n  }\n\n  /**\n   * @dev gets power param of RiskProx tokens\n   * @return returns power of RiskProx\n   */\n  function getRiskProxPower() public view returns (uint256) {\n    return riskProxParams.power;\n  }\n\n  /**\n   * @dev Gets the blockspan of RiskPro that represents the frecuency of RiskPro holders intereset payment\n   * @return returns power of riskProInterestBlockSpan\n   */\n  function getRiskProInterestBlockSpan() public view returns (uint256) {\n    return riskProInterestBlockSpan;\n  }\n\n  /**\n   * @dev sets tMin param of RiskProx tokens\n   * @param _btxcTmin tMin of RiskProx\n   */\n  function setRiskProxTmin(uint256 _btxcTmin) public onlyAuthorizedChanger() {\n    riskProxParams.tMin = _btxcTmin;\n  }\n\n  /**\n   * @dev sets tMax param of RiskProx tokens\n   * @param _btxcTax tMax of RiskProx\n   */\n  function setRiskProxTmax(uint256 _btxcTax) public onlyAuthorizedChanger() {\n    riskProxParams.tMax = _btxcTax;\n  }\n\n  /**\n   * @dev sets power param of RiskProx tokens\n   * @param _btxcPower power of RiskProx\n   */\n  function setRiskProxPower(uint256 _btxcPower) public onlyAuthorizedChanger() {\n    riskProxParams.power = _btxcPower;\n  }\n\n  /**\n   @dev Gets the rate for RiskPro Holders\n   @return RiskPro Rate\n  */\n  function getRiskProRate() public view returns (uint256) {\n    return riskProRate;\n  }\n\n\n   /**\n    @dev Sets RiskPro Holders rate\n    @param newRiskProRate New RiskPro rate\n   */\n  function setRiskProRate(uint256 newRiskProRate) public onlyAuthorizedChanger() {\n    riskProRate = newRiskProRate;\n  }\n\n   /**\n    @dev Sets the blockspan RiskPro Intereset rate payment is enable to be executed\n    @param newRiskProBlockSpan New RiskPro Block span\n   */\n  function setRiskProInterestBlockSpan(uint256 newRiskProBlockSpan) public onlyAuthorizedChanger() {\n    riskProInterestBlockSpan = newRiskProBlockSpan;\n  }\n\n  /**\n   @dev Gets the target address to transfer RiskPro Holders rate\n   @return Target address to transfer RiskPro Holders interest\n  */\n  function getRiskProInterestAddress() public view returns (address payable) {\n    return riskProInterestAddress;\n  }\n\n  /**\n   @dev Sets the target address to transfer RiskPro Holders rate\n   @param newRiskProInterestAddress New RiskPro rate\n  */\n  function setRiskProInterestAddress(address payable newRiskProInterestAddress) public onlyAuthorizedChanger() {\n    riskProInterestAddress = newRiskProInterestAddress;\n  }\n\n  /**\n   @dev Sets the target address to transfer commissions of Mint/Redeem transactions\n   @param newCommissionsAddress New commisions address\n  */\n  function setCommissionsAddress(address payable newCommissionsAddress) public onlyAuthorizedChanger() {\n    commissionsAddress = newCommissionsAddress;\n  }\n\n  /**\n    @dev Calculates interest rate for RiskProx Minting, redeem and Free StableToken Redeem\n    @return Interest rate value [using RatePrecsion]\n   */\n  function spotInrate() public view returns (uint256) {\n    uint256 abRatio = mocState.currentAbundanceRatio();\n\n    return mocLibConfig.spotInrate(riskProxParams.tMax, riskProxParams.power, riskProxParams.tMin, abRatio);\n  }\n\n  /**\n    @dev Calculates an average interest rate between after and before mint/redeem\n    @param bucket Name of the bucket involved in the operation\n    @param resTokensAmount Value of the operation from which calculates the inrate [using reservePrecision]\n    @param onMinting Value that represents if the calculation is based on mint or on redeem\n    @return Interest rate value [using mocPrecision]\n   */\n  function riskProxInrateAvg(bytes32 bucket, uint256 resTokensAmount, bool onMinting) public view returns (uint256) {\n    uint256 preAbRatio = mocState.currentAbundanceRatio();\n    uint256 posAbRatio = mocState.abundanceRatio(simulateStableTokenMovement(bucket, resTokensAmount, onMinting));\n\n    return mocLibConfig.inrateAvg(riskProxParams.tMax, riskProxParams.power, riskProxParams.tMin, preAbRatio, posAbRatio);\n  }\n\n  /**\n    @dev returns the amount of ReserveTokens to pay in concept of interest to bucket C0\n   */\n  function dailyInrate() public view returns(uint256) {\n    uint256 daysToSettl = mocState.daysToSettlement();\n    uint256 totalInrateInBag = riskProxManager.getInrateBag(BUCKET_C0);\n\n    if (daysToSettl < mocLibConfig.dayPrecision) {\n      return totalInrateInBag;\n    }\n\n    // ([RES] * [DAY] / ([DAY] + [DAY])) = [RES]\n    // inrateBag / (daysToSettlement + 1)\n    uint256 toPay = totalInrateInBag\n      .mul(mocLibConfig.dayPrecision)\n      .div(daysToSettl.add(mocLibConfig.dayPrecision));\n\n    return toPay;\n  }\n\n  /**\n    @dev Extract the inrate from the passed ReserveTokens value for RiskProx minting operation\n    @param bucket Bucket to use to calculate inters\n    @param reserveTokenAmount Total value from which extract the interest rate [using reservePrecision]\n    @return ReserveTokens to pay in concept of interests [using reservePrecision]\n  */\n  function calcMintInterestValues(bytes32 bucket, uint256 reserveTokenAmount) public view returns (uint256) {\n    // Calculate Reserves to move in the operation\n    uint256 reservesToMove = mocLibConfig.bucketTransferAmount(reserveTokenAmount, mocState.leverage(bucket));\n    // Calculate interest rate\n    uint256 inrateValue = riskProxInrateAvg(bucket, reserveTokenAmount, true); // Minting\n    uint256 finalInrate = inrateToSettlement(inrateValue, true); // Minting\n\n    // Final interest\n    return mocLibConfig.getInterestCost(reservesToMove, finalInrate);\n  }\n\n  /**\n    @dev Extract the inrate from the passed ReserveTokens value for the StableToken Redeem operation\n    @param stableTokenAmount StableToken amount of the redemption [using mocPrecision]\n    @param reserveTokenAmount Total value from which extract the interest rate [using reservePrecision]\n    @return finalInterest\n  */\n  function calcStableTokenRedInterestValues(uint256 stableTokenAmount, uint256 reserveTokenAmount) public view returns (uint256) {\n    uint256 rate = stableTokenInrateAvg(stableTokenAmount);\n    uint256 finalInrate = inrateToSettlement(rate, true);\n    uint256 interests = mocLibConfig.getInterestCost(reserveTokenAmount, finalInrate);\n\n    return interests;\n  }\n\n  /**\n    @dev This function calculates the interest to return to the user\n    in a RiskProx redemption. It uses a mechanism to counteract the effect\n    of free stableTokens redemption. It will be replaced with FreeStableToken redemption\n    interests in the future\n    @param bucket Bucket to use to calculate interest\n    @param reserveTokenToRedeem Total value from which calculate interest [using reservePrecision]\n    @return Reserves to recover in concept of interests [using reservePrecision]\n  */\n  function calcFinalRedeemInterestValue(bytes32 bucket, uint256 reserveTokenToRedeem) public view returns (uint256) {\n    // Get interests to return for redemption\n    uint256 redeemInterest = calcRedeemInterestValue(bucket, reserveTokenToRedeem); // Redeem\n    uint256 proportionalInterest = calcProportionalInterestValue(bucket, redeemInterest);\n\n    return Math.min(proportionalInterest, redeemInterest);\n  }\n\n  /************************************/\n  /***** UPGRADE v0110      ***********/\n  /************************************/\n\n  /** START UPDATE V0110: 24/09/2020  **/\n  /** Upgrade to support multiple commission rates **/\n  /** Public functions **/\n\n  /**\n    @dev DEPRECATED calculates the Commission rate from the passed RBTC amount for mint/redeem operations\n    @param reserveTokenAmount Total value from which apply the Commission rate [using reservePrecision]\n    @return finalCommissionAmount [using reservePrecision]\n  */\n  function calcCommissionValue(uint256 reserveTokenAmount)\n  external view returns(uint256) {\n    // solium-disable-next-line mixedcase\n    uint256 finalCommissionAmount = reserveTokenAmount.mul(commissionRatesByTxType[MINT_RISKPRO_FEES_RESERVE]).div(mocLibConfig.mocPrecision);\n    return finalCommissionAmount;\n  }\n\n  /**\n    @dev calculates the Commission rate from the passed ReserveTokens amount for mint/redeem operations\n    @param reserveTokenAmount Total value from which apply the Commission rate [using reservePrecision]\n    @param txType Transaction type according to constant values defined in this contract\n    @return finalCommissionAmount [using reservePrecision]\n  */\n  function calcCommissionValue(uint256 reserveTokenAmount, uint8 txType)\n  public view returns(uint256) {\n    // Validate txType\n    require (txType > 0, \"Invalid txType\");\n\n    uint256 finalCommissionAmount = reserveTokenAmount.mul(commissionRatesByTxType[txType]).div(mocLibConfig.mocPrecision);\n    return finalCommissionAmount;\n  }\n\n  /**\n    @dev calculates the vendor markup rate from the passed vendor account and amount\n    @param vendorAccount Vendor address\n    @param amount Total value from which apply the vendor markup rate [using reservePrecision]\n    @return finalCommissionAmount [using reservePrecision]\n  */\n  function calculateVendorMarkup(address vendorAccount, uint256 amount) public view\n    returns (uint256 markup) {\n    // Calculate according to vendor markup\n    if (vendorAccount != address(0)) {\n      IMoCVendors mocVendors = IMoCVendors(mocState.getMoCVendors());\n\n      markup = amount.mul(mocVendors.getMarkup(vendorAccount)).div(mocLibConfig.mocPrecision);\n    }\n\n    return markup;\n  }\n\n  /** END UPDATE V0110: 24/09/2020 **/\n\n  /**\n    @dev Calculates ReserveTokens value to return to the user in concept of interests\n    @param bucket Bucket to use to calculate interest\n    @param reserveTokenToRedeem Total value from which calculate interest [using reservePrecision]\n    @return Reserves to recover in concept of interests [using reservePrecision]\n  */\n  function calcRedeemInterestValue(bytes32 bucket, uint256 reserveTokenToRedeem) public view returns (uint256) {\n    // Calculate Reserves to move in the operation\n    uint256 reservesToMove = mocLibConfig.bucketTransferAmount(reserveTokenToRedeem, mocState.leverage(bucket));\n    // Get interests to return for redemption\n    uint256 inrate = riskProxInrateAvg(bucket, reserveTokenToRedeem, false); // Redeem\n    uint256 finalInrate = inrateToSettlement(inrate, false); // Redeem\n\n    // Calculate interest for the redemption\n    return mocLibConfig.getInterestCost(reservesToMove, finalInrate);\n  }\n\n  /**\n    @dev Moves the daily amount of interest rate to C0 bucket\n  */\n  function dailyInratePayment() public\n  onlyWhitelisted(msg.sender) onlyOnceADay() returns(uint256) {\n    uint256 toPay = dailyInrate();\n    lastDailyPayBlock = block.number;\n\n    if (toPay != 0) {\n      riskProxManager.deliverInrate(BUCKET_C0, toPay);\n    }\n\n    emit InrateDailyPay(toPay, mocState.daysToSettlement(), mocState.getBucketNReserve(BUCKET_C0));\n  }\n\n  function isDailyEnabled() public view returns (bool) {\n    return lastDailyPayBlock == 0 || block.number > lastDailyPayBlock + mocState.dayBlockSpan();\n  }\n\n  function isRiskProInterestEnabled() public view returns (bool) {\n    return lastRiskProInterestBlock == 0 || block.number > (lastRiskProInterestBlock + riskProInterestBlockSpan);\n  }\n\n  /**\n   * @dev Calculates RiskPro Holders interest rates\n   * @return toPay interest in ReserveTokens [using reservePrecsion]\n   * @return bucketBtnc0 RTBC on bucket0 used to calculate de interest [using reservePrecsion]\n   */\n  function calculateRiskProHoldersInterest() public view returns (uint256, uint256) {\n    uint256 bucketBtnc0 = riskProxManager.getBucketNReserve(BUCKET_C0);\n    uint256 toPay = (bucketBtnc0.mul(riskProRate).div(mocLibConfig.mocPrecision));\n    return (toPay, bucketBtnc0);\n  }\n\n  /**\n   * @dev Pays the RiskPro Holders interest rates\n   * @return interest payed in ReserveTokens [using reservePrecsion]\n   */\n  function payRiskProHoldersInterestPayment() public\n  onlyWhitelisted(msg.sender)\n  onlyWhenRiskProInterestsIsEnabled() returns(uint256) {\n    (uint256 riskProInterest, uint256 bucketBtnc0) = calculateRiskProHoldersInterest();\n    lastRiskProInterestBlock = block.number;\n    emit RiskProHoldersInterestPay(riskProInterest, bucketBtnc0);\n    return riskProInterest;\n  }\n\n  /************************************/\n  /***** UPGRADE v0110      ***********/\n  /************************************/\n\n  /** START UPDATE V0110: 24/09/2020  **/\n  /** Upgrade to support multiple commission rates **/\n  /** Public functions **/\n  /**\n    @dev Sets the commission rate to a particular transaction type\n    @param txType Transaction type according to constant values defined in this contract\n    @param value Commission rate\n  */\n  function setCommissionRateByTxType(uint8 txType, uint256 value) public onlyAuthorizedChanger() {\n    commissionRatesByTxType[txType] = value;\n  }\n\n  /** END UPDATE V0110: 24/09/2020 **/\n\n  /**\n    @dev Calculates the interest rate to pay until the settlement day\n    @param inrate Spot interest rate\n    @param countAllDays Value that represents if the calculation will use all days or one day less\n    @return Interest rate value [using mocPrecision]\n   */\n  function inrateToSettlement(uint256 inrate, bool countAllDays) internal view returns (uint256) {\n    uint256 dayCount = inrateDayCount(countAllDays);\n\n    return inrate.mul(dayCount).div(mocLibConfig.dayPrecision);\n  }\n\n  /**\n    @dev This function calculates the interest to return to a user redeeming\n    RiskProx as a proportion of the amount in the interestBag.\n    @param bucket Bucket to use to calculate interest\n    @param redeemInterest Total value from which calculate interest [using reservePrecision]\n    @return InterestsInBag * (RedeemInterests / FullRedeemInterest) [using reservePrecision]\n  */\n  function calcProportionalInterestValue(bytes32 bucket, uint256 redeemInterest) internal view returns (uint256) {\n    uint256 fullRedeemInterest = calcFullRedeemInterestValue(bucket);\n    uint256 interestsInBag = riskProxManager.getInrateBag(BUCKET_C0);\n\n    if (fullRedeemInterest == 0) {\n      return 0;\n    }\n\n    // Proportional interests amount\n    return redeemInterest.mul(interestsInBag).div(fullRedeemInterest); // [RES] * [RES] / [RES]\n  }\n\n  /**\n    @dev This function calculates the interest to return if a user redeem all RiskProx in existance\n    @param bucket Bucket to use to calculate interest\n    @return Interests [using reservePrecision]\n  */\n  function calcFullRedeemInterestValue(bytes32 bucket) internal view returns (uint256) {\n    // Value in ReserveTokens of all RiskProxs in the bucket\n    uint256 fullRiskProxReserveTokenValue = mocState.riskProxToResToken(riskProxManager.getBucketNRiskPro(bucket), bucket);\n    // Interests to return if a redemption of all RiskProx is done\n    return calcRedeemInterestValue(bucket, fullRiskProxReserveTokenValue); // Redeem\n  }\n\n  /**\n    @dev Calculates the final amount of Bucket 0 StableTokens on RiskProx mint/redeem\n    @param bucket Name of the bucket involved in the operation\n    @param resTokensAmount Value of the operation from which calculates the inrate [using reservePrecision]\n    @return Final bucket 0 StableToken amount\n   */\n  function simulateStableTokenMovement(bytes32 bucket, uint256 resTokensAmount, bool onMinting) internal view returns (uint256) {\n    // Calculates stableTokens to move\n    uint256 reserveTokenToMove = mocLibConfig.bucketTransferAmount(resTokensAmount, mocState.leverage(bucket));\n    uint256 stableTokensToMove = mocState.resTokenToStableToken(reserveTokenToMove);\n\n    if (onMinting) {\n      /* Should not happen when minting riskPro because it's\n      not possible to mint more than max riskProx but is\n      useful when trying to calculate inrate before minting */\n      return riskProxManager.getBucketNStableToken(BUCKET_C0) > stableTokensToMove\n        ? riskProxManager.getBucketNStableToken(BUCKET_C0).sub(stableTokensToMove)\n        : 0;\n    } else {\n      return riskProxManager.getBucketNStableToken(BUCKET_C0).add(Math.min(stableTokensToMove, riskProxManager.getBucketNStableToken(bucket)));\n    }\n  }\n\n  /**\n    @dev Returns the days to use for interests calculation\n    @param countAllDays Value that represents if the calculation is based on mint or on redeem\n    @return days [using dayPrecision]\n   */\n  function inrateDayCount(bool countAllDays) internal view returns(uint256) {\n    uint256 daysToSettl = mocState.daysToSettlement();\n\n    if (daysToSettl < mocLibConfig.dayPrecision) {\n      return 0;\n    }\n\n    if (countAllDays) {\n      return daysToSettl;\n    }\n\n    return daysToSettl.sub(mocLibConfig.dayPrecision);\n  }\n\n  modifier onlyOnceADay() {\n    require(isDailyEnabled(), \"Interest rate already payed today\");\n    _;\n  }\n\n  modifier onlyWhenRiskProInterestsIsEnabled() {\n    require(isRiskProInterestEnabled(), \"Interest rate of RiskPro holders already payed this week\");\n    _;\n  }\n\n  /**\n   * @dev Initialize the contracts with which it interacts\n   */\n  function initializeContracts() internal {\n    riskProxManager = MoCRiskProxManager(connector.riskProxManager());\n    mocState = IMoCState(connector.mocState());\n  }\n\n  /**\n   * @dev Initialize the parameters of the contract\n   * @param _governor the address of the IGovernor contract\n   * @param riskProxMin Minimum interest rate [using mocPrecision]\n   * @param riskProxPower Power is a parameter for interest rate calculation [using noPrecision]\n   * @param riskProxMax Maximun interest rate [using mocPrecision]\n   * @param _riskProRate RiskPro holder interest rate [using mocPrecision]\n   * @param blockSpanRiskPro RiskPro blockspan to configure payments periods[using mocPrecision]\n   * @param riskProInterestsTarget Target address to transfer the weekly RiskPro holders interest\n   * @param _stableTmin Upgrade to support red stable inrate parameter\n   * @param _stablePower Upgrade to support red stable inrate parameter\n   * @param _stableTmax Upgrade to support red stable inrate parameter\n   */\n  function initializeValues(\n    address _governor,\n    uint256 riskProxMin,\n    uint256 riskProxPower,\n    uint256 riskProxMax,\n    uint256 _riskProRate,\n    address payable commissionsAddressTarget,\n    //uint256 commissionRateParam,\n    uint256 blockSpanRiskPro,\n    address payable riskProInterestsTarget,\n    uint256 _stableTmin,\n    uint256 _stablePower,\n    uint256 _stableTmax\n  ) internal {\n    governor = IGovernor(_governor);\n    riskProxParams.tMin = riskProxMin;\n    riskProxParams.power = riskProxPower;\n    riskProxParams.tMax = riskProxMax;\n    riskProRate = _riskProRate;\n    riskProInterestAddress = riskProInterestsTarget;\n    riskProInterestBlockSpan = blockSpanRiskPro;\n    //commissionRate = commissionRateParam;\n    commissionsAddress = commissionsAddressTarget;\n    stableTmin = _stableTmin;\n    stablePower = _stablePower;\n    stableTmax = _stableTmax;\n  }\n\n  /************************************/\n  /***** UPGRADE v0110      ***********/\n  /************************************/\n\n  /** START UPDATE V0110: 24/09/2020  **/\n  /** Upgrade to support multiple commission rates **/\n\n  // Transaction types\n  uint8 public constant MINT_RISKPRO_FEES_RESERVE = 1;\n  uint8 public constant REDEEM_RISKPRO_FEES_RESERVE = 2;\n  uint8 public constant MINT_STABLETOKEN_FEES_RESERVE = 3;\n  uint8 public constant REDEEM_STABLETOKEN_FEES_RESERVE = 4;\n  uint8 public constant MINT_RISKPROX_FEES_RESERVE = 5;\n  uint8 public constant REDEEM_RISKPROX_FEES_RESERVE = 6;\n  uint8 public constant MINT_RISKPRO_FEES_MOC = 7;\n  uint8 public constant REDEEM_RISKPRO_FEES_MOC = 8;\n  uint8 public constant MINT_STABLETOKEN_FEES_MOC = 9;\n  uint8 public constant REDEEM_STABLETOKEN_FEES_MOC = 10;\n  uint8 public constant MINT_RISKPROX_FEES_MOC = 11;\n  uint8 public constant REDEEM_RISKPROX_FEES_MOC = 12;\n\n  mapping(uint8 => uint256) public commissionRatesByTxType;\n\n  /** END UPDATE V0110: 24/09/2020 **/\n\n  // Leave a gap betweeen inherited contracts variables in order to be\n  // able to add more variables in them later\n  uint256[50] private upgradeGap;\n}\n",
  "sourcePath": "/Users/f.ruiz/projects/moc/RDOC-Contract-Internal/contracts_updated/MoCInrate.sol",
  "compiler": {
    "name": "solc",
    "version": "0.5.17+commit.d19bba13.Emscripten.clang"
  },
  "schemaVersion": "3.0.11",
  "updatedAt": "2023-05-12T22:20:29.539Z",
  "devdoc": {
    "methods": {
      "calcCommissionValue(uint256)": {
        "details": "DEPRECATED calculates the Commission rate from the passed RBTC amount for mint/redeem operations",
        "params": {
          "reserveTokenAmount": "Total value from which apply the Commission rate [using reservePrecision]"
        },
        "return": "finalCommissionAmount [using reservePrecision]"
      },
      "calcCommissionValue(uint256,uint8)": {
        "details": "calculates the Commission rate from the passed ReserveTokens amount for mint/redeem operations",
        "params": {
          "reserveTokenAmount": "Total value from which apply the Commission rate [using reservePrecision]",
          "txType": "Transaction type according to constant values defined in this contract"
        },
        "return": "finalCommissionAmount [using reservePrecision]"
      },
      "calcFinalRedeemInterestValue(bytes32,uint256)": {
        "details": "This function calculates the interest to return to the user in a RiskProx redemption. It uses a mechanism to counteract the effect of free stableTokens redemption. It will be replaced with FreeStableToken redemption interests in the future",
        "params": {
          "bucket": "Bucket to use to calculate interest",
          "reserveTokenToRedeem": "Total value from which calculate interest [using reservePrecision]"
        },
        "return": "Reserves to recover in concept of interests [using reservePrecision]"
      },
      "calcMintInterestValues(bytes32,uint256)": {
        "details": "Extract the inrate from the passed ReserveTokens value for RiskProx minting operation",
        "params": {
          "bucket": "Bucket to use to calculate inters",
          "reserveTokenAmount": "Total value from which extract the interest rate [using reservePrecision]"
        },
        "return": "ReserveTokens to pay in concept of interests [using reservePrecision]"
      },
      "calcRedeemInterestValue(bytes32,uint256)": {
        "details": "Calculates ReserveTokens value to return to the user in concept of interests",
        "params": {
          "bucket": "Bucket to use to calculate interest",
          "reserveTokenToRedeem": "Total value from which calculate interest [using reservePrecision]"
        },
        "return": "Reserves to recover in concept of interests [using reservePrecision]"
      },
      "calcStableTokenRedInterestValues(uint256,uint256)": {
        "details": "Extract the inrate from the passed ReserveTokens value for the StableToken Redeem operation",
        "params": {
          "reserveTokenAmount": "Total value from which extract the interest rate [using reservePrecision]",
          "stableTokenAmount": "StableToken amount of the redemption [using mocPrecision]"
        },
        "return": "finalInterest"
      },
      "calculateRiskProHoldersInterest()": {
        "details": "Calculates RiskPro Holders interest rates",
        "return": "toPay interest in ReserveTokens [using reservePrecsion]bucketBtnc0 RTBC on bucket0 used to calculate de interest [using reservePrecsion]"
      },
      "calculateVendorMarkup(address,uint256)": {
        "details": "calculates the vendor markup rate from the passed vendor account and amount",
        "params": {
          "amount": "Total value from which apply the vendor markup rate [using reservePrecision]",
          "vendorAccount": "Vendor address"
        },
        "return": "finalCommissionAmount [using reservePrecision]"
      },
      "changeIGovernor(address)": {
        "params": {
          "newIGovernor": "New governor address"
        }
      },
      "dailyInrate()": {
        "details": "returns the amount of ReserveTokens to pay in concept of interest to bucket C0"
      },
      "dailyInratePayment()": {
        "details": "Moves the daily amount of interest rate to C0 bucket"
      },
      "getRiskProInterestAddress()": {
        "details": "Gets the target address to transfer RiskPro Holders rate",
        "return": "Target address to transfer RiskPro Holders interest"
      },
      "getRiskProInterestBlockSpan()": {
        "details": "Gets the blockspan of RiskPro that represents the frecuency of RiskPro holders intereset payment",
        "return": "returns power of riskProInterestBlockSpan"
      },
      "getRiskProRate()": {
        "details": "Gets the rate for RiskPro Holders",
        "return": "RiskPro Rate"
      },
      "getRiskProxPower()": {
        "details": "gets power param of RiskProx tokens",
        "return": "returns power of RiskProx"
      },
      "getRiskProxTmax()": {
        "details": "gets tMax param of RiskProx tokens",
        "return": "returns tMax of RiskProx"
      },
      "getRiskProxTmin()": {
        "details": "gets tMin param of RiskProx tokens",
        "return": "returns tMin of RiskProx"
      },
      "initialize(address)": {
        "details": "This initialize replaces the constructor but it is not called automatically. It is necessary because of the upgradeability of the contracts",
        "params": {
          "_governor": "Governor address"
        }
      },
      "initialize(address,address,uint256,uint256,uint256,uint256,uint256,address,address,uint256,uint256,uint256)": {
        "details": "Initializes the contract",
        "params": {
          "_governor": "Governor contract address",
          "_riskProRate": "BitPro holder interest rate [using mocPrecision]",
          "_stablePower": "Upgrade to support red stable inrate parameter",
          "_stableTmax": "Upgrade to support red stable inrate parameter",
          "_stableTmin": "Upgrade to support red stable inrate parameter",
          "blockSpanRiskPro": "BitPro blockspan to configure payments periods[using mocPrecision]",
          "commissionsAddressTarget": "Target addres to transfer commissions of mint/redeem",
          "connectorAddress": "MoCConnector contract address",
          "riskProInterestTargetAddress": "Target address to transfer the weekly BitPro holders interest",
          "riskProxPower": "Power is a parameter for interest rate calculation [using noPrecision]",
          "riskProxTmax": "Maximun interest rate [using mocPrecision]",
          "riskProxTmin": "Minimum interest rate [using mocPrecision]"
        }
      },
      "payRiskProHoldersInterestPayment()": {
        "details": "Pays the RiskPro Holders interest rates",
        "return": "interest payed in ReserveTokens [using reservePrecsion]"
      },
      "riskProxInrateAvg(bytes32,uint256,bool)": {
        "details": "Calculates an average interest rate between after and before mint/redeem",
        "params": {
          "bucket": "Name of the bucket involved in the operation",
          "onMinting": "Value that represents if the calculation is based on mint or on redeem",
          "resTokensAmount": "Value of the operation from which calculates the inrate [using reservePrecision]"
        },
        "return": "Interest rate value [using mocPrecision]"
      },
      "setCommissionRateByTxType(uint8,uint256)": {
        "details": "Sets the commission rate to a particular transaction type",
        "params": {
          "txType": "Transaction type according to constant values defined in this contract",
          "value": "Commission rate"
        }
      },
      "setCommissionsAddress(address)": {
        "details": "Sets the target address to transfer commissions of Mint/Redeem transactions",
        "params": {
          "newCommissionsAddress": "New commisions address"
        }
      },
      "setRiskProInterestAddress(address)": {
        "details": "Sets the target address to transfer RiskPro Holders rate",
        "params": {
          "newRiskProInterestAddress": "New RiskPro rate"
        }
      },
      "setRiskProInterestBlockSpan(uint256)": {
        "details": "Sets the blockspan RiskPro Intereset rate payment is enable to be executed",
        "params": {
          "newRiskProBlockSpan": "New RiskPro Block span"
        }
      },
      "setRiskProRate(uint256)": {
        "details": "Sets RiskPro Holders rate",
        "params": {
          "newRiskProRate": "New RiskPro rate"
        }
      },
      "setRiskProxPower(uint256)": {
        "details": "sets power param of RiskProx tokens",
        "params": {
          "_btxcPower": "power of RiskProx"
        }
      },
      "setRiskProxTmax(uint256)": {
        "details": "sets tMax param of RiskProx tokens",
        "params": {
          "_btxcTax": "tMax of RiskProx"
        }
      },
      "setRiskProxTmin(uint256)": {
        "details": "sets tMin param of RiskProx tokens",
        "params": {
          "_btxcTmin": "tMin of RiskProx"
        }
      },
      "spotInrate()": {
        "details": "Calculates interest rate for RiskProx Minting, redeem and Free StableToken Redeem",
        "return": "Interest rate value [using RatePrecsion]"
      },
      "stableTokenInrateAvg(uint256)": {
        "details": "Calculates an average interest rate between after and before free stableToken Redemption",
        "params": {
          "stableTokenRedeem": "StableTokens to redeem [using mocPrecision]"
        },
        "return": "Interest rate value [using mocPrecision]"
      }
    }
  },
  "userdoc": {
    "methods": {
      "changeIGovernor(address)": {
        "notice": "Change the contract's governor. Should be called through the old governance system"
      },
      "initialize(address)": {
        "notice": "Initialize the contract with the basic settings"
      }
    }
  }
}