{
  "contractName": "MoCSettlement",
  "abi": [
    {
      "anonymous": false,
      "inputs": [
        {
          "indexed": true,
          "internalType": "address",
          "name": "redeemer",
          "type": "address"
        },
        {
          "indexed": false,
          "internalType": "bool",
          "name": "isAddition",
          "type": "bool"
        },
        {
          "indexed": false,
          "internalType": "uint256",
          "name": "delta",
          "type": "uint256"
        }
      ],
      "name": "RedeemRequestAlter",
      "type": "event"
    },
    {
      "anonymous": false,
      "inputs": [
        {
          "indexed": true,
          "internalType": "address",
          "name": "redeemer",
          "type": "address"
        },
        {
          "indexed": false,
          "internalType": "uint256",
          "name": "commission",
          "type": "uint256"
        },
        {
          "indexed": false,
          "internalType": "uint256",
          "name": "amount",
          "type": "uint256"
        }
      ],
      "name": "RedeemRequestProcessed",
      "type": "event"
    },
    {
      "anonymous": false,
      "inputs": [
        {
          "indexed": false,
          "internalType": "uint256",
          "name": "commissionsPayed",
          "type": "uint256"
        }
      ],
      "name": "SettlementCompleted",
      "type": "event"
    },
    {
      "anonymous": false,
      "inputs": [
        {
          "indexed": false,
          "internalType": "uint256",
          "name": "leverage",
          "type": "uint256"
        },
        {
          "indexed": false,
          "internalType": "uint256",
          "name": "riskProxPrice",
          "type": "uint256"
        },
        {
          "indexed": false,
          "internalType": "uint256",
          "name": "reservePrice",
          "type": "uint256"
        },
        {
          "indexed": false,
          "internalType": "uint256",
          "name": "startBlockNumber",
          "type": "uint256"
        }
      ],
      "name": "SettlementDeleveraging",
      "type": "event"
    },
    {
      "anonymous": false,
      "inputs": [
        {
          "indexed": false,
          "internalType": "uint256",
          "name": "queueSize",
          "type": "uint256"
        },
        {
          "indexed": false,
          "internalType": "uint256",
          "name": "accumCommissions",
          "type": "uint256"
        },
        {
          "indexed": false,
          "internalType": "uint256",
          "name": "reservePrice",
          "type": "uint256"
        }
      ],
      "name": "SettlementRedeemStableToken",
      "type": "event"
    },
    {
      "anonymous": false,
      "inputs": [
        {
          "indexed": false,
          "internalType": "uint256",
          "name": "stableTokenRedeemCount",
          "type": "uint256"
        },
        {
          "indexed": false,
          "internalType": "uint256",
          "name": "deleveragingCount",
          "type": "uint256"
        },
        {
          "indexed": false,
          "internalType": "uint256",
          "name": "riskProxPrice",
          "type": "uint256"
        },
        {
          "indexed": false,
          "internalType": "uint256",
          "name": "reservePrice",
          "type": "uint256"
        }
      ],
      "name": "SettlementStarted",
      "type": "event"
    },
    {
      "constant": true,
      "inputs": [],
      "name": "BUCKET_C0",
      "outputs": [
        {
          "internalType": "bytes32",
          "name": "",
          "type": "bytes32"
        }
      ],
      "payable": false,
      "stateMutability": "view",
      "type": "function"
    },
    {
      "constant": true,
      "inputs": [],
      "name": "BUCKET_X2",
      "outputs": [
        {
          "internalType": "bytes32",
          "name": "",
          "type": "bytes32"
        }
      ],
      "payable": false,
      "stateMutability": "view",
      "type": "function"
    },
    {
      "constant": true,
      "inputs": [],
      "name": "DELEVERAGING_TASK",
      "outputs": [
        {
          "internalType": "bytes32",
          "name": "",
          "type": "bytes32"
        }
      ],
      "payable": false,
      "stateMutability": "view",
      "type": "function"
    },
    {
      "constant": true,
      "inputs": [],
      "name": "SETTLEMENT_TASK",
      "outputs": [
        {
          "internalType": "bytes32",
          "name": "",
          "type": "bytes32"
        }
      ],
      "payable": false,
      "stateMutability": "view",
      "type": "function"
    },
    {
      "constant": true,
      "inputs": [],
      "name": "StableToken_REDEMPTION_TASK",
      "outputs": [
        {
          "internalType": "bytes32",
          "name": "",
          "type": "bytes32"
        }
      ],
      "payable": false,
      "stateMutability": "view",
      "type": "function"
    },
    {
      "constant": false,
      "inputs": [
        {
          "internalType": "contract IGovernor",
          "name": "newIGovernor",
          "type": "address"
        }
      ],
      "name": "changeIGovernor",
      "outputs": [],
      "payable": false,
      "stateMutability": "nonpayable",
      "type": "function"
    },
    {
      "constant": true,
      "inputs": [],
      "name": "connector",
      "outputs": [
        {
          "internalType": "contract MoCConnector",
          "name": "",
          "type": "address"
        }
      ],
      "payable": false,
      "stateMutability": "view",
      "type": "function"
    },
    {
      "constant": true,
      "inputs": [],
      "name": "governor",
      "outputs": [
        {
          "internalType": "contract IGovernor",
          "name": "",
          "type": "address"
        }
      ],
      "payable": false,
      "stateMutability": "view",
      "type": "function"
    },
    {
      "constant": false,
      "inputs": [
        {
          "internalType": "contract IGovernor",
          "name": "_governor",
          "type": "address"
        }
      ],
      "name": "initialize",
      "outputs": [],
      "payable": false,
      "stateMutability": "nonpayable",
      "type": "function"
    },
    {
      "constant": false,
      "inputs": [
        {
          "internalType": "address",
          "name": "connectorAddress",
          "type": "address"
        },
        {
          "internalType": "address",
          "name": "_governor",
          "type": "address"
        },
        {
          "internalType": "uint256",
          "name": "_blockSpan",
          "type": "uint256"
        }
      ],
      "name": "initialize",
      "outputs": [],
      "payable": false,
      "stateMutability": "nonpayable",
      "type": "function"
    },
    {
      "constant": false,
      "inputs": [
        {
          "internalType": "uint256",
          "name": "bSpan",
          "type": "uint256"
        }
      ],
      "name": "setBlockSpan",
      "outputs": [],
      "payable": false,
      "stateMutability": "nonpayable",
      "type": "function"
    },
    {
      "constant": false,
      "inputs": [],
      "name": "setSettlementToStall",
      "outputs": [],
      "payable": false,
      "stateMutability": "nonpayable",
      "type": "function"
    },
    {
      "constant": false,
      "inputs": [],
      "name": "restartSettlementState",
      "outputs": [],
      "payable": false,
      "stateMutability": "nonpayable",
      "type": "function"
    },
    {
      "constant": true,
      "inputs": [
        {
          "internalType": "uint256",
          "name": "_index",
          "type": "uint256"
        }
      ],
      "name": "getRedeemRequestAt",
      "outputs": [
        {
          "internalType": "address payable",
          "name": "",
          "type": "address"
        },
        {
          "internalType": "uint256",
          "name": "",
          "type": "uint256"
        }
      ],
      "payable": false,
      "stateMutability": "view",
      "type": "function"
    },
    {
      "constant": true,
      "inputs": [],
      "name": "getBlockSpan",
      "outputs": [
        {
          "internalType": "uint256",
          "name": "",
          "type": "uint256"
        }
      ],
      "payable": false,
      "stateMutability": "view",
      "type": "function"
    },
    {
      "constant": true,
      "inputs": [],
      "name": "redeemQueueSize",
      "outputs": [
        {
          "internalType": "uint256",
          "name": "",
          "type": "uint256"
        }
      ],
      "payable": false,
      "stateMutability": "view",
      "type": "function"
    },
    {
      "constant": true,
      "inputs": [],
      "name": "isSettlementEnabled",
      "outputs": [
        {
          "internalType": "bool",
          "name": "",
          "type": "bool"
        }
      ],
      "payable": false,
      "stateMutability": "view",
      "type": "function"
    },
    {
      "constant": true,
      "inputs": [],
      "name": "isSettlementRunning",
      "outputs": [
        {
          "internalType": "bool",
          "name": "",
          "type": "bool"
        }
      ],
      "payable": false,
      "stateMutability": "view",
      "type": "function"
    },
    {
      "constant": true,
      "inputs": [],
      "name": "isSettlementReady",
      "outputs": [
        {
          "internalType": "bool",
          "name": "",
          "type": "bool"
        }
      ],
      "payable": false,
      "stateMutability": "view",
      "type": "function"
    },
    {
      "constant": true,
      "inputs": [],
      "name": "nextSettlementBlock",
      "outputs": [
        {
          "internalType": "uint256",
          "name": "",
          "type": "uint256"
        }
      ],
      "payable": false,
      "stateMutability": "view",
      "type": "function"
    },
    {
      "constant": true,
      "inputs": [
        {
          "internalType": "address",
          "name": "_who",
          "type": "address"
        }
      ],
      "name": "stableTokenAmountToRedeem",
      "outputs": [
        {
          "internalType": "uint256",
          "name": "",
          "type": "uint256"
        }
      ],
      "payable": false,
      "stateMutability": "view",
      "type": "function"
    },
    {
      "constant": false,
      "inputs": [
        {
          "internalType": "uint256",
          "name": "amount",
          "type": "uint256"
        },
        {
          "internalType": "address payable",
          "name": "redeemer",
          "type": "address"
        }
      ],
      "name": "addRedeemRequest",
      "outputs": [],
      "payable": false,
      "stateMutability": "nonpayable",
      "type": "function"
    },
    {
      "constant": false,
      "inputs": [],
      "name": "clear",
      "outputs": [],
      "payable": false,
      "stateMutability": "nonpayable",
      "type": "function"
    },
    {
      "constant": false,
      "inputs": [
        {
          "internalType": "bool",
          "name": "isAddition",
          "type": "bool"
        },
        {
          "internalType": "uint256",
          "name": "delta",
          "type": "uint256"
        },
        {
          "internalType": "address",
          "name": "redeemer",
          "type": "address"
        }
      ],
      "name": "alterRedeemRequestAmount",
      "outputs": [],
      "payable": false,
      "stateMutability": "nonpayable",
      "type": "function"
    },
    {
      "constant": false,
      "inputs": [
        {
          "internalType": "uint256",
          "name": "steps",
          "type": "uint256"
        }
      ],
      "name": "runSettlement",
      "outputs": [
        {
          "internalType": "uint256",
          "name": "",
          "type": "uint256"
        }
      ],
      "payable": false,
      "stateMutability": "nonpayable",
      "type": "function"
    },
    {
      "constant": false,
      "inputs": [],
      "name": "fixTasksPointer",
      "outputs": [],
      "payable": false,
      "stateMutability": "nonpayable",
      "type": "function"
    }
  ],
  "bytecode": "0x608060405234801561001057600080fd5b50613012806100206000396000f3fe608060405234801561001057600080fd5b50600436106101ab576000357c0100000000000000000000000000000000000000000000000000000000900480637cfad7a1116100fb578063c4d66de8116100b4578063e22155f61161008e578063e22155f6146103a6578063e77b166b146103ae578063e7c82dd5146103b6578063eef13ca1146103be576101ab565b8063c4d66de81461035b578063ccd8a2cf14610381578063cda674ff14610389576101ab565b80637cfad7a1146102e957806383f3084f14610315578063892d67191461031d578063946bbed2146103255780639d5a3ba81461032d578063b6e0833014610335576101ab565b80633e0716e71161016857806357c0fac71161014257806357c0fac7146102885780635b0217c8146102bc5780636d0fba92146102d95780637bac9c7c146102e1576101ab565b80633e0716e71461027057806352efea6e1461027857806357a13a1614610280576101ab565b80630c340a24146101b05780631794bb3c146101d457806318de7ffc1461020c57806323a8cf46146102285780632768ef091461023057806332549a0714610238575b600080fd5b6101b86103fe565b60408051600160a060020a039092168252519081900360200190f35b61020a600480360360608110156101ea57600080fd5b50600160a060020a0381358116916020810135909116906040013561040d565b005b6102146104d0565b604080519115158252519081900360200190f35b61020a610502565b610214610637565b61025e6004803603602081101561024e57600080fd5b5035600160a060020a0316610649565b60408051918252519081900360200190f35b61025e6106dd565b61020a610700565b61025e6107c6565b61020a6004803603606081101561029e57600080fd5b50803515159060208101359060400135600160a060020a03166107d2565b61025e600480360360208110156102d257600080fd5b5035610a50565b61020a610b9e565b61025e610cf4565b61020a600480360360408110156102ff57600080fd5b5080359060200135600160a060020a0316610d0d565b6101b8610f07565b61025e610f16565b610214610f39565b61025e610f65565b61020a6004803603602081101561034b57600080fd5b5035600160a060020a0316610f6b565b61020a6004803603602081101561037157600080fd5b5035600160a060020a0316611079565b61020a61113a565b61020a6004803603602081101561039f57600080fd5b503561127a565b61025e61136b565b61025e61138f565b61025e611395565b6103db600480360360208110156103d457600080fd5b50356113b8565b60408051600160a060020a03909316835260208301919091528051918290030190f35b609a54600160a060020a031681565b600054610100900460ff16806104265750610426611469565b80610434575060005460ff16155b6104725760405160e560020a62461bcd02815260040180806020018281038252602e815260200180612f70602e913960400191505060405180910390fd5b600054610100900460ff1615801561049d576000805460ff1961ff0019909116610100171660011790555b6104a68461146f565b6104ae61152f565b6104b883836117c0565b80156104ca576000805461ff00191690555b50505050565b60408051600080516020612f308339815191528152905190819003600a0190206000906104fc906117ec565b90505b90565b60408051600080516020612f108339815191528152905190819003600c019020610537906118176118b4610cf2611b5e611c57565b60408051600080516020612f9e8339815191528152905190819003601501902061056c90611d1b611e43610cf2612062611c57565b60408051600280825260608083018452926020830190803883390190505090506040518080600080516020612f10833981519152815250600c0190506040518091039020816000815181106105bd57fe5b602090810291909101015260408051600080516020612f9e833981519152815290519081900360150190208151829060019081106105f757fe5b602090810291909101015260408051600080516020612f308339815191528152905190819003600a01902061063490826120bb6125bf6001612613565b50565b600043610642610cf4565b1115905090565b600160a060020a038116600090815260de602052604081206001015460ff16610674575060006106d8565b600160a060020a038216600090815260de6020526040902054610695612e3a565b60dd82815481106106a257fe5b6000918252602091829020604080518082019091526002909202018054600160a060020a03168252600101549101819052925050505b919050565b60408051600080516020612f308339815191528152905190819003600a01902081565b6033546040805160e060020a633af32abf028152336004820181905291519192600160a060020a031691633af32abf91602480820192602092909190829003018186803b15801561075057600080fd5b505afa158015610764573d6000803e3d6000fd5b505050506040513d602081101561077a57600080fd5b50516107be576040805160e560020a62461bcd02815260206004820152601a6024820152600080516020612f50833981519152604482015290519081900360640190fd5b50600060df55565b60f160020a612c190281565b6033546040805160e060020a633af32abf028152336004820181905291519192600160a060020a031691633af32abf91602480820192602092909190829003018186803b15801561082257600080fd5b505afa158015610836573d6000803e3d6000fd5b505050506040513d602081101561084c57600080fd5b5051610890576040805160e560020a62461bcd02815260206004820152601a6024820152600080516020612f50833981519152604482015290519081900360640190fd5b600160a060020a038216600090815260de602052604090206001015460ff16610903576040805160e560020a62461bcd02815260206004820152601e60248201527f54686973206973206e6f7420616e206163746976652072656465656d65720000604482015290519081900360640190fd5b600160a060020a038216600090815260de602052604081205460dd80549192918390811061092d57fe5b600091825260209091206002909102018054909150600160a060020a038581169116146109a4576040805160e560020a62461bcd02815260206004820152601460248201527f4e6f7420616c6c6f7765642072656465656d6572000000000000000000000000604482015290519081900360640190fd5b8486156109ca5760018201546109c0908763ffffffff6126bb16565b6001830155610a02565b85826001015410156109e757506001810180546000909155610a02565b60018201546109fc908763ffffffff61272116565b60018301555b604080518815158152602081018390528151600160a060020a038816927fb0615ad1fee4e5955daa56658be02dc77d3577fdb0707dad84bafa6bb854e05e928290030190a250505050505050565b6033546040805160e060020a633af32abf02815233600482018190529151600093600160a060020a031691633af32abf916024808301926020929190829003018186803b158015610aa057600080fd5b505afa158015610ab4573d6000803e3d6000fd5b505050506040513d6020811015610aca57600080fd5b5051610b0e576040805160e560020a62461bcd02815260206004820152601a6024820152600080516020612f50833981519152604482015290519081900360640190fd5b610b16610637565b610b6a576040805160e560020a62461bcd02815260206004820152601a60248201527f536574746c656d656e74206e6f742079657420656e61626c6564000000000000604482015290519081900360640190fd5b60408051600080516020612f308339815191528152905190819003600a019020610b949084612781565b505060d954919050565b609a546040805160e060020a63d994d6d50281523360048201529051600160a060020a039092169163d994d6d591602480820192602092909190829003018186803b158015610bec57600080fd5b505afa158015610c00573d6000803e3d6000fd5b505050506040513d6020811015610c1657600080fd5b50516040805180820190915260168152600080516020612fbe833981519152602082015290610cc65760405160e560020a62461bcd0281526004018080602001828103825283818151815260200191508051906020019080838360005b83811015610c8b578181015183820152602001610c73565b50505050905090810190601f168015610cb85780820380516001836020036101000a031916815260200191505b509250505060405180910390fd5b5060408051600080516020612f308339815191528152905190819003600a019020610cf2906000612891565b565b60006104fc60d25460d1546126bb90919063ffffffff16565b6033546040805160e060020a633af32abf028152336004820181905291519192600160a060020a031691633af32abf91602480820192602092909190829003018186803b158015610d5d57600080fd5b505afa158015610d71573d6000803e3d6000fd5b505050506040513d6020811015610d8757600080fd5b5051610dcb576040805160e560020a62461bcd02815260206004820152601a6024820152600080516020612f50833981519152604482015290519081900360640190fd5b600160a060020a038216600090815260de602052604090206001015460ff16610ef65760dd5460df541415610e0e5760dd805460010190610e0c9082612e51565b505b60df805460408051808201909152600160a060020a0385168152602081018690526001820190925560dd805491929183908110610e4757fe5b600091825260208083208451600293909302018054600160a060020a031916600160a060020a039384161781559381015160019485015560408051808201825286815280830186815293891680865260de845294829020905181559251928501805460ff19169315159390931790925581519384528301879052805191927fb0615ad1fee4e5955daa56658be02dc77d3577fdb0707dad84bafa6bb854e05e929081900390910190a250610f02565b610f02600184846107d2565b505050565b603354600160a060020a031681565b60408051600080516020612f9e8339815191528152905190819003601501902081565b60408051600080516020612f308339815191528152905190819003600a0190206000906104fc906128cc565b60df5490565b609a546040805160e060020a63d994d6d50281523360048201529051600160a060020a039092169163d994d6d591602480820192602092909190829003018186803b158015610fb957600080fd5b505afa158015610fcd573d6000803e3d6000fd5b505050506040513d6020811015610fe357600080fd5b50516040805180820190915260168152600080516020612fbe8339815191526020820152906110565760405160e560020a62461bcd028152602060048201818152835160248401528351909283926044909101919085019080838360008315610c8b578181015183820152602001610c73565b50609a8054600160a060020a031916600160a060020a0392909216919091179055565b600054610100900460ff16806110925750611092611469565b806110a0575060005460ff16155b6110de5760405160e560020a62461bcd02815260040180806020018281038252602e815260200180612f70602e913960400191505060405180910390fd5b600054610100900460ff16158015611109576000805460ff1961ff0019909116610100171660011790555b609a8054600160a060020a031916600160a060020a0384161790558015611136576000805461ff00191690555b5050565b609a546040805160e060020a63d994d6d50281523360048201529051600160a060020a039092169163d994d6d591602480820192602092909190829003018186803b15801561118857600080fd5b505afa15801561119c573d6000803e3d6000fd5b505050506040513d60208110156111b257600080fd5b50516040805180820190915260168152600080516020612fbe8339815191526020820152906112255760405160e560020a62461bcd028152602060048201818152835160248401528351909283926044909101919085019080838360008315610c8b578181015183820152602001610c73565b5060408051600080516020612f308339815191528152905190819003600a01902061124f906128d5565b60408051600080516020612f308339815191528152905190819003600a019020610cf2906001612891565b609a546040805160e060020a63d994d6d50281523360048201529051600160a060020a039092169163d994d6d591602480820192602092909190829003018186803b1580156112c857600080fd5b505afa1580156112dc573d6000803e3d6000fd5b505050506040513d60208110156112f257600080fd5b50516040805180820190915260168152600080516020612fbe8339815191526020820152906113655760405160e560020a62461bcd028152602060048201818152835160248401528351909283926044909101919085019080838360008315610c8b578181015183820152602001610c73565b5060d255565b7f433000000000000000000000000000000000000000000000000000000000000081565b60d25490565b60408051600080516020612f108339815191528152905190819003600c01902081565b6000808260df548110611415576040805160e560020a62461bcd02815260206004820152601760248201527f496e646578206f7574206f6620626f756e646172696573000000000000000000604482015290519081900360640190fd5b60dd848154811061142257fe5b600091825260209091206002909102015460dd8054600160a060020a03909216918690811061144d57fe5b9060005260206000209060020201600101549250925050915091565b303b1590565b600054610100900460ff16806114885750611488611469565b80611496575060005460ff16155b6114d45760405160e560020a62461bcd02815260040180806020018281038252602e815260200180612f70602e913960400191505060405180910390fd5b600054610100900460ff161580156114ff576000805460ff1961ff0019909116610100171660011790555b60338054600160a060020a031916600160a060020a0384161790558015611136576000805461ff00191690555050565b603360009054906101000a9004600160a060020a0316600160a060020a031663a9d75b2b6040518163ffffffff167c010000000000000000000000000000000000000000000000000000000002815260040160206040518083038186803b15801561159957600080fd5b505afa1580156115ad573d6000803e3d6000fd5b505050506040513d60208110156115c357600080fd5b505160cf8054600160a060020a031916600160a060020a03928316179055603354604080517f360b41b10000000000000000000000000000000000000000000000000000000081529051919092169163360b41b1916004808301926020929190829003018186803b15801561163757600080fd5b505afa15801561164b573d6000803e3d6000fd5b505050506040513d602081101561166157600080fd5b505160d08054600160a060020a031916600160a060020a03928316179055603354604080517f12529f1f000000000000000000000000000000000000000000000000000000008152905191909216916312529f1f916004808301926020929190829003018186803b1580156116d557600080fd5b505afa1580156116e9573d6000803e3d6000fd5b505050506040513d60208110156116ff57600080fd5b505160cd8054600160a060020a031916600160a060020a03928316179055603354604080517f8557af6f00000000000000000000000000000000000000000000000000000000815290519190921691638557af6f916004808301926020929190829003018186803b15801561177357600080fd5b505afa158015611787573d6000803e3d6000fd5b505050506040513d602081101561179d57600080fd5b505160ce8054600160a060020a031916600160a060020a03909216919091179055565b609a8054600160a060020a031916600160a060020a03841617905560d28190554360d1556111366128f8565b6000805b60008381526067602052604090206001015460ff16600281111561181057fe5b1492915050565b60d054604080517f46a9d30300000000000000000000000000000000000000000000000000000000815260f160020a612c190260048201529051600092600160a060020a0316916346a9d303916024808301926020929190829003018186803b15801561188357600080fd5b505afa158015611897573d6000803e3d6000fd5b505050506040513d60208110156118ad57600080fd5b5051905090565b60d054604080517f0efae5f400000000000000000000000000000000000000000000000000000000815260f160020a612c190260048201529051600092600160a060020a031691630efae5f49160248083019286929190829003018186803b15801561191f57600080fd5b505afa158015611933573d6000803e3d6000fd5b505050506040513d6000823e601f3d908101601f19168201604052602081101561195c57600080fd5b810190808051604051939291908464010000000082111561197c57600080fd5b90830190602082018581111561199157600080fd5b82518660208202830111640100000000821117156119ae57600080fd5b82525081516020918201928201910280838360005b838110156119db5781810151838201526020016119c3565b505050509050016040525050506000815181106119f457fe5b60209081029190910181015160d054604080517f2b28a6c700000000000000000000000000000000000000000000000000000000815260f160020a612c19026004820152600160a060020a03808516602483015291519395506000949190921692632b28a6c7926044808201939291829003018186803b158015611a7757600080fd5b505afa158015611a8b573d6000803e3d6000fd5b505050506040513d6020811015611aa157600080fd5b505160ce5460d454604080517fb2f9361600000000000000000000000000000000000000000000000000000000815260f160020a612c19026004820152600160a060020a038781166024830152604482018690526064820193909352905193945091169163b2f93616916084808201926020929091908290030181600087803b158015611b2d57600080fd5b505af1158015611b41573d6000803e3d6000fd5b505050506040513d6020811015611b5757600080fd5b5050505050565b60da5460d45460d35460db54604080519485526020850193909352838301919091526060830152517f37f58240f27b4c2711643903484e0d47feef98664042424397cd5a50b535f56b9181900360800190a160d054604080517fc9c9a5a000000000000000000000000000000000000000000000000000000000815260f160020a612c190260048201527f433000000000000000000000000000000000000000000000000000000000000060248201529051600160a060020a039092169163c9c9a5a09160448082019260009290919082900301818387803b158015611c4357600080fd5b505af11580156104ca573d6000803e3d6000fd5b60008581526066602052604090209485556001909401805467ffffffffffffffff191667ffffffffffffffff948516176fffffffffffffffff0000000000000000191668010000000000000000938516939093029290921777ffffffffffffffff000000000000000000000000000000001916608060020a918416919091021777ffffffffffffffffffffffffffffffffffffffffffffffff1678010000000000000000000000000000000000000000000000009290931691909102919091179055565b60cd54604080517fe480e5b90000000000000000000000000000000000000000000000000000000081529051600092600160a060020a03169163e480e5b9916004808301926020929190829003018186803b158015611d7957600080fd5b505afa158015611d8d573d6000803e3d6000fd5b505050506040513d6020811015611da357600080fd5b505160cd54604080517fc4ee19ea0000000000000000000000000000000000000000000000000000000081529051600160a060020a039092169163c4ee19ea91600480820192602092909190829003018186803b158015611e0357600080fd5b505afa158015611e17573d6000803e3d6000fd5b505050506040513d6020811015611e2d57600080fd5b505111611e3c575060006104ff565b5060df5490565b600080611e4f836113b8565b60cf54604080517f70a08231000000000000000000000000000000000000000000000000000000008152600160a060020a03808616600483015291519496509294506000939116916370a08231916024808301926020929190829003018186803b158015611ebc57600080fd5b505afa158015611ed0573d6000803e3d6000fd5b505050506040513d6020811015611ee657600080fd5b505190506000611ef68284612a2a565b905080156120105760ce5460d354604080517fd18fd67f000000000000000000000000000000000000000000000000000000008152600160a060020a03888116600483015260248201869052604482019390935281516000948594169263d18fd67f926064808201939182900301818787803b158015611f7557600080fd5b505af1158015611f89573d6000803e3d6000fd5b505050506040513d6040811015611f9f57600080fd5b5080516020909101519092509050811561200d5760408051828152602081018590528151600160a060020a038916927fdaf80375c7a754434eb273f9d807b84ca0fcbf9bbaf10b88bec44d366a2fbba0928290030190a260d854612009908263ffffffff6126bb16565b60d8555b50505b600160a060020a038416600090815260de6020526040812060018101805460ff1916905560dd80549192918890811061204557fe5b906000526020600020906002020160010181905550505050505050565b60d55460d95460d35460408051938452602084019290925282820152517f96d94166ac26eece14e3269d56e135261e6a3e69f1b0c9d2cf3c425ba1efec059181900360600190a160dc5460ff16610cf257610cf2610700565b60cd54604080517feb892a6200000000000000000000000000000000000000000000000000000000815260f160020a612c190260048201529051600160a060020a039092169163eb892a6291602480820192602092909190829003018186803b15801561212757600080fd5b505afa15801561213b573d6000803e3d6000fd5b505050506040513d602081101561215157600080fd5b505160da5560cd54604080517fe0dd23760000000000000000000000000000000000000000000000000000000081529051600160a060020a039092169163e0dd237691600480820192602092909190829003018186803b1580156121b457600080fd5b505afa1580156121c8573d6000803e3d6000fd5b505050506040513d60208110156121de57600080fd5b505160d35560cd54604080517f953bbcf000000000000000000000000000000000000000000000000000000000815260f160020a612c190260048201529051600160a060020a039092169163953bbcf091602480820192602092909190829003018186803b15801561224f57600080fd5b505afa158015612263573d6000803e3d6000fd5b505050506040513d602081101561227957600080fd5b505160d4554360db5560cd54604080517fe480e5b90000000000000000000000000000000000000000000000000000000081529051600160a060020a039092169163e480e5b991600480820192602092909190829003018186803b1580156122e057600080fd5b505afa1580156122f4573d6000803e3d6000fd5b505050506040513d602081101561230a57600080fd5b505160cd54604080517fc4ee19ea0000000000000000000000000000000000000000000000000000000081529051600160a060020a039092169163c4ee19ea91600480820192602092909190829003018186803b15801561236a57600080fd5b505afa15801561237e573d6000803e3d6000fd5b505050506040513d602081101561239457600080fd5b5051116123ad5760dc805460ff191660011790556123b8565b60dc805460ff191690555b60df5460d55560d054604080517f46a9d30300000000000000000000000000000000000000000000000000000000815260f160020a612c190260048201529051600160a060020a03909216916346a9d30391602480820192602092909190829003018186803b15801561242a57600080fd5b505afa15801561243e573d6000803e3d6000fd5b505050506040513d602081101561245457600080fd5b505160d655600060d981905560d88190554360db5560cd54604080517f5e10ad790000000000000000000000000000000000000000000000000000000081529051600160a060020a0390921691635e10ad7991600480820192602092909190829003018186803b1580156124c757600080fd5b505afa1580156124db573d6000803e3d6000fd5b505050506040513d60208110156124f157600080fd5b5051604080517f6acc16ae0000000000000000000000000000000000000000000000000000000081529051919250600160a060020a03831691636acc16ae9160048082019260009290919082900301818387803b15801561255157600080fd5b505af1158015612565573d6000803e3d6000fd5b505060d55460d65460d45460d354604080519485526020850193909352838301919091526060830152517f12346990da30cb0aa3e4ec00b4cc7f6f35983c53366479e4122c7345c3f2443f9350908190036080019150a150565b60d25460d1546125d49163ffffffff6126bb16565b60d15560d85460d981905560408051918252517fdd8e39fd128ad7eb82f1c706af2ab905034f71a76b1d9bca8ddbfde281f9372b9181900360200190a1565b6000858152606760209081526040909120868155855161263b92600290920191870190612e7d565b50600094855260676020526040909420600301805467ffffffffffffffff191667ffffffffffffffff938416176fffffffffffffffff000000000000000019166801000000000000000092909316919091029190911770ff000000000000000000000000000000001916608060020a931515939093029290921790915550565b600082820183811015612718576040805160e560020a62461bcd02815260206004820152601b60248201527f536166654d6174683a206164646974696f6e206f766572666c6f770000000000604482015290519081900360640190fd5b90505b92915050565b60008282111561277b576040805160e560020a62461bcd02815260206004820152601e60248201527f536166654d6174683a207375627472616374696f6e206f766572666c6f770000604482015290519081900360640190fd5b50900390565b600082815260676020526040812090600182015460ff1660028111156127a357fe5b14156127d25760038101546127c1908015612ec8021763ffffffff16565b6001818101805460ff191690911790555b8160005b6002830154811080156127e95750600082115b1561283057600061281384600201838154811061280257fe5b906000526020600020015484612a40565b9050612825838263ffffffff61272116565b9250506001016127d6565b5061283a84612be5565b156104ca57600182018054600260ff199091161790556003820154612874906801000000000000000090048015612ec8021763ffffffff16565b6003820154608060020a900460ff16156104ca576104ca846128d5565b6000918252606760205260409091206003018054911515608060020a0270ff0000000000000000000000000000000019909216919091179055565b600060016117f0565b600081815260676020526040902060018101805460ff1916905561113682612c54565b60408051600080516020612f108339815191528152905190819003600c01902061292d906118176118b4610cf2611b5e612c9a565b60408051600080516020612f9e8339815191528152905190819003601501902061296290611d1b611e43610cf2612062612c9a565b60408051600280825260608083018452926020830190803883390190505090506040518080600080516020612f10833981519152815250600c0190506040518091039020816000815181106129b357fe5b602090810291909101015260408051600080516020612f9e833981519152815290519081900360150190208151829060019081106129ed57fe5b602090810291909101015260408051600080516020612f308339815191528152905190819003600a01902061063490826120bb6125bf6001612d68565b6000818310612a395781612718565b5090919050565b600082815260666020526040812060028082015490600483015460ff166002811115612a6857fe5b1415612a795760009250505061271b565b6000600483015460ff166002811115612a8e57fe5b1415612ae0576001820154612aac908015612ec8021763ffffffff16565b60038301556001820154612ad090608060020a90048015612ec8021763ffffffff16565b60048201805460ff191660011790555b6001600483015460ff166002811115612af557fe5b1415612bc7576000612b21612b178685600201546126bb90919063ffffffff16565b8460030154612a2a565b90505b8083600201541015612b7057612b6083600201548460010160089054906101000a90048015612ec8021767ffffffffffffffff1663ffffffff16565b6002830180546001019055612b24565b826003015483600201541415612bc557600483018054600260ff199091161790556001830154612bc590780100000000000000000000000000000000000000000000000090048015612ec8021763ffffffff16565b505b6002820154612bdc908263ffffffff61272116565b95945050505050565b6000818152606760205260408120600281018054839190612c0d90600163ffffffff61272116565b81548110612c1757fe5b6000918252602080832090910154808352606690915260409091209091506002600482015460ff166002811115612c4a57fe5b1495945050505050565b6000818152606760205260408120905b6002820154811015610f0257612c92826002018281548110612c8257fe5b9060005260206000200154612e1a565b600101612c64565b600085815260666020526040902094855560018501805467ffffffffffffffff191667ffffffffffffffff958616176fffffffffffffffff0000000000000000191668010000000000000000948616949094029390931777ffffffffffffffff000000000000000000000000000000001916608060020a928516929092029190911777ffffffffffffffffffffffffffffffffffffffffffffffff1678010000000000000000000000000000000000000000000000009190931602919091179055600401805460ff19169055565b60008581526067602090815260409091208681558551612d9092600290920191870190612e7d565b506000948552606760205260409094206003810180546001909201805460ff19169055941515608060020a0267ffffffffffffffff92831668010000000000000000026fffffffffffffffff0000000000000000199490931667ffffffffffffffff1990921691909117929092161770ff0000000000000000000000000000000019161790915550565b600090815260666020526040812060048101805460ff1916905560020155565b604080518082019091526000808252602082015290565b815481835581811115610f0257600202816002028360005260206000209182019101610f029190612eca565b828054828255906000526020600020908101928215612eb8579160200282015b82811115612eb8578251825591602001919060010190612e9d565b50612ec4929150612ef5565b5090565bfe5b6104ff91905b80821115612ec4578054600160a060020a031916815560006001820155600201612ed0565b6104ff91905b80821115612ec45760008155600101612efb56fe44656c657665726167696e670000000000000000000000000000000000000000536574746c656d656e740000000000000000000000000000000000000000000041646472657373206973206e6f742077686974656c6973746564000000000000436f6e747261637420696e7374616e63652068617320616c7265616479206265656e20696e697469616c697a6564537461626c65546f6b656e526564656d7074696f6e00000000000000000000006e6f745f617574686f72697a65645f6368616e67657200000000000000000000a265627a7a7231582059d41864ea129b1db5119e440b2eb6207a3f1eb6fc37d27ec29f4336fa229cd964736f6c63430005110032",
  "source": "pragma solidity ^0.5.8;\n\nimport \"openzeppelin-solidity/contracts/math/Math.sol\";\nimport \"openzeppelin-solidity/contracts/math/SafeMath.sol\";\nimport \"./base/MoCBase.sol\";\nimport \"../contracts/token/StableToken.sol\";\nimport \"./interfaces/IMoCState.sol\";\nimport \"./interfaces/IMoCExchange.sol\";\nimport \"./MoCRiskProxManager.sol\";\nimport \"./PartialExecution.sol\";\nimport \"moc-governance/contracts/Governance/Governed.sol\";\nimport \"moc-governance/contracts/Governance/IGovernor.sol\";\nimport \"../contracts/interfaces/IMoCVendors.sol\";\nimport \"./interfaces/IMoCSettlement.sol\";\n\ncontract MoCSettlementEvents {\n  event RedeemRequestAlter(address indexed redeemer, bool isAddition, uint256 delta);\n  event RedeemRequestProcessed(address indexed redeemer, uint256 commission, uint256 amount);\n  event SettlementRedeemStableToken(uint256 queueSize, uint256 accumCommissions, uint256 reservePrice);\n  event SettlementDeleveraging(uint256 leverage, uint256 riskProxPrice, uint256 reservePrice, uint256 startBlockNumber);\n  event SettlementStarted(\n    uint256 stableTokenRedeemCount,\n    uint256 deleveragingCount,\n    uint256 riskProxPrice,\n    uint256 reservePrice\n  );\n  event SettlementCompleted(uint256 commissionsPayed);\n}\n\ncontract MoCSettlement is\nMoCSettlementEvents,\nMoCBase,\nPartialExecution,\nGoverned,\nIMoCSettlement\n{\n  using Math for uint256;\n  using SafeMath for uint256;\n\n  bytes32 public constant StableToken_REDEMPTION_TASK = keccak256(\"StableTokenRedemption\");\n  bytes32 public constant DELEVERAGING_TASK = keccak256(\"Deleveraging\");\n  bytes32 public constant SETTLEMENT_TASK = keccak256(\"Settlement\");\n\n  struct RedeemRequest {\n    address payable who;\n    uint256 amount;\n  }\n\n  struct UserRedeemRequest {\n    uint256 index;\n    bool activeRedeemer;\n  }\n\n  // All necessary data for Settlement execution\n  struct SettlementInfo {\n    uint256 reservePrice;\n    uint256 riskProxPrice;\n    uint256 stableTokenRedeemCount;\n    uint256 deleveragingCount;\n    uint256 riskProxAmount;\n    uint256 partialCommissionAmount;\n    uint256 finalCommissionAmount;\n    uint256 leverage;\n    uint256 startBlockNumber;\n    bool isProtectedMode;\n  }\n\n  // Contracts\n  IMoCState internal mocState;\n  IMoCExchange internal mocExchange;\n  StableToken internal stableToken;\n  MoCRiskProxManager internal riskProxManager;\n\n  /**\n  @dev Block Number of the last successful execution\n  */\n  uint256 internal lastProcessedBlock;\n  /**\n  @dev Min number of blocks settlement should be re evaluated on\n  */\n  uint256 internal blockSpan;\n  /**\n  @dev Information for Settlement execution\n  */\n  SettlementInfo internal settlementInfo;\n  /**\n  @dev Redeem queue\n  */\n  RedeemRequest[] private redeemQueue;\n  mapping(address => UserRedeemRequest) private redeemMapping;\n  uint256 private redeemQueueLength;\n\n  /**\n    @dev Initializes the contract\n    @param connectorAddress MoCConnector contract address\n    @param _governor Governor contract address\n    @param _blockSpan Blockspan configuration blockspan of settlement\n  */\n  function initialize(\n    address connectorAddress,\n    address _governor,\n    uint256 _blockSpan\n  ) public initializer {\n    initializeBase(connectorAddress);\n    initializeContracts();\n    initializeValues(_governor, _blockSpan);\n  }\n\n  /************************************/\n  /***** UPGRADE v0116       ***********/\n  /************************************/\n  \n  // DEPRECATED. \n  // This function was used atomically in upgrade v0115 to migrate stableTokenV1 to stableTokenV2\n  // After that, it is removed in this contract version to cannot be called more than once.\n  //\n  // event StableTokenMigrated(address oldStableTokenAddress_, address newStableTokenAddress_);\n  //\n  // /**\n  //   @dev Migrates to a new stable token contract\n  //   @param newStableTokenAddress_ new stable token contract address\n  // */\n  // function migrateStableToken(address newStableTokenAddress_) public {\n  //   emit StableTokenMigrated(address(stableToken), newStableTokenAddress_);  \n  //   stableToken = StableToken(newStableTokenAddress_);\n  // }\n\n  /**\n   *  @dev Set the blockspan configuration blockspan of settlement\n   */\n  function setBlockSpan(uint256 bSpan) public onlyAuthorizedChanger() {\n    blockSpan = bSpan;\n  }\n\n  /**\n   *  @dev Set Settlement to be kept in finnished state after\n   *  all execution is completed.\n   */\n  function setSettlementToStall() public onlyAuthorizedChanger() {\n    setAutoRestart(SETTLEMENT_TASK, false);\n  }\n\n  /**\n   *  @dev Set Settlement state to Ready\n   */\n  function restartSettlementState() public onlyAuthorizedChanger() {\n    resetGroup(SETTLEMENT_TASK);\n    setAutoRestart(SETTLEMENT_TASK, true);\n  }\n\n  /**\n    @dev Gets the RedeemRequest at the queue index position\n    @param _index queue position to get\n    @return redeemer's address and amount he submitted\n  */\n  function getRedeemRequestAt(uint256 _index)\n  public\n  view\n  withinBoundaries(_index)\n  returns (address payable, uint256)\n  {\n    return (redeemQueue[_index].who, redeemQueue[_index].amount);\n  }\n\n  /**\n    @dev Gets the number of blocks the settlemnet will be allowed to run\n  */\n  function getBlockSpan() public view returns (uint256) {\n    return blockSpan;\n  }\n\n  /**\n    @dev Verify that the index is smaller than the length of the redeem request queue\n    @param _index queue position to get\n  */\n  modifier withinBoundaries(uint256 _index) {\n    require(_index < redeemQueueLength, \"Index out of boundaries\");\n    _;\n  }\n\n  /**\n    @dev returns current redeem queue size\n  */\n  function redeemQueueSize() public view returns (uint256) {\n    return redeemQueueLength;\n  }\n\n  /**\n    @dev Returns true if blockSpan number of blocks has pass since last execution\n  */\n  function isSettlementEnabled() public view returns (bool) {\n    return nextSettlementBlock() <= block.number;\n  }\n\n  /**\n    @dev Returns true if the settlment is running\n  */\n  function isSettlementRunning() public view returns (bool) {\n    return isGroupRunning(SETTLEMENT_TASK);\n  }\n\n  /**\n    @dev Returns true if the settlment is ready\n  */\n  function isSettlementReady() public view returns (bool) {\n    return isGroupReady(SETTLEMENT_TASK);\n  }\n\n  /**\n    @dev Returns the next block from which settlement is possible\n  */\n  function nextSettlementBlock() public view returns (uint256) {\n    return lastProcessedBlock.add(blockSpan);\n  }\n\n  /**\n    @dev returns the total amount of StableTokens in the redeem queue for _who\n    @param _who address for which ^ is computed\n    @return total amount of StableTokens in the redeem queue for _who [using mocPrecision]\n  */\n  function stableTokenAmountToRedeem(address _who) public view returns (uint256) {\n    if (!redeemMapping[_who].activeRedeemer) {\n      return 0;\n    }\n\n    uint256 indexRedeem = redeemMapping[_who].index;\n    RedeemRequest memory redeemRequest = redeemQueue[indexRedeem];\n    return redeemRequest.amount;\n  }\n\n  /**\n    @dev push a new redeem request to the queue for the sender or updates the amount if the user has a redeem request\n    @param amount amount he is willing to redeem [using mocPrecision]\n    @param redeemer redeemer address\n  */\n  function addRedeemRequest(uint256 amount, address payable redeemer)\n  public\n  onlyWhitelisted(msg.sender)\n  {\n    if (!redeemMapping[redeemer].activeRedeemer) {\n      if (redeemQueueLength == redeemQueue.length) {\n        redeemQueue.length += 1;\n      }\n      uint256 index = redeemQueueLength;\n      redeemQueue[redeemQueueLength++] = RedeemRequest(redeemer, amount);\n      redeemMapping[redeemer] = UserRedeemRequest(index, true);\n      emit RedeemRequestAlter(redeemer, true, amount);\n    } else {\n      alterRedeemRequestAmount(true, amount, redeemer);\n    }\n  }\n\n  /**\n    @dev empty the queue\n  */\n  function clear() public onlyWhitelisted(msg.sender) {\n    redeemQueueLength = 0;\n  }\n\n  /**\n    @dev Alters the redeem amount position for the redeemer\n    @param isAddition true if adding amount to redeem, false to substract.\n    @param delta the amount to add/substract to current position [using mocPrecision]\n    @param redeemer address to alter amount for\n    @return the filled amount [using mocPrecision]\n  */\n  function alterRedeemRequestAmount(\n    bool isAddition,\n    uint256 delta,\n    address redeemer\n  ) public onlyWhitelisted(msg.sender) {\n    require(\n      redeemMapping[redeemer].activeRedeemer,\n      \"This is not an active redeemer\"\n    );\n    uint256 indexRedeem = redeemMapping[redeemer].index;\n    RedeemRequest storage redeemRequest = redeemQueue[indexRedeem];\n    require(redeemRequest.who == redeemer, \"Not allowed redeemer\");\n    uint256 actualDelta = delta;\n    if (isAddition) {\n      redeemRequest.amount = redeemRequest.amount.add(delta);\n    } else {\n      if (redeemRequest.amount < delta) {\n        actualDelta = redeemRequest.amount;\n        redeemRequest.amount = 0;\n      } else {\n        redeemRequest.amount = redeemRequest.amount.sub(delta);\n      }\n    }\n    emit RedeemRequestAlter(redeemer, isAddition, actualDelta);\n  }\n\n  /**\n    @dev Runs settlement process in steps\n    @param steps Amount of steps to run\n    @return The commissions collected in the executed steps\n  */\n  function runSettlement(uint256 steps)\n  public\n  onlyWhitelisted(msg.sender)\n  isTime()\n  returns (uint256)\n  {\n    executeGroup(SETTLEMENT_TASK, steps);\n\n    return settlementInfo.finalCommissionAmount;\n  }\n\n  /**\n  @dev Create Task structures for Settlement execution\n  */\n  function fixTasksPointer() public {\n    resetTaskPointers(\n      DELEVERAGING_TASK,\n      deleveragingStepCount,\n      deleveragingStep,\n      noFunction,\n      finishDeleveraging\n    );\n    resetTaskPointers(\n      StableToken_REDEMPTION_TASK,\n      stableTokenRedemptionStepCount,\n      stableTokenRedemptionStep,\n      noFunction,\n      finishStableTokenRedemption\n    );\n\n    bytes32[] memory tasks = new bytes32[](2);\n    tasks[0] = DELEVERAGING_TASK;\n    tasks[1] = StableToken_REDEMPTION_TASK;\n\n    resetTaskGroupPointers(\n      SETTLEMENT_TASK,\n      tasks,\n      initializeSettlement,\n      finishSettlement,\n      true\n    );\n  }\n\n  function initializeContracts() internal {\n    stableToken = StableToken(connector.stableToken());\n    riskProxManager = MoCRiskProxManager(connector.riskProxManager());\n    mocState = IMoCState(connector.mocState());\n    mocExchange = IMoCExchange(connector.mocExchange());\n  }\n\n  function initializeValues(address _governor, uint256 _blockSpan) internal {\n    governor = IGovernor(_governor);\n    blockSpan = _blockSpan;\n    lastProcessedBlock = block.number;\n    initializeTasks();\n  }\n\n  modifier isTime() {\n    require(isSettlementEnabled(), \"Settlement not yet enabled\");\n    _;\n  }\n\n  /**************************************************/\n  /******************** TASKS ***********************/\n  /**************************************************/\n\n  /**\n  @dev Returns the amount of steps for the Deleveraging task\n  which is the amount of active RiskProx addresses\n*/\n  function deleveragingStepCount() internal view returns (uint256) {\n    return riskProxManager.getActiveAddressesCount(BUCKET_X2);\n  }\n\n  /**\n  @dev Returns the amount of steps for the StableToken Redemption task\n  which is the amount of redeem requests in the queue\n*/\n  function stableTokenRedemptionStepCount() internal view returns (uint256) {\n    // If Protected Mode is reached, DoCs in queue must not be redeemed until next settlement\n    if (mocState.globalCoverage() <= mocState.getProtected()) {\n      return 0;\n    }\n    return redeemQueueLength;\n  }\n\n  /**\n  @dev Freezes state for Settlement execution\n*/\n  function initializeSettlement() internal {\n    settlementInfo.leverage = mocState.leverage(BUCKET_X2);\n    settlementInfo.reservePrice = mocState.getReserveTokenPrice();\n    settlementInfo.riskProxPrice = mocState.bucketRiskProTecPrice(BUCKET_X2);\n    settlementInfo.startBlockNumber = block.number;\n\n    // Protected Mode\n    if (mocState.globalCoverage() <= mocState.getProtected()) {\n      settlementInfo.isProtectedMode = true;\n    } else {\n      settlementInfo.isProtectedMode = false;\n    }\n\n    settlementInfo.stableTokenRedeemCount = redeemQueueLength;\n    settlementInfo.deleveragingCount = riskProxManager.getActiveAddressesCount(\n      BUCKET_X2\n    );\n    settlementInfo.finalCommissionAmount = 0;\n    settlementInfo.partialCommissionAmount = 0;\n    settlementInfo.startBlockNumber = block.number;\n\n    // Reset total paid in MoC for every vendor\n    IMoCVendors mocVendors = IMoCVendors(mocState.getMoCVendors());\n    mocVendors.resetTotalPaidInMoC();\n\n    emit SettlementStarted(\n      settlementInfo.stableTokenRedeemCount,\n      settlementInfo.deleveragingCount,\n      settlementInfo.riskProxPrice,\n      settlementInfo.reservePrice\n    );\n  }\n\n  /**\n  @dev Execute final step of Settlement task group\n*/\n  function finishSettlement() internal {\n    lastProcessedBlock = lastProcessedBlock.add(blockSpan);\n    settlementInfo.finalCommissionAmount = settlementInfo\n    .partialCommissionAmount;\n    emit SettlementCompleted(settlementInfo.finalCommissionAmount);\n  }\n\n  /**\n  @dev Execute final step of Deleveraging task\n*/\n  function finishDeleveraging() internal {\n    emit SettlementDeleveraging(\n      settlementInfo.leverage,\n      settlementInfo.riskProxPrice,\n      settlementInfo.reservePrice,\n      settlementInfo.startBlockNumber\n    );\n\n    riskProxManager.emptyBucket(BUCKET_X2, BUCKET_C0);\n  }\n\n  /**\n  @dev Execute final step of StableTokenRedemption task\n*/\n  function finishStableTokenRedemption() internal {\n    emit SettlementRedeemStableToken(\n      settlementInfo.stableTokenRedeemCount,\n      settlementInfo.finalCommissionAmount,\n      settlementInfo.reservePrice\n    );\n\n    if (!settlementInfo.isProtectedMode) {\n      clear();\n    }\n  }\n\n  /**\n  @dev Individual Deleveraging step to be executed in partial execution\n  uint256 parameter needed for PartialExecution\n*/\n  function deleveragingStep(uint256) internal {\n    // We just pop the first element because the redemption always remove the address.\n    address payable userAddress = riskProxManager.getActiveAddresses(\n      BUCKET_X2\n    )[0];\n    uint256 riskProxBalance = riskProxManager.riskProxBalanceOf(\n      BUCKET_X2,\n      userAddress\n    );\n\n    // ReserveTokens sending could only fail if the receiving address\n    // executes code and reverts. If that happens, the user will lose\n    // his RiskProx and ReserveTokens will be kept in MoC.\n    mocExchange.forceRedeemRiskProx(\n      BUCKET_X2,\n      userAddress,\n      riskProxBalance,\n      settlementInfo.riskProxPrice\n    );\n  }\n\n  /**\n  @dev Individual StableTokenRedemption step to be executed in partial execution\n  @param index Step number currently in execution\n*/\n  function stableTokenRedemptionStep(uint256 index) internal {\n    (address payable redeemer, uint256 redeemAmount) = getRedeemRequestAt(\n      index\n    );\n    uint256 userStableTokenBalance = stableToken.balanceOf(redeemer);\n    uint256 amountToRedeem = Math.min(userStableTokenBalance, redeemAmount);\n    if (amountToRedeem > 0) {\n      (bool result, uint256 reserveTokenCommissionSpent) = mocExchange\n      .redeemStableTokenWithPrice(\n        redeemer,\n        amountToRedeem,\n        settlementInfo.reservePrice\n      );\n      // Redemption can fail if the receiving address is a contract\n      if (result) {\n        emit RedeemRequestProcessed(\n          redeemer,\n          reserveTokenCommissionSpent,\n          amountToRedeem\n        );\n        settlementInfo.partialCommissionAmount = settlementInfo\n        .partialCommissionAmount\n        .add(reserveTokenCommissionSpent);\n      }\n    }\n    UserRedeemRequest storage userReedem = redeemMapping[redeemer];\n    userReedem.activeRedeemer = false;\n    redeemQueue[index].amount = 0;\n  }\n\n  /**\n  @dev Create Task structures for Settlement execution\n*/\n  function initializeTasks() internal {\n    createTask(\n      DELEVERAGING_TASK,\n      deleveragingStepCount,\n      deleveragingStep,\n      noFunction,\n      finishDeleveraging\n    );\n    createTask(\n      StableToken_REDEMPTION_TASK,\n      stableTokenRedemptionStepCount,\n      stableTokenRedemptionStep,\n      noFunction,\n      finishStableTokenRedemption\n    );\n\n    bytes32[] memory tasks = new bytes32[](2);\n    tasks[0] = DELEVERAGING_TASK;\n    tasks[1] = StableToken_REDEMPTION_TASK;\n\n    createTaskGroup(\n      SETTLEMENT_TASK,\n      tasks,\n      initializeSettlement,\n      finishSettlement,\n      true\n    );\n  }\n\n  // Leave a gap betweeen inherited contracts variables in order to be\n  // able to add more variables in them later\n  uint256[50] private upgradeGap;\n}\n",
  "sourcePath": "/Users/f.ruiz/projects/moc/RDOC-Contract-Internal/contracts_updated/MoCSettlement.sol",
  "compiler": {
    "name": "solc",
    "version": "0.5.17+commit.d19bba13.Emscripten.clang"
  },
  "schemaVersion": "3.0.11",
  "updatedAt": "2023-05-12T22:20:29.578Z",
  "devdoc": {
    "methods": {
      "addRedeemRequest(uint256,address)": {
        "details": "push a new redeem request to the queue for the sender or updates the amount if the user has a redeem request",
        "params": {
          "amount": "amount he is willing to redeem [using mocPrecision]",
          "redeemer": "redeemer address"
        }
      },
      "alterRedeemRequestAmount(bool,uint256,address)": {
        "details": "Alters the redeem amount position for the redeemer",
        "params": {
          "delta": "the amount to add/substract to current position [using mocPrecision]",
          "isAddition": "true if adding amount to redeem, false to substract.",
          "redeemer": "address to alter amount for"
        },
        "return": "the filled amount [using mocPrecision]"
      },
      "changeIGovernor(address)": {
        "params": {
          "newIGovernor": "New governor address"
        }
      },
      "clear()": {
        "details": "empty the queue"
      },
      "fixTasksPointer()": {
        "details": "Create Task structures for Settlement execution"
      },
      "getBlockSpan()": {
        "details": "Gets the number of blocks the settlemnet will be allowed to run"
      },
      "getRedeemRequestAt(uint256)": {
        "details": "Gets the RedeemRequest at the queue index position",
        "params": {
          "_index": "queue position to get"
        },
        "return": "redeemer's address and amount he submitted"
      },
      "initialize(address)": {
        "details": "This initialize replaces the constructor but it is not called automatically. It is necessary because of the upgradeability of the contracts",
        "params": {
          "_governor": "Governor address"
        }
      },
      "initialize(address,address,uint256)": {
        "details": "Initializes the contract",
        "params": {
          "_blockSpan": "Blockspan configuration blockspan of settlement",
          "_governor": "Governor contract address",
          "connectorAddress": "MoCConnector contract address"
        }
      },
      "isSettlementEnabled()": {
        "details": "Returns true if blockSpan number of blocks has pass since last execution"
      },
      "isSettlementReady()": {
        "details": "Returns true if the settlment is ready"
      },
      "isSettlementRunning()": {
        "details": "Returns true if the settlment is running"
      },
      "nextSettlementBlock()": {
        "details": "Returns the next block from which settlement is possible"
      },
      "redeemQueueSize()": {
        "details": "returns current redeem queue size"
      },
      "restartSettlementState()": {
        "details": "Set Settlement state to Ready"
      },
      "runSettlement(uint256)": {
        "details": "Runs settlement process in steps",
        "params": {
          "steps": "Amount of steps to run"
        },
        "return": "The commissions collected in the executed steps"
      },
      "setBlockSpan(uint256)": {
        "details": "Set the blockspan configuration blockspan of settlement"
      },
      "setSettlementToStall()": {
        "details": "Set Settlement to be kept in finnished state after all execution is completed."
      },
      "stableTokenAmountToRedeem(address)": {
        "details": "returns the total amount of StableTokens in the redeem queue for _who",
        "params": {
          "_who": "address for which ^ is computed"
        },
        "return": "total amount of StableTokens in the redeem queue for _who [using mocPrecision]"
      }
    }
  },
  "userdoc": {
    "methods": {
      "changeIGovernor(address)": {
        "notice": "Change the contract's governor. Should be called through the old governance system"
      },
      "initialize(address)": {
        "notice": "Initialize the contract with the basic settings"
      }
    }
  }
}