{
  "contractName": "MoCState",
  "abi": [
    {
      "anonymous": false,
      "inputs": [
        {
          "indexed": false,
          "internalType": "address",
          "name": "oldAddress",
          "type": "address"
        },
        {
          "indexed": false,
          "internalType": "address",
          "name": "newAddress",
          "type": "address"
        }
      ],
      "name": "MoCPriceProviderUpdated",
      "type": "event"
    },
    {
      "anonymous": false,
      "inputs": [
        {
          "indexed": false,
          "internalType": "address",
          "name": "mocTokenAddress",
          "type": "address"
        }
      ],
      "name": "MoCTokenChanged",
      "type": "event"
    },
    {
      "anonymous": false,
      "inputs": [
        {
          "indexed": false,
          "internalType": "address",
          "name": "mocVendorsAddress",
          "type": "address"
        }
      ],
      "name": "MoCVendorsChanged",
      "type": "event"
    },
    {
      "anonymous": false,
      "inputs": [
        {
          "indexed": false,
          "internalType": "uint256",
          "name": "price",
          "type": "uint256"
        },
        {
          "indexed": false,
          "internalType": "uint256",
          "name": "movingAverage",
          "type": "uint256"
        }
      ],
      "name": "MovingAverageCalculation",
      "type": "event"
    },
    {
      "anonymous": false,
      "inputs": [
        {
          "indexed": false,
          "internalType": "address",
          "name": "oldAddress",
          "type": "address"
        },
        {
          "indexed": false,
          "internalType": "address",
          "name": "newAddress",
          "type": "address"
        }
      ],
      "name": "PriceProviderUpdated",
      "type": "event"
    },
    {
      "anonymous": false,
      "inputs": [
        {
          "indexed": false,
          "internalType": "enum IMoCState.States",
          "name": "newState",
          "type": "uint8"
        }
      ],
      "name": "StateTransition",
      "type": "event"
    },
    {
      "constant": true,
      "inputs": [],
      "name": "BUCKET_C0",
      "outputs": [
        {
          "internalType": "bytes32",
          "name": "",
          "type": "bytes32"
        }
      ],
      "payable": false,
      "stateMutability": "view",
      "type": "function"
    },
    {
      "constant": true,
      "inputs": [],
      "name": "BUCKET_X2",
      "outputs": [
        {
          "internalType": "bytes32",
          "name": "",
          "type": "bytes32"
        }
      ],
      "payable": false,
      "stateMutability": "view",
      "type": "function"
    },
    {
      "constant": true,
      "inputs": [],
      "name": "FACTOR_PRECISION",
      "outputs": [
        {
          "internalType": "uint256",
          "name": "",
          "type": "uint256"
        }
      ],
      "payable": false,
      "stateMutability": "view",
      "type": "function"
    },
    {
      "constant": true,
      "inputs": [],
      "name": "PRICE_PRECISION",
      "outputs": [
        {
          "internalType": "uint256",
          "name": "",
          "type": "uint256"
        }
      ],
      "payable": false,
      "stateMutability": "view",
      "type": "function"
    },
    {
      "constant": false,
      "inputs": [
        {
          "internalType": "contract IGovernor",
          "name": "newIGovernor",
          "type": "address"
        }
      ],
      "name": "changeIGovernor",
      "outputs": [],
      "payable": false,
      "stateMutability": "nonpayable",
      "type": "function"
    },
    {
      "constant": true,
      "inputs": [],
      "name": "connector",
      "outputs": [
        {
          "internalType": "contract MoCConnector",
          "name": "",
          "type": "address"
        }
      ],
      "payable": false,
      "stateMutability": "view",
      "type": "function"
    },
    {
      "constant": true,
      "inputs": [],
      "name": "dayBlockSpan",
      "outputs": [
        {
          "internalType": "uint256",
          "name": "",
          "type": "uint256"
        }
      ],
      "payable": false,
      "stateMutability": "view",
      "type": "function"
    },
    {
      "constant": true,
      "inputs": [],
      "name": "emaCalculationBlockSpan",
      "outputs": [
        {
          "internalType": "uint256",
          "name": "",
          "type": "uint256"
        }
      ],
      "payable": false,
      "stateMutability": "view",
      "type": "function"
    },
    {
      "constant": true,
      "inputs": [],
      "name": "getDayPrecision",
      "outputs": [
        {
          "internalType": "uint256",
          "name": "",
          "type": "uint256"
        }
      ],
      "payable": false,
      "stateMutability": "view",
      "type": "function"
    },
    {
      "constant": true,
      "inputs": [],
      "name": "getEmaCalculationBlockSpan",
      "outputs": [
        {
          "internalType": "uint256",
          "name": "",
          "type": "uint256"
        }
      ],
      "payable": false,
      "stateMutability": "view",
      "type": "function"
    },
    {
      "constant": true,
      "inputs": [],
      "name": "getExponentalMovingAverage",
      "outputs": [
        {
          "internalType": "uint256",
          "name": "",
          "type": "uint256"
        }
      ],
      "payable": false,
      "stateMutability": "view",
      "type": "function"
    },
    {
      "constant": true,
      "inputs": [],
      "name": "getGovernorAddress",
      "outputs": [
        {
          "internalType": "address",
          "name": "",
          "type": "address"
        }
      ],
      "payable": false,
      "stateMutability": "view",
      "type": "function"
    },
    {
      "constant": true,
      "inputs": [],
      "name": "getLastEmaCalculation",
      "outputs": [
        {
          "internalType": "uint256",
          "name": "",
          "type": "uint256"
        }
      ],
      "payable": false,
      "stateMutability": "view",
      "type": "function"
    },
    {
      "constant": true,
      "inputs": [],
      "name": "getMocPrecision",
      "outputs": [
        {
          "internalType": "uint256",
          "name": "",
          "type": "uint256"
        }
      ],
      "payable": false,
      "stateMutability": "view",
      "type": "function"
    },
    {
      "constant": true,
      "inputs": [],
      "name": "getReservePrecision",
      "outputs": [
        {
          "internalType": "uint256",
          "name": "",
          "type": "uint256"
        }
      ],
      "payable": false,
      "stateMutability": "view",
      "type": "function"
    },
    {
      "constant": true,
      "inputs": [],
      "name": "getSmoothingFactor",
      "outputs": [
        {
          "internalType": "uint256",
          "name": "",
          "type": "uint256"
        }
      ],
      "payable": false,
      "stateMutability": "view",
      "type": "function"
    },
    {
      "constant": true,
      "inputs": [],
      "name": "governor",
      "outputs": [
        {
          "internalType": "contract IGovernor",
          "name": "",
          "type": "address"
        }
      ],
      "payable": false,
      "stateMutability": "view",
      "type": "function"
    },
    {
      "constant": true,
      "inputs": [],
      "name": "lastEmaCalculation",
      "outputs": [
        {
          "internalType": "uint256",
          "name": "",
          "type": "uint256"
        }
      ],
      "payable": false,
      "stateMutability": "view",
      "type": "function"
    },
    {
      "constant": true,
      "inputs": [],
      "name": "liq",
      "outputs": [
        {
          "internalType": "uint256",
          "name": "",
          "type": "uint256"
        }
      ],
      "payable": false,
      "stateMutability": "view",
      "type": "function"
    },
    {
      "constant": true,
      "inputs": [],
      "name": "liquidationEnabled",
      "outputs": [
        {
          "internalType": "bool",
          "name": "",
          "type": "bool"
        }
      ],
      "payable": false,
      "stateMutability": "view",
      "type": "function"
    },
    {
      "constant": true,
      "inputs": [],
      "name": "liquidationPrice",
      "outputs": [
        {
          "internalType": "uint256",
          "name": "",
          "type": "uint256"
        }
      ],
      "payable": false,
      "stateMutability": "view",
      "type": "function"
    },
    {
      "constant": true,
      "inputs": [],
      "name": "maxMintRiskPro",
      "outputs": [
        {
          "internalType": "uint256",
          "name": "",
          "type": "uint256"
        }
      ],
      "payable": false,
      "stateMutability": "view",
      "type": "function"
    },
    {
      "constant": true,
      "inputs": [],
      "name": "peg",
      "outputs": [
        {
          "internalType": "uint256",
          "name": "",
          "type": "uint256"
        }
      ],
      "payable": false,
      "stateMutability": "view",
      "type": "function"
    },
    {
      "constant": true,
      "inputs": [],
      "name": "protected",
      "outputs": [
        {
          "internalType": "uint256",
          "name": "",
          "type": "uint256"
        }
      ],
      "payable": false,
      "stateMutability": "view",
      "type": "function"
    },
    {
      "constant": true,
      "inputs": [],
      "name": "reserves",
      "outputs": [
        {
          "internalType": "uint256",
          "name": "",
          "type": "uint256"
        }
      ],
      "payable": false,
      "stateMutability": "view",
      "type": "function"
    },
    {
      "constant": true,
      "inputs": [],
      "name": "riskProMaxDiscountRate",
      "outputs": [
        {
          "internalType": "uint256",
          "name": "",
          "type": "uint256"
        }
      ],
      "payable": false,
      "stateMutability": "view",
      "type": "function"
    },
    {
      "constant": false,
      "inputs": [
        {
          "internalType": "uint256",
          "name": "blockSpan",
          "type": "uint256"
        }
      ],
      "name": "setEmaCalculationBlockSpan",
      "outputs": [],
      "payable": false,
      "stateMutability": "nonpayable",
      "type": "function"
    },
    {
      "constant": false,
      "inputs": [
        {
          "internalType": "uint256",
          "name": "factor",
          "type": "uint256"
        }
      ],
      "name": "setSmoothingFactor",
      "outputs": [],
      "payable": false,
      "stateMutability": "nonpayable",
      "type": "function"
    },
    {
      "constant": true,
      "inputs": [],
      "name": "shouldCalculateEma",
      "outputs": [
        {
          "internalType": "bool",
          "name": "",
          "type": "bool"
        }
      ],
      "payable": false,
      "stateMutability": "view",
      "type": "function"
    },
    {
      "constant": true,
      "inputs": [],
      "name": "smoothingFactor",
      "outputs": [
        {
          "internalType": "uint256",
          "name": "",
          "type": "uint256"
        }
      ],
      "payable": false,
      "stateMutability": "view",
      "type": "function"
    },
    {
      "constant": true,
      "inputs": [],
      "name": "state",
      "outputs": [
        {
          "internalType": "enum IMoCState.States",
          "name": "",
          "type": "uint8"
        }
      ],
      "payable": false,
      "stateMutability": "view",
      "type": "function"
    },
    {
      "constant": true,
      "inputs": [],
      "name": "utpdu",
      "outputs": [
        {
          "internalType": "uint256",
          "name": "",
          "type": "uint256"
        }
      ],
      "payable": false,
      "stateMutability": "view",
      "type": "function"
    },
    {
      "constant": false,
      "inputs": [
        {
          "components": [
            {
              "internalType": "address",
              "name": "connectorAddress",
              "type": "address"
            },
            {
              "internalType": "address",
              "name": "governor",
              "type": "address"
            },
            {
              "internalType": "address",
              "name": "priceProvider",
              "type": "address"
            },
            {
              "internalType": "uint256",
              "name": "liq",
              "type": "uint256"
            },
            {
              "internalType": "uint256",
              "name": "utpdu",
              "type": "uint256"
            },
            {
              "internalType": "uint256",
              "name": "maxDiscRate",
              "type": "uint256"
            },
            {
              "internalType": "uint256",
              "name": "dayBlockSpan",
              "type": "uint256"
            },
            {
              "internalType": "uint256",
              "name": "ema",
              "type": "uint256"
            },
            {
              "internalType": "uint256",
              "name": "smoothFactor",
              "type": "uint256"
            },
            {
              "internalType": "uint256",
              "name": "emaBlockSpan",
              "type": "uint256"
            },
            {
              "internalType": "uint256",
              "name": "maxMintRiskPro",
              "type": "uint256"
            },
            {
              "internalType": "address",
              "name": "mocPriceProvider",
              "type": "address"
            },
            {
              "internalType": "address",
              "name": "mocTokenAddress",
              "type": "address"
            },
            {
              "internalType": "address",
              "name": "mocVendorsAddress",
              "type": "address"
            },
            {
              "internalType": "bool",
              "name": "liquidationEnabled",
              "type": "bool"
            },
            {
              "internalType": "uint256",
              "name": "protected",
              "type": "uint256"
            }
          ],
          "internalType": "struct MoCState.InitializeParams",
          "name": "params",
          "type": "tuple"
        }
      ],
      "name": "initialize",
      "outputs": [],
      "payable": false,
      "stateMutability": "nonpayable",
      "type": "function"
    },
    {
      "constant": false,
      "inputs": [
        {
          "internalType": "contract IGovernor",
          "name": "_governor",
          "type": "address"
        }
      ],
      "name": "initialize",
      "outputs": [],
      "payable": false,
      "stateMutability": "nonpayable",
      "type": "function"
    },
    {
      "constant": false,
      "inputs": [
        {
          "internalType": "uint256",
          "name": "rate",
          "type": "uint256"
        }
      ],
      "name": "setMaxDiscountRate",
      "outputs": [],
      "payable": false,
      "stateMutability": "nonpayable",
      "type": "function"
    },
    {
      "constant": true,
      "inputs": [],
      "name": "getMaxDiscountRate",
      "outputs": [
        {
          "internalType": "uint256",
          "name": "",
          "type": "uint256"
        }
      ],
      "payable": false,
      "stateMutability": "view",
      "type": "function"
    },
    {
      "constant": false,
      "inputs": [
        {
          "internalType": "uint256",
          "name": "blockSpan",
          "type": "uint256"
        }
      ],
      "name": "setDayBlockSpan",
      "outputs": [],
      "payable": false,
      "stateMutability": "nonpayable",
      "type": "function"
    },
    {
      "constant": false,
      "inputs": [
        {
          "internalType": "address",
          "name": "priceProviderAddress",
          "type": "address"
        }
      ],
      "name": "setPriceProvider",
      "outputs": [],
      "payable": false,
      "stateMutability": "nonpayable",
      "type": "function"
    },
    {
      "constant": true,
      "inputs": [],
      "name": "getPriceProvider",
      "outputs": [
        {
          "internalType": "address",
          "name": "",
          "type": "address"
        }
      ],
      "payable": false,
      "stateMutability": "view",
      "type": "function"
    },
    {
      "constant": true,
      "inputs": [],
      "name": "getDayBlockSpan",
      "outputs": [
        {
          "internalType": "uint256",
          "name": "",
          "type": "uint256"
        }
      ],
      "payable": false,
      "stateMutability": "view",
      "type": "function"
    },
    {
      "constant": false,
      "inputs": [
        {
          "internalType": "uint256",
          "name": "amount",
          "type": "uint256"
        }
      ],
      "name": "substractFromReserves",
      "outputs": [],
      "payable": false,
      "stateMutability": "nonpayable",
      "type": "function"
    },
    {
      "constant": false,
      "inputs": [
        {
          "internalType": "uint256",
          "name": "amount",
          "type": "uint256"
        }
      ],
      "name": "addToReserves",
      "outputs": [],
      "payable": false,
      "stateMutability": "nonpayable",
      "type": "function"
    },
    {
      "constant": true,
      "inputs": [],
      "name": "riskProTotalSupply",
      "outputs": [
        {
          "internalType": "uint256",
          "name": "",
          "type": "uint256"
        }
      ],
      "payable": false,
      "stateMutability": "view",
      "type": "function"
    },
    {
      "constant": true,
      "inputs": [],
      "name": "stableTokenTotalSupply",
      "outputs": [
        {
          "internalType": "uint256",
          "name": "",
          "type": "uint256"
        }
      ],
      "payable": false,
      "stateMutability": "view",
      "type": "function"
    },
    {
      "constant": true,
      "inputs": [],
      "name": "cobj",
      "outputs": [
        {
          "internalType": "uint256",
          "name": "",
          "type": "uint256"
        }
      ],
      "payable": false,
      "stateMutability": "view",
      "type": "function"
    },
    {
      "constant": true,
      "inputs": [],
      "name": "collateralReserves",
      "outputs": [
        {
          "internalType": "uint256",
          "name": "",
          "type": "uint256"
        }
      ],
      "payable": false,
      "stateMutability": "view",
      "type": "function"
    },
    {
      "constant": true,
      "inputs": [],
      "name": "globalCoverage",
      "outputs": [
        {
          "internalType": "uint256",
          "name": "",
          "type": "uint256"
        }
      ],
      "payable": false,
      "stateMutability": "view",
      "type": "function"
    },
    {
      "constant": true,
      "inputs": [
        {
          "internalType": "bytes32",
          "name": "bucket",
          "type": "bytes32"
        }
      ],
      "name": "lockedReserveTokens",
      "outputs": [
        {
          "internalType": "uint256",
          "name": "",
          "type": "uint256"
        }
      ],
      "payable": false,
      "stateMutability": "view",
      "type": "function"
    },
    {
      "constant": true,
      "inputs": [
        {
          "internalType": "bytes32",
          "name": "bucket",
          "type": "bytes32"
        }
      ],
      "name": "getResTokensInRiskPro",
      "outputs": [
        {
          "internalType": "uint256",
          "name": "",
          "type": "uint256"
        }
      ],
      "payable": false,
      "stateMutability": "view",
      "type": "function"
    },
    {
      "constant": true,
      "inputs": [],
      "name": "getReservesRemainder",
      "outputs": [
        {
          "internalType": "uint256",
          "name": "",
          "type": "uint256"
        }
      ],
      "payable": false,
      "stateMutability": "view",
      "type": "function"
    },
    {
      "constant": true,
      "inputs": [
        {
          "internalType": "bytes32",
          "name": "bucket",
          "type": "bytes32"
        }
      ],
      "name": "coverage",
      "outputs": [
        {
          "internalType": "uint256",
          "name": "",
          "type": "uint256"
        }
      ],
      "payable": false,
      "stateMutability": "view",
      "type": "function"
    },
    {
      "constant": true,
      "inputs": [
        {
          "internalType": "uint256",
          "name": "stableToken0",
          "type": "uint256"
        }
      ],
      "name": "abundanceRatio",
      "outputs": [
        {
          "internalType": "uint256",
          "name": "",
          "type": "uint256"
        }
      ],
      "payable": false,
      "stateMutability": "view",
      "type": "function"
    },
    {
      "constant": true,
      "inputs": [],
      "name": "currentAbundanceRatio",
      "outputs": [
        {
          "internalType": "uint256",
          "name": "",
          "type": "uint256"
        }
      ],
      "payable": false,
      "stateMutability": "view",
      "type": "function"
    },
    {
      "constant": true,
      "inputs": [
        {
          "internalType": "bytes32",
          "name": "bucket",
          "type": "bytes32"
        }
      ],
      "name": "leverage",
      "outputs": [
        {
          "internalType": "uint256",
          "name": "",
          "type": "uint256"
        }
      ],
      "payable": false,
      "stateMutability": "view",
      "type": "function"
    },
    {
      "constant": true,
      "inputs": [],
      "name": "globalMaxStableToken",
      "outputs": [
        {
          "internalType": "uint256",
          "name": "",
          "type": "uint256"
        }
      ],
      "payable": false,
      "stateMutability": "view",
      "type": "function"
    },
    {
      "constant": true,
      "inputs": [],
      "name": "freeStableToken",
      "outputs": [
        {
          "internalType": "uint256",
          "name": "",
          "type": "uint256"
        }
      ],
      "payable": false,
      "stateMutability": "view",
      "type": "function"
    },
    {
      "constant": true,
      "inputs": [
        {
          "internalType": "bytes32",
          "name": "bucket",
          "type": "bytes32"
        }
      ],
      "name": "maxStableToken",
      "outputs": [
        {
          "internalType": "uint256",
          "name": "",
          "type": "uint256"
        }
      ],
      "payable": false,
      "stateMutability": "view",
      "type": "function"
    },
    {
      "constant": true,
      "inputs": [],
      "name": "globalMaxRiskPro",
      "outputs": [
        {
          "internalType": "uint256",
          "name": "",
          "type": "uint256"
        }
      ],
      "payable": false,
      "stateMutability": "view",
      "type": "function"
    },
    {
      "constant": true,
      "inputs": [],
      "name": "absoluteMaxStableToken",
      "outputs": [
        {
          "internalType": "uint256",
          "name": "",
          "type": "uint256"
        }
      ],
      "payable": false,
      "stateMutability": "view",
      "type": "function"
    },
    {
      "constant": true,
      "inputs": [
        {
          "internalType": "bytes32",
          "name": "bucket",
          "type": "bytes32"
        }
      ],
      "name": "maxRiskPro",
      "outputs": [
        {
          "internalType": "uint256",
          "name": "",
          "type": "uint256"
        }
      ],
      "payable": false,
      "stateMutability": "view",
      "type": "function"
    },
    {
      "constant": true,
      "inputs": [
        {
          "internalType": "bytes32",
          "name": "bucket",
          "type": "bytes32"
        }
      ],
      "name": "maxRiskProx",
      "outputs": [
        {
          "internalType": "uint256",
          "name": "",
          "type": "uint256"
        }
      ],
      "payable": false,
      "stateMutability": "view",
      "type": "function"
    },
    {
      "constant": true,
      "inputs": [
        {
          "internalType": "bytes32",
          "name": "bucket",
          "type": "bytes32"
        }
      ],
      "name": "maxRiskProxResTokenValue",
      "outputs": [
        {
          "internalType": "uint256",
          "name": "",
          "type": "uint256"
        }
      ],
      "payable": false,
      "stateMutability": "view",
      "type": "function"
    },
    {
      "constant": true,
      "inputs": [],
      "name": "absoluteMaxRiskPro",
      "outputs": [
        {
          "internalType": "uint256",
          "name": "",
          "type": "uint256"
        }
      ],
      "payable": false,
      "stateMutability": "view",
      "type": "function"
    },
    {
      "constant": true,
      "inputs": [],
      "name": "maxRiskProWithDiscount",
      "outputs": [
        {
          "internalType": "uint256",
          "name": "",
          "type": "uint256"
        }
      ],
      "payable": false,
      "stateMutability": "view",
      "type": "function"
    },
    {
      "constant": true,
      "inputs": [],
      "name": "globalLockedReserveTokens",
      "outputs": [
        {
          "internalType": "uint256",
          "name": "",
          "type": "uint256"
        }
      ],
      "payable": false,
      "stateMutability": "view",
      "type": "function"
    },
    {
      "constant": true,
      "inputs": [],
      "name": "riskProTecPrice",
      "outputs": [
        {
          "internalType": "uint256",
          "name": "",
          "type": "uint256"
        }
      ],
      "payable": false,
      "stateMutability": "view",
      "type": "function"
    },
    {
      "constant": true,
      "inputs": [
        {
          "internalType": "bytes32",
          "name": "bucket",
          "type": "bytes32"
        }
      ],
      "name": "bucketRiskProTecPrice",
      "outputs": [
        {
          "internalType": "uint256",
          "name": "",
          "type": "uint256"
        }
      ],
      "payable": false,
      "stateMutability": "view",
      "type": "function"
    },
    {
      "constant": true,
      "inputs": [
        {
          "internalType": "bytes32",
          "name": "bucket",
          "type": "bytes32"
        }
      ],
      "name": "bucketRiskProTecPriceHelper",
      "outputs": [
        {
          "internalType": "uint256",
          "name": "",
          "type": "uint256"
        }
      ],
      "payable": false,
      "stateMutability": "view",
      "type": "function"
    },
    {
      "constant": true,
      "inputs": [],
      "name": "riskProDiscountPrice",
      "outputs": [
        {
          "internalType": "uint256",
          "name": "",
          "type": "uint256"
        }
      ],
      "payable": false,
      "stateMutability": "view",
      "type": "function"
    },
    {
      "constant": true,
      "inputs": [],
      "name": "riskProUsdPrice",
      "outputs": [
        {
          "internalType": "uint256",
          "name": "",
          "type": "uint256"
        }
      ],
      "payable": false,
      "stateMutability": "view",
      "type": "function"
    },
    {
      "constant": true,
      "inputs": [
        {
          "internalType": "bytes32",
          "name": "bucket",
          "type": "bytes32"
        }
      ],
      "name": "maxRiskProxRiskProValue",
      "outputs": [
        {
          "internalType": "uint256",
          "name": "",
          "type": "uint256"
        }
      ],
      "payable": false,
      "stateMutability": "view",
      "type": "function"
    },
    {
      "constant": true,
      "inputs": [
        {
          "internalType": "bytes32",
          "name": "bucket",
          "type": "bytes32"
        }
      ],
      "name": "riskProxRiskProPrice",
      "outputs": [
        {
          "internalType": "uint256",
          "name": "",
          "type": "uint256"
        }
      ],
      "payable": false,
      "stateMutability": "view",
      "type": "function"
    },
    {
      "constant": true,
      "inputs": [],
      "name": "riskProSpotDiscountRate",
      "outputs": [
        {
          "internalType": "uint256",
          "name": "",
          "type": "uint256"
        }
      ],
      "payable": false,
      "stateMutability": "view",
      "type": "function"
    },
    {
      "constant": true,
      "inputs": [],
      "name": "daysToSettlement",
      "outputs": [
        {
          "internalType": "uint256",
          "name": "",
          "type": "uint256"
        }
      ],
      "payable": false,
      "stateMutability": "view",
      "type": "function"
    },
    {
      "constant": true,
      "inputs": [],
      "name": "blocksToSettlement",
      "outputs": [
        {
          "internalType": "uint256",
          "name": "",
          "type": "uint256"
        }
      ],
      "payable": false,
      "stateMutability": "view",
      "type": "function"
    },
    {
      "constant": true,
      "inputs": [],
      "name": "isLiquidationReached",
      "outputs": [
        {
          "internalType": "bool",
          "name": "",
          "type": "bool"
        }
      ],
      "payable": false,
      "stateMutability": "view",
      "type": "function"
    },
    {
      "constant": true,
      "inputs": [],
      "name": "getLiquidationPrice",
      "outputs": [
        {
          "internalType": "uint256",
          "name": "",
          "type": "uint256"
        }
      ],
      "payable": false,
      "stateMutability": "view",
      "type": "function"
    },
    {
      "constant": true,
      "inputs": [
        {
          "internalType": "bytes32",
          "name": "bucket",
          "type": "bytes32"
        }
      ],
      "name": "getBucketNReserve",
      "outputs": [
        {
          "internalType": "uint256",
          "name": "",
          "type": "uint256"
        }
      ],
      "payable": false,
      "stateMutability": "view",
      "type": "function"
    },
    {
      "constant": true,
      "inputs": [
        {
          "internalType": "bytes32",
          "name": "bucket",
          "type": "bytes32"
        }
      ],
      "name": "getBucketNRiskPro",
      "outputs": [
        {
          "internalType": "uint256",
          "name": "",
          "type": "uint256"
        }
      ],
      "payable": false,
      "stateMutability": "view",
      "type": "function"
    },
    {
      "constant": true,
      "inputs": [
        {
          "internalType": "bytes32",
          "name": "bucket",
          "type": "bytes32"
        }
      ],
      "name": "getBucketNStableToken",
      "outputs": [
        {
          "internalType": "uint256",
          "name": "",
          "type": "uint256"
        }
      ],
      "payable": false,
      "stateMutability": "view",
      "type": "function"
    },
    {
      "constant": true,
      "inputs": [
        {
          "internalType": "bytes32",
          "name": "bucket",
          "type": "bytes32"
        }
      ],
      "name": "getBucketCobj",
      "outputs": [
        {
          "internalType": "uint256",
          "name": "",
          "type": "uint256"
        }
      ],
      "payable": false,
      "stateMutability": "view",
      "type": "function"
    },
    {
      "constant": true,
      "inputs": [
        {
          "internalType": "bytes32",
          "name": "bucket",
          "type": "bytes32"
        }
      ],
      "name": "getInrateBag",
      "outputs": [
        {
          "internalType": "uint256",
          "name": "",
          "type": "uint256"
        }
      ],
      "payable": false,
      "stateMutability": "view",
      "type": "function"
    },
    {
      "constant": true,
      "inputs": [],
      "name": "getBcons",
      "outputs": [
        {
          "internalType": "uint256",
          "name": "",
          "type": "uint256"
        }
      ],
      "payable": false,
      "stateMutability": "view",
      "type": "function"
    },
    {
      "constant": true,
      "inputs": [],
      "name": "getReserveTokenPrice",
      "outputs": [
        {
          "internalType": "uint256",
          "name": "",
          "type": "uint256"
        }
      ],
      "payable": false,
      "stateMutability": "view",
      "type": "function"
    },
    {
      "constant": false,
      "inputs": [],
      "name": "calculateReserveTokenMovingAverage",
      "outputs": [],
      "payable": false,
      "stateMutability": "nonpayable",
      "type": "function"
    },
    {
      "constant": true,
      "inputs": [],
      "name": "getLiq",
      "outputs": [
        {
          "internalType": "uint256",
          "name": "",
          "type": "uint256"
        }
      ],
      "payable": false,
      "stateMutability": "view",
      "type": "function"
    },
    {
      "constant": false,
      "inputs": [
        {
          "internalType": "uint256",
          "name": "_liq",
          "type": "uint256"
        }
      ],
      "name": "setLiq",
      "outputs": [],
      "payable": false,
      "stateMutability": "nonpayable",
      "type": "function"
    },
    {
      "constant": true,
      "inputs": [],
      "name": "getUtpdu",
      "outputs": [
        {
          "internalType": "uint256",
          "name": "",
          "type": "uint256"
        }
      ],
      "payable": false,
      "stateMutability": "view",
      "type": "function"
    },
    {
      "constant": false,
      "inputs": [
        {
          "internalType": "uint256",
          "name": "_utpdu",
          "type": "uint256"
        }
      ],
      "name": "setUtpdu",
      "outputs": [],
      "payable": false,
      "stateMutability": "nonpayable",
      "type": "function"
    },
    {
      "constant": true,
      "inputs": [],
      "name": "getPeg",
      "outputs": [
        {
          "internalType": "uint256",
          "name": "",
          "type": "uint256"
        }
      ],
      "payable": false,
      "stateMutability": "view",
      "type": "function"
    },
    {
      "constant": false,
      "inputs": [
        {
          "internalType": "uint256",
          "name": "_peg",
          "type": "uint256"
        }
      ],
      "name": "setPeg",
      "outputs": [],
      "payable": false,
      "stateMutability": "nonpayable",
      "type": "function"
    },
    {
      "constant": true,
      "inputs": [],
      "name": "getProtected",
      "outputs": [
        {
          "internalType": "uint256",
          "name": "",
          "type": "uint256"
        }
      ],
      "payable": false,
      "stateMutability": "view",
      "type": "function"
    },
    {
      "constant": false,
      "inputs": [
        {
          "internalType": "uint256",
          "name": "_protected",
          "type": "uint256"
        }
      ],
      "name": "setProtected",
      "outputs": [],
      "payable": false,
      "stateMutability": "nonpayable",
      "type": "function"
    },
    {
      "constant": true,
      "inputs": [],
      "name": "getLiquidationEnabled",
      "outputs": [
        {
          "internalType": "bool",
          "name": "",
          "type": "bool"
        }
      ],
      "payable": false,
      "stateMutability": "view",
      "type": "function"
    },
    {
      "constant": false,
      "inputs": [
        {
          "internalType": "bool",
          "name": "_liquidationEnabled",
          "type": "bool"
        }
      ],
      "name": "setLiquidationEnabled",
      "outputs": [],
      "payable": false,
      "stateMutability": "nonpayable",
      "type": "function"
    },
    {
      "constant": false,
      "inputs": [],
      "name": "nextState",
      "outputs": [],
      "payable": false,
      "stateMutability": "nonpayable",
      "type": "function"
    },
    {
      "constant": false,
      "inputs": [
        {
          "internalType": "uint256",
          "name": "_maxMintRiskPro",
          "type": "uint256"
        }
      ],
      "name": "setMaxMintRiskPro",
      "outputs": [],
      "payable": false,
      "stateMutability": "nonpayable",
      "type": "function"
    },
    {
      "constant": true,
      "inputs": [],
      "name": "getMaxMintRiskPro",
      "outputs": [
        {
          "internalType": "uint256",
          "name": "",
          "type": "uint256"
        }
      ],
      "payable": false,
      "stateMutability": "view",
      "type": "function"
    },
    {
      "constant": false,
      "inputs": [
        {
          "internalType": "address",
          "name": "mocProviderAddress",
          "type": "address"
        }
      ],
      "name": "setMoCPriceProvider",
      "outputs": [],
      "payable": false,
      "stateMutability": "nonpayable",
      "type": "function"
    },
    {
      "constant": true,
      "inputs": [],
      "name": "getMoCPriceProvider",
      "outputs": [
        {
          "internalType": "address",
          "name": "",
          "type": "address"
        }
      ],
      "payable": false,
      "stateMutability": "view",
      "type": "function"
    },
    {
      "constant": true,
      "inputs": [],
      "name": "getMoCPrice",
      "outputs": [
        {
          "internalType": "uint256",
          "name": "",
          "type": "uint256"
        }
      ],
      "payable": false,
      "stateMutability": "view",
      "type": "function"
    },
    {
      "constant": false,
      "inputs": [
        {
          "internalType": "address",
          "name": "mocTokenAddress",
          "type": "address"
        }
      ],
      "name": "setMoCToken",
      "outputs": [],
      "payable": false,
      "stateMutability": "nonpayable",
      "type": "function"
    },
    {
      "constant": true,
      "inputs": [],
      "name": "getMoCToken",
      "outputs": [
        {
          "internalType": "address",
          "name": "",
          "type": "address"
        }
      ],
      "payable": false,
      "stateMutability": "view",
      "type": "function"
    },
    {
      "constant": false,
      "inputs": [
        {
          "internalType": "address",
          "name": "mocVendorsAddress",
          "type": "address"
        }
      ],
      "name": "setMoCVendors",
      "outputs": [],
      "payable": false,
      "stateMutability": "nonpayable",
      "type": "function"
    },
    {
      "constant": true,
      "inputs": [],
      "name": "getMoCVendors",
      "outputs": [
        {
          "internalType": "address",
          "name": "",
          "type": "address"
        }
      ],
      "payable": false,
      "stateMutability": "view",
      "type": "function"
    },
    {
      "constant": true,
      "inputs": [
        {
          "internalType": "uint256",
          "name": "stableTokenAmount",
          "type": "uint256"
        }
      ],
      "name": "stableTokensToResToken",
      "outputs": [
        {
          "internalType": "uint256",
          "name": "",
          "type": "uint256"
        }
      ],
      "payable": false,
      "stateMutability": "view",
      "type": "function"
    },
    {
      "constant": true,
      "inputs": [
        {
          "internalType": "uint256",
          "name": "resTokensAmount",
          "type": "uint256"
        }
      ],
      "name": "resTokenToStableToken",
      "outputs": [
        {
          "internalType": "uint256",
          "name": "",
          "type": "uint256"
        }
      ],
      "payable": false,
      "stateMutability": "view",
      "type": "function"
    },
    {
      "constant": true,
      "inputs": [
        {
          "internalType": "uint256",
          "name": "riskProxAmount",
          "type": "uint256"
        },
        {
          "internalType": "bytes32",
          "name": "bucket",
          "type": "bytes32"
        }
      ],
      "name": "riskProxToResToken",
      "outputs": [
        {
          "internalType": "uint256",
          "name": "",
          "type": "uint256"
        }
      ],
      "payable": false,
      "stateMutability": "view",
      "type": "function"
    },
    {
      "constant": true,
      "inputs": [
        {
          "internalType": "uint256",
          "name": "riskProxAmount",
          "type": "uint256"
        },
        {
          "internalType": "bytes32",
          "name": "bucket",
          "type": "bytes32"
        }
      ],
      "name": "riskProxToResTokenHelper",
      "outputs": [
        {
          "internalType": "uint256",
          "name": "",
          "type": "uint256"
        }
      ],
      "payable": false,
      "stateMutability": "view",
      "type": "function"
    },
    {
      "constant": true,
      "inputs": [
        {
          "internalType": "uint256",
          "name": "resTokensAmount",
          "type": "uint256"
        },
        {
          "internalType": "bytes32",
          "name": "bucket",
          "type": "bytes32"
        }
      ],
      "name": "resTokenToRiskProx",
      "outputs": [
        {
          "internalType": "uint256",
          "name": "",
          "type": "uint256"
        }
      ],
      "payable": false,
      "stateMutability": "view",
      "type": "function"
    }
  ],
  "bytecode": "0x608060405234801561001057600080fd5b50614e45806100206000396000f3fe608060405234801561001057600080fd5b50600436106106ae5760003560e060020a9004806383f3084f11610370578063b6e08330116101e2578063e0dd237611610113578063ec98182d116100b1578063f715e2931161008b578063f715e29314610bff578063f74326f914610c07578063f98b43c414610c1a578063faba8c3b14610c2d576106ae565b8063ec98182d14610bd1578063f4288dc914610be4578063f43c6eff14610bec576106ae565b8063e2414a73116100ed578063e2414a7314610ba6578063e480e5b914610bae578063e890675714610bb6578063eb892a6214610bbe576106ae565b8063e0dd237614610b83578063e138c70a14610b8b578063e22155f614610b9e576106ae565b8063be71863211610180578063c4d66de81161015a578063c4d66de814610b58578063c4ee19ea14610b6b578063cb93e65d14610b73578063d4d67a9c14610b7b576106ae565b8063be71863214610b1d578063c19a125f14610b30578063c19d93fb14610b43576106ae565b8063b7b3f47e116101bc578063b7b3f47e14610ae7578063b810477314610afa578063bc2ae97214610b02578063bcce77ef14610b15576106ae565b8063b6e0833014610ac4578063b6fc2d5f14610ad7578063b71210d514610adf576106ae565b80639aa59d44116102bc578063ab0743cc1161025a578063b0920b6d11610234578063b0920b6d14610a83578063b398eb2114610a96578063b488ea4114610aa9578063b640c07314610abc576106ae565b8063ab0743cc14610a55578063abb3724514610a68578063ae574a9014610a7b576106ae565b8063a181c39711610296578063a181c39714610a3d578063a42c69a9146109e4578063a53e85e214610a45578063a8e9ac3014610a4d576106ae565b80639aa59d4414610a1a5780639ad6659d14610a225780639f3d87b514610a2a576106ae565b80639214fa4d1161032957806395082d251161030357806395082d25146109e4578063953bbcf0146109ec57806398b762a1146109ff5780639a80d42114610a12576106ae565b80639214fa4d146109c157806392bc2865146109c957806393327d7b146109dc576106ae565b806383f3084f14610970578063849d7e8614610978578063889d9b64146109805780638c3e0502146109935780638d585ad2146109a65780638e38dc47146109b9576106ae565b806346558d1b11610524578063657576eb116104555780637a727fe8116103f35780637f19c56f116103cd5780637f19c56f1461093857806380c14b8d1461094057806381ba8b1614610953578063834d818514610968576106ae565b80637a727fe8146109155780637c5362161461091d5780637f13cb0614610930576106ae565b8063717c01c01161042f578063717c01c0146108ea57806375172a8b146108f2578063761a6c3b146108fa57806376edfc7f1461090d576106ae565b8063657576eb146108d25780637144e9a2146108da5780637149d121146108e2576106ae565b80635e10ad79116104c2578063607b69f61161049c578063607b69f6146108b257806360bf1031146108ba57806362d96807146108c25780636325f968146108ca576106ae565b80635e10ad791461088f5780635e73f484146108975780635f0ccdc21461089f576106ae565b806349de783b116104fe57806349de783b146108645780634aa50e401461087757806351ffe1931461087f57806357a13a1614610887576106ae565b806346558d1b1461084c578063483bc51614610854578063484ec0461461085c576106ae565b80631f1cb62b116105fe5780633b61fd6f1161059c5780633ffdff5d116105765780633ffdff5d1461080b57806340ed4b571461081357806340fb9ab314610826578063423fae7c14610839576106ae565b80633b61fd6f146107d25780633bc4ac0a146107e55780633ecbf7ee146107f8576106ae565b8063281acfb8116105d8578063281acfb8146107865780632bbac44014610799578063372aa224146107ac5780633746f25a146107bf576106ae565b80631f1cb62b14610763578063210521491461076b5780632439725a14610773576106ae565b806312119e021161066b57806319a7039a1161064557806319a7039a146107435780631cd2b37c1461074b5780631ced5541146107535780631f0858701461075b576106ae565b806312119e021461071e57806314007c6d14610731578063157d5cfb1461073b576106ae565b806302802016146106b357806306bdce8c146106dc5780630a065fb6146106e45780630c340a24146106f95780630d9c71aa1461070e57806311a2e50b14610716575b600080fd5b6106c66106c1366004614643565b610c35565b6040516106d39190614a69565b60405180910390f35b6106c6610e20565b6106ec610e27565b6040516106d39190614a24565b610701610e3c565b6040516106d39190614a77565b6106c6610e4b565b6106c6610e51565b6106c661072c366004614643565b610e88565b610739610f72565b005b6106ec6110c3565b6106c66110d2565b6106c6611290565b6106c6611297565b6106c66112d2565b6106c66112e5565b6106c66112ec565b610739610781366004614643565b6113cc565b6106c66107943660046146f6565b6114a4565b6107396107a73660046145cb565b611545565b6107396107ba3660046145cb565b611664565b6106c66107cd3660046146f6565b61179f565b6106c66107e03660046146f6565b6117c6565b6107396107f3366004614643565b6117ed565b610739610806366004614643565b6118bb565b6106c661198f565b6106c6610821366004614643565b611a26565b6106c6610834366004614643565b611ad1565b6106c6610847366004614643565b611d32565b6106c6611dc9565b6106c6611dd0565b6106c6611dd7565b6107396108723660046146b9565b611dde565b6106c6611ee2565b6106c6611efc565b6106c6611f03565b6106ec611f27565b6106c6611f37565b6107396108ad366004614607565b61205f565b6106c661213c565b6106c661215a565b6106c6612219565b6106c6612220565b6106c6612226565b6106c66122e8565b6106c661233d565b6106c66123d7565b6106c66123de565b610739610908366004614643565b6123e5565b6106c66124b4565b6106c6612507565b61073961092b366004614643565b61250d565b6106ec6125dc565b6106c66125ec565b61073961094e366004614643565b6125f3565b61095b6126c2565b6040516106d39190614a5b565b6106c66126cc565b6107016126d3565b6106c66126e2565b6106c661098e366004614643565b612713565b6106c66109a1366004614643565b61278a565b6106c66109b4366004614643565b612a41565b6106ec612a8f565b6106c6612a9f565b6106c66109d7366004614643565b612aa6565b6106c6612ada565b6106c6612b39565b6106c66109fa366004614643565b612b45565b610739610a0d366004614643565b612baf565b6106c6612ca2565b6106c6612d5a565b61095b612d60565b6106c6610a38366004614643565b612db8565b6106c6612e03565b6106c6612e09565b61095b612e85565b610739610a633660046145cb565b612ea6565b610739610a763660046145cb565b612f7b565b61095b61304d565b610739610a91366004614643565b613057565b6106c6610aa4366004614643565b613123565b610739610ab7366004614643565b613158565b6106c661322a565b610739610ad236600461469b565b613230565b6106c661331b565b6106c6613322565b6106c6610af5366004614643565b61335f565b6106c6613434565b610739610b10366004614643565b61344a565b6106c6613519565b6106c6610b2b366004614643565b613533565b6106c6610b3e366004614643565b61372c565b610b4b61381b565b6040516106d39190614a85565b610739610b6636600461469b565b613825565b6106c66138c6565b6106c6613919565b6106c661391f565b6106c6613926565b6106c6610b99366004614643565b6139d8565b6106c6613a0d565b6106c6613a19565b6106c6613a1f565b6106c6613a26565b6106c6610bcc366004614643565b613a2d565b6106c6610bdf366004614643565b613a8f565b610739613b49565b610739610bfa366004614643565b613b59565b6106c6613c28565b6106c6610c15366004614643565b613c2e565b6106c6610c28366004614643565b613c54565b6106c6613c89565b610109546040517f9f3d87b50000000000000000000000000000000000000000000000000000000081526000918291600160a060020a0390911690639f3d87b590610c84908690600401614a69565b60206040518083038186803b158015610c9c57600080fd5b505afa158015610cb0573d6000803e3d6000fd5b505050506040513d601f19601f82011682018060405250610cd491908101906146d8565b90506000610ce18461335f565b6101095460405160e260020a633e62d0f1028152919250600091600160a060020a039091169063f98b43c490610d1b908890600401614a69565b60206040518083038186803b158015610d3357600080fd5b505afa158015610d47573d6000803e3d6000fd5b505050506040513d601f19601f82011682018060405250610d6b91908101906146d8565b6040517fe1b1d33400000000000000000000000000000000000000000000000000000000815290915073__MoCHelperLib__________________________9063e1b1d33490610dc590600090859087908990600401614b87565b60206040518083038186803b158015610ddd57600080fd5b505af4158015610df1573d6000803e3d6000fd5b505050506040513d601f19601f82011682018060405250610e1591908101906146d8565b93505050505b919050565b6000545b90565b610104546101009004600160a060020a031690565b609b54600160a060020a031681565b60cf5481565b6000610e8361010a54610e77600060010154610e6b611f37565b9063ffffffff613c9016565b9063ffffffff613ccd16565b905090565b6000806101045460ff166003811115610e9d57fe5b1415610eab57506000610e1b565b6000610eb683612b45565b90506000610ec26112d2565b6040517f3dd0b8f000000000000000000000000000000000000000000000000000000000815290915073__MoCHelperLib__________________________90633dd0b8f090610f1a9060009086908690600401614b5f565b60206040518083038186803b158015610f3257600080fd5b505af4158015610f46573d6000803e3d6000fd5b505050506040513d601f19601f82011682018060405250610f6a91908101906146d8565b949350505050565b60006101045460ff166003811115610f8657fe5b1415610f91576110c1565b6101045460ff16610fa0613b49565b6000610faa6138c6565b905061010d548111158015610fc257506101125460ff165b15610fea57610fcf613d05565b61010480546000919060ff19166001835b021790555061105a565b61010d5481118015610fff575061010e548111155b156110185761010480546001919060ff19168280610fe0565b61010e5481118015611031575061102d6122e8565b8111155b1561104b5761010480546002919060ff1916600183610fe0565b610104805460ff191660031790555b6101045460ff16600381111561106c57fe5b82600381111561107857fe5b146110be57610104546040517fb9eb8a309bf89f3159b39681f485b6430fec1035b2b457edbcdadcdece888c0b916110b59160ff90911690614a85565b60405180910390a15b50505b565b609b54600160a060020a031690565b610109546040517f9f3d87b500000000000000000000000000000000000000000000000000000000815260009182916111b991600160a060020a031690639f3d87b590611143907f583200000000000000000000000000000000000000000000000000000000000090600401614a69565b60206040518083038186803b15801561115b57600080fd5b505afa15801561116f573d6000803e3d6000fd5b505050506040513d601f19601f8201168201806040525061119391908101906146d8565b7f583200000000000000000000000000000000000000000000000000000000000061179f565b610109546040517f889d9b64000000000000000000000000000000000000000000000000000000008152919250600091600160a060020a039091169063889d9b64906112119060f460020a6104330290600401614a69565b60206040518083038186803b15801561122957600080fd5b505afa15801561123d573d6000803e3d6000fd5b505050506040513d601f19601f8201168201806040525061126191908101906146d8565b90506112898161127d8461010f54613dba90919063ffffffff16565b9063ffffffff613dba16565b9250505090565b61010e5490565b6000806112a26124b4565b905061010f5481106112b8576000915050610e24565b61010f546112cc908263ffffffff613dba16565b91505090565b6000610e8360f460020a61043302612b45565b61010b5481565b6000806112f761198f565b90506000611303612226565b9050600061130f6126e2565b9050600061131b613926565b905073__MoCHelperLib__________________________631aa6567c60006113416110d2565b8761010e5461010b5487898b6040518963ffffffff1660e060020a028152600401611373989796959493929190614c6f565b60206040518083038186803b15801561138b57600080fd5b505af415801561139f573d6000803e3d6000fd5b505050506040513d601f19601f820116820180604052506113c391908101906146d8565b94505050505090565b609b5460405160e060020a63d994d6d5028152600160a060020a039091169063d994d6d5906113ff903390600401614a32565b60206040518083038186803b15801561141757600080fd5b505afa15801561142b573d6000803e3d6000fd5b505050506040513d601f19601f8201168201806040525061144f9190810190614625565b604051806040016040528060168152602001600080516020614de38339815191528152509061149d5760405160e560020a62461bcd0281526004016114949190614a93565b60405180910390fd5b5061010b55565b600073__MoCHelperLib__________________________6369c12fbe82856114cb86612b45565b6040518463ffffffff1660e060020a0281526004016114ec93929190614b5f565b60206040518083038186803b15801561150457600080fd5b505af4158015611518573d6000803e3d6000fd5b505050506040513d601f19601f8201168201806040525061153c91908101906146d8565b90505b92915050565b609b5460405160e060020a63d994d6d5028152600160a060020a039091169063d994d6d590611578903390600401614a32565b60206040518083038186803b15801561159057600080fd5b505afa1580156115a4573d6000803e3d6000fd5b505050506040513d601f19601f820116820180604052506115c89190810190614625565b604051806040016040528060168152602001600080516020614de38339815191528152509061160d5760405160e560020a62461bcd0281526004016114949190614a93565b506101148054600160a060020a03838116600160a060020a031983161792839055604051918116927fbe7a252fe5086e630627ac95285a2df5117a94d9e0186ac37eae3117df7ed8db926110b59285921690614a40565b609b5460405160e060020a63d994d6d5028152600160a060020a039091169063d994d6d590611697903390600401614a32565b60206040518083038186803b1580156116af57600080fd5b505afa1580156116c3573d6000803e3d6000fd5b505050506040513d601f19601f820116820180604052506116e79190810190614625565b604051806040016040528060168152602001600080516020614de38339815191528152509061172c5760405160e560020a62461bcd0281526004016114949190614a93565b506101048054600160a060020a0383811661010090810274ffffffffffffffffffffffffffffffffffffffff001984161793849055604051928190048216937ff01c4ba47ffa16ddc86be088e27d891895d6944b4f1b88a7d30fedb0296de55c936110b593869390920490911690614a40565b600073__MoCHelperLib__________________________6369c12fbe82856114cb86610c35565b600073__MoCHelperLib__________________________63716d1a6982856114cb86612b45565b609b5460405160e060020a63d994d6d5028152600160a060020a039091169063d994d6d590611820903390600401614a32565b60206040518083038186803b15801561183857600080fd5b505afa15801561184c573d6000803e3d6000fd5b505050506040513d601f19601f820116820180604052506118709190810190614625565b604051806040016040528060168152602001600080516020614de3833981519152815250906118b55760405160e560020a62461bcd0281526004016114949190614a93565b5060d155565b6068546040517f3af32abf0000000000000000000000000000000000000000000000000000000081523391600160a060020a031690633af32abf90611904908490600401614a24565b60206040518083038186803b15801561191c57600080fd5b505afa158015611930573d6000803e3d6000fd5b505050506040513d601f19601f820116820180604052506119549190810190614625565b6119735760405160e560020a62461bcd02815260040161149490614ac4565b61010f54611987908363ffffffff613dba16565b61010f555050565b61010754604080517f18160ddd0000000000000000000000000000000000000000000000000000000081529051600092600160a060020a0316916318160ddd916004808301926020929190829003018186803b1580156119ee57600080fd5b505afa158015611a02573d6000803e3d6000fd5b505050506040513d601f19601f82011682018060405250610e8391908101906146d8565b600080611a328361372c565b905073__MoCHelperLib__________________________63716d1a69600083611a596112d2565b6040518463ffffffff1660e060020a028152600401611a7a93929190614b5f565b60206040518083038186803b158015611a9257600080fd5b505af4158015611aa6573d6000803e3d6000fd5b505050506040513d601f19601f82011682018060405250611aca91908101906146d8565b9392505050565b6101095460405160e260020a633e62d0f10281526000918291600160a060020a039091169063f98b43c490611b0a908690600401614a69565b60206040518083038186803b158015611b2257600080fd5b505afa158015611b36573d6000803e3d6000fd5b505050506040513d601f19601f82011682018060405250611b5a91908101906146d8565b6101095460405160e160020a63709c6385028152919250600091600160a060020a039091169063e138c70a90611b94908790600401614a69565b60206040518083038186803b158015611bac57600080fd5b505afa158015611bc0573d6000803e3d6000fd5b505050506040513d601f19601f82011682018060405250611be491908101906146d8565b90506000611bf06126e2565b6101095460405160e060020a63b398eb21028152919250600091600160a060020a039091169063b398eb2190611c2a908990600401614a69565b60206040518083038186803b158015611c4257600080fd5b505afa158015611c56573d6000803e3d6000fd5b505050506040513d601f19601f82011682018060405250611c7a91908101906146d8565b9050600073__MoCHelperLib__________________________63169092bf909186848761010b54611ca9613926565b611cb1611ee2565b8a6040518963ffffffff1660e060020a028152600401611cd8989796959493929190614c6f565b60206040518083038186803b158015611cf057600080fd5b505af4158015611d04573d6000803e3d6000fd5b505050506040513d601f19601f82011682018060405250611d2891908101906146d8565b9695505050505050565b600073__MoCHelperLib__________________________63a0f47c4f8284611d58613926565b6040518463ffffffff1660e060020a028152600401611d7993929190614b5f565b60206040518083038186803b158015611d9157600080fd5b505af4158015611da5573d6000803e3d6000fd5b505050506040513d601f19601f8201168201806040525061153f91908101906146d8565b6101105490565b61010c5481565b61010a5490565b603554610100900460ff1680611df75750611df7613de5565b80611e05575060355460ff16155b611e245760405160e560020a62461bcd02815260040161149490614b04565b603554610100900460ff16158015611e4f576035805460ff1961ff0019909116610100171660011790555b611e57613deb565b8151611e6290613e1d565b611e76826101800151836101a00151613ebe565b611eb482602001518360400151846060015185608001518660a001518760c001518861014001518961016001518a6101c001518b6101e0015161417b565b611ecd8260e0015183610100015184610120015161421b565b80156110be576035805461ff00191690555050565b6000610e83611eef613926565b611ef761322a565b614234565b61010c5490565b7f583200000000000000000000000000000000000000000000000000000000000081565b61011654600160a060020a031690565b60004361010560009054906101000a9004600160a060020a0316600160a060020a0316637bac9c7c6040518163ffffffff1660e060020a02815260040160206040518083038186803b158015611f8c57600080fd5b505afa158015611fa0573d6000803e3d6000fd5b505050506040513d601f19601f82011682018060405250611fc491908101906146d8565b11611fd157506000610e24565b610e834361010560009054906101000a9004600160a060020a0316600160a060020a0316637bac9c7c6040518163ffffffff1660e060020a02815260040160206040518083038186803b15801561202757600080fd5b505afa15801561203b573d6000803e3d6000fd5b505050506040513d601f19601f8201168201806040525061127d91908101906146d8565b609b5460405160e060020a63d994d6d5028152600160a060020a039091169063d994d6d590612092903390600401614a32565b60206040518083038186803b1580156120aa57600080fd5b505afa1580156120be573d6000803e3d6000fd5b505050506040513d601f19601f820116820180604052506120e29190810190614625565b604051806040016040528060168152602001600080516020614de3833981519152815250906121275760405160e560020a62461bcd0281526004016114949190614a93565b50610112805460ff1916911515919091179055565b6000610e83612149612e09565b611ef760f460020a61043302611ad1565b6000806121656112d2565b90506000612171612226565b6040517fb53c426c00000000000000000000000000000000000000000000000000000000815290915073__MoCHelperLib__________________________9063b53c426c906121c99060009086908690600401614b5f565b60206040518083038186803b1580156121e157600080fd5b505af41580156121f5573d6000803e3d6000fd5b505050506040513d601f19601f8201168201806040525061128991908101906146d8565b6101115481565b60d15490565b6000806122316138c6565b61010c5461010d5461010e546040517f5f5ba87f00000000000000000000000000000000000000000000000000000000815293945073__MoCHelperLib__________________________93635f5ba87f936122989360009391929091908890600401614bc5565b60206040518083038186803b1580156122b057600080fd5b505af41580156122c4573d6000803e3d6000fd5b505050506040513d601f19601f820116820180604052506112cc91908101906146d8565b6101095460405160e060020a63b398eb21028152600091600160a060020a03169063b398eb21906123259060f460020a6104330290600401614a69565b60206040518083038186803b1580156119ee57600080fd5b600073__MoCHelperLib__________________________63ba036a29826123626110d2565b61236a6122e8565b61237261198f565b61010b5461237e613926565b612386611ee2565b6040518863ffffffff1660e060020a0281526004016123ab9796959493929190614c07565b60206040518083038186803b1580156123c357600080fd5b505af4158015611a02573d6000803e3d6000fd5b61010a5481565b61010f5481565b609b5460405160e060020a63d994d6d5028152600160a060020a039091169063d994d6d590612418903390600401614a32565b60206040518083038186803b15801561243057600080fd5b505afa158015612444573d6000803e3d6000fd5b505050506040513d601f19601f820116820180604052506124689190810190614625565b604051806040016040528060168152602001600080516020614de3833981519152815250906124ad5760405160e560020a62461bcd0281526004016114949190614a93565b5061011155565b600073__MoCHelperLib__________________________630fa79b35826124d9613926565b6124e161198f565b61010b546040518563ffffffff1660e060020a0281526004016123ab9493929190614b87565b60d15481565b609b5460405160e060020a63d994d6d5028152600160a060020a039091169063d994d6d590612540903390600401614a32565b60206040518083038186803b15801561255857600080fd5b505afa15801561256c573d6000803e3d6000fd5b505050506040513d601f19601f820116820180604052506125909190810190614625565b604051806040016040528060168152602001600080516020614de3833981519152815250906125d55760405160e560020a62461bcd0281526004016114949190614a93565b5061010e55565b61011554600160a060020a031690565b61010d5490565b609b5460405160e060020a63d994d6d5028152600160a060020a039091169063d994d6d590612626903390600401614a32565b60206040518083038186803b15801561263e57600080fd5b505afa158015612652573d6000803e3d6000fd5b505050506040513d601f19601f820116820180604052506126769190810190614625565b604051806040016040528060168152602001600080516020614de3833981519152815250906126bb5760405160e560020a62461bcd0281526004016114949190614a93565b5061010d55565b6101125460ff1690565b6101135481565b606854600160a060020a031681565b6000806126ed6112d2565b905060006126f9613926565b60005490915061128990610e77838563ffffffff613c9016565b610109546040517f889d9b64000000000000000000000000000000000000000000000000000000008152600091600160a060020a03169063889d9b649061275e908590600401614a69565b60206040518083038186803b15801561277657600080fd5b505afa158015611da5573d6000803e3d6000fd5b610109546040517f633ba288000000000000000000000000000000000000000000000000000000008152600091600160a060020a03169063633ba288906127d5908590600401614a69565b60206040518083038186803b1580156127ed57600080fd5b505afa158015612801573d6000803e3d6000fd5b505050506040513d601f19601f820116820180604052506128259190810190614625565b1580156128c75750610109546040517fa9e61b4f000000000000000000000000000000000000000000000000000000008152600160a060020a039091169063a9e61b4f90612877908590600401614a69565b60206040518083038186803b15801561288f57600080fd5b505afa1580156128a3573d6000803e3d6000fd5b505050506040513d601f19601f820116820180604052506128c79190810190614625565b15612957576101095460405160e060020a63b398eb21028152600160a060020a039091169063b398eb2190612900908590600401614a69565b60206040518083038186803b15801561291857600080fd5b505afa15801561292c573d6000803e3d6000fd5b505050506040513d601f19601f8201168201806040525061295091908101906146d8565b9050610e1b565b6101095460405160e260020a633e62d0f1028152600091600160a060020a03169063f98b43c49061298c908690600401614a69565b60206040518083038186803b1580156129a457600080fd5b505afa1580156129b8573d6000803e3d6000fd5b505050506040513d601f19601f820116820180604052506129dc91908101906146d8565b905060006129e98461335f565b6040517fe1b0348400000000000000000000000000000000000000000000000000000000815290915073__MoCHelperLib__________________________9063e1b0348490610f1a9060009086908690600401614b5f565b60008073__MoCHelperLib__________________________63991063a790918461010b54612a6d613926565b6040518563ffffffff1660e060020a028152600401611d799493929190614b87565b61011454600160a060020a031690565b61010b5490565b600080612ab28361372c565b905073__MoCHelperLib__________________________63716d1a69600083611a5987612b45565b61010854604080517f18160ddd0000000000000000000000000000000000000000000000000000000081529051600092600160a060020a0316916318160ddd916004808301926020929190829003018186803b1580156119ee57600080fd5b670de0b6b3a764000081565b600080612b506138c6565b600254909150600090612b6b9060019063ffffffff613c9016565b905060f460020a6104330284148015612b8b5750612b87613a1f565b8211155b8015612b9657508082105b15612ba657600192505050610e1b565b610f6a84610c35565b609b5460405160e060020a63d994d6d5028152600160a060020a039091169063d994d6d590612be2903390600401614a32565b60206040518083038186803b158015612bfa57600080fd5b505afa158015612c0e573d6000803e3d6000fd5b505050506040513d601f19601f82011682018060405250612c329190810190614625565b604051806040016040528060168152602001600080516020614de383398151915281525090612c775760405160e560020a62461bcd0281526004016114949190614a93565b506002548110612c9c5760405160e560020a62461bcd02815260040161149490614ab4565b61010c55565b600080600061011460009054906101000a9004600160a060020a0316600160a060020a03166359e02dd76040518163ffffffff1660e060020a028152600401604080518083038186803b158015612cf857600080fd5b505afa158015612d0c573d6000803e3d6000fd5b505050506040513d601f19601f82011682018060405250612d309190810190614661565b9150915080612d545760405160e560020a62461bcd02815260040161149490614b34565b50905090565b60d05490565b600080612d6b6138c6565b905060006101045460ff166003811115612d8157fe5b14158015612d92575061010d548111155b8015612da157506101125460ff165b15612db0576001915050610e24565b600091505090565b610109546040517f9f3d87b5000000000000000000000000000000000000000000000000000000008152600091600160a060020a031690639f3d87b59061275e908590600401614a69565b60d05481565b600080612e146126e2565b905073__MoCHelperLib__________________________63169092bf6000612e3a6110d2565b612e426122e8565b612e4a61198f565b61010b54612e56613926565b612e5e611ee2565b896040518963ffffffff1660e060020a028152600401612298989796959493929190614c6f565b6000612e9e60d15460d05461424a90919063ffffffff16565b431015905090565b609b5460405160e060020a63d994d6d5028152600160a060020a039091169063d994d6d590612ed9903390600401614a32565b60206040518083038186803b158015612ef157600080fd5b505afa158015612f05573d6000803e3d6000fd5b505050506040513d601f19601f82011682018060405250612f299190810190614625565b604051806040016040528060168152602001600080516020614de383398151915281525090612f6e5760405160e560020a62461bcd0281526004016114949190614a93565b50612f7881614272565b50565b609b5460405160e060020a63d994d6d5028152600160a060020a039091169063d994d6d590612fae903390600401614a32565b60206040518083038186803b158015612fc657600080fd5b505afa158015612fda573d6000803e3d6000fd5b505050506040513d601f19601f82011682018060405250612ffe9190810190614625565b604051806040016040528060168152602001600080516020614de3833981519152815250906130435760405160e560020a62461bcd0281526004016114949190614a93565b50612f78816142c9565b6101125460ff1681565b6068546040517f3af32abf0000000000000000000000000000000000000000000000000000000081523391600160a060020a031690633af32abf906130a0908490600401614a24565b60206040518083038186803b1580156130b857600080fd5b505afa1580156130cc573d6000803e3d6000fd5b505050506040513d601f19601f820116820180604052506130f09190810190614625565b61310f5760405160e560020a62461bcd02815260040161149490614ac4565b61010f54611987908363ffffffff61424a16565b6101095460405160e060020a63b398eb21028152600091600160a060020a03169063b398eb219061275e908590600401614a69565b609b5460405160e060020a63d994d6d5028152600160a060020a039091169063d994d6d59061318b903390600401614a32565b60206040518083038186803b1580156131a357600080fd5b505afa1580156131b7573d6000803e3d6000fd5b505050506040513d601f19601f820116820180604052506131db9190810190614625565b604051806040016040528060168152602001600080516020614de3833981519152815250906132205760405160e560020a62461bcd0281526004016114949190614a93565b50612f7881614315565b60ce5490565b609b5460405160e060020a63d994d6d5028152600160a060020a039091169063d994d6d590613263903390600401614a32565b60206040518083038186803b15801561327b57600080fd5b505afa15801561328f573d6000803e3d6000fd5b505050506040513d601f19601f820116820180604052506132b39190810190614625565b604051806040016040528060168152602001600080516020614de3833981519152815250906132f85760405160e560020a62461bcd0281526004016114949190614a93565b50609b8054600160a060020a031916600160a060020a0392909216919091179055565b6101105481565b6101095460405160e160020a63709c6385028152600091600160a060020a03169063e138c70a906123259060f460020a6104330290600401614a69565b6101095460405160e160020a63709c63850281526000918291600160a060020a039091169063e138c70a90613398908690600401614a69565b60206040518083038186803b1580156133b057600080fd5b505afa1580156133c4573d6000803e3d6000fd5b505050506040513d601f19601f820116820180604052506133e891908101906146d8565b905073__MoCHelperLib__________________________630fa79b35600061340e613926565b61010b5460405160e060020a63ffffffff8616028152611a7a9392918791600401614b87565b6000610e83610c1560f460020a610433026139d8565b609b5460405160e060020a63d994d6d5028152600160a060020a039091169063d994d6d59061347d903390600401614a32565b60206040518083038186803b15801561349557600080fd5b505afa1580156134a9573d6000803e3d6000fd5b505050506040513d601f19601f820116820180604052506134cd9190810190614625565b604051806040016040528060168152602001600080516020614de3833981519152815250906135125760405160e560020a62461bcd0281526004016114949190614a93565b5061010a55565b6000610e8361352661233d565b611ef760f460020a610433025b6101095460405160e260020a633e62d0f10281526000918291600160a060020a039091169063f98b43c49061356c908690600401614a69565b60206040518083038186803b15801561358457600080fd5b505afa158015613598573d6000803e3d6000fd5b505050506040513d601f19601f820116820180604052506135bc91908101906146d8565b6101095460405160e160020a63709c6385028152919250600091600160a060020a039091169063e138c70a906135f6908790600401614a69565b60206040518083038186803b15801561360e57600080fd5b505afa158015613622573d6000803e3d6000fd5b505050506040513d601f19601f8201168201806040525061364691908101906146d8565b6101095460405160e060020a63b398eb21028152919250600091600160a060020a039091169063b398eb2190613680908890600401614a69565b60206040518083038186803b15801561369857600080fd5b505afa1580156136ac573d6000803e3d6000fd5b505050506040513d601f19601f820116820180604052506136d091908101906146d8565b9050600073__MoCHelperLib__________________________63ba036a29909185848661010b546136ff613926565b613707611ee2565b6040518863ffffffff1660e060020a028152600401610dc59796959493929190614c07565b6101095460405160e160020a63709c63850281526000918291600160a060020a039091169063e138c70a9061376d9060f460020a6104330290600401614a69565b60206040518083038186803b15801561378557600080fd5b505afa158015613799573d6000803e3d6000fd5b505050506040513d601f19601f820116820180604052506137bd91908101906146d8565b905060006137ca84613a2d565b9050600073__MoCHelperLib__________________________63069f62dc90918461010b546137f7613926565b866040518663ffffffff1660e060020a028152600401610f1a959493929190614bc5565b6101045460ff1681565b603554610100900460ff168061383e575061383e613de5565b8061384c575060355460ff16155b61386b5760405160e560020a62461bcd02815260040161149490614b04565b603554610100900460ff16158015613896576035805460ff1961ff0019909116610100171660011790555b609b8054600160a060020a031916600160a060020a03841617905580156110be576035805461ff00191690555050565b6000806138d16124b4565b905073__MoCHelperLib__________________________63e1b0348460006138f76110d2565b846040518463ffffffff1660e060020a02815260040161229893929190614b5f565b60cf5490565b6101115490565b600080600061010460019054906101000a9004600160a060020a0316600160a060020a03166359e02dd76040518163ffffffff1660e060020a028152600401604080518083038186803b15801561397c57600080fd5b505afa158015613990573d6000803e3d6000fd5b505050506040513d601f19601f820116820180604052506139b49190810190614661565b9150915080612d545760405160e560020a62461bcd02815260040161149490614b24565b6101095460405160e160020a63709c6385028152600091600160a060020a03169063e138c70a9061275e908590600401614a69565b60f460020a6104330281565b60015490565b6101135490565b61010e5481565b600080613a398361278a565b6040517fdf39920700000000000000000000000000000000000000000000000000000000815290915073__MoCHelperLib__________________________9063df39920790611a7a906000908590600401614b44565b6101095460405160e260020a633e62d0f10281526000918291600160a060020a039091169063f98b43c490613ac8908690600401614a69565b60206040518083038186803b158015613ae057600080fd5b505afa158015613af4573d6000803e3d6000fd5b505050506040513d601f19601f82011682018060405250613b1891908101906146d8565b90506000613b258461335f565b9050818110613b3957600092505050610e1b565b610f6a828263ffffffff613dba16565b6110c1613b54613926565b614345565b609b5460405160e060020a63d994d6d5028152600160a060020a039091169063d994d6d590613b8c903390600401614a32565b60206040518083038186803b158015613ba457600080fd5b505afa158015613bb8573d6000803e3d6000fd5b505050506040513d601f19601f82011682018060405250613bdc9190810190614625565b604051806040016040528060168152602001600080516020614de383398151915281525090613c215760405160e560020a62461bcd0281526004016114949190614a93565b5061011355565b60025490565b600073__MoCHelperLib__________________________637b5c24eb8284611d5861198f565b6101095460405160e260020a633e62d0f1028152600091600160a060020a03169063f98b43c49061275e908590600401614a69565b61010d5481565b600082613c9f5750600061153f565b82820282848281613cac57fe5b041461153c5760405160e560020a62461bcd02815260040161149490614af4565b6000808211613cf15760405160e560020a62461bcd02815260040161149490614ae4565b6000828481613cfc57fe5b04949350505050565b6000613d1b613d126124b4565b61010f54614234565b905073__MoCHelperLib__________________________630a4be823600083613d4261198f565b6040518463ffffffff1660e060020a028152600401613d6393929190614b5f565b60206040518083038186803b158015613d7b57600080fd5b505af4158015613d8f573d6000803e3d6000fd5b505050506040513d601f19601f82011682018060405250613db391908101906146d8565b6101105550565b600082821115613ddf5760405160e560020a62461bcd02815260040161149490614ad4565b50900390565b303b1590565b60408051606081018252670de0b6b3a76400008082526001602083018190529190920182905260008290558055600255565b603554610100900460ff1680613e365750613e36613de5565b80613e44575060355460ff16155b613e635760405160e560020a62461bcd02815260040161149490614b04565b603554610100900460ff16158015613e8e576035805460ff1961ff0019909116610100171660011790555b60688054600160a060020a031916600160a060020a03841617905580156110be576035805461ff00191690555050565b606860009054906101000a9004600160a060020a0316600160a060020a031663b29ead6c6040518163ffffffff1660e060020a02815260040160206040518083038186803b158015613f0f57600080fd5b505afa158015613f23573d6000803e3d6000fd5b505050506040513d601f19601f82011682018060405250613f4791908101906145e9565b6101058054600160a060020a031916600160a060020a03928316179055606854604080517fa9d75b2b0000000000000000000000000000000000000000000000000000000081529051919092169163a9d75b2b916004808301926020929190829003018186803b158015613fba57600080fd5b505afa158015613fce573d6000803e3d6000fd5b505050506040513d601f19601f82011682018060405250613ff291908101906145e9565b6101078054600160a060020a031916600160a060020a03928316179055606854604080517f9b35777e00000000000000000000000000000000000000000000000000000000815290519190921691639b35777e916004808301926020929190829003018186803b15801561406557600080fd5b505afa158015614079573d6000803e3d6000fd5b505050506040513d601f19601f8201168201806040525061409d91908101906145e9565b6101088054600160a060020a031916600160a060020a03928316179055606854604080517f360b41b10000000000000000000000000000000000000000000000000000000081529051919092169163360b41b1916004808301926020929190829003018186803b15801561411057600080fd5b505afa158015614124573d6000803e3d6000fd5b505050506040513d601f19601f8201168201806040525061414891908101906145e9565b6101098054600160a060020a031916600160a060020a039290921691909117905561417282614272565b6110be816142c9565b61010d9790975561010e9590955561010c9390935561010a91909155609b8054600160a060020a03978816600160a060020a031991821617909155610104805460ff199789166101000274ffffffffffffffffffffffffffffffffffffffff00199091161787166003179055600161010b556101119190915561011480549290961691161790935561011280549315159390921692909217905561011355565b61422482614315565b4360d05560ce929092555060d155565b6000818310614243578161153c565b5090919050565b60008282018381101561153c5760405160e560020a62461bcd02815260040161149490614aa4565b6101158054600160a060020a031916600160a060020a0383161790556040517f70aff3c64f0aab69b8b6e4ddd416f24fa0e8a3bfb0d8f0963576ec2d624f494f906142be908390614a24565b60405180910390a150565b6101168054600160a060020a031916600160a060020a0383161790556040517f76c5aa7ce68ccc25899689e7cf7f1948cc36ea1401465d636dcf562498c8614d906142be908390614a24565b670de0b6b3a76400008111156143405760405160e560020a62461bcd02815260040161149490614b14565b60cf55565b61434d612e85565b15612f7857600061436960cf5483613c9090919063ffffffff16565b905060006143a3670de0b6b3a7640000610e77846143976143886143ee565b60ce549063ffffffff613c9016565b9063ffffffff61424a16565b4360d05560ce8190556040519091507f8cf60c7db6ef7d88fad2695a615a151ecebf27045d4887b69fdf5ce5b46fc619906143e19085908490614ce6565b60405180910390a1505050565b6000610e8360cf54670de0b6b3a7640000613dba90919063ffffffff16565b803561153f81614db3565b805161153f81614db3565b803561153f81614dc7565b805161153f81614dc7565b803561153f81614dd0565b805161153f81614dd0565b803561153f81614dd9565b6000610200828403121561446d57600080fd5b614478610200614cf4565b90506000614486848461440d565b82525060206144978484830161440d565b60208301525060406144ab8482850161440d565b60408301525060606144bf84828501614439565b60608301525060806144d384828501614439565b60808301525060a06144e784828501614439565b60a08301525060c06144fb84828501614439565b60c08301525060e061450f84828501614439565b60e08301525061010061452484828501614439565b6101008301525061012061453a84828501614439565b6101208301525061014061455084828501614439565b610140830152506101606145668482850161440d565b6101608301525061018061457c8482850161440d565b610180830152506101a06145928482850161440d565b6101a0830152506101c06145a884828501614423565b6101c0830152506101e06145be84828501614439565b6101e08301525092915050565b6000602082840312156145dd57600080fd5b6000610f6a848461440d565b6000602082840312156145fb57600080fd5b6000610f6a8484614418565b60006020828403121561461957600080fd5b6000610f6a8484614423565b60006020828403121561463757600080fd5b6000610f6a848461442e565b60006020828403121561465557600080fd5b6000610f6a8484614439565b6000806040838503121561467457600080fd5b60006146808585614444565b92505060206146918582860161442e565b9150509250929050565b6000602082840312156146ad57600080fd5b6000610f6a848461444f565b600061020082840312156146cc57600080fd5b6000610f6a848461445a565b6000602082840312156146ea57600080fd5b6000610f6a8484614444565b6000806040838503121561470957600080fd5b60006147158585614439565b925050602061469185828601614439565b61472f81614d59565b82525050565b61472f81614d28565b61472f81614d33565b61472f81610e24565b61472f81614d38565b61472f81614d64565b600061476d82614d1b565b6147778185614d1f565b9350614787818560208601614d6f565b61479081614d9f565b9093019392505050565b60006147a7601b83614d1f565b7f536166654d6174683a206164646974696f6e206f766572666c6f770000000000815260200192915050565b60006147e0601f83614d1f565b7f72617465206973206c6f776572207468616e206d6f63507265636973696f6e00815260200192915050565b6000614819601a83614d1f565b7f41646472657373206973206e6f742077686974656c6973746564000000000000815260200192915050565b6000614852601e83614d1f565b7f536166654d6174683a207375627472616374696f6e206f766572666c6f770000815260200192915050565b600061488b601a83614d1f565b7f536166654d6174683a206469766973696f6e206279207a65726f000000000000815260200192915050565b60006148c4602183614d1f565b7f536166654d6174683a206d756c7469706c69636174696f6e206f766572666c6f81527f7700000000000000000000000000000000000000000000000000000000000000602082015260400192915050565b6000614923602e83614d1f565b7f436f6e747261637420696e7374616e63652068617320616c726561647920626581527f656e20696e697469616c697a6564000000000000000000000000000000000000602082015260400192915050565b6000614982601883614d1f565b7f496e76616c696420736d6f6f7468696e6720666163746f720000000000000000815260200192915050565b60006149bb601483614d1f565b7f4f7261636c652068617665206e6f205072696365000000000000000000000000815260200192915050565b60006149f4601883614d1f565b7f4f7261636c652068617665206e6f204d6f432050726963650000000000000000815260200192915050565b9052565b6020810161153f8284614735565b6020810161153f8284614726565b60408101614a4e8285614735565b611aca6020830184614735565b6020810161153f828461473e565b6020810161153f8284614747565b6020810161153f8284614750565b6020810161153f8284614759565b6020808252810161153c8184614762565b6020808252810161153f8161479a565b6020808252810161153f816147d3565b6020808252810161153f8161480c565b6020808252810161153f81614845565b6020808252810161153f8161487e565b6020808252810161153f816148b7565b6020808252810161153f81614916565b6020808252810161153f81614975565b6020808252810161153f816149ae565b6020808252810161153f816149e7565b60408101614b528285614a20565b611aca6020830184614747565b60608101614b6d8286614a20565b614b7a6020830185614747565b610f6a6040830184614747565b60808101614b958287614a20565b614ba26020830186614747565b614baf6040830185614747565b614bbc6060830184614747565b95945050505050565b60a08101614bd38288614a20565b614be06020830187614747565b614bed6040830186614747565b614bfa6060830185614747565b611d286080830184614747565b60e08101614c15828a614a20565b614c226020830189614747565b614c2f6040830188614747565b614c3c6060830187614747565b614c496080830186614747565b614c5660a0830185614747565b614c6360c0830184614747565b98975050505050505050565b6101008101614c7e828b614a20565b614c8b602083018a614747565b614c986040830189614747565b614ca56060830188614747565b614cb26080830187614747565b614cbf60a0830186614747565b614ccc60c0830185614747565b614cd960e0830184614747565b9998505050505050505050565b60408101614b528285614747565b60405181810167ffffffffffffffff81118282101715614d1357600080fd5b604052919050565b5190565b90815260200190565b600061153f82614d4d565b151590565b600061153f82614d28565b80610e1b81614da9565b600160a060020a031690565b600061153f82614d38565b600061153f82614d43565b60005b83811015614d8a578181015183820152602001614d72565b83811115614d99576000848401525b50505050565b601f01601f191690565b60048110612f7857fe5b614dbc81614d28565b8114612f7857600080fd5b614dbc81614d33565b614dbc81610e24565b614dbc81614d3856fe6e6f745f617574686f72697a65645f6368616e67657200000000000000000000a365627a7a72315820783a3cd373e6195654bd43328d69e147e7f05f025630bd3525a71bd571e0c98a6c6578706572696d656e74616cf564736f6c63430005110040",
  "source": "pragma solidity ^0.5.8;\npragma experimental ABIEncoderV2;\n\nimport \"openzeppelin-solidity/contracts/math/Math.sol\";\nimport \"../contracts/interfaces/PriceProvider.sol\";\nimport \"./MoCEMACalculator.sol\";\nimport \"./base/MoCBase.sol\";\nimport \"./MoCLibConnection.sol\";\nimport \"./MoCRiskProxManager.sol\";\nimport \"openzeppelin-solidity/contracts/token/ERC20/IERC20.sol\";\nimport \"../contracts/token/RiskProToken.sol\";\nimport \"../contracts/token/MoCToken.sol\";\nimport \"./interfaces/IMoCSettlement.sol\";\nimport \"moc-governance/contracts/Governance/Governed.sol\";\nimport \"moc-governance/contracts/Governance/IGovernor.sol\";\nimport \"./interfaces/IMoCState.sol\";\n\ncontract MoCState is MoCLibConnection, MoCBase, MoCEMACalculator, IMoCState {\n  using Math for uint256;\n  using SafeMath for uint256;\n\n  struct InitializeParams {\n    address connectorAddress;\n    address governor;\n    address priceProvider;\n    uint256 liq;\n    uint256 utpdu;\n    uint256 maxDiscRate;\n    uint256 dayBlockSpan;\n    uint256 ema;\n    uint256 smoothFactor;\n    uint256 emaBlockSpan;\n    uint256 maxMintRiskPro;\n    address mocPriceProvider;\n    address mocTokenAddress;\n    address mocVendorsAddress;\n    bool liquidationEnabled;\n    uint256 protected;\n  }\n\n  // This is the current state.\n  States public state;\n\n  event StateTransition(States newState);\n  event PriceProviderUpdated(address oldAddress, address newAddress);\n\n// Contracts\n  PriceProvider internal priceProvider;\n  IMoCSettlement internal mocSettlement;\n  /** DEPRECATED **/\n  // solium-disable-next-line mixedcase\n  address internal DEPRECATED_mocConverter;\n  IERC20 internal stableToken;\n  RiskProToken internal riskProToken;\n  MoCRiskProxManager internal riskProxManager;\n\n  // One Day based on 15 seconds blocks\n  uint256 public dayBlockSpan;\n  // Relation between StableToken and dollar\n  uint256 public peg;\n  // RiskPro max discount rate\n  // Reflects the discount spot rate at Liquidation level\n  uint256 public riskProMaxDiscountRate;\n  // Liquidation limit\n  // [using mocPrecision]\n  uint256 public liq;\n  // RiskPro with discount limit\n  // [using mocPrecision]\n  uint256 public utpdu;\n  // Complete amount reserves in the system\n  uint256 public reserves;\n  // Price to use at stableToken redemption at\n  // liquidation event\n  uint256 public liquidationPrice;\n  // Max value posible to mint of RiskPro\n  uint256 public maxMintRiskPro;\n  // Liquidation enabled\n  bool public liquidationEnabled;\n  // Protected limit\n  // [using mocPrecision]\n  uint256 public protected;\n\n  /**\n    @dev Initializes the contract\n    @param params Params defined in InitializeParams struct\n  */\n  function initialize(InitializeParams memory params) public initializer {\n    initializePrecisions();\n    initializeBase(params.connectorAddress);\n    initializeContracts(params.mocTokenAddress, params.mocVendorsAddress);\n    initializeValues(\n      params.governor,\n      params.priceProvider,\n      params.liq,\n      params.utpdu,\n      params.maxDiscRate,\n      params.dayBlockSpan,\n      params.maxMintRiskPro,\n      params.mocPriceProvider,\n      params.liquidationEnabled,\n      params.protected);\n    initializeMovingAverage(params.ema, params.smoothFactor, params.emaBlockSpan);\n  }\n\n  /************************************/\n  /***** UPGRADE v0116      ***********/\n  /************************************/\n  \n  // DEPRECATED. \n  // This function was used atomically in upgrade v0115 to migrate stableTokenV1 to stableTokenV2\n  // After that, it is removed in this contract version to cannot be called more than once.\n  //\n  // event StableTokenMigrated(address oldStableTokenAddress_, address newStableTokenAddress_);\n  //\n  // /**\n  //   @dev Migrates to a new stable token contract\n  //   @param newStableTokenAddress_ new stable token contract address\n  // */\n  // function migrateStableToken(address newStableTokenAddress_) public {\n  //   emit StableTokenMigrated(address(stableToken), newStableTokenAddress_);  \n  //   stableToken = IERC20(newStableTokenAddress_);\n  // }\n\n  /**\n   @dev Sets the max discount rate.\n   @param rate Discount rate at liquidation level [using mocPrecision]\n  */\n  function setMaxDiscountRate(uint256 rate) public onlyAuthorizedChanger() {\n    require(rate < mocLibConfig.mocPrecision, \"rate is lower than mocPrecision\");\n\n    riskProMaxDiscountRate = rate;\n  }\n\n  /**\n   * @dev return the value of the RiskPro max discount rate configuration param\n   * @return riskProMaxDiscountRate RiskPro max discount rate\n   */\n  function getMaxDiscountRate() public view returns(uint256) {\n    return riskProMaxDiscountRate;\n  }\n\n  /**\n    @dev Defines how many blocks there are in a day\n    @param blockSpan blocks there are in a day\n  */\n  function setDayBlockSpan(uint256 blockSpan) public onlyAuthorizedChanger() {\n    dayBlockSpan = blockSpan;\n  }\n\n  /**\n   @dev Sets a new PriceProvider contract\n   @param priceProviderAddress address of the price provider contract\n  */\n  function setPriceProvider(address priceProviderAddress) public onlyAuthorizedChanger() {\n    address oldPriceProviderAddress = address(priceProvider);\n    priceProvider = PriceProvider(priceProviderAddress);\n    emit PriceProviderUpdated(oldPriceProviderAddress, address(priceProvider));\n  }\n\n  /**\n   @dev Gets the PriceProviderAddress\n   @return address of the price provider contract\n  */\n  function getPriceProvider() public view returns(address) {\n    return address(priceProvider);\n  }\n\n  /**\n   @dev Gets how many blocks there are in a day\n   @return blocks there are in a day\n  */\n  function getDayBlockSpan() public view returns(uint256) {\n    return dayBlockSpan;\n  }\n\n  /**\n   @dev Subtract the reserve amount passed by parameter to the reserves total\n   @param amount Amount that will be subtract to reserves\n  */\n  function substractFromReserves(uint256 amount) public onlyWhitelisted(msg.sender) {\n    reserves = reserves.sub(amount);\n  }\n\n  /**\n   @dev Add the reserve amount passed by parameter to the reserves total\n   @param amount Amount that will be added to reserves\n  */\n  function addToReserves(uint256 amount) public onlyWhitelisted(msg.sender) {\n    reserves = reserves.add(amount);\n  }\n\n  /**\n    @dev All RiskPros in circulation\n   */\n  function riskProTotalSupply() public view returns (uint256) {\n    return riskProToken.totalSupply();\n  }\n\n  /**\n    @dev All stableTokens in circulation\n   */\n  function stableTokenTotalSupply() public view returns (uint256) {\n    return stableToken.totalSupply();\n  }\n\n  /**\n    @dev Target coverage for complete system\n  */\n  function cobj() public view returns (uint256) {\n    return riskProxManager.getBucketCobj(BUCKET_C0);\n  }\n\n  /**\n   @dev Amount of ReserveTokens in the system excluding\n   RiskProx values and interests holdings\n  */\n  function collateralReserves() public view returns (uint256) {\n    uint256 resTokensInRiskProx = riskProxToResTokenHelper(riskProxManager.getBucketNRiskPro(BUCKET_X2), BUCKET_X2);\n    uint256 resTokensInBag = riskProxManager.getInrateBag(BUCKET_C0);\n\n    return reserves.sub(resTokensInRiskProx).sub(resTokensInBag);\n  }\n\n  /**\n   @dev GLOBAL Coverage\n   @return coverage [using mocPrecision].\n  */\n  function globalCoverage() public view returns (uint256) {\n    uint256 lB = globalLockedReserveTokens();\n\n    return mocLibConfig.coverage(collateralReserves(), lB);\n  }\n\n  /**\n   @dev BUCKET lockedReserveTokens\n   @param bucket Name of the bucket used\n   @return lockedReserveTokens amount [using reservePrecision].\n  */\n  function lockedReserveTokens(bytes32 bucket) public view returns (uint256) {\n    uint256 nStableToken = riskProxManager.getBucketNStableToken(bucket);\n\n    return mocLibConfig.lockedReserveTokens(getReserveTokenPrice(), nStableToken, peg);\n  }\n\n  /**\n   @dev Gets ReserveTokens in RiskPro within specified bucket\n   @param bucket Name of the bucket used\n   @return ReserveToken amount of RiskPro in Bucket [using reservePrecision].\n  */\n  function getResTokensInRiskPro(bytes32 bucket) public view returns (uint256) {\n    uint256 nReserve = riskProxManager.getBucketNReserve(bucket);\n    uint256 lB = lockedReserveTokens(bucket);\n\n    if (lB >= nReserve) {\n      return 0;\n    }\n\n    return nReserve.sub(lB);\n  }\n\n  /**\n   @dev Gets the ReserveTokens in the contract that not corresponds to StableToken collateral\n   @return ReserveTokens remainder [using reservePrecision].\n  */\n  function getReservesRemainder() public view returns (uint256) {\n    uint256 lB = globalLockedReserveTokens();\n\n    if (lB >= reserves) {\n      return 0;\n    }\n\n    return reserves.sub(lB);\n  }\n\n  /**\n   @dev BUCKET Coverage\n   @param bucket Name of the bucket used\n   @return coverage [using mocPrecision]\n  */\n  function coverage(bytes32 bucket) public view returns (uint256) {\n    if (!riskProxManager.isBucketBase(bucket) && riskProxManager.isBucketEmpty(bucket)) {\n      return riskProxManager.getBucketCobj(bucket);\n    }\n\n    uint256 nReserve = riskProxManager.getBucketNReserve(bucket);\n    uint256 lB = lockedReserveTokens(bucket);\n\n    return mocLibConfig.coverage(nReserve, lB);\n  }\n\n  /**\n   @dev Abundance ratio, receives tha amount of stableToken to use the value of stableToken0 and StableToken total supply\n   @return abundance ratio [using mocPrecision]\n  */\n  function abundanceRatio(uint256 stableToken0) public view returns (uint256) {\n    return mocLibConfig.abundanceRatio(stableToken0, stableTokenTotalSupply());\n  }\n\n  /**\n   @dev Relation between stableTokens in bucket 0 and StableToken total supply\n   @return abundance ratio [using mocPrecision]\n  */\n  function currentAbundanceRatio() public view returns (uint256) {\n    return abundanceRatio(getBucketNStableToken(BUCKET_C0));\n  }\n\n  /**\n   @dev BUCKET Leverage\n   @param bucket Name of the bucket used\n   @return leverage [using mocPrecision]\n  */\n  function leverage(bytes32 bucket) public view returns (uint256) {\n    uint256 cov = coverage(bucket);\n\n    return mocLibConfig.leverageFromCoverage(cov);\n  }\n\n  /**\n   @dev GLOBAL maxStableToken\n   @return maxStableToken to issue [using mocPrecision]\n  */\n  function globalMaxStableToken() public view returns (uint256) {\n    return mocLibConfig.maxStableToken(collateralReserves(), cobj(), stableTokenTotalSupply(), peg, getReserveTokenPrice(), getBcons());\n  }\n\n  /**\n   @dev Returns the amount of stableTokens in bucket 0, that can be redeemed outside of settlement\n   @return amount of stableTokens in bucket 0, that can be redeemed outside of settlement [using mocPrecision]\n  */\n  function freeStableToken() public view returns (uint256) {\n    return riskProxManager.getBucketNStableToken(BUCKET_C0);\n  }\n\n  /**\n   @dev BUCKET maxStableToken\n   @return maxStableToken to issue [using mocPrecision]\n  */\n  function maxStableToken(bytes32 bucket) public view returns (uint256) {\n    uint256 nReserve = riskProxManager.getBucketNReserve(bucket);\n    uint256 nStableToken = riskProxManager.getBucketNStableToken(bucket);\n    uint256 bktCobj = riskProxManager.getBucketCobj(bucket);\n\n    return mocLibConfig.maxStableToken(nReserve, bktCobj, nStableToken, peg, getReserveTokenPrice(), getBcons());\n  }\n\n  /**\n   @dev GLOBAL maxRiskPro\n   @return maxRiskPro for redeem [using mocPrecision].\n  */\n  function globalMaxRiskPro() public view returns (uint256) {\n    uint256 riskProPrice = riskProUsdPrice();\n\n    return mocLibConfig.maxRiskPro(\n        collateralReserves(), cobj(), stableTokenTotalSupply(), peg, getReserveTokenPrice(), getBcons(), riskProPrice\n    );\n  }\n\n  /**\n   @dev ABSOLUTE maxStableToken\n   @return maxStableToken to issue [using mocPrecision]\n  */\n  function absoluteMaxStableToken() public view returns (uint256) {\n    return Math.min(globalMaxStableToken(), maxStableToken(BUCKET_C0));\n  }\n\n  /**\n    @dev BUCKET maxRiskPro to redeem / mint\n    @param bucket Name of the bucket used\n    @return maxRiskPro for redeem [using mocPrecision].\n  */\n  function maxRiskPro(bytes32 bucket) public view returns (uint256) {\n    uint256 nReserve = riskProxManager.getBucketNReserve(bucket);\n    uint256 nStableToken = riskProxManager.getBucketNStableToken(bucket);\n    uint256 riskProPrice = riskProUsdPrice();\n    uint256 bktCobj = riskProxManager.getBucketCobj(bucket);\n\n    return mocLibConfig.maxRiskPro(\n      nReserve, bktCobj, nStableToken, peg, getReserveTokenPrice(), getBcons(), riskProPrice\n    );\n  }\n\n  /**\n   @dev GLOBAL max riskProx to mint\n   @param bucket Name of the bucket used\n   @return maxRiskProx [using mocPrecision]\n  */\n  function maxRiskProx(bytes32 bucket) public view returns (uint256) {\n    uint256 maxResTokens = maxRiskProxResTokenValue(bucket);\n\n    return mocLibConfig.maxRiskProWithResTokens(maxResTokens, bucketRiskProTecPrice(bucket));\n  }\n\n  /**\n   @dev GLOBAL max riskProx to mint\n   @param bucket Name of the bucket used\n   @return maxRiskProx ReserveTokens value to mint [using reservePrecision]\n  */\n  function maxRiskProxResTokenValue(bytes32 bucket) public view returns (uint256) {\n    uint256 nStableToken0 = riskProxManager.getBucketNStableToken(BUCKET_C0);\n    uint256 bucketLev = leverage(bucket);\n\n    return mocLibConfig.maxRiskProxResTokenValue(nStableToken0, peg, getReserveTokenPrice(), bucketLev);\n  }\n\n  /**\n   @dev ABSOLUTE maxRiskPro\n   @return maxStableToken to issue [using mocPrecision].\n  */\n  function absoluteMaxRiskPro() public view returns (uint256) {\n    return Math.min(globalMaxRiskPro(), maxRiskPro(BUCKET_C0));\n  }\n\n  /**\n   @dev DISCOUNT maxRiskPro\n   @return maxRiskPro for mint with discount [using mocPrecision]\n  */\n  function maxRiskProWithDiscount() public view returns (uint256) {\n    uint256 nStableToken = stableTokenTotalSupply();\n    uint256 riskProSpotDiscount = riskProSpotDiscountRate();\n    uint256 riskProPrice = riskProUsdPrice();\n    uint256 reservePrice = getReserveTokenPrice();\n\n    return mocLibConfig.maxRiskProWithDiscount(collateralReserves(), nStableToken, utpdu, peg, reservePrice, riskProPrice,\n      riskProSpotDiscount);\n  }\n\n  /**\n   @dev GLOBAL lockedReserveTokens\n   @return lockedReserveTokens amount [using reservePrecision].\n  */\n  function globalLockedReserveTokens() public view returns (uint256) {\n    return mocLibConfig.lockedReserveTokens(getReserveTokenPrice(), stableTokenTotalSupply(), peg);\n  }\n\n  /**\n   @dev ReserveTokens price of RiskPro\n   @return the RiskPro Tec Price [using reservePrecision].\n  */\n  function riskProTecPrice() public view returns (uint256) {\n    return bucketRiskProTecPrice(BUCKET_C0);\n  }\n\n  /**\n   @dev BUCKET ReserveTokens price of RiskPro\n   @param bucket Name of the bucket used\n   @return the RiskPro Tec Price [using reservePrecision]\n  */\n  function bucketRiskProTecPrice(bytes32 bucket) public view returns(uint256) {\n    uint256 cov = globalCoverage();\n    uint256 coverageThreshold = uint256(1).mul(mocLibConfig.mocPrecision);\n\n    // If Protected Mode is reached and below threshold\n    if (bucket == BUCKET_C0 && cov <= getProtected() && cov < coverageThreshold) {\n      return 1; // wei\n    }\n\n    return bucketRiskProTecPriceHelper(bucket);\n  }\n\n/**\n   @dev BUCKET ReserveTokens price of RiskPro (helper)\n   @param bucket Name of the bucket used\n   @return the RiskPro Tec Price [using reservePrecision]\n  */\n  function bucketRiskProTecPriceHelper(bytes32 bucket) public view returns (uint256) {\n    uint256 nRiskPro = riskProxManager.getBucketNRiskPro(bucket);\n    uint256 lb = lockedReserveTokens(bucket);\n    uint256 nReserve = riskProxManager.getBucketNReserve(bucket);\n\n    return mocLibConfig.riskProTecPrice(nReserve, lb, nRiskPro);\n  }\n\n  /**\n   @dev ReserveTokens price of RiskPro with spot discount applied\n   @return the RiskPro Tec Price [using reservePrecision].\n  */\n  function riskProDiscountPrice() public view returns (uint256) {\n    uint256 riskProTecprice = riskProTecPrice();\n    uint256 discountRate = riskProSpotDiscountRate();\n\n    return mocLibConfig.applyDiscountRate(riskProTecprice, discountRate);\n  }\n\n  /**\n   @dev RiskPro USD PRICE\n   @return the RiskPro USD Price [using mocPrecision]\n  */\n  function riskProUsdPrice() public view returns (uint256) {\n    uint256 riskProResTokenPrice = riskProTecPrice();\n    uint256 reservePrice = getReserveTokenPrice();\n\n    return reservePrice.mul(riskProResTokenPrice).div(mocLibConfig.reservePrecision);\n  }\n\n  /**\n   @dev GLOBAL max riskProx to mint\n   @param bucket Name of the bucket used\n   @return max RiskPro allowed to be spent to mint RiskProx [using reservePrecision]\n  */\n  function maxRiskProxRiskProValue(bytes32 bucket) public view returns (uint256) {\n    uint256 resTokensValue = maxRiskProxResTokenValue(bucket);\n\n    return mocLibConfig.maxRiskProWithResTokens(resTokensValue, riskProTecPrice());\n  }\n\n  /**\n   @dev BUCKET RiskProx price in RiskPro\n   @param bucket Name of the bucket used\n   @return RiskPro RiskPro Price [[using mocPrecision]Precision].\n  */\n  function riskProxRiskProPrice(bytes32 bucket) public view returns (uint256) {\n    // Otherwise, it reverts.\n    if (state == States.Liquidated) {\n      return 0;\n    }\n\n    uint256 riskProxResTokenPrice = bucketRiskProTecPrice(bucket);\n    uint256 riskProResTokenPrice = riskProTecPrice();\n\n    return mocLibConfig.riskProxRiskProPrice(riskProxResTokenPrice, riskProResTokenPrice);\n  }\n\n  /**\n   @dev GLOBAL ReserveTokens Discount rate to apply to RiskProPrice.\n   @return RiskPro discount rate [using DISCOUNT_PRECISION].\n  */\n  function riskProSpotDiscountRate() public view returns (uint256) {\n    uint256 cov = globalCoverage();\n\n    return mocLibConfig.riskProSpotDiscountRate(riskProMaxDiscountRate, liq, utpdu, cov);\n  }\n\n  /**\n    @dev Calculates the number of days to next settlement based dayBlockSpan\n    @return days to next settlement\n  */\n  function daysToSettlement() public view returns (uint256) {\n    return blocksToSettlement().mul(mocLibConfig.dayPrecision).div(dayBlockSpan);\n  }\n\n  /**\n    @dev Number of blocks to settlement\n    @return Number of blocks to settlement\n  */\n  function blocksToSettlement() public view returns (uint256) {\n    if (mocSettlement.nextSettlementBlock() <= block.number) {\n      return 0;\n    }\n\n    return mocSettlement.nextSettlementBlock().sub(block.number);\n  }\n\n  /**\n    @dev Verifies if forced liquidation is reached checking if globalCoverage <= liquidation (currently 1.04)\n     and if liquidation is enabled\n    @return true if liquidation state is reached, false otherwise\n   */\n  function isLiquidationReached() public view returns(bool) {\n    uint256 cov = globalCoverage();\n    if (state != States.Liquidated && cov <= liq && liquidationEnabled)\n      return true;\n    return false;\n  }\n\n  /**\n    @dev Returns the price to use for stableToken redeem in a liquidation event\n    @return price to use for stableToken redeem in a liquidation event\n  */\n  function getLiquidationPrice() public view returns (uint256) {\n    return liquidationPrice;\n  }\n\n  function getBucketNReserve(bytes32 bucket) public view returns (uint256) {\n    return riskProxManager.getBucketNReserve(bucket);\n  }\n\n  function getBucketNRiskPro(bytes32 bucket) public view returns (uint256) {\n    return riskProxManager.getBucketNRiskPro(bucket);\n  }\n\n  function getBucketNStableToken(bytes32 bucket) public view returns (uint256) {\n    return riskProxManager.getBucketNStableToken(bucket);\n  }\n\n  function getBucketCobj(bytes32 bucket) public view returns (uint256) {\n    return riskProxManager.getBucketCobj(bucket);\n  }\n\n  function getInrateBag(bytes32 bucket) public view returns (uint256) {\n    return riskProxManager.getInrateBag(bucket);\n  }\n\n  /**********************\n    ReserveTokens PRICE PROVIDER\n   *********************/\n\n  function getBcons() public view returns (uint256) {\n    return Math.min(getReserveTokenPrice(), getExponentalMovingAverage());\n  }\n\n  function getReserveTokenPrice() public view returns (uint256) {\n    (bytes32 price, bool has) = priceProvider.peek();\n    require(has, \"Oracle have no Price\");\n\n    return uint256(price);\n  }\n\n\n  function calculateReserveTokenMovingAverage() public {\n    setExponentalMovingAverage(getReserveTokenPrice());\n  }\n\n\n\n  /**\n   @dev return the value of the liq threshold configuration param\n   @return liq threshold, currently 1.04\n  */\n  function getLiq() public view returns(uint256) {\n    return liq;\n  }\n\n  /**\n   @dev sets the value of the liq threshold configuration param\n   @param _liq liquidation threshold\n  */\n  function setLiq(uint256 _liq) public onlyAuthorizedChanger(){\n    liq = _liq;\n  }\n\n  /**\n    @dev return the value of the utpdu threshold configuration param\n    @return utpdu Universal TPro discount sales coverage threshold\n  */\n  function getUtpdu() public view returns(uint256) {\n    return utpdu;\n  }\n\n  /**\n   @dev sets the value of the utpdu threshold configuration param\n   @param _utpdu Universal TPro discount sales coverage threshold\n  */\n  function setUtpdu(uint256 _utpdu) public onlyAuthorizedChanger(){\n    utpdu = _utpdu;\n  }\n\n  /**\n   @dev returns the relation between StableToken and dollar. By default it is 1.\n   @return peg relation between StableToken and dollar\n  */\n  function getPeg() public view returns(uint256) {\n    return peg;\n  }\n\n  /**\n   @dev sets the relation between StableToken and dollar. By default it is 1.\n   @param _peg relation between StableToken and dollar\n  */\n  function setPeg(uint256 _peg) public onlyAuthorizedChanger() {\n    peg = _peg;\n  }\n\n  /**\n   @dev return the value of the protected threshold configuration param\n   @return protected threshold, currently 1.5\n  */\n  function getProtected() public view returns(uint256) {\n    return protected;\n  }\n\n  /**\n   @dev sets the value of the protected threshold configuration param\n   @param _protected protected threshold\n  */\n  function setProtected(uint _protected) public onlyAuthorizedChanger() {\n    protected = _protected;\n  }\n\n  /**\n   @dev returns if is liquidation enabled.\n   @return liquidationEnabled is liquidation enabled\n  */\n  function getLiquidationEnabled() public view returns(bool) {\n    return liquidationEnabled;\n  }\n\n  /**\n   @dev returns if is liquidation enabled.\n   @param _liquidationEnabled is liquidation enabled\n  */\n  function setLiquidationEnabled(bool _liquidationEnabled) public onlyAuthorizedChanger() {\n    liquidationEnabled = _liquidationEnabled;\n  }\n\n  /**\n   @dev Transitions to next state.\n  */\n  function nextState() public {\n    // There is no coming back from Liquidation\n    if (state == States.Liquidated)\n      return;\n\n    States prevState = state;\n    calculateReserveTokenMovingAverage();\n    uint256 cov = globalCoverage();\n    if (cov <= liq && liquidationEnabled) {\n      setLiquidationPrice();\n      state = States.Liquidated;\n    } else if (cov > liq && cov <= utpdu) {\n      state = States.RiskProDiscount;\n    } else if (cov > utpdu && cov <= cobj()) {\n      state = States.BelowCobj;\n    } else {\n      state = States.AboveCobj;\n    }\n\n    if (prevState != state)\n      emit StateTransition(state);\n  }\n\n  /**\n   @dev Sets max mint RiskPro value\n   @param _maxMintRiskPro [using mocPrecision]\n  */\n  function setMaxMintRiskPro(uint256 _maxMintRiskPro) public onlyAuthorizedChanger() {\n    maxMintRiskPro = _maxMintRiskPro;\n  }\n\n  /**\n   @dev return Max value posible to mint of RiskPro\n   @return maxMintRiskPro\n  */\n  function getMaxMintRiskPro() public view returns(uint256) {\n    return maxMintRiskPro;\n  }\n\n  /************************************/\n  /***** UPGRADE v0110      ***********/\n  /************************************/\n\n  /** START UPDATE V0110: 24/09/2020  **/\n  /** Upgrade to support multiple commission rates **/\n  /** and rename price interfaces **/\n  /** Public functions **/\n\n  /**********************\n    MoC PRICE PROVIDER\n   *********************/\n\n  /**\n   @dev Sets a new MoCProvider contract\n   @param mocProviderAddress MoC price provider address\n  */\n  function setMoCPriceProvider(address mocProviderAddress) public onlyAuthorizedChanger() {\n    address oldMoCPriceProviderAddress = address(mocPriceProvider);\n    mocPriceProvider = PriceProvider(mocProviderAddress);\n    emit MoCPriceProviderUpdated(oldMoCPriceProviderAddress, address(mocPriceProvider));\n  }\n\n  /**\n   @dev Gets the MoCPriceProviderAddress\n   @return MoC price provider address\n  */\n  function getMoCPriceProvider() public view returns(address) {\n    return address(mocPriceProvider);\n  }\n\n  /**\n   @dev Gets the MoCPrice\n   @return MoC price\n  */\n  function getMoCPrice() public view returns(uint256) {\n    (bytes32 price, bool has) = mocPriceProvider.peek();\n    require(has, \"Oracle have no MoC Price\");\n\n    return uint256(price);\n  }\n\n  /**********************\n    MoC TOKEN\n   *********************/\n\n  /**\n   @dev Sets the MoC token contract address\n   @param mocTokenAddress MoC token contract address\n  */\n  // TODO: Suggestion: create a \"MoCConnectorChanger\" contract and whitelist the address\n  function setMoCToken(address mocTokenAddress) public onlyAuthorizedChanger() {\n    setMoCTokenInternal(mocTokenAddress);\n  }\n\n  /**\n   @dev Gets the MoC token contract address\n   @return MoC token contract address\n  */\n  function getMoCToken() public view returns(address) {\n    return address(mocToken);\n  }\n\n  /**********************\n    MoC VENDORS\n   *********************/\n\n  // TODO: Suggestion: create a \"MoCConnectorChanger\" contract and whitelist the address\n  /**\n   @dev Sets the MoCVendors contract address\n   @param mocVendorsAddress MoCVendors contract address\n  */\n  function setMoCVendors(address mocVendorsAddress) public onlyAuthorizedChanger() {\n    setMoCVendorsInternal(mocVendorsAddress);\n  }\n\n  /**\n   @dev Gets the MoCVendors contract addfress\n   @return MoCVendors contract address\n  */\n  function getMoCVendors() public view returns(address) {\n    return mocVendors;\n  }\n\n  /** END UPDATE V0110: 24/09/2020 **/\n\n  /************************************/\n  /***** UPGRADE v0110      ***********/\n  /************************************/\n\n  /** START UPDATE V0110: 24/09/2020  **/\n  /** Upgrade to support multiple commission rates **/\n  /** and rename price interfaces **/\n  /** Internal functions **/\n\n  /**********************\n    Ex MoCConverter\n   *********************/\n  function stableTokensToResToken(uint256 stableTokenAmount) public view returns (uint256) {\n    return mocLibConfig.stableTokensResTokensValue(stableTokenAmount, peg, getReserveTokenPrice());\n  }\n\n  function resTokenToStableToken(uint256 resTokensAmount) public view returns (uint256) {\n    return mocLibConfig.maxStableTokensWithResTokens(resTokensAmount, getReserveTokenPrice());\n  }\n  function riskProxToResToken(uint256 riskProxAmount, bytes32 bucket) public view returns (uint256) {\n    return mocLibConfig.riskProResTokensValuet(riskProxAmount, bucketRiskProTecPrice(bucket));\n  }\n\n  function riskProxToResTokenHelper(uint256 riskProxAmount, bytes32 bucket) public view returns(uint256) {\n    return mocLibConfig.riskProResTokensValuet(riskProxAmount, bucketRiskProTecPriceHelper(bucket));\n  }\n\n  function resTokenToRiskProx(uint256 resTokensAmount, bytes32 bucket) public view returns (uint256) {\n    return mocLibConfig.maxRiskProWithResTokens(resTokensAmount, bucketRiskProTecPrice(bucket));\n  }\n\n\n  /**********************\n    MoC TOKEN\n   *********************/\n\n  /**\n   @dev Sets the MoC token contract address (internal function)\n   @param mocTokenAddress MoC token contract address\n  */\n  function setMoCTokenInternal(address mocTokenAddress) internal {\n    mocToken = MoCToken(mocTokenAddress);\n\n    emit MoCTokenChanged(mocTokenAddress);\n  }\n\n  /**********************\n    MoC VENDORS\n   *********************/\n\n  /**\n   @dev Sets the MoCVendors contract address (internal function)\n   @param mocVendorsAddress MoCVendors contract address\n  */\n  function setMoCVendorsInternal(address mocVendorsAddress) internal {\n    mocVendors = mocVendorsAddress;\n\n    emit MoCVendorsChanged(mocVendorsAddress);\n  }\n\n  /** END UPDATE V0110: 24/09/2020 **/\n\n  /**\n    @dev Calculates price at liquidation event as the relation between\n    the stableToken total supply and the amount of ReserveTokens available to distribute\n  */\n  function setLiquidationPrice() internal {\n    // When coverage is below 1, the amount to\n    // distribute is all the ReserveTokens in the contract\n    uint256 resTokenscAvailable = Math.min(globalLockedReserveTokens(), reserves);\n\n    liquidationPrice = mocLibConfig.liquidationPrice(resTokenscAvailable, stableTokenTotalSupply());\n  }\n\n  function initializeValues(\n    address _governor,\n    address _priceProvider,\n    uint256 _liq,\n    uint256 _utpdu,\n    uint256 _maxDiscRate,\n    uint256 _dayBlockSpan,\n    uint256 _maxMintRiskPro,\n    address _mocPriceProvider,\n    bool _liquidationEnabled,\n    uint256 _protected\n  ) internal {\n    liq = _liq;\n    utpdu = _utpdu;\n    riskProMaxDiscountRate = _maxDiscRate;\n    dayBlockSpan = _dayBlockSpan;\n    governor = IGovernor(_governor);\n    priceProvider = PriceProvider(_priceProvider);\n    // Default values\n    state = States.AboveCobj;\n    peg = 1;\n    maxMintRiskPro = _maxMintRiskPro;\n    mocPriceProvider = PriceProvider(_mocPriceProvider);\n    liquidationEnabled = _liquidationEnabled;\n    protected = _protected;\n  }\n\n  function initializeContracts(address _mocTokenAddress, address _mocVendorsAddress) internal {\n    mocSettlement = IMoCSettlement(connector.mocSettlement());\n    stableToken = IERC20(connector.stableToken());\n    riskProToken = RiskProToken(connector.riskProToken());\n    riskProxManager = MoCRiskProxManager(connector.riskProxManager());\n    setMoCTokenInternal(_mocTokenAddress);\n    setMoCVendorsInternal(_mocVendorsAddress);\n  }\n\n  /************************************/\n  /***** UPGRADE v0110      ***********/\n  /************************************/\n\n  /** START UPDATE V0110: 24/09/2020  **/\n  /** Upgrade to support multiple commission rates **/\n  /** and rename price interfaces **/\n  /** Variables and events **/\n\n  PriceProvider internal mocPriceProvider;\n  MoCToken internal mocToken;\n  address internal mocVendors;\n\n  event MoCPriceProviderUpdated(\n    address oldAddress,\n    address newAddress\n  );\n\n  event MoCTokenChanged (\n    address mocTokenAddress\n  );\n\n  event MoCVendorsChanged (\n    address mocVendorsAddress\n  );\n\n  /** END UPDATE V0110: 24/09/2020 **/\n\n  // Leave a gap betweeen inherited contracts variables in order to be\n  // able to add more variables in them later\n  uint256[50] private upgradeGap;\n}\n",
  "sourcePath": "/Users/f.ruiz/projects/moc/RDOC-Contract-Internal/contracts_updated/MoCState.sol",
  "compiler": {
    "name": "solc",
    "version": "0.5.17+commit.d19bba13.Emscripten.clang"
  },
  "schemaVersion": "3.0.11",
  "updatedAt": "2023-05-12T22:20:29.594Z",
  "devdoc": {
    "methods": {
      "absoluteMaxRiskPro()": {
        "details": "ABSOLUTE maxRiskPro",
        "return": "maxStableToken to issue [using mocPrecision]."
      },
      "absoluteMaxStableToken()": {
        "details": "ABSOLUTE maxStableToken",
        "return": "maxStableToken to issue [using mocPrecision]"
      },
      "abundanceRatio(uint256)": {
        "details": "Abundance ratio, receives tha amount of stableToken to use the value of stableToken0 and StableToken total supply",
        "return": "abundance ratio [using mocPrecision]"
      },
      "addToReserves(uint256)": {
        "details": "Add the reserve amount passed by parameter to the reserves total",
        "params": {
          "amount": "Amount that will be added to reserves"
        }
      },
      "blocksToSettlement()": {
        "details": "Number of blocks to settlement",
        "return": "Number of blocks to settlement"
      },
      "bucketRiskProTecPrice(bytes32)": {
        "details": "BUCKET ReserveTokens price of RiskPro",
        "params": {
          "bucket": "Name of the bucket used"
        },
        "return": "the RiskPro Tec Price [using reservePrecision]"
      },
      "bucketRiskProTecPriceHelper(bytes32)": {
        "details": "BUCKET ReserveTokens price of RiskPro (helper)",
        "params": {
          "bucket": "Name of the bucket used"
        },
        "return": "the RiskPro Tec Price [using reservePrecision]"
      },
      "changeIGovernor(address)": {
        "params": {
          "newIGovernor": "New governor address"
        }
      },
      "cobj()": {
        "details": "Target coverage for complete system"
      },
      "collateralReserves()": {
        "details": "Amount of ReserveTokens in the system excluding RiskProx values and interests holdings"
      },
      "coverage(bytes32)": {
        "details": "BUCKET Coverage",
        "params": {
          "bucket": "Name of the bucket used"
        },
        "return": "coverage [using mocPrecision]"
      },
      "currentAbundanceRatio()": {
        "details": "Relation between stableTokens in bucket 0 and StableToken total supply",
        "return": "abundance ratio [using mocPrecision]"
      },
      "daysToSettlement()": {
        "details": "Calculates the number of days to next settlement based dayBlockSpan",
        "return": "days to next settlement"
      },
      "freeStableToken()": {
        "details": "Returns the amount of stableTokens in bucket 0, that can be redeemed outside of settlement",
        "return": "amount of stableTokens in bucket 0, that can be redeemed outside of settlement [using mocPrecision]"
      },
      "getDayBlockSpan()": {
        "details": "Gets how many blocks there are in a day",
        "return": "blocks there are in a day"
      },
      "getLiq()": {
        "details": "return the value of the liq threshold configuration param",
        "return": "liq threshold, currently 1.04"
      },
      "getLiquidationEnabled()": {
        "details": "returns if is liquidation enabled.",
        "return": "liquidationEnabled is liquidation enabled"
      },
      "getLiquidationPrice()": {
        "details": "Returns the price to use for stableToken redeem in a liquidation event",
        "return": "price to use for stableToken redeem in a liquidation event"
      },
      "getMaxDiscountRate()": {
        "details": "return the value of the RiskPro max discount rate configuration param",
        "return": "riskProMaxDiscountRate RiskPro max discount rate"
      },
      "getMaxMintRiskPro()": {
        "details": "return Max value posible to mint of RiskPro",
        "return": "maxMintRiskPro"
      },
      "getMoCPrice()": {
        "details": "Gets the MoCPrice",
        "return": "MoC price"
      },
      "getMoCPriceProvider()": {
        "details": "Gets the MoCPriceProviderAddress",
        "return": "MoC price provider address"
      },
      "getMoCToken()": {
        "details": "Gets the MoC token contract address",
        "return": "MoC token contract address"
      },
      "getMoCVendors()": {
        "details": "Gets the MoCVendors contract addfress",
        "return": "MoCVendors contract address"
      },
      "getPeg()": {
        "details": "returns the relation between StableToken and dollar. By default it is 1.",
        "return": "peg relation between StableToken and dollar"
      },
      "getPriceProvider()": {
        "details": "Gets the PriceProviderAddress",
        "return": "address of the price provider contract"
      },
      "getProtected()": {
        "details": "return the value of the protected threshold configuration param",
        "return": "protected threshold, currently 1.5"
      },
      "getResTokensInRiskPro(bytes32)": {
        "details": "Gets ReserveTokens in RiskPro within specified bucket",
        "params": {
          "bucket": "Name of the bucket used"
        },
        "return": "ReserveToken amount of RiskPro in Bucket [using reservePrecision]."
      },
      "getReservesRemainder()": {
        "details": "Gets the ReserveTokens in the contract that not corresponds to StableToken collateral",
        "return": "ReserveTokens remainder [using reservePrecision]."
      },
      "getUtpdu()": {
        "details": "return the value of the utpdu threshold configuration param",
        "return": "utpdu Universal TPro discount sales coverage threshold"
      },
      "globalCoverage()": {
        "details": "GLOBAL Coverage",
        "return": "coverage [using mocPrecision]."
      },
      "globalLockedReserveTokens()": {
        "details": "GLOBAL lockedReserveTokens",
        "return": "lockedReserveTokens amount [using reservePrecision]."
      },
      "globalMaxRiskPro()": {
        "details": "GLOBAL maxRiskPro",
        "return": "maxRiskPro for redeem [using mocPrecision]."
      },
      "globalMaxStableToken()": {
        "details": "GLOBAL maxStableToken",
        "return": "maxStableToken to issue [using mocPrecision]"
      },
      "initialize((address,address,address,uint256,uint256,uint256,uint256,uint256,uint256,uint256,uint256,address,address,address,bool,uint256))": {
        "details": "Initializes the contract",
        "params": {
          "params": "Params defined in InitializeParams struct"
        }
      },
      "initialize(address)": {
        "details": "This initialize replaces the constructor but it is not called automatically. It is necessary because of the upgradeability of the contracts",
        "params": {
          "_governor": "Governor address"
        }
      },
      "isLiquidationReached()": {
        "details": "Verifies if forced liquidation is reached checking if globalCoverage <= liquidation (currently 1.04) and if liquidation is enabled",
        "return": "true if liquidation state is reached, false otherwise"
      },
      "leverage(bytes32)": {
        "details": "BUCKET Leverage",
        "params": {
          "bucket": "Name of the bucket used"
        },
        "return": "leverage [using mocPrecision]"
      },
      "lockedReserveTokens(bytes32)": {
        "details": "BUCKET lockedReserveTokens",
        "params": {
          "bucket": "Name of the bucket used"
        },
        "return": "lockedReserveTokens amount [using reservePrecision]."
      },
      "maxRiskPro(bytes32)": {
        "details": "BUCKET maxRiskPro to redeem / mint",
        "params": {
          "bucket": "Name of the bucket used"
        },
        "return": "maxRiskPro for redeem [using mocPrecision]."
      },
      "maxRiskProWithDiscount()": {
        "details": "DISCOUNT maxRiskPro",
        "return": "maxRiskPro for mint with discount [using mocPrecision]"
      },
      "maxRiskProx(bytes32)": {
        "details": "GLOBAL max riskProx to mint",
        "params": {
          "bucket": "Name of the bucket used"
        },
        "return": "maxRiskProx [using mocPrecision]"
      },
      "maxRiskProxResTokenValue(bytes32)": {
        "details": "GLOBAL max riskProx to mint",
        "params": {
          "bucket": "Name of the bucket used"
        },
        "return": "maxRiskProx ReserveTokens value to mint [using reservePrecision]"
      },
      "maxRiskProxRiskProValue(bytes32)": {
        "details": "GLOBAL max riskProx to mint",
        "params": {
          "bucket": "Name of the bucket used"
        },
        "return": "max RiskPro allowed to be spent to mint RiskProx [using reservePrecision]"
      },
      "maxStableToken(bytes32)": {
        "details": "BUCKET maxStableToken",
        "return": "maxStableToken to issue [using mocPrecision]"
      },
      "nextState()": {
        "details": "Transitions to next state."
      },
      "riskProDiscountPrice()": {
        "details": "ReserveTokens price of RiskPro with spot discount applied",
        "return": "the RiskPro Tec Price [using reservePrecision]."
      },
      "riskProSpotDiscountRate()": {
        "details": "GLOBAL ReserveTokens Discount rate to apply to RiskProPrice.",
        "return": "RiskPro discount rate [using DISCOUNT_PRECISION]."
      },
      "riskProTecPrice()": {
        "details": "ReserveTokens price of RiskPro",
        "return": "the RiskPro Tec Price [using reservePrecision]."
      },
      "riskProTotalSupply()": {
        "details": "All RiskPros in circulation"
      },
      "riskProUsdPrice()": {
        "details": "RiskPro USD PRICE",
        "return": "the RiskPro USD Price [using mocPrecision]"
      },
      "riskProxRiskProPrice(bytes32)": {
        "details": "BUCKET RiskProx price in RiskPro",
        "params": {
          "bucket": "Name of the bucket used"
        },
        "return": "RiskPro RiskPro Price [[using mocPrecision]Precision]."
      },
      "setDayBlockSpan(uint256)": {
        "details": "Defines how many blocks there are in a day",
        "params": {
          "blockSpan": "blocks there are in a day"
        }
      },
      "setEmaCalculationBlockSpan(uint256)": {
        "params": {
          "blockSpan": "Defines how many blocks should pass between BMA calculations*"
        }
      },
      "setLiq(uint256)": {
        "details": "sets the value of the liq threshold configuration param",
        "params": {
          "_liq": "liquidation threshold"
        }
      },
      "setLiquidationEnabled(bool)": {
        "details": "returns if is liquidation enabled.",
        "params": {
          "_liquidationEnabled": "is liquidation enabled"
        }
      },
      "setMaxDiscountRate(uint256)": {
        "details": "Sets the max discount rate.",
        "params": {
          "rate": "Discount rate at liquidation level [using mocPrecision]"
        }
      },
      "setMaxMintRiskPro(uint256)": {
        "details": "Sets max mint RiskPro value",
        "params": {
          "_maxMintRiskPro": "[using mocPrecision]"
        }
      },
      "setMoCPriceProvider(address)": {
        "details": "Sets a new MoCProvider contract",
        "params": {
          "mocProviderAddress": "MoC price provider address"
        }
      },
      "setMoCToken(address)": {
        "details": "Sets the MoC token contract address",
        "params": {
          "mocTokenAddress": "MoC token contract address"
        }
      },
      "setMoCVendors(address)": {
        "details": "Sets the MoCVendors contract address",
        "params": {
          "mocVendorsAddress": "MoCVendors contract address"
        }
      },
      "setPeg(uint256)": {
        "details": "sets the relation between StableToken and dollar. By default it is 1.",
        "params": {
          "_peg": "relation between StableToken and dollar"
        }
      },
      "setPriceProvider(address)": {
        "details": "Sets a new PriceProvider contract",
        "params": {
          "priceProviderAddress": "address of the price provider contract"
        }
      },
      "setProtected(uint256)": {
        "details": "sets the value of the protected threshold configuration param",
        "params": {
          "_protected": "protected threshold"
        }
      },
      "setUtpdu(uint256)": {
        "details": "sets the value of the utpdu threshold configuration param",
        "params": {
          "_utpdu": "Universal TPro discount sales coverage threshold"
        }
      },
      "stableTokenTotalSupply()": {
        "details": "All stableTokens in circulation"
      },
      "substractFromReserves(uint256)": {
        "details": "Subtract the reserve amount passed by parameter to the reserves total",
        "params": {
          "amount": "Amount that will be subtract to reserves"
        }
      }
    }
  },
  "userdoc": {
    "methods": {
      "changeIGovernor(address)": {
        "notice": "Change the contract's governor. Should be called through the old governance system"
      },
      "getBcons()": {
        "notice": "******************** ReserveTokens PRICE PROVIDER********************"
      },
      "initialize(address)": {
        "notice": "Initialize the contract with the basic settings"
      },
      "stableTokensToResToken(uint256)": {
        "notice": "******************** Ex MoCConverter********************"
      }
    }
  }
}