{
  "contractName": "MoCVendors",
  "abi": [
    {
      "anonymous": false,
      "inputs": [
        {
          "indexed": false,
          "internalType": "address",
          "name": "account",
          "type": "address"
        }
      ],
      "name": "TotalPaidInMoCReset",
      "type": "event"
    },
    {
      "anonymous": false,
      "inputs": [
        {
          "indexed": false,
          "internalType": "address",
          "name": "vendorGuardianAddress",
          "type": "address"
        }
      ],
      "name": "VendorGuardianAddressChanged",
      "type": "event"
    },
    {
      "anonymous": false,
      "inputs": [
        {
          "indexed": false,
          "internalType": "address",
          "name": "vendorAdress",
          "type": "address"
        },
        {
          "indexed": false,
          "internalType": "uint256",
          "name": "paidMoC",
          "type": "uint256"
        },
        {
          "indexed": false,
          "internalType": "uint256",
          "name": "paidReserveToken",
          "type": "uint256"
        }
      ],
      "name": "VendorReceivedMarkup",
      "type": "event"
    },
    {
      "anonymous": false,
      "inputs": [
        {
          "indexed": false,
          "internalType": "address",
          "name": "account",
          "type": "address"
        },
        {
          "indexed": false,
          "internalType": "uint256",
          "name": "markup",
          "type": "uint256"
        }
      ],
      "name": "VendorRegistered",
      "type": "event"
    },
    {
      "anonymous": false,
      "inputs": [
        {
          "indexed": false,
          "internalType": "address",
          "name": "account",
          "type": "address"
        },
        {
          "indexed": false,
          "internalType": "uint256",
          "name": "staking",
          "type": "uint256"
        }
      ],
      "name": "VendorStakeAdded",
      "type": "event"
    },
    {
      "anonymous": false,
      "inputs": [
        {
          "indexed": false,
          "internalType": "address",
          "name": "account",
          "type": "address"
        },
        {
          "indexed": false,
          "internalType": "uint256",
          "name": "staking",
          "type": "uint256"
        }
      ],
      "name": "VendorStakeRemoved",
      "type": "event"
    },
    {
      "anonymous": false,
      "inputs": [
        {
          "indexed": false,
          "internalType": "address",
          "name": "account",
          "type": "address"
        }
      ],
      "name": "VendorUnregistered",
      "type": "event"
    },
    {
      "anonymous": false,
      "inputs": [
        {
          "indexed": false,
          "internalType": "address",
          "name": "account",
          "type": "address"
        },
        {
          "indexed": false,
          "internalType": "uint256",
          "name": "markup",
          "type": "uint256"
        }
      ],
      "name": "VendorUpdated",
      "type": "event"
    },
    {
      "constant": true,
      "inputs": [],
      "name": "BUCKET_C0",
      "outputs": [
        {
          "internalType": "bytes32",
          "name": "",
          "type": "bytes32"
        }
      ],
      "payable": false,
      "stateMutability": "view",
      "type": "function"
    },
    {
      "constant": true,
      "inputs": [],
      "name": "BUCKET_X2",
      "outputs": [
        {
          "internalType": "bytes32",
          "name": "",
          "type": "bytes32"
        }
      ],
      "payable": false,
      "stateMutability": "view",
      "type": "function"
    },
    {
      "constant": true,
      "inputs": [],
      "name": "VENDORS_LIST_ARRAY_MAX_LENGTH",
      "outputs": [
        {
          "internalType": "uint8",
          "name": "",
          "type": "uint8"
        }
      ],
      "payable": false,
      "stateMutability": "view",
      "type": "function"
    },
    {
      "constant": true,
      "inputs": [],
      "name": "VENDOR_MAX_MARKUP",
      "outputs": [
        {
          "internalType": "uint256",
          "name": "",
          "type": "uint256"
        }
      ],
      "payable": false,
      "stateMutability": "view",
      "type": "function"
    },
    {
      "constant": false,
      "inputs": [
        {
          "internalType": "contract IGovernor",
          "name": "newIGovernor",
          "type": "address"
        }
      ],
      "name": "changeIGovernor",
      "outputs": [],
      "payable": false,
      "stateMutability": "nonpayable",
      "type": "function"
    },
    {
      "constant": true,
      "inputs": [],
      "name": "connector",
      "outputs": [
        {
          "internalType": "contract MoCConnector",
          "name": "",
          "type": "address"
        }
      ],
      "payable": false,
      "stateMutability": "view",
      "type": "function"
    },
    {
      "constant": true,
      "inputs": [],
      "name": "getDayPrecision",
      "outputs": [
        {
          "internalType": "uint256",
          "name": "",
          "type": "uint256"
        }
      ],
      "payable": false,
      "stateMutability": "view",
      "type": "function"
    },
    {
      "constant": true,
      "inputs": [],
      "name": "getMocPrecision",
      "outputs": [
        {
          "internalType": "uint256",
          "name": "",
          "type": "uint256"
        }
      ],
      "payable": false,
      "stateMutability": "view",
      "type": "function"
    },
    {
      "constant": true,
      "inputs": [],
      "name": "getReservePrecision",
      "outputs": [
        {
          "internalType": "uint256",
          "name": "",
          "type": "uint256"
        }
      ],
      "payable": false,
      "stateMutability": "view",
      "type": "function"
    },
    {
      "constant": true,
      "inputs": [],
      "name": "governor",
      "outputs": [
        {
          "internalType": "contract IGovernor",
          "name": "",
          "type": "address"
        }
      ],
      "payable": false,
      "stateMutability": "view",
      "type": "function"
    },
    {
      "constant": true,
      "inputs": [],
      "name": "vendorGuardianAddress",
      "outputs": [
        {
          "internalType": "address",
          "name": "",
          "type": "address"
        }
      ],
      "payable": false,
      "stateMutability": "view",
      "type": "function"
    },
    {
      "constant": true,
      "inputs": [
        {
          "internalType": "address",
          "name": "",
          "type": "address"
        }
      ],
      "name": "vendors",
      "outputs": [
        {
          "internalType": "bool",
          "name": "isActive",
          "type": "bool"
        },
        {
          "internalType": "uint256",
          "name": "markup",
          "type": "uint256"
        },
        {
          "internalType": "uint256",
          "name": "totalPaidInMoC",
          "type": "uint256"
        },
        {
          "internalType": "uint256",
          "name": "staking",
          "type": "uint256"
        }
      ],
      "payable": false,
      "stateMutability": "view",
      "type": "function"
    },
    {
      "constant": true,
      "inputs": [
        {
          "internalType": "uint256",
          "name": "",
          "type": "uint256"
        }
      ],
      "name": "vendorsList",
      "outputs": [
        {
          "internalType": "address",
          "name": "",
          "type": "address"
        }
      ],
      "payable": false,
      "stateMutability": "view",
      "type": "function"
    },
    {
      "constant": false,
      "inputs": [
        {
          "internalType": "address",
          "name": "connectorAddress",
          "type": "address"
        },
        {
          "internalType": "address",
          "name": "_governor",
          "type": "address"
        },
        {
          "internalType": "address",
          "name": "_vendorGuardianAddress",
          "type": "address"
        }
      ],
      "name": "initialize",
      "outputs": [],
      "payable": false,
      "stateMutability": "nonpayable",
      "type": "function"
    },
    {
      "constant": false,
      "inputs": [
        {
          "internalType": "contract IGovernor",
          "name": "_governor",
          "type": "address"
        }
      ],
      "name": "initialize",
      "outputs": [],
      "payable": false,
      "stateMutability": "nonpayable",
      "type": "function"
    },
    {
      "constant": true,
      "inputs": [],
      "name": "getVendorsCount",
      "outputs": [
        {
          "internalType": "uint256",
          "name": "vendorsCount",
          "type": "uint256"
        }
      ],
      "payable": false,
      "stateMutability": "view",
      "type": "function"
    },
    {
      "constant": false,
      "inputs": [
        {
          "internalType": "address",
          "name": "account",
          "type": "address"
        },
        {
          "internalType": "uint256",
          "name": "markup",
          "type": "uint256"
        }
      ],
      "name": "registerVendor",
      "outputs": [
        {
          "internalType": "bool",
          "name": "isActive",
          "type": "bool"
        }
      ],
      "payable": false,
      "stateMutability": "nonpayable",
      "type": "function"
    },
    {
      "constant": false,
      "inputs": [
        {
          "internalType": "address",
          "name": "account",
          "type": "address"
        }
      ],
      "name": "unregisterVendor",
      "outputs": [
        {
          "internalType": "bool",
          "name": "isActive",
          "type": "bool"
        }
      ],
      "payable": false,
      "stateMutability": "nonpayable",
      "type": "function"
    },
    {
      "constant": false,
      "inputs": [
        {
          "internalType": "uint256",
          "name": "staking",
          "type": "uint256"
        }
      ],
      "name": "addStake",
      "outputs": [],
      "payable": false,
      "stateMutability": "nonpayable",
      "type": "function"
    },
    {
      "constant": false,
      "inputs": [
        {
          "internalType": "uint256",
          "name": "staking",
          "type": "uint256"
        }
      ],
      "name": "removeStake",
      "outputs": [],
      "payable": false,
      "stateMutability": "nonpayable",
      "type": "function"
    },
    {
      "constant": false,
      "inputs": [
        {
          "internalType": "address",
          "name": "account",
          "type": "address"
        },
        {
          "internalType": "uint256",
          "name": "mocAmount",
          "type": "uint256"
        },
        {
          "internalType": "uint256",
          "name": "resTokenAmount",
          "type": "uint256"
        }
      ],
      "name": "updatePaidMarkup",
      "outputs": [
        {
          "internalType": "bool",
          "name": "",
          "type": "bool"
        }
      ],
      "payable": false,
      "stateMutability": "nonpayable",
      "type": "function"
    },
    {
      "constant": true,
      "inputs": [
        {
          "internalType": "address",
          "name": "account",
          "type": "address"
        }
      ],
      "name": "getIsActive",
      "outputs": [
        {
          "internalType": "bool",
          "name": "",
          "type": "bool"
        }
      ],
      "payable": false,
      "stateMutability": "view",
      "type": "function"
    },
    {
      "constant": true,
      "inputs": [
        {
          "internalType": "address",
          "name": "account",
          "type": "address"
        }
      ],
      "name": "getMarkup",
      "outputs": [
        {
          "internalType": "uint256",
          "name": "",
          "type": "uint256"
        }
      ],
      "payable": false,
      "stateMutability": "view",
      "type": "function"
    },
    {
      "constant": true,
      "inputs": [
        {
          "internalType": "address",
          "name": "account",
          "type": "address"
        }
      ],
      "name": "getTotalPaidInMoC",
      "outputs": [
        {
          "internalType": "uint256",
          "name": "",
          "type": "uint256"
        }
      ],
      "payable": false,
      "stateMutability": "view",
      "type": "function"
    },
    {
      "constant": true,
      "inputs": [
        {
          "internalType": "address",
          "name": "account",
          "type": "address"
        }
      ],
      "name": "getStaking",
      "outputs": [
        {
          "internalType": "uint256",
          "name": "",
          "type": "uint256"
        }
      ],
      "payable": false,
      "stateMutability": "view",
      "type": "function"
    },
    {
      "constant": false,
      "inputs": [],
      "name": "resetTotalPaidInMoC",
      "outputs": [],
      "payable": false,
      "stateMutability": "nonpayable",
      "type": "function"
    },
    {
      "constant": true,
      "inputs": [],
      "name": "getVendorGuardianAddress",
      "outputs": [
        {
          "internalType": "address",
          "name": "",
          "type": "address"
        }
      ],
      "payable": false,
      "stateMutability": "view",
      "type": "function"
    },
    {
      "constant": false,
      "inputs": [
        {
          "internalType": "address",
          "name": "_vendorGuardianAddress",
          "type": "address"
        }
      ],
      "name": "setVendorGuardianAddress",
      "outputs": [],
      "payable": false,
      "stateMutability": "nonpayable",
      "type": "function"
    }
  ],
  "bytecode": "0x608060405234801561001057600080fd5b50612095806100206000396000f3fe608060405234801561001057600080fd5b50600436106101e1576000357c0100000000000000000000000000000000000000000000000000000000900480638d188a9b11610116578063c0c53b8b116100b4578063e22155f61161008e578063e22155f6146104de578063e2414a73146104e6578063eb4f16b5146104ee578063f715e2931461050b576101e1565b8063c0c53b8b14610478578063c4d66de8146104b0578063cc9875d2146104d6576101e1565b8063b6e08330116100f0578063b6e08330146103e3578063b9b093c314610409578063bd66d06d1461042f578063beded8a51461044c576101e1565b80638d188a9b146103b6578063939624ab146103be5780639d0d740f146103db576101e1565b80635076a4fc1161018357806383f2d03e1161015d57806383f2d03e1461033857806383f3084f1461035657806386566bff1461035e57806388114db314610384576101e1565b80635076a4fc1461032057806357a13a16146103285780636acc16ae14610330576101e1565b806317ae1fc5116101bf57806317ae1fc51461024a57806327e30c36146102845780633d7860f8146102d25780634d53dd3d146102fa576101e1565b806306bdce8c146101e65780630c340a241461020057806311c8863314610224575b600080fd5b6101ee610513565b60408051918252519081900360200190f35b61020861051a565b60408051600160a060020a039092168252519081900360200190f35b6101ee6004803603602081101561023a57600080fd5b5035600160a060020a0316610529565b6102706004803603602081101561026057600080fd5b5035600160a060020a031661054b565b604080519115158252519081900360200190f35b6102aa6004803603602081101561029a57600080fd5b5035600160a060020a0316610569565b6040805194151585526020850193909352838301919091526060830152519081900360800190f35b6102f8600480360360208110156102e857600080fd5b5035600160a060020a0316610594565b005b6102706004803603602081101561031057600080fd5b5035600160a060020a03166106f1565b6102086108c7565b6101ee6108d6565b6102f86108fa565b610340610a98565b6040805160ff9092168252519081900360200190f35b610208610a9d565b6101ee6004803603602081101561037457600080fd5b5035600160a060020a0316610aac565b6102706004803603606081101561039a57600080fd5b50600160a060020a038135169060208101359060400135610aca565b610208610e09565b6102f8600480360360208110156103d457600080fd5b5035610e18565b6101ee611077565b6102f8600480360360208110156103f957600080fd5b5035600160a060020a0316611082565b6101ee6004803603602081101561041f57600080fd5b5035600160a060020a03166111b8565b6102086004803603602081101561044557600080fd5b50356111d6565b6102706004803603604081101561046257600080fd5b50600160a060020a0381351690602001356111fd565b6102f86004803603606081101561048e57600080fd5b50600160a060020a0381358116916020810135821691604090910135166114cb565b6102f8600480360360208110156104c657600080fd5b5035600160a060020a0316611596565b6101ee611656565b6101ee61165c565b6101ee611680565b6102f86004803603602081101561050457600080fd5b5035611686565b6101ee6119d7565b6066545b90565b609b54600160a060020a031681565b600160a060020a038116600090815260d260205260409020600301545b919050565b600160a060020a0316600090815260d2602052604090205460ff1690565b60d260205260009081526040902080546001820154600283015460039093015460ff90921692909184565b609b54604080517fd994d6d50000000000000000000000000000000000000000000000000000000081523360048201529051600160a060020a039092169163d994d6d591602480820192602092909190829003018186803b1580156105f857600080fd5b505afa15801561060c573d6000803e3d6000fd5b505050506040513d602081101561062257600080fd5b505160408051808201909152601681527f6e6f745f617574686f72697a65645f6368616e676572000000000000000000006020820152906106e45760405160e560020a62461bcd0281526004018080602001828103825283818151815260200191508051906020019080838360005b838110156106a9578181015183820152602001610691565b50505050905090810190601f1680156106d65780820380516001836020036101000a031916815260200191505b509250505060405180910390fd5b506106ee816119dd565b50565b60d154600090600160a060020a031633146107405760405160e560020a62461bcd028152600401808060200182810382526025815260200180611f8e6025913960400191505060405180910390fd5b60005b60d35460ff8216108015610784575082600160a060020a031660d38260ff168154811061076c57fe5b600091825260209091200154600160a060020a031614155b1561079157600101610743565b60d35460ff821610156108a757600160a060020a038316600090815260d260205260409020805460ff1916905560d3805460001981019081106107d057fe5b60009182526020909120015460d38054600160a060020a039092169160ff84169081106107f957fe5b60009182526020909120018054600160a060020a031916600160a060020a039290921691909117905560d38054600019810190811061083457fe5b60009182526020909120018054600160a060020a031916905560d3805490610860906000198301611f1c565b5060408051600160a060020a038516815290517f789f0f526150ba8ad421f3f1d3f49d7b6faaf103e5c17b81988286736ee88ae09181900360200190a16000915050610546565b5050600160a060020a0316600090815260d2602052604090205460ff1690565b60d154600160a060020a031690565b7f583200000000000000000000000000000000000000000000000000000000000081565b603354604080517f3af32abf000000000000000000000000000000000000000000000000000000008152336004820181905291519192600160a060020a031691633af32abf91602480820192602092909190829003018186803b15801561096057600080fd5b505afa158015610974573d6000803e3d6000fd5b505050506040513d602081101561098a57600080fd5b50516109e0576040805160e560020a62461bcd02815260206004820152601a60248201527f41646472657373206973206e6f742077686974656c6973746564000000000000604482015290519081900360640190fd5b60005b60d35460ff82161015610a9457600060d38260ff1681548110610a0257fe5b6000918252602080832090910154600160a060020a031680835260d290915260409091205490915060ff16151560011415610a8b57600160a060020a038116600081815260d26020908152604080832060020192909255815192835290517fa9977be788a5577486ed0bb0b6207813278e247fa4daf2dbfa701f73ed4e94f09281900390910190a15b506001016109e3565b5050565b606481565b603354600160a060020a031681565b600160a060020a0316600090815260d2602052604090206001015490565b603354604080517f3af32abf00000000000000000000000000000000000000000000000000000000815233600482018190529151600093600160a060020a031691633af32abf916024808301926020929190829003018186803b158015610b3057600080fd5b505afa158015610b44573d6000803e3d6000fd5b505050506040513d6020811015610b5a57600080fd5b5051610bb0576040805160e560020a62461bcd02815260206004820152601a60248201527f41646472657373206973206e6f742077686974656c6973746564000000000000604482015290519081900360640190fd5b610bb8611f45565b50600160a060020a038516600090815260d260209081526040918290208251608081018452815460ff16158015808352600184015494830194909452600283015494820194909452600390910154606082015291610c2e575060608101516040820151610c2b908763ffffffff611a7f16565b11155b15610dfb57848415610d7b5760cf54604080517fe0dd23760000000000000000000000000000000000000000000000000000000081529051600092600160a060020a03169163e0dd2376916004808301926020929190829003018186803b158015610c9857600080fd5b505afa158015610cac573d6000803e3d6000fd5b505050506040513d6020811015610cc257600080fd5b505160cf54604080517f9a80d4210000000000000000000000000000000000000000000000000000000081529051929350600092600160a060020a0390921691639a80d42191600480820192602092909190829003018186803b158015610d2857600080fd5b505afa158015610d3c573d6000803e3d6000fd5b505050506040513d6020811015610d5257600080fd5b50519050610d7681610d6a848a63ffffffff611ae316565b9063ffffffff611b3f16565b925050505b6040820151610d90908263ffffffff611a7f16565b600160a060020a038816600081815260d2602090815260409182902060020193909355805191825291810188905280820187905290517f91056bd264b833b039d01e67ad1437d066bb2d7c1d46b0d1cd9b5c8672118e559181900360600190a1600193505050610e01565b60009250505b509392505050565b60d154600160a060020a031681565b33600090815260d2602052604090205460ff161515600114610e84576040805160e560020a62461bcd02815260206004820181905260248201527f56656e646f7220697320696e6578697374656e74206f7220696e616374697665604482015290519081900360640190fd5b60008111610edc576040805160e560020a62461bcd02815260206004820181905260248201527f5374616b696e672073686f756c642062652067726561746572207468616e2030604482015290519081900360640190fd5b60cf54604080517f7f13cb060000000000000000000000000000000000000000000000000000000081529051600092600160a060020a031691637f13cb06916004808301926020929190829003018186803b158015610f3a57600080fd5b505afa158015610f4e573d6000803e3d6000fd5b505050506040513d6020811015610f6457600080fd5b5051604080517fa9059cbb000000000000000000000000000000000000000000000000000000008152336004820152602481018590529051919250600160a060020a0383169163a9059cbb916044808201926020929091908290030181600087803b158015610fd257600080fd5b505af1158015610fe6573d6000803e3d6000fd5b505050506040513d6020811015610ffc57600080fd5b505033600090815260d26020526040902060030154611021908363ffffffff611bac16565b33600081815260d2602090815260409182902060030193909355805191825291810184905281517f5dc3232b5743fb818faead203a3c589e9b8e49923ea78645bd52c71b6aae5c38929181900390910190a15050565b662386f26fc1000081565b609b54604080517fd994d6d50000000000000000000000000000000000000000000000000000000081523360048201529051600160a060020a039092169163d994d6d591602480820192602092909190829003018186803b1580156110e657600080fd5b505afa1580156110fa573d6000803e3d6000fd5b505050506040513d602081101561111057600080fd5b505160408051808201909152601681527f6e6f745f617574686f72697a65645f6368616e676572000000000000000000006020820152906111955760405160e560020a62461bcd0281526020600482018181528351602484015283519092839260449091019190850190808383600083156106a9578181015183820152602001610691565b50609b8054600160a060020a031916600160a060020a0392909216919091179055565b600160a060020a0316600090815260d2602052604090206002015490565b60d381815481106111e357fe5b600091825260209091200154600160a060020a0316905081565b60d154600090600160a060020a0316331461124c5760405160e560020a62461bcd028152600401808060200182810382526025815260200180611f8e6025913960400191505060405180910390fd5b600160a060020a0383166112aa576040805160e560020a62461bcd02815260206004820152601e60248201527f56656e646f72206163636f756e74206d757374206e6f74206265203078300000604482015290519081900360640190fd5b662386f26fc10000821115611309576040805160e560020a62461bcd02815260206004820181905260248201527f56656e646f72206d61726b7570207468726573686f6c64206578636565646564604482015290519081900360640190fd5b600160a060020a038316600090815260d2602052604090205460ff1661142c5760d354606411611383576040805160e560020a62461bcd02815260206004820152601f60248201527f76656e646f72734c697374206c656e677468206f7574206f662072616e676500604482015290519081900360640190fd5b600160a060020a038316600081815260d260209081526040808320805460ff19166001908117825590810187905560d3805491820181559093527f915c3eb987b20e1af620c1403197bf687fb7f18513b3a73fde6e78c7072c41a69092018054600160a060020a031916841790558151928352820184905280517f46e79b667a082b3610a126e118bbe51867e23a1e59241106c4c721b2a3beb37b9281900390910190a16114a7565b600160a060020a038316600090815260d2602052604090206001015482146114a757600160a060020a038316600081815260d260209081526040918290206001018590558151928352820184905280517f10b404f71fbce34ef44aaccdd5e27d9b34a07ec02e96893ea974ff156926e2a29281900390910190a15b50600160a060020a038216600090815260d2602052604090205460ff165b92915050565b600054610100900460ff16806114e457506114e4611c0c565b806114f2575060005460ff16155b6115305760405160e560020a62461bcd02815260040180806020018281038252602e815260200180612033602e913960400191505060405180910390fd5b600054610100900460ff1615801561155b576000805460ff1961ff0019909116610100171660011790555b611563611c12565b61156c84611c45565b611574611d05565b61157e8383611ef8565b8015611590576000805461ff00191690555b50505050565b600054610100900460ff16806115af57506115af611c0c565b806115bd575060005460ff16155b6115fb5760405160e560020a62461bcd02815260040180806020018281038252602e815260200180612033602e913960400191505060405180910390fd5b600054610100900460ff16158015611626576000805460ff1961ff0019909116610100171660011790555b609b8054600160a060020a031916600160a060020a0384161790558015610a94576000805461ff00191690555050565b60d35490565b7f433000000000000000000000000000000000000000000000000000000000000081565b60675490565b33600090815260d2602052604090205460ff1615156001146116f2576040805160e560020a62461bcd02815260206004820181905260248201527f56656e646f7220697320696e6578697374656e74206f7220696e616374697665604482015290519081900360640190fd5b60cf54604080517f7f13cb060000000000000000000000000000000000000000000000000000000081529051600092600160a060020a031691637f13cb06916004808301926020929190829003018186803b15801561175057600080fd5b505afa158015611764573d6000803e3d6000fd5b505050506040513d602081101561177a57600080fd5b505160d054604080517fb02ff01600000000000000000000000000000000000000000000000000000000815233600482015230602482015281519394506000938493600160a060020a03169263b02ff0169260448082019391829003018186803b1580156117e757600080fd5b505afa1580156117fb573d6000803e3d6000fd5b505050506040513d604081101561181157600080fd5b508051602090910151909250905083611874576040805160e560020a62461bcd02815260206004820181905260248201527f5374616b696e672073686f756c642062652067726561746572207468616e2030604482015290519081900360640190fd5b8184111580156118845750808411155b6118c25760405160e560020a62461bcd02815260040180806020018281038252603a815260200180611fd8603a913960400191505060405180910390fd5b604080517f23b872dd000000000000000000000000000000000000000000000000000000008152336004820152306024820152604481018690529051600160a060020a038516916323b872dd9160648083019260209291908290030181600087803b15801561193057600080fd5b505af1158015611944573d6000803e3d6000fd5b505050506040513d602081101561195a57600080fd5b505033600090815260d2602052604090206003015461197f908563ffffffff611a7f16565b33600081815260d2602090815260409182902060030193909355805191825291810186905281517f0c6c40bbebd409feeeb12a699829f58106005d4c3e8c012d8b6ceb49c574b49a929181900390910190a150505050565b60685490565b600160a060020a038116611a255760405160e560020a62461bcd028152600401808060200182810382526025815260200180611fb36025913960400191505060405180910390fd5b60d18054600160a060020a031916600160a060020a03838116919091179182905560408051929091168252517f47f4d86528285723866ff780dae9757a0469d9ee3c6d53ba895b5f51939b0216916020908290030190a150565b600082820183811015611adc576040805160e560020a62461bcd02815260206004820152601b60248201527f536166654d6174683a206164646974696f6e206f766572666c6f770000000000604482015290519081900360640190fd5b9392505050565b600082611af2575060006114c5565b82820282848281611aff57fe5b0414611adc5760405160e560020a62461bcd0281526004018080602001828103825260218152602001806120126021913960400191505060405180910390fd5b6000808211611b98576040805160e560020a62461bcd02815260206004820152601a60248201527f536166654d6174683a206469766973696f6e206279207a65726f000000000000604482015290519081900360640190fd5b6000828481611ba357fe5b04949350505050565b600082821115611c06576040805160e560020a62461bcd02815260206004820152601e60248201527f536166654d6174683a207375627472616374696f6e206f766572666c6f770000604482015290519081900360640190fd5b50900390565b303b1590565b60408051606081018252670de0b6b3a7640000808252600160208301819052919092018290526066829055606755606855565b600054610100900460ff1680611c5e5750611c5e611c0c565b80611c6c575060005460ff16155b611caa5760405160e560020a62461bcd02815260040180806020018281038252602e815260200180612033602e913960400191505060405180910390fd5b600054610100900460ff16158015611cd5576000805460ff1961ff0019909116610100171660011790555b60338054600160a060020a031916600160a060020a0384161790558015610a94576000805461ff00191690555050565b603360009054906101000a9004600160a060020a0316600160a060020a031663534282536040518163ffffffff167c010000000000000000000000000000000000000000000000000000000002815260040160206040518083038186803b158015611d6f57600080fd5b505afa158015611d83573d6000803e3d6000fd5b505050506040513d6020811015611d9957600080fd5b505160ce8054600160a060020a031916600160a060020a03928316179055603354604080517f12529f1f000000000000000000000000000000000000000000000000000000008152905191909216916312529f1f916004808301926020929190829003018186803b158015611e0d57600080fd5b505afa158015611e21573d6000803e3d6000fd5b505050506040513d6020811015611e3757600080fd5b505160cf8054600160a060020a031916600160a060020a03928316179055603354604080517f8557af6f00000000000000000000000000000000000000000000000000000000815290519190921691638557af6f916004808301926020929190829003018186803b158015611eab57600080fd5b505afa158015611ebf573d6000803e3d6000fd5b505050506040513d6020811015611ed557600080fd5b505160d08054600160a060020a031916600160a060020a03909216919091179055565b609b8054600160a060020a031916600160a060020a038416179055610a94816119dd565b815481835581811115611f4057600083815260209020611f40918101908301611f6f565b505050565b60405180608001604052806000151581526020016000815260200160008152602001600081525090565b61051791905b80821115611f895760008155600101611f75565b509056fe43616c6c6572206973206e6f742076656e646f7220677561726469616e206164647265737376656e646f72477561726469616e41646472657373206d757374206e6f74206265203078304d6f432062616c616e6365206f72204d6f4320616c6c6f77616e636520617265206e6f7420656e6f75676820746f20616464207374616b696e67536166654d6174683a206d756c7469706c69636174696f6e206f766572666c6f77436f6e747261637420696e7374616e63652068617320616c7265616479206265656e20696e697469616c697a6564a265627a7a72315820145baff79ed33bab5c28e543f9c7fda3292b5cb9db680abeffc6b0c9ae6b8bbf64736f6c63430005110032",
  "source": "pragma solidity ^0.5.8;\n\nimport \"openzeppelin-solidity/contracts/math/Math.sol\";\nimport \"openzeppelin-solidity/contracts/math/SafeMath.sol\";\nimport \"moc-governance/contracts/Governance/Governed.sol\";\nimport \"../contracts_updated/MoCLibConnection.sol\";\nimport \"../contracts_updated/base/MoCBase.sol\";\nimport \"../contracts_updated/interfaces/IMoC.sol\";\nimport \"openzeppelin-solidity/contracts/token/ERC20/IERC20.sol\";\nimport \"../contracts_updated/interfaces/IMoCExchange.sol\";\nimport \"../contracts_updated/interfaces/IMoCState.sol\";\nimport \"./interfaces/IMoCVendors.sol\";\n\ncontract MoCVendorsEvents {\n  event VendorRegistered(\n    address account,\n    uint256 markup\n  );\n  event VendorUpdated(\n    address account,\n    uint256 markup\n  );\n  event VendorUnregistered(\n    address account\n  );\n  event VendorStakeAdded(\n    address account,\n    uint256 staking\n  );\n  event VendorStakeRemoved(\n    address account,\n    uint256 staking\n  );\n  event TotalPaidInMoCReset(\n    address account\n  );\n  event VendorGuardianAddressChanged (\n    address vendorGuardianAddress\n  );\n  event VendorReceivedMarkup (\n    address vendorAdress,\n    uint256 paidMoC,\n    uint256 paidReserveToken\n  );\n}\n\n// TODO: TBD MoCVendors V2 implementation and its migration\ncontract MoCVendors is MoCVendorsEvents, MoCBase, MoCLibConnection, Governed, IMoCVendors {\n  using Math for uint256;\n  using SafeMath for uint256;\n\n  // Structs\n  struct VendorDetails {\n    bool isActive;\n    uint256 markup;\n    uint256 totalPaidInMoC;\n    uint256 staking; // temporarily retained\n  }\n\n  // Contracts\n  IMoC internal moc;\n  IMoCState internal mocState;\n  IMoCExchange internal mocExchange;\n\n  // Constants\n  uint8 public constant VENDORS_LIST_ARRAY_MAX_LENGTH = 100;\n  uint256 public constant VENDOR_MAX_MARKUP = 10000000000000000; // 0.01 = 1%\n\n  // Variables\n  address public vendorGuardianAddress;\n  mapping(address => VendorDetails) public vendors;\n  address[] public vendorsList;\n\n  /**\n    @dev Initializes the contract\n    @param connectorAddress MoCConnector contract address\n    @param _governor Governor contract address\n    @param _vendorGuardianAddress Address which will be authorized to register and unregister vendors.\n  */\n  function initialize(\n    address connectorAddress,\n    address _governor,\n    address _vendorGuardianAddress\n  ) public initializer {\n    initializePrecisions();\n    initializeBase(connectorAddress);\n    initializeContracts();\n    initializeValues(_governor, _vendorGuardianAddress);\n  }\n\n  /**\n    @dev Gets the count of active registered vendors\n    @return Amount of active registered vendors\n  */\n  function getVendorsCount() public view returns(uint vendorsCount) {\n    return vendorsList.length;\n  }\n\n  /**\n    @dev Allows to register a vendor\n    @param account Vendor address\n    @param markup Markup which vendor will perceive from mint/redeem operations\n    @return true if vendor was registered successfully; otherwise false\n  */\n  function registerVendor(address account, uint256 markup) public onlyVendorGuardian() returns (bool isActive) {\n    require(account != address(0), \"Vendor account must not be 0x0\");\n    require(markup <= VENDOR_MAX_MARKUP, \"Vendor markup threshold exceeded\");\n\n    if (vendors[account].isActive == false) {\n      // Change the error message according to the value of the VENDORS_LIST_ARRAY_MAX_LENGTH constant\n      require(vendorsList.length < VENDORS_LIST_ARRAY_MAX_LENGTH, \"vendorsList length out of range\");\n\n      // Map vendor details to vendor address\n      vendors[account].isActive = true;\n      vendors[account].markup = markup;\n\n      vendorsList.push(account);\n\n      emit VendorRegistered(account, markup);\n    } else if (vendors[account].markup != markup) {\n      vendors[account].markup = markup;\n\n      emit VendorUpdated(account, markup);\n    }\n\n    return vendors[account].isActive;\n  }\n\n  /**\n    @dev Allows to unregister a vendor\n    @param account Vendor address\n    @return false if vendor was unregistered successfully; otherwise false\n  */\n  function unregisterVendor(address account) public onlyVendorGuardian() returns (bool isActive) {\n    uint8 i = 0;\n    while (i < vendorsList.length && vendorsList[i] != account) {\n      i++;\n    }\n    // If vendor is found, then unregister it\n    if (i < vendorsList.length) {\n      vendors[account].isActive = false;\n      vendorsList[i] = vendorsList[vendorsList.length - 1];\n      delete vendorsList[vendorsList.length - 1];\n      vendorsList.length--;\n\n      emit VendorUnregistered(account);\n      return false;\n    }\n\n    return vendors[account].isActive;\n  }\n\n  /**\n    @dev Allows an active vendor (msg.sender) to add staking\n    @param staking Staking the vendor wants to add\n  */\n  function addStake(uint256 staking) public onlyActiveVendor() {\n    IERC20 mocToken = IERC20(mocState.getMoCToken());\n    (uint256 mocBalance, uint256 mocAllowance) = mocExchange.getMoCTokenBalance(msg.sender, address(this));\n\n    require(staking > 0, \"Staking should be greater than 0\");\n    require(staking <= mocBalance && staking <= mocAllowance, \"MoC balance or MoC allowance are not enough to add staking\");\n\n    mocToken.transferFrom(msg.sender, address(this), staking);\n    vendors[msg.sender].staking = vendors[msg.sender].staking.add(staking);\n\n    emit VendorStakeAdded(msg.sender, staking);\n  }\n\n  /**\n    @dev Allows an active vendor (msg.sender) to remove staking\n    @param staking Staking the vendor wants to remove\n  */\n  function removeStake(uint256 staking) public onlyActiveVendor() {\n    require(staking > 0, \"Staking should be greater than 0\");\n\n    IERC20 mocToken = IERC20(mocState.getMoCToken());\n    mocToken.transfer(msg.sender, staking);\n    vendors[msg.sender].staking = vendors[msg.sender].staking.sub(staking);\n\n    emit VendorStakeRemoved(msg.sender, staking);\n  }\n\n  /**\n    @dev Allows to update paid markup to vendor\n    @param account Vendor address\n    @param mocAmount paid markup in MoC\n    @param resTokenAmount paid markup in ReserveToken\n  */\n  function updatePaidMarkup(address account, uint256 mocAmount, uint256 resTokenAmount)\n  public\n  onlyWhitelisted(msg.sender)\n  returns(bool) {\n    VendorDetails memory vendorDetails = vendors[account];\n    if (vendorDetails.isActive &&\n          vendorDetails.totalPaidInMoC.add(mocAmount) <= vendorDetails.staking) {\n      uint256 totalMoCAmount = mocAmount;\n      if (resTokenAmount > 0){\n        uint256 reserveTokenPrice = mocState.getReserveTokenPrice();\n        uint256 mocPrice = mocState.getMoCPrice();\n        totalMoCAmount = reserveTokenPrice.mul(resTokenAmount).div(mocPrice);\n      }\n      vendors[account].totalPaidInMoC = vendorDetails.totalPaidInMoC.add(totalMoCAmount);\n      emit VendorReceivedMarkup(account, mocAmount, resTokenAmount);\n      return true;\n    }\n    return false;\n  }\n\n  /**\n    @dev Gets if a vendor is active\n    @param account Vendor address\n    @return true if vendor is active; false otherwise\n  */\n  function getIsActive(address account) public view\n  returns (bool) {\n    return vendors[account].isActive;\n  }\n\n  /**\n    @dev Gets vendor markup\n    @param account Vendor address\n    @return Vendor markup\n  */\n  function getMarkup(address account) public view\n  returns (uint256) {\n    return vendors[account].markup;\n  }\n\n  /**\n    @dev Gets vendor total paid in MoC\n    @param account Vendor address\n    @return Vendor total paid in MoC\n  */\n  function getTotalPaidInMoC(address account) public view\n  returns (uint256) {\n    return vendors[account].totalPaidInMoC;\n  }\n\n  /**\n    @dev Gets vendor staking\n    @param account Vendor address\n    @return Vendor staking\n  */\n  function getStaking(address account) public view\n  returns (uint256) {\n    return vendors[account].staking;\n  }\n\n  /**\n    @dev Allows to reset all active vendor's total paid in MoC during settlement\n  */\n  function resetTotalPaidInMoC() public onlyWhitelisted(msg.sender) {\n    // Triggered by settlement\n    for (uint8 i = 0; i < vendorsList.length; i++) {\n      address account = vendorsList[i];\n\n      // Reset only if vendor is active\n      if (vendors[account].isActive == true) {\n        vendors[account].totalPaidInMoC = 0;\n\n        emit TotalPaidInMoCReset(account);\n      }\n    }\n  }\n\n  /**\n    @dev Returns the address is authorized to register and unregister vendors.\n  */\n  function getVendorGuardianAddress() public view returns(address) {\n    return vendorGuardianAddress;\n  }\n\n  /**\n    @dev Sets the address which will be authorized to register and unregister vendors.\n    @param _vendorGuardianAddress Address which will be authorized to register and unregister vendors.\n  */\n  function setVendorGuardianAddress(address _vendorGuardianAddress) public onlyAuthorizedChanger() {\n    setVendorGuardianAddressInternal(_vendorGuardianAddress);\n  }\n\n  function initializeContracts() internal {\n    moc = IMoC(connector.moc());\n    mocState = IMoCState(connector.mocState());\n    mocExchange = IMoCExchange(connector.mocExchange());\n  }\n\n  function initializeValues(address _governor, address _vendorGuardianAddress) internal {\n    governor = IGovernor(_governor);\n    setVendorGuardianAddressInternal(_vendorGuardianAddress);\n  }\n\n  /**\n    @dev Sets the address which will be authorized to register and unregister vendors.\n    @param _vendorGuardianAddress Address which will be authorized to register and unregister vendors.\n  */\n  function setVendorGuardianAddressInternal(address _vendorGuardianAddress) internal {\n    require(_vendorGuardianAddress != address(0), \"vendorGuardianAddress must not be 0x0\");\n\n    vendorGuardianAddress = _vendorGuardianAddress;\n\n    emit VendorGuardianAddressChanged(vendorGuardianAddress);\n  }\n\n  /**\n    @dev Checks if vendor (msg.sender) is active\n  */\n  modifier onlyActiveVendor() {\n    require(vendors[msg.sender].isActive == true, \"Vendor is inexistent or inactive\");\n    _;\n  }\n\n  /**\n    @dev Checks if address is allowed to call function\n  */\n  modifier onlyVendorGuardian() {\n    require(msg.sender == vendorGuardianAddress, \"Caller is not vendor guardian address\");\n    _;\n  }\n\n  // Leave a gap betweeen inherited contracts variables in order to be\n  // able to add more variables in them later\n  uint256[50] private upgradeGap;\n}\n",
  "sourcePath": "/Users/f.ruiz/projects/moc/RDOC-Contract-Internal/contracts/MoCVendors.sol",
  "compiler": {
    "name": "solc",
    "version": "0.5.17+commit.d19bba13.Emscripten.clang"
  },
  "schemaVersion": "3.0.11",
  "updatedAt": "2023-05-12T22:20:29.291Z",
  "devdoc": {
    "methods": {
      "addStake(uint256)": {
        "details": "Allows an active vendor (msg.sender) to add staking",
        "params": {
          "staking": "Staking the vendor wants to add"
        }
      },
      "changeIGovernor(address)": {
        "params": {
          "newIGovernor": "New governor address"
        }
      },
      "getIsActive(address)": {
        "details": "Gets if a vendor is active",
        "params": {
          "account": "Vendor address"
        },
        "return": "true if vendor is active; false otherwise"
      },
      "getMarkup(address)": {
        "details": "Gets vendor markup",
        "params": {
          "account": "Vendor address"
        },
        "return": "Vendor markup"
      },
      "getStaking(address)": {
        "details": "Gets vendor staking",
        "params": {
          "account": "Vendor address"
        },
        "return": "Vendor staking"
      },
      "getTotalPaidInMoC(address)": {
        "details": "Gets vendor total paid in MoC",
        "params": {
          "account": "Vendor address"
        },
        "return": "Vendor total paid in MoC"
      },
      "getVendorGuardianAddress()": {
        "details": "Returns the address is authorized to register and unregister vendors."
      },
      "getVendorsCount()": {
        "details": "Gets the count of active registered vendors",
        "return": "Amount of active registered vendors"
      },
      "initialize(address)": {
        "details": "This initialize replaces the constructor but it is not called automatically. It is necessary because of the upgradeability of the contracts",
        "params": {
          "_governor": "Governor address"
        }
      },
      "initialize(address,address,address)": {
        "details": "Initializes the contract",
        "params": {
          "_governor": "Governor contract address",
          "_vendorGuardianAddress": "Address which will be authorized to register and unregister vendors.",
          "connectorAddress": "MoCConnector contract address"
        }
      },
      "registerVendor(address,uint256)": {
        "details": "Allows to register a vendor",
        "params": {
          "account": "Vendor address",
          "markup": "Markup which vendor will perceive from mint/redeem operations"
        },
        "return": "true if vendor was registered successfully; otherwise false"
      },
      "removeStake(uint256)": {
        "details": "Allows an active vendor (msg.sender) to remove staking",
        "params": {
          "staking": "Staking the vendor wants to remove"
        }
      },
      "resetTotalPaidInMoC()": {
        "details": "Allows to reset all active vendor's total paid in MoC during settlement"
      },
      "setVendorGuardianAddress(address)": {
        "details": "Sets the address which will be authorized to register and unregister vendors.",
        "params": {
          "_vendorGuardianAddress": "Address which will be authorized to register and unregister vendors."
        }
      },
      "unregisterVendor(address)": {
        "details": "Allows to unregister a vendor",
        "params": {
          "account": "Vendor address"
        },
        "return": "false if vendor was unregistered successfully; otherwise false"
      },
      "updatePaidMarkup(address,uint256,uint256)": {
        "details": "Allows to update paid markup to vendor",
        "params": {
          "account": "Vendor address",
          "mocAmount": "paid markup in MoC",
          "resTokenAmount": "paid markup in ReserveToken"
        }
      }
    }
  },
  "userdoc": {
    "methods": {
      "changeIGovernor(address)": {
        "notice": "Change the contract's governor. Should be called through the old governance system"
      },
      "initialize(address)": {
        "notice": "Initialize the contract with the basic settings"
      }
    }
  }
}