{
  "address": "0x944D4195167eA76303dac6847fbdb35acC699D12",
  "abi": [
    {
      "inputs": [],
      "name": "InvalidAddress",
      "type": "error"
    },
    {
      "inputs": [],
      "name": "InvalidValue",
      "type": "error"
    },
    {
      "inputs": [],
      "name": "NotAuthorizedChanger",
      "type": "error"
    },
    {
      "anonymous": false,
      "inputs": [
        {
          "indexed": false,
          "internalType": "address",
          "name": "previousAdmin",
          "type": "address"
        },
        {
          "indexed": false,
          "internalType": "address",
          "name": "newAdmin",
          "type": "address"
        }
      ],
      "name": "AdminChanged",
      "type": "event"
    },
    {
      "anonymous": false,
      "inputs": [
        {
          "indexed": true,
          "internalType": "address",
          "name": "beacon",
          "type": "address"
        }
      ],
      "name": "BeaconUpgraded",
      "type": "event"
    },
    {
      "anonymous": false,
      "inputs": [
        {
          "indexed": false,
          "internalType": "uint8",
          "name": "version",
          "type": "uint8"
        }
      ],
      "name": "Initialized",
      "type": "event"
    },
    {
      "anonymous": false,
      "inputs": [
        {
          "indexed": false,
          "internalType": "uint256",
          "name": "acTokenPctToRecipient1_",
          "type": "uint256"
        },
        {
          "indexed": false,
          "internalType": "uint256",
          "name": "acTokenPctToRecipient2_",
          "type": "uint256"
        },
        {
          "indexed": false,
          "internalType": "uint256",
          "name": "feeTokenPctToRecipient1_",
          "type": "uint256"
        },
        {
          "indexed": false,
          "internalType": "uint256",
          "name": "feeTokenPctToRecipient2_",
          "type": "uint256"
        }
      ],
      "name": "SplitExecuted",
      "type": "event"
    },
    {
      "anonymous": false,
      "inputs": [
        {
          "indexed": true,
          "internalType": "address",
          "name": "implementation",
          "type": "address"
        }
      ],
      "name": "Upgraded",
      "type": "event"
    },
    {
      "inputs": [],
      "name": "acToken",
      "outputs": [
        {
          "internalType": "contract IERC20",
          "name": "",
          "type": "address"
        }
      ],
      "stateMutability": "view",
      "type": "function"
    },
    {
      "inputs": [],
      "name": "acTokenAddressRecipient1",
      "outputs": [
        {
          "internalType": "address",
          "name": "",
          "type": "address"
        }
      ],
      "stateMutability": "view",
      "type": "function"
    },
    {
      "inputs": [],
      "name": "acTokenAddressRecipient2",
      "outputs": [
        {
          "internalType": "address",
          "name": "",
          "type": "address"
        }
      ],
      "stateMutability": "view",
      "type": "function"
    },
    {
      "inputs": [],
      "name": "acTokenPctToRecipient1",
      "outputs": [
        {
          "internalType": "uint256",
          "name": "",
          "type": "uint256"
        }
      ],
      "stateMutability": "view",
      "type": "function"
    },
    {
      "inputs": [
        {
          "internalType": "contract IGovernor",
          "name": "newGovernor_",
          "type": "address"
        }
      ],
      "name": "changeGovernor",
      "outputs": [],
      "stateMutability": "nonpayable",
      "type": "function"
    },
    {
      "inputs": [],
      "name": "feeToken",
      "outputs": [
        {
          "internalType": "contract IERC20",
          "name": "",
          "type": "address"
        }
      ],
      "stateMutability": "view",
      "type": "function"
    },
    {
      "inputs": [],
      "name": "feeTokenAddressRecipient1",
      "outputs": [
        {
          "internalType": "address",
          "name": "",
          "type": "address"
        }
      ],
      "stateMutability": "view",
      "type": "function"
    },
    {
      "inputs": [],
      "name": "feeTokenAddressRecipient2",
      "outputs": [
        {
          "internalType": "address",
          "name": "",
          "type": "address"
        }
      ],
      "stateMutability": "view",
      "type": "function"
    },
    {
      "inputs": [],
      "name": "feeTokenPctToRecipient1",
      "outputs": [
        {
          "internalType": "uint256",
          "name": "",
          "type": "uint256"
        }
      ],
      "stateMutability": "view",
      "type": "function"
    },
    {
      "inputs": [],
      "name": "governor",
      "outputs": [
        {
          "internalType": "contract IGovernor",
          "name": "",
          "type": "address"
        }
      ],
      "stateMutability": "view",
      "type": "function"
    },
    {
      "inputs": [
        {
          "internalType": "address",
          "name": "governorAddress_",
          "type": "address"
        },
        {
          "internalType": "contract IERC20",
          "name": "acToken_",
          "type": "address"
        },
        {
          "internalType": "contract IERC20",
          "name": "feeToken_",
          "type": "address"
        },
        {
          "internalType": "address",
          "name": "acTokenAddressRecipient1_",
          "type": "address"
        },
        {
          "internalType": "address",
          "name": "acTokenAddressRecipient2_",
          "type": "address"
        },
        {
          "internalType": "uint256",
          "name": "acTokenPctToRecipient1_",
          "type": "uint256"
        },
        {
          "internalType": "address",
          "name": "feeTokenAddressRecipient1_",
          "type": "address"
        },
        {
          "internalType": "address",
          "name": "feeTokenAddressRecipient2_",
          "type": "address"
        },
        {
          "internalType": "uint256",
          "name": "feeTokenPctToRecipient1_",
          "type": "uint256"
        }
      ],
      "name": "initialize",
      "outputs": [],
      "stateMutability": "nonpayable",
      "type": "function"
    },
    {
      "inputs": [],
      "name": "proxiableUUID",
      "outputs": [
        {
          "internalType": "bytes32",
          "name": "",
          "type": "bytes32"
        }
      ],
      "stateMutability": "view",
      "type": "function"
    },
    {
      "inputs": [
        {
          "internalType": "contract IERC20",
          "name": "newAcToken_",
          "type": "address"
        }
      ],
      "name": "setAcToken",
      "outputs": [],
      "stateMutability": "nonpayable",
      "type": "function"
    },
    {
      "inputs": [
        {
          "internalType": "address",
          "name": "acTokenAddressRecipient1_",
          "type": "address"
        }
      ],
      "name": "setAcTokenAddressRecipient1",
      "outputs": [],
      "stateMutability": "nonpayable",
      "type": "function"
    },
    {
      "inputs": [
        {
          "internalType": "address",
          "name": "acTokenAddressRecipient2_",
          "type": "address"
        }
      ],
      "name": "setAcTokenAddressRecipient2",
      "outputs": [],
      "stateMutability": "nonpayable",
      "type": "function"
    },
    {
      "inputs": [
        {
          "internalType": "uint256",
          "name": "acTokenPctToRecipient1_",
          "type": "uint256"
        }
      ],
      "name": "setAcTokenPctToRecipient1",
      "outputs": [],
      "stateMutability": "nonpayable",
      "type": "function"
    },
    {
      "inputs": [
        {
          "internalType": "contract IERC20",
          "name": "newFeeToken_",
          "type": "address"
        }
      ],
      "name": "setFeeToken",
      "outputs": [],
      "stateMutability": "nonpayable",
      "type": "function"
    },
    {
      "inputs": [
        {
          "internalType": "address",
          "name": "feeTokenAddressRecipient1_",
          "type": "address"
        }
      ],
      "name": "setFeeTokenAddressRecipient1",
      "outputs": [],
      "stateMutability": "nonpayable",
      "type": "function"
    },
    {
      "inputs": [
        {
          "internalType": "address",
          "name": "feeTokenAddressRecipient2_",
          "type": "address"
        }
      ],
      "name": "setFeeTokenAddressRecipient2",
      "outputs": [],
      "stateMutability": "nonpayable",
      "type": "function"
    },
    {
      "inputs": [
        {
          "internalType": "uint256",
          "name": "feeTokenPctToRecipient1_",
          "type": "uint256"
        }
      ],
      "name": "setFeeTokenPctToRecipient1",
      "outputs": [],
      "stateMutability": "nonpayable",
      "type": "function"
    },
    {
      "inputs": [],
      "name": "split",
      "outputs": [],
      "stateMutability": "nonpayable",
      "type": "function"
    },
    {
      "inputs": [
        {
          "internalType": "address",
          "name": "newImplementation",
          "type": "address"
        }
      ],
      "name": "upgradeTo",
      "outputs": [],
      "stateMutability": "nonpayable",
      "type": "function"
    },
    {
      "inputs": [
        {
          "internalType": "address",
          "name": "newImplementation",
          "type": "address"
        },
        {
          "internalType": "bytes",
          "name": "data",
          "type": "bytes"
        }
      ],
      "name": "upgradeToAndCall",
      "outputs": [],
      "stateMutability": "payable",
      "type": "function"
    }
  ],
  "transactionHash": "0x5c95019eeda15928cbac918d9805fbb20b13e8aaf0487704073d4b0d5a8b68cd",
  "args": [],
  "numDeployments": 1,
  "bytecode": "0x60a08060405234610031573060805261130b908161003782396080518181816105000152818161088901526109860152f35b600080fdfe608060408181526004908136101561001657600080fd5b600092833560e01c9081630c340a2414610b595750806310bec3e914610b245780631105989114610ae057806311a37cc014610a9c5780631545ee9114610a5857806315cce22414610a1457806325bc6c41146109eb578381633659cfe61461095457508063374aa85d146109125780634dd75306146108f3578381634f1ef2861461080657508063529b44ab146105c257806352d1902d146104eb578063556f2f5f146104c2578063647846a5146104995780636a04b78714610455578063a990434214610411578063cc40272a146103e8578063d6a82cd5146103c9578063d8b627f9146103a0578063e4c0aaf41461035c578063ef9227971461032f5763f76541761461012557600080fd5b3461032b578260031936011261032b5760ca5481516370a0823160e01b8082523085830152859384938493919284926020926001600160a01b0391908216908481602481855afa908115610321578c916102f0575b50806102a9575b50508060cb5416988551928352309083015282826024818c5afa91821561029f578a9261023b575b50907fc356eb5d2ff4831654c13affe916edb329b5146c30eb257b66fd928a2c59f2a698608098979695949392826101f3575b50505082519586528501528301526060820152a180f35b610216975061023392965061022461020d60d154896112b7565b988980996110d0565b9889938360cf5416906110f3565b60cb5460d054821691166110f3565b3880806101dc565b97969594939280925088813d8311610298575b6102588183610b7e565b81010312610294577fc356eb5d2ff4831654c13affe916edb329b5146c30eb257b66fd928a2c59f2a698608098519293949596979850986101a9565b8980fd5b503d61024e565b85513d8c823e3d90fd5b6102c999506102d59195506102c060ce54826112b7565b998a80926110d0565b958360cc5416906110f3565b6102e9848260ca54168360cd5416906110f3565b3880610181565b90508481813d831161031a575b6103078183610b7e565b8101031261031657513861017a565b8b80fd5b503d6102fd565b87513d8e823e3d90fd5b8280fd5b83823461035857816003193601126103585760cd5490516001600160a01b039091168152602090f35b5080fd5b50503461035857602036600319011261035857356001600160a01b038116908190036103585761038a611228565b6001600160601b0360a01b603354161760335580f35b83823461035857816003193601126103585760cc5490516001600160a01b039091168152602090f35b83823461035857816003193601126103585760209060d1549051908152f35b83823461035857816003193601126103585760d05490516001600160a01b039091168152602090f35b50503461035857602036600319011261035857356001600160a01b038116908190036103585761043f611228565b6001600160601b0360a01b60cf54161760cf5580f35b50503461035857602036600319011261035857356001600160a01b0381169081900361035857610483611228565b6001600160601b0360a01b60ca54161760ca5580f35b83823461035857816003193601126103585760cb5490516001600160a01b039091168152602090f35b83823461035857816003193601126103585760cf5490516001600160a01b039091168152602090f35b5091346105bf57806003193601126105bf57507f00000000000000000000000000000000000000000000000000000000000000006001600160a01b0316300361055757602082517f360894a13ba1a3210667c828492db98dca3e2076cc3735a920a3ca505d382bbc8152f35b6020608492519162461bcd60e51b8352820152603860248201527f555550535570677261646561626c653a206d757374206e6f742062652063616c60448201527f6c6564207468726f7567682064656c656761746563616c6c00000000000000006064820152fd5b80fd5b50903461032b5761012036600319011261032b576001600160a01b039080358281169081900361080257602435928084168094036107fe57604435918183168093036107fa576064358281168091036107f6576084358381168091036107f25760a4359060c435928584168094036107ee5760e4359586168096036107ee5761010435968b549860ff8a60081c1615998a809b6107e1575b80156107ca575b156107705760ff1981166001178e558a61075f575b50670de0b6b3a764000080861161075057891161074257508b54996106b260ff8c60081c166106a481611070565b6106ad81611070565b611070565b6001600160601b0360a01b968760335416176033558660ca54161760ca558560cb54161760cb558460cc54161760cc558360cd54161760cd5560ce558160cf54161760cf5560d054161760d05560d15561070a578280f35b61ff001916825551600181527f7f26b83ff96e1f2b6a682f133852f6798a09c465da95921460cefb384740249890602090a138808280f35b8b51632a9ffab760e21b8152fd5b508b51632a9ffab760e21b8152fd5b61ffff1916610101178d5538610676565b8c5162461bcd60e51b8152602081840152602e60248201527f496e697469616c697a61626c653a20636f6e747261637420697320616c72656160448201526d191e481a5b9a5d1a585b1a5e995960921b6064820152608490fd5b50303b1580156106615750600160ff821614610661565b50600160ff82161061065a565b8a80fd5b8880fd5b8780fd5b8680fd5b8580fd5b8480fd5b808484806003193601126108ef5781356001600160a01b038082168203610802576024359367ffffffffffffffff85116107fe57366023860112156107fe578401359061085e61085583610bb6565b94519485610b7e565b81845236602483870101116107fe576108ec956020836108df946024600199018389013786010152807f000000000000000000000000000000000000000000000000000000000000000016906108b682301415610bd2565b7f360894a13ba1a3210667c828492db98dca3e2076cc3735a920a3ca505d382bbc541614610c33565b6108e7611228565b610c94565b80f35b5050fd5b83823461035857816003193601126103585760209060ce549051908152f35b50903461032b57602036600319011261032b57803591610930611228565b670de0b6b3a7640000831161094757505060ce5580f35b51632a9ffab760e21b8152fd5b82818534610358576020366003190112610358576001600160a01b03929035838116810361032b576109b3846108ec957f000000000000000000000000000000000000000000000000000000000000000016906108b682301415610bd2565b6109bb611228565b6109d06109c784610bb6565b92519283610b7e565b828252601f196109df84610bb6565b01366020840137610c94565b83823461035857816003193601126103585760ca5490516001600160a01b039091168152602090f35b50503461035857602036600319011261035857356001600160a01b0381169081900361035857610a42611228565b6001600160601b0360a01b60cb54161760cb5580f35b50503461035857602036600319011261035857356001600160a01b0381169081900361035857610a86611228565b6001600160601b0360a01b60d054161760d05580f35b50503461035857602036600319011261035857356001600160a01b0381169081900361035857610aca611228565b6001600160601b0360a01b60cc54161760cc5580f35b50503461035857602036600319011261035857356001600160a01b0381169081900361035857610b0e611228565b6001600160601b0360a01b60cd54161760cd5580f35b50903461032b57602036600319011261032b57803591610b42611228565b670de0b6b3a7640000831161094757505060d15580f35b8490346103585781600319360112610358576033546001600160a01b03168152602090f35b90601f8019910116810190811067ffffffffffffffff821117610ba057604052565b634e487b7160e01b600052604160045260246000fd5b67ffffffffffffffff8111610ba057601f01601f191660200190565b15610bd957565b60405162461bcd60e51b815260206004820152602c60248201527f46756e6374696f6e206d7573742062652063616c6c6564207468726f7567682060448201526b19195b1959d85d1958d85b1b60a21b6064820152608490fd5b15610c3a57565b60405162461bcd60e51b815260206004820152602c60248201527f46756e6374696f6e206d7573742062652063616c6c6564207468726f7567682060448201526b6163746976652070726f787960a01b6064820152608490fd5b9060ff7f4910fdfa16fed3260ed0e7147f7cc6da11a60208b5b9406d12a635614ffd91435416600014610cce5750610ccc9150610eca565b565b6040516352d1902d60e01b8152602093919291906001600160a01b038316908581600481855afa60009181610e9b575b50610d5f5760405162461bcd60e51b815260048101879052602e60248201527f45524331393637557067726164653a206e657720696d706c656d656e7461746960448201526d6f6e206973206e6f74205555505360901b6064820152608490fd5b9394937fc9f76b5ec45e5cdef99837d7b6d2467235c1df8933c8ca56df5c35afa2c7d44401610e4457610d9183610eca565b7fbc7cd75a20ee27fd9adebab32041f755214dbc6bffa90cc0225b39da2e5c2d3b600080a283511590811591610e3c575b50610dcc57505050565b600080610e3994610ddd6027610bb6565b94610deb6040519687610b7e565b602786527f416464726573733a206c6f772d6c6576656c2064656c65676174652063616c6c81870152660819985a5b195960ca1b604087015281519101845af4610e33610f6c565b91610f9c565b50565b905038610dc2565b60405162461bcd60e51b815260048101859052602960248201527f45524331393637557067726164653a20756e737570706f727465642070726f786044820152681a58589b195555525160ba1b6064820152608490fd5b90918782813d8311610ec3575b610eb28183610b7e565b810103126105bf5750519038610cfe565b503d610ea8565b803b15610f11577f360894a13ba1a3210667c828492db98dca3e2076cc3735a920a3ca505d382bbc80546001600160a01b0319166001600160a01b03909216919091179055565b60405162461bcd60e51b815260206004820152602d60248201527f455243313936373a206e657720696d706c656d656e746174696f6e206973206e60448201526c1bdd08184818dbdb9d1c9858dd609a1b6064820152608490fd5b3d15610f97573d90610f7d82610bb6565b91610f8b6040519384610b7e565b82523d6000602084013e565b606090565b91929015610ffe5750815115610fb0575090565b3b15610fb95790565b60405162461bcd60e51b815260206004820152601d60248201527f416464726573733a2063616c6c20746f206e6f6e2d636f6e74726163740000006044820152606490fd5b8251909150156110115750805190602001fd5b6040519062461bcd60e51b82528160208060048301528251908160248401526000935b828510611057575050604492506000838284010152601f80199101168101030190fd5b8481018201518686016044015293810193859350611034565b1561107757565b60405162461bcd60e51b815260206004820152602b60248201527f496e697469616c697a61626c653a20636f6e7472616374206973206e6f74206960448201526a6e697469616c697a696e6760a81b6064820152608490fd5b919082039182116110dd57565b634e487b7160e01b600052601160045260246000fd5b919061118391600080604051936020968786019463a9059cbb60e01b865260018060a01b038093166024880152604487015260448652611134606487610b7e565b169261113f87610bb6565b9461114d6040519687610b7e565b8786527f5361666545524332303a206c6f772d6c6576656c2063616c6c206661696c656488870152519082855af1610e33610f6c565b8051908282159283156111f3575b5050501561119c5750565b6084906040519062461bcd60e51b82526004820152602a60248201527f5361666545524332303a204552433230206f7065726174696f6e20646964206e6044820152691bdd081cdd58d8d9595960b21b6064820152fd5b611203935082018101910161120b565b388281611191565b90816020910312611223575180151581036112235790565b600080fd5b60335460405163d994d6d560e01b815233600482015290602090829060249082906001600160a01b03165afa9081156112ab5760009161127d575b501561126b57565b604051631dd1b1b560e21b8152600490fd5b61129e915060203d81116112a4575b6112968183610b7e565b81019061120b565b38611263565b503d61128c565b6040513d6000823e3d90fd5b8181029181830414901517156110dd57670de0b6b3a764000090049056fea264697066735822122091448c7579344f25543739ba1e9bb307d6de063f5e15bde913884ed4cae17e4364736f6c63430008140033",
  "devdoc": {
    "details": "Contract that split his balance between two addresses based on a proportion defined by Governance.",
    "events": {
      "AdminChanged(address,address)": {
        "details": "Emitted when the admin account has changed."
      },
      "BeaconUpgraded(address)": {
        "details": "Emitted when the beacon is changed."
      },
      "Initialized(uint8)": {
        "details": "Triggered when the contract has been initialized or reinitialized."
      },
      "Upgraded(address)": {
        "details": "Emitted when the implementation is upgraded."
      }
    },
    "kind": "dev",
    "methods": {
      "changeGovernor(address)": {
        "params": {
          "newGovernor_": "New governor address"
        }
      },
      "initialize(address,address,address,address,address,uint256,address,address,uint256)": {
        "params": {
          "acTokenAddressRecipient1_": "address who receives acTokenPctToRecipient1",
          "acTokenAddressRecipient2_": "address who receives (100% - acTokenPctToRecipient1)",
          "acTokenPctToRecipient1_": "percentage of the acToken balance to send to acTokenAddressRecipient1 [PREC]",
          "acToken_": "collateral asset contract",
          "feeTokenAddressRecipient1_": "address who receives feeTokenPctToRecipient1",
          "feeTokenAddressRecipient2_": "address who receives (100% - feeTokenPctToRecipient1)",
          "feeTokenPctToRecipient1_": "percentage of the feeToken balance to send to acTokenAddressRecipient1 [PREC]",
          "feeToken_": "fee token contract",
          "governorAddress_": "governor address"
        }
      },
      "proxiableUUID()": {
        "details": "Implementation of the ERC1822 {proxiableUUID} function. This returns the storage slot used by the implementation. It is used to validate the implementation's compatibility when performing an upgrade. IMPORTANT: A proxy pointing at a proxiable contract should not be considered proxiable itself, because this risks bricking a proxy that upgrades to it, by delegating to itself until out of gas. Thus it is critical that this function revert if invoked through a proxy. This is guaranteed by the `notDelegated` modifier."
      },
      "setAcToken(address)": {
        "params": {
          "newAcToken_": "new AC token contract"
        }
      },
      "setAcTokenAddressRecipient1(address)": {
        "params": {
          "acTokenAddressRecipient1_": "new recipient1 address"
        }
      },
      "setAcTokenAddressRecipient2(address)": {
        "params": {
          "acTokenAddressRecipient2_": "new recipient1 address"
        }
      },
      "setAcTokenPctToRecipient1(uint256)": {
        "params": {
          "acTokenPctToRecipient1_": "new percentage for recipient1 [PREC]"
        }
      },
      "setFeeToken(address)": {
        "params": {
          "newFeeToken_": "new fee token contract"
        }
      },
      "setFeeTokenAddressRecipient1(address)": {
        "params": {
          "feeTokenAddressRecipient1_": "new recipient1 address"
        }
      },
      "setFeeTokenAddressRecipient2(address)": {
        "params": {
          "feeTokenAddressRecipient2_": "new recipient2 address"
        }
      },
      "setFeeTokenPctToRecipient1(uint256)": {
        "params": {
          "feeTokenPctToRecipient1_": "new percentage for recipient1 [PREC]"
        }
      },
      "upgradeTo(address)": {
        "custom:oz-upgrades-unsafe-allow-reachable": "delegatecall",
        "details": "Upgrade the implementation of the proxy to `newImplementation`. Calls {_authorizeUpgrade}. Emits an {Upgraded} event."
      },
      "upgradeToAndCall(address,bytes)": {
        "custom:oz-upgrades-unsafe-allow-reachable": "delegatecall",
        "details": "Upgrade the implementation of the proxy to `newImplementation`, and subsequently execute the function call encoded in `data`. Calls {_authorizeUpgrade}. Emits an {Upgraded} event."
      }
    },
    "stateVariables": {
      "__gap": {
        "details": "This empty reserved space is put in place to allow future versions to add new variables without shifting down storage in the inheritance chain. See https://docs.openzeppelin.com/contracts/4.x/upgradeable#storage_gaps"
      }
    },
    "version": 1
  },
  "userdoc": {
    "kind": "user",
    "methods": {
      "changeGovernor(address)": {
        "notice": "Change the contract's governor. Should be called through the old governance system"
      },
      "governor()": {
        "notice": "The address of the contract which governs this one"
      },
      "initialize(address,address,address,address,address,uint256,address,address,uint256)": {
        "notice": "contract initializer"
      },
      "setAcToken(address)": {
        "notice": "sets new AC token"
      },
      "setAcTokenAddressRecipient1(address)": {
        "notice": "sets new recipient1 for AC token"
      },
      "setAcTokenAddressRecipient2(address)": {
        "notice": "sets new recipient2 for AC token"
      },
      "setAcTokenPctToRecipient1(uint256)": {
        "notice": "sets new percentage of AC token for recipient1"
      },
      "setFeeToken(address)": {
        "notice": "sets new fee token"
      },
      "setFeeTokenAddressRecipient1(address)": {
        "notice": "sets new recipient1 for fee token"
      },
      "setFeeTokenAddressRecipient2(address)": {
        "notice": "sets new recipient2 for fee token"
      },
      "setFeeTokenPctToRecipient1(uint256)": {
        "notice": "sets new percentage of fee token for recipient1"
      },
      "split()": {
        "notice": "splits all the acToken and feeToken balances to the recipients addresses"
      }
    },
    "version": 1
  },
  "storageLayout": {
    "storage": [
      {
        "astId": 950,
        "contract": "contracts/auxiliary/CommissionSplitter.sol:CommissionSplitter",
        "label": "_initialized",
        "offset": 0,
        "slot": "0",
        "type": "t_uint8"
      },
      {
        "astId": 953,
        "contract": "contracts/auxiliary/CommissionSplitter.sol:CommissionSplitter",
        "label": "_initializing",
        "offset": 1,
        "slot": "0",
        "type": "t_bool"
      },
      {
        "astId": 28031,
        "contract": "contracts/auxiliary/CommissionSplitter.sol:CommissionSplitter",
        "label": "__gap",
        "offset": 0,
        "slot": "1",
        "type": "t_array(t_uint256)50_storage"
      },
      {
        "astId": 21402,
        "contract": "contracts/auxiliary/CommissionSplitter.sol:CommissionSplitter",
        "label": "governor",
        "offset": 0,
        "slot": "51",
        "type": "t_contract(IGovernor)22264"
      },
      {
        "astId": 21473,
        "contract": "contracts/auxiliary/CommissionSplitter.sol:CommissionSplitter",
        "label": "__gap",
        "offset": 0,
        "slot": "52",
        "type": "t_array(t_uint256)50_storage"
      },
      {
        "astId": 932,
        "contract": "contracts/auxiliary/CommissionSplitter.sol:CommissionSplitter",
        "label": "__gap",
        "offset": 0,
        "slot": "102",
        "type": "t_array(t_uint256)50_storage"
      },
      {
        "astId": 1247,
        "contract": "contracts/auxiliary/CommissionSplitter.sol:CommissionSplitter",
        "label": "__gap",
        "offset": 0,
        "slot": "152",
        "type": "t_array(t_uint256)50_storage"
      },
      {
        "astId": 9847,
        "contract": "contracts/auxiliary/CommissionSplitter.sol:CommissionSplitter",
        "label": "acToken",
        "offset": 0,
        "slot": "202",
        "type": "t_contract(IERC20)6209"
      },
      {
        "astId": 9850,
        "contract": "contracts/auxiliary/CommissionSplitter.sol:CommissionSplitter",
        "label": "feeToken",
        "offset": 0,
        "slot": "203",
        "type": "t_contract(IERC20)6209"
      },
      {
        "astId": 9852,
        "contract": "contracts/auxiliary/CommissionSplitter.sol:CommissionSplitter",
        "label": "acTokenAddressRecipient1",
        "offset": 0,
        "slot": "204",
        "type": "t_address"
      },
      {
        "astId": 9854,
        "contract": "contracts/auxiliary/CommissionSplitter.sol:CommissionSplitter",
        "label": "acTokenAddressRecipient2",
        "offset": 0,
        "slot": "205",
        "type": "t_address"
      },
      {
        "astId": 9856,
        "contract": "contracts/auxiliary/CommissionSplitter.sol:CommissionSplitter",
        "label": "acTokenPctToRecipient1",
        "offset": 0,
        "slot": "206",
        "type": "t_uint256"
      },
      {
        "astId": 9858,
        "contract": "contracts/auxiliary/CommissionSplitter.sol:CommissionSplitter",
        "label": "feeTokenAddressRecipient1",
        "offset": 0,
        "slot": "207",
        "type": "t_address"
      },
      {
        "astId": 9860,
        "contract": "contracts/auxiliary/CommissionSplitter.sol:CommissionSplitter",
        "label": "feeTokenAddressRecipient2",
        "offset": 0,
        "slot": "208",
        "type": "t_address"
      },
      {
        "astId": 9862,
        "contract": "contracts/auxiliary/CommissionSplitter.sol:CommissionSplitter",
        "label": "feeTokenPctToRecipient1",
        "offset": 0,
        "slot": "209",
        "type": "t_uint256"
      },
      {
        "astId": 10189,
        "contract": "contracts/auxiliary/CommissionSplitter.sol:CommissionSplitter",
        "label": "__gap",
        "offset": 0,
        "slot": "210",
        "type": "t_array(t_uint256)50_storage"
      }
    ],
    "types": {
      "t_address": {
        "encoding": "inplace",
        "label": "address",
        "numberOfBytes": "20"
      },
      "t_array(t_uint256)50_storage": {
        "base": "t_uint256",
        "encoding": "inplace",
        "label": "uint256[50]",
        "numberOfBytes": "1600"
      },
      "t_bool": {
        "encoding": "inplace",
        "label": "bool",
        "numberOfBytes": "1"
      },
      "t_contract(IERC20)6209": {
        "encoding": "inplace",
        "label": "contract IERC20",
        "numberOfBytes": "20"
      },
      "t_contract(IGovernor)22264": {
        "encoding": "inplace",
        "label": "contract IGovernor",
        "numberOfBytes": "20"
      },
      "t_uint256": {
        "encoding": "inplace",
        "label": "uint256",
        "numberOfBytes": "32"
      },
      "t_uint8": {
        "encoding": "inplace",
        "label": "uint8",
        "numberOfBytes": "1"
      }
    }
  }
}