{
  "address": "0xF0DB88af7B860e1069dD44BabbB5B6dD25081351",
  "abi": [
    {
      "inputs": [],
      "stateMutability": "nonpayable",
      "type": "constructor"
    },
    {
      "inputs": [
        {
          "internalType": "uint256",
          "name": "qACsent_",
          "type": "uint256"
        },
        {
          "internalType": "uint256",
          "name": "qACNeeded_",
          "type": "uint256"
        }
      ],
      "name": "InsufficientQacSent",
      "type": "error"
    },
    {
      "inputs": [
        {
          "internalType": "uint256",
          "name": "qTPsent_",
          "type": "uint256"
        },
        {
          "internalType": "uint256",
          "name": "qTPNeeded_",
          "type": "uint256"
        }
      ],
      "name": "InsufficientQtpSent",
      "type": "error"
    },
    {
      "inputs": [
        {
          "internalType": "uint256",
          "name": "qTC_",
          "type": "uint256"
        },
        {
          "internalType": "uint256",
          "name": "tcAvailableToRedeem_",
          "type": "uint256"
        }
      ],
      "name": "InsufficientTCtoRedeem",
      "type": "error"
    },
    {
      "inputs": [
        {
          "internalType": "uint256",
          "name": "qTP_",
          "type": "uint256"
        },
        {
          "internalType": "uint256",
          "name": "tpAvailableToMint_",
          "type": "uint256"
        }
      ],
      "name": "InsufficientTPtoMint",
      "type": "error"
    },
    {
      "inputs": [
        {
          "internalType": "uint256",
          "name": "qTP_",
          "type": "uint256"
        },
        {
          "internalType": "uint256",
          "name": "tpAvailableToRedeem_",
          "type": "uint256"
        }
      ],
      "name": "InsufficientTPtoRedeem",
      "type": "error"
    },
    {
      "inputs": [],
      "name": "InvalidAddress",
      "type": "error"
    },
    {
      "inputs": [],
      "name": "InvalidFluxCapacitorOperation",
      "type": "error"
    },
    {
      "inputs": [],
      "name": "InvalidValue",
      "type": "error"
    },
    {
      "inputs": [],
      "name": "Liquidated",
      "type": "error"
    },
    {
      "inputs": [
        {
          "internalType": "uint256",
          "name": "cglb_",
          "type": "uint256"
        },
        {
          "internalType": "uint256",
          "name": "covThrld_",
          "type": "uint256"
        }
      ],
      "name": "LowCoverage",
      "type": "error"
    },
    {
      "inputs": [
        {
          "internalType": "uint256",
          "name": "max_",
          "type": "uint256"
        },
        {
          "internalType": "uint256",
          "name": "new_",
          "type": "uint256"
        }
      ],
      "name": "MaxFluxCapacitorOperationReached",
      "type": "error"
    },
    {
      "inputs": [
        {
          "internalType": "address",
          "name": "dataProviderAddress_",
          "type": "address"
        }
      ],
      "name": "MissingProviderData",
      "type": "error"
    },
    {
      "inputs": [
        {
          "internalType": "address",
          "name": "priceProviderAddress_",
          "type": "address"
        }
      ],
      "name": "MissingProviderPrice",
      "type": "error"
    },
    {
      "inputs": [],
      "name": "NotAuthorizedChanger",
      "type": "error"
    },
    {
      "inputs": [],
      "name": "NotWhenPaused",
      "type": "error"
    },
    {
      "inputs": [],
      "name": "OnlyPauser",
      "type": "error"
    },
    {
      "inputs": [],
      "name": "OnlyWhenLiquidated",
      "type": "error"
    },
    {
      "inputs": [],
      "name": "OnlyWhilePaused",
      "type": "error"
    },
    {
      "inputs": [],
      "name": "PeggedTokenAlreadyAdded",
      "type": "error"
    },
    {
      "inputs": [
        {
          "internalType": "uint256",
          "name": "qACmin_",
          "type": "uint256"
        },
        {
          "internalType": "uint256",
          "name": "qACtoRedeem_",
          "type": "uint256"
        }
      ],
      "name": "QacBelowMinimumRequired",
      "type": "error"
    },
    {
      "inputs": [],
      "name": "QacNeededMustBeGreaterThanZero",
      "type": "error"
    },
    {
      "inputs": [
        {
          "internalType": "uint256",
          "name": "qTCmin_",
          "type": "uint256"
        },
        {
          "internalType": "uint256",
          "name": "qTC_",
          "type": "uint256"
        }
      ],
      "name": "QtcBelowMinimumRequired",
      "type": "error"
    },
    {
      "inputs": [
        {
          "internalType": "uint256",
          "name": "qTPmin_",
          "type": "uint256"
        },
        {
          "internalType": "uint256",
          "name": "qTP_",
          "type": "uint256"
        }
      ],
      "name": "QtpBelowMinimumRequired",
      "type": "error"
    },
    {
      "inputs": [],
      "name": "TransferFailed",
      "type": "error"
    },
    {
      "inputs": [],
      "name": "Unstoppable",
      "type": "error"
    },
    {
      "anonymous": false,
      "inputs": [
        {
          "indexed": false,
          "internalType": "address",
          "name": "previousAdmin",
          "type": "address"
        },
        {
          "indexed": false,
          "internalType": "address",
          "name": "newAdmin",
          "type": "address"
        }
      ],
      "name": "AdminChanged",
      "type": "event"
    },
    {
      "anonymous": false,
      "inputs": [
        {
          "indexed": true,
          "internalType": "address",
          "name": "beacon",
          "type": "address"
        }
      ],
      "name": "BeaconUpgraded",
      "type": "event"
    },
    {
      "anonymous": false,
      "inputs": [],
      "name": "ContractLiquidated",
      "type": "event"
    },
    {
      "anonymous": false,
      "inputs": [
        {
          "indexed": false,
          "internalType": "uint8",
          "name": "version",
          "type": "uint8"
        }
      ],
      "name": "Initialized",
      "type": "event"
    },
    {
      "anonymous": false,
      "inputs": [
        {
          "indexed": true,
          "internalType": "address",
          "name": "tp_",
          "type": "address"
        },
        {
          "indexed": true,
          "internalType": "address",
          "name": "sender_",
          "type": "address"
        },
        {
          "indexed": true,
          "internalType": "address",
          "name": "recipient_",
          "type": "address"
        },
        {
          "indexed": false,
          "internalType": "uint256",
          "name": "qTP_",
          "type": "uint256"
        },
        {
          "indexed": false,
          "internalType": "uint256",
          "name": "qAC_",
          "type": "uint256"
        }
      ],
      "name": "LiqTPRedeemed",
      "type": "event"
    },
    {
      "anonymous": false,
      "inputs": [
        {
          "indexed": false,
          "internalType": "address",
          "name": "account",
          "type": "address"
        }
      ],
      "name": "Paused",
      "type": "event"
    },
    {
      "anonymous": false,
      "inputs": [
        {
          "indexed": false,
          "internalType": "uint256",
          "name": "i_",
          "type": "uint256"
        },
        {
          "components": [
            {
              "internalType": "address",
              "name": "tpTokenAddress",
              "type": "address"
            },
            {
              "internalType": "address",
              "name": "priceProviderAddress",
              "type": "address"
            },
            {
              "internalType": "uint256",
              "name": "tpCtarg",
              "type": "uint256"
            },
            {
              "internalType": "uint256",
              "name": "tpMintFee",
              "type": "uint256"
            },
            {
              "internalType": "uint256",
              "name": "tpRedeemFee",
              "type": "uint256"
            },
            {
              "internalType": "uint256",
              "name": "tpEma",
              "type": "uint256"
            },
            {
              "internalType": "uint256",
              "name": "tpEmaSf",
              "type": "uint256"
            }
          ],
          "indexed": false,
          "internalType": "struct PeggedTokenParams",
          "name": "peggedTokenParams_",
          "type": "tuple"
        }
      ],
      "name": "PeggedTokenChange",
      "type": "event"
    },
    {
      "anonymous": false,
      "inputs": [
        {
          "indexed": true,
          "internalType": "uint256",
          "name": "i_",
          "type": "uint256"
        },
        {
          "indexed": false,
          "internalType": "uint256",
          "name": "oldTPema_",
          "type": "uint256"
        },
        {
          "indexed": false,
          "internalType": "uint256",
          "name": "newTPema_",
          "type": "uint256"
        }
      ],
      "name": "TPemaUpdated",
      "type": "event"
    },
    {
      "anonymous": false,
      "inputs": [
        {
          "indexed": false,
          "internalType": "address",
          "name": "account",
          "type": "address"
        }
      ],
      "name": "Unpaused",
      "type": "event"
    },
    {
      "anonymous": false,
      "inputs": [
        {
          "indexed": true,
          "internalType": "address",
          "name": "implementation",
          "type": "address"
        }
      ],
      "name": "Upgraded",
      "type": "event"
    },
    {
      "inputs": [],
      "name": "absoluteAccumulator",
      "outputs": [
        {
          "internalType": "uint256",
          "name": "",
          "type": "uint256"
        }
      ],
      "stateMutability": "view",
      "type": "function"
    },
    {
      "inputs": [
        {
          "components": [
            {
              "internalType": "address",
              "name": "tpTokenAddress",
              "type": "address"
            },
            {
              "internalType": "address",
              "name": "priceProviderAddress",
              "type": "address"
            },
            {
              "internalType": "uint256",
              "name": "tpCtarg",
              "type": "uint256"
            },
            {
              "internalType": "uint256",
              "name": "tpMintFee",
              "type": "uint256"
            },
            {
              "internalType": "uint256",
              "name": "tpRedeemFee",
              "type": "uint256"
            },
            {
              "internalType": "uint256",
              "name": "tpEma",
              "type": "uint256"
            },
            {
              "internalType": "uint256",
              "name": "tpEmaSf",
              "type": "uint256"
            }
          ],
          "internalType": "struct PeggedTokenParams",
          "name": "peggedTokenParams_",
          "type": "tuple"
        }
      ],
      "name": "addPeggedToken",
      "outputs": [],
      "stateMutability": "nonpayable",
      "type": "function"
    },
    {
      "inputs": [],
      "name": "appreciationFactor",
      "outputs": [
        {
          "internalType": "uint256",
          "name": "",
          "type": "uint256"
        }
      ],
      "stateMutability": "view",
      "type": "function"
    },
    {
      "inputs": [],
      "name": "bes",
      "outputs": [
        {
          "internalType": "uint256",
          "name": "",
          "type": "uint256"
        }
      ],
      "stateMutability": "view",
      "type": "function"
    },
    {
      "inputs": [],
      "name": "bns",
      "outputs": [
        {
          "internalType": "uint256",
          "name": "",
          "type": "uint256"
        }
      ],
      "stateMutability": "view",
      "type": "function"
    },
    {
      "inputs": [],
      "name": "calcCtargemaCA",
      "outputs": [
        {
          "internalType": "uint256",
          "name": "ctargemaCA",
          "type": "uint256"
        }
      ],
      "stateMutability": "view",
      "type": "function"
    },
    {
      "inputs": [
        {
          "internalType": "contract IGovernor",
          "name": "newGovernor_",
          "type": "address"
        }
      ],
      "name": "changeGovernor",
      "outputs": [],
      "stateMutability": "nonpayable",
      "type": "function"
    },
    {
      "inputs": [],
      "name": "decayBlockSpan",
      "outputs": [
        {
          "internalType": "uint256",
          "name": "",
          "type": "uint256"
        }
      ],
      "stateMutability": "view",
      "type": "function"
    },
    {
      "inputs": [],
      "name": "differentialAccumulator",
      "outputs": [
        {
          "internalType": "int256",
          "name": "",
          "type": "int256"
        }
      ],
      "stateMutability": "view",
      "type": "function"
    },
    {
      "inputs": [
        {
          "components": [
            {
              "internalType": "address",
              "name": "tpTokenAddress",
              "type": "address"
            },
            {
              "internalType": "address",
              "name": "priceProviderAddress",
              "type": "address"
            },
            {
              "internalType": "uint256",
              "name": "tpCtarg",
              "type": "uint256"
            },
            {
              "internalType": "uint256",
              "name": "tpMintFee",
              "type": "uint256"
            },
            {
              "internalType": "uint256",
              "name": "tpRedeemFee",
              "type": "uint256"
            },
            {
              "internalType": "uint256",
              "name": "tpEma",
              "type": "uint256"
            },
            {
              "internalType": "uint256",
              "name": "tpEmaSf",
              "type": "uint256"
            }
          ],
          "internalType": "struct PeggedTokenParams",
          "name": "peggedTokenParams_",
          "type": "tuple"
        }
      ],
      "name": "editPeggedToken",
      "outputs": [],
      "stateMutability": "nonpayable",
      "type": "function"
    },
    {
      "inputs": [],
      "name": "emaCalculationBlockSpan",
      "outputs": [
        {
          "internalType": "uint256",
          "name": "",
          "type": "uint256"
        }
      ],
      "stateMutability": "view",
      "type": "function"
    },
    {
      "inputs": [],
      "name": "evalLiquidation",
      "outputs": [],
      "stateMutability": "nonpayable",
      "type": "function"
    },
    {
      "inputs": [],
      "name": "feeRetainer",
      "outputs": [
        {
          "internalType": "uint256",
          "name": "",
          "type": "uint256"
        }
      ],
      "stateMutability": "view",
      "type": "function"
    },
    {
      "inputs": [],
      "name": "feeToken",
      "outputs": [
        {
          "internalType": "contract IERC20",
          "name": "",
          "type": "address"
        }
      ],
      "stateMutability": "view",
      "type": "function"
    },
    {
      "inputs": [],
      "name": "feeTokenPct",
      "outputs": [
        {
          "internalType": "uint256",
          "name": "",
          "type": "uint256"
        }
      ],
      "stateMutability": "view",
      "type": "function"
    },
    {
      "inputs": [],
      "name": "feeTokenPriceProvider",
      "outputs": [
        {
          "internalType": "contract IPriceProvider",
          "name": "",
          "type": "address"
        }
      ],
      "stateMutability": "view",
      "type": "function"
    },
    {
      "inputs": [
        {
          "internalType": "address",
          "name": "tp_",
          "type": "address"
        }
      ],
      "name": "getPACtp",
      "outputs": [
        {
          "internalType": "uint256",
          "name": "",
          "type": "uint256"
        }
      ],
      "stateMutability": "view",
      "type": "function"
    },
    {
      "inputs": [],
      "name": "getTpAmount",
      "outputs": [
        {
          "internalType": "uint256",
          "name": "",
          "type": "uint256"
        }
      ],
      "stateMutability": "view",
      "type": "function"
    },
    {
      "inputs": [],
      "name": "governor",
      "outputs": [
        {
          "internalType": "contract IGovernor",
          "name": "",
          "type": "address"
        }
      ],
      "stateMutability": "view",
      "type": "function"
    },
    {
      "inputs": [],
      "name": "isLiquidationReached",
      "outputs": [
        {
          "internalType": "bool",
          "name": "",
          "type": "bool"
        }
      ],
      "stateMutability": "view",
      "type": "function"
    },
    {
      "inputs": [],
      "name": "lastOperationBlockNumber",
      "outputs": [
        {
          "internalType": "uint256",
          "name": "",
          "type": "uint256"
        }
      ],
      "stateMutability": "view",
      "type": "function"
    },
    {
      "inputs": [],
      "name": "liqEnabled",
      "outputs": [
        {
          "internalType": "bool",
          "name": "",
          "type": "bool"
        }
      ],
      "stateMutability": "view",
      "type": "function"
    },
    {
      "inputs": [
        {
          "internalType": "address",
          "name": "tp_",
          "type": "address"
        },
        {
          "internalType": "address",
          "name": "sender_",
          "type": "address"
        },
        {
          "internalType": "address",
          "name": "recipient_",
          "type": "address"
        },
        {
          "internalType": "uint256",
          "name": "mocACBalance",
          "type": "uint256"
        }
      ],
      "name": "liqRedeemTP",
      "outputs": [
        {
          "internalType": "uint256",
          "name": "qACRedeemed",
          "type": "uint256"
        }
      ],
      "stateMutability": "nonpayable",
      "type": "function"
    },
    {
      "inputs": [],
      "name": "liqThrld",
      "outputs": [
        {
          "internalType": "uint256",
          "name": "",
          "type": "uint256"
        }
      ],
      "stateMutability": "view",
      "type": "function"
    },
    {
      "inputs": [],
      "name": "liquidated",
      "outputs": [
        {
          "internalType": "bool",
          "name": "",
          "type": "bool"
        }
      ],
      "stateMutability": "view",
      "type": "function"
    },
    {
      "inputs": [],
      "name": "makeStoppable",
      "outputs": [],
      "stateMutability": "nonpayable",
      "type": "function"
    },
    {
      "inputs": [],
      "name": "makeUnstoppable",
      "outputs": [],
      "stateMutability": "nonpayable",
      "type": "function"
    },
    {
      "inputs": [],
      "name": "maxAbsoluteOpProvider",
      "outputs": [
        {
          "internalType": "contract IDataProvider",
          "name": "",
          "type": "address"
        }
      ],
      "stateMutability": "view",
      "type": "function"
    },
    {
      "inputs": [],
      "name": "maxOpDiffProvider",
      "outputs": [
        {
          "internalType": "contract IDataProvider",
          "name": "",
          "type": "address"
        }
      ],
      "stateMutability": "view",
      "type": "function"
    },
    {
      "inputs": [],
      "name": "maxQACToMintTP",
      "outputs": [
        {
          "internalType": "uint256",
          "name": "maxQAC",
          "type": "uint256"
        }
      ],
      "stateMutability": "view",
      "type": "function"
    },
    {
      "inputs": [],
      "name": "maxQACToRedeemTP",
      "outputs": [
        {
          "internalType": "uint256",
          "name": "maxQAC",
          "type": "uint256"
        }
      ],
      "stateMutability": "view",
      "type": "function"
    },
    {
      "inputs": [],
      "name": "mintTCandTPFee",
      "outputs": [
        {
          "internalType": "uint256",
          "name": "",
          "type": "uint256"
        }
      ],
      "stateMutability": "view",
      "type": "function"
    },
    {
      "inputs": [
        {
          "components": [
            {
              "internalType": "address",
              "name": "tp",
              "type": "address"
            },
            {
              "internalType": "uint256",
              "name": "qTP",
              "type": "uint256"
            },
            {
              "internalType": "uint256",
              "name": "qACmax",
              "type": "uint256"
            },
            {
              "internalType": "address",
              "name": "sender",
              "type": "address"
            },
            {
              "internalType": "address",
              "name": "recipient",
              "type": "address"
            },
            {
              "internalType": "address",
              "name": "vendor",
              "type": "address"
            }
          ],
          "internalType": "struct MocCommons.MintTCandTPParams",
          "name": "params_",
          "type": "tuple"
        }
      ],
      "name": "mintTCandTPto",
      "outputs": [
        {
          "internalType": "uint256",
          "name": "qACtotalNeeded",
          "type": "uint256"
        },
        {
          "internalType": "uint256",
          "name": "qTCtoMint",
          "type": "uint256"
        },
        {
          "internalType": "uint256",
          "name": "qFeeTokenTotalNeeded",
          "type": "uint256"
        },
        {
          "components": [
            {
              "internalType": "uint256",
              "name": "qACFee",
              "type": "uint256"
            },
            {
              "internalType": "uint256",
              "name": "qFeeToken",
              "type": "uint256"
            },
            {
              "internalType": "uint256",
              "name": "qACVendorMarkup",
              "type": "uint256"
            },
            {
              "internalType": "uint256",
              "name": "qFeeTokenVendorMarkup",
              "type": "uint256"
            }
          ],
          "internalType": "struct MocCommons.FeeCalcs",
          "name": "feeCalcs",
          "type": "tuple"
        }
      ],
      "stateMutability": "payable",
      "type": "function"
    },
    {
      "inputs": [],
      "name": "mocAppreciationBeneficiaryAddress",
      "outputs": [
        {
          "internalType": "address",
          "name": "",
          "type": "address"
        }
      ],
      "stateMutability": "view",
      "type": "function"
    },
    {
      "inputs": [],
      "name": "mocFeeFlowAddress",
      "outputs": [
        {
          "internalType": "address",
          "name": "",
          "type": "address"
        }
      ],
      "stateMutability": "view",
      "type": "function"
    },
    {
      "inputs": [],
      "name": "mocQueue",
      "outputs": [
        {
          "internalType": "address payable",
          "name": "",
          "type": "address"
        }
      ],
      "stateMutability": "view",
      "type": "function"
    },
    {
      "inputs": [],
      "name": "mocVendors",
      "outputs": [
        {
          "internalType": "contract MocVendors",
          "name": "",
          "type": "address"
        }
      ],
      "stateMutability": "view",
      "type": "function"
    },
    {
      "inputs": [],
      "name": "nACcb",
      "outputs": [
        {
          "internalType": "uint256",
          "name": "",
          "type": "uint256"
        }
      ],
      "stateMutability": "view",
      "type": "function"
    },
    {
      "inputs": [],
      "name": "nTCcb",
      "outputs": [
        {
          "internalType": "uint256",
          "name": "",
          "type": "uint256"
        }
      ],
      "stateMutability": "view",
      "type": "function"
    },
    {
      "inputs": [],
      "name": "nextEmaCalculation",
      "outputs": [
        {
          "internalType": "uint256",
          "name": "",
          "type": "uint256"
        }
      ],
      "stateMutability": "view",
      "type": "function"
    },
    {
      "inputs": [],
      "name": "nextTCInterestPayment",
      "outputs": [
        {
          "internalType": "uint256",
          "name": "",
          "type": "uint256"
        }
      ],
      "stateMutability": "view",
      "type": "function"
    },
    {
      "inputs": [],
      "name": "pause",
      "outputs": [],
      "stateMutability": "nonpayable",
      "type": "function"
    },
    {
      "inputs": [],
      "name": "paused",
      "outputs": [
        {
          "internalType": "bool",
          "name": "",
          "type": "bool"
        }
      ],
      "stateMutability": "view",
      "type": "function"
    },
    {
      "inputs": [],
      "name": "pauser",
      "outputs": [
        {
          "internalType": "address",
          "name": "",
          "type": "address"
        }
      ],
      "stateMutability": "view",
      "type": "function"
    },
    {
      "inputs": [
        {
          "internalType": "uint256",
          "name": "",
          "type": "uint256"
        }
      ],
      "name": "pegContainer",
      "outputs": [
        {
          "internalType": "uint256",
          "name": "nTP",
          "type": "uint256"
        },
        {
          "internalType": "contract IPriceProvider",
          "name": "priceProvider",
          "type": "address"
        }
      ],
      "stateMutability": "view",
      "type": "function"
    },
    {
      "inputs": [
        {
          "internalType": "address",
          "name": "",
          "type": "address"
        }
      ],
      "name": "peggedTokenIndex",
      "outputs": [
        {
          "internalType": "uint256",
          "name": "index",
          "type": "uint256"
        },
        {
          "internalType": "bool",
          "name": "exists",
          "type": "bool"
        }
      ],
      "stateMutability": "view",
      "type": "function"
    },
    {
      "inputs": [],
      "name": "protThrld",
      "outputs": [
        {
          "internalType": "uint256",
          "name": "",
          "type": "uint256"
        }
      ],
      "stateMutability": "view",
      "type": "function"
    },
    {
      "inputs": [],
      "name": "proxiableUUID",
      "outputs": [
        {
          "internalType": "bytes32",
          "name": "",
          "type": "bytes32"
        }
      ],
      "stateMutability": "view",
      "type": "function"
    },
    {
      "inputs": [],
      "name": "qACLockedInPending",
      "outputs": [
        {
          "internalType": "uint256",
          "name": "",
          "type": "uint256"
        }
      ],
      "stateMutability": "view",
      "type": "function"
    },
    {
      "inputs": [],
      "name": "redeemTCandTPFee",
      "outputs": [
        {
          "internalType": "uint256",
          "name": "",
          "type": "uint256"
        }
      ],
      "stateMutability": "view",
      "type": "function"
    },
    {
      "inputs": [
        {
          "components": [
            {
              "internalType": "address",
              "name": "tp",
              "type": "address"
            },
            {
              "internalType": "uint256",
              "name": "qTC",
              "type": "uint256"
            },
            {
              "internalType": "uint256",
              "name": "qTP",
              "type": "uint256"
            },
            {
              "internalType": "uint256",
              "name": "qACmin",
              "type": "uint256"
            },
            {
              "internalType": "address",
              "name": "sender",
              "type": "address"
            },
            {
              "internalType": "address",
              "name": "recipient",
              "type": "address"
            },
            {
              "internalType": "address",
              "name": "vendor",
              "type": "address"
            }
          ],
          "internalType": "struct MocCommons.RedeemTCandTPParams",
          "name": "params_",
          "type": "tuple"
        }
      ],
      "name": "redeemTCandTPto",
      "outputs": [
        {
          "internalType": "uint256",
          "name": "qACtoRedeem",
          "type": "uint256"
        },
        {
          "internalType": "uint256",
          "name": "qTPtoRedeem",
          "type": "uint256"
        },
        {
          "internalType": "uint256",
          "name": "qFeeTokenTotalNeeded",
          "type": "uint256"
        },
        {
          "components": [
            {
              "internalType": "uint256",
              "name": "qACFee",
              "type": "uint256"
            },
            {
              "internalType": "uint256",
              "name": "qFeeToken",
              "type": "uint256"
            },
            {
              "internalType": "uint256",
              "name": "qACVendorMarkup",
              "type": "uint256"
            },
            {
              "internalType": "uint256",
              "name": "qFeeTokenVendorMarkup",
              "type": "uint256"
            }
          ],
          "internalType": "struct MocCommons.FeeCalcs",
          "name": "feeCalcs",
          "type": "tuple"
        }
      ],
      "stateMutability": "payable",
      "type": "function"
    },
    {
      "inputs": [
        {
          "internalType": "uint256",
          "name": "appreciationFactor_",
          "type": "uint256"
        }
      ],
      "name": "setAppreciationFactor",
      "outputs": [],
      "stateMutability": "nonpayable",
      "type": "function"
    },
    {
      "inputs": [
        {
          "internalType": "uint256",
          "name": "bes_",
          "type": "uint256"
        }
      ],
      "name": "setBes",
      "outputs": [],
      "stateMutability": "nonpayable",
      "type": "function"
    },
    {
      "inputs": [
        {
          "internalType": "uint256",
          "name": "decayBlockSpan_",
          "type": "uint256"
        }
      ],
      "name": "setDecayBlockSpan",
      "outputs": [],
      "stateMutability": "nonpayable",
      "type": "function"
    },
    {
      "inputs": [
        {
          "internalType": "uint256",
          "name": "blockSpan_",
          "type": "uint256"
        }
      ],
      "name": "setEmaCalculationBlockSpan",
      "outputs": [],
      "stateMutability": "nonpayable",
      "type": "function"
    },
    {
      "inputs": [
        {
          "internalType": "uint256",
          "name": "feeRetainer_",
          "type": "uint256"
        }
      ],
      "name": "setFeeRetainer",
      "outputs": [],
      "stateMutability": "nonpayable",
      "type": "function"
    },
    {
      "inputs": [
        {
          "internalType": "address",
          "name": "mocFeeTokenAddress_",
          "type": "address"
        }
      ],
      "name": "setFeeTokenAddress",
      "outputs": [],
      "stateMutability": "nonpayable",
      "type": "function"
    },
    {
      "inputs": [
        {
          "internalType": "uint256",
          "name": "feeTokenPct_",
          "type": "uint256"
        }
      ],
      "name": "setFeeTokenPct",
      "outputs": [],
      "stateMutability": "nonpayable",
      "type": "function"
    },
    {
      "inputs": [
        {
          "internalType": "address",
          "name": "mocFeeTokenPriceProviderAddress_",
          "type": "address"
        }
      ],
      "name": "setFeeTokenPriceProviderAddress",
      "outputs": [],
      "stateMutability": "nonpayable",
      "type": "function"
    },
    {
      "inputs": [
        {
          "internalType": "bool",
          "name": "liqEnabled_",
          "type": "bool"
        }
      ],
      "name": "setLiqEnabled",
      "outputs": [],
      "stateMutability": "nonpayable",
      "type": "function"
    },
    {
      "inputs": [
        {
          "internalType": "uint256",
          "name": "liqThrld_",
          "type": "uint256"
        }
      ],
      "name": "setLiqThrld",
      "outputs": [],
      "stateMutability": "nonpayable",
      "type": "function"
    },
    {
      "inputs": [
        {
          "internalType": "address",
          "name": "maxAbsoluteOpProviderAddress_",
          "type": "address"
        }
      ],
      "name": "setMaxAbsoluteOpProviderAddress",
      "outputs": [],
      "stateMutability": "nonpayable",
      "type": "function"
    },
    {
      "inputs": [
        {
          "internalType": "address",
          "name": "maxOpDiffProviderAddress_",
          "type": "address"
        }
      ],
      "name": "setMaxOpDiffProviderAddress",
      "outputs": [],
      "stateMutability": "nonpayable",
      "type": "function"
    },
    {
      "inputs": [
        {
          "internalType": "uint256",
          "name": "mintTCandTPFee_",
          "type": "uint256"
        }
      ],
      "name": "setMintTCandTPFee",
      "outputs": [],
      "stateMutability": "nonpayable",
      "type": "function"
    },
    {
      "inputs": [
        {
          "internalType": "address",
          "name": "mocAppreciationBeneficiaryAddress_",
          "type": "address"
        }
      ],
      "name": "setMocAppreciationBeneficiaryAddress",
      "outputs": [],
      "stateMutability": "nonpayable",
      "type": "function"
    },
    {
      "inputs": [
        {
          "internalType": "address",
          "name": "mocFeeFlowAddress_",
          "type": "address"
        }
      ],
      "name": "setMocFeeFlowAddress",
      "outputs": [],
      "stateMutability": "nonpayable",
      "type": "function"
    },
    {
      "inputs": [
        {
          "internalType": "address payable",
          "name": "mocQueueAddress_",
          "type": "address"
        }
      ],
      "name": "setMocQueue",
      "outputs": [],
      "stateMutability": "nonpayable",
      "type": "function"
    },
    {
      "inputs": [
        {
          "internalType": "address",
          "name": "newPauser_",
          "type": "address"
        }
      ],
      "name": "setPauser",
      "outputs": [],
      "stateMutability": "nonpayable",
      "type": "function"
    },
    {
      "inputs": [
        {
          "internalType": "uint256",
          "name": "protThrld_",
          "type": "uint256"
        }
      ],
      "name": "setProtThrld",
      "outputs": [],
      "stateMutability": "nonpayable",
      "type": "function"
    },
    {
      "inputs": [
        {
          "internalType": "uint256",
          "name": "redeemTCandTPFee_",
          "type": "uint256"
        }
      ],
      "name": "setRedeemTCandTPFee",
      "outputs": [],
      "stateMutability": "nonpayable",
      "type": "function"
    },
    {
      "inputs": [
        {
          "internalType": "uint256",
          "name": "successFee_",
          "type": "uint256"
        }
      ],
      "name": "setSuccessFee",
      "outputs": [],
      "stateMutability": "nonpayable",
      "type": "function"
    },
    {
      "inputs": [
        {
          "internalType": "uint256",
          "name": "swapTCforTPFee_",
          "type": "uint256"
        }
      ],
      "name": "setSwapTCforTPFee",
      "outputs": [],
      "stateMutability": "nonpayable",
      "type": "function"
    },
    {
      "inputs": [
        {
          "internalType": "uint256",
          "name": "swapTPforTCFee_",
          "type": "uint256"
        }
      ],
      "name": "setSwapTPforTCFee",
      "outputs": [],
      "stateMutability": "nonpayable",
      "type": "function"
    },
    {
      "inputs": [
        {
          "internalType": "uint256",
          "name": "swapTPforTPFee_",
          "type": "uint256"
        }
      ],
      "name": "setSwapTPforTPFee",
      "outputs": [],
      "stateMutability": "nonpayable",
      "type": "function"
    },
    {
      "inputs": [
        {
          "internalType": "address",
          "name": "tcInterestCollectorAddress_",
          "type": "address"
        }
      ],
      "name": "setTCInterestCollectorAddress",
      "outputs": [],
      "stateMutability": "nonpayable",
      "type": "function"
    },
    {
      "inputs": [
        {
          "internalType": "uint256",
          "name": "tcInterestPaymentBlockSpan_",
          "type": "uint256"
        }
      ],
      "name": "setTCInterestPaymentBlockSpan",
      "outputs": [],
      "stateMutability": "nonpayable",
      "type": "function"
    },
    {
      "inputs": [
        {
          "internalType": "uint256",
          "name": "tcInterestRate_",
          "type": "uint256"
        }
      ],
      "name": "setTCInterestRate",
      "outputs": [],
      "stateMutability": "nonpayable",
      "type": "function"
    },
    {
      "inputs": [
        {
          "internalType": "uint256",
          "name": "tcMintFee_",
          "type": "uint256"
        }
      ],
      "name": "setTcMintFee",
      "outputs": [],
      "stateMutability": "nonpayable",
      "type": "function"
    },
    {
      "inputs": [
        {
          "internalType": "uint256",
          "name": "tcRedeemFee_",
          "type": "uint256"
        }
      ],
      "name": "setTcRedeemFee",
      "outputs": [],
      "stateMutability": "nonpayable",
      "type": "function"
    },
    {
      "inputs": [],
      "name": "shouldCalculateEma",
      "outputs": [
        {
          "internalType": "bool",
          "name": "",
          "type": "bool"
        }
      ],
      "stateMutability": "view",
      "type": "function"
    },
    {
      "inputs": [],
      "name": "stoppable",
      "outputs": [
        {
          "internalType": "bool",
          "name": "",
          "type": "bool"
        }
      ],
      "stateMutability": "view",
      "type": "function"
    },
    {
      "inputs": [],
      "name": "successFee",
      "outputs": [
        {
          "internalType": "uint256",
          "name": "",
          "type": "uint256"
        }
      ],
      "stateMutability": "view",
      "type": "function"
    },
    {
      "inputs": [],
      "name": "swapTCforTPFee",
      "outputs": [
        {
          "internalType": "uint256",
          "name": "",
          "type": "uint256"
        }
      ],
      "stateMutability": "view",
      "type": "function"
    },
    {
      "inputs": [
        {
          "components": [
            {
              "internalType": "address",
              "name": "tp",
              "type": "address"
            },
            {
              "internalType": "uint256",
              "name": "qTC",
              "type": "uint256"
            },
            {
              "internalType": "uint256",
              "name": "qTPmin",
              "type": "uint256"
            },
            {
              "internalType": "uint256",
              "name": "qACmax",
              "type": "uint256"
            },
            {
              "internalType": "address",
              "name": "sender",
              "type": "address"
            },
            {
              "internalType": "address",
              "name": "recipient",
              "type": "address"
            },
            {
              "internalType": "address",
              "name": "vendor",
              "type": "address"
            }
          ],
          "internalType": "struct MocCommons.SwapTCforTPParams",
          "name": "params_",
          "type": "tuple"
        }
      ],
      "name": "swapTCforTPto",
      "outputs": [
        {
          "internalType": "uint256",
          "name": "qACSurcharges",
          "type": "uint256"
        },
        {
          "internalType": "uint256",
          "name": "qTPtoMint",
          "type": "uint256"
        },
        {
          "internalType": "uint256",
          "name": "qFeeTokenTotalNeeded",
          "type": "uint256"
        },
        {
          "components": [
            {
              "internalType": "uint256",
              "name": "qACFee",
              "type": "uint256"
            },
            {
              "internalType": "uint256",
              "name": "qFeeToken",
              "type": "uint256"
            },
            {
              "internalType": "uint256",
              "name": "qACVendorMarkup",
              "type": "uint256"
            },
            {
              "internalType": "uint256",
              "name": "qFeeTokenVendorMarkup",
              "type": "uint256"
            }
          ],
          "internalType": "struct MocCommons.FeeCalcs",
          "name": "feeCalcs",
          "type": "tuple"
        }
      ],
      "stateMutability": "payable",
      "type": "function"
    },
    {
      "inputs": [],
      "name": "swapTPforTCFee",
      "outputs": [
        {
          "internalType": "uint256",
          "name": "",
          "type": "uint256"
        }
      ],
      "stateMutability": "view",
      "type": "function"
    },
    {
      "inputs": [
        {
          "components": [
            {
              "internalType": "address",
              "name": "tp",
              "type": "address"
            },
            {
              "internalType": "uint256",
              "name": "qTP",
              "type": "uint256"
            },
            {
              "internalType": "uint256",
              "name": "qTCmin",
              "type": "uint256"
            },
            {
              "internalType": "uint256",
              "name": "qACmax",
              "type": "uint256"
            },
            {
              "internalType": "address",
              "name": "sender",
              "type": "address"
            },
            {
              "internalType": "address",
              "name": "recipient",
              "type": "address"
            },
            {
              "internalType": "address",
              "name": "vendor",
              "type": "address"
            }
          ],
          "internalType": "struct MocCommons.SwapTPforTCParams",
          "name": "params_",
          "type": "tuple"
        }
      ],
      "name": "swapTPforTCto",
      "outputs": [
        {
          "internalType": "uint256",
          "name": "qACSurcharges",
          "type": "uint256"
        },
        {
          "internalType": "uint256",
          "name": "qTCtoMint",
          "type": "uint256"
        },
        {
          "internalType": "uint256",
          "name": "qFeeTokenTotalNeeded",
          "type": "uint256"
        },
        {
          "components": [
            {
              "internalType": "uint256",
              "name": "qACFee",
              "type": "uint256"
            },
            {
              "internalType": "uint256",
              "name": "qFeeToken",
              "type": "uint256"
            },
            {
              "internalType": "uint256",
              "name": "qACVendorMarkup",
              "type": "uint256"
            },
            {
              "internalType": "uint256",
              "name": "qFeeTokenVendorMarkup",
              "type": "uint256"
            }
          ],
          "internalType": "struct MocCommons.FeeCalcs",
          "name": "feeCalcs",
          "type": "tuple"
        }
      ],
      "stateMutability": "payable",
      "type": "function"
    },
    {
      "inputs": [],
      "name": "swapTPforTPFee",
      "outputs": [
        {
          "internalType": "uint256",
          "name": "",
          "type": "uint256"
        }
      ],
      "stateMutability": "view",
      "type": "function"
    },
    {
      "inputs": [
        {
          "components": [
            {
              "internalType": "address",
              "name": "tpFrom",
              "type": "address"
            },
            {
              "internalType": "address",
              "name": "tpTo",
              "type": "address"
            },
            {
              "internalType": "uint256",
              "name": "qTP",
              "type": "uint256"
            },
            {
              "internalType": "uint256",
              "name": "qTPmin",
              "type": "uint256"
            },
            {
              "internalType": "uint256",
              "name": "qACmax",
              "type": "uint256"
            },
            {
              "internalType": "address",
              "name": "sender",
              "type": "address"
            },
            {
              "internalType": "address",
              "name": "recipient",
              "type": "address"
            },
            {
              "internalType": "address",
              "name": "vendor",
              "type": "address"
            }
          ],
          "internalType": "struct MocCommons.SwapTPforTPParams",
          "name": "params_",
          "type": "tuple"
        }
      ],
      "name": "swapTPforTPto",
      "outputs": [
        {
          "internalType": "uint256",
          "name": "qACSurcharges",
          "type": "uint256"
        },
        {
          "internalType": "uint256",
          "name": "qTPtoMint",
          "type": "uint256"
        },
        {
          "internalType": "uint256",
          "name": "qFeeTokenTotalNeeded",
          "type": "uint256"
        },
        {
          "components": [
            {
              "internalType": "uint256",
              "name": "qACFee",
              "type": "uint256"
            },
            {
              "internalType": "uint256",
              "name": "qFeeToken",
              "type": "uint256"
            },
            {
              "internalType": "uint256",
              "name": "qACVendorMarkup",
              "type": "uint256"
            },
            {
              "internalType": "uint256",
              "name": "qFeeTokenVendorMarkup",
              "type": "uint256"
            }
          ],
          "internalType": "struct MocCommons.FeeCalcs",
          "name": "feeCalcs",
          "type": "tuple"
        }
      ],
      "stateMutability": "payable",
      "type": "function"
    },
    {
      "inputs": [],
      "name": "tcInterestCollectorAddress",
      "outputs": [
        {
          "internalType": "address",
          "name": "",
          "type": "address"
        }
      ],
      "stateMutability": "view",
      "type": "function"
    },
    {
      "inputs": [],
      "name": "tcInterestPaymentBlockSpan",
      "outputs": [
        {
          "internalType": "uint256",
          "name": "",
          "type": "uint256"
        }
      ],
      "stateMutability": "view",
      "type": "function"
    },
    {
      "inputs": [],
      "name": "tcInterestRate",
      "outputs": [
        {
          "internalType": "uint256",
          "name": "",
          "type": "uint256"
        }
      ],
      "stateMutability": "view",
      "type": "function"
    },
    {
      "inputs": [],
      "name": "tcMintFee",
      "outputs": [
        {
          "internalType": "uint256",
          "name": "",
          "type": "uint256"
        }
      ],
      "stateMutability": "view",
      "type": "function"
    },
    {
      "inputs": [],
      "name": "tcRedeemFee",
      "outputs": [
        {
          "internalType": "uint256",
          "name": "",
          "type": "uint256"
        }
      ],
      "stateMutability": "view",
      "type": "function"
    },
    {
      "inputs": [],
      "name": "tcToken",
      "outputs": [
        {
          "internalType": "contract MocTC",
          "name": "",
          "type": "address"
        }
      ],
      "stateMutability": "view",
      "type": "function"
    },
    {
      "inputs": [
        {
          "internalType": "uint256",
          "name": "",
          "type": "uint256"
        }
      ],
      "name": "tpCtarg",
      "outputs": [
        {
          "internalType": "uint256",
          "name": "",
          "type": "uint256"
        }
      ],
      "stateMutability": "view",
      "type": "function"
    },
    {
      "inputs": [
        {
          "internalType": "uint256",
          "name": "",
          "type": "uint256"
        }
      ],
      "name": "tpEma",
      "outputs": [
        {
          "internalType": "uint256",
          "name": "ema",
          "type": "uint256"
        },
        {
          "internalType": "uint256",
          "name": "sf",
          "type": "uint256"
        }
      ],
      "stateMutability": "view",
      "type": "function"
    },
    {
      "inputs": [
        {
          "internalType": "uint256",
          "name": "",
          "type": "uint256"
        }
      ],
      "name": "tpLiqPrices",
      "outputs": [
        {
          "internalType": "uint256",
          "name": "",
          "type": "uint256"
        }
      ],
      "stateMutability": "view",
      "type": "function"
    },
    {
      "inputs": [
        {
          "internalType": "address",
          "name": "",
          "type": "address"
        }
      ],
      "name": "tpMintFees",
      "outputs": [
        {
          "internalType": "uint256",
          "name": "",
          "type": "uint256"
        }
      ],
      "stateMutability": "view",
      "type": "function"
    },
    {
      "inputs": [
        {
          "internalType": "address",
          "name": "",
          "type": "address"
        }
      ],
      "name": "tpRedeemFees",
      "outputs": [
        {
          "internalType": "uint256",
          "name": "",
          "type": "uint256"
        }
      ],
      "stateMutability": "view",
      "type": "function"
    },
    {
      "inputs": [
        {
          "internalType": "uint256",
          "name": "",
          "type": "uint256"
        }
      ],
      "name": "tpTokens",
      "outputs": [
        {
          "internalType": "contract IMocRC20",
          "name": "",
          "type": "address"
        }
      ],
      "stateMutability": "view",
      "type": "function"
    },
    {
      "inputs": [],
      "name": "unpause",
      "outputs": [],
      "stateMutability": "nonpayable",
      "type": "function"
    },
    {
      "inputs": [],
      "name": "updateEmas",
      "outputs": [],
      "stateMutability": "nonpayable",
      "type": "function"
    },
    {
      "inputs": [
        {
          "internalType": "address",
          "name": "newImplementation",
          "type": "address"
        }
      ],
      "name": "upgradeTo",
      "outputs": [],
      "stateMutability": "nonpayable",
      "type": "function"
    },
    {
      "inputs": [
        {
          "internalType": "address",
          "name": "newImplementation",
          "type": "address"
        },
        {
          "internalType": "bytes",
          "name": "data",
          "type": "bytes"
        }
      ],
      "name": "upgradeToAndCall",
      "outputs": [],
      "stateMutability": "payable",
      "type": "function"
    }
  ],
  "transactionHash": "0xc45fca90866936b0acb8ed976d2389f42a251bdd9a1529d0790e3cb8ecec3cb1",
  "args": [],
  "numDeployments": 1,
  "solcInputHash": "76e1e12d11f02c94d3bdaf0b14e68353",
  "bytecode": "0x60a08060405234620000e157306080526000549060ff8260081c166200008f575060ff8082160362000053575b6040516140109081620000e78239608051818181611d4d01528181611ebe01526121d40152f35b60ff90811916176000557f7f26b83ff96e1f2b6a682f133852f6798a09c465da95921460cefb3847402498602060405160ff8152a1386200002c565b62461bcd60e51b815260206004820152602760248201527f496e697469616c697a61626c653a20636f6e747261637420697320696e697469604482015266616c697a696e6760c81b6064820152608490fd5b600080fdfe6080604052600436101561001257600080fd5b600060e08135811c90816301dde6ef146128d357816301f1b6841461288b578163073763b9146128675781630c340a241461283e5781630c36d8971461281f5781630d6ac463146127d95781630db49656146127ba5781630e0a8fd2146127965781630f1e5e2b1461275057816313ed7ba5146127265781631867e2f5146127075781631fe6a7ad146126cd5781632069f753146126a957816323b98cde1461268257816324ffaba31461264457816327eab2a1146125fe5781632a20d57d146125df5781632ab7831f146123e55781632c43bd3b146123c15781632d88af4a1461236a5781632ded50f01461234b578163333431fd1461232c57816333421c381461223b5781633659cfe6146121a25781633915edcb146121735781633bc4ac0a1461214f5781633cfb09ef146121095781633f4ba83a14611ffe578163407f0e3414611fdf5781634b74600114611f925781634d977e7814611f735781634e1f907a14611f495781634f0f27ee14611f2a5781634f1ef28614611e365781635210570c14611e1057816352d1902d14611d3a578163543aeb4814611d165781635860ee6314611cf75781635c975abb14611cd15781635cfbe57814611cb257816360009e0b14611c88578163647846a514611c5e57816364ec230a14611c3a578163662013f414611c165781636827435714611bed5781636b5488df14611bce5781636f30471f14611baf5781637071346814611b8b578163735d396014611b4557816373e28af914611b215781637554fffd14611b025781637622805514611ae35781637750ba0c14611abf57816379f9a91c14611aa05781637a193c3114611a815781637a4ff1d914611a5d5781637a727fe814611a3e5781637af5758c14611a1a5781637b5a17ae146118005781637cba2383146117dc5781637d8e03141461179f5781637f01c715146117755781637f13b998146117415781637f4a4fe0146117225781638456cb591461168b57816385bf9593146116455781638cfa4241146116265781638e2bdb86146115fc5781639853c35a146115d25781639ad6659d146115985781639cabfc001461154b5781639fd0506d1461151e578163a8e9ac30146114fc578163aea038dc146114dd578163b5e9ea8c146114b3578163b9fa641314611494578163bb4872de14611471578163becaca6b1461144d578163c00f538d14611429578163c84353c914611405578163cf351c1d146113bf578163d1a0faa0146113a3578163d6af11da14611361578163d87aab6f14611342578163d8db6f5a146112fc578163d9b6c2e514611174578163db79607214610efc578163ddb6d19014610ebe578163e1e121da14610c62578163e44bb51214610a69578163e4c0aaf414610a24578163e6b1627c146109e1578163e7c25978146109bd578163ee1f438f14610993578163f13f405414610969578163f26114aa1461077a578163f280877814610756578163f30b561414610737578163f375cfba14610718578163f5571e011461057057508063fa6e83bd14610551578063fadda424146104d8578063fda70f8b146104b95763fe6b92c11461049857600080fd5b346104b657806003193601126104b657602061013554604051908152f35b80fd5b50346104b657806003193601126104b657602061013c54604051908152f35b50346104b65760203660031901126104b6576001600160a01b03600435818116810361054c5761051461050c600192613201565b610137612939565b5001541661052181613280565b9190911561053457602082604051908152f35b60249060405190637f6e4db960e01b82526004820152fd5b600080fd5b50346104b657806003193601126104b657602061013a54604051908152f35b36600319011290506104b6576105873660046129a9565b90610590613528565b506105996132e2565b9061061a60018060a01b03916105b183865116613201565b926105d46105bf8587612ec2565b51956105cb87876136d3565b61014954613690565b610614602089969396019761060f6105ed828b51613fb6565b9761060a6106008c516101345490612ffa565b95610131546130bf565b6130bf565b612ffa565b90613fb6565b9560408101518088108015610710575b6106f2575061064b82608083015116858460c08501511661013f5492613753565b96919790956060840151808a116106d35750926106828661068c969460a09461067b60016106cf9d9c9b996139e0565b5190613a9a565b0151169087613619565b604051948594859293606091959460c09360e086019786526020860152604085015280518285015260208101516080850152604081015160a08501520151910152565b0390f35b604490895160405191630b63f1a760e01b835260048301526024820152fd5b604490886040519163f577bef560e01b835260048301526024820152fd5b50871561062a565b82346104b657806003193601126104b657602061014154604051908152f35b82346104b657806003193601126104b657602061013154604051908152f35b82346104b65760203660031901126104b657610770613f07565b60043561013c5580f35b905034610965573660031901126104b6576004356001600160a01b038181169182900361054c578183526101366020526040832060ff6001604051926107c1604085612955565b8054845201541615801560208301526109175751906024359080821680920361054c576101379060016107f48584612939565b50015416820361089d575b847f6417e5a3c1e0e5dae98b8fe718c4babdfcb35e0d7b5e1b9641b5914756f5d8e360048587610850610834836101486128f7565b6044929192359083549060031b91821b91600019901b19161790565b905580855261014460205260643560408620558452610145602052608435604085205561087f8161018e612939565b50600160c435910155610897604051928392836134c0565b0390a180f35b9190926040516359e02dd760e01b8152604081600481885afa90811561095a578691610929575b5015610917577f6417e5a3c1e0e5dae98b8fe718c4babdfcb35e0d7b5e1b9641b5914756f5d8e39360016108fa84600496612939565b5001906001600160601b0360a01b825416179055928192506107ff565b60405163e6c4247b60e01b8152600490fd5b61094b915060403d604011610953575b6109438183612955565b810190613266565b9050386108c4565b503d610939565b6040513d88823e3d90fd5b5080fd5b82346104b657806003193601126104b657610130546040516001600160a01b039091168152602090f35b82346104b657806003193601126104b657610152546040516001600160a01b039091168152602090f35b82346104b657806003193601126104b657602060ff61014b54166040519015158152f35b82346104b65760203660031901126104b6576004359061018e9081548310156104b6576040610a108484612939565b506001815491015482519182526020820152f35b82346104b65760203660031901126104b6576004356001600160a01b0381169081900361096557610a53613f07565b6001600160601b0360a01b609754161760975580f35b8260c03660031901126104b65760405190610a8560c083612955565b6001600160a01b0390600435828116810361054c5783526020830160243581526040840192604435845260643590808216820361054c5760608601918252608435818116810361054c576080870190815260a43594828616860361054c5760a08801958652610af2613528565b50610b0783610aff6132e2565b995116613201565b91610b21610b15848b612ec2565b51996105cb8b866136d3565b99610b3888519b610b328388613d12565b93613724565b91670de0b6b3a763ffff198101908111610c4e5781610b5a610b5f928e612ffa565b61300d565b98670de0b6b3a764000092838b02908b820485148c151715610c3857610b849161300d565b9b838102938185041490151715610c3857610bcf9787610bb2610bab610bc495839761300d565b809d612ed6565b98899251169251166101425492613753565b989187989198612ed6565b9951808b11610c1a57508915610c0857610bfe61068c96610bf3866106cf9c6139e0565b83855116908d613619565b519151169261354f565b60405163f3e39b5d60e01b8152600490fd5b6044908b60405191630b63f1a760e01b835260048301526024820152fd5b634e487b7160e01b600052601160045260246000fd5b634e487b7160e01b85526011600452602485fd5b905061010080600319360112610eba57610c7f6040519182612955565b6004356001600160a01b038116810361054c5781526024356001600160a01b038116810361054c57602082019081526044356040830152606082019360643585526080830191608435835260a4359460018060a01b038616860361054c5760a0850195865260c4356001600160a01b038116810361054c5760c086015260e435906001600160a01b038216820361054c578501908152610d1d613528565b50845182516001600160a01b03908116911614610ea8578451610d5c90610d4c906001600160a01b0316613201565b92516001600160a01b0316613201565b95610d668361322a565b90610d708861322a565b610d7a83866136d3565b610d84818a6136d3565b610d928360408a0151613fb6565b92610da581610b5a8460408d0151612ffa565b9a51808c108015610ea0575b610e825750908a8a610df896959493610dd4610dcd8584613d12565b918a613d12565b10610e53575b50509051925161013e54936001600160a01b03918216925016613753565b959196909451808811610e3457509160408492610e2c61068c956106cf9998978c60018060a01b0360c0860151169261354f565b015190613a9a565b604490875160405191630b63f1a760e01b835260048301526024820152fd5b610e72610e7a93610e62613e73565b610e6a613db5565b819391613690565b949093613b85565b388a8a610dda565b6044908c6040519163272e3f5960e21b835260048301526024820152fd5b508b15610db1565b604051632a9ffab760e21b8152600490fd5b8280fd5b82346104b65760203660031901126104b6576004356001600160a01b0381169081900361054c57816040916020935261014583522054604051908152f35b905034610965573660031901126104b6576004356001600160a01b038181169182900361054c576024803582811680910361054c578385526101369360209085825260019260ff8460408a20015416611162576101359586549785604051610f65604082612955565b8a815286810192828452868d52875260408c2090518155019051151560ff801983541691161790558654600160401b978882101561114f5790610fac9187820181556128f7565b81549060031b908386831b921b1916179055604051610fcc604082612955565b8981528481019283526101378054908982101561113c5790610ff2918882018155612939565b91909161112957908691518155019151166001600160601b0360a01b825416179055611022604435610148613116565b8087526101448252606435604088205586526101458152608435604087205560405190611050604083612955565b60a4358252810160c435815261018e805490868210156111165790611079918582018155612939565b9290926111035790839151835551910155610150918254938410156110f15750827f6417e5a3c1e0e5dae98b8fe718c4babdfcb35e0d7b5e1b9641b5914756f5d8e394926110cc926004950181556128f7565b50506110e26110da8261322a565b610151613116565b610897604051928392836134c0565b634e487b7160e01b8652604160045285fd5b634e487b7160e01b885260048890528488fd5b634e487b7160e01b895260416004528589fd5b634e487b7160e01b8b5260048b9052878bfd5b634e487b7160e01b8c526041600452888cfd5b634e487b7160e01b8b526041600452878bfd5b604051633458f6c560e01b8152600490fd5b36600319011290506104b65761118b3660046129a9565b90611194613528565b5061119d613e73565b6111a5613db5565b929060018060a01b03926111bb84845116613201565b906111db6111c98388612ec2565b51966111d588856136d3565b84613690565b602086979297019687516111f0838389613cca565b8181106112de5750509061121c918851670de0b6b3a76400009384916112168585613724565b90612ffa565b04968715610c08576112589361124f6112458d61060f8e516112168861060a8b610131546130bf565b610134549061300d565b049a8b88613b85565b60408501518088106112c0575061128181608087015116858360c0890151166101405492613753565b96919790956060830151808a116106d357509260a085936112b7858d956112b161068c9a6106cf9e9d9c9a6139e0565b51613b24565b0151169261354f565b604490886040519163272e3f5960e21b835260048301526024820152fd5b604492506040519163a5db715d60e01b835260048301526024820152fd5b82346104b65760203660031901126104b6576004356001600160a01b0381169081900361054c5761132b613f07565b61015280546001600160a01b031916909117905580f35b82346104b657806003193601126104b657602061015554604051908152f35b82346104b657806003193601126104b657602061139b611381600161331c565b61139561138e828461302d565b9183612f71565b91613363565b604051908152f35b82346104b657806003193601126104b6576113bc613e73565b80f35b82346104b65760203660031901126104b6576004356001600160a01b0381169081900361054c576113ee613f07565b61012f80546001600160a01b031916909117905580f35b82346104b65760203660031901126104b65761141f613f07565b60043561014c5580f35b82346104b65760203660031901126104b657611443613f07565b60043561013d5580f35b82346104b65760203660031901126104b657611467613f07565b6004356101395580f35b82346104b657806003193601126104b657602060ff60ca54166040519015158152f35b82346104b657806003193601126104b657602061015b54604051908152f35b82346104b657806003193601126104b657610153546040516001600160a01b039091168152602090f35b82346104b657806003193601126104b657602061013d54604051908152f35b82346104b657806003193601126104b657602061018f54431015604051908152f35b82346104b657806003193601126104b65760ca5460405160109190911c6001600160a01b03168152602090f35b82346104b65760203660031901126104b6576004356001600160a01b0381169081900361054c57604082819281526101366020522060ff6001825492015416825191825215156020820152f35b82346104b657806003193601126104b65760206115c46115be6115b96132e2565b612ee3565b906130a1565b61014a541015604051908152f35b82346104b657806003193601126104b657610146546040516001600160a01b039091168152602090f35b82346104b657806003193601126104b657610158546040516001600160a01b039091168152602090f35b82346104b657806003193601126104b657602061014a54604051908152f35b82346104b65760203660031901126104b6576004356001600160a01b0381169081900361054c57611674613f07565b61015380546001600160a01b031916909117905580f35b82346104b657806003193601126104b6576116a4613f95565b60ca54601081901c6001600160a01b031633036117105760ff8116156116fe576101009061ff0019161760ca557f62e78cea01bee320cd4e420270b5ea74000d11b0c9f74754ebdbfc544b05a2586020604051338152a180f35b60405163866099c360e01b8152600490fd5b604051631d77d47760e21b8152600490fd5b82346104b657806003193601126104b657602061015a54604051908152f35b82346104b657806003193601126104b657602061139b611761600161331c565b61139561176e8284612f71565b918361302d565b82346104b657806003193601126104b6576101c3546040516001600160a01b039091168152602090f35b82346104b65760203660031901126104b657600435906101489081548310156104b65760206117ce84846128f7565b90546040519160031b1c8152f35b82346104b65760203660031901126104b6576117f6613f07565b6004356101495580f35b36600319011290506104b65761188161181a3660046129a9565b611822613528565b5061182b613e73565b611833613db5565b82519093916001600160a01b039161184c908316613201565b9061186f61185a8388612ec2565b519661186688856136d3565b61014a54613690565b61187b81839793613724565b956130a1565b670de0b6b3a763ffff1990808201908111611a06576118a08885613d12565b908282019182116119de57906118b591612ffa565b9082019182116119f257906118c99161300d565b91602085016118dd8561060f898451612ffa565b93670de0b6b3a764000094858202918083048714901517156119de57906119039161300d565b9660408701518089116119c057508151908589029089820487148a151715610c385761192e9161300d565b908115610c08576119526119779661194b60609961196c94612ffa565b0483612ed6565b93848160808b0151169160c08b0151166101415492613753565b9791859791976130bf565b9701518088106119a257509261199d8899936106cf9899936112b1600161068c986139e0565b613a9a565b60449088604051916354cde31360e01b835260048301526024820152fd5b6044908960405191637a031da360e11b835260048301526024820152fd5b634e487b7160e01b8a52601160045260248afd5b634e487b7160e01b88526011600452602488fd5b634e487b7160e01b89526011600452602489fd5b82346104b65760203660031901126104b657611a34613f07565b6004356101405580f35b82346104b657806003193601126104b657602061019054604051908152f35b82346104b65760203660031901126104b657611a77613f07565b6004356101415580f35b82346104b657806003193601126104b657602061013454604051908152f35b82346104b657806003193601126104b657602061014254604051908152f35b82346104b65760203660031901126104b657611ad9613f07565b60043561013b5580f35b82346104b657806003193601126104b657602061015654604051908152f35b82346104b657806003193601126104b657602061013954604051908152f35b82346104b65760203660031901126104b657611b3b613f07565b6004356101545580f35b82346104b65760203660031901126104b6576004356001600160a01b0381169081900361054c57611b74613f07565b61015880546001600160a01b031916909117905580f35b82346104b65760203660031901126104b657611ba5613f07565b60043561013e5580f35b82346104b657806003193601126104b657602061015454604051908152f35b82346104b657806003193601126104b657602061014954604051908152f35b82346104b657806003193601126104b657611c06613f07565b600160ff1960ca54161760ca5580f35b82346104b657806003193601126104b6576020611c31613db5565b50604051908152f35b82346104b65760203660031901126104b657611c54613f07565b6004356101595580f35b82346104b657806003193601126104b65761012f546040516001600160a01b039091168152602090f35b82346104b657806003193601126104b657610133546040516001600160a01b039091168152602090f35b82346104b657806003193601126104b657602061014e54604051908152f35b82346104b657806003193601126104b657602060ff60ca5460081c166040519015158152f35b82346104b657806003193601126104b657602061015754604051908152f35b82346104b65760203660031901126104b657611d30613f07565b6004356101435580f35b82346104b657806003193601126104b6577f00000000000000000000000000000000000000000000000000000000000000006001600160a01b03163003611da55760206040517f360894a13ba1a3210667c828492db98dca3e2076cc3735a920a3ca505d382bbc8152f35b60405162461bcd60e51b815260206004820152603860248201527f555550535570677261646561626c653a206d757374206e6f742062652063616c60448201527f6c6564207468726f7567682064656c656761746563616c6c00000000000000006064820152608490fd5b82346104b657806003193601126104b657611e29613f07565b60ff1960ca541660ca5580f35b8260403660031901126104b6576001600160a01b03600435818116810361054c5782916024359167ffffffffffffffff8311611f255736602384011215611f25578260040135611e858161298d565b92611e936040519485612955565b8184523660248387010111611f21576113bc95602083611f14946024600199018389013786010152807f00000000000000000000000000000000000000000000000000000000000000001690611eeb82301415612a21565b7f360894a13ba1a3210667c828492db98dca3e2076cc3735a920a3ca505d382bbc541614612a82565b611f1c613f07565b612ae3565b8580fd5b505050fd5b82346104b657806003193601126104b657602061013b54604051908152f35b82346104b657806003193601126104b657610147546040516001600160a01b039091168152602090f35b82346104b657806003193601126104b657602061014c54604051908152f35b82346104b65760203660031901126104b657600435906101379081548310156104b6576040611fc18484612939565b50805460019091015482519182526001600160a01b03166020820152f35b82346104b657806003193601126104b657602061013e54604051908152f35b82346104b657806003193601126104b65760ca5460ff8160081c16156120f75760018060a01b03808260101c163314159081612078575b506117105760ff8116156116fe5761ff00191660ca557f5db9ee0a495bf2e6ff9c91a7834c1ba4fdd244a5e8aa4e537bd38aeae4b073aa6020604051338152a180f35b60975460405163d994d6d560e01b8152336004820152925060209183916024918391165afa9081156120ec5783916120b3575b501583612035565b90506020813d82116120e4575b816120cd60209383612955565b81010312610eba576120de90613259565b836120ab565b3d91506120c0565b6040513d85823e3d90fd5b604051637c7fd07960e01b8152600490fd5b82346104b65760203660031901126104b6576004356001600160a01b0381169081900361096557612138613f07565b61014f80546001600160a01b031916909117905580f35b82346104b65760203660031901126104b657612169613f07565b6004356101905580f35b82346104b65760203660031901126104b657600435906101389081548310156104b65760206117ce84846128f7565b82346104b65760203660031901126104b6576004356001600160a01b03808216820361054c576113bc916122018285937f00000000000000000000000000000000000000000000000000000000000000001690611eeb82301415612a21565b612209613f07565b6122128261298d565b906122206040519283612955565b828252601f1961222f8461298d565b01366020840137612ae3565b82346104b657806003193601126104b657612254613f95565b61014b805460ff81168061231e575b80612304575b612271578280f35b61ff0019166101001790556040517f8b77276c97a5709f0d6db52329848a254eb760ce8be80d281799f633bdb69e838280a16101335482906001600160a01b0316803b156109655782600481848094638456cb5960e01b83525af180156122f7576122e7575b50506122e1613153565b81808280f35b6122f091612955565b81816122d7565b50604051903d90823e3d90fd5b506123136115be6115b96132e2565b61014a541015612269565b5060ff8160081c1615612263565b82346104b657806003193601126104b657602061013f54604051908152f35b82346104b657806003193601126104b657602061014354604051908152f35b82346104b65760203660031901126104b6576004356001600160a01b038116810361096557612397613f07565b60ca805462010000600160b01b03191660109290921b62010000600160b01b031691909117905580f35b82346104b65760203660031901126104b6576123db613f07565b60043561014a5580f35b82346104b65760803660031901126104b6576004356001600160a01b038181169290838303610965576024358181169182820361255f576044358181168091036125db576064359560ff61014b5460081c16156125c95761244590613201565b90612452826101356128f7565b95905498604051966370a0823160e01b8852826004890152876024818860209e8f9560031b1c165afa9687156125be57889761258b575b50861561256d576124ac61249f856101386128f7565b90549060031b1c88613fb6565b98898110612563575b50906124f49392917ffaab3901cd2d6e9b5d0a0c6e34c643b8c844726f3c54de69517e571bf24bbd9260408c8c8251918c8352820152a46101356128f7565b90549060031b1c1690813b1561255f57604051632770a7eb60e21b81526001600160a01b03919091166004820152602481019290925290919081908390604490829084905af180156122f75761254f575b5050604051908152f35b61255891612955565b8280612545565b8380fd5b98506124f46124b5565b60448760405190633fe8c5eb60e01b82528060048301526024820152fd5b9096508981813d83116125b7575b6125a38183612955565b810103126125b35751958a612489565b8780fd5b503d612599565b6040513d8a823e3d90fd5b60405163031b0d3560e11b8152600490fd5b8480fd5b82346104b657806003193601126104b657602061014054604051908152f35b82346104b65760203660031901126104b6576004356001600160a01b038116908190036109655761262d613f07565b61014780546001600160a01b031916909117905580f35b82346104b65760203660031901126104b6576004356001600160a01b0381169081900361096557816040916020935261014483522054604051908152f35b82346104b657806003193601126104b657602060ff61014b5460081c166040519015158152f35b82346104b65760203660031901126104b6576126c3613f07565b6004356101425580f35b82346104b65760203660031901126104b657600435801515809103610965576126f4613f07565b61014b9060ff8019835416911617905580f35b82346104b657806003193601126104b657602061014d54604051908152f35b82346104b657806003193601126104b65761014f546040516001600160a01b039091168152602090f35b82346104b65760203660031901126104b6576004356001600160a01b038116908190036109655761277f613f07565b61013080546001600160a01b031916909117905580f35b82346104b65760203660031901126104b6576127b0613f07565b60043561013f5580f35b82346104b657806003193601126104b657602061015954604051908152f35b82346104b65760203660031901126104b6576004356001600160a01b0381169081900361096557612808613f07565b61014680546001600160a01b031916909117905580f35b82346104b657806003193601126104b657602061018f54604051908152f35b82346104b657806003193601126104b6576097546040516001600160a01b039091168152602090f35b82346104b65760203660031901126104b657612881613f07565b60043561015a5580f35b82346104b65760203660031901126104b657600435906101359081548310156104b65760206128ba84846128f7565b905460405160039290921b1c6001600160a01b03168152f35b82346104b65760203660031901126104b6576128ed613f07565b60043561013a5580f35b805482101561290f5760005260206000200190600090565b634e487b7160e01b600052603260045260246000fd5b35906001600160a01b038216820361054c57565b805482101561290f5760005260206000209060011b0190600090565b90601f8019910116810190811067ffffffffffffffff82111761297757604052565b634e487b7160e01b600052604160045260246000fd5b67ffffffffffffffff811161297757601f01601f191660200190565b91908260e091031261054c576040516129c360e082612955565b60c0612a1c8183956129d481612925565b8552602081013560208601526040810135604086015260608101356060860152612a0060808201612925565b6080860152612a1160a08201612925565b60a086015201612925565b910152565b15612a2857565b60405162461bcd60e51b815260206004820152602c60248201527f46756e6374696f6e206d7573742062652063616c6c6564207468726f7567682060448201526b19195b1959d85d1958d85b1b60a21b6064820152608490fd5b15612a8957565b60405162461bcd60e51b815260206004820152602c60248201527f46756e6374696f6e206d7573742062652063616c6c6564207468726f7567682060448201526b6163746976652070726f787960a01b6064820152608490fd5b909160ff7f4910fdfa16fed3260ed0e7147f7cc6da11a60208b5b9406d12a635614ffd91435416600014612b1e5750612b1c9150612d4c565b565b604080516352d1902d60e01b8152602094919392906001600160a01b038416908681600481855afa60009181612d1d575b50612baf57855162461bcd60e51b815260048101889052602e60248201527f45524331393637557067726164653a206e657720696d706c656d656e7461746960448201526d6f6e206973206e6f74205555505360901b6064820152608490fd5b9395929492937fc9f76b5ec45e5cdef99837d7b6d2467235c1df8933c8ca56df5c35afa2c7d44401612cc757612be486612d4c565b7fbc7cd75a20ee27fd9adebab32041f755214dbc6bffa90cc0225b39da2e5c2d3b600080a283511590811591612cbf575b50612c21575b50505050565b612cab93600080612c32602761298d565b95612c3f85519788612955565b602787527f416464726573733a206c6f772d6c6576656c2064656c65676174652063616c6c86880152660819985a5b195960ca1b858801528581519101845af4913d15612cb5573d612c9c612c938261298d565b92519283612955565b8152600081943d92013e612dee565b5038808080612c1b565b5060609250612dee565b905038612c15565b825162461bcd60e51b815260048101859052602960248201527f45524331393637557067726164653a20756e737570706f727465642070726f786044820152681a58589b195555525160ba1b6064820152608490fd5b90918882813d8311612d45575b612d348183612955565b810103126104b65750519038612b4f565b503d612d2a565b803b15612d93577f360894a13ba1a3210667c828492db98dca3e2076cc3735a920a3ca505d382bbc80546001600160a01b0319166001600160a01b03909216919091179055565b60405162461bcd60e51b815260206004820152602d60248201527f455243313936373a206e657720696d706c656d656e746174696f6e206973206e60448201526c1bdd08184818dbdb9d1c9858dd609a1b6064820152608490fd5b91929015612e505750815115612e02575090565b3b15612e0b5790565b60405162461bcd60e51b815260206004820152601d60248201527f416464726573733a2063616c6c20746f206e6f6e2d636f6e74726163740000006044820152606490fd5b825190915015612e635750805190602001fd5b6040519062461bcd60e51b82528160208060048301528251908160248401526000935b828510612ea9575050604492506000838284010152601f80199101168101030190fd5b8481018201518686016044015293810193859350612e86565b805182101561290f5760209160051b010190565b91908201809211610c3857565b906000916000906101378054906000925b828410612f1a5750505050612f16670de0b6b3a7640000916101395490612ffa565b0490565b9091929395612f67612f56612f61600193612f5b612f388a88612ec2565b51612f43818c612f8d565b9590612f4f8d8c612939565b5054612ed6565b613fb6565b90612ed6565b98612ed6565b9401929190612ef4565b91909160008382019384129112908015821691151617610c3857565b9190600090612fbb81600095612fb1612fa8826101506128f7565b93905492613046565b9160031b1c612f71565b60008113612fca575b50509190565b612ff2919450612fec92508094670de0b6b3a764000093849161013a54612ffa565b04612ffa565b043880612fc4565b81810292918115918404141715610c3857565b8115613017570490565b634e487b7160e01b600052601260045260246000fd5b81810392916000138015828513169184121617610c3857565b61305281610137612939565b505490670de0b6b3a764000091828102928184041490151715610c385761309e92613092613085613098936101516128f7565b90549060031b1c8461300d565b9261300d565b9061302d565b90565b80156130b757612f5661309e92610131546130bf565b505060001990565b91908203918211610c3857565b67ffffffffffffffff81116129775760051b60200190565b906130ee826130cc565b6130fb6040519182612955565b828152809261310c601f19916130cc565b0190602036910137565b805490600160401b821015612977578161313891600161314f940181556128f7565b819391549060031b91821b91600019901b19161790565b9055565b6101315480156131fe5761013790815491600090613170846130e4565b9082905b8582106131ba57505060005b84811061318e575050505050565b806131b46131ac86610b5a876131a660019789612ec2565b51612ffa565b610138613116565b01613180565b90926131f66001916131cb8661322a565b6131d58787612ec2565b52612f5b6131e38786612939565b50546131ef8888612ec2565b5190613fb6565b930190613174565b50565b6001600160a01b0316600090815261013660205260409020600181015460ff1615610917575490565b61323690610137612939565b50600101546001600160a01b031661324d81613280565b91909115610534575090565b5190811515820361054c57565b919082604091031261054c5761309e602083519301613259565b604080516359e02dd760e01b81529291839060049082906001600160a01b03165afa9182156132d65760009081936132b757509190565b90506132d291925060403d8111610953576109438183612955565b9091565b6040513d6000823e3d90fd5b61013754906132f0826130e4565b9160005b8181106132ff575050565b8061330b60019261322a565b6133158287612ec2565b52016132f4565b9061333d670de0b6b3a764000092836101575461015454924301030261300d565b8281101561335a5782039180836101555402049261015654020590565b50600091508190565b909161336d6133c5565b9290808210156133bb578391613382916130bf565b9311156133b657818110156133ae5761339a916130bf565b60011c808210156133a9575090565b905090565b505050600090565b505090565b5050505050600090565b61015254604080516359e02dd760e01b80825293929091906001600160a01b039081168284600481845afa80156134b5576000948591613492575b501561347b575061015354169080519485528085600481855afa801561347057600095869161344d575b50156134365750509190565b6024925051906305e8989360e11b82526004820152fd5b9050816134679296503d8711610953576109438183612955565b9490943861342a565b50513d6000823e3d90fd5b6024908351906305e8989360e11b82526004820152fd5b90506134ac919450833d8511610953576109438183612955565b93909338613400565b83513d6000823e3d90fd5b9081526101008101929160e09060c0906001600160a01b03806134e283612925565b1660208601526134f460208301612925565b1660408501526040810135606085015260608101356080850152608081013560a085015260a0810135828501520135910152565b60405190613537608083612955565b60006060838281528260208201528260408201520152565b6135c79361358e60009260209561356882610137612939565b50613574878254612ed6565b9055613584610131918254612ed6565b90556101356128f7565b90546040516340c10f1960e01b81526001600160a01b039093166004840152602483019490945290948593928492909183906044820190565b039360039190911b1c6001600160a01b03165af180156132d6576135e85750565b6020813d8211613611575b8161360060209383612955565b8101031261054c576131fe90613259565b3d91506135f3565b61367f9260209261013461362e848254612ed6565b905561363e610131918254612ed6565b9055610133546040516340c10f1960e01b81526001600160a01b03928316600482015260248101939093529193849290911690829060009082906044820190565b03925af180156132d6576135e85750565b919061369b90612ee3565b9190926136a883856130a1565b90808211156136b5575050565b6044925060405191637912120160e01b835260048301526024820152fd5b61313861314f916136e48482613046565b61371a6136f3836101506128f7565b6137068294925492838360031b1c612f71565b919060031b91821b91600019901b19161790565b90556101516128f7565b90610134549081156137445761309e9261060a612f5692610131546130bf565b505050670de0b6b3a764000090565b929093916000916000918296613767613528565b966001600160a01b03918590831680613968575b508261012f54168360405193636eb1769f60e11b8552168060048501523060248501526020948585604481865afa94851561395d57849561392e575b5084613818575b5050505050860151156137d4575b505050929190565b909192506137ec670de0b6b3a7640000928392612ffa565b0480855290821561381057613808920490816040860152612ed6565b3880806137cc565b509050613808565b613826906101305416613280565b929092156137be57909192939b50848b61386085670de0b6b3a764000061385a6138508d8d612ffa565b6101435490612ffa565b0461300d565b81830181815295908b15613924575061388b9161387f6060928d61300d565b91829101528551612ed6565b809d5b109283156138ba575b5050506138a7575b8080806137be565b819299505280606088015296388061389f565b909192506024604051809481936370a0823160e01b835260048301525afa9081156120ec57908b9184916138f3575b5010388481613897565b809250858092503d831161391d575b61390c8183612955565b81010312610eba578a9051386138e9565b503d613902565b915050809d61388e565b9094508581813d8311613956575b6139468183612955565b8101031261255f575193386137b7565b503d61393c565b6040513d86823e3d90fd5b9095506020836101c35416916024604051809481936364a731e960e01b835260048301525afa801561095a5786906139ad575b6139a6915084612ffa565b943861377b565b506020813d82116139d8575b816139c660209383612955565b81010312611f21576139a6905161399b565b3d91506139b9565b806139e96133c5565b9190936139f6600061331c565b9401938291613a8e575b0193846000808212613a8857505b840391818511613a50575050818111613a3257505061015555610156554361015755565b60449250604051916306da41e560e11b835260048301526024820152fd5b9080859211613a7657604491604051916306da41e560e11b835260048301526024820152fd5b604051630fb4fd3560e11b8152600490fd5b03613a0e565b90508160000390613a00565b613ac79192613aab82610137612939565b50613ab78582546130bf565b90556135846101319182546130bf565b905460039190911b1c6001600160a01b0316803b1561054c57604051632770a7eb60e21b815230600482015260248101929092526000908290818381604481015b03925af180156132d657613b195750565b6000612b1c91612955565b90610134613b338382546130bf565b9055613b436101319182546130bf565b9055610133546001600160a01b0316803b1561054c57604051632770a7eb60e21b81523060048201526024810192909252600090829081838160448101613b08565b92613b9783613b9d9694939795613d12565b90613bc6565b818110613ba8575050565b604492506040519163c39b739f60e01b835260048301526024820152fd5b92613bd392949193613c93565b60009281810291600160ff1b9185821283821416613c7f578184051490151715613c6b57670de0b6b3a763ffff198301928311613c6b57670de0b6b3a764000092838102938185041490151715613c6b578215613c57578114600019831416613c435705908082126133a9575090565b634e487b7160e01b83526011600452602483fd5b634e487b7160e01b84526012600452602484fd5b634e487b7160e01b84526011600452602484fd5b634e487b7160e01b86526011600452602486fd5b9091613ca290610131546130bf565b90670de0b6b3a764000091828102928184041490151715610c385761309e9261309891612ffa565b8282613cd592613c93565b9060008213156133ae5761309e92613cec91613724565b9061300d565b90604051613d01604082612955565b602060018294805484520154910152565b613d1e816101486128f7565b90549060031b1c9161018e91613d348184612939565b50549261018f54431015613d5a575b5050808210156133b657610b5a9061309e93612ffa565b829350613d6e613d799392613d7492612939565b50613cf2565b613d81565b903880613d43565b602081519101805192670de0b6b3a764000093840390848211610c3857613dae612f5b92612f1695612ffa565b9251612ffa565b60008061013791825492613dc8846130e4565b9382915b818310613df5575050508115613de95790613de69161300d565b91565b50506101495460011b91565b90919392613e028561322a565b9081613e0e8789612ec2565b52613e27613e1c8388612f8d565b50612f4f8886612939565b670de0b6b3a764000090818102918183041490151715610c3857613e64613e6a92612f5b85613e5b60019761060f96613fb6565b9485918c613d12565b95612ed6565b94019190613dcc565b61018f8054431015613e825750565b6101375460005b818110613e9c5750506101905443019055565b80807f19156e9379c7bbbce8f646ce5ee30ba860b8f954717405f3d5859a6c1a21ae6060019361018e613ed2613d6e8383612939565b90613ef0613ee8613ee28561322a565b84613d81565b938492612939565b50555160409182519182526020820152a201613e89565b60975460405163d994d6d560e01b815233600482015290602090829060249082906001600160a01b03165afa9081156132d657600091613f5c575b5015613f4a57565b604051631dd1b1b560e21b8152600490fd5b906020823d8211613f8d575b81613f7560209383612955565b810103126104b65750613f8790613259565b38613f42565b3d9150613f68565b60ff60ca5460081c16613fa457565b60405163783bb6c960e11b8152600490fd5b90670de0b6b3a764000091828102928184041490151715610c385761309e9161300d56fea2646970667358221220b3a54d2b431406c58c3539b1bf443a440ca39fd3933d05a6b3a731e376c27bed64736f6c63430008140033",
  "devdoc": {
    "details": "IMPORTANT NOTES:  1. MocCore and MocCoreExpansion must have always the same storage layout to avoid collisions  2. Because MocCore is upgradeable and delegates calls to MocCoreExpansion, it cannot be upgradeable because      a proxy contract cannot delegate calls to another proxy contract. So, for any MocCoreExpansion upgrade      you must deploy a new implementation and set it to MocCore.",
    "events": {
      "AdminChanged(address,address)": {
        "details": "Emitted when the admin account has changed."
      },
      "BeaconUpgraded(address)": {
        "details": "Emitted when the beacon is changed."
      },
      "Initialized(uint8)": {
        "details": "Triggered when the contract has been initialized or reinitialized."
      },
      "Upgraded(address)": {
        "details": "Emitted when the implementation is upgraded."
      }
    },
    "kind": "dev",
    "methods": {
      "addPeggedToken((address,address,uint256,uint256,uint256,uint256,uint256))": {
        "details": "Note that the ema value, should consider `nextEmaCalculation`  This function is called by MocCore contract using it's context with delegate call  Checks done there:  -  onlyAuthorizedChanger: the caller must have governance authorization.tpTokenAddress Pegged Token contract address to add      priceProviderAddress Pegged Token price provider contract address      tpCtarg Pegged Token target coverage [PREC]      tpMintFee additional fee pct applied on mint [PREC]      tpRedeemFee additional fee pct applied on redeem [PREC]      tpEma initial Pegged Token exponential moving average [PREC]      tpEmaSf Pegged Token smoothing factor [PREC]  Requirements:  - tpTokenAddress must be a MocRC20, with mint, burn roles already settled  for this contract",
        "params": {
          "peggedTokenParams_": "params of Pegged Token to add"
        }
      },
      "calcCtargemaCA()": {
        "details": "qAC = nTP / pACtp      ctargemaCA = (ctargemaTP * qAC) / (qAC)",
        "returns": {
          "ctargemaCA": "[PREC]"
        }
      },
      "changeGovernor(address)": {
        "params": {
          "newGovernor_": "New governor address"
        }
      },
      "constructor": {
        "custom:oz-upgrades-unsafe-allow": "constructor"
      },
      "editPeggedToken((address,address,uint256,uint256,uint256,uint256,uint256))": {
        "details": "Note that the ema value, should consider `nextEmaCalculation`  This function is called by MocCore contract using it's context with delegate call  Checks done there:  -  onlyAuthorizedChanger: the caller must have governance authorization.tpTokenAddress Pegged Token contract address to identify the token to edit      priceProviderAddress Pegged Token price provider contract address      tpCtarg Pegged Token target coverage [PREC]      tpMintFee additional fee pct applied on mint [PREC]      tpRedeemFee additional fee pct applied on redeem [PREC]      tpEma initial Pegged Token exponential moving average [PREC]      tpEmaSf Pegged Token smoothing factor [PREC]  Requirements: - the tpTokenAddress must exists",
        "params": {
          "peggedTokenParams_": "params of Pegged Token to add"
        }
      },
      "getPACtp(address)": {
        "params": {
          "tp_": "Pegged Token address"
        },
        "returns": {
          "_0": "price [PREC]"
        }
      },
      "isLiquidationReached()": {
        "returns": {
          "_0": "true if liquidation state is reached, false otherwise"
        }
      },
      "liqRedeemTP(address,address,address,uint256)": {
        "details": "This function is called by MocCore contract using it's context with delegate call  The equivalent AC given the liquidation frozen price(qACRedeemed) is transferred  to the `recipient_` by MocCore contract  Checks done there:  -  notPaused: the contract must be unpaused",
        "params": {
          "recipient_": "address who receives the AC",
          "sender_": "address owner of the TP to be redeemed",
          "tp_": "Pegged Token address"
        },
        "returns": {
          "qACRedeemed": "amount of AC sent to `recipient_`"
        }
      },
      "makeStoppable()": {
        "details": "Should be called through governance"
      },
      "makeUnstoppable()": {
        "details": "Should be called through governance"
      },
      "maxQACToMintTP()": {
        "returns": {
          "maxQAC": "minimum regarding maxAbsoluteOperation and maxOperationalDifference"
        }
      },
      "maxQACToRedeemTP()": {
        "returns": {
          "maxQAC": "minimum regarding maxAbsoluteOperation and maxOperationalDifference"
        }
      },
      "mintTCandTPto((address,uint256,uint256,address,address,address))": {
        "details": "i_ Pegged Token index      qTP_ amount of Pegged Token to mint      qACmax_ maximum amount of Collateral Asset that can be spent      sender_ address who sends Collateral Asset      recipient_ address who receives the Collateral Token and Pegged Token      vendor_ address who receives a markup. If its address(0) no markup is applied",
        "params": {
          "params_": "mint TC and TP function parameters"
        },
        "returns": {
          "feeCalcs": "platform fee detail breakdown",
          "qACtotalNeeded": "amount of AC used to mint Collateral Token and Pegged Token",
          "qFeeTokenTotalNeeded": "amount of Fee Token used by `sender_` to pay fees. 0 if qAC is used instead",
          "qTCtoMint": "amount of Collateral Token minted"
        }
      },
      "pause()": {
        "details": "Should only be called by the pauser and when it is stoppable"
      },
      "proxiableUUID()": {
        "details": "Implementation of the ERC1822 {proxiableUUID} function. This returns the storage slot used by the implementation. It is used to validate the implementation's compatibility when performing an upgrade. IMPORTANT: A proxy pointing at a proxiable contract should not be considered proxiable itself, because this risks bricking a proxy that upgrades to it, by delegating to itself until out of gas. Thus it is critical that this function revert if invoked through a proxy. This is guaranteed by the `notDelegated` modifier."
      },
      "redeemTCandTPto((address,uint256,uint256,uint256,address,address,address))": {
        "details": "i_ Pegged Token index      qTC_ amount of Collateral Token to redeem      qTP_ maximum amount of Pegged Token to redeem      qACmin_ minimum amount of Collateral Asset that `recipient_` expects to receive      sender_ address who sends Collateral Token and Pegged Token      recipient_ address who receives the Collateral Asset      vendor_ address who receives a markup. If its address(0) no markup is applied",
        "params": {
          "params_": "redeem TC and TP function parameters"
        },
        "returns": {
          "feeCalcs": "platform fee detail breakdown",
          "qACtoRedeem": "amount of AC sent to `recipient_`",
          "qFeeTokenTotalNeeded": "amount of Fee Token used by `sender_` to pay fees. 0 if qAC is used instead",
          "qTPtoRedeem": "amount of Pegged Token redeemed"
        }
      },
      "setAppreciationFactor(uint256)": {
        "details": "sets appreciation Factor value.",
        "params": {
          "appreciationFactor_": "pct of the gain because Pegged Tokens devaluation that is returned in Pegged Tokens to appreciation beneficiary during the settlement [PREC]"
        }
      },
      "setBes(uint256)": {
        "details": "bns is not automatically updated, you have to wait until next settlement to be made : bns = block.number + bes*",
        "params": {
          "bes_": "number of blocks between settlements"
        }
      },
      "setDecayBlockSpan(uint256)": {
        "details": "sets flux capacitor decay block span",
        "params": {
          "decayBlockSpan_": "flux capacitor decay block span"
        }
      },
      "setEmaCalculationBlockSpan(uint256)": {
        "details": "nextEmaCalculation is not automatically updated, you have to wait until next  EMA calculation to be made : nextEmaCalculation = block.number + emaCalculationBlockSpan*",
        "params": {
          "blockSpan_": "Defines how many blocks should pass between EMA calculations"
        }
      },
      "setFeeRetainer(uint256)": {
        "details": "sets the fee pct to be retainer on AC fees payments as AC re-injection.",
        "params": {
          "feeRetainer_": "pct retain on fees to be re-injected as Collateral, while paying fees with AC [PREC] 0% = 0; 1% = 10 ** 16; 100% = 10 ** 18"
        }
      },
      "setFeeTokenAddress(address)": {
        "details": "sets Fee Token contract address",
        "params": {
          "mocFeeTokenAddress_": "Fee Token new contract address"
        }
      },
      "setFeeTokenPct(uint256)": {
        "details": "sets the fee applied on the top of the operation`s fee when using Fee Token as fee payment method.",
        "params": {
          "feeTokenPct_": "pct applied on the top of the operation`s fee when using Fee Token  as fee payment method [PREC]  e.g. if tcMintFee = 1%, FeeTokenPct = 50% => qFeeToken = 0.5%  0% = 0; 1% = 10 ** 16; 100% = 10 ** 18"
        }
      },
      "setFeeTokenPriceProviderAddress(address)": {
        "details": "sets Fee Token price provider contract address",
        "params": {
          "mocFeeTokenPriceProviderAddress_": "Fee Token price provider new contract address"
        }
      },
      "setLiqEnabled(bool)": {
        "details": "enables and disables the liquidation mechanism.",
        "params": {
          "liqEnabled_": "is liquidation enabled"
        }
      },
      "setLiqThrld(uint256)": {
        "details": "sets the value of the liq threshold configuration param",
        "params": {
          "liqThrld_": "liquidation threshold"
        }
      },
      "setMaxAbsoluteOpProviderAddress(address)": {
        "details": "sets max absolute operation provider address",
        "params": {
          "maxAbsoluteOpProviderAddress_": "max absolute operation provider address"
        }
      },
      "setMaxOpDiffProviderAddress(address)": {
        "details": "sets max operation difference provider address",
        "params": {
          "maxOpDiffProviderAddress_": "max operation difference provider address"
        }
      },
      "setMintTCandTPFee(uint256)": {
        "details": "sets the fee charged when mint Collateral Token and Pegged Token in one operation.",
        "params": {
          "mintTCandTPFee_": "additional fee pct applied on mint Collateral Token and Pegged Token [PREC] 0% = 0; 1% = 10 ** 16; 100% = 10 ** 18"
        }
      },
      "setMocAppreciationBeneficiaryAddress(address)": {
        "details": "sets Moc Appreciation Beneficiary Address",
        "params": {
          "mocAppreciationBeneficiaryAddress_": "moc Appreciation Beneficiary new address"
        }
      },
      "setMocFeeFlowAddress(address)": {
        "details": "sets Moc Fee Flow contract address",
        "params": {
          "mocFeeFlowAddress_": "moc Fee Flow new contract address"
        }
      },
      "setMocQueue(address)": {
        "details": "sets Moc Queue contract address",
        "params": {
          "mocQueueAddress_": "moc queue new contract address"
        }
      },
      "setPauser(address)": {
        "details": "Should be called through governance",
        "params": {
          "newPauser_": "Address of the new pauser"
        }
      },
      "setProtThrld(uint256)": {
        "details": "sets the value of the protected threshold configuration param",
        "params": {
          "protThrld_": "coverage protected state threshold [PREC]"
        }
      },
      "setRedeemTCandTPFee(uint256)": {
        "details": "sets the fee charged when redeem Collateral Token and Pegged Token in one operation.",
        "params": {
          "redeemTCandTPFee_": "additional fee pct applied on redeem Collateral Token and Pegged Token [PREC] 0% = 0; 1% = 10 ** 16; 100% = 10 ** 18"
        }
      },
      "setSuccessFee(uint256)": {
        "details": "sets success Fee value.",
        "params": {
          "successFee_": "pct of the gain because Pegged Tokens devaluation that is transferred in Collateral Asset to Moc Fee Flow during the settlement [PREC]"
        }
      },
      "setSwapTCforTPFee(uint256)": {
        "details": "sets the fee charged when swap Collateral Token for a Pegged Token.",
        "params": {
          "swapTCforTPFee_": "additional fee pct applied on swap Collateral Token for a Pegged Token [PREC] 0% = 0; 1% = 10 ** 16; 100% = 10 ** 18"
        }
      },
      "setSwapTPforTCFee(uint256)": {
        "details": "sets the fee charged when swap a Pegged Token for Collateral Token.",
        "params": {
          "swapTPforTCFee_": "additional fee pct applied on swap a Pegged Token for Collateral Token [PREC] 0% = 0; 1% = 10 ** 16; 100% = 10 ** 18"
        }
      },
      "setSwapTPforTPFee(uint256)": {
        "details": "sets the fee charged when swap a Pegged Token for another Pegged Token.",
        "params": {
          "swapTPforTPFee_": "additional fee pct applied on swap a Pegged Token for another Pegged Token [PREC] 0% = 0; 1% = 10 ** 16; 100% = 10 ** 18"
        }
      },
      "setTCInterestCollectorAddress(address)": {
        "details": "sets TC interest collector address",
        "params": {
          "tcInterestCollectorAddress_": "TC interest collector address"
        }
      },
      "setTCInterestPaymentBlockSpan(uint256)": {
        "details": "sets TC interest payment block spannextTCInterestPayment is not automatically updated, you have to wait until next  interest payment to be made : nextTCInterestPayment = block.number + tcInterestPaymentBlockSpan",
        "params": {
          "tcInterestPaymentBlockSpan_": "amount of blocks to wait for next TC interest payment"
        }
      },
      "setTCInterestRate(uint256)": {
        "details": "sets TC interest rate",
        "params": {
          "tcInterestRate_": "pct interest charged to TC holders on the total collateral in the protocol [PREC]"
        }
      },
      "setTcMintFee(uint256)": {
        "details": "sets the fee charged on Token Collateral mint.",
        "params": {
          "tcMintFee_": "addition fee pct applied on Collateral Tokens mint [PREC] 0% = 0; 1% = 10 ** 16; 100% = 10 ** 18"
        }
      },
      "setTcRedeemFee(uint256)": {
        "details": "sets the fee charged on Token Collateral redeem.",
        "params": {
          "tcRedeemFee_": "addition fee pct applied on Collateral Tokens redeem [PREC] 0% = 0; 1% = 10 ** 16; 100% = 10 ** 18"
        }
      },
      "swapTCforTPto((address,uint256,uint256,uint256,address,address,address))": {
        "details": "This function is called by MocCore contract using it's context with delegate calli_ Pegged Token index      qTC_ amount of Collateral Token to swap      qTPmin_ minimum amount of Pegged Token Token that `recipient_` expects to receive      qACmax_ maximum amount of Collateral Asset that can be spent in fees      sender_ address who sends the Collateral Token      recipient_ address who receives the Pegged Token      vendor_ address who receives a markup. If its address(0) no markup is appliedqACFee amount of AC needed to pay fees      qFeeToken amount of Fee Token needed to pay fess      qACVendorMarkup amount of AC needed to pay vendor markup      qFeeTokenVendorMarkup amount of Fee Token needed to pay vendor markup",
        "params": {
          "params_": "swap TC for TP function parameters"
        },
        "returns": {
          "qACSurcharges": "amount of AC used to pay fees and markup",
          "qFeeTokenTotalNeeded": "amount of Fee Token used by `sender_` to pay fees. 0 if qAC is used instead",
          "qTPtoMint": "amount of Pegged Token minted"
        }
      },
      "swapTPforTCto((address,uint256,uint256,uint256,address,address,address))": {
        "details": "This function is called by MocCore contract using it's context with delegate calli_ Pegged Token index      qTP_ amount Pegged Token to swap      qTCmin_ minimum amount of Collateral Token that `recipient_` expects to receive      qACmax_ maximum amount of Collateral Asset that can be spent in fees      sender_ address who sends the Pegged Token      recipient_ address who receives Collateral Token      vendor_ address who receives a markup. If its address(0) no markup is appliedqACFee amount of AC needed to pay fees      qFeeToken amount of Fee Token needed to pay fess      qACVendorMarkup amount of AC needed to pay vendor markup      qFeeTokenVendorMarkup amount of Fee Token needed to pay vendor markup",
        "params": {
          "params_": "swap TP for TC function parameters"
        },
        "returns": {
          "feeCalcs": "struct with:",
          "qACSurcharges": "amount of AC used to pay fees and markup",
          "qFeeTokenTotalNeeded": "amount of Fee Token used by `sender_` to pay fees. 0 if qAC is used instead",
          "qTCtoMint": "amount of Collateral Token minted"
        }
      },
      "swapTPforTPto((address,address,uint256,uint256,uint256,address,address,address))": {
        "details": "This function is called by MocCore contract using it's context with delegate calliFrom_ owned Pegged Token index      iTo_ target Pegged Token index      qTP_ amount of owned Pegged Token to swap      qTPmin_ minimum amount of target Pegged Token that `recipient_` expects to receive      qACmax_ maximum amount of Collateral Asset that can be spent in fees      sender_ address who sends the Pegged Token      recipient_ address who receives the target Pegged Token      vendor_ address who receives a markup. If its address(0) no markup is appliedqACFee amount of AC needed to pay fees      qFeeToken amount of Fee Token needed to pay fess      qACVendorMarkup amount of AC needed to pay vendor markup      qFeeTokenVendorMarkup amount of Fee Token needed to pay vendor markup",
        "params": {
          "params_": "swap TP for TP function parameters"
        },
        "returns": {
          "feeCalcs": "struct with:",
          "qACSurcharges": "amount of AC used to pay fees and markup",
          "qFeeTokenTotalNeeded": "amount of Fee Token used by `sender_` to pay fees. 0 if qAC is used instead",
          "qTPtoMint": "amount of Pegged Token minted"
        }
      },
      "unpause()": {
        "details": "Should only be called by the pauser and when it is stoppable"
      },
      "updateEmas()": {
        "details": "All price provider prices must be available, fails if not"
      },
      "upgradeTo(address)": {
        "custom:oz-upgrades-unsafe-allow-reachable": "delegatecall",
        "details": "Upgrade the implementation of the proxy to `newImplementation`. Calls {_authorizeUpgrade}. Emits an {Upgraded} event."
      },
      "upgradeToAndCall(address,bytes)": {
        "custom:oz-upgrades-unsafe-allow-reachable": "delegatecall",
        "details": "Upgrade the implementation of the proxy to `newImplementation`, and subsequently execute the function call encoded in `data`. Calls {_authorizeUpgrade}. Emits an {Upgraded} event."
      }
    },
    "title": "MocCoreExpansion",
    "version": 1
  },
  "userdoc": {
    "kind": "user",
    "methods": {
      "addPeggedToken((address,address,uint256,uint256,uint256,uint256,uint256))": {
        "notice": "add a Pegged Token to the protocol"
      },
      "calcCtargemaCA()": {
        "notice": "calculates target coverage adjusted by all Pegged Token's to Collateral Asset rate moving average"
      },
      "changeGovernor(address)": {
        "notice": "Change the contract's governor. Should be called through the old governance system"
      },
      "editPeggedToken((address,address,uint256,uint256,uint256,uint256,uint256))": {
        "notice": "modifies a Pegged Token of the protocol"
      },
      "evalLiquidation()": {
        "notice": "evaluates if liquidation threshold has been reached and liq is Enabled. If so forces contracts liquidation, blocking all mint & redeem operations. May emit a {ContractLiquidated} event."
      },
      "getPACtp(address)": {
        "notice": "get how many Pegged Token equal 1 Collateral Asset"
      },
      "getTpAmount()": {
        "notice": "return current amount of Tps"
      },
      "governor()": {
        "notice": "The address of the contract which governs this one"
      },
      "isLiquidationReached()": {
        "notice": "If liquidation is enabled, verifies if forced liquidation has been reached, checking if globalCoverage <= liquidation"
      },
      "liqRedeemTP(address,address,address,uint256)": {
        "notice": "Allow redeem on liquidation state, user Peg balance gets burned"
      },
      "makeStoppable()": {
        "notice": "Switches ON the stoppability of the contract. It can be paused or unpaused  Doesn't change the pause state, if the contract was already paused it cannot be operated"
      },
      "makeUnstoppable()": {
        "notice": "Switches OFF the stoppability of the contract. It cannot be paused or unpaused Doesn't change the pause state, if the contract was already paused it cannot be operated"
      },
      "maxQACToMintTP()": {
        "notice": "gets the max amount of AC allowed to operate to mint TP with, restricted by accumulators // TODO: move this function to a MocView contract"
      },
      "maxQACToRedeemTP()": {
        "notice": "gets the max amount of AC allowed to operate to redeem TP with, restricted by accumulators // TODO: move this function to a MocView contract"
      },
      "mintTCandTPto((address,uint256,uint256,address,address,address))": {
        "notice": "mint Collateral Token and Pegged Token in exchange for Collateral Asset  This operation is done without checking coverage  Collateral Token and Pegged Token are minted in equivalent proportions so that its price  and global coverage are not modified.  Reverts if qAC sent are insufficient."
      },
      "pause()": {
        "notice": "Called by the owner to pause, triggers stopped state"
      },
      "paused()": {
        "notice": "Returns true if paused"
      },
      "redeemTCandTPto((address,uint256,uint256,uint256,address,address,address))": {
        "notice": "redeem Collateral Asset in exchange for Collateral Token and Pegged Token  This operation is done without checking coverage  Collateral Token and Pegged Token are redeemed in equivalent proportions so that its price  and global coverage are not modified.  Reverts if qTP sent are insufficient."
      },
      "setPauser(address)": {
        "notice": "Changes the address which is enable to pause this contract"
      },
      "shouldCalculateEma()": {
        "notice": "true if the necessary span has pass since last ema update"
      },
      "swapTCforTPto((address,uint256,uint256,uint256,address,address,address))": {
        "notice": "swap Collateral Token to Pegged Token"
      },
      "swapTPforTCto((address,uint256,uint256,uint256,address,address,address))": {
        "notice": "swap Pegged Token to Collateral Token"
      },
      "swapTPforTPto((address,address,uint256,uint256,uint256,address,address,address))": {
        "notice": "swap Pegged Token to another one  This operation is done without checking coverage unless the target coverage for  received Pegged Token is greater than the Pegged Token sent"
      },
      "unpause()": {
        "notice": "Called by the owner to unpause, returns to normal state"
      },
      "updateEmas()": {
        "notice": "If time, calculates the EMA for all the Pegged Token prices."
      }
    },
    "notice": "This contract is used as an expansion of MocCore because 24kb size limitation  MocCore delegate some function calls to it.",
    "version": 1
  },
  "storageLayout": {
    "storage": [
      {
        "astId": 950,
        "contract": "moc-main/contracts/core/MocCoreExpansion.sol:MocCoreExpansion",
        "label": "_initialized",
        "offset": 0,
        "slot": "0",
        "type": "t_uint8"
      },
      {
        "astId": 953,
        "contract": "moc-main/contracts/core/MocCoreExpansion.sol:MocCoreExpansion",
        "label": "_initializing",
        "offset": 1,
        "slot": "0",
        "type": "t_bool"
      },
      {
        "astId": 932,
        "contract": "moc-main/contracts/core/MocCoreExpansion.sol:MocCoreExpansion",
        "label": "__gap",
        "offset": 0,
        "slot": "1",
        "type": "t_array(t_uint256)50_storage"
      },
      {
        "astId": 1247,
        "contract": "moc-main/contracts/core/MocCoreExpansion.sol:MocCoreExpansion",
        "label": "__gap",
        "offset": 0,
        "slot": "51",
        "type": "t_array(t_uint256)50_storage"
      },
      {
        "astId": 18989,
        "contract": "moc-main/contracts/core/MocCoreExpansion.sol:MocCoreExpansion",
        "label": "__gap",
        "offset": 0,
        "slot": "101",
        "type": "t_array(t_uint256)50_storage"
      },
      {
        "astId": 15006,
        "contract": "moc-main/contracts/core/MocCoreExpansion.sol:MocCoreExpansion",
        "label": "governor",
        "offset": 0,
        "slot": "151",
        "type": "t_contract(IGovernor)15364"
      },
      {
        "astId": 15077,
        "contract": "moc-main/contracts/core/MocCoreExpansion.sol:MocCoreExpansion",
        "label": "__gap",
        "offset": 0,
        "slot": "152",
        "type": "t_array(t_uint256)50_storage"
      },
      {
        "astId": 15146,
        "contract": "moc-main/contracts/core/MocCoreExpansion.sol:MocCoreExpansion",
        "label": "stoppable",
        "offset": 0,
        "slot": "202",
        "type": "t_bool"
      },
      {
        "astId": 15148,
        "contract": "moc-main/contracts/core/MocCoreExpansion.sol:MocCoreExpansion",
        "label": "_paused",
        "offset": 1,
        "slot": "202",
        "type": "t_bool"
      },
      {
        "astId": 15150,
        "contract": "moc-main/contracts/core/MocCoreExpansion.sol:MocCoreExpansion",
        "label": "pauser",
        "offset": 2,
        "slot": "202",
        "type": "t_address"
      },
      {
        "astId": 15322,
        "contract": "moc-main/contracts/core/MocCoreExpansion.sol:MocCoreExpansion",
        "label": "__gap",
        "offset": 0,
        "slot": "203",
        "type": "t_array(t_uint256)50_storage"
      },
      {
        "astId": 15128,
        "contract": "moc-main/contracts/core/MocCoreExpansion.sol:MocCoreExpansion",
        "label": "__gap",
        "offset": 0,
        "slot": "253",
        "type": "t_array(t_uint256)50_storage"
      },
      {
        "astId": 8114,
        "contract": "moc-main/contracts/core/MocCoreExpansion.sol:MocCoreExpansion",
        "label": "feeToken",
        "offset": 0,
        "slot": "303",
        "type": "t_contract(IERC20)5622"
      },
      {
        "astId": 8117,
        "contract": "moc-main/contracts/core/MocCoreExpansion.sol:MocCoreExpansion",
        "label": "feeTokenPriceProvider",
        "offset": 0,
        "slot": "304",
        "type": "t_contract(IPriceProvider)15402"
      },
      {
        "astId": 8119,
        "contract": "moc-main/contracts/core/MocCoreExpansion.sol:MocCoreExpansion",
        "label": "nACcb",
        "offset": 0,
        "slot": "305",
        "type": "t_uint256"
      },
      {
        "astId": 8121,
        "contract": "moc-main/contracts/core/MocCoreExpansion.sol:MocCoreExpansion",
        "label": "nACioucb",
        "offset": 0,
        "slot": "306",
        "type": "t_uint256"
      },
      {
        "astId": 8124,
        "contract": "moc-main/contracts/core/MocCoreExpansion.sol:MocCoreExpansion",
        "label": "tcToken",
        "offset": 0,
        "slot": "307",
        "type": "t_contract(MocTC)18814"
      },
      {
        "astId": 8126,
        "contract": "moc-main/contracts/core/MocCoreExpansion.sol:MocCoreExpansion",
        "label": "nTCcb",
        "offset": 0,
        "slot": "308",
        "type": "t_uint256"
      },
      {
        "astId": 8130,
        "contract": "moc-main/contracts/core/MocCoreExpansion.sol:MocCoreExpansion",
        "label": "tpTokens",
        "offset": 0,
        "slot": "309",
        "type": "t_array(t_contract(IMocRC20)15390)dyn_storage"
      },
      {
        "astId": 8135,
        "contract": "moc-main/contracts/core/MocCoreExpansion.sol:MocCoreExpansion",
        "label": "peggedTokenIndex",
        "offset": 0,
        "slot": "310",
        "type": "t_mapping(t_address,t_struct(PeggedTokenIndex)8058_storage)"
      },
      {
        "astId": 8139,
        "contract": "moc-main/contracts/core/MocCoreExpansion.sol:MocCoreExpansion",
        "label": "pegContainer",
        "offset": 0,
        "slot": "311",
        "type": "t_array(t_struct(PegContainerItem)8053_storage)dyn_storage"
      },
      {
        "astId": 8142,
        "contract": "moc-main/contracts/core/MocCoreExpansion.sol:MocCoreExpansion",
        "label": "tpLiqPrices",
        "offset": 0,
        "slot": "312",
        "type": "t_array(t_uint256)dyn_storage"
      },
      {
        "astId": 8144,
        "contract": "moc-main/contracts/core/MocCoreExpansion.sol:MocCoreExpansion",
        "label": "successFee",
        "offset": 0,
        "slot": "313",
        "type": "t_uint256"
      },
      {
        "astId": 8146,
        "contract": "moc-main/contracts/core/MocCoreExpansion.sol:MocCoreExpansion",
        "label": "appreciationFactor",
        "offset": 0,
        "slot": "314",
        "type": "t_uint256"
      },
      {
        "astId": 8148,
        "contract": "moc-main/contracts/core/MocCoreExpansion.sol:MocCoreExpansion",
        "label": "feeRetainer",
        "offset": 0,
        "slot": "315",
        "type": "t_uint256"
      },
      {
        "astId": 8150,
        "contract": "moc-main/contracts/core/MocCoreExpansion.sol:MocCoreExpansion",
        "label": "tcMintFee",
        "offset": 0,
        "slot": "316",
        "type": "t_uint256"
      },
      {
        "astId": 8152,
        "contract": "moc-main/contracts/core/MocCoreExpansion.sol:MocCoreExpansion",
        "label": "tcRedeemFee",
        "offset": 0,
        "slot": "317",
        "type": "t_uint256"
      },
      {
        "astId": 8154,
        "contract": "moc-main/contracts/core/MocCoreExpansion.sol:MocCoreExpansion",
        "label": "swapTPforTPFee",
        "offset": 0,
        "slot": "318",
        "type": "t_uint256"
      },
      {
        "astId": 8156,
        "contract": "moc-main/contracts/core/MocCoreExpansion.sol:MocCoreExpansion",
        "label": "swapTPforTCFee",
        "offset": 0,
        "slot": "319",
        "type": "t_uint256"
      },
      {
        "astId": 8158,
        "contract": "moc-main/contracts/core/MocCoreExpansion.sol:MocCoreExpansion",
        "label": "swapTCforTPFee",
        "offset": 0,
        "slot": "320",
        "type": "t_uint256"
      },
      {
        "astId": 8160,
        "contract": "moc-main/contracts/core/MocCoreExpansion.sol:MocCoreExpansion",
        "label": "redeemTCandTPFee",
        "offset": 0,
        "slot": "321",
        "type": "t_uint256"
      },
      {
        "astId": 8162,
        "contract": "moc-main/contracts/core/MocCoreExpansion.sol:MocCoreExpansion",
        "label": "mintTCandTPFee",
        "offset": 0,
        "slot": "322",
        "type": "t_uint256"
      },
      {
        "astId": 8164,
        "contract": "moc-main/contracts/core/MocCoreExpansion.sol:MocCoreExpansion",
        "label": "feeTokenPct",
        "offset": 0,
        "slot": "323",
        "type": "t_uint256"
      },
      {
        "astId": 8168,
        "contract": "moc-main/contracts/core/MocCoreExpansion.sol:MocCoreExpansion",
        "label": "tpMintFees",
        "offset": 0,
        "slot": "324",
        "type": "t_mapping(t_address,t_uint256)"
      },
      {
        "astId": 8172,
        "contract": "moc-main/contracts/core/MocCoreExpansion.sol:MocCoreExpansion",
        "label": "tpRedeemFees",
        "offset": 0,
        "slot": "325",
        "type": "t_mapping(t_address,t_uint256)"
      },
      {
        "astId": 8174,
        "contract": "moc-main/contracts/core/MocCoreExpansion.sol:MocCoreExpansion",
        "label": "mocFeeFlowAddress",
        "offset": 0,
        "slot": "326",
        "type": "t_address"
      },
      {
        "astId": 8176,
        "contract": "moc-main/contracts/core/MocCoreExpansion.sol:MocCoreExpansion",
        "label": "mocAppreciationBeneficiaryAddress",
        "offset": 0,
        "slot": "327",
        "type": "t_address"
      },
      {
        "astId": 8179,
        "contract": "moc-main/contracts/core/MocCoreExpansion.sol:MocCoreExpansion",
        "label": "tpCtarg",
        "offset": 0,
        "slot": "328",
        "type": "t_array(t_uint256)dyn_storage"
      },
      {
        "astId": 8181,
        "contract": "moc-main/contracts/core/MocCoreExpansion.sol:MocCoreExpansion",
        "label": "protThrld",
        "offset": 0,
        "slot": "329",
        "type": "t_uint256"
      },
      {
        "astId": 8183,
        "contract": "moc-main/contracts/core/MocCoreExpansion.sol:MocCoreExpansion",
        "label": "liqThrld",
        "offset": 0,
        "slot": "330",
        "type": "t_uint256"
      },
      {
        "astId": 8185,
        "contract": "moc-main/contracts/core/MocCoreExpansion.sol:MocCoreExpansion",
        "label": "liqEnabled",
        "offset": 0,
        "slot": "331",
        "type": "t_bool"
      },
      {
        "astId": 8187,
        "contract": "moc-main/contracts/core/MocCoreExpansion.sol:MocCoreExpansion",
        "label": "liquidated",
        "offset": 1,
        "slot": "331",
        "type": "t_bool"
      },
      {
        "astId": 8189,
        "contract": "moc-main/contracts/core/MocCoreExpansion.sol:MocCoreExpansion",
        "label": "bes",
        "offset": 0,
        "slot": "332",
        "type": "t_uint256"
      },
      {
        "astId": 8191,
        "contract": "moc-main/contracts/core/MocCoreExpansion.sol:MocCoreExpansion",
        "label": "bns",
        "offset": 0,
        "slot": "333",
        "type": "t_uint256"
      },
      {
        "astId": 8193,
        "contract": "moc-main/contracts/core/MocCoreExpansion.sol:MocCoreExpansion",
        "label": "qACLockedInPending",
        "offset": 0,
        "slot": "334",
        "type": "t_uint256"
      },
      {
        "astId": 8195,
        "contract": "moc-main/contracts/core/MocCoreExpansion.sol:MocCoreExpansion",
        "label": "mocQueue",
        "offset": 0,
        "slot": "335",
        "type": "t_address_payable"
      },
      {
        "astId": 8198,
        "contract": "moc-main/contracts/core/MocCoreExpansion.sol:MocCoreExpansion",
        "label": "tpiou",
        "offset": 0,
        "slot": "336",
        "type": "t_array(t_int256)dyn_storage"
      },
      {
        "astId": 8201,
        "contract": "moc-main/contracts/core/MocCoreExpansion.sol:MocCoreExpansion",
        "label": "pACtpLstop",
        "offset": 0,
        "slot": "337",
        "type": "t_array(t_uint256)dyn_storage"
      },
      {
        "astId": 8204,
        "contract": "moc-main/contracts/core/MocCoreExpansion.sol:MocCoreExpansion",
        "label": "maxAbsoluteOpProvider",
        "offset": 0,
        "slot": "338",
        "type": "t_contract(IDataProvider)15343"
      },
      {
        "astId": 8207,
        "contract": "moc-main/contracts/core/MocCoreExpansion.sol:MocCoreExpansion",
        "label": "maxOpDiffProvider",
        "offset": 0,
        "slot": "339",
        "type": "t_contract(IDataProvider)15343"
      },
      {
        "astId": 8209,
        "contract": "moc-main/contracts/core/MocCoreExpansion.sol:MocCoreExpansion",
        "label": "decayBlockSpan",
        "offset": 0,
        "slot": "340",
        "type": "t_uint256"
      },
      {
        "astId": 8211,
        "contract": "moc-main/contracts/core/MocCoreExpansion.sol:MocCoreExpansion",
        "label": "absoluteAccumulator",
        "offset": 0,
        "slot": "341",
        "type": "t_uint256"
      },
      {
        "astId": 8213,
        "contract": "moc-main/contracts/core/MocCoreExpansion.sol:MocCoreExpansion",
        "label": "differentialAccumulator",
        "offset": 0,
        "slot": "342",
        "type": "t_int256"
      },
      {
        "astId": 8215,
        "contract": "moc-main/contracts/core/MocCoreExpansion.sol:MocCoreExpansion",
        "label": "lastOperationBlockNumber",
        "offset": 0,
        "slot": "343",
        "type": "t_uint256"
      },
      {
        "astId": 8217,
        "contract": "moc-main/contracts/core/MocCoreExpansion.sol:MocCoreExpansion",
        "label": "tcInterestCollectorAddress",
        "offset": 0,
        "slot": "344",
        "type": "t_address"
      },
      {
        "astId": 8219,
        "contract": "moc-main/contracts/core/MocCoreExpansion.sol:MocCoreExpansion",
        "label": "tcInterestRate",
        "offset": 0,
        "slot": "345",
        "type": "t_uint256"
      },
      {
        "astId": 8221,
        "contract": "moc-main/contracts/core/MocCoreExpansion.sol:MocCoreExpansion",
        "label": "tcInterestPaymentBlockSpan",
        "offset": 0,
        "slot": "346",
        "type": "t_uint256"
      },
      {
        "astId": 8223,
        "contract": "moc-main/contracts/core/MocCoreExpansion.sol:MocCoreExpansion",
        "label": "nextTCInterestPayment",
        "offset": 0,
        "slot": "347",
        "type": "t_uint256"
      },
      {
        "astId": 9836,
        "contract": "moc-main/contracts/core/MocCoreExpansion.sol:MocCoreExpansion",
        "label": "__gap",
        "offset": 0,
        "slot": "348",
        "type": "t_array(t_uint256)50_storage"
      },
      {
        "astId": 13618,
        "contract": "moc-main/contracts/core/MocCoreExpansion.sol:MocCoreExpansion",
        "label": "tpEma",
        "offset": 0,
        "slot": "398",
        "type": "t_array(t_struct(EmaItem)13614_storage)dyn_storage"
      },
      {
        "astId": 13620,
        "contract": "moc-main/contracts/core/MocCoreExpansion.sol:MocCoreExpansion",
        "label": "nextEmaCalculation",
        "offset": 0,
        "slot": "399",
        "type": "t_uint256"
      },
      {
        "astId": 13622,
        "contract": "moc-main/contracts/core/MocCoreExpansion.sol:MocCoreExpansion",
        "label": "emaCalculationBlockSpan",
        "offset": 0,
        "slot": "400",
        "type": "t_uint256"
      },
      {
        "astId": 13994,
        "contract": "moc-main/contracts/core/MocCoreExpansion.sol:MocCoreExpansion",
        "label": "__gap",
        "offset": 0,
        "slot": "401",
        "type": "t_array(t_uint256)50_storage"
      },
      {
        "astId": 9870,
        "contract": "moc-main/contracts/core/MocCoreExpansion.sol:MocCoreExpansion",
        "label": "mocVendors",
        "offset": 0,
        "slot": "451",
        "type": "t_contract(MocVendors)19119"
      },
      {
        "astId": 10743,
        "contract": "moc-main/contracts/core/MocCoreExpansion.sol:MocCoreExpansion",
        "label": "__gap",
        "offset": 0,
        "slot": "452",
        "type": "t_array(t_uint256)50_storage"
      }
    ],
    "types": {
      "t_address": {
        "encoding": "inplace",
        "label": "address",
        "numberOfBytes": "20"
      },
      "t_address_payable": {
        "encoding": "inplace",
        "label": "address payable",
        "numberOfBytes": "20"
      },
      "t_array(t_contract(IMocRC20)15390)dyn_storage": {
        "base": "t_contract(IMocRC20)15390",
        "encoding": "dynamic_array",
        "label": "contract IMocRC20[]",
        "numberOfBytes": "32"
      },
      "t_array(t_int256)dyn_storage": {
        "base": "t_int256",
        "encoding": "dynamic_array",
        "label": "int256[]",
        "numberOfBytes": "32"
      },
      "t_array(t_struct(EmaItem)13614_storage)dyn_storage": {
        "base": "t_struct(EmaItem)13614_storage",
        "encoding": "dynamic_array",
        "label": "struct MocEma.EmaItem[]",
        "numberOfBytes": "32"
      },
      "t_array(t_struct(PegContainerItem)8053_storage)dyn_storage": {
        "base": "t_struct(PegContainerItem)8053_storage",
        "encoding": "dynamic_array",
        "label": "struct MocBaseBucket.PegContainerItem[]",
        "numberOfBytes": "32"
      },
      "t_array(t_uint256)50_storage": {
        "base": "t_uint256",
        "encoding": "inplace",
        "label": "uint256[50]",
        "numberOfBytes": "1600"
      },
      "t_array(t_uint256)dyn_storage": {
        "base": "t_uint256",
        "encoding": "dynamic_array",
        "label": "uint256[]",
        "numberOfBytes": "32"
      },
      "t_bool": {
        "encoding": "inplace",
        "label": "bool",
        "numberOfBytes": "1"
      },
      "t_contract(IDataProvider)15343": {
        "encoding": "inplace",
        "label": "contract IDataProvider",
        "numberOfBytes": "20"
      },
      "t_contract(IERC20)5622": {
        "encoding": "inplace",
        "label": "contract IERC20",
        "numberOfBytes": "20"
      },
      "t_contract(IGovernor)15364": {
        "encoding": "inplace",
        "label": "contract IGovernor",
        "numberOfBytes": "20"
      },
      "t_contract(IMocRC20)15390": {
        "encoding": "inplace",
        "label": "contract IMocRC20",
        "numberOfBytes": "20"
      },
      "t_contract(IPriceProvider)15402": {
        "encoding": "inplace",
        "label": "contract IPriceProvider",
        "numberOfBytes": "20"
      },
      "t_contract(MocTC)18814": {
        "encoding": "inplace",
        "label": "contract MocTC",
        "numberOfBytes": "20"
      },
      "t_contract(MocVendors)19119": {
        "encoding": "inplace",
        "label": "contract MocVendors",
        "numberOfBytes": "20"
      },
      "t_int256": {
        "encoding": "inplace",
        "label": "int256",
        "numberOfBytes": "32"
      },
      "t_mapping(t_address,t_struct(PeggedTokenIndex)8058_storage)": {
        "encoding": "mapping",
        "key": "t_address",
        "label": "mapping(address => struct MocBaseBucket.PeggedTokenIndex)",
        "numberOfBytes": "32",
        "value": "t_struct(PeggedTokenIndex)8058_storage"
      },
      "t_mapping(t_address,t_uint256)": {
        "encoding": "mapping",
        "key": "t_address",
        "label": "mapping(address => uint256)",
        "numberOfBytes": "32",
        "value": "t_uint256"
      },
      "t_struct(EmaItem)13614_storage": {
        "encoding": "inplace",
        "label": "struct MocEma.EmaItem",
        "members": [
          {
            "astId": 13611,
            "contract": "moc-main/contracts/core/MocCoreExpansion.sol:MocCoreExpansion",
            "label": "ema",
            "offset": 0,
            "slot": "0",
            "type": "t_uint256"
          },
          {
            "astId": 13613,
            "contract": "moc-main/contracts/core/MocCoreExpansion.sol:MocCoreExpansion",
            "label": "sf",
            "offset": 0,
            "slot": "1",
            "type": "t_uint256"
          }
        ],
        "numberOfBytes": "64"
      },
      "t_struct(PegContainerItem)8053_storage": {
        "encoding": "inplace",
        "label": "struct MocBaseBucket.PegContainerItem",
        "members": [
          {
            "astId": 8049,
            "contract": "moc-main/contracts/core/MocCoreExpansion.sol:MocCoreExpansion",
            "label": "nTP",
            "offset": 0,
            "slot": "0",
            "type": "t_uint256"
          },
          {
            "astId": 8052,
            "contract": "moc-main/contracts/core/MocCoreExpansion.sol:MocCoreExpansion",
            "label": "priceProvider",
            "offset": 0,
            "slot": "1",
            "type": "t_contract(IPriceProvider)15402"
          }
        ],
        "numberOfBytes": "64"
      },
      "t_struct(PeggedTokenIndex)8058_storage": {
        "encoding": "inplace",
        "label": "struct MocBaseBucket.PeggedTokenIndex",
        "members": [
          {
            "astId": 8055,
            "contract": "moc-main/contracts/core/MocCoreExpansion.sol:MocCoreExpansion",
            "label": "index",
            "offset": 0,
            "slot": "0",
            "type": "t_uint256"
          },
          {
            "astId": 8057,
            "contract": "moc-main/contracts/core/MocCoreExpansion.sol:MocCoreExpansion",
            "label": "exists",
            "offset": 0,
            "slot": "1",
            "type": "t_bool"
          }
        ],
        "numberOfBytes": "64"
      },
      "t_uint256": {
        "encoding": "inplace",
        "label": "uint256",
        "numberOfBytes": "32"
      },
      "t_uint8": {
        "encoding": "inplace",
        "label": "uint8",
        "numberOfBytes": "1"
      }
    }
  }
}