{
  "address": "0xeFAA7580FC58b44F92839d2aFc9d010c67C0Bc0e",
  "abi": [
    {
      "inputs": [
        {
          "internalType": "contract IMocCARC20",
          "name": "mocCoreProxy_",
          "type": "address"
        },
        {
          "internalType": "address",
          "name": "newMocQueueImpl_",
          "type": "address"
        },
        {
          "internalType": "contract IDataProvider",
          "name": "feeTokenPriceProvider_",
          "type": "address"
        },
        {
          "internalType": "address",
          "name": "feesSplitterProxy_",
          "type": "address"
        }
      ],
      "stateMutability": "nonpayable",
      "type": "constructor"
    },
    {
      "inputs": [],
      "name": "execute",
      "outputs": [],
      "stateMutability": "nonpayable",
      "type": "function"
    },
    {
      "inputs": [],
      "name": "feeTokenPriceProvider",
      "outputs": [
        {
          "internalType": "contract IDataProvider",
          "name": "",
          "type": "address"
        }
      ],
      "stateMutability": "view",
      "type": "function"
    },
    {
      "inputs": [],
      "name": "feesSplitterProxy",
      "outputs": [
        {
          "internalType": "address",
          "name": "",
          "type": "address"
        }
      ],
      "stateMutability": "view",
      "type": "function"
    },
    {
      "inputs": [],
      "name": "mocCoreProxy",
      "outputs": [
        {
          "internalType": "contract IMocCARC20",
          "name": "",
          "type": "address"
        }
      ],
      "stateMutability": "view",
      "type": "function"
    },
    {
      "inputs": [],
      "name": "mocQueueProxy",
      "outputs": [
        {
          "internalType": "contract IMocQueue",
          "name": "",
          "type": "address"
        }
      ],
      "stateMutability": "view",
      "type": "function"
    },
    {
      "inputs": [],
      "name": "newMocQueueImpl",
      "outputs": [
        {
          "internalType": "address",
          "name": "",
          "type": "address"
        }
      ],
      "stateMutability": "view",
      "type": "function"
    }
  ],
  "transactionHash": "0x5f6fb112a2aed23246418027d97ca634dc53c1b2018da3a6a28339586a5e0f62",
  "args": [
    "0xa416934264515bb381E3b746f10f22D5c6f9431a",
    "0x3463C8a5Ec7237ed875A3a27434E07074A77BCFb",
    "0x8DCE78BbD4D757EF7777Be113277cf5A35283b1E",
    "0x1CE7F180A57b9B8B25EDf97cF5979C432e15FCf6"
  ],
  "numDeployments": 1,
  "solcInputHash": "2355f2acf5f069819f5a331e14fc0e75",
  "bytecode": "0x610100806040523461014d576080816105a380380380916100208285610152565b83398101031261014d5780516001600160a01b03918282169081830361014d5761004c6020820161018b565b9160408201519385851680950361014d5760049361006e60606020950161018b565b60809290925260c052600080546001600160a01b031916909517855560e0526040516313ed7ba560e01b815292839182905afa918215610141578092610102575b50501660a05260405161040390816101a082396080518181816101aa0152610323015260a0518181816101330152610366015260c05181818160e70152610172015260e05181818160a401526101e00152f35b9091506020823d8211610139575b8161011d60209383610152565b81010312610136575061012f9061018b565b38806100af565b80fd5b3d9150610110565b604051903d90823e3d90fd5b600080fd5b601f909101601f19168101906001600160401b0382119082101761017557604052565b634e487b7160e01b600052604160045260246000fd5b51906001600160a01b038216820361014d5756fe60806040818152600436101561001457600080fd5b600091823560e01c90816334b1869114610352575080633706181f1461030f57828163614619541461011657508063a9722161146100d3578063b15a2014146100905763f13f40541461006657600080fd5b3461008c578160031936011261008c57905490516001600160a01b039091168152602090f35b5080fd5b503461008c578160031936011261008c57517f00000000000000000000000000000000000000000000000000000000000000006001600160a01b03168152602090f35b503461008c578160031936011261008c57517f00000000000000000000000000000000000000000000000000000000000000006001600160a01b03168152602090f35b80833461030c578160031936011261030c576001600160a01b03907f00000000000000000000000000000000000000000000000000000000000000008216803b156102a65783906024835180978193631b2ce7f360e11b8352877f00000000000000000000000000000000000000000000000000000000000000001660048401525af18015610302576102ed575b829350817f00000000000000000000000000000000000000000000000000000000000000001691823b156102a6578151630d6ac46360e01b81527f000000000000000000000000000000000000000000000000000000000000000082166004820181905290858160248183895af180156102e3579086916102ce575b5050833b156102ca5782519063039ae9cb60e51b82526004820152848160248183885af180156102c0579085916102ab575b505416823b156102a65783926024849284519586938492630f1e5e2b60e01b845260048401525af190811561029d57506102895750f35b8161029391610395565b61029a5780f35b80fd5b513d84823e3d90fd5b505050fd5b816102b591610395565b6102a6578386610252565b83513d87823e3d90fd5b8480fd5b816102d891610395565b6102ca578487610220565b84513d88823e3d90fd5b919092816102fa91610395565b9082906101a4565b81513d85823e3d90fd5b50fd5b503461008c578160031936011261008c57517f00000000000000000000000000000000000000000000000000000000000000006001600160a01b03168152602090f35b83903461008c578160031936011261008c577f00000000000000000000000000000000000000000000000000000000000000006001600160a01b03168152602090f35b90601f8019910116810190811067ffffffffffffffff8211176103b757604052565b634e487b7160e01b600052604160045260246000fdfea264697066735822122076abae46c6efd4d8b336e4f478c3ff1fbcd4b587a75f4f59432ddd398a333dc364736f6c63430008140033",
  "devdoc": {
    "kind": "dev",
    "methods": {
      "constructor": {
        "params": {
          "feeTokenPriceProvider_": "new Fee Token price provider address",
          "feesSplitterProxy_": "new Commission splitter for both TCInterest & MoCFee collector",
          "mocCoreProxy_": "MocCore proxy contract",
          "newMocQueueImpl_": "new MocQueue implementation contract"
        }
      },
      "execute()": {
        "details": "Should be called by the governor, but this contract does not check that explicitly because it is not its responsibility in the current architecture IMPORTANT: This function should not be overridden, you should only redefine _beforeUpgrade and _afterUpgrade methods to use this template"
      }
    },
    "version": 1
  },
  "userdoc": {
    "kind": "user",
    "methods": {
      "constructor": {
        "notice": "constructor"
      },
      "execute()": {
        "notice": "Execute the changes."
      }
    },
    "version": 1
  },
  "storageLayout": {
    "storage": [
      {
        "astId": 7578,
        "contract": "contracts/changers/CommissionSplitterQueueChanger.sol:CommissionSplitterQueueChanger",
        "label": "feeTokenPriceProvider",
        "offset": 0,
        "slot": "0",
        "type": "t_contract(IDataProvider)7696"
      }
    ],
    "types": {
      "t_contract(IDataProvider)7696": {
        "encoding": "inplace",
        "label": "contract IDataProvider",
        "numberOfBytes": "20"
      }
    }
  }
}