{
  "address": "0xd50C22176E54B159D5F2ecDb8C5B0BAE4da1Dd87",
  "abi": [
    {
      "inputs": [
        {
          "internalType": "contract IMocCARC20",
          "name": "rocCoreProxy_",
          "type": "address"
        },
        {
          "internalType": "contract IMoCState",
          "name": "mocMocStateProxy_",
          "type": "address"
        },
        {
          "internalType": "contract IUpgradeDelegator",
          "name": "upgradeDelegator_",
          "type": "address"
        },
        {
          "internalType": "address",
          "name": "mocFeeTokenPriceProvider_",
          "type": "address"
        },
        {
          "internalType": "address",
          "name": "rocFeeTokenPriceProvider_",
          "type": "address"
        },
        {
          "internalType": "address",
          "name": "revAucBTC2MOCProxy_",
          "type": "address"
        },
        {
          "internalType": "address",
          "name": "revAucBTC2MOCNewImplement_",
          "type": "address"
        }
      ],
      "stateMutability": "nonpayable",
      "type": "constructor"
    },
    {
      "inputs": [],
      "name": "execute",
      "outputs": [],
      "stateMutability": "nonpayable",
      "type": "function"
    },
    {
      "inputs": [],
      "name": "mocFeeTokenPriceProvider",
      "outputs": [
        {
          "internalType": "address",
          "name": "",
          "type": "address"
        }
      ],
      "stateMutability": "view",
      "type": "function"
    },
    {
      "inputs": [],
      "name": "mocMocStateProxy",
      "outputs": [
        {
          "internalType": "contract IMoCState",
          "name": "",
          "type": "address"
        }
      ],
      "stateMutability": "view",
      "type": "function"
    },
    {
      "inputs": [],
      "name": "revAucBTC2MOCNewImplement",
      "outputs": [
        {
          "internalType": "address",
          "name": "",
          "type": "address"
        }
      ],
      "stateMutability": "view",
      "type": "function"
    },
    {
      "inputs": [],
      "name": "revAucBTC2MOCProxy",
      "outputs": [
        {
          "internalType": "address",
          "name": "",
          "type": "address"
        }
      ],
      "stateMutability": "view",
      "type": "function"
    },
    {
      "inputs": [],
      "name": "rocCoreProxy",
      "outputs": [
        {
          "internalType": "contract IMocCARC20",
          "name": "",
          "type": "address"
        }
      ],
      "stateMutability": "view",
      "type": "function"
    },
    {
      "inputs": [],
      "name": "rocFeeTokenPriceProvider",
      "outputs": [
        {
          "internalType": "address",
          "name": "",
          "type": "address"
        }
      ],
      "stateMutability": "view",
      "type": "function"
    },
    {
      "inputs": [],
      "name": "upgradeDelegator",
      "outputs": [
        {
          "internalType": "contract IUpgradeDelegator",
          "name": "",
          "type": "address"
        }
      ],
      "stateMutability": "view",
      "type": "function"
    }
  ],
  "transactionHash": "0x357713c5b81772f2df81589df16bc4dfa7088a8c18fe898e0e69faa2c988c85c",
  "args": [
    "0xa416934264515bb381E3b746f10f22D5c6f9431a",
    "0x0adb40132cB0ffcEf6ED81c26A1881e214100555",
    "0xa12a9A492eFEBf4E43B174A57886286dA5057B8D",
    "0x8DCE78BbD4D757EF7777Be113277cf5A35283b1E",
    "0x4F9724e78e7Cd521c879b6B9eE7D5b4e7df3cfbC",
    "0xb908E56e1f386d6F955569a687d5286F7e49A90F",
    "0xc2d83b071aC905c0083a4Be4547631Cf197Bcc28"
  ],
  "numDeployments": 1,
  "solcInputHash": "afe7e7ddbc6fc4974b034baad632e091",
  "bytecode": "0x6101203461012f57601f6105c538819003918201601f19168301916001600160401b038311848410176101345780849260e09460405283398101031261012f578051906001600160a01b03808316830361012f57602082015190808216820361012f57604083015191818316830361012f5761007d6060850161014a565b9261008a6080860161014a565b916100a360c061009c60a0890161014a565b970161014a565b9660805260a05260c0528160018060a01b031993168360005416176000551690600154161760015560e052610100908152604051610466918261015f833960805182818161014001526102c9015260a05182818160ba015261026e015260c0518281816101cf01526103c9015260e05182818160fd015261020e01525181818161018301526102360152f35b600080fd5b634e487b7160e01b600052604160045260246000fd5b51906001600160a01b038216820361012f5756fe60806040818152600436101561001457600080fd5b600091823560e01c90816333d2e956146103b55750806344f060641461038d5782816361461954146101b257508063615a36f71461016f5780637e00ac851461012c5780638def2334146100e9578063bf694775146100a65763f2dd01521461007c57600080fd5b346100a257816003193601126100a257905490516001600160a01b039091168152602090f35b5080fd5b50346100a257816003193601126100a257517f00000000000000000000000000000000000000000000000000000000000000006001600160a01b03168152602090f35b50346100a257816003193601126100a257517f00000000000000000000000000000000000000000000000000000000000000006001600160a01b03168152602090f35b50346100a257816003193601126100a257517f00000000000000000000000000000000000000000000000000000000000000006001600160a01b03168152602090f35b50346100a257816003193601126100a257517f00000000000000000000000000000000000000000000000000000000000000006001600160a01b03168152602090f35b80833461038a578160031936011261038a576001600160a01b03907f00000000000000000000000000000000000000000000000000000000000000008216803b1561033f578390604483518097819363266a23b160e21b8352877f0000000000000000000000000000000000000000000000000000000000000000166004840152877f00000000000000000000000000000000000000000000000000000000000000001660248401525af180156103805761036b575b829350817f00000000000000000000000000000000000000000000000000000000000000001682845416813b15610367578491602483928551948593849262aeeb1160e61b845260048401525af1801561035d57908491610344575b5050817f0000000000000000000000000000000000000000000000000000000000000000169160015416823b1561033f5783926024849284519586938492630f1e5e2b60e01b845260048401525af190811561033657506103225750f35b8161032c916103f8565b6103335780f35b80fd5b513d84823e3d90fd5b505050fd5b8161034e916103f8565b6103595782856102c4565b5050fd5b82513d86823e3d90fd5b8480fd5b91909281610378916103f8565b908290610268565b81513d85823e3d90fd5b50fd5b50346100a257816003193601126100a25760015490516001600160a01b039091168152602090f35b8390346100a257816003193601126100a2577f00000000000000000000000000000000000000000000000000000000000000006001600160a01b03168152602090f35b90601f8019910116810190811067ffffffffffffffff82111761041a57604052565b634e487b7160e01b600052604160045260246000fdfea26469706673582212204a4c68cb600ec345fb17a8a325540514dceca74f1528d58f44df58701be1f49264736f6c63430008140033",
  "devdoc": {
    "kind": "dev",
    "methods": {
      "constructor": {
        "params": {
          "mocFeeTokenPriceProvider_": "new Fee Token Price Provider address for MOC/USD",
          "mocMocStateProxy_": "MoCState proxy contract MOC V1",
          "revAucBTC2MOCNewImplement_": "Implementation of the RevAuction BTC2MOC",
          "revAucBTC2MOCProxy_": "Proxy of the RevAuction BTC2MOC",
          "rocCoreProxy_": "RoC Core proxy contract ROC V2",
          "rocFeeTokenPriceProvider_": "new Fee Token Price Provider address for MOC/RIF",
          "upgradeDelegator_": "Upgrade Delegator for OMOC"
        }
      },
      "execute()": {
        "details": "Should be called by the governor, but this contract does not check that explicitly because it is not its responsibility in the current architecture IMPORTANT: This function should not be overridden, you should only redefine _beforeUpgrade and _afterUpgrade methods to use this template"
      }
    },
    "version": 1
  },
  "userdoc": {
    "kind": "user",
    "methods": {
      "constructor": {
        "notice": "constructor"
      },
      "execute()": {
        "notice": "Execute the changes."
      }
    },
    "version": 1
  },
  "storageLayout": {
    "storage": [
      {
        "astId": 7569,
        "contract": "contracts/changers/FixReverseAuctionProposal.sol:FixReverseAuctionProposal",
        "label": "mocFeeTokenPriceProvider",
        "offset": 0,
        "slot": "0",
        "type": "t_address"
      },
      {
        "astId": 7571,
        "contract": "contracts/changers/FixReverseAuctionProposal.sol:FixReverseAuctionProposal",
        "label": "rocFeeTokenPriceProvider",
        "offset": 0,
        "slot": "1",
        "type": "t_address"
      }
    ],
    "types": {
      "t_address": {
        "encoding": "inplace",
        "label": "address",
        "numberOfBytes": "20"
      }
    }
  }
}