{
  "address": "0x796A8779f03816d08120e735f773F6113733c0e4",
  "abi": [
    {
      "inputs": [
        {
          "internalType": "contract IChangeContract",
          "name": "changeContract",
          "type": "address"
        }
      ],
      "name": "executeChange",
      "outputs": [],
      "stateMutability": "nonpayable",
      "type": "function"
    },
    {
      "inputs": [],
      "name": "isAuthorized",
      "outputs": [
        {
          "internalType": "bool",
          "name": "",
          "type": "bool"
        }
      ],
      "stateMutability": "view",
      "type": "function"
    },
    {
      "inputs": [
        {
          "internalType": "address",
          "name": "",
          "type": "address"
        }
      ],
      "name": "isAuthorizedChanger",
      "outputs": [
        {
          "internalType": "bool",
          "name": "",
          "type": "bool"
        }
      ],
      "stateMutability": "view",
      "type": "function"
    },
    {
      "inputs": [
        {
          "internalType": "bool",
          "name": "isAuthorized_",
          "type": "bool"
        }
      ],
      "name": "setIsAuthorized",
      "outputs": [],
      "stateMutability": "nonpayable",
      "type": "function"
    }
  ],
  "transactionHash": "0x46b65b56e01112e2c05f2e7a4c92412bfbeded884c6eb34b7fc31472715aa6ba",
  "args": [],
  "numDeployments": 1,
  "bytecode": "0x6080806040523461002357600160ff19600054161760005561019a90816100298239f35b600080fdfe60808060405260048036101561001457600080fd5b600091823560e01c90816357e6c2f41461014557508281638c777e82146100b5575080639e0a8e09146100895763d994d6d51461005057600080fd5b3461008557602036600319011261008557356001600160a01b038116036100825760ff60209154166040519015158152f35b80fd5b5080fd5b503461008557602036600319011261008557358015158091036100855760ff8019835416911617815580f35b8083346101425760203660031901126101425780356001600160a01b0381169081900361013e57803b1561013e5782908260405180958193631851865560e21b83525af1801561013357610107578280f35b67ffffffffffffffff8211610120575060405281808280f35b634e487b7160e01b835260419052602482fd5b6040513d85823e3d90fd5b5050fd5b50fd5b83903461008557816003193601126100855760ff602092541615158152f3fea2646970667358221220db32608f1f6cb45e0039ab366ec4b054a5b78ac7e186da44aee701495bd22f2064736f6c63430008140033",
  "devdoc": {
    "details": "Test only contract to mock Governor behavior ",
    "kind": "dev",
    "methods": {
      "executeChange(address)": {
        "params": {
          "changeContract": "Address of the contract that will execute the changes"
        }
      }
    },
    "title": "GovernorMock",
    "version": 1
  },
  "userdoc": {
    "kind": "user",
    "methods": {
      "executeChange(address)": {
        "notice": "Function to be called to make the changes in changeContract"
      }
    },
    "version": 1
  },
  "storageLayout": {
    "storage": [
      {
        "astId": 26497,
        "contract": "contracts/mocks/upgradeability/GovernorMock.sol:GovernorMock",
        "label": "isAuthorized",
        "offset": 0,
        "slot": "0",
        "type": "t_bool"
      }
    ],
    "types": {
      "t_bool": {
        "encoding": "inplace",
        "label": "bool",
        "numberOfBytes": "1"
      }
    }
  }
}