{
  "address": "0xD2556AA3Ab308706aC649A9419b3f5E17F2fb0c3",
  "abi": [
    {
      "inputs": [],
      "stateMutability": "nonpayable",
      "type": "constructor"
    },
    {
      "inputs": [
        {
          "internalType": "uint256",
          "name": "qACsent_",
          "type": "uint256"
        },
        {
          "internalType": "uint256",
          "name": "qACNeeded_",
          "type": "uint256"
        }
      ],
      "name": "InsufficientQacSent",
      "type": "error"
    },
    {
      "inputs": [
        {
          "internalType": "uint256",
          "name": "qTPsent_",
          "type": "uint256"
        },
        {
          "internalType": "uint256",
          "name": "qTPNeeded_",
          "type": "uint256"
        }
      ],
      "name": "InsufficientQtpSent",
      "type": "error"
    },
    {
      "inputs": [
        {
          "internalType": "uint256",
          "name": "qTC_",
          "type": "uint256"
        },
        {
          "internalType": "uint256",
          "name": "tcAvailableToRedeem_",
          "type": "uint256"
        }
      ],
      "name": "InsufficientTCtoRedeem",
      "type": "error"
    },
    {
      "inputs": [
        {
          "internalType": "uint256",
          "name": "qTP_",
          "type": "uint256"
        },
        {
          "internalType": "uint256",
          "name": "tpAvailableToMint_",
          "type": "uint256"
        }
      ],
      "name": "InsufficientTPtoMint",
      "type": "error"
    },
    {
      "inputs": [
        {
          "internalType": "uint256",
          "name": "qTP_",
          "type": "uint256"
        },
        {
          "internalType": "uint256",
          "name": "tpAvailableToRedeem_",
          "type": "uint256"
        }
      ],
      "name": "InsufficientTPtoRedeem",
      "type": "error"
    },
    {
      "inputs": [],
      "name": "InvalidAddress",
      "type": "error"
    },
    {
      "inputs": [
        {
          "internalType": "address",
          "name": "priceProviderAddress_",
          "type": "address"
        }
      ],
      "name": "InvalidPriceProvider",
      "type": "error"
    },
    {
      "inputs": [],
      "name": "InvalidValue",
      "type": "error"
    },
    {
      "inputs": [],
      "name": "Liquidated",
      "type": "error"
    },
    {
      "inputs": [
        {
          "internalType": "uint256",
          "name": "cglb_",
          "type": "uint256"
        },
        {
          "internalType": "uint256",
          "name": "covThrld_",
          "type": "uint256"
        }
      ],
      "name": "LowCoverage",
      "type": "error"
    },
    {
      "inputs": [],
      "name": "NotAuthorizedChanger",
      "type": "error"
    },
    {
      "inputs": [],
      "name": "NotWhenPaused",
      "type": "error"
    },
    {
      "inputs": [],
      "name": "OnlyPauser",
      "type": "error"
    },
    {
      "inputs": [],
      "name": "OnlySettlement",
      "type": "error"
    },
    {
      "inputs": [],
      "name": "OnlyWhenLiquidated",
      "type": "error"
    },
    {
      "inputs": [],
      "name": "OnlyWhilePaused",
      "type": "error"
    },
    {
      "inputs": [],
      "name": "PeggedTokenAlreadyAdded",
      "type": "error"
    },
    {
      "inputs": [
        {
          "internalType": "uint256",
          "name": "qACmin_",
          "type": "uint256"
        },
        {
          "internalType": "uint256",
          "name": "qACtoRedeem_",
          "type": "uint256"
        }
      ],
      "name": "QacBelowMinimumRequired",
      "type": "error"
    },
    {
      "inputs": [],
      "name": "QacNeededMustBeGreaterThanZero",
      "type": "error"
    },
    {
      "inputs": [
        {
          "internalType": "uint256",
          "name": "qTCmin_",
          "type": "uint256"
        },
        {
          "internalType": "uint256",
          "name": "qTC_",
          "type": "uint256"
        }
      ],
      "name": "QtcBelowMinimumRequired",
      "type": "error"
    },
    {
      "inputs": [
        {
          "internalType": "uint256",
          "name": "qTPmin_",
          "type": "uint256"
        },
        {
          "internalType": "uint256",
          "name": "qTP_",
          "type": "uint256"
        }
      ],
      "name": "QtpBelowMinimumRequired",
      "type": "error"
    },
    {
      "inputs": [],
      "name": "TransferFailed",
      "type": "error"
    },
    {
      "inputs": [],
      "name": "Unstoppable",
      "type": "error"
    },
    {
      "anonymous": false,
      "inputs": [
        {
          "indexed": false,
          "internalType": "address",
          "name": "previousAdmin",
          "type": "address"
        },
        {
          "indexed": false,
          "internalType": "address",
          "name": "newAdmin",
          "type": "address"
        }
      ],
      "name": "AdminChanged",
      "type": "event"
    },
    {
      "anonymous": false,
      "inputs": [
        {
          "indexed": true,
          "internalType": "address",
          "name": "beacon",
          "type": "address"
        }
      ],
      "name": "BeaconUpgraded",
      "type": "event"
    },
    {
      "anonymous": false,
      "inputs": [],
      "name": "ContractLiquidated",
      "type": "event"
    },
    {
      "anonymous": false,
      "inputs": [
        {
          "indexed": false,
          "internalType": "uint8",
          "name": "version",
          "type": "uint8"
        }
      ],
      "name": "Initialized",
      "type": "event"
    },
    {
      "anonymous": false,
      "inputs": [
        {
          "indexed": false,
          "internalType": "address",
          "name": "account",
          "type": "address"
        }
      ],
      "name": "Paused",
      "type": "event"
    },
    {
      "anonymous": false,
      "inputs": [
        {
          "indexed": true,
          "internalType": "uint256",
          "name": "i_",
          "type": "uint256"
        },
        {
          "components": [
            {
              "internalType": "address",
              "name": "tpTokenAddress",
              "type": "address"
            },
            {
              "internalType": "address",
              "name": "priceProviderAddress",
              "type": "address"
            },
            {
              "internalType": "uint256",
              "name": "tpCtarg",
              "type": "uint256"
            },
            {
              "internalType": "uint256",
              "name": "tpMintFee",
              "type": "uint256"
            },
            {
              "internalType": "uint256",
              "name": "tpRedeemFee",
              "type": "uint256"
            },
            {
              "internalType": "uint256",
              "name": "tpEma",
              "type": "uint256"
            },
            {
              "internalType": "uint256",
              "name": "tpEmaSf",
              "type": "uint256"
            }
          ],
          "indexed": false,
          "internalType": "struct MocCore.PeggedTokenParams",
          "name": "peggedTokenParams_",
          "type": "tuple"
        }
      ],
      "name": "PeggedTokenChange",
      "type": "event"
    },
    {
      "anonymous": false,
      "inputs": [],
      "name": "SettlementExecuted",
      "type": "event"
    },
    {
      "anonymous": false,
      "inputs": [
        {
          "indexed": false,
          "internalType": "uint256",
          "name": "mocGain_",
          "type": "uint256"
        },
        {
          "indexed": false,
          "internalType": "uint256[]",
          "name": "tpGain_",
          "type": "uint256[]"
        }
      ],
      "name": "SuccessFeeDistributed",
      "type": "event"
    },
    {
      "anonymous": false,
      "inputs": [
        {
          "indexed": true,
          "internalType": "address",
          "name": "sender_",
          "type": "address"
        },
        {
          "indexed": true,
          "internalType": "address",
          "name": "recipient_",
          "type": "address"
        },
        {
          "indexed": false,
          "internalType": "uint256",
          "name": "qTC_",
          "type": "uint256"
        },
        {
          "indexed": false,
          "internalType": "uint256",
          "name": "qAC_",
          "type": "uint256"
        },
        {
          "indexed": false,
          "internalType": "uint256",
          "name": "qACfee_",
          "type": "uint256"
        }
      ],
      "name": "TCMinted",
      "type": "event"
    },
    {
      "anonymous": false,
      "inputs": [
        {
          "indexed": true,
          "internalType": "address",
          "name": "sender_",
          "type": "address"
        },
        {
          "indexed": true,
          "internalType": "address",
          "name": "recipient_",
          "type": "address"
        },
        {
          "indexed": false,
          "internalType": "uint256",
          "name": "qTC_",
          "type": "uint256"
        },
        {
          "indexed": false,
          "internalType": "uint256",
          "name": "qAC_",
          "type": "uint256"
        },
        {
          "indexed": false,
          "internalType": "uint256",
          "name": "qACfee_",
          "type": "uint256"
        }
      ],
      "name": "TCRedeemed",
      "type": "event"
    },
    {
      "anonymous": false,
      "inputs": [
        {
          "indexed": true,
          "internalType": "uint256",
          "name": "i_",
          "type": "uint256"
        },
        {
          "indexed": true,
          "internalType": "address",
          "name": "sender_",
          "type": "address"
        },
        {
          "indexed": true,
          "internalType": "address",
          "name": "recipient_",
          "type": "address"
        },
        {
          "indexed": false,
          "internalType": "uint256",
          "name": "qTC_",
          "type": "uint256"
        },
        {
          "indexed": false,
          "internalType": "uint256",
          "name": "qTP_",
          "type": "uint256"
        },
        {
          "indexed": false,
          "internalType": "uint256",
          "name": "qACfee_",
          "type": "uint256"
        }
      ],
      "name": "TCSwappedForTP",
      "type": "event"
    },
    {
      "anonymous": false,
      "inputs": [
        {
          "indexed": true,
          "internalType": "uint256",
          "name": "i_",
          "type": "uint256"
        },
        {
          "indexed": true,
          "internalType": "address",
          "name": "sender_",
          "type": "address"
        },
        {
          "indexed": true,
          "internalType": "address",
          "name": "recipient_",
          "type": "address"
        },
        {
          "indexed": false,
          "internalType": "uint256",
          "name": "qTC_",
          "type": "uint256"
        },
        {
          "indexed": false,
          "internalType": "uint256",
          "name": "qTP_",
          "type": "uint256"
        },
        {
          "indexed": false,
          "internalType": "uint256",
          "name": "qAC_",
          "type": "uint256"
        },
        {
          "indexed": false,
          "internalType": "uint256",
          "name": "qACfee_",
          "type": "uint256"
        }
      ],
      "name": "TCandTPMinted",
      "type": "event"
    },
    {
      "anonymous": false,
      "inputs": [
        {
          "indexed": true,
          "internalType": "uint256",
          "name": "i_",
          "type": "uint256"
        },
        {
          "indexed": true,
          "internalType": "address",
          "name": "sender_",
          "type": "address"
        },
        {
          "indexed": true,
          "internalType": "address",
          "name": "recipient_",
          "type": "address"
        },
        {
          "indexed": false,
          "internalType": "uint256",
          "name": "qTC_",
          "type": "uint256"
        },
        {
          "indexed": false,
          "internalType": "uint256",
          "name": "qTP_",
          "type": "uint256"
        },
        {
          "indexed": false,
          "internalType": "uint256",
          "name": "qAC_",
          "type": "uint256"
        },
        {
          "indexed": false,
          "internalType": "uint256",
          "name": "qACfee_",
          "type": "uint256"
        }
      ],
      "name": "TCandTPRedeemed",
      "type": "event"
    },
    {
      "anonymous": false,
      "inputs": [
        {
          "indexed": true,
          "internalType": "uint256",
          "name": "i_",
          "type": "uint256"
        },
        {
          "indexed": true,
          "internalType": "address",
          "name": "sender_",
          "type": "address"
        },
        {
          "indexed": true,
          "internalType": "address",
          "name": "recipient_",
          "type": "address"
        },
        {
          "indexed": false,
          "internalType": "uint256",
          "name": "qTP_",
          "type": "uint256"
        },
        {
          "indexed": false,
          "internalType": "uint256",
          "name": "qAC_",
          "type": "uint256"
        },
        {
          "indexed": false,
          "internalType": "uint256",
          "name": "qACfee_",
          "type": "uint256"
        }
      ],
      "name": "TPMinted",
      "type": "event"
    },
    {
      "anonymous": false,
      "inputs": [
        {
          "indexed": true,
          "internalType": "uint256",
          "name": "i_",
          "type": "uint256"
        },
        {
          "indexed": true,
          "internalType": "address",
          "name": "sender_",
          "type": "address"
        },
        {
          "indexed": true,
          "internalType": "address",
          "name": "recipient_",
          "type": "address"
        },
        {
          "indexed": false,
          "internalType": "uint256",
          "name": "qTP_",
          "type": "uint256"
        },
        {
          "indexed": false,
          "internalType": "uint256",
          "name": "qAC_",
          "type": "uint256"
        },
        {
          "indexed": false,
          "internalType": "uint256",
          "name": "qACfee_",
          "type": "uint256"
        }
      ],
      "name": "TPRedeemed",
      "type": "event"
    },
    {
      "anonymous": false,
      "inputs": [
        {
          "indexed": true,
          "internalType": "uint256",
          "name": "i_",
          "type": "uint256"
        },
        {
          "indexed": true,
          "internalType": "address",
          "name": "sender_",
          "type": "address"
        },
        {
          "indexed": true,
          "internalType": "address",
          "name": "recipient_",
          "type": "address"
        },
        {
          "indexed": false,
          "internalType": "uint256",
          "name": "qTP_",
          "type": "uint256"
        },
        {
          "indexed": false,
          "internalType": "uint256",
          "name": "qTC_",
          "type": "uint256"
        },
        {
          "indexed": false,
          "internalType": "uint256",
          "name": "qACfee_",
          "type": "uint256"
        }
      ],
      "name": "TPSwappedForTC",
      "type": "event"
    },
    {
      "anonymous": false,
      "inputs": [
        {
          "indexed": true,
          "internalType": "uint256",
          "name": "iFrom_",
          "type": "uint256"
        },
        {
          "indexed": false,
          "internalType": "uint256",
          "name": "iTo_",
          "type": "uint256"
        },
        {
          "indexed": true,
          "internalType": "address",
          "name": "sender_",
          "type": "address"
        },
        {
          "indexed": true,
          "internalType": "address",
          "name": "recipient_",
          "type": "address"
        },
        {
          "indexed": false,
          "internalType": "uint256",
          "name": "qTPfrom_",
          "type": "uint256"
        },
        {
          "indexed": false,
          "internalType": "uint256",
          "name": "qTPto_",
          "type": "uint256"
        },
        {
          "indexed": false,
          "internalType": "uint256",
          "name": "qACfee_",
          "type": "uint256"
        }
      ],
      "name": "TPSwappedForTP",
      "type": "event"
    },
    {
      "anonymous": false,
      "inputs": [
        {
          "indexed": true,
          "internalType": "uint256",
          "name": "i_",
          "type": "uint256"
        },
        {
          "indexed": false,
          "internalType": "uint256",
          "name": "oldTPema_",
          "type": "uint256"
        },
        {
          "indexed": false,
          "internalType": "uint256",
          "name": "newTPema_",
          "type": "uint256"
        }
      ],
      "name": "TPemaUpdated",
      "type": "event"
    },
    {
      "anonymous": false,
      "inputs": [
        {
          "indexed": false,
          "internalType": "address",
          "name": "account",
          "type": "address"
        }
      ],
      "name": "Unpaused",
      "type": "event"
    },
    {
      "anonymous": false,
      "inputs": [
        {
          "indexed": true,
          "internalType": "address",
          "name": "implementation",
          "type": "address"
        }
      ],
      "name": "Upgraded",
      "type": "event"
    },
    {
      "inputs": [
        {
          "components": [
            {
              "internalType": "address",
              "name": "tpTokenAddress",
              "type": "address"
            },
            {
              "internalType": "address",
              "name": "priceProviderAddress",
              "type": "address"
            },
            {
              "internalType": "uint256",
              "name": "tpCtarg",
              "type": "uint256"
            },
            {
              "internalType": "uint256",
              "name": "tpMintFee",
              "type": "uint256"
            },
            {
              "internalType": "uint256",
              "name": "tpRedeemFee",
              "type": "uint256"
            },
            {
              "internalType": "uint256",
              "name": "tpEma",
              "type": "uint256"
            },
            {
              "internalType": "uint256",
              "name": "tpEmaSf",
              "type": "uint256"
            }
          ],
          "internalType": "struct MocCore.PeggedTokenParams",
          "name": "peggedTokenParams_",
          "type": "tuple"
        }
      ],
      "name": "addPeggedToken",
      "outputs": [],
      "stateMutability": "nonpayable",
      "type": "function"
    },
    {
      "inputs": [],
      "name": "appreciationFactor",
      "outputs": [
        {
          "internalType": "uint256",
          "name": "",
          "type": "uint256"
        }
      ],
      "stateMutability": "view",
      "type": "function"
    },
    {
      "inputs": [],
      "name": "bes",
      "outputs": [
        {
          "internalType": "uint256",
          "name": "",
          "type": "uint256"
        }
      ],
      "stateMutability": "view",
      "type": "function"
    },
    {
      "inputs": [],
      "name": "bns",
      "outputs": [
        {
          "internalType": "uint256",
          "name": "",
          "type": "uint256"
        }
      ],
      "stateMutability": "view",
      "type": "function"
    },
    {
      "inputs": [],
      "name": "calcCtargemaCA",
      "outputs": [
        {
          "internalType": "uint256",
          "name": "ctargemaCA",
          "type": "uint256"
        }
      ],
      "stateMutability": "view",
      "type": "function"
    },
    {
      "inputs": [
        {
          "internalType": "contract IGovernor",
          "name": "newGovernor_",
          "type": "address"
        }
      ],
      "name": "changeGovernor",
      "outputs": [],
      "stateMutability": "nonpayable",
      "type": "function"
    },
    {
      "inputs": [
        {
          "components": [
            {
              "internalType": "address",
              "name": "tpTokenAddress",
              "type": "address"
            },
            {
              "internalType": "address",
              "name": "priceProviderAddress",
              "type": "address"
            },
            {
              "internalType": "uint256",
              "name": "tpCtarg",
              "type": "uint256"
            },
            {
              "internalType": "uint256",
              "name": "tpMintFee",
              "type": "uint256"
            },
            {
              "internalType": "uint256",
              "name": "tpRedeemFee",
              "type": "uint256"
            },
            {
              "internalType": "uint256",
              "name": "tpEma",
              "type": "uint256"
            },
            {
              "internalType": "uint256",
              "name": "tpEmaSf",
              "type": "uint256"
            }
          ],
          "internalType": "struct MocCore.PeggedTokenParams",
          "name": "peggedTokenParams_",
          "type": "tuple"
        }
      ],
      "name": "editPeggedToken",
      "outputs": [],
      "stateMutability": "nonpayable",
      "type": "function"
    },
    {
      "inputs": [],
      "name": "emaCalculationBlockSpan",
      "outputs": [
        {
          "internalType": "uint256",
          "name": "",
          "type": "uint256"
        }
      ],
      "stateMutability": "view",
      "type": "function"
    },
    {
      "inputs": [],
      "name": "evalLiquidation",
      "outputs": [],
      "stateMutability": "nonpayable",
      "type": "function"
    },
    {
      "inputs": [],
      "name": "execSettlement",
      "outputs": [],
      "stateMutability": "nonpayable",
      "type": "function"
    },
    {
      "inputs": [],
      "name": "feeRetainer",
      "outputs": [
        {
          "internalType": "uint256",
          "name": "",
          "type": "uint256"
        }
      ],
      "stateMutability": "view",
      "type": "function"
    },
    {
      "inputs": [],
      "name": "getBts",
      "outputs": [
        {
          "internalType": "uint256",
          "name": "",
          "type": "uint256"
        }
      ],
      "stateMutability": "view",
      "type": "function"
    },
    {
      "inputs": [],
      "name": "getCglb",
      "outputs": [
        {
          "internalType": "uint256",
          "name": "cglob",
          "type": "uint256"
        }
      ],
      "stateMutability": "view",
      "type": "function"
    },
    {
      "inputs": [],
      "name": "getLeverageTC",
      "outputs": [
        {
          "internalType": "uint256",
          "name": "leverageTC",
          "type": "uint256"
        }
      ],
      "stateMutability": "view",
      "type": "function"
    },
    {
      "inputs": [
        {
          "internalType": "uint256",
          "name": "i_",
          "type": "uint256"
        }
      ],
      "name": "getPACtp",
      "outputs": [
        {
          "internalType": "uint256",
          "name": "",
          "type": "uint256"
        }
      ],
      "stateMutability": "view",
      "type": "function"
    },
    {
      "inputs": [],
      "name": "getPTCac",
      "outputs": [
        {
          "internalType": "uint256",
          "name": "pTCac",
          "type": "uint256"
        }
      ],
      "stateMutability": "view",
      "type": "function"
    },
    {
      "inputs": [
        {
          "internalType": "uint256",
          "name": "i_",
          "type": "uint256"
        },
        {
          "internalType": "uint256",
          "name": "qTP_",
          "type": "uint256"
        }
      ],
      "name": "getQACforRedeemTP",
      "outputs": [
        {
          "internalType": "uint256",
          "name": "qACtotalToRedeem",
          "type": "uint256"
        },
        {
          "internalType": "uint256",
          "name": "qACfee",
          "type": "uint256"
        }
      ],
      "stateMutability": "view",
      "type": "function"
    },
    {
      "inputs": [],
      "name": "getTCAvailableToRedeem",
      "outputs": [
        {
          "internalType": "uint256",
          "name": "tcAvailableToRedeem",
          "type": "uint256"
        }
      ],
      "stateMutability": "view",
      "type": "function"
    },
    {
      "inputs": [
        {
          "internalType": "uint256",
          "name": "i_",
          "type": "uint256"
        }
      ],
      "name": "getTPAvailableToMint",
      "outputs": [
        {
          "internalType": "uint256",
          "name": "tpAvailableToMint",
          "type": "uint256"
        }
      ],
      "stateMutability": "view",
      "type": "function"
    },
    {
      "inputs": [],
      "name": "getTotalACavailable",
      "outputs": [
        {
          "internalType": "uint256",
          "name": "totalACavailable",
          "type": "uint256"
        }
      ],
      "stateMutability": "view",
      "type": "function"
    },
    {
      "inputs": [],
      "name": "governor",
      "outputs": [
        {
          "internalType": "contract IGovernor",
          "name": "",
          "type": "address"
        }
      ],
      "stateMutability": "view",
      "type": "function"
    },
    {
      "inputs": [
        {
          "components": [
            {
              "components": [
                {
                  "components": [
                    {
                      "internalType": "address",
                      "name": "tcTokenAddress",
                      "type": "address"
                    },
                    {
                      "internalType": "address",
                      "name": "mocFeeFlowAddress",
                      "type": "address"
                    },
                    {
                      "internalType": "address",
                      "name": "mocAppreciationBeneficiaryAddress",
                      "type": "address"
                    },
                    {
                      "internalType": "uint256",
                      "name": "protThrld",
                      "type": "uint256"
                    },
                    {
                      "internalType": "uint256",
                      "name": "liqThrld",
                      "type": "uint256"
                    },
                    {
                      "internalType": "uint256",
                      "name": "feeRetainer",
                      "type": "uint256"
                    },
                    {
                      "internalType": "uint256",
                      "name": "tcMintFee",
                      "type": "uint256"
                    },
                    {
                      "internalType": "uint256",
                      "name": "tcRedeemFee",
                      "type": "uint256"
                    },
                    {
                      "internalType": "uint256",
                      "name": "swapTPforTPFee",
                      "type": "uint256"
                    },
                    {
                      "internalType": "uint256",
                      "name": "swapTPforTCFee",
                      "type": "uint256"
                    },
                    {
                      "internalType": "uint256",
                      "name": "swapTCforTPFee",
                      "type": "uint256"
                    },
                    {
                      "internalType": "uint256",
                      "name": "redeemTCandTPFee",
                      "type": "uint256"
                    },
                    {
                      "internalType": "uint256",
                      "name": "mintTCandTPFee",
                      "type": "uint256"
                    },
                    {
                      "internalType": "uint256",
                      "name": "successFee",
                      "type": "uint256"
                    },
                    {
                      "internalType": "uint256",
                      "name": "appreciationFactor",
                      "type": "uint256"
                    }
                  ],
                  "internalType": "struct MocBaseBucket.InitializeBaseBucketParams",
                  "name": "initializeBaseBucketParams",
                  "type": "tuple"
                },
                {
                  "internalType": "address",
                  "name": "governorAddress",
                  "type": "address"
                },
                {
                  "internalType": "address",
                  "name": "pauserAddress",
                  "type": "address"
                },
                {
                  "internalType": "uint256",
                  "name": "emaCalculationBlockSpan",
                  "type": "uint256"
                },
                {
                  "internalType": "uint256",
                  "name": "bes",
                  "type": "uint256"
                }
              ],
              "internalType": "struct MocCore.InitializeCoreParams",
              "name": "initializeCoreParams",
              "type": "tuple"
            },
            {
              "internalType": "address",
              "name": "acTokenAddress",
              "type": "address"
            }
          ],
          "internalType": "struct MocCARC20.InitializeParams",
          "name": "initializeParams_",
          "type": "tuple"
        }
      ],
      "name": "initialize",
      "outputs": [],
      "stateMutability": "nonpayable",
      "type": "function"
    },
    {
      "inputs": [],
      "name": "isLiquidationReached",
      "outputs": [
        {
          "internalType": "bool",
          "name": "",
          "type": "bool"
        }
      ],
      "stateMutability": "view",
      "type": "function"
    },
    {
      "inputs": [],
      "name": "liqEnabled",
      "outputs": [
        {
          "internalType": "bool",
          "name": "",
          "type": "bool"
        }
      ],
      "stateMutability": "view",
      "type": "function"
    },
    {
      "inputs": [
        {
          "internalType": "uint256",
          "name": "i_",
          "type": "uint256"
        }
      ],
      "name": "liqRedeemTP",
      "outputs": [
        {
          "internalType": "uint256",
          "name": "qACRedeemed",
          "type": "uint256"
        }
      ],
      "stateMutability": "nonpayable",
      "type": "function"
    },
    {
      "inputs": [
        {
          "internalType": "uint256",
          "name": "i_",
          "type": "uint256"
        },
        {
          "internalType": "address",
          "name": "recipient_",
          "type": "address"
        }
      ],
      "name": "liqRedeemTPto",
      "outputs": [
        {
          "internalType": "uint256",
          "name": "qACRedeemed",
          "type": "uint256"
        }
      ],
      "stateMutability": "nonpayable",
      "type": "function"
    },
    {
      "inputs": [],
      "name": "liqThrld",
      "outputs": [
        {
          "internalType": "uint256",
          "name": "",
          "type": "uint256"
        }
      ],
      "stateMutability": "view",
      "type": "function"
    },
    {
      "inputs": [],
      "name": "liquidated",
      "outputs": [
        {
          "internalType": "bool",
          "name": "",
          "type": "bool"
        }
      ],
      "stateMutability": "view",
      "type": "function"
    },
    {
      "inputs": [],
      "name": "makeStoppable",
      "outputs": [],
      "stateMutability": "nonpayable",
      "type": "function"
    },
    {
      "inputs": [],
      "name": "makeUnstoppable",
      "outputs": [],
      "stateMutability": "nonpayable",
      "type": "function"
    },
    {
      "inputs": [
        {
          "internalType": "uint256",
          "name": "qTC_",
          "type": "uint256"
        },
        {
          "internalType": "uint256",
          "name": "qACmax_",
          "type": "uint256"
        }
      ],
      "name": "mintTC",
      "outputs": [
        {
          "internalType": "uint256",
          "name": "qACtotalNeeded",
          "type": "uint256"
        }
      ],
      "stateMutability": "nonpayable",
      "type": "function"
    },
    {
      "inputs": [
        {
          "internalType": "uint256",
          "name": "i_",
          "type": "uint256"
        },
        {
          "internalType": "uint256",
          "name": "qTP_",
          "type": "uint256"
        },
        {
          "internalType": "uint256",
          "name": "qACmax_",
          "type": "uint256"
        }
      ],
      "name": "mintTCandTP",
      "outputs": [
        {
          "internalType": "uint256",
          "name": "qACtotalNeeded",
          "type": "uint256"
        },
        {
          "internalType": "uint256",
          "name": "qTCtoMint",
          "type": "uint256"
        }
      ],
      "stateMutability": "payable",
      "type": "function"
    },
    {
      "inputs": [],
      "name": "mintTCandTPFee",
      "outputs": [
        {
          "internalType": "uint256",
          "name": "",
          "type": "uint256"
        }
      ],
      "stateMutability": "view",
      "type": "function"
    },
    {
      "inputs": [
        {
          "internalType": "uint256",
          "name": "i_",
          "type": "uint256"
        },
        {
          "internalType": "uint256",
          "name": "qTP_",
          "type": "uint256"
        },
        {
          "internalType": "uint256",
          "name": "qACmax_",
          "type": "uint256"
        },
        {
          "internalType": "address",
          "name": "recipient_",
          "type": "address"
        }
      ],
      "name": "mintTCandTPto",
      "outputs": [
        {
          "internalType": "uint256",
          "name": "qACtotalNeeded",
          "type": "uint256"
        },
        {
          "internalType": "uint256",
          "name": "qTCtoMint",
          "type": "uint256"
        }
      ],
      "stateMutability": "payable",
      "type": "function"
    },
    {
      "inputs": [
        {
          "internalType": "uint256",
          "name": "qTC_",
          "type": "uint256"
        },
        {
          "internalType": "uint256",
          "name": "qACmax_",
          "type": "uint256"
        },
        {
          "internalType": "address",
          "name": "recipient_",
          "type": "address"
        }
      ],
      "name": "mintTCto",
      "outputs": [
        {
          "internalType": "uint256",
          "name": "qACtotalNeeded",
          "type": "uint256"
        }
      ],
      "stateMutability": "nonpayable",
      "type": "function"
    },
    {
      "inputs": [
        {
          "internalType": "uint256",
          "name": "i_",
          "type": "uint256"
        },
        {
          "internalType": "uint256",
          "name": "qTP_",
          "type": "uint256"
        },
        {
          "internalType": "uint256",
          "name": "qACmax_",
          "type": "uint256"
        }
      ],
      "name": "mintTP",
      "outputs": [
        {
          "internalType": "uint256",
          "name": "qACtotalNeeded",
          "type": "uint256"
        }
      ],
      "stateMutability": "nonpayable",
      "type": "function"
    },
    {
      "inputs": [
        {
          "internalType": "uint256",
          "name": "i_",
          "type": "uint256"
        },
        {
          "internalType": "uint256",
          "name": "qTP_",
          "type": "uint256"
        },
        {
          "internalType": "uint256",
          "name": "qACmax_",
          "type": "uint256"
        },
        {
          "internalType": "address",
          "name": "recipient_",
          "type": "address"
        }
      ],
      "name": "mintTPto",
      "outputs": [
        {
          "internalType": "uint256",
          "name": "qACtotalNeeded",
          "type": "uint256"
        }
      ],
      "stateMutability": "nonpayable",
      "type": "function"
    },
    {
      "inputs": [],
      "name": "mocAppreciationBeneficiaryAddress",
      "outputs": [
        {
          "internalType": "address",
          "name": "",
          "type": "address"
        }
      ],
      "stateMutability": "view",
      "type": "function"
    },
    {
      "inputs": [],
      "name": "mocFeeFlowAddress",
      "outputs": [
        {
          "internalType": "address",
          "name": "",
          "type": "address"
        }
      ],
      "stateMutability": "view",
      "type": "function"
    },
    {
      "inputs": [],
      "name": "nACcb",
      "outputs": [
        {
          "internalType": "uint256",
          "name": "",
          "type": "uint256"
        }
      ],
      "stateMutability": "view",
      "type": "function"
    },
    {
      "inputs": [],
      "name": "nTCcb",
      "outputs": [
        {
          "internalType": "uint256",
          "name": "",
          "type": "uint256"
        }
      ],
      "stateMutability": "view",
      "type": "function"
    },
    {
      "inputs": [],
      "name": "nextEmaCalculation",
      "outputs": [
        {
          "internalType": "uint256",
          "name": "",
          "type": "uint256"
        }
      ],
      "stateMutability": "view",
      "type": "function"
    },
    {
      "inputs": [],
      "name": "pause",
      "outputs": [],
      "stateMutability": "nonpayable",
      "type": "function"
    },
    {
      "inputs": [],
      "name": "paused",
      "outputs": [
        {
          "internalType": "bool",
          "name": "",
          "type": "bool"
        }
      ],
      "stateMutability": "view",
      "type": "function"
    },
    {
      "inputs": [],
      "name": "pauser",
      "outputs": [
        {
          "internalType": "address",
          "name": "",
          "type": "address"
        }
      ],
      "stateMutability": "view",
      "type": "function"
    },
    {
      "inputs": [
        {
          "internalType": "uint256",
          "name": "",
          "type": "uint256"
        }
      ],
      "name": "pegContainer",
      "outputs": [
        {
          "internalType": "uint256",
          "name": "nTP",
          "type": "uint256"
        },
        {
          "internalType": "contract IPriceProvider",
          "name": "priceProvider",
          "type": "address"
        }
      ],
      "stateMutability": "view",
      "type": "function"
    },
    {
      "inputs": [
        {
          "internalType": "address",
          "name": "",
          "type": "address"
        }
      ],
      "name": "peggedTokenIndex",
      "outputs": [
        {
          "internalType": "uint256",
          "name": "index",
          "type": "uint256"
        },
        {
          "internalType": "bool",
          "name": "exists",
          "type": "bool"
        }
      ],
      "stateMutability": "view",
      "type": "function"
    },
    {
      "inputs": [],
      "name": "protThrld",
      "outputs": [
        {
          "internalType": "uint256",
          "name": "",
          "type": "uint256"
        }
      ],
      "stateMutability": "view",
      "type": "function"
    },
    {
      "inputs": [],
      "name": "proxiableUUID",
      "outputs": [
        {
          "internalType": "bytes32",
          "name": "",
          "type": "bytes32"
        }
      ],
      "stateMutability": "view",
      "type": "function"
    },
    {
      "inputs": [
        {
          "internalType": "uint256",
          "name": "qTC_",
          "type": "uint256"
        },
        {
          "internalType": "uint256",
          "name": "qACmin_",
          "type": "uint256"
        }
      ],
      "name": "redeemTC",
      "outputs": [
        {
          "internalType": "uint256",
          "name": "qACRedeemed",
          "type": "uint256"
        }
      ],
      "stateMutability": "nonpayable",
      "type": "function"
    },
    {
      "inputs": [
        {
          "internalType": "uint256",
          "name": "i_",
          "type": "uint256"
        },
        {
          "internalType": "uint256",
          "name": "qTC_",
          "type": "uint256"
        },
        {
          "internalType": "uint256",
          "name": "qTP_",
          "type": "uint256"
        },
        {
          "internalType": "uint256",
          "name": "qACmin_",
          "type": "uint256"
        }
      ],
      "name": "redeemTCandTP",
      "outputs": [
        {
          "internalType": "uint256",
          "name": "qACRedeemed",
          "type": "uint256"
        },
        {
          "internalType": "uint256",
          "name": "qTPRedeemed",
          "type": "uint256"
        }
      ],
      "stateMutability": "nonpayable",
      "type": "function"
    },
    {
      "inputs": [],
      "name": "redeemTCandTPFee",
      "outputs": [
        {
          "internalType": "uint256",
          "name": "",
          "type": "uint256"
        }
      ],
      "stateMutability": "view",
      "type": "function"
    },
    {
      "inputs": [
        {
          "internalType": "uint256",
          "name": "i_",
          "type": "uint256"
        },
        {
          "internalType": "uint256",
          "name": "qTC_",
          "type": "uint256"
        },
        {
          "internalType": "uint256",
          "name": "qTP_",
          "type": "uint256"
        },
        {
          "internalType": "uint256",
          "name": "qACmin_",
          "type": "uint256"
        },
        {
          "internalType": "address",
          "name": "recipient_",
          "type": "address"
        }
      ],
      "name": "redeemTCandTPto",
      "outputs": [
        {
          "internalType": "uint256",
          "name": "qACRedeemed",
          "type": "uint256"
        },
        {
          "internalType": "uint256",
          "name": "qTPRedeemed",
          "type": "uint256"
        }
      ],
      "stateMutability": "nonpayable",
      "type": "function"
    },
    {
      "inputs": [
        {
          "internalType": "uint256",
          "name": "qTC_",
          "type": "uint256"
        },
        {
          "internalType": "uint256",
          "name": "qACmin_",
          "type": "uint256"
        },
        {
          "internalType": "address",
          "name": "recipient_",
          "type": "address"
        }
      ],
      "name": "redeemTCto",
      "outputs": [
        {
          "internalType": "uint256",
          "name": "qACRedeemed",
          "type": "uint256"
        }
      ],
      "stateMutability": "nonpayable",
      "type": "function"
    },
    {
      "inputs": [
        {
          "internalType": "uint256",
          "name": "i_",
          "type": "uint256"
        },
        {
          "internalType": "uint256",
          "name": "qTP_",
          "type": "uint256"
        },
        {
          "internalType": "uint256",
          "name": "qACmin_",
          "type": "uint256"
        }
      ],
      "name": "redeemTP",
      "outputs": [
        {
          "internalType": "uint256",
          "name": "qACRedeemed",
          "type": "uint256"
        }
      ],
      "stateMutability": "nonpayable",
      "type": "function"
    },
    {
      "inputs": [
        {
          "internalType": "uint256",
          "name": "i_",
          "type": "uint256"
        },
        {
          "internalType": "uint256",
          "name": "qTP_",
          "type": "uint256"
        },
        {
          "internalType": "uint256",
          "name": "qACmin_",
          "type": "uint256"
        },
        {
          "internalType": "address",
          "name": "recipient_",
          "type": "address"
        }
      ],
      "name": "redeemTPto",
      "outputs": [
        {
          "internalType": "uint256",
          "name": "qACRedeemed",
          "type": "uint256"
        }
      ],
      "stateMutability": "nonpayable",
      "type": "function"
    },
    {
      "inputs": [],
      "name": "refreshACBalance",
      "outputs": [],
      "stateMutability": "nonpayable",
      "type": "function"
    },
    {
      "inputs": [
        {
          "internalType": "uint256",
          "name": "appreciationFactor_",
          "type": "uint256"
        }
      ],
      "name": "setAppreciationFactor",
      "outputs": [],
      "stateMutability": "nonpayable",
      "type": "function"
    },
    {
      "inputs": [
        {
          "internalType": "uint256",
          "name": "bes_",
          "type": "uint256"
        }
      ],
      "name": "setBes",
      "outputs": [],
      "stateMutability": "nonpayable",
      "type": "function"
    },
    {
      "inputs": [
        {
          "internalType": "uint256",
          "name": "blockSpan_",
          "type": "uint256"
        }
      ],
      "name": "setEmaCalculationBlockSpan",
      "outputs": [],
      "stateMutability": "nonpayable",
      "type": "function"
    },
    {
      "inputs": [
        {
          "internalType": "uint256",
          "name": "feeRetainer_",
          "type": "uint256"
        }
      ],
      "name": "setFeeRetainer",
      "outputs": [],
      "stateMutability": "nonpayable",
      "type": "function"
    },
    {
      "inputs": [
        {
          "internalType": "bool",
          "name": "liqEnabled_",
          "type": "bool"
        }
      ],
      "name": "setLiqEnabled",
      "outputs": [],
      "stateMutability": "nonpayable",
      "type": "function"
    },
    {
      "inputs": [
        {
          "internalType": "uint256",
          "name": "liqThrld_",
          "type": "uint256"
        }
      ],
      "name": "setLiqThrld",
      "outputs": [],
      "stateMutability": "nonpayable",
      "type": "function"
    },
    {
      "inputs": [
        {
          "internalType": "uint256",
          "name": "mintTCandTPFee_",
          "type": "uint256"
        }
      ],
      "name": "setMintTCandTPFee",
      "outputs": [],
      "stateMutability": "nonpayable",
      "type": "function"
    },
    {
      "inputs": [
        {
          "internalType": "address",
          "name": "mocAppreciationBeneficiaryAddress_",
          "type": "address"
        }
      ],
      "name": "setMocAppreciationBeneficiaryAddress",
      "outputs": [],
      "stateMutability": "nonpayable",
      "type": "function"
    },
    {
      "inputs": [
        {
          "internalType": "address",
          "name": "mocFeeFlowAddress_",
          "type": "address"
        }
      ],
      "name": "setMocFeeFlowAddress",
      "outputs": [],
      "stateMutability": "nonpayable",
      "type": "function"
    },
    {
      "inputs": [
        {
          "internalType": "address",
          "name": "newPauser_",
          "type": "address"
        }
      ],
      "name": "setPauser",
      "outputs": [],
      "stateMutability": "nonpayable",
      "type": "function"
    },
    {
      "inputs": [
        {
          "internalType": "uint256",
          "name": "protThrld_",
          "type": "uint256"
        }
      ],
      "name": "setProtThrld",
      "outputs": [],
      "stateMutability": "nonpayable",
      "type": "function"
    },
    {
      "inputs": [
        {
          "internalType": "uint256",
          "name": "redeemTCandTPFee_",
          "type": "uint256"
        }
      ],
      "name": "setRedeemTCandTPFee",
      "outputs": [],
      "stateMutability": "nonpayable",
      "type": "function"
    },
    {
      "inputs": [
        {
          "internalType": "uint256",
          "name": "successFee_",
          "type": "uint256"
        }
      ],
      "name": "setSuccessFee",
      "outputs": [],
      "stateMutability": "nonpayable",
      "type": "function"
    },
    {
      "inputs": [
        {
          "internalType": "uint256",
          "name": "swapTCforTPFee_",
          "type": "uint256"
        }
      ],
      "name": "setSwapTCforTPFee",
      "outputs": [],
      "stateMutability": "nonpayable",
      "type": "function"
    },
    {
      "inputs": [
        {
          "internalType": "uint256",
          "name": "swapTPforTCFee_",
          "type": "uint256"
        }
      ],
      "name": "setSwapTPforTCFee",
      "outputs": [],
      "stateMutability": "nonpayable",
      "type": "function"
    },
    {
      "inputs": [
        {
          "internalType": "uint256",
          "name": "swapTPforTPFee_",
          "type": "uint256"
        }
      ],
      "name": "setSwapTPforTPFee",
      "outputs": [],
      "stateMutability": "nonpayable",
      "type": "function"
    },
    {
      "inputs": [
        {
          "internalType": "uint256",
          "name": "tcMintFee_",
          "type": "uint256"
        }
      ],
      "name": "setTcMintFee",
      "outputs": [],
      "stateMutability": "nonpayable",
      "type": "function"
    },
    {
      "inputs": [
        {
          "internalType": "uint256",
          "name": "tcRedeemFee_",
          "type": "uint256"
        }
      ],
      "name": "setTcRedeemFee",
      "outputs": [],
      "stateMutability": "nonpayable",
      "type": "function"
    },
    {
      "inputs": [],
      "name": "shouldCalculateEma",
      "outputs": [
        {
          "internalType": "bool",
          "name": "",
          "type": "bool"
        }
      ],
      "stateMutability": "view",
      "type": "function"
    },
    {
      "inputs": [],
      "name": "stoppable",
      "outputs": [
        {
          "internalType": "bool",
          "name": "",
          "type": "bool"
        }
      ],
      "stateMutability": "view",
      "type": "function"
    },
    {
      "inputs": [],
      "name": "successFee",
      "outputs": [
        {
          "internalType": "uint256",
          "name": "",
          "type": "uint256"
        }
      ],
      "stateMutability": "view",
      "type": "function"
    },
    {
      "inputs": [
        {
          "internalType": "uint256",
          "name": "i_",
          "type": "uint256"
        },
        {
          "internalType": "uint256",
          "name": "qTC_",
          "type": "uint256"
        },
        {
          "internalType": "uint256",
          "name": "qTPmin_",
          "type": "uint256"
        },
        {
          "internalType": "uint256",
          "name": "qACmax_",
          "type": "uint256"
        }
      ],
      "name": "swapTCforTP",
      "outputs": [
        {
          "internalType": "uint256",
          "name": "qACFee",
          "type": "uint256"
        },
        {
          "internalType": "uint256",
          "name": "qTPMinted",
          "type": "uint256"
        }
      ],
      "stateMutability": "nonpayable",
      "type": "function"
    },
    {
      "inputs": [],
      "name": "swapTCforTPFee",
      "outputs": [
        {
          "internalType": "uint256",
          "name": "",
          "type": "uint256"
        }
      ],
      "stateMutability": "view",
      "type": "function"
    },
    {
      "inputs": [
        {
          "internalType": "uint256",
          "name": "i_",
          "type": "uint256"
        },
        {
          "internalType": "uint256",
          "name": "qTC_",
          "type": "uint256"
        },
        {
          "internalType": "uint256",
          "name": "qTPmin_",
          "type": "uint256"
        },
        {
          "internalType": "uint256",
          "name": "qACmax_",
          "type": "uint256"
        },
        {
          "internalType": "address",
          "name": "recipient_",
          "type": "address"
        }
      ],
      "name": "swapTCforTPto",
      "outputs": [
        {
          "internalType": "uint256",
          "name": "qACFee",
          "type": "uint256"
        },
        {
          "internalType": "uint256",
          "name": "qTPMinted",
          "type": "uint256"
        }
      ],
      "stateMutability": "nonpayable",
      "type": "function"
    },
    {
      "inputs": [
        {
          "internalType": "uint256",
          "name": "i_",
          "type": "uint256"
        },
        {
          "internalType": "uint256",
          "name": "qTP_",
          "type": "uint256"
        },
        {
          "internalType": "uint256",
          "name": "qTCmin_",
          "type": "uint256"
        },
        {
          "internalType": "uint256",
          "name": "qACmax_",
          "type": "uint256"
        }
      ],
      "name": "swapTPforTC",
      "outputs": [
        {
          "internalType": "uint256",
          "name": "qACFee",
          "type": "uint256"
        },
        {
          "internalType": "uint256",
          "name": "qTPMinted",
          "type": "uint256"
        }
      ],
      "stateMutability": "nonpayable",
      "type": "function"
    },
    {
      "inputs": [],
      "name": "swapTPforTCFee",
      "outputs": [
        {
          "internalType": "uint256",
          "name": "",
          "type": "uint256"
        }
      ],
      "stateMutability": "view",
      "type": "function"
    },
    {
      "inputs": [
        {
          "internalType": "uint256",
          "name": "i_",
          "type": "uint256"
        },
        {
          "internalType": "uint256",
          "name": "qTP_",
          "type": "uint256"
        },
        {
          "internalType": "uint256",
          "name": "qTCmin_",
          "type": "uint256"
        },
        {
          "internalType": "uint256",
          "name": "qACmax_",
          "type": "uint256"
        },
        {
          "internalType": "address",
          "name": "recipient_",
          "type": "address"
        }
      ],
      "name": "swapTPforTCto",
      "outputs": [
        {
          "internalType": "uint256",
          "name": "qACFee",
          "type": "uint256"
        },
        {
          "internalType": "uint256",
          "name": "qTPMinted",
          "type": "uint256"
        }
      ],
      "stateMutability": "nonpayable",
      "type": "function"
    },
    {
      "inputs": [
        {
          "internalType": "uint256",
          "name": "iFrom_",
          "type": "uint256"
        },
        {
          "internalType": "uint256",
          "name": "iTo_",
          "type": "uint256"
        },
        {
          "internalType": "uint256",
          "name": "qTP_",
          "type": "uint256"
        },
        {
          "internalType": "uint256",
          "name": "qTPmin_",
          "type": "uint256"
        },
        {
          "internalType": "uint256",
          "name": "qACmax_",
          "type": "uint256"
        }
      ],
      "name": "swapTPforTP",
      "outputs": [
        {
          "internalType": "uint256",
          "name": "qACFee",
          "type": "uint256"
        },
        {
          "internalType": "uint256",
          "name": "qTPMinted",
          "type": "uint256"
        }
      ],
      "stateMutability": "nonpayable",
      "type": "function"
    },
    {
      "inputs": [],
      "name": "swapTPforTPFee",
      "outputs": [
        {
          "internalType": "uint256",
          "name": "",
          "type": "uint256"
        }
      ],
      "stateMutability": "view",
      "type": "function"
    },
    {
      "inputs": [
        {
          "internalType": "uint256",
          "name": "iFrom_",
          "type": "uint256"
        },
        {
          "internalType": "uint256",
          "name": "iTo_",
          "type": "uint256"
        },
        {
          "internalType": "uint256",
          "name": "qTP_",
          "type": "uint256"
        },
        {
          "internalType": "uint256",
          "name": "qTPmin_",
          "type": "uint256"
        },
        {
          "internalType": "uint256",
          "name": "qACmax_",
          "type": "uint256"
        },
        {
          "internalType": "address",
          "name": "recipient_",
          "type": "address"
        }
      ],
      "name": "swapTPforTPto",
      "outputs": [
        {
          "internalType": "uint256",
          "name": "qACFee",
          "type": "uint256"
        },
        {
          "internalType": "uint256",
          "name": "qTPMinted",
          "type": "uint256"
        }
      ],
      "stateMutability": "nonpayable",
      "type": "function"
    },
    {
      "inputs": [],
      "name": "tcMintFee",
      "outputs": [
        {
          "internalType": "uint256",
          "name": "",
          "type": "uint256"
        }
      ],
      "stateMutability": "view",
      "type": "function"
    },
    {
      "inputs": [],
      "name": "tcRedeemFee",
      "outputs": [
        {
          "internalType": "uint256",
          "name": "",
          "type": "uint256"
        }
      ],
      "stateMutability": "view",
      "type": "function"
    },
    {
      "inputs": [],
      "name": "tcToken",
      "outputs": [
        {
          "internalType": "contract MocTC",
          "name": "",
          "type": "address"
        }
      ],
      "stateMutability": "view",
      "type": "function"
    },
    {
      "inputs": [
        {
          "internalType": "uint256",
          "name": "",
          "type": "uint256"
        }
      ],
      "name": "tpCtarg",
      "outputs": [
        {
          "internalType": "uint256",
          "name": "",
          "type": "uint256"
        }
      ],
      "stateMutability": "view",
      "type": "function"
    },
    {
      "inputs": [
        {
          "internalType": "uint256",
          "name": "",
          "type": "uint256"
        }
      ],
      "name": "tpEma",
      "outputs": [
        {
          "internalType": "uint256",
          "name": "ema",
          "type": "uint256"
        },
        {
          "internalType": "uint256",
          "name": "sf",
          "type": "uint256"
        }
      ],
      "stateMutability": "view",
      "type": "function"
    },
    {
      "inputs": [
        {
          "internalType": "uint256",
          "name": "",
          "type": "uint256"
        }
      ],
      "name": "tpMintFee",
      "outputs": [
        {
          "internalType": "uint256",
          "name": "",
          "type": "uint256"
        }
      ],
      "stateMutability": "view",
      "type": "function"
    },
    {
      "inputs": [
        {
          "internalType": "uint256",
          "name": "",
          "type": "uint256"
        }
      ],
      "name": "tpRedeemFee",
      "outputs": [
        {
          "internalType": "uint256",
          "name": "",
          "type": "uint256"
        }
      ],
      "stateMutability": "view",
      "type": "function"
    },
    {
      "inputs": [
        {
          "internalType": "uint256",
          "name": "",
          "type": "uint256"
        }
      ],
      "name": "tpTokens",
      "outputs": [
        {
          "internalType": "contract IMocRC20",
          "name": "",
          "type": "address"
        }
      ],
      "stateMutability": "view",
      "type": "function"
    },
    {
      "inputs": [],
      "name": "unpause",
      "outputs": [],
      "stateMutability": "nonpayable",
      "type": "function"
    },
    {
      "inputs": [],
      "name": "updateEmas",
      "outputs": [],
      "stateMutability": "nonpayable",
      "type": "function"
    },
    {
      "inputs": [
        {
          "internalType": "address",
          "name": "newImplementation",
          "type": "address"
        }
      ],
      "name": "upgradeTo",
      "outputs": [],
      "stateMutability": "nonpayable",
      "type": "function"
    },
    {
      "inputs": [
        {
          "internalType": "address",
          "name": "newImplementation",
          "type": "address"
        },
        {
          "internalType": "bytes",
          "name": "data",
          "type": "bytes"
        }
      ],
      "name": "upgradeToAndCall",
      "outputs": [],
      "stateMutability": "payable",
      "type": "function"
    }
  ],
  "transactionHash": "0xf3ab54ea2a5df26f0ef0f6193d4d7baa24ffb77480259199b0824b55ce8a474c",
  "args": [],
  "numDeployments": 1,
  "bytecode": "0x60a0604052306080523480156200001557600080fd5b506200002062000030565b6200002a62000030565b620000f2565b600054610100900460ff16156200009d5760405162461bcd60e51b815260206004820152602760248201527f496e697469616c697a61626c653a20636f6e747261637420697320696e697469604482015266616c697a696e6760c81b606482015260840160405180910390fd5b60005460ff9081161015620000f0576000805460ff191660ff9081179091556040519081527f7f26b83ff96e1f2b6a682f133852f6798a09c465da95921460cefb38474024989060200160405180910390a15b565b6080516158666200012a600039600081816113ba01528181611403015281816115f00152818161163001526116f901526158666000f3fe6080604052600436106105745760003560e01c806370713468116102d8578063bb4872de11610180578063e4012945116100e7578063f26114aa116100a0578063f375cfba1161007a578063f375cfba14611080578063fa6e83bd14611097578063fa79589e146110ae578063fda70f8b146110ce57600080fd5b8063f26114aa14611029578063f280877814611049578063f30b56141461106957600080fd5b8063e401294514610f86578063e4c0aaf414610fa6578063e6b1627c14610fc6578063e7c2597814610fe6578063e8859a1514611001578063f21fcc001461101657600080fd5b8063ceecc55a11610139578063ceecc55a14610ee7578063d1a0faa014610f07578063db79607214610f1c578063de08160f14610f3c578063de8d520a14610f5c578063e23c135c14610f7157600080fd5b8063bb4872de14610e38578063bbba7ed914610e52578063becaca6b14610e72578063c00f538d14610e92578063c039cc6914610eb2578063c84353c914610ec757600080fd5b80638456cb591161023f5780639ad6659d116101f85780639fd0506d116101d25780639fd0506d14610dc2578063a8e9ac3014610de8578063aea038dc14610e01578063bb2ac78814610e1857600080fd5b80639ad6659d14610d405780639bdd7cce14610d555780639cabfc0014610d7557600080fd5b80638456cb5914610c935780638cfa424114610ca8578063904aa85b14610cbf5780639195c85b14610cdf5780639853c35a14610cff5780639abb14c914610d2057600080fd5b80637a4ff1d9116102915780637a4ff1d914610be75780637a727fe814610c075780637af5758c14610c1e5780637cba238314610c3e5780637d8e031414610c5e578063826fcd5814610c7e57600080fd5b80637071346814610b425780637554fffd14610b625780637750ba0c14610b795780637820a32814610b9957806379f9a91c14610bb95780637a193c3114610bd057600080fd5b806333421c381161043b5780634f0f27ee116103a25780635c616a731161035b57806360009e0b1161033557806360009e0b14610ae0578063662013f414610b015780636827435714610b165780636b5488df14610b2b57600080fd5b80635c616a7314610a8e5780635c975abb14610aa35780635d65d04514610ac057600080fd5b80634f0f27ee146109fa5780634f1ef28614610a115780635210570c14610a245780635241271c14610a3957806352d1902d14610a5957806354a73c6214610a6e57600080fd5b80634310adc6116103f45780634310adc6146109255780634454ae8b146109455780634b746001146109655780634cffbaab146109a25780634d977e78146109c25780634e1f907a146109d957600080fd5b806333421c381461088f5780633659cfe6146108a45780633bc4ac0a146108c45780633f4ba83a146108e45780634017936a146108f9578063407f0e341461090e57600080fd5b80631867e2f5116104df57806323b98cde1161049857806323b98cde146107d157806327eab2a1146108015780632a20d57d146108215780632c43bd3b146108385780632d88af4a14610858578063333431fd1461087857600080fd5b80631867e2f5146107325780631a89b8f2146107495780631f1138a61461075c5780631fb0dda01461077c5780631fe6a7ad146107915780632069f753146107b157600080fd5b80630d6ac463116105315780630d6ac463146106725780630e0a8fd2146106925780631301a8f0146106b257806317574bc5146106d257806317df0ab8146106f2578063181770da1461071257600080fd5b806301cded9c1461057957806301dde6ef146105b357806301f1b684146105d55780630bb7f6081461060d5780630c340a241461063b5780630c36d8971461065b575b600080fd5b34801561058557600080fd5b50610599610594366004615134565b6110e5565b604080519283526020830191909152015b60405180910390f35b3480156105bf57600080fd5b506105d36105ce366004615181565b611104565b005b3480156105e157600080fd5b506105f56105f0366004615181565b611112565b6040516001600160a01b0390911681526020016105aa565b34801561061957600080fd5b5061062d61062836600461519a565b61113d565b6040519081526020016105aa565b34801561064757600080fd5b506097546105f5906001600160a01b031681565b34801561066757600080fd5b5061062d61017e5481565b34801561067e57600080fd5b506105d361068d3660046151bc565b611154565b34801561069e57600080fd5b506105d36106ad366004615181565b61117f565b3480156106be57600080fd5b506105996106cd3660046151d9565b61118d565b3480156106de57600080fd5b506105996106ed3660046151d9565b6111ab565b3480156106fe57600080fd5b5061062d61070d36600461520b565b6111bc565b34801561071e57600080fd5b5061062d61072d36600461520b565b6111d5565b34801561073e57600080fd5b5061062d6101b35481565b610599610757366004615237565b6111e4565b34801561076857600080fd5b50610599610777366004615278565b6111f4565b34801561078857600080fd5b5061062d611215565b34801561079d57600080fd5b506105d36107ac3660046152db565b611237565b3480156107bd57600080fd5b506105d36107cc366004615181565b611253565b3480156107dd57600080fd5b50610148546107f190610100900460ff1681565b60405190151581526020016105aa565b34801561080d57600080fd5b506105d361081c3660046151bc565b611261565b34801561082d57600080fd5b5061062d61013e5481565b34801561084457600080fd5b506105d3610853366004615181565b61128c565b34801561086457600080fd5b506105d36108733660046151bc565b61129a565b34801561088457600080fd5b5061062d61013d5481565b34801561089b57600080fd5b506105d36112cc565b3480156108b057600080fd5b506105d36108bf3660046151bc565b6113b0565b3480156108d057600080fd5b506105d36108df366004615181565b611498565b3480156108f057600080fd5b506105d36114a6565b34801561090557600080fd5b5061062d611540565b34801561091a57600080fd5b5061062d61013c5481565b34801561093157600080fd5b5061062d6109403660046152f8565b611575565b34801561095157600080fd5b50610599610960366004615134565b611583565b34801561097157600080fd5b50610985610980366004615181565b611594565b604080519283526001600160a01b039091166020830152016105aa565b3480156109ae57600080fd5b5061062d6109bd366004615237565b6115cc565b3480156109ce57600080fd5b5061062d6101b25481565b3480156109e557600080fd5b50610144546105f5906001600160a01b031681565b348015610a0657600080fd5b5061062d6101395481565b6105d3610a1f366004615347565b6115e6565b348015610a3057600080fd5b506105d36116b6565b348015610a4557600080fd5b5061062d610a54366004615181565b6116ca565b348015610a6557600080fd5b5061062d6116ec565b348015610a7a57600080fd5b5061062d610a89366004615237565b61179f565b348015610a9a57600080fd5b506105d36117ae565b348015610aaf57600080fd5b5060ca54610100900460ff166107f1565b348015610acc57600080fd5b5061062d610adb36600461540b565b611803565b348015610aec57600080fd5b50610131546105f5906001600160a01b031681565b348015610b0d57600080fd5b5061062d611810565b348015610b2257600080fd5b506105d3611820565b348015610b3757600080fd5b5061062d6101465481565b348015610b4e57600080fd5b506105d3610b5d366004615181565b611837565b348015610b6e57600080fd5b5061062d6101375481565b348015610b8557600080fd5b506105d3610b94366004615181565b611845565b348015610ba557600080fd5b50610599610bb436600461519a565b611853565b348015610bc557600080fd5b5061062d6101405481565b348015610bdc57600080fd5b5061062d6101325481565b348015610bf357600080fd5b506105d3610c02366004615181565b611874565b348015610c1357600080fd5b5061062d61017f5481565b348015610c2a57600080fd5b506105d3610c39366004615181565b611882565b348015610c4a57600080fd5b506105d3610c59366004615181565b611890565b348015610c6a57600080fd5b5061062d610c79366004615181565b61189e565b348015610c8a57600080fd5b5061062d6118af565b348015610c9f57600080fd5b506105d36118ca565b348015610cb457600080fd5b5061062d6101475481565b348015610ccb57600080fd5b5061062d610cda366004615181565b611965565b348015610ceb57600080fd5b5061062d610cfa366004615181565b611a2f565b348015610d0b57600080fd5b50610143546105f5906001600160a01b031681565b348015610d2c57600080fd5b5061062d610d3b36600461519a565b611a3c565b348015610d4c57600080fd5b506107f1611a4a565b348015610d6157600080fd5b50610599610d70366004615134565b611a75565b348015610d8157600080fd5b50610dad610d903660046151bc565b610134602052600090815260409020805460019091015460ff1682565b604080519283529015156020830152016105aa565b348015610dce57600080fd5b5060ca546105f5906201000090046001600160a01b031681565b348015610df457600080fd5b5061017e544310156107f1565b348015610e0d57600080fd5b5061062d61013b5481565b348015610e2457600080fd5b50610599610e333660046151d9565b611a86565b348015610e4457600080fd5b5060ca546107f19060ff1681565b348015610e5e57600080fd5b506105d3610e6d36600461543b565b611a97565b348015610e7e57600080fd5b506105d3610e8d366004615181565b611bdc565b348015610e9e57600080fd5b506105d3610ead366004615181565b611bea565b348015610ebe57600080fd5b5061062d611bf8565b348015610ed357600080fd5b506105d3610ee2366004615181565b611c13565b348015610ef357600080fd5b50610599610f0236600461544e565b611c21565b348015610f1357600080fd5b506105d3611c33565b348015610f2857600080fd5b506105d3610f37366004615489565b611c6d565b348015610f4857600080fd5b5061062d610f57366004615181565b611ffa565b348015610f6857600080fd5b5061062d61200b565b348015610f7d57600080fd5b506105d3612028565b348015610f9257600080fd5b5061062d610fa13660046152f8565b612066565b348015610fb257600080fd5b506105d3610fc13660046151bc565b612074565b348015610fd257600080fd5b50610599610fe1366004615181565b61209e565b348015610ff257600080fd5b50610148546107f19060ff1681565b34801561100d57600080fd5b5061062d6120cd565b61059961102436600461520b565b6120f3565b34801561103557600080fd5b506105d3611044366004615489565b61210f565b34801561105557600080fd5b506105d3611064366004615181565b612399565b34801561107557600080fd5b5061062d61012f5481565b34801561108c57600080fd5b5061062d61013f5481565b3480156110a357600080fd5b5061062d6101385481565b3480156110ba57600080fd5b5061062d6110c9366004615181565b6123a7565b3480156110da57600080fd5b5061062d61013a5481565b6000806110f6878787873388612407565b915091509550959350505050565b61110c61262e565b61013855565b610133818154811061112357600080fd5b6000918252602090912001546001600160a01b0316905081565b600061114b838333336126b7565b90505b92915050565b61115c61262e565b61014380546001600160a01b0319166001600160a01b0392909216919091179055565b61118761262e565b61013d55565b60008061119e8686868633336127d7565b9150915094509492505050565b60008061119e86868686333361295a565b60006111cb8484843333612af5565b90505b9392505050565b60006111cb8484843333612c2b565b60008061119e8686863387612d87565b60008061120688888888883389612ee9565b91509150965096945050505050565b60008060006112226130d2565b9150915061123082826130f3565b9250505090565b61123f61262e565b610148805460ff1916911515919091179055565b61125b61262e565b61014055565b61126961262e565b61014480546001600160a01b0319166001600160a01b0392909216919091179055565b61129461262e565b61014755565b6112a261262e565b60ca80546001600160a01b03909216620100000262010000600160b01b0319909216919091179055565b6112d461312f565b6101485460ff1680156112f0575061014854610100900460ff16155b80156112ff57506112ff611a4a565b156113ae57610148805461ff0019166101001790556040517f8b77276c97a5709f0d6db52329848a254eb760ce8be80d281799f633bdb69e8390600090a161013160009054906101000a90046001600160a01b03166001600160a01b0316638456cb596040518163ffffffff1660e01b8152600401600060405180830381600087803b15801561138e57600080fd5b505af11580156113a2573d6000803e3d6000fd5b505050506113ae613158565b565b6001600160a01b037f00000000000000000000000000000000000000000000000000000000000000001630036114015760405162461bcd60e51b81526004016113f89061549b565b60405180910390fd5b7f00000000000000000000000000000000000000000000000000000000000000006001600160a01b031661144a6000805160206157ea833981519152546001600160a01b031690565b6001600160a01b0316146114705760405162461bcd60e51b81526004016113f8906154e7565b611479816132a3565b60408051600080825260208201909252611495918391906132ab565b50565b6114a061262e565b61017f55565b60ca54610100900460ff166114ce57604051637c7fd07960e01b815260040160405180910390fd5b60ca546201000090046001600160a01b031633146114ff57604051631d77d47760e21b815260040160405180910390fd5b60ca805461ff00191690556040513381527f5db9ee0a495bf2e6ff9c91a7834c1ba4fdd244a5e8aa4e537bd38aeae4b073aa906020015b60405180910390a1565b600080600061154d61341b565b9150915060008061155d83613572565b9150915061156c84838361362a565b94505050505090565b60006111cb848433856126b7565b6000806110f68787878733886127d7565b61013581815481106115a557600080fd5b6000918252602090912060029091020180546001909101549091506001600160a01b031682565b60006115db8585853386612c2b565b90505b949350505050565b6001600160a01b037f000000000000000000000000000000000000000000000000000000000000000016300361162e5760405162461bcd60e51b81526004016113f89061549b565b7f00000000000000000000000000000000000000000000000000000000000000006001600160a01b03166116776000805160206157ea833981519152546001600160a01b031690565b6001600160a01b03161461169d5760405162461bcd60e51b81526004016113f8906154e7565b6116a6826132a3565b6116b2828260016132ab565b5050565b6116be61262e565b60ca805460ff19169055565b61014281815481106116db57600080fd5b600091825260209091200154905081565b6000306001600160a01b037f0000000000000000000000000000000000000000000000000000000000000000161461178c5760405162461bcd60e51b815260206004820152603860248201527f555550535570677261646561626c653a206d757374206e6f742062652063616c60448201527f6c6564207468726f7567682064656c656761746563616c6c000000000000000060648201526084016113f8565b506000805160206157ea83398151915290565b60006115db8585853386612af5565b6117b661312f565b6101b35443106113ae576101b2546117ce9043615549565b6101b3556040517fd3c59bda47e141a8ec5a33d241b7f71b86e30d359f83a9227d912858b60404fc90600090a16113ae613657565b600061114b83338461365f565b600061181a61341b565b50919050565b61182861262e565b60ca805460ff19166001179055565b61183f61262e565b61013c55565b61184d61262e565b61013955565b600080611869848461186487611965565b61388f565b915091509250929050565b61187c61262e565b61013f55565b61188a61262e565b61013e55565b61189861262e565b61014655565b61014581815481106116db57600080fd5b60008060006118bc6130d2565b9150915061123082826138f1565b6118d261312f565b60ca546201000090046001600160a01b0316331461190357604051631d77d47760e21b815260040160405180910390fd5b60ca5460ff166119265760405163866099c360e01b815260040160405180910390fd5b60ca805461ff0019166101001790556040513381527f62e78cea01bee320cd4e420270b5ea74000d11b0c9f74754ebdbfc544b05a25890602001611536565b600080610135838154811061197c5761197c61555c565b60009182526020822060016002909202010154604080516359e02dd760e01b815281516001600160a01b039093169450839285926359e02dd792600480820193918290030181865afa1580156119d6573d6000803e3d6000fd5b505050506040513d601f19601f820116820180604052508101906119fa9190615572565b9150915080611a275760405163de4f3a0f60e01b81526001600160a01b03841660048201526024016113f8565b509392505050565b600061114e82333361365f565b600061114b83833333613910565b6000806000611a576130d2565b915091506000611a6783836138f1565b610147541015949350505050565b6000806110f687878787338861295a565b60008061119e868686863333612407565b600054610100900460ff1615808015611ab75750600054600160ff909116105b80611ad15750303b158015611ad1575060005460ff166001145b611b345760405162461bcd60e51b815260206004820152602e60248201527f496e697469616c697a61626c653a20636f6e747261637420697320616c72656160448201526d191e481a5b9a5d1a585b1a5e995960921b60648201526084016113f8565b6000805460ff191660011790558015611b57576000805461ff0019166101001790555b611b69610280830161026084016151bc565b61024a80546001600160a01b0319166001600160a01b0392909216919091179055611b9382613a1f565b80156116b2576000805461ff0019169055604051600181527f7f26b83ff96e1f2b6a682f133852f6798a09c465da95921460cefb38474024989060200160405180910390a15050565b611be461262e565b61013755565b611bf261262e565b61013b55565b6000806000611c056130d2565b915091506112308282613a97565b611c1b61262e565b6101b255565b6000806110f687878787873333612ee9565b61017e5443106113ae576101355460005b81811015611c5d57611c5581613ab3565b600101611c44565b5061149561017f54430161017e55565b611c7561262e565b6000611c8460208301836151bc565b60405163d55fd84560e01b81523060048201529091506001600160a01b0382169063d55fd84590602401602060405180830381865afa158015611ccb573d6000803e3d6000fd5b505050506040513d601f19601f82011682018060405250810190611cef9190615597565b611d0c5760405163e6c4247b60e01b815260040160405180910390fd5b6000611d1e60408401602085016151bc565b6001600160a01b0383166000908152610134602052604090206001015490915060ff1615611d5f57604051633458f6c560e01b815260040160405180910390fd5b6101338054604080518082018252828152600160208083018281526001600160a01b03808a1660008181526101348552878120965187559251958501805496151560ff199097169690961790955587548085019098557f92e985329fb94cc1b424ebb0f7f2929b6d27383ca94c0ec71c44fb48bdf96d2c90970180546001600160a01b031990811690951790558451808601865281815288881681840190815261013580548087018255908452915160029283027fdf37d27e88e3bd0b85262482997e409a463f5be0ebb19232abf994dd8474090d81019190915590517fdf37d27e88e3bd0b85262482997e409a463f5be0ebb19232abf994dd8474090e9091018054919099169516949094179096556101458054808401909155898501357fed95984add84c4014c7f9d66a1b73e788e2db64f5763fa861ad52da204f71b2b90910155610141805480840190915560608a01357fb3926254d0163c91fc94bf08f3f8062ff5d48635dfa7dbef8168ad7d4847a75890910155610142805480840190915560808a01357f7917ad5f1bd6fa6d4f9128143f89bcba30c5b503e76ecd2dd7562ddf9706ae1990910155835180850190945260a0890135845260c089013590840190815261017d805480840182559087529351939092027f0f2aec2a8c6072690b3c86d5c08e34587f891268d22d8bdca6e66838c0f2f22d81019390935590517f0f2aec2a8c6072690b3c86d5c08e34587f891268d22d8bdca6e66838c0f2f22e909201919091556101498054909101815590915261014a611fa482611965565b8154600181018355600092835260209092209091015560405181907f6417e5a3c1e0e5dae98b8fe718c4babdfcb35e0d7b5e1b9641b5914756f5d8e390611fec9087906155b4565b60405180910390a250505050565b61014181815481106116db57600080fd5b6000806120166130d2565b91505061202281613b6e565b91505090565b600061012f5461203730613b7f565b6120419190615621565b11156113ae576113ae61012f5461205730613b7f565b6120619190615621565b613bef565b60006111cb84843385613910565b61207c61262e565b609780546001600160a01b0319166001600160a01b0392909216919091179055565b61017d81815481106120af57600080fd5b60009182526020909120600290910201805460019091015490915082565b60006101b35443106120df5750600090565b436101b3546120ee9190615621565b905090565b6000806121038585853333612d87565b91509150935093915050565b61211761262e565b60006101348161212a60208501856151bc565b6001600160a01b0316815260208082019290925260409081016000208151808301909252805482526001015460ff16151591810182905291506121805760405163e6c4247b60e01b815260040160405180910390fd5b80516101358054829081106121975761219761555c565b6000918252602091829020600160029092020101546001600160a01b0316906121c690604086019086016151bc565b6001600160a01b0316146122b95760006121e660408501602086016151bc565b90506000816001600160a01b03166359e02dd76040518163ffffffff1660e01b81526004016040805180830381865afa158015612227573d6000803e3d6000fd5b505050506040513d601f19601f8201168201806040525081019061224b9190615572565b9150508061226c5760405163e6c4247b60e01b815260040160405180910390fd5b8161013584815481106122815761228161555c565b906000526020600020906002020160010160006101000a8154816001600160a01b0302191690836001600160a01b0316021790555050505b826040013561014582815481106122d2576122d261555c565b9060005260206000200181905550826060013561014182815481106122f9576122f961555c565b9060005260206000200181905550826080013561014282815481106123205761232061555c565b90600052602060002001819055508260c0013561017d82815481106123475761234761555c565b906000526020600020906002020160010181905550807f6417e5a3c1e0e5dae98b8fe718c4babdfcb35e0d7b5e1b9641b5914756f5d8e38460405161238c91906155b4565b60405180910390a2505050565b6123a161262e565b61013a55565b60008060006123b461341b565b9150915060008185815181106123cc576123cc61555c565b602002602001015190506000806123e284613572565b915091506123fc856123f48986613c0a565b858585613cdb565b979650505050505050565b600080612412613d24565b61241a61312f565b600080612425613d4e565b9150915061244c8a828c8151811061243f5761243f61555c565b6020026020010151613d6a565b6000806124598484613dcd565b915091506124698b858484613e1e565b60006124768c8484613e58565b5090508060000361249a5760405163f3e39b5d60e01b815260040160405180910390fd5b670de0b6b3a764000061013254858f815181106124b9576124b961555c565b6020026020010151856124cb86613b6e565b6124d59190615621565b8f6124e09190615634565b6124ea9190615634565b6124f49190615653565b6124fe9190615653565b95506000848e815181106125145761251461555c565b6020026020010151905061252c8e8883898888613e9e565b508a8610156125585760405163272e3f5960e21b8152600481018c9052602481018790526044016113f8565b6125658161013e54613ef2565b96508987111561259257604051630b63f1a760e01b8152600481018b9052602481018890526044016113f8565b604080518d8152602081018890529081018890528d908d906001600160a01b03808c1691908d169084907f0b0ee95633545edabb63afd3c3962a133536b36e2372f68c3c2722710ee0cd899060600160405180910390a450506125f78c60008b613f11565b6126048d8760008b613f88565b60006126108b89614013565b905061261d8a828a614038565b505050505050965096945050505050565b60975460405163d994d6d560e01b81523360048201526001600160a01b039091169063d994d6d590602401602060405180830381865afa158015612676573d6000803e3d6000fd5b505050506040513d601f19601f8201168201806040525081019061269a9190615597565b6113ae57604051631dd1b1b560e21b815260040160405180910390fd5b60006126c1613d24565b6126c961312f565b60006126d3614091565b90506000806126e56101465484613dcd565b915091506000806126f78a858561411b565b90925090506127068183615549565b95508886111561273357604051630b63f1a760e01b8152600481018a9052602481018790526044016113f8565b856000036127545760405163f3e39b5d60e01b815260040160405180910390fd5b604080518b8152602081018890529081018290526001600160a01b0380891691908a16907f62f0126e99b1936535db27571cea2b2d54db14a471b9203b29b31b89c300e4f69060600160405180910390a36127b08a838961415c565b60006127bc8a88614013565b90506127c9898284614038565b505050505050949350505050565b6000806127e2613d24565b6127ea61312f565b60006127f4614091565b90506000818a8151811061280a5761280a61555c565b6020026020010151905061281e8a82613d6a565b60008061282e6101465485613dcd565b91509150600061283f8d8d8661388f565b509050612878610132548d6128549190615634565b858561285f86613b6e565b6128699190615621565b6128739190615634565b6141a0565b95508a861080612886575085155b156128ae5760405163f577bef560e01b8152600481018c9052602481018790526044016113f8565b6128bb8161013d54613ef2565b9650898711156128e857604051630b63f1a760e01b8152600481018b9052602481018890526044016113f8565b604080518d8152602081018890529081018890528d908d906001600160a01b03808c1691908d169084907ff77b7563e0c6c33e0b804a715d94c82baea057d2e6f8bfdc211fe04d3c03bad99060600160405180910390a4505061294e8d8d60008c6141b5565b6126048660008a61415c565b600080612965613d24565b61296d61312f565b6000612977614091565b90506000818a8151811061298d5761298d61555c565b602002602001015190506129a18a82613d6a565b6000806129b16101475485613dcd565b91509150670de0b6b3a76400006101325484848e6129cf9190615634565b6129d99190615634565b6129e39190615653565b6129ed9190615653565b945089851115612a1a57604051637a031da360e11b8152600481018b9052602481018690526044016113f8565b600080612a338e8e8988612a2e89896130f3565b614216565b9092509050612a428183615621565b97508a881015612a6f576040516354cde31360e01b8152600481018c9052602481018990526044016113f8565b604080518e815260208101899052908101899052606081018290528e908e908a906001600160a01b03808e1691908f169085907f879e4419a6544de6ea456f6344b2fcf0c3b9fc0e6738c82fa4026a8789747c539060800160405180910390a4505050612add8d838c613f11565b612aea8e8860008d6141b5565b61261d898983614038565b6000612aff613d24565b612b0761312f565b6000612b11614091565b90506000818881518110612b2757612b2761555c565b60200260200101519050612b3b8882613d6a565b612b486101465483613dcd565b5050600080612b588a8a8561388f565b9150915081600003612b7d5760405163f3e39b5d60e01b815260040160405180910390fd5b612b878183615621565b945087851015612bb4576040516354cde31360e01b815260048101899052602481018690526044016113f8565b604080518a8152602081018790529081018290526001600160a01b0380881691908916908c907f4716c9926ce32100e8a5b6ad71af5500ac55514d7b0c8f80f209856c9dfaeb929060600160405180910390a4612c138a8a848a6141b5565b612c1e868683614038565b5050505095945050505050565b6000612c35613d24565b612c3d61312f565b600080612c48613d4e565b915091506000818981518110612c6057612c6061555c565b60200260200101519050612c748982613d6a565b600080612c818585613dcd565b91509150612c938b8b85888686613e9e565b600080612ca18d8d87614256565b9092509050612cb08183615549565b97508a881115612cdd57604051630b63f1a760e01b8152600481018c9052602481018990526044016113f8565b87600003612cfe5760405163f3e39b5d60e01b815260040160405180910390fd5b604080518d8152602081018a90529081018290526001600160a01b03808b1691908c16908f907f05f8dfb23a03c1f9d37a1860fc8038ffdc6dec3e24db38cdb09cc0176b35453f9060600160405180910390a4612d5d8d8d848c613f88565b6000612d698c8a614013565b9050612d768b8284614038565b505050505050505095945050505050565b600080612d92613d24565b612d9a61312f565b600080600080612da8613d4e565b915091506000818c81518110612dc057612dc061555c565b60200260200101519050612dd48c82613d6a565b612de16101475483613dcd565b5050612def8b82858561429e565b91975095509350612e008486615549565b965089871115612e2d57604051630b63f1a760e01b8152600481018b9052602481018890526044016113f8565b86600003612e4e5760405163f3e39b5d60e01b815260040160405180910390fd5b60408051878152602081018d9052908101889052606081018590526001600160a01b03808a1691908b16908e907fcd3821e3a6afec66fdfa7a942b879811bb9919b2f270de090b6e00178cd7eaee9060800160405180910390a4612eb386868a61415c565b612ec08c8c60008b613f88565b6000612ecc8b89614013565b9050612ed98a8287614038565b5050505050509550959350505050565b600080612ef4613d24565b612efc61312f565b878903612f1c57604051632a9ffab760e21b815260040160405180910390fd5b6000612f278a611965565b90506000612f348a611965565b9050612f408b83613d6a565b612f4a8a82613d6a565b6000612f578c8b8561388f565b50905082612f65838c615634565b612f6f9190615653565b935088841080612f7d575083155b15612fa55760405163272e3f5960e21b8152600481018a9052602481018590526044016113f8565b612faf8c84613c0a565b612fb98c84613c0a565b1115612ff257600080612fca613d4e565b91509150600080612fdb8484613dcd565b91509150612fed8f8988878686613e9e565b505050505b612fff8161013c54613ef2565b94508785111561302c57604051630b63f1a760e01b815260048101899052602481018690526044016113f8565b604080518c8152602081018c9052908101859052606081018690528c908c908c906001600160a01b03808b1691908c169085907f77d2223aca09d9ec6e49d1b8cdcb0b40dec540a5f65daf1ecab069c822bff4609060800160405180910390a450505061309c8b85600089613f88565b6130a98c8b60008a6141b5565b60006130b58987614013565b90506130c2888288614038565b5050505097509795505050505050565b60008060006130df614091565b90506130ea81613572565b92509250509091565b60006101325460000361310f5750670de0b6b3a764000061114e565b61114b8361311c84613b6e565b6131269190615621565b610132546141a0565b60ca54610100900460ff16156113ae5760405163783bb6c960e11b815260040160405180910390fd5b61012f5460008190036131685750565b610135546000808267ffffffffffffffff81111561318857613188615331565b6040519080825280602002602001820160405280156131b1578160200160208202803683370190505b50905060005b83811015613242576131c881611965565b8282815181106131da576131da61555c565b60200260200101818152505061322e61013582815481106131fd576131fd61555c565b9060005260206000209060020201600001548383815181106132215761322161555c565b60200260200101516141a0565b6132389084615549565b92506001016131b7565b5060005b8381101561329c5761013685848484815181106132655761326561555c565b60200260200101516132779190615634565b6132819190615653565b81546001808201845560009384526020909320015501613246565b5050505050565b61149561262e565b7f4910fdfa16fed3260ed0e7147f7cc6da11a60208b5b9406d12a635614ffd91435460ff16156132e3576132de83614328565b505050565b826001600160a01b03166352d1902d6040518163ffffffff1660e01b8152600401602060405180830381865afa92505050801561333d575060408051601f3d908101601f1916820190925261333a91810190615675565b60015b6133a05760405162461bcd60e51b815260206004820152602e60248201527f45524331393637557067726164653a206e657720696d706c656d656e7461746960448201526d6f6e206973206e6f74205555505360901b60648201526084016113f8565b6000805160206157ea833981519152811461340f5760405162461bcd60e51b815260206004820152602960248201527f45524331393637557067726164653a20756e737570706f727465642070726f786044820152681a58589b195555525160ba1b60648201526084016113f8565b506132de8383836143c4565b61013554600090606090829081908067ffffffffffffffff81111561344257613442615331565b60405190808252806020026020018201604052801561346b578160200160208202803683370190505b50935060005b8181101561354657600061348482611965565b9050808683815181106134995761349961555c565b60200260200101818152505060006134b183836143e9565b5090506000613503670de0b6b3a76400008361013587815481106134d7576134d761555c565b9060005260206000209060020201600001546134f39190615549565b6134fd9190615634565b846141a0565b9050806135108585613c0a565b61351a9190615634565b6135249088615549565b96506135308187615549565b955050505061353f8160010190565b9050613471565b508160000361355f576101465460020294505050509091565b6135698284615653565b94505050509091565b610135546000908190815b818110156136145760008582815181106135995761359961555c565b602002602001015190506000806135b084846143e9565b915091506135e88261013586815481106135cc576135cc61555c565b9060005260206000209060020201600001546134fd9190615549565b6135f29088615549565b96506135fe8187615549565b955050505061360d8160010190565b905061357d565b506136228261013754613ef2565b915050915091565b60008061363885858561444f565b905061364484846130f3565b61364e9082615653565b95945050505050565b6113ae614499565b600061366961312f565b61014854610100900460ff166136925760405163031b0d3560e11b815260040160405180910390fd5b600061013385815481106136a8576136a861555c565b6000918252602090912001546040516370a0823160e01b81526001600160a01b038681166004830152909116906370a0823190602401602060405180830381865afa1580156136fb573d6000803e3d6000fd5b505050506040513d601f19601f8201168201806040525081019061371f9190615675565b90508060000361374c57604051633fe8c5eb60e01b815260048101829052602481018290526044016113f8565b600061013686815481106137625761376261555c565b9060005260206000200154905061377982826141a0565b9250610133868154811061378f5761378f61555c565b600091825260209091200154604051632770a7eb60e21b81526001600160a01b0387811660048301526024820185905290911690639dc29fac90604401600060405180830381600087803b1580156137e657600080fd5b505af11580156137fa573d6000803e3d6000fd5b505050508261380830613b7f565b101561381a5761381730613b7f565b92505b836001600160a01b0316856001600160a01b0316877f4716c9926ce32100e8a5b6ad71af5500ac55514d7b0c8f80f209856c9dfaeb9285876000604051613874939291909283526020830191909152604082015260600190565b60405180910390a4613886848461465a565b50509392505050565b600080836000036138b357604051632a9ffab760e21b815260040160405180910390fd5b6138bd84846141a0565b91506138e78261014287815481106138d7576138d761555c565b9060005260206000200154613ef2565b9050935093915050565b600082600003613904575060001961114e565b61114b6134fd83613b6e565b600061391a613d24565b61392261312f565b60008061392d613d4e565b9150915060008061393e8484613dcd565b9150915061394e89858484613e1e565b60008061395c8b8585613e58565b91509150816000036139815760405163f3e39b5d60e01b815260040160405180910390fd5b61398b8183615621565b9650898710156139b8576040516354cde31360e01b8152600481018b9052602481018890526044016113f8565b604080518c8152602081018990529081018290526001600160a01b03808a1691908b16907f2d184907c04672620e3c88a12a39d6a603dd26373427842aa172eb3e5bfcff079060600160405180910390a3613a148b838b613f11565b6127c9888883614038565b600054610100900460ff16613a465760405162461bcd60e51b81526004016113f89061568e565b613a72613a5b61020083016101e084016151bc565b613a6d610220840161020085016151bc565b61468b565b613a7b816146ce565b613a89816102200135614933565b61149581610240013561498d565b600080613aa383613b6e565b90506115de816128738682615621565b600061017d8281548110613ac957613ac961555c565b60009182526020808320604080518082019091526002909302018054835260010154908201529150613afa83611965565b90506000613b0883836149cb565b90508061017d8581548110613b1f57613b1f61555c565b6000918252602090912060029091020155825160405185917f19156e9379c7bbbce8f646ce5ee30ba860b8f954717405f3d5859a6c1a21ae6091611fec91908590918252602082015260400190565b60008161012f5461114e9190615621565b61024a546040516370a0823160e01b81526001600160a01b03838116600483015260009216906370a0823190602401602060405180830381865afa158015613bcb573d6000803e3d6000fd5b505050506040513d601f19601f8201168201806040525081019061114e9190615675565b8061012f6000828254613c029190615549565b909155505050565b6000806101458481548110613c2157613c2161555c565b90600052602060002001549050600061017d8581548110613c4457613c4461555c565b9060005260206000209060020201600001549050613c6561017e5443101590565b15613cb757613cb461017d8681548110613c8157613c8161555c565b906000526020600020906002020160405180604001604052908160008201548152602001600182015481525050856149cb565b90505b838110613cc65750905061114e565b80613cd18584615634565b61364e9190615653565b6000670de0b6b3a7640000613cf08187615621565b85613cfc89878761444f565b613d069190615634565b613d109190615653565b613d1a9190615653565b9695505050505050565b61014854610100900460ff16156113ae57604051631ca61d7760e01b815260040160405180910390fd5b60006060613d5a611c33565b613d6261341b565b915091509091565b613d748282614a1b565b6101498381548110613d8857613d8861555c565b906000526020600020016000828254613da191906156d9565b925050819055508061014a8381548110613dbd57613dbd61555c565b6000918252602090912001555050565b600080613dd983613572565b90925090506000613dea83836138f1565b9050848111613e1657604051637912120160e01b815260048101829052602481018690526044016113f8565b509250929050565b6000613e2b84848461362a565b90508481101561329c5760405163a5db715d60e01b815260048101869052602481018290526044016113f8565b60008084600003613e7c57604051632a9ffab760e21b815260040160405180910390fd5b613e8f85613e8a86866130f3565b613ef2565b91506138e78261013b54613ef2565b6000613eaa8786613c0a565b90506000613ebb8583888787613cdb565b905086811015613ee85760405163c39b739f60e01b815260048101889052602481018290526044016113f8565b5050505050505050565b6000670de0b6b3a7640000613f078385615634565b61114b9190615653565b613f1b8383614a97565b61013154604051632770a7eb60e21b81526001600160a01b0383811660048301526024820186905290911690639dc29fac906044015b600060405180830381600087803b158015613f6b57600080fd5b505af1158015613f7f573d6000803e3d6000fd5b50505050505050565b613f93848484614acd565b6101338481548110613fa757613fa761555c565b6000918252602090912001546040516340c10f1960e01b81526001600160a01b03838116600483015260248201869052909116906340c10f19906044015b600060405180830381600087803b158015613fff57600080fd5b505af1158015613ee8573d6000803e3d6000fd5b61024a5460009061402f906001600160a01b0316333085614b11565b50600092915050565b60006140476101395483613ef2565b90508061012f600082825461405c9190615549565b909155505061014354614081906001600160a01b031661407c8385615621565b61465a565b61408b848461465a565b50505050565b610135546060908067ffffffffffffffff8111156140b1576140b1615331565b6040519080825280602002602001820160405280156140da578160200160208202803683370190505b50915060005b81811015614116576140f181611965565b8382815181106141035761410361555c565b60209081029190910101526001016140e0565b505090565b6000808460000361413f57604051632a9ffab760e21b815260040160405180910390fd5b61414d85613e8a86866130f3565b91506138e78261013a54613ef2565b6141668383614b7c565b610131546040516340c10f1960e01b81526001600160a01b03838116600483015260248201869052909116906340c10f1990604401613f51565b600081613f07670de0b6b3a764000085615634565b6141c0848484614b9e565b61013384815481106141d4576141d461555c565b600091825260209091200154604051632770a7eb60e21b81526001600160a01b0383811660048301526024820186905290911690639dc29fac90604401613fe5565b60008061422487868661388f565b5091506142318684613ef2565b61423b9083615549565b915061424a8261013f54613ef2565b90509550959350505050565b6000808360000361427a57604051632a9ffab760e21b815260040160405180910390fd5b61428484846141a0565b91506138e78261014187815481106138d7576138d761555c565b60008060008060006142af86613572565b9150915060006142bf83836130f3565b9050886142d4670de0b6b3a76400008a615621565b6142de908c615634565b6142e89190615653565b94506142f485826141a0565b95506143008a8a6141a0565b61430a9086615549565b94506143198561014054613ef2565b93505050509450945094915050565b6001600160a01b0381163b6143955760405162461bcd60e51b815260206004820152602d60248201527f455243313936373a206e657720696d706c656d656e746174696f6e206973206e60448201526c1bdd08184818dbdb9d1c9858dd609a1b60648201526084016113f8565b6000805160206157ea83398151915280546001600160a01b0319166001600160a01b0392909216919091179055565b6143cd83614bf7565b6000825111806143da5750805b156132de5761408b8383614c37565b60008060006143f88585614a1b565b610149868154811061440c5761440c61555c565b906000526020600020015461442191906156d9565b90506000811315613e165780915061444561443f6101385486613ef2565b83613ef2565b9250509250929050565b60008361445c84846138f1565b11614469575060006111ce565b6144738385615634565b670de0b6b3a764000061448584613b6e565b61448f9190615634565b6111cb9190615621565b61013554600090818167ffffffffffffffff8111156144ba576144ba615331565b6040519080825280602002602001820160405280156144e3578160200160208202803683370190505b50905060005b828110156145d75760006144fc82611965565b90506145088282613d6a565b6000610149838154811061451e5761451e61555c565b9060005260206000200154905060008113156145cd5761454a6145446101385484613ef2565b82613ef2565b84848151811061455c5761455c61555c565b60209081029190910101526145718187615549565b9550600061014984815481106145895761458961555c565b90600052602060002001819055506145cd838585815181106145ad576145ad61555c565b6020908102919091010151610144546000906001600160a01b0316613f88565b50506001016144e9565b50821561461c576145eb8361013754613ef2565b92508261012f60008282546146009190615621565b90915550506101435461461c906001600160a01b03168461465a565b7fae5116a8119d08673a0f1dfa7546b95da4bd54bb17feda7c61130ac7859152f6838260405161464d929190615701565b60405180910390a1505050565b614662614d22565b80156146805761024a54614680906001600160a01b03168383614d7d565b6116b260016101e655565b600054610100900460ff166146b25760405162461bcd60e51b81526004016113f89061568e565b6146ba614dad565b6146c382614dd4565b6116b2816001614e04565b600054610100900460ff166146f55760405162461bcd60e51b81526004016113f89061568e565b670de0b6b3a76400008160600135101561472257604051632a9ffab760e21b815260040160405180910390fd5b61472f8160a00135614e67565b61473c8160c00135614e67565b6147498160e00135614e67565b614757816101000135614e67565b614765816101200135614e67565b614773816101400135614e67565b614781816101600135614e67565b61478f816101800135614e67565b6147ab6147a66101c08301356101a0840135615549565b614e67565b6147b860208201826151bc565b61013180546001600160a01b0319166001600160a01b0392909216918217905560405163d55fd84560e01b815230600482015263d55fd84590602401602060405180830381865afa158015614811573d6000803e3d6000fd5b505050506040513d601f19601f820116820180604052508101906148359190615597565b6148525760405163e6c4247b60e01b815260040160405180910390fd5b61486260408201602083016151bc565b61014380546001600160a01b0319166001600160a01b039290921691909117905561489360608201604083016151bc565b61014480546001600160a01b0319166001600160a01b039290921691909117905560608101356101465560808101356101475560a08101356101395560c081013561013a5560e081013561013b5561010081013561013c5561012081013561013d556101408082013561013e5561016082013561013f5561018082013590556101a0810135610137556101c0013561013855610148805461ffff19169055565b600054610100900460ff1661495a5760405162461bcd60e51b81526004016113f89061568e565b8060000361497b57604051632a9ffab760e21b815260040160405180910390fd5b61017f81905561149581430161017e55565b600054610100900460ff166149b45760405162461bcd60e51b81526004016113f89061568e565b6101b28190556149c48143615549565b6101b35550565b6000808360200151670de0b6b3a76400006149e69190615621565b84516149f29190615634565b90506000838560200151614a069190615634565b9050670de0b6b3a7640000613cd18284615549565b600080670de0b6b3a76400006101358581548110614a3b57614a3b61555c565b906000526020600020906002020160000154614a579190615634565b9050614a638382615653565b61014a8581548110614a7757614a7761555c565b906000526020600020015482614a8d9190615653565b6115de919061574f565b816101326000828254614aaa9190615621565b925050819055508061012f6000828254614ac49190615621565b90915550505050565b816101358481548110614ae257614ae261555c565b90600052602060002090600202016000016000828254614b029190615549565b909155506132de905081613bef565b6040516001600160a01b038085166024830152831660448201526064810182905261408b9085906323b872dd60e01b906084015b60408051601f198184030181529190526020810180516001600160e01b03166001600160e01b031990931692909217909152614e90565b816101326000828254614b8f9190615549565b909155506116b2905081613bef565b816101358481548110614bb357614bb361555c565b90600052602060002090600202016000016000828254614bd39190615621565b925050819055508061012f6000828254614bed9190615621565b9091555050505050565b614c0081614328565b6040516001600160a01b038216907fbc7cd75a20ee27fd9adebab32041f755214dbc6bffa90cc0225b39da2e5c2d3b90600090a250565b60606001600160a01b0383163b614c9f5760405162461bcd60e51b815260206004820152602660248201527f416464726573733a2064656c65676174652063616c6c20746f206e6f6e2d636f6044820152651b9d1c9858dd60d21b60648201526084016113f8565b600080846001600160a01b031684604051614cba919061579a565b600060405180830381855af49150503d8060008114614cf5576040519150601f19603f3d011682016040523d82523d6000602084013e614cfa565b606091505b509150915061364e828260405180606001604052806027815260200161580a60279139614f62565b60026101e65403614d755760405162461bcd60e51b815260206004820152601f60248201527f5265656e7472616e637947756172643a207265656e7472616e742063616c6c0060448201526064016113f8565b60026101e655565b6040516001600160a01b0383166024820152604481018290526132de90849063a9059cbb60e01b90606401614b45565b600054610100900460ff166113ae5760405162461bcd60e51b81526004016113f89061568e565b600054610100900460ff16614dfb5760405162461bcd60e51b81526004016113f89061568e565b61149581614f7b565b600054610100900460ff16614e2b5760405162461bcd60e51b81526004016113f89061568e565b60ca80546001600160a01b03909316620100000262010000600160b01b03199215159290921661ff01600160b01b031990931692909217179055565b670de0b6b3a764000081111561149557604051632a9ffab760e21b815260040160405180910390fd5b6000614ee5826040518060400160405280602081526020017f5361666545524332303a206c6f772d6c6576656c2063616c6c206661696c6564815250856001600160a01b0316614fa29092919063ffffffff16565b8051909150156132de5780806020019051810190614f039190615597565b6132de5760405162461bcd60e51b815260206004820152602a60248201527f5361666545524332303a204552433230206f7065726174696f6e20646964206e6044820152691bdd081cdd58d8d9595960b21b60648201526084016113f8565b60608315614f715750816111ce565b6111ce8383614fb1565b600054610100900460ff1661207c5760405162461bcd60e51b81526004016113f89061568e565b60606111cb8484600085614fdb565b815115614fc15781518083602001fd5b8060405162461bcd60e51b81526004016113f891906157b6565b60608247101561503c5760405162461bcd60e51b815260206004820152602660248201527f416464726573733a20696e73756666696369656e742062616c616e636520666f6044820152651c8818d85b1b60d21b60648201526084016113f8565b600080866001600160a01b03168587604051615058919061579a565b60006040518083038185875af1925050503d8060008114615095576040519150601f19603f3d011682016040523d82523d6000602084013e61509a565b606091505b50915091506123fc878383876060831561511557825160000361510e576001600160a01b0385163b61510e5760405162461bcd60e51b815260206004820152601d60248201527f416464726573733a2063616c6c20746f206e6f6e2d636f6e747261637400000060448201526064016113f8565b50816115de565b6115de8383614fb1565b6001600160a01b038116811461149557600080fd5b600080600080600060a0868803121561514c57600080fd5b8535945060208601359350604086013592506060860135915060808601356151738161511f565b809150509295509295909350565b60006020828403121561519357600080fd5b5035919050565b600080604083850312156151ad57600080fd5b50508035926020909101359150565b6000602082840312156151ce57600080fd5b81356111ce8161511f565b600080600080608085870312156151ef57600080fd5b5050823594602084013594506040840135936060013592509050565b60008060006060848603121561522057600080fd5b505081359360208301359350604090920135919050565b6000806000806080858703121561524d57600080fd5b843593506020850135925060408501359150606085013561526d8161511f565b939692955090935050565b60008060008060008060c0878903121561529157600080fd5b863595506020870135945060408701359350606087013592506080870135915060a08701356152bf8161511f565b809150509295509295509295565b801515811461149557600080fd5b6000602082840312156152ed57600080fd5b81356111ce816152cd565b60008060006060848603121561530d57600080fd5b833592506020840135915060408401356153268161511f565b809150509250925092565b634e487b7160e01b600052604160045260246000fd5b6000806040838503121561535a57600080fd5b82356153658161511f565b9150602083013567ffffffffffffffff8082111561538257600080fd5b818501915085601f83011261539657600080fd5b8135818111156153a8576153a8615331565b604051601f8201601f19908116603f011681019083821181831017156153d0576153d0615331565b816040528281528860208487010111156153e957600080fd5b8260208601602083013760006020848301015280955050505050509250929050565b6000806040838503121561541e57600080fd5b8235915060208301356154308161511f565b809150509250929050565b6000610280828403121561181a57600080fd5b600080600080600060a0868803121561546657600080fd5b505083359560208501359550604085013594606081013594506080013592509050565b600060e0828403121561181a57600080fd5b6020808252602c908201527f46756e6374696f6e206d7573742062652063616c6c6564207468726f7567682060408201526b19195b1959d85d1958d85b1b60a21b606082015260800190565b6020808252602c908201527f46756e6374696f6e206d7573742062652063616c6c6564207468726f7567682060408201526b6163746976652070726f787960a01b606082015260800190565b634e487b7160e01b600052601160045260246000fd5b8082018082111561114e5761114e615533565b634e487b7160e01b600052603260045260246000fd5b6000806040838503121561558557600080fd5b825191506020830151615430816152cd565b6000602082840312156155a957600080fd5b81516111ce816152cd565b60e0810182356155c38161511f565b6001600160a01b0390811683526020840135906155df8261511f565b8082166020850152505060408301356040830152606083013560608301526080830135608083015260a083013560a083015260c083013560c083015292915050565b8181038181111561114e5761114e615533565b600081600019048311821515161561564e5761564e615533565b500290565b60008261567057634e487b7160e01b600052601260045260246000fd5b500490565b60006020828403121561568757600080fd5b5051919050565b6020808252602b908201527f496e697469616c697a61626c653a20636f6e7472616374206973206e6f74206960408201526a6e697469616c697a696e6760a81b606082015260800190565b80820182811260008312801582168215821617156156f9576156f9615533565b505092915050565b6000604082018483526020604081850152818551808452606086019150828701935060005b8181101561574257845183529383019391830191600101615726565b5090979650505050505050565b818103600083128015838313168383128216171561576f5761576f615533565b5092915050565b60005b83811015615791578181015183820152602001615779565b50506000910152565b600082516157ac818460208701615776565b9190910192915050565b60208152600082518060208401526157d5816040850160208701615776565b601f01601f1916919091016040019291505056fe360894a13ba1a3210667c828492db98dca3e2076cc3735a920a3ca505d382bbc416464726573733a206c6f772d6c6576656c2064656c65676174652063616c6c206661696c6564a26469706673582212200d1558d675ce1b3758a0353e256f12e9e9521fab2fc89391761d8ccbfa854d2d64736f6c63430008100033",
  "devdoc": {
    "kind": "dev",
    "methods": {
      "addPeggedToken((address,address,uint256,uint256,uint256,uint256,uint256))": {
        "details": "Note that the ema value, should consider `nextEmaCalculation`tpTokenAddress Pegged Token contract address to add      priceProviderAddress Pegged Token price provider contract address      tpCtarg Pegged Token target coverage [PREC]      tpMintFee additional fee pct applied on mint [PREC]      tpRedeemFee additional fee pct applied on redeem [PREC]      tpEma initial Pegged Token exponential moving average [PREC]      tpEmaSf Pegged Token smoothing factor [PREC]  Requirements: - the caller must have governance authorization. - tpTokenAddress must be a MocRC20, with mint, burn roles already settled  for this contract",
        "params": {
          "peggedTokenParams_": "params of Pegged Token to add"
        }
      },
      "calcCtargemaCA()": {
        "details": "qAC = nTP / pACtp      ctargemaCA = (ctargemaTP * qAC) / (qAC)",
        "returns": {
          "ctargemaCA": "[PREC]"
        }
      },
      "changeGovernor(address)": {
        "params": {
          "newGovernor_": "New governor address"
        }
      },
      "constructor": {
        "custom:oz-upgrades-unsafe-allow": "constructor"
      },
      "editPeggedToken((address,address,uint256,uint256,uint256,uint256,uint256))": {
        "details": "Note that the ema value, should consider `nextEmaCalculation`tpTokenAddress Pegged Token contract address to identify the token to edit      priceProviderAddress Pegged Token price provider contract address      tpCtarg Pegged Token target coverage [PREC]      tpMintFee additional fee pct applied on mint [PREC]      tpRedeemFee additional fee pct applied on redeem [PREC]      tpEma initial Pegged Token exponential moving average [PREC]      tpEmaSf Pegged Token smoothing factor [PREC]  Requirements: - the caller must have governance authorization. - the tpTokenAddress must exists",
        "params": {
          "peggedTokenParams_": "params of Pegged Token to add"
        }
      },
      "getCglb()": {
        "returns": {
          "cglob": "[PREC]"
        }
      },
      "getLeverageTC()": {
        "returns": {
          "leverageTC": "[PREC]"
        }
      },
      "getPACtp(uint256)": {
        "params": {
          "i_": "Pegged Token index"
        },
        "returns": {
          "_0": "price [PREC]"
        }
      },
      "getPTCac()": {
        "returns": {
          "pTCac": "[PREC]"
        }
      },
      "getQACforRedeemTP(uint256,uint256)": {
        "params": {
          "i_": "Pegged Token index",
          "qTP_": "amount of Pegged Token to redeem"
        },
        "returns": {
          "qACfee": "amount of Collateral Asset in concept of fees [N]",
          "qACtotalToRedeem": "amount of Collateral Asset needed to redeem, including fees [N]"
        }
      },
      "getTCAvailableToRedeem()": {
        "details": "because it is a view function we are not calculating the new ema,  since we are using the last ema calculation, this may differ a little from the real amount  of TC available to redeem. Consider it an approximation.",
        "returns": {
          "tcAvailableToRedeem": "[N]"
        }
      },
      "getTPAvailableToMint(uint256)": {
        "details": "because it is a view function we are not calculating the new ema,  since we are using the last ema calculation, this may differ a little from the real amount  of TP available to mint. Consider it an approximation.",
        "params": {
          "i_": "Pegged Token index"
        },
        "returns": {
          "tpAvailableToMint": "[N]"
        }
      },
      "getTotalACavailable()": {
        "returns": {
          "totalACavailable": "[N]"
        }
      },
      "initialize((((address,address,address,uint256,uint256,uint256,uint256,uint256,uint256,uint256,uint256,uint256,uint256,uint256,uint256),address,address,uint256,uint256),address))": {
        "details": "governorAddress The address that will define when a change contract is authorized      pauserAddress The address that is authorized to pause this contract      acTokenAddress Collateral Asset Token contract address      tcTokenAddress Collateral Token contract address      mocFeeFlowAddress Moc Fee Flow contract address      mocAppreciationBeneficiaryAddress Moc appreciation beneficiary address      protThrld protected state threshold [PREC]      liqThrld liquidation coverage threshold [PREC]      feeRetainer pct retain on fees to be re-injected as Collateral, while paying fees with AC [PREC]      tcMintFee additional fee pct applied on mint Collateral Tokens operations [PREC]      tcRedeemFee additional fee pct applied on redeem Collateral Tokens operations [PREC]      successFee pct of the gain because Pegged Tokens devaluation that is transferred        in Collateral Asset to Moc Fee Flow during the settlement [PREC]      appreciationFactor pct of the gain because Pegged Tokens devaluation that is returned        in Pegged Tokens to appreciation beneficiary during the settlement [PREC]      emaCalculationBlockSpan amount of blocks to wait between Pegged ema calculation",
        "params": {
          "initializeParams_": "contract initializer params"
        }
      },
      "isLiquidationReached()": {
        "returns": {
          "_0": "true if liquidation state is reached, false otherwise"
        }
      },
      "liqRedeemTP(uint256)": {
        "params": {
          "i_": "Pegged Token index"
        },
        "returns": {
          "qACRedeemed": "amount of AC sent to sender"
        }
      },
      "liqRedeemTPto(uint256,address)": {
        "params": {
          "i_": "Pegged Token index",
          "recipient_": "address who receives the AC"
        },
        "returns": {
          "qACRedeemed": "amount of AC sent to `recipient_`"
        }
      },
      "makeStoppable()": {
        "details": "Should be called through governance"
      },
      "makeUnstoppable()": {
        "details": "Should be called through governance"
      },
      "mintTC(uint256,uint256)": {
        "params": {
          "qACmax_": "maximum amount of Collateral Asset that can be spent",
          "qTC_": "amount of Collateral Token to mint"
        },
        "returns": {
          "qACtotalNeeded": "amount of AC used to mint qTC"
        }
      },
      "mintTCandTP(uint256,uint256,uint256)": {
        "params": {
          "i_": "Pegged Token index",
          "qACmax_": "maximum amount of Collateral Asset that can be spent",
          "qTP_": "amount of Pegged Token to mint"
        },
        "returns": {
          "qACtotalNeeded": "amount of AC used to mint Collateral Token and Pegged Token",
          "qTCtoMint": "amount of Collateral Token minted"
        }
      },
      "mintTCandTPto(uint256,uint256,uint256,address)": {
        "params": {
          "i_": "Pegged Token index",
          "qACmax_": "maximum amount of Collateral Asset that can be spent",
          "qTP_": "amount of Pegged Token to mint",
          "recipient_": "address who receives the Collateral Token and Pegged Token"
        },
        "returns": {
          "qACtotalNeeded": "amount of AC used to mint Collateral Token and Pegged Token",
          "qTCtoMint": "amount of Collateral Token minted"
        }
      },
      "mintTCto(uint256,uint256,address)": {
        "params": {
          "qACmax_": "maximum amount of Collateral Asset that can be spent",
          "qTC_": "amount of Collateral Token to mint",
          "recipient_": "address who receives the Collateral Token"
        },
        "returns": {
          "qACtotalNeeded": "amount of AC used to mint qTC"
        }
      },
      "mintTP(uint256,uint256,uint256)": {
        "params": {
          "i_": "Pegged Token index to mint",
          "qACmax_": "maximum amount of Collateral Asset that can be spent",
          "qTP_": "amount of Pegged Token to mint"
        },
        "returns": {
          "qACtotalNeeded": "amount of AC used to mint qTP"
        }
      },
      "mintTPto(uint256,uint256,uint256,address)": {
        "params": {
          "i_": "Pegged Token index to mint",
          "qACmax_": "maximum amount of Collateral Asset that can be spent",
          "qTP_": "amount of Pegged Token to mint",
          "recipient_": "address who receives the Pegged Token"
        },
        "returns": {
          "qACtotalNeeded": "amount of AC used to mint qTP"
        }
      },
      "pause()": {
        "details": "Should only be called by the pauser and when it is stoppable"
      },
      "proxiableUUID()": {
        "details": "Implementation of the ERC1822 {proxiableUUID} function. This returns the storage slot used by the implementation. It is used to validate the implementation's compatibility when performing an upgrade. IMPORTANT: A proxy pointing at a proxiable contract should not be considered proxiable itself, because this risks bricking a proxy that upgrades to it, by delegating to itself until out of gas. Thus it is critical that this function revert if invoked through a proxy. This is guaranteed by the `notDelegated` modifier."
      },
      "redeemTC(uint256,uint256)": {
        "params": {
          "qACmin_": "minimum amount of Collateral Asset that sender expects to receive",
          "qTC_": "amount of Collateral Token to redeem"
        },
        "returns": {
          "qACRedeemed": "amount of AC sent to sender"
        }
      },
      "redeemTCandTP(uint256,uint256,uint256,uint256)": {
        "params": {
          "i_": "Pegged Token index",
          "qACmin_": "minimum amount of Collateral Asset that the sender expects to receive",
          "qTC_": "maximum amount of Collateral Token to redeem",
          "qTP_": "maximum amount of Pegged Token to redeem"
        },
        "returns": {
          "qACRedeemed": "amount of AC sent to the sender",
          "qTPRedeemed": "amount of Pegged Token redeemed"
        }
      },
      "redeemTCandTPto(uint256,uint256,uint256,uint256,address)": {
        "params": {
          "i_": "Pegged Token index",
          "qACmin_": "minimum amount of Collateral Asset that `recipient_` expects to receive",
          "qTC_": "maximum amount of Collateral Token to redeem",
          "qTP_": "maximum amount of Pegged Token to redeem",
          "recipient_": "address who receives the Collateral Asset"
        },
        "returns": {
          "qACRedeemed": "amount of AC sent to the `recipient_`",
          "qTPRedeemed": "amount of Pegged Token redeemed"
        }
      },
      "redeemTCto(uint256,uint256,address)": {
        "params": {
          "qACmin_": "minimum amount of Collateral Asset that `recipient_` expects to receive",
          "qTC_": "amount of Collateral Token to redeem",
          "recipient_": "address who receives the Collateral Asset"
        },
        "returns": {
          "qACRedeemed": "amount of AC sent to 'recipient_'"
        }
      },
      "redeemTP(uint256,uint256,uint256)": {
        "params": {
          "i_": "Pegged Token index to redeem",
          "qACmin_": "minimum amount of Collateral Asset that sender expects to receive",
          "qTP_": "amount of Pegged Token to redeem"
        },
        "returns": {
          "qACRedeemed": "amount of AC sent to sender"
        }
      },
      "redeemTPto(uint256,uint256,uint256,address)": {
        "params": {
          "i_": "Pegged Token index to redeem",
          "qACmin_": "minimum amount of Collateral Asset that `recipient_` expects to receive",
          "qTP_": "amount of Pegged Token to redeem",
          "recipient_": "address who receives the Collateral Asset"
        },
        "returns": {
          "qACRedeemed": "amount of AC sent to 'recipient_'"
        }
      },
      "refreshACBalance()": {
        "details": "Intended to be use as notification after an RC20 AC transfer to this contract"
      },
      "setAppreciationFactor(uint256)": {
        "details": "sets appreciation Factor value.",
        "params": {
          "appreciationFactor_": "pct of the gain because Pegged Tokens devaluation that is returned in Pegged Tokens to appreciation beneficiary during the settlement [PREC]"
        }
      },
      "setBes(uint256)": {
        "params": {
          "bes_": "number of blocks between settlements*"
        }
      },
      "setEmaCalculationBlockSpan(uint256)": {
        "params": {
          "blockSpan_": "Defines how many blocks should pass between BMA calculations*"
        }
      },
      "setFeeRetainer(uint256)": {
        "details": "sets the fee pct to be retainer on AC fees payments as AC re-injection.",
        "params": {
          "feeRetainer_": "pct retain on fees to be re-injected as Collateral, while paying fees with AC [PREC] 0% = 0; 1% = 10 ** 16; 100% = 10 ** 18"
        }
      },
      "setLiqEnabled(bool)": {
        "details": "enables and disables the liquidation mechanism.",
        "params": {
          "liqEnabled_": "is liquidation enabled"
        }
      },
      "setLiqThrld(uint256)": {
        "details": "sets the value of the liq threshold configuration param",
        "params": {
          "liqThrld_": "liquidation threshold"
        }
      },
      "setMintTCandTPFee(uint256)": {
        "details": "sets the fee charged when mint Collateral Token and Pegged Token in one operation.",
        "params": {
          "mintTCandTPFee_": "additional fee pct applied on mint Collateral Token and Pegged Token [PREC] 0% = 0; 1% = 10 ** 16; 100% = 10 ** 18"
        }
      },
      "setMocAppreciationBeneficiaryAddress(address)": {
        "details": "sets Moc Appreciation Beneficiary Address",
        "params": {
          "mocAppreciationBeneficiaryAddress_": "moc Appreciation Beneficiary new address"
        }
      },
      "setMocFeeFlowAddress(address)": {
        "details": "sets Moc Fee Flow contract address",
        "params": {
          "mocFeeFlowAddress_": "moc Fee Flow new contract address"
        }
      },
      "setPauser(address)": {
        "details": "Should be called through governance",
        "params": {
          "newPauser_": "Address of the new pauser"
        }
      },
      "setProtThrld(uint256)": {
        "details": "sets the value of the protected threshold configuration param",
        "params": {
          "protThrld_": "coverage protected state threshold [PREC]"
        }
      },
      "setRedeemTCandTPFee(uint256)": {
        "details": "sets the fee charged when redeem Collateral Token and Pegged Token in one operation.",
        "params": {
          "redeemTCandTPFee_": "additional fee pct applied on redeem Collateral Token and Pegged Token [PREC] 0% = 0; 1% = 10 ** 16; 100% = 10 ** 18"
        }
      },
      "setSuccessFee(uint256)": {
        "details": "sets success Fee value.",
        "params": {
          "successFee_": "pct of the gain because Pegged Tokens devaluation that is transferred in Collateral Asset to Moc Fee Flow during the settlement [PREC]"
        }
      },
      "setSwapTCforTPFee(uint256)": {
        "details": "sets the fee charged when swap Collateral Token for a Pegged Token.",
        "params": {
          "swapTCforTPFee_": "additional fee pct applied on swap Collateral Token for a Pegged Token [PREC] 0% = 0; 1% = 10 ** 16; 100% = 10 ** 18"
        }
      },
      "setSwapTPforTCFee(uint256)": {
        "details": "sets the fee charged when swap a Pegged Token for Collateral Token.",
        "params": {
          "swapTPforTCFee_": "additional fee pct applied on swap a Pegged Token for Collateral Token [PREC] 0% = 0; 1% = 10 ** 16; 100% = 10 ** 18"
        }
      },
      "setSwapTPforTPFee(uint256)": {
        "details": "sets the fee charged when swap a Pegged Token for another Pegged Token.",
        "params": {
          "swapTPforTPFee_": "additional fee pct applied on swap a Pegged Token for another Pegged Token [PREC] 0% = 0; 1% = 10 ** 16; 100% = 10 ** 18"
        }
      },
      "setTcMintFee(uint256)": {
        "details": "sets the fee charged on Token Collateral mint.",
        "params": {
          "tcMintFee_": "addition fee pct applied on Collateral Tokens mint [PREC] 0% = 0; 1% = 10 ** 16; 100% = 10 ** 18"
        }
      },
      "setTcRedeemFee(uint256)": {
        "details": "sets the fee charged on Token Collateral redeem.",
        "params": {
          "tcRedeemFee_": "addition fee pct applied on Collateral Tokens redeem [PREC] 0% = 0; 1% = 10 ** 16; 100% = 10 ** 18"
        }
      },
      "swapTCforTP(uint256,uint256,uint256,uint256)": {
        "params": {
          "i_": "Pegged Token index",
          "qACmax_": "maximum amount of Collateral Asset that can be spent in fees",
          "qTC_": "amount of Collateral Token to swap",
          "qTPmin_": "minimum amount of Pegged Token that the sender expects to receive"
        },
        "returns": {
          "qACFee": "amount of AC used to pay fee",
          "qTPMinted": "amount of Pegged Token minted"
        }
      },
      "swapTCforTPto(uint256,uint256,uint256,uint256,address)": {
        "params": {
          "i_": "Pegged Token index",
          "qACmax_": "maximum amount of Collateral Asset that can be spent in fees",
          "qTC_": "amount of Collateral Token to swap",
          "qTPmin_": "minimum amount of Pegged Token that `recipient_` expects to receive",
          "recipient_": "address who receives the Pegged Token"
        },
        "returns": {
          "qACFee": "amount of AC used to pay fee",
          "qTPMinted": "amount of Pegged Token minted"
        }
      },
      "swapTPforTC(uint256,uint256,uint256,uint256)": {
        "params": {
          "i_": "Pegged Token index",
          "qACmax_": "maximum amount of Collateral Asset that can be spent in fees",
          "qTCmin_": "minimum amount of Collateral Token that the sender expects to receive",
          "qTP_": "amount of owned Pegged Token to swap"
        },
        "returns": {
          "qACFee": "amount of AC used to pay fee",
          "qTPMinted": "amount of Collateral Token minted"
        }
      },
      "swapTPforTCto(uint256,uint256,uint256,uint256,address)": {
        "params": {
          "i_": "Pegged Token index",
          "qACmax_": "maximum amount of Collateral Asset that can be spent in fees",
          "qTCmin_": "minimum amount of Collateral Token that `recipient_` expects to receive",
          "qTP_": "amount of owned Pegged Token to swap",
          "recipient_": "address who receives the Collateral Token"
        },
        "returns": {
          "qACFee": "amount of AC used to pay fee",
          "qTPMinted": "amount of Collateral Token minted"
        }
      },
      "swapTPforTP(uint256,uint256,uint256,uint256,uint256)": {
        "params": {
          "iFrom_": "owned Pegged Token index",
          "iTo_": "target Pegged Token index",
          "qACmax_": "maximum amount of Collateral Asset that can be spent in fees",
          "qTP_": "amount of owned Pegged Token to swap",
          "qTPmin_": "minimum amount of target Pegged Token that the sender expects to receive"
        },
        "returns": {
          "qACFee": "amount of AC used to pay fee",
          "qTPMinted": "amount of Pegged Token minted"
        }
      },
      "swapTPforTPto(uint256,uint256,uint256,uint256,uint256,address)": {
        "params": {
          "iFrom_": "owned Pegged Token index",
          "iTo_": "target Pegged Token index",
          "qACmax_": "maximum amount of Collateral Asset that can be spent in fees",
          "qTP_": "amount of owned Pegged Token to swap",
          "qTPmin_": "minimum amount of target Pegged Token that `recipient_` expects to receive",
          "recipient_": "address who receives the target Pegged Token"
        },
        "returns": {
          "qACFee": "amount of AC used to pay fee",
          "qTPMinted": "amount of Pegged Token minted"
        }
      },
      "updateEmas()": {
        "details": "All price provider prices must be available, fails if not"
      },
      "upgradeTo(address)": {
        "details": "Upgrade the implementation of the proxy to `newImplementation`. Calls {_authorizeUpgrade}. Emits an {Upgraded} event."
      },
      "upgradeToAndCall(address,bytes)": {
        "details": "Upgrade the implementation of the proxy to `newImplementation`, and subsequently execute the function call encoded in `data`. Calls {_authorizeUpgrade}. Emits an {Upgraded} event."
      }
    },
    "stateVariables": {
      "__gap": {
        "details": "This empty reserved space is put in place to allow future versions to add new variables without shifting down storage in the inheritance chain. See https://docs.openzeppelin.com/contracts/4.x/upgradeable#storage_gaps"
      }
    },
    "title": "MocCARC20: Moc Collateral Asset RC20",
    "version": 1
  },
  "userdoc": {
    "kind": "user",
    "methods": {
      "addPeggedToken((address,address,uint256,uint256,uint256,uint256,uint256))": {
        "notice": "add a Pegged Token to the protocol"
      },
      "calcCtargemaCA()": {
        "notice": "calculates target coverage adjusted by all Pegged Token's to Collateral Asset rate moving average"
      },
      "changeGovernor(address)": {
        "notice": "Change the contract's governor. Should be called through the old governance system"
      },
      "editPeggedToken((address,address,uint256,uint256,uint256,uint256,uint256))": {
        "notice": "modifies a Pegged Token of the protocol"
      },
      "evalLiquidation()": {
        "notice": "evaluates if liquidation threshold has been reached and liq is Enabled. If so forces contracts liquidation, blocking all mint & redeem operations. May emit a {ContractLiquidated} event."
      },
      "getBts()": {
        "notice": "get the number of blocks remaining for settlement"
      },
      "getCglb()": {
        "notice": "get bucket global coverage"
      },
      "getLeverageTC()": {
        "notice": "get Collateral Token leverage"
      },
      "getPACtp(uint256)": {
        "notice": "get how many Pegged Token equal 1 Collateral Asset"
      },
      "getPTCac()": {
        "notice": "get Collateral Token price"
      },
      "getQACforRedeemTP(uint256,uint256)": {
        "notice": "returns how many Collateral Asset are needed to redeem `qTP_` amount of Pegged Token `i_`"
      },
      "getTCAvailableToRedeem()": {
        "notice": "get amount of Collateral Token available to redeem"
      },
      "getTPAvailableToMint(uint256)": {
        "notice": "get amount of Pegged Token available to mint"
      },
      "getTotalACavailable()": {
        "notice": "get total Collateral Asset available"
      },
      "governor()": {
        "notice": "The address of the contract which governs this one"
      },
      "initialize((((address,address,address,uint256,uint256,uint256,uint256,uint256,uint256,uint256,uint256,uint256,uint256,uint256,uint256),address,address,uint256,uint256),address))": {
        "notice": "contract initializer"
      },
      "isLiquidationReached()": {
        "notice": "If liquidation is enabled, verifies if forced liquidation has been reached, checking if globalCoverage <= liquidation"
      },
      "liqRedeemTP(uint256)": {
        "notice": "Allow redeem on liquidation state, user Peg balance gets burned and he receives the equivalent AC given the liquidation frozen price."
      },
      "liqRedeemTPto(uint256,address)": {
        "notice": "Allow redeem on liquidation state, user Peg balance gets burned and he receives the equivalent AC given the liquidation frozen price."
      },
      "makeStoppable()": {
        "notice": "Switches ON the stoppability of the contract; if the contract was paused before making it unstoppable it will be paused again after calling this function"
      },
      "makeUnstoppable()": {
        "notice": "Switches OFF the stoppability of the contract; if the contract was paused it will no longer be so"
      },
      "mintTC(uint256,uint256)": {
        "notice": "caller sends Collateral Asset and receives Collateral Token Requires prior sender approval of Collateral Asset to this contract "
      },
      "mintTCandTP(uint256,uint256,uint256)": {
        "notice": "caller sends Collateral Asset and receives Collateral Token and Pegged Token  Requires prior sender approval of Collateral Asset to this contract  This operation is done without checking coverage  Collateral Token and Pegged Token are minted in equivalent proportions so that its price  and global coverage are not modified.  Reverts if qAC sent are insufficient."
      },
      "mintTCandTPto(uint256,uint256,uint256,address)": {
        "notice": "caller sends Collateral Asset and recipient receives Collateral Token and Pegged Token  Requires prior sender approval of Collateral Asset to this contract  This operation is done without checking coverage  Collateral Token and Pegged Token are minted in equivalent proportions so that its price  and global coverage are not modified.  Reverts if qAC sent are insufficient."
      },
      "mintTCto(uint256,uint256,address)": {
        "notice": "caller sends Collateral Asset and recipient receives Collateral Token Requires prior sender approval of Collateral Asset to this contract "
      },
      "mintTP(uint256,uint256,uint256)": {
        "notice": "caller sends Collateral Asset and receives Pegged Token Requires prior sender approval of Collateral Asset to this contract "
      },
      "mintTPto(uint256,uint256,uint256,address)": {
        "notice": "caller sends Collateral Asset and recipient receives Pegged Token Requires prior sender approval of Collateral Asset to this contract "
      },
      "pause()": {
        "notice": "Called by the owner to pause, triggers stopped state"
      },
      "paused()": {
        "notice": "Returns true if paused"
      },
      "redeemTC(uint256,uint256)": {
        "notice": "caller sends Collateral Token and receives Collateral Asset"
      },
      "redeemTCandTP(uint256,uint256,uint256,uint256)": {
        "notice": "caller sends Collateral Token and Pegged Token and receives coinbase as Collateral Asset  This operation is done without checking coverage  Collateral Token and Pegged Token are redeemed in equivalent proportions so that its price  and global coverage are not modified.  Reverts if qTP sent are insufficient."
      },
      "redeemTCandTPto(uint256,uint256,uint256,uint256,address)": {
        "notice": "caller sends Collateral Token and Pegged Token and recipient receives Collateral Asset  This operation is done without checking coverage  Collateral Token and Pegged Token are redeemed in equivalent proportions so that its price  and global coverage are not modified.  Reverts if qTP sent are insufficient."
      },
      "redeemTCto(uint256,uint256,address)": {
        "notice": "caller sends Collateral Token and recipient receives Collateral Asset"
      },
      "redeemTP(uint256,uint256,uint256)": {
        "notice": "caller sends Pegged Token and receives Collateral Asset"
      },
      "redeemTPto(uint256,uint256,uint256,address)": {
        "notice": "caller sends Pegged Token and recipient receives Collateral Asset"
      },
      "refreshACBalance()": {
        "notice": "Refreshes the AC holdings for the Bucket"
      },
      "setPauser(address)": {
        "notice": "Changes the address which is enable to pause this contract"
      },
      "shouldCalculateEma()": {
        "notice": "true if the necessary span has pass since last ema update"
      },
      "swapTCforTP(uint256,uint256,uint256,uint256)": {
        "notice": "caller sends Collateral Token and receives Pegged Token"
      },
      "swapTCforTPto(uint256,uint256,uint256,uint256,address)": {
        "notice": "caller sends Collateral Token and recipient receives Pegged Token"
      },
      "swapTPforTC(uint256,uint256,uint256,uint256)": {
        "notice": "caller sends a Pegged Token and receives Collateral Token"
      },
      "swapTPforTCto(uint256,uint256,uint256,uint256,address)": {
        "notice": "caller sends a Pegged Token and recipient receives Collateral Token"
      },
      "swapTPforTP(uint256,uint256,uint256,uint256,uint256)": {
        "notice": "caller sends a Pegged Token and receives another one"
      },
      "swapTPforTPto(uint256,uint256,uint256,uint256,uint256,address)": {
        "notice": "caller sends a Pegged Token and recipient receives another one"
      },
      "unpause()": {
        "notice": "Called by the owner to unpause, returns to normal state"
      },
      "updateEmas()": {
        "notice": "If time, calculates the EMA for all the Pegged Token prices."
      }
    },
    "notice": "Moc protocol implementation using a RC20 as Collateral Asset.",
    "version": 1
  },
  "storageLayout": {
    "storage": [
      {
        "astId": 974,
        "contract": "contracts/collateral/rc20/MocCARC20.sol:MocCARC20",
        "label": "_initialized",
        "offset": 0,
        "slot": "0",
        "type": "t_uint8"
      },
      {
        "astId": 977,
        "contract": "contracts/collateral/rc20/MocCARC20.sol:MocCARC20",
        "label": "_initializing",
        "offset": 1,
        "slot": "0",
        "type": "t_bool"
      },
      {
        "astId": 956,
        "contract": "contracts/collateral/rc20/MocCARC20.sol:MocCARC20",
        "label": "__gap",
        "offset": 0,
        "slot": "1",
        "type": "t_array(t_uint256)50_storage"
      },
      {
        "astId": 1271,
        "contract": "contracts/collateral/rc20/MocCARC20.sol:MocCARC20",
        "label": "__gap",
        "offset": 0,
        "slot": "51",
        "type": "t_array(t_uint256)50_storage"
      },
      {
        "astId": 19967,
        "contract": "contracts/collateral/rc20/MocCARC20.sol:MocCARC20",
        "label": "__gap",
        "offset": 0,
        "slot": "101",
        "type": "t_array(t_uint256)50_storage"
      },
      {
        "astId": 18082,
        "contract": "contracts/collateral/rc20/MocCARC20.sol:MocCARC20",
        "label": "governor",
        "offset": 0,
        "slot": "151",
        "type": "t_contract(IGovernor)18837"
      },
      {
        "astId": 18153,
        "contract": "contracts/collateral/rc20/MocCARC20.sol:MocCARC20",
        "label": "__gap",
        "offset": 0,
        "slot": "152",
        "type": "t_array(t_uint256)50_storage"
      },
      {
        "astId": 18217,
        "contract": "contracts/collateral/rc20/MocCARC20.sol:MocCARC20",
        "label": "stoppable",
        "offset": 0,
        "slot": "202",
        "type": "t_bool"
      },
      {
        "astId": 18219,
        "contract": "contracts/collateral/rc20/MocCARC20.sol:MocCARC20",
        "label": "_paused",
        "offset": 1,
        "slot": "202",
        "type": "t_bool"
      },
      {
        "astId": 18221,
        "contract": "contracts/collateral/rc20/MocCARC20.sol:MocCARC20",
        "label": "pauser",
        "offset": 2,
        "slot": "202",
        "type": "t_address"
      },
      {
        "astId": 18380,
        "contract": "contracts/collateral/rc20/MocCARC20.sol:MocCARC20",
        "label": "__gap",
        "offset": 0,
        "slot": "203",
        "type": "t_array(t_uint256)50_storage"
      },
      {
        "astId": 18200,
        "contract": "contracts/collateral/rc20/MocCARC20.sol:MocCARC20",
        "label": "__gap",
        "offset": 0,
        "slot": "253",
        "type": "t_array(t_uint256)50_storage"
      },
      {
        "astId": 11081,
        "contract": "contracts/collateral/rc20/MocCARC20.sol:MocCARC20",
        "label": "nACcb",
        "offset": 0,
        "slot": "303",
        "type": "t_uint256"
      },
      {
        "astId": 11083,
        "contract": "contracts/collateral/rc20/MocCARC20.sol:MocCARC20",
        "label": "nACioucb",
        "offset": 0,
        "slot": "304",
        "type": "t_uint256"
      },
      {
        "astId": 11086,
        "contract": "contracts/collateral/rc20/MocCARC20.sol:MocCARC20",
        "label": "tcToken",
        "offset": 0,
        "slot": "305",
        "type": "t_contract(MocTC)19874"
      },
      {
        "astId": 11088,
        "contract": "contracts/collateral/rc20/MocCARC20.sol:MocCARC20",
        "label": "nTCcb",
        "offset": 0,
        "slot": "306",
        "type": "t_uint256"
      },
      {
        "astId": 11092,
        "contract": "contracts/collateral/rc20/MocCARC20.sol:MocCARC20",
        "label": "tpTokens",
        "offset": 0,
        "slot": "307",
        "type": "t_array(t_contract(IMocRC20)18868)dyn_storage"
      },
      {
        "astId": 11097,
        "contract": "contracts/collateral/rc20/MocCARC20.sol:MocCARC20",
        "label": "peggedTokenIndex",
        "offset": 0,
        "slot": "308",
        "type": "t_mapping(t_address,t_struct(PeggedTokenIndex)11048_storage)"
      },
      {
        "astId": 11101,
        "contract": "contracts/collateral/rc20/MocCARC20.sol:MocCARC20",
        "label": "pegContainer",
        "offset": 0,
        "slot": "309",
        "type": "t_array(t_struct(PegContainerItem)11043_storage)dyn_storage"
      },
      {
        "astId": 11104,
        "contract": "contracts/collateral/rc20/MocCARC20.sol:MocCARC20",
        "label": "tpLiqPrices",
        "offset": 0,
        "slot": "310",
        "type": "t_array(t_uint256)dyn_storage"
      },
      {
        "astId": 11106,
        "contract": "contracts/collateral/rc20/MocCARC20.sol:MocCARC20",
        "label": "successFee",
        "offset": 0,
        "slot": "311",
        "type": "t_uint256"
      },
      {
        "astId": 11108,
        "contract": "contracts/collateral/rc20/MocCARC20.sol:MocCARC20",
        "label": "appreciationFactor",
        "offset": 0,
        "slot": "312",
        "type": "t_uint256"
      },
      {
        "astId": 11110,
        "contract": "contracts/collateral/rc20/MocCARC20.sol:MocCARC20",
        "label": "feeRetainer",
        "offset": 0,
        "slot": "313",
        "type": "t_uint256"
      },
      {
        "astId": 11112,
        "contract": "contracts/collateral/rc20/MocCARC20.sol:MocCARC20",
        "label": "tcMintFee",
        "offset": 0,
        "slot": "314",
        "type": "t_uint256"
      },
      {
        "astId": 11114,
        "contract": "contracts/collateral/rc20/MocCARC20.sol:MocCARC20",
        "label": "tcRedeemFee",
        "offset": 0,
        "slot": "315",
        "type": "t_uint256"
      },
      {
        "astId": 11116,
        "contract": "contracts/collateral/rc20/MocCARC20.sol:MocCARC20",
        "label": "swapTPforTPFee",
        "offset": 0,
        "slot": "316",
        "type": "t_uint256"
      },
      {
        "astId": 11118,
        "contract": "contracts/collateral/rc20/MocCARC20.sol:MocCARC20",
        "label": "swapTPforTCFee",
        "offset": 0,
        "slot": "317",
        "type": "t_uint256"
      },
      {
        "astId": 11120,
        "contract": "contracts/collateral/rc20/MocCARC20.sol:MocCARC20",
        "label": "swapTCforTPFee",
        "offset": 0,
        "slot": "318",
        "type": "t_uint256"
      },
      {
        "astId": 11122,
        "contract": "contracts/collateral/rc20/MocCARC20.sol:MocCARC20",
        "label": "redeemTCandTPFee",
        "offset": 0,
        "slot": "319",
        "type": "t_uint256"
      },
      {
        "astId": 11124,
        "contract": "contracts/collateral/rc20/MocCARC20.sol:MocCARC20",
        "label": "mintTCandTPFee",
        "offset": 0,
        "slot": "320",
        "type": "t_uint256"
      },
      {
        "astId": 11127,
        "contract": "contracts/collateral/rc20/MocCARC20.sol:MocCARC20",
        "label": "tpMintFee",
        "offset": 0,
        "slot": "321",
        "type": "t_array(t_uint256)dyn_storage"
      },
      {
        "astId": 11130,
        "contract": "contracts/collateral/rc20/MocCARC20.sol:MocCARC20",
        "label": "tpRedeemFee",
        "offset": 0,
        "slot": "322",
        "type": "t_array(t_uint256)dyn_storage"
      },
      {
        "astId": 11132,
        "contract": "contracts/collateral/rc20/MocCARC20.sol:MocCARC20",
        "label": "mocFeeFlowAddress",
        "offset": 0,
        "slot": "323",
        "type": "t_address"
      },
      {
        "astId": 11134,
        "contract": "contracts/collateral/rc20/MocCARC20.sol:MocCARC20",
        "label": "mocAppreciationBeneficiaryAddress",
        "offset": 0,
        "slot": "324",
        "type": "t_address"
      },
      {
        "astId": 11137,
        "contract": "contracts/collateral/rc20/MocCARC20.sol:MocCARC20",
        "label": "tpCtarg",
        "offset": 0,
        "slot": "325",
        "type": "t_array(t_uint256)dyn_storage"
      },
      {
        "astId": 11139,
        "contract": "contracts/collateral/rc20/MocCARC20.sol:MocCARC20",
        "label": "protThrld",
        "offset": 0,
        "slot": "326",
        "type": "t_uint256"
      },
      {
        "astId": 11141,
        "contract": "contracts/collateral/rc20/MocCARC20.sol:MocCARC20",
        "label": "liqThrld",
        "offset": 0,
        "slot": "327",
        "type": "t_uint256"
      },
      {
        "astId": 11143,
        "contract": "contracts/collateral/rc20/MocCARC20.sol:MocCARC20",
        "label": "liqEnabled",
        "offset": 0,
        "slot": "328",
        "type": "t_bool"
      },
      {
        "astId": 11145,
        "contract": "contracts/collateral/rc20/MocCARC20.sol:MocCARC20",
        "label": "liquidated",
        "offset": 1,
        "slot": "328",
        "type": "t_bool"
      },
      {
        "astId": 11148,
        "contract": "contracts/collateral/rc20/MocCARC20.sol:MocCARC20",
        "label": "tpiou",
        "offset": 0,
        "slot": "329",
        "type": "t_array(t_int256)dyn_storage"
      },
      {
        "astId": 11151,
        "contract": "contracts/collateral/rc20/MocCARC20.sol:MocCARC20",
        "label": "pACtpLstop",
        "offset": 0,
        "slot": "330",
        "type": "t_array(t_uint256)dyn_storage"
      },
      {
        "astId": 12382,
        "contract": "contracts/collateral/rc20/MocCARC20.sol:MocCARC20",
        "label": "__gap",
        "offset": 0,
        "slot": "331",
        "type": "t_array(t_uint256)50_storage"
      },
      {
        "astId": 15131,
        "contract": "contracts/collateral/rc20/MocCARC20.sol:MocCARC20",
        "label": "tpEma",
        "offset": 0,
        "slot": "381",
        "type": "t_array(t_struct(EmaItem)15127_storage)dyn_storage"
      },
      {
        "astId": 15133,
        "contract": "contracts/collateral/rc20/MocCARC20.sol:MocCARC20",
        "label": "nextEmaCalculation",
        "offset": 0,
        "slot": "382",
        "type": "t_uint256"
      },
      {
        "astId": 15135,
        "contract": "contracts/collateral/rc20/MocCARC20.sol:MocCARC20",
        "label": "emaCalculationBlockSpan",
        "offset": 0,
        "slot": "383",
        "type": "t_uint256"
      },
      {
        "astId": 15507,
        "contract": "contracts/collateral/rc20/MocCARC20.sol:MocCARC20",
        "label": "__gap",
        "offset": 0,
        "slot": "384",
        "type": "t_array(t_uint256)50_storage"
      },
      {
        "astId": 15518,
        "contract": "contracts/collateral/rc20/MocCARC20.sol:MocCARC20",
        "label": "bes",
        "offset": 0,
        "slot": "434",
        "type": "t_uint256"
      },
      {
        "astId": 15520,
        "contract": "contracts/collateral/rc20/MocCARC20.sol:MocCARC20",
        "label": "bns",
        "offset": 0,
        "slot": "435",
        "type": "t_uint256"
      },
      {
        "astId": 15613,
        "contract": "contracts/collateral/rc20/MocCARC20.sol:MocCARC20",
        "label": "__gap",
        "offset": 0,
        "slot": "436",
        "type": "t_array(t_uint256)50_storage"
      },
      {
        "astId": 1413,
        "contract": "contracts/collateral/rc20/MocCARC20.sol:MocCARC20",
        "label": "_status",
        "offset": 0,
        "slot": "486",
        "type": "t_uint256"
      },
      {
        "astId": 1471,
        "contract": "contracts/collateral/rc20/MocCARC20.sol:MocCARC20",
        "label": "__gap",
        "offset": 0,
        "slot": "487",
        "type": "t_array(t_uint256)49_storage"
      },
      {
        "astId": 15106,
        "contract": "contracts/collateral/rc20/MocCARC20.sol:MocCARC20",
        "label": "__gap",
        "offset": 0,
        "slot": "536",
        "type": "t_array(t_uint256)50_storage"
      },
      {
        "astId": 10560,
        "contract": "contracts/collateral/rc20/MocCARC20.sol:MocCARC20",
        "label": "acToken",
        "offset": 0,
        "slot": "586",
        "type": "t_contract(IERC20)5864"
      },
      {
        "astId": 11007,
        "contract": "contracts/collateral/rc20/MocCARC20.sol:MocCARC20",
        "label": "__gap",
        "offset": 0,
        "slot": "587",
        "type": "t_array(t_uint256)50_storage"
      }
    ],
    "types": {
      "t_address": {
        "encoding": "inplace",
        "label": "address",
        "numberOfBytes": "20"
      },
      "t_array(t_contract(IMocRC20)18868)dyn_storage": {
        "base": "t_contract(IMocRC20)18868",
        "encoding": "dynamic_array",
        "label": "contract IMocRC20[]",
        "numberOfBytes": "32"
      },
      "t_array(t_int256)dyn_storage": {
        "base": "t_int256",
        "encoding": "dynamic_array",
        "label": "int256[]",
        "numberOfBytes": "32"
      },
      "t_array(t_struct(EmaItem)15127_storage)dyn_storage": {
        "base": "t_struct(EmaItem)15127_storage",
        "encoding": "dynamic_array",
        "label": "struct MocEma.EmaItem[]",
        "numberOfBytes": "32"
      },
      "t_array(t_struct(PegContainerItem)11043_storage)dyn_storage": {
        "base": "t_struct(PegContainerItem)11043_storage",
        "encoding": "dynamic_array",
        "label": "struct MocBaseBucket.PegContainerItem[]",
        "numberOfBytes": "32"
      },
      "t_array(t_uint256)49_storage": {
        "base": "t_uint256",
        "encoding": "inplace",
        "label": "uint256[49]",
        "numberOfBytes": "1568"
      },
      "t_array(t_uint256)50_storage": {
        "base": "t_uint256",
        "encoding": "inplace",
        "label": "uint256[50]",
        "numberOfBytes": "1600"
      },
      "t_array(t_uint256)dyn_storage": {
        "base": "t_uint256",
        "encoding": "dynamic_array",
        "label": "uint256[]",
        "numberOfBytes": "32"
      },
      "t_bool": {
        "encoding": "inplace",
        "label": "bool",
        "numberOfBytes": "1"
      },
      "t_contract(IERC20)5864": {
        "encoding": "inplace",
        "label": "contract IERC20",
        "numberOfBytes": "20"
      },
      "t_contract(IGovernor)18837": {
        "encoding": "inplace",
        "label": "contract IGovernor",
        "numberOfBytes": "20"
      },
      "t_contract(IMocRC20)18868": {
        "encoding": "inplace",
        "label": "contract IMocRC20",
        "numberOfBytes": "20"
      },
      "t_contract(IPriceProvider)18880": {
        "encoding": "inplace",
        "label": "contract IPriceProvider",
        "numberOfBytes": "20"
      },
      "t_contract(MocTC)19874": {
        "encoding": "inplace",
        "label": "contract MocTC",
        "numberOfBytes": "20"
      },
      "t_int256": {
        "encoding": "inplace",
        "label": "int256",
        "numberOfBytes": "32"
      },
      "t_mapping(t_address,t_struct(PeggedTokenIndex)11048_storage)": {
        "encoding": "mapping",
        "key": "t_address",
        "label": "mapping(address => struct MocBaseBucket.PeggedTokenIndex)",
        "numberOfBytes": "32",
        "value": "t_struct(PeggedTokenIndex)11048_storage"
      },
      "t_struct(EmaItem)15127_storage": {
        "encoding": "inplace",
        "label": "struct MocEma.EmaItem",
        "members": [
          {
            "astId": 15124,
            "contract": "contracts/collateral/rc20/MocCARC20.sol:MocCARC20",
            "label": "ema",
            "offset": 0,
            "slot": "0",
            "type": "t_uint256"
          },
          {
            "astId": 15126,
            "contract": "contracts/collateral/rc20/MocCARC20.sol:MocCARC20",
            "label": "sf",
            "offset": 0,
            "slot": "1",
            "type": "t_uint256"
          }
        ],
        "numberOfBytes": "64"
      },
      "t_struct(PegContainerItem)11043_storage": {
        "encoding": "inplace",
        "label": "struct MocBaseBucket.PegContainerItem",
        "members": [
          {
            "astId": 11039,
            "contract": "contracts/collateral/rc20/MocCARC20.sol:MocCARC20",
            "label": "nTP",
            "offset": 0,
            "slot": "0",
            "type": "t_uint256"
          },
          {
            "astId": 11042,
            "contract": "contracts/collateral/rc20/MocCARC20.sol:MocCARC20",
            "label": "priceProvider",
            "offset": 0,
            "slot": "1",
            "type": "t_contract(IPriceProvider)18880"
          }
        ],
        "numberOfBytes": "64"
      },
      "t_struct(PeggedTokenIndex)11048_storage": {
        "encoding": "inplace",
        "label": "struct MocBaseBucket.PeggedTokenIndex",
        "members": [
          {
            "astId": 11045,
            "contract": "contracts/collateral/rc20/MocCARC20.sol:MocCARC20",
            "label": "index",
            "offset": 0,
            "slot": "0",
            "type": "t_uint256"
          },
          {
            "astId": 11047,
            "contract": "contracts/collateral/rc20/MocCARC20.sol:MocCARC20",
            "label": "exists",
            "offset": 0,
            "slot": "1",
            "type": "t_bool"
          }
        ],
        "numberOfBytes": "64"
      },
      "t_uint256": {
        "encoding": "inplace",
        "label": "uint256",
        "numberOfBytes": "32"
      },
      "t_uint8": {
        "encoding": "inplace",
        "label": "uint8",
        "numberOfBytes": "1"
      }
    }
  }
}