{
  "address": "0x242feAAa38fDFe00B091Aea13C8772f8c45f7d07",
  "abi": [
    {
      "inputs": [],
      "name": "BucketAlreadyRegistered",
      "type": "error"
    },
    {
      "inputs": [],
      "name": "ExecutionFeePaymentFailed",
      "type": "error"
    },
    {
      "inputs": [],
      "name": "InvalidAddress",
      "type": "error"
    },
    {
      "inputs": [],
      "name": "InvalidValue",
      "type": "error"
    },
    {
      "inputs": [],
      "name": "NotAllowOnNoneEmptyQueue",
      "type": "error"
    },
    {
      "inputs": [],
      "name": "NotAuthorizedChanger",
      "type": "error"
    },
    {
      "inputs": [],
      "name": "NotWhenPaused",
      "type": "error"
    },
    {
      "inputs": [],
      "name": "OnlyPauser",
      "type": "error"
    },
    {
      "inputs": [],
      "name": "OnlyWhilePaused",
      "type": "error"
    },
    {
      "inputs": [],
      "name": "Unstoppable",
      "type": "error"
    },
    {
      "inputs": [
        {
          "internalType": "uint256",
          "name": "expectedValue",
          "type": "uint256"
        }
      ],
      "name": "WrongExecutionFee",
      "type": "error"
    },
    {
      "anonymous": false,
      "inputs": [
        {
          "indexed": false,
          "internalType": "address",
          "name": "previousAdmin",
          "type": "address"
        },
        {
          "indexed": false,
          "internalType": "address",
          "name": "newAdmin",
          "type": "address"
        }
      ],
      "name": "AdminChanged",
      "type": "event"
    },
    {
      "anonymous": false,
      "inputs": [
        {
          "indexed": true,
          "internalType": "address",
          "name": "beacon",
          "type": "address"
        }
      ],
      "name": "BeaconUpgraded",
      "type": "event"
    },
    {
      "anonymous": false,
      "inputs": [
        {
          "indexed": false,
          "internalType": "uint8",
          "name": "version",
          "type": "uint8"
        }
      ],
      "name": "Initialized",
      "type": "event"
    },
    {
      "anonymous": false,
      "inputs": [
        {
          "indexed": false,
          "internalType": "uint256",
          "name": "operId_",
          "type": "uint256"
        },
        {
          "indexed": false,
          "internalType": "bytes4",
          "name": "errorCode_",
          "type": "bytes4"
        },
        {
          "indexed": false,
          "internalType": "string",
          "name": "msg_",
          "type": "string"
        }
      ],
      "name": "OperationError",
      "type": "event"
    },
    {
      "anonymous": false,
      "inputs": [
        {
          "indexed": true,
          "internalType": "address",
          "name": "executor",
          "type": "address"
        },
        {
          "indexed": true,
          "internalType": "uint256",
          "name": "operId_",
          "type": "uint256"
        }
      ],
      "name": "OperationExecuted",
      "type": "event"
    },
    {
      "anonymous": false,
      "inputs": [
        {
          "indexed": true,
          "internalType": "address",
          "name": "bucket_",
          "type": "address"
        },
        {
          "indexed": false,
          "internalType": "uint256",
          "name": "operId_",
          "type": "uint256"
        },
        {
          "indexed": false,
          "internalType": "enum MocQueue.OperType",
          "name": "operType_",
          "type": "uint8"
        }
      ],
      "name": "OperationQueued",
      "type": "event"
    },
    {
      "anonymous": false,
      "inputs": [
        {
          "indexed": false,
          "internalType": "address",
          "name": "account",
          "type": "address"
        }
      ],
      "name": "Paused",
      "type": "event"
    },
    {
      "anonymous": false,
      "inputs": [
        {
          "indexed": true,
          "internalType": "bytes32",
          "name": "role",
          "type": "bytes32"
        },
        {
          "indexed": true,
          "internalType": "bytes32",
          "name": "previousAdminRole",
          "type": "bytes32"
        },
        {
          "indexed": true,
          "internalType": "bytes32",
          "name": "newAdminRole",
          "type": "bytes32"
        }
      ],
      "name": "RoleAdminChanged",
      "type": "event"
    },
    {
      "anonymous": false,
      "inputs": [
        {
          "indexed": true,
          "internalType": "bytes32",
          "name": "role",
          "type": "bytes32"
        },
        {
          "indexed": true,
          "internalType": "address",
          "name": "account",
          "type": "address"
        },
        {
          "indexed": true,
          "internalType": "address",
          "name": "sender",
          "type": "address"
        }
      ],
      "name": "RoleGranted",
      "type": "event"
    },
    {
      "anonymous": false,
      "inputs": [
        {
          "indexed": true,
          "internalType": "bytes32",
          "name": "role",
          "type": "bytes32"
        },
        {
          "indexed": true,
          "internalType": "address",
          "name": "account",
          "type": "address"
        },
        {
          "indexed": true,
          "internalType": "address",
          "name": "sender",
          "type": "address"
        }
      ],
      "name": "RoleRevoked",
      "type": "event"
    },
    {
      "anonymous": false,
      "inputs": [
        {
          "indexed": true,
          "internalType": "address",
          "name": "sender_",
          "type": "address"
        },
        {
          "indexed": true,
          "internalType": "address",
          "name": "recipient_",
          "type": "address"
        },
        {
          "indexed": false,
          "internalType": "uint256",
          "name": "qTC_",
          "type": "uint256"
        },
        {
          "indexed": false,
          "internalType": "uint256",
          "name": "qAC_",
          "type": "uint256"
        },
        {
          "indexed": false,
          "internalType": "uint256",
          "name": "qACfee_",
          "type": "uint256"
        },
        {
          "indexed": false,
          "internalType": "uint256",
          "name": "qFeeToken_",
          "type": "uint256"
        },
        {
          "indexed": false,
          "internalType": "uint256",
          "name": "qACVendorMarkup_",
          "type": "uint256"
        },
        {
          "indexed": false,
          "internalType": "uint256",
          "name": "qFeeTokenVendorMarkup_",
          "type": "uint256"
        },
        {
          "indexed": false,
          "internalType": "address",
          "name": "vendor_",
          "type": "address"
        },
        {
          "indexed": false,
          "internalType": "uint256",
          "name": "operId_",
          "type": "uint256"
        }
      ],
      "name": "TCMinted",
      "type": "event"
    },
    {
      "anonymous": false,
      "inputs": [
        {
          "indexed": true,
          "internalType": "address",
          "name": "sender_",
          "type": "address"
        },
        {
          "indexed": true,
          "internalType": "address",
          "name": "recipient_",
          "type": "address"
        },
        {
          "indexed": false,
          "internalType": "uint256",
          "name": "qTC_",
          "type": "uint256"
        },
        {
          "indexed": false,
          "internalType": "uint256",
          "name": "qAC_",
          "type": "uint256"
        },
        {
          "indexed": false,
          "internalType": "uint256",
          "name": "qACfee_",
          "type": "uint256"
        },
        {
          "indexed": false,
          "internalType": "uint256",
          "name": "qFeeToken_",
          "type": "uint256"
        },
        {
          "indexed": false,
          "internalType": "uint256",
          "name": "qACVendorMarkup_",
          "type": "uint256"
        },
        {
          "indexed": false,
          "internalType": "uint256",
          "name": "qFeeTokenVendorMarkup_",
          "type": "uint256"
        },
        {
          "indexed": false,
          "internalType": "address",
          "name": "vendor_",
          "type": "address"
        },
        {
          "indexed": false,
          "internalType": "uint256",
          "name": "operId_",
          "type": "uint256"
        }
      ],
      "name": "TCRedeemed",
      "type": "event"
    },
    {
      "anonymous": false,
      "inputs": [
        {
          "indexed": true,
          "internalType": "address",
          "name": "tp_",
          "type": "address"
        },
        {
          "indexed": true,
          "internalType": "address",
          "name": "sender_",
          "type": "address"
        },
        {
          "indexed": true,
          "internalType": "address",
          "name": "recipient_",
          "type": "address"
        },
        {
          "indexed": false,
          "internalType": "uint256",
          "name": "qTC_",
          "type": "uint256"
        },
        {
          "indexed": false,
          "internalType": "uint256",
          "name": "qTP_",
          "type": "uint256"
        },
        {
          "indexed": false,
          "internalType": "uint256",
          "name": "qACfee_",
          "type": "uint256"
        },
        {
          "indexed": false,
          "internalType": "uint256",
          "name": "qFeeToken_",
          "type": "uint256"
        },
        {
          "indexed": false,
          "internalType": "uint256",
          "name": "qACVendorMarkup_",
          "type": "uint256"
        },
        {
          "indexed": false,
          "internalType": "uint256",
          "name": "qFeeTokenVendorMarkup_",
          "type": "uint256"
        },
        {
          "indexed": false,
          "internalType": "address",
          "name": "vendor_",
          "type": "address"
        },
        {
          "indexed": false,
          "internalType": "uint256",
          "name": "operId_",
          "type": "uint256"
        }
      ],
      "name": "TCSwappedForTP",
      "type": "event"
    },
    {
      "anonymous": false,
      "inputs": [
        {
          "indexed": true,
          "internalType": "address",
          "name": "tp_",
          "type": "address"
        },
        {
          "indexed": true,
          "internalType": "address",
          "name": "sender_",
          "type": "address"
        },
        {
          "indexed": true,
          "internalType": "address",
          "name": "recipient_",
          "type": "address"
        },
        {
          "indexed": false,
          "internalType": "uint256",
          "name": "qTC_",
          "type": "uint256"
        },
        {
          "indexed": false,
          "internalType": "uint256",
          "name": "qTP_",
          "type": "uint256"
        },
        {
          "indexed": false,
          "internalType": "uint256",
          "name": "qAC_",
          "type": "uint256"
        },
        {
          "indexed": false,
          "internalType": "uint256",
          "name": "qACfee_",
          "type": "uint256"
        },
        {
          "indexed": false,
          "internalType": "uint256",
          "name": "qFeeToken_",
          "type": "uint256"
        },
        {
          "indexed": false,
          "internalType": "uint256",
          "name": "qACVendorMarkup_",
          "type": "uint256"
        },
        {
          "indexed": false,
          "internalType": "uint256",
          "name": "qFeeTokenVendorMarkup_",
          "type": "uint256"
        },
        {
          "indexed": false,
          "internalType": "address",
          "name": "vendor_",
          "type": "address"
        },
        {
          "indexed": false,
          "internalType": "uint256",
          "name": "operId_",
          "type": "uint256"
        }
      ],
      "name": "TCandTPMinted",
      "type": "event"
    },
    {
      "anonymous": false,
      "inputs": [
        {
          "indexed": true,
          "internalType": "address",
          "name": "tp_",
          "type": "address"
        },
        {
          "indexed": true,
          "internalType": "address",
          "name": "sender_",
          "type": "address"
        },
        {
          "indexed": true,
          "internalType": "address",
          "name": "recipient_",
          "type": "address"
        },
        {
          "indexed": false,
          "internalType": "uint256",
          "name": "qTC_",
          "type": "uint256"
        },
        {
          "indexed": false,
          "internalType": "uint256",
          "name": "qTP_",
          "type": "uint256"
        },
        {
          "indexed": false,
          "internalType": "uint256",
          "name": "qAC_",
          "type": "uint256"
        },
        {
          "indexed": false,
          "internalType": "uint256",
          "name": "qACfee_",
          "type": "uint256"
        },
        {
          "indexed": false,
          "internalType": "uint256",
          "name": "qFeeToken_",
          "type": "uint256"
        },
        {
          "indexed": false,
          "internalType": "uint256",
          "name": "qACVendorMarkup_",
          "type": "uint256"
        },
        {
          "indexed": false,
          "internalType": "uint256",
          "name": "qFeeTokenVendorMarkup_",
          "type": "uint256"
        },
        {
          "indexed": false,
          "internalType": "address",
          "name": "vendor_",
          "type": "address"
        },
        {
          "indexed": false,
          "internalType": "uint256",
          "name": "operId_",
          "type": "uint256"
        }
      ],
      "name": "TCandTPRedeemed",
      "type": "event"
    },
    {
      "anonymous": false,
      "inputs": [
        {
          "indexed": true,
          "internalType": "address",
          "name": "tp",
          "type": "address"
        },
        {
          "indexed": true,
          "internalType": "address",
          "name": "sender_",
          "type": "address"
        },
        {
          "indexed": true,
          "internalType": "address",
          "name": "recipient_",
          "type": "address"
        },
        {
          "indexed": false,
          "internalType": "uint256",
          "name": "qTP_",
          "type": "uint256"
        },
        {
          "indexed": false,
          "internalType": "uint256",
          "name": "qAC_",
          "type": "uint256"
        },
        {
          "indexed": false,
          "internalType": "uint256",
          "name": "qACfee_",
          "type": "uint256"
        },
        {
          "indexed": false,
          "internalType": "uint256",
          "name": "qFeeToken_",
          "type": "uint256"
        },
        {
          "indexed": false,
          "internalType": "uint256",
          "name": "qACVendorMarkup_",
          "type": "uint256"
        },
        {
          "indexed": false,
          "internalType": "uint256",
          "name": "qFeeTokenVendorMarkup_",
          "type": "uint256"
        },
        {
          "indexed": false,
          "internalType": "address",
          "name": "vendor_",
          "type": "address"
        },
        {
          "indexed": false,
          "internalType": "uint256",
          "name": "operId_",
          "type": "uint256"
        }
      ],
      "name": "TPMinted",
      "type": "event"
    },
    {
      "anonymous": false,
      "inputs": [
        {
          "indexed": true,
          "internalType": "address",
          "name": "tp_",
          "type": "address"
        },
        {
          "indexed": true,
          "internalType": "address",
          "name": "sender_",
          "type": "address"
        },
        {
          "indexed": true,
          "internalType": "address",
          "name": "recipient_",
          "type": "address"
        },
        {
          "indexed": false,
          "internalType": "uint256",
          "name": "qTP_",
          "type": "uint256"
        },
        {
          "indexed": false,
          "internalType": "uint256",
          "name": "qAC_",
          "type": "uint256"
        },
        {
          "indexed": false,
          "internalType": "uint256",
          "name": "qACfee_",
          "type": "uint256"
        },
        {
          "indexed": false,
          "internalType": "uint256",
          "name": "qFeeToken_",
          "type": "uint256"
        },
        {
          "indexed": false,
          "internalType": "uint256",
          "name": "qACVendorMarkup_",
          "type": "uint256"
        },
        {
          "indexed": false,
          "internalType": "uint256",
          "name": "qFeeTokenVendorMarkup_",
          "type": "uint256"
        },
        {
          "indexed": false,
          "internalType": "address",
          "name": "vendor_",
          "type": "address"
        },
        {
          "indexed": false,
          "internalType": "uint256",
          "name": "operId_",
          "type": "uint256"
        }
      ],
      "name": "TPRedeemed",
      "type": "event"
    },
    {
      "anonymous": false,
      "inputs": [
        {
          "indexed": true,
          "internalType": "address",
          "name": "tp_",
          "type": "address"
        },
        {
          "indexed": true,
          "internalType": "address",
          "name": "sender_",
          "type": "address"
        },
        {
          "indexed": true,
          "internalType": "address",
          "name": "recipient_",
          "type": "address"
        },
        {
          "indexed": false,
          "internalType": "uint256",
          "name": "qTP_",
          "type": "uint256"
        },
        {
          "indexed": false,
          "internalType": "uint256",
          "name": "qTC_",
          "type": "uint256"
        },
        {
          "indexed": false,
          "internalType": "uint256",
          "name": "qACfee_",
          "type": "uint256"
        },
        {
          "indexed": false,
          "internalType": "uint256",
          "name": "qFeeToken_",
          "type": "uint256"
        },
        {
          "indexed": false,
          "internalType": "uint256",
          "name": "qACVendorMarkup_",
          "type": "uint256"
        },
        {
          "indexed": false,
          "internalType": "uint256",
          "name": "qFeeTokenVendorMarkup_",
          "type": "uint256"
        },
        {
          "indexed": false,
          "internalType": "address",
          "name": "vendor_",
          "type": "address"
        },
        {
          "indexed": false,
          "internalType": "uint256",
          "name": "operId_",
          "type": "uint256"
        }
      ],
      "name": "TPSwappedForTC",
      "type": "event"
    },
    {
      "anonymous": false,
      "inputs": [
        {
          "indexed": true,
          "internalType": "address",
          "name": "tpFrom_",
          "type": "address"
        },
        {
          "indexed": false,
          "internalType": "address",
          "name": "tpTo_",
          "type": "address"
        },
        {
          "indexed": true,
          "internalType": "address",
          "name": "sender_",
          "type": "address"
        },
        {
          "indexed": true,
          "internalType": "address",
          "name": "recipient_",
          "type": "address"
        },
        {
          "indexed": false,
          "internalType": "uint256",
          "name": "qTPfrom_",
          "type": "uint256"
        },
        {
          "indexed": false,
          "internalType": "uint256",
          "name": "qTPto_",
          "type": "uint256"
        },
        {
          "indexed": false,
          "internalType": "uint256",
          "name": "qACfee_",
          "type": "uint256"
        },
        {
          "indexed": false,
          "internalType": "uint256",
          "name": "qFeeToken_",
          "type": "uint256"
        },
        {
          "indexed": false,
          "internalType": "uint256",
          "name": "qACVendorMarkup_",
          "type": "uint256"
        },
        {
          "indexed": false,
          "internalType": "uint256",
          "name": "qFeeTokenVendorMarkup_",
          "type": "uint256"
        },
        {
          "indexed": false,
          "internalType": "address",
          "name": "vendor_",
          "type": "address"
        },
        {
          "indexed": false,
          "internalType": "uint256",
          "name": "operId_",
          "type": "uint256"
        }
      ],
      "name": "TPSwappedForTP",
      "type": "event"
    },
    {
      "anonymous": false,
      "inputs": [
        {
          "indexed": false,
          "internalType": "uint256",
          "name": "operId_",
          "type": "uint256"
        },
        {
          "indexed": false,
          "internalType": "bytes",
          "name": "reason_",
          "type": "bytes"
        }
      ],
      "name": "UnhandledError",
      "type": "event"
    },
    {
      "anonymous": false,
      "inputs": [
        {
          "indexed": false,
          "internalType": "address",
          "name": "account",
          "type": "address"
        }
      ],
      "name": "Unpaused",
      "type": "event"
    },
    {
      "anonymous": false,
      "inputs": [
        {
          "indexed": true,
          "internalType": "address",
          "name": "implementation",
          "type": "address"
        }
      ],
      "name": "Upgraded",
      "type": "event"
    },
    {
      "inputs": [],
      "name": "DEFAULT_ADMIN_ROLE",
      "outputs": [
        {
          "internalType": "bytes32",
          "name": "",
          "type": "bytes32"
        }
      ],
      "stateMutability": "view",
      "type": "function"
    },
    {
      "inputs": [
        {
          "internalType": "contract IGovernor",
          "name": "newGovernor_",
          "type": "address"
        }
      ],
      "name": "changeGovernor",
      "outputs": [],
      "stateMutability": "nonpayable",
      "type": "function"
    },
    {
      "inputs": [
        {
          "internalType": "address",
          "name": "executionFeeRecipient",
          "type": "address"
        }
      ],
      "name": "execute",
      "outputs": [],
      "stateMutability": "nonpayable",
      "type": "function"
    },
    {
      "inputs": [],
      "name": "firstOperId",
      "outputs": [
        {
          "internalType": "uint256",
          "name": "",
          "type": "uint256"
        }
      ],
      "stateMutability": "view",
      "type": "function"
    },
    {
      "inputs": [
        {
          "internalType": "bytes32",
          "name": "role",
          "type": "bytes32"
        }
      ],
      "name": "getRoleAdmin",
      "outputs": [
        {
          "internalType": "bytes32",
          "name": "",
          "type": "bytes32"
        }
      ],
      "stateMutability": "view",
      "type": "function"
    },
    {
      "inputs": [],
      "name": "governor",
      "outputs": [
        {
          "internalType": "contract IGovernor",
          "name": "",
          "type": "address"
        }
      ],
      "stateMutability": "view",
      "type": "function"
    },
    {
      "inputs": [
        {
          "internalType": "bytes32",
          "name": "role",
          "type": "bytes32"
        },
        {
          "internalType": "address",
          "name": "account",
          "type": "address"
        }
      ],
      "name": "grantRole",
      "outputs": [],
      "stateMutability": "nonpayable",
      "type": "function"
    },
    {
      "inputs": [
        {
          "internalType": "bytes32",
          "name": "role",
          "type": "bytes32"
        },
        {
          "internalType": "address",
          "name": "account",
          "type": "address"
        }
      ],
      "name": "hasRole",
      "outputs": [
        {
          "internalType": "bool",
          "name": "",
          "type": "bool"
        }
      ],
      "stateMutability": "view",
      "type": "function"
    },
    {
      "inputs": [
        {
          "internalType": "address",
          "name": "governor_",
          "type": "address"
        },
        {
          "internalType": "address",
          "name": "pauser_",
          "type": "address"
        },
        {
          "internalType": "uint128",
          "name": "minOperWaitingBlk_",
          "type": "uint128"
        },
        {
          "internalType": "uint128",
          "name": "maxOperPerBatch_",
          "type": "uint128"
        },
        {
          "components": [
            {
              "internalType": "uint256",
              "name": "tcMintExecFee",
              "type": "uint256"
            },
            {
              "internalType": "uint256",
              "name": "tcRedeemExecFee",
              "type": "uint256"
            },
            {
              "internalType": "uint256",
              "name": "tpMintExecFee",
              "type": "uint256"
            },
            {
              "internalType": "uint256",
              "name": "tpRedeemExecFee",
              "type": "uint256"
            },
            {
              "internalType": "uint256",
              "name": "swapTPforTPExecFee",
              "type": "uint256"
            },
            {
              "internalType": "uint256",
              "name": "swapTPforTCExecFee",
              "type": "uint256"
            },
            {
              "internalType": "uint256",
              "name": "swapTCforTPExecFee",
              "type": "uint256"
            },
            {
              "internalType": "uint256",
              "name": "redeemTCandTPExecFee",
              "type": "uint256"
            },
            {
              "internalType": "uint256",
              "name": "mintTCandTPExecFee",
              "type": "uint256"
            }
          ],
          "internalType": "struct MocQueueExecFees.InitializeMocQueueExecFeesParams",
          "name": "mocQueueExecFeesParams_",
          "type": "tuple"
        }
      ],
      "name": "initialize",
      "outputs": [],
      "stateMutability": "nonpayable",
      "type": "function"
    },
    {
      "inputs": [],
      "name": "isEmpty",
      "outputs": [
        {
          "internalType": "bool",
          "name": "",
          "type": "bool"
        }
      ],
      "stateMutability": "view",
      "type": "function"
    },
    {
      "inputs": [],
      "name": "makeStoppable",
      "outputs": [],
      "stateMutability": "nonpayable",
      "type": "function"
    },
    {
      "inputs": [],
      "name": "makeUnstoppable",
      "outputs": [],
      "stateMutability": "nonpayable",
      "type": "function"
    },
    {
      "inputs": [],
      "name": "maxOperPerBatch",
      "outputs": [
        {
          "internalType": "uint128",
          "name": "",
          "type": "uint128"
        }
      ],
      "stateMutability": "view",
      "type": "function"
    },
    {
      "inputs": [],
      "name": "minOperWaitingBlk",
      "outputs": [
        {
          "internalType": "uint128",
          "name": "",
          "type": "uint128"
        }
      ],
      "stateMutability": "view",
      "type": "function"
    },
    {
      "inputs": [],
      "name": "mintTCandTPExecFee",
      "outputs": [
        {
          "internalType": "uint256",
          "name": "",
          "type": "uint256"
        }
      ],
      "stateMutability": "view",
      "type": "function"
    },
    {
      "inputs": [],
      "name": "mocCore",
      "outputs": [
        {
          "internalType": "contract MocCARC20Deferred",
          "name": "",
          "type": "address"
        }
      ],
      "stateMutability": "view",
      "type": "function"
    },
    {
      "inputs": [],
      "name": "operIdCount",
      "outputs": [
        {
          "internalType": "uint256",
          "name": "",
          "type": "uint256"
        }
      ],
      "stateMutability": "view",
      "type": "function"
    },
    {
      "inputs": [
        {
          "internalType": "uint256",
          "name": "",
          "type": "uint256"
        }
      ],
      "name": "operationsMintTC",
      "outputs": [
        {
          "internalType": "uint256",
          "name": "qTC",
          "type": "uint256"
        },
        {
          "internalType": "uint256",
          "name": "qACmax",
          "type": "uint256"
        },
        {
          "internalType": "address",
          "name": "sender",
          "type": "address"
        },
        {
          "internalType": "address",
          "name": "recipient",
          "type": "address"
        },
        {
          "internalType": "address",
          "name": "vendor",
          "type": "address"
        }
      ],
      "stateMutability": "view",
      "type": "function"
    },
    {
      "inputs": [
        {
          "internalType": "uint256",
          "name": "",
          "type": "uint256"
        }
      ],
      "name": "operationsMintTCandTP",
      "outputs": [
        {
          "internalType": "address",
          "name": "tp",
          "type": "address"
        },
        {
          "internalType": "uint256",
          "name": "qTP",
          "type": "uint256"
        },
        {
          "internalType": "uint256",
          "name": "qACmax",
          "type": "uint256"
        },
        {
          "internalType": "address",
          "name": "sender",
          "type": "address"
        },
        {
          "internalType": "address",
          "name": "recipient",
          "type": "address"
        },
        {
          "internalType": "address",
          "name": "vendor",
          "type": "address"
        }
      ],
      "stateMutability": "view",
      "type": "function"
    },
    {
      "inputs": [
        {
          "internalType": "uint256",
          "name": "",
          "type": "uint256"
        }
      ],
      "name": "operationsMintTP",
      "outputs": [
        {
          "internalType": "address",
          "name": "tp",
          "type": "address"
        },
        {
          "internalType": "uint256",
          "name": "qTP",
          "type": "uint256"
        },
        {
          "internalType": "uint256",
          "name": "qACmax",
          "type": "uint256"
        },
        {
          "internalType": "address",
          "name": "sender",
          "type": "address"
        },
        {
          "internalType": "address",
          "name": "recipient",
          "type": "address"
        },
        {
          "internalType": "address",
          "name": "vendor",
          "type": "address"
        }
      ],
      "stateMutability": "view",
      "type": "function"
    },
    {
      "inputs": [
        {
          "internalType": "uint256",
          "name": "",
          "type": "uint256"
        }
      ],
      "name": "operationsRedeemTC",
      "outputs": [
        {
          "internalType": "uint256",
          "name": "qTC",
          "type": "uint256"
        },
        {
          "internalType": "uint256",
          "name": "qACmin",
          "type": "uint256"
        },
        {
          "internalType": "address",
          "name": "sender",
          "type": "address"
        },
        {
          "internalType": "address",
          "name": "recipient",
          "type": "address"
        },
        {
          "internalType": "address",
          "name": "vendor",
          "type": "address"
        }
      ],
      "stateMutability": "view",
      "type": "function"
    },
    {
      "inputs": [
        {
          "internalType": "uint256",
          "name": "",
          "type": "uint256"
        }
      ],
      "name": "operationsRedeemTCandTP",
      "outputs": [
        {
          "internalType": "address",
          "name": "tp",
          "type": "address"
        },
        {
          "internalType": "uint256",
          "name": "qTC",
          "type": "uint256"
        },
        {
          "internalType": "uint256",
          "name": "qTP",
          "type": "uint256"
        },
        {
          "internalType": "uint256",
          "name": "qACmin",
          "type": "uint256"
        },
        {
          "internalType": "address",
          "name": "sender",
          "type": "address"
        },
        {
          "internalType": "address",
          "name": "recipient",
          "type": "address"
        },
        {
          "internalType": "address",
          "name": "vendor",
          "type": "address"
        }
      ],
      "stateMutability": "view",
      "type": "function"
    },
    {
      "inputs": [
        {
          "internalType": "uint256",
          "name": "",
          "type": "uint256"
        }
      ],
      "name": "operationsRedeemTP",
      "outputs": [
        {
          "internalType": "address",
          "name": "tp",
          "type": "address"
        },
        {
          "internalType": "uint256",
          "name": "qTP",
          "type": "uint256"
        },
        {
          "internalType": "uint256",
          "name": "qACmin",
          "type": "uint256"
        },
        {
          "internalType": "address",
          "name": "sender",
          "type": "address"
        },
        {
          "internalType": "address",
          "name": "recipient",
          "type": "address"
        },
        {
          "internalType": "address",
          "name": "vendor",
          "type": "address"
        }
      ],
      "stateMutability": "view",
      "type": "function"
    },
    {
      "inputs": [
        {
          "internalType": "uint256",
          "name": "",
          "type": "uint256"
        }
      ],
      "name": "operationsSwapTCforTP",
      "outputs": [
        {
          "internalType": "address",
          "name": "tp",
          "type": "address"
        },
        {
          "internalType": "uint256",
          "name": "qTC",
          "type": "uint256"
        },
        {
          "internalType": "uint256",
          "name": "qTPmin",
          "type": "uint256"
        },
        {
          "internalType": "uint256",
          "name": "qACmax",
          "type": "uint256"
        },
        {
          "internalType": "address",
          "name": "sender",
          "type": "address"
        },
        {
          "internalType": "address",
          "name": "recipient",
          "type": "address"
        },
        {
          "internalType": "address",
          "name": "vendor",
          "type": "address"
        }
      ],
      "stateMutability": "view",
      "type": "function"
    },
    {
      "inputs": [
        {
          "internalType": "uint256",
          "name": "",
          "type": "uint256"
        }
      ],
      "name": "operationsSwapTPforTC",
      "outputs": [
        {
          "internalType": "address",
          "name": "tp",
          "type": "address"
        },
        {
          "internalType": "uint256",
          "name": "qTP",
          "type": "uint256"
        },
        {
          "internalType": "uint256",
          "name": "qTCmin",
          "type": "uint256"
        },
        {
          "internalType": "uint256",
          "name": "qACmax",
          "type": "uint256"
        },
        {
          "internalType": "address",
          "name": "sender",
          "type": "address"
        },
        {
          "internalType": "address",
          "name": "recipient",
          "type": "address"
        },
        {
          "internalType": "address",
          "name": "vendor",
          "type": "address"
        }
      ],
      "stateMutability": "view",
      "type": "function"
    },
    {
      "inputs": [
        {
          "internalType": "uint256",
          "name": "",
          "type": "uint256"
        }
      ],
      "name": "operationsSwapTPforTP",
      "outputs": [
        {
          "internalType": "address",
          "name": "tpFrom",
          "type": "address"
        },
        {
          "internalType": "address",
          "name": "tpTo",
          "type": "address"
        },
        {
          "internalType": "uint256",
          "name": "qTP",
          "type": "uint256"
        },
        {
          "internalType": "uint256",
          "name": "qTPmin",
          "type": "uint256"
        },
        {
          "internalType": "uint256",
          "name": "qACmax",
          "type": "uint256"
        },
        {
          "internalType": "address",
          "name": "sender",
          "type": "address"
        },
        {
          "internalType": "address",
          "name": "recipient",
          "type": "address"
        },
        {
          "internalType": "address",
          "name": "vendor",
          "type": "address"
        }
      ],
      "stateMutability": "view",
      "type": "function"
    },
    {
      "inputs": [
        {
          "internalType": "uint256",
          "name": "",
          "type": "uint256"
        }
      ],
      "name": "opersInfo",
      "outputs": [
        {
          "internalType": "enum MocQueue.OperType",
          "name": "operType",
          "type": "uint8"
        },
        {
          "internalType": "uint248",
          "name": "queuedBlk",
          "type": "uint248"
        }
      ],
      "stateMutability": "view",
      "type": "function"
    },
    {
      "inputs": [],
      "name": "pause",
      "outputs": [],
      "stateMutability": "nonpayable",
      "type": "function"
    },
    {
      "inputs": [],
      "name": "paused",
      "outputs": [
        {
          "internalType": "bool",
          "name": "",
          "type": "bool"
        }
      ],
      "stateMutability": "view",
      "type": "function"
    },
    {
      "inputs": [],
      "name": "pauser",
      "outputs": [
        {
          "internalType": "address",
          "name": "",
          "type": "address"
        }
      ],
      "stateMutability": "view",
      "type": "function"
    },
    {
      "inputs": [],
      "name": "proxiableUUID",
      "outputs": [
        {
          "internalType": "bytes32",
          "name": "",
          "type": "bytes32"
        }
      ],
      "stateMutability": "view",
      "type": "function"
    },
    {
      "inputs": [
        {
          "components": [
            {
              "internalType": "uint256",
              "name": "qTC",
              "type": "uint256"
            },
            {
              "internalType": "uint256",
              "name": "qACmax",
              "type": "uint256"
            },
            {
              "internalType": "address",
              "name": "sender",
              "type": "address"
            },
            {
              "internalType": "address",
              "name": "recipient",
              "type": "address"
            },
            {
              "internalType": "address",
              "name": "vendor",
              "type": "address"
            }
          ],
          "internalType": "struct MocCore.MintTCParams",
          "name": "params",
          "type": "tuple"
        }
      ],
      "name": "queueMintTC",
      "outputs": [
        {
          "internalType": "uint256",
          "name": "operId",
          "type": "uint256"
        }
      ],
      "stateMutability": "payable",
      "type": "function"
    },
    {
      "inputs": [
        {
          "components": [
            {
              "internalType": "address",
              "name": "tp",
              "type": "address"
            },
            {
              "internalType": "uint256",
              "name": "qTP",
              "type": "uint256"
            },
            {
              "internalType": "uint256",
              "name": "qACmax",
              "type": "uint256"
            },
            {
              "internalType": "address",
              "name": "sender",
              "type": "address"
            },
            {
              "internalType": "address",
              "name": "recipient",
              "type": "address"
            },
            {
              "internalType": "address",
              "name": "vendor",
              "type": "address"
            }
          ],
          "internalType": "struct MocCommons.MintTCandTPParams",
          "name": "params",
          "type": "tuple"
        }
      ],
      "name": "queueMintTCandTP",
      "outputs": [
        {
          "internalType": "uint256",
          "name": "operId",
          "type": "uint256"
        }
      ],
      "stateMutability": "payable",
      "type": "function"
    },
    {
      "inputs": [
        {
          "components": [
            {
              "internalType": "address",
              "name": "tp",
              "type": "address"
            },
            {
              "internalType": "uint256",
              "name": "qTP",
              "type": "uint256"
            },
            {
              "internalType": "uint256",
              "name": "qACmax",
              "type": "uint256"
            },
            {
              "internalType": "address",
              "name": "sender",
              "type": "address"
            },
            {
              "internalType": "address",
              "name": "recipient",
              "type": "address"
            },
            {
              "internalType": "address",
              "name": "vendor",
              "type": "address"
            }
          ],
          "internalType": "struct MocCore.MintTPParams",
          "name": "params",
          "type": "tuple"
        }
      ],
      "name": "queueMintTP",
      "outputs": [
        {
          "internalType": "uint256",
          "name": "operId",
          "type": "uint256"
        }
      ],
      "stateMutability": "payable",
      "type": "function"
    },
    {
      "inputs": [
        {
          "components": [
            {
              "internalType": "uint256",
              "name": "qTC",
              "type": "uint256"
            },
            {
              "internalType": "uint256",
              "name": "qACmin",
              "type": "uint256"
            },
            {
              "internalType": "address",
              "name": "sender",
              "type": "address"
            },
            {
              "internalType": "address",
              "name": "recipient",
              "type": "address"
            },
            {
              "internalType": "address",
              "name": "vendor",
              "type": "address"
            }
          ],
          "internalType": "struct MocCore.RedeemTCParams",
          "name": "params",
          "type": "tuple"
        }
      ],
      "name": "queueRedeemTC",
      "outputs": [
        {
          "internalType": "uint256",
          "name": "operId",
          "type": "uint256"
        }
      ],
      "stateMutability": "payable",
      "type": "function"
    },
    {
      "inputs": [
        {
          "components": [
            {
              "internalType": "address",
              "name": "tp",
              "type": "address"
            },
            {
              "internalType": "uint256",
              "name": "qTC",
              "type": "uint256"
            },
            {
              "internalType": "uint256",
              "name": "qTP",
              "type": "uint256"
            },
            {
              "internalType": "uint256",
              "name": "qACmin",
              "type": "uint256"
            },
            {
              "internalType": "address",
              "name": "sender",
              "type": "address"
            },
            {
              "internalType": "address",
              "name": "recipient",
              "type": "address"
            },
            {
              "internalType": "address",
              "name": "vendor",
              "type": "address"
            }
          ],
          "internalType": "struct MocCommons.RedeemTCandTPParams",
          "name": "params",
          "type": "tuple"
        }
      ],
      "name": "queueRedeemTCandTP",
      "outputs": [
        {
          "internalType": "uint256",
          "name": "operId",
          "type": "uint256"
        }
      ],
      "stateMutability": "payable",
      "type": "function"
    },
    {
      "inputs": [
        {
          "components": [
            {
              "internalType": "address",
              "name": "tp",
              "type": "address"
            },
            {
              "internalType": "uint256",
              "name": "qTP",
              "type": "uint256"
            },
            {
              "internalType": "uint256",
              "name": "qACmin",
              "type": "uint256"
            },
            {
              "internalType": "address",
              "name": "sender",
              "type": "address"
            },
            {
              "internalType": "address",
              "name": "recipient",
              "type": "address"
            },
            {
              "internalType": "address",
              "name": "vendor",
              "type": "address"
            }
          ],
          "internalType": "struct MocCommons.RedeemTPParams",
          "name": "params",
          "type": "tuple"
        }
      ],
      "name": "queueRedeemTP",
      "outputs": [
        {
          "internalType": "uint256",
          "name": "operId",
          "type": "uint256"
        }
      ],
      "stateMutability": "payable",
      "type": "function"
    },
    {
      "inputs": [
        {
          "components": [
            {
              "internalType": "address",
              "name": "tp",
              "type": "address"
            },
            {
              "internalType": "uint256",
              "name": "qTC",
              "type": "uint256"
            },
            {
              "internalType": "uint256",
              "name": "qTPmin",
              "type": "uint256"
            },
            {
              "internalType": "uint256",
              "name": "qACmax",
              "type": "uint256"
            },
            {
              "internalType": "address",
              "name": "sender",
              "type": "address"
            },
            {
              "internalType": "address",
              "name": "recipient",
              "type": "address"
            },
            {
              "internalType": "address",
              "name": "vendor",
              "type": "address"
            }
          ],
          "internalType": "struct MocCommons.SwapTCforTPParams",
          "name": "params",
          "type": "tuple"
        }
      ],
      "name": "queueSwapTCforTP",
      "outputs": [
        {
          "internalType": "uint256",
          "name": "operId",
          "type": "uint256"
        }
      ],
      "stateMutability": "payable",
      "type": "function"
    },
    {
      "inputs": [
        {
          "components": [
            {
              "internalType": "address",
              "name": "tp",
              "type": "address"
            },
            {
              "internalType": "uint256",
              "name": "qTP",
              "type": "uint256"
            },
            {
              "internalType": "uint256",
              "name": "qTCmin",
              "type": "uint256"
            },
            {
              "internalType": "uint256",
              "name": "qACmax",
              "type": "uint256"
            },
            {
              "internalType": "address",
              "name": "sender",
              "type": "address"
            },
            {
              "internalType": "address",
              "name": "recipient",
              "type": "address"
            },
            {
              "internalType": "address",
              "name": "vendor",
              "type": "address"
            }
          ],
          "internalType": "struct MocCommons.SwapTPforTCParams",
          "name": "params",
          "type": "tuple"
        }
      ],
      "name": "queueSwapTPforTC",
      "outputs": [
        {
          "internalType": "uint256",
          "name": "operId",
          "type": "uint256"
        }
      ],
      "stateMutability": "payable",
      "type": "function"
    },
    {
      "inputs": [
        {
          "components": [
            {
              "internalType": "address",
              "name": "tpFrom",
              "type": "address"
            },
            {
              "internalType": "address",
              "name": "tpTo",
              "type": "address"
            },
            {
              "internalType": "uint256",
              "name": "qTP",
              "type": "uint256"
            },
            {
              "internalType": "uint256",
              "name": "qTPmin",
              "type": "uint256"
            },
            {
              "internalType": "uint256",
              "name": "qACmax",
              "type": "uint256"
            },
            {
              "internalType": "address",
              "name": "sender",
              "type": "address"
            },
            {
              "internalType": "address",
              "name": "recipient",
              "type": "address"
            },
            {
              "internalType": "address",
              "name": "vendor",
              "type": "address"
            }
          ],
          "internalType": "struct MocCommons.SwapTPforTPParams",
          "name": "params",
          "type": "tuple"
        }
      ],
      "name": "queueSwapTPforTP",
      "outputs": [
        {
          "internalType": "uint256",
          "name": "operId",
          "type": "uint256"
        }
      ],
      "stateMutability": "payable",
      "type": "function"
    },
    {
      "inputs": [],
      "name": "readyToExecute",
      "outputs": [
        {
          "internalType": "bool",
          "name": "",
          "type": "bool"
        }
      ],
      "stateMutability": "view",
      "type": "function"
    },
    {
      "inputs": [],
      "name": "redeemTCandTPExecFee",
      "outputs": [
        {
          "internalType": "uint256",
          "name": "",
          "type": "uint256"
        }
      ],
      "stateMutability": "view",
      "type": "function"
    },
    {
      "inputs": [
        {
          "internalType": "contract MocCARC20Deferred",
          "name": "bucket_",
          "type": "address"
        }
      ],
      "name": "registerBucket",
      "outputs": [],
      "stateMutability": "nonpayable",
      "type": "function"
    },
    {
      "inputs": [
        {
          "internalType": "bytes32",
          "name": "role",
          "type": "bytes32"
        },
        {
          "internalType": "address",
          "name": "account",
          "type": "address"
        }
      ],
      "name": "renounceRole",
      "outputs": [],
      "stateMutability": "nonpayable",
      "type": "function"
    },
    {
      "inputs": [
        {
          "internalType": "bytes32",
          "name": "role",
          "type": "bytes32"
        },
        {
          "internalType": "address",
          "name": "account",
          "type": "address"
        }
      ],
      "name": "revokeRole",
      "outputs": [],
      "stateMutability": "nonpayable",
      "type": "function"
    },
    {
      "inputs": [
        {
          "internalType": "uint128",
          "name": "maxOperPerBatch_",
          "type": "uint128"
        }
      ],
      "name": "setMaxOperPerBatch",
      "outputs": [],
      "stateMutability": "nonpayable",
      "type": "function"
    },
    {
      "inputs": [
        {
          "internalType": "uint128",
          "name": "minOperWaitingBlk_",
          "type": "uint128"
        }
      ],
      "name": "setMinOperWaitingBlk",
      "outputs": [],
      "stateMutability": "nonpayable",
      "type": "function"
    },
    {
      "inputs": [
        {
          "internalType": "address",
          "name": "newPauser_",
          "type": "address"
        }
      ],
      "name": "setPauser",
      "outputs": [],
      "stateMutability": "nonpayable",
      "type": "function"
    },
    {
      "inputs": [],
      "name": "stoppable",
      "outputs": [
        {
          "internalType": "bool",
          "name": "",
          "type": "bool"
        }
      ],
      "stateMutability": "view",
      "type": "function"
    },
    {
      "inputs": [
        {
          "internalType": "bytes4",
          "name": "interfaceId",
          "type": "bytes4"
        }
      ],
      "name": "supportsInterface",
      "outputs": [
        {
          "internalType": "bool",
          "name": "",
          "type": "bool"
        }
      ],
      "stateMutability": "view",
      "type": "function"
    },
    {
      "inputs": [],
      "name": "swapTCforTPExecFee",
      "outputs": [
        {
          "internalType": "uint256",
          "name": "",
          "type": "uint256"
        }
      ],
      "stateMutability": "view",
      "type": "function"
    },
    {
      "inputs": [],
      "name": "swapTPforTCExecFee",
      "outputs": [
        {
          "internalType": "uint256",
          "name": "",
          "type": "uint256"
        }
      ],
      "stateMutability": "view",
      "type": "function"
    },
    {
      "inputs": [],
      "name": "swapTPforTPExecFee",
      "outputs": [
        {
          "internalType": "uint256",
          "name": "",
          "type": "uint256"
        }
      ],
      "stateMutability": "view",
      "type": "function"
    },
    {
      "inputs": [],
      "name": "tcMintExecFee",
      "outputs": [
        {
          "internalType": "uint256",
          "name": "",
          "type": "uint256"
        }
      ],
      "stateMutability": "view",
      "type": "function"
    },
    {
      "inputs": [],
      "name": "tcRedeemExecFee",
      "outputs": [
        {
          "internalType": "uint256",
          "name": "",
          "type": "uint256"
        }
      ],
      "stateMutability": "view",
      "type": "function"
    },
    {
      "inputs": [],
      "name": "tpMintExecFee",
      "outputs": [
        {
          "internalType": "uint256",
          "name": "",
          "type": "uint256"
        }
      ],
      "stateMutability": "view",
      "type": "function"
    },
    {
      "inputs": [],
      "name": "tpRedeemExecFee",
      "outputs": [
        {
          "internalType": "uint256",
          "name": "",
          "type": "uint256"
        }
      ],
      "stateMutability": "view",
      "type": "function"
    },
    {
      "inputs": [],
      "name": "unpause",
      "outputs": [],
      "stateMutability": "nonpayable",
      "type": "function"
    },
    {
      "inputs": [
        {
          "components": [
            {
              "internalType": "uint256",
              "name": "tcMintExecFee",
              "type": "uint256"
            },
            {
              "internalType": "uint256",
              "name": "tcRedeemExecFee",
              "type": "uint256"
            },
            {
              "internalType": "uint256",
              "name": "tpMintExecFee",
              "type": "uint256"
            },
            {
              "internalType": "uint256",
              "name": "tpRedeemExecFee",
              "type": "uint256"
            },
            {
              "internalType": "uint256",
              "name": "swapTPforTPExecFee",
              "type": "uint256"
            },
            {
              "internalType": "uint256",
              "name": "swapTPforTCExecFee",
              "type": "uint256"
            },
            {
              "internalType": "uint256",
              "name": "swapTCforTPExecFee",
              "type": "uint256"
            },
            {
              "internalType": "uint256",
              "name": "redeemTCandTPExecFee",
              "type": "uint256"
            },
            {
              "internalType": "uint256",
              "name": "mintTCandTPExecFee",
              "type": "uint256"
            }
          ],
          "internalType": "struct MocQueueExecFees.InitializeMocQueueExecFeesParams",
          "name": "mocQueueExecFeesParams_",
          "type": "tuple"
        }
      ],
      "name": "updateExecutionFees",
      "outputs": [],
      "stateMutability": "nonpayable",
      "type": "function"
    },
    {
      "inputs": [
        {
          "internalType": "address",
          "name": "newImplementation",
          "type": "address"
        }
      ],
      "name": "upgradeTo",
      "outputs": [],
      "stateMutability": "nonpayable",
      "type": "function"
    },
    {
      "inputs": [
        {
          "internalType": "address",
          "name": "newImplementation",
          "type": "address"
        },
        {
          "internalType": "bytes",
          "name": "data",
          "type": "bytes"
        }
      ],
      "name": "upgradeToAndCall",
      "outputs": [],
      "stateMutability": "payable",
      "type": "function"
    }
  ],
  "transactionHash": "0x4f764d59955e8a2e9656f13351407756586e4957f4820a6cd278f12998f9b6af",
  "args": [],
  "numDeployments": 1,
  "solcInputHash": "e8a4ab8ee3ae12243351eea9f9fc8121",
  "bytecode": "0x60a080604052346100315730608052614b30908161003782396080518181816110ef0152818161125e01526122c00152f35b600080fdfe6080604052600436101561001257600080fd5b60003560e01c8062c6e88e1461275757806301ffc9a7146127015780630c340a24146126d85780631826ebf0146126745780631a0c544014612606578063248a9ca3146125d65780632b994849146125b75780632d88af4a146125625780632f2ff15d1461252957806334975a41146123bb57806336568abe146123275780633659cfe61461228e5780633bb4b05c1461224b5780633cbcf4c4146122265780633dc8797a146122075780633f4ba83a1461218d5780633fa9e0c61461216e578063435c7e37146120e457806347d8496a146120175780634981d04e14611fd45780634b64e492146112c15780634f1ef286146111d75780635210570c146111b257806352d1902d146110dc5780635c817aa3146110785780635c975abb146110525780635ee1d2bb1461100857806364d9e82114610fe9578063681fe70c14610fc55780636827435714610f9d5780636b59c22f14610ed05780636b76333014610e6c57806373e3d08614610e4d5780637656cd1014610e2e5780637c50b7e414610dea5780637e81a82114610d1d5780638456cb5914610c875780638a4737ab14610c285780638b20076c14610bc95780638e7e818914610ba157806391d1485414610b4e57806397ac81fb14610b2f5780639aac1c2a14610b105780639fd0506d14610ae3578063a217fddf14610ac7578063ad16c2de14610a59578063bb4872de14610a36578063bbe720d9146109c1578063c84d8bb6146108f4578063d17910e2146108d5578063d547741f1461089a578063d9a862d614610870578063db9014771461064f578063dbb0b6841461062d578063e4c0aaf4146105e7578063e4e1b7291461051a578063e97a4d631461044d578063eeab6f4b1461042e578063f2cee87a1461040f578063fa91a9a5146103225763fb8aafb8146102ba57600080fd5b3461031d57602036600319011261031d5760043560005261026a602052604060002060018060a01b03610319818354169160018401549360028101549180600383015416906005816004850154169301541692604051968796876128bb565b0390f35b600080fd5b60a036600319011261031d57610336612ec1565b61034d600080516020614adb833981519152612f42565b6103596101f854614950565b61026580546040519161036d604084612867565b60028352602083019260018060f81b03431684528260005261027060205260406000209051600a8110156103f95760ff6020958119905160081b1691161790558160005261026983526103c560046040600020614706565b604051828152600284820152600080516020614abb83398151915260403392a26103ef8154614779565b9055604051908152f35b634e487b7160e01b600052602160045260246000fd5b3461031d57600036600319011261031d5760206101fd54604051908152f35b3461031d57600036600319011261031d5760206101fb54604051908152f35b60a036600319011261031d57610461612ec1565b610478600080516020614adb833981519152612f42565b6104846101f754614950565b610265805460405191610498604084612867565b60018352602083019260018060f81b03431684528260005261027060205260406000209051600a8110156103f95760ff6020958119905160081b1691161790558160005261026783526104f060046040600020614706565b604051828152600184820152600080516020614abb83398151915260403392a26103ef8154614779565b60e036600319011261031d5761052e612ec1565b610545600080516020614adb833981519152612f42565b6105516101fe54614950565b610265805460405191610565604084612867565b60068352602083019260018060f81b03431684528260005261027060205260406000209051600a8110156103f95760ff6020958119905160081b1691161790558160005261026c83526105bd600460406000206147f3565b604051828152600684820152600080516020614abb83398151915260403392a26103ef8154614779565b3461031d57602036600319011261031d576004356001600160a01b0381169081900361031d57610615612e3e565b6001600160601b0360a01b6097541617609755600080f35b3461031d57600036600319011261031d5760206102715460801c604051908152f35b3461031d576101a036600319011261031d576001600160a01b036004358181169081900361031d57602435918216820361031d576044356001600160801b039283821680920361031d57606435938416840361031d5761012036608319011261031d576000549260ff8460081c161593848095610863575b801561084c575b156107f05761076592600191868360ff198316176000556107de575b5060ff60005460081c16926106fe84612ee2565b61070784612ee2565b61071084612ee2565b61071984612ee2565b61072284612ee2565b6001600160601b0360a01b609754161760975561073e83612ee2565b60ca5490620100008360b01b039060101b169061ff018360b01b031916171760ca55612ee2565b61076f6084614972565b6000549261078b60ff8560081c1661078681612ee2565b612ee2565b60016102325560801b6001600160801b03191617610271556107a957005b61ff0019166000557f7f26b83ff96e1f2b6a682f133852f6798a09c465da95921460cefb3847402498602060405160018152a1005b61ffff191661010117600055876106ea565b60405162461bcd60e51b815260206004820152602e60248201527f496e697469616c697a61626c653a20636f6e747261637420697320616c72656160448201526d191e481a5b9a5d1a585b1a5e995960921b6064820152608490fd5b50303b1580156106ce5750600160ff8216146106ce565b50600160ff8216106106c7565b3461031d57600036600319011261031d57610264546040516001600160a01b039091168152602090f35b3461031d57604036600319011261031d576004356024356001600160a01b038116810361031d57816108ce6108d3936149c2565b6128f5565b005b3461031d57600036600319011261031d5760206101fa54604051908152f35b60c036600319011261031d57610908612ec1565b61091f600080516020614adb833981519152612f42565b61092b6101fa54614950565b61026580546040519161093f604084612867565b60048352602083019260018060f81b03431684528260005261027060205260406000209051600a8110156103f95760ff6020958119905160081b1691161790558160005261026a835261099760046040600020614788565b604051828152600484820152600080516020614abb83398151915260403392a26103ef8154614779565b3461031d57602036600319011261031d576001600160a01b036004358181169081900361031d576109f0612e3e565b6102648054928316610a2457816108d3936001600160601b0360a01b16179055600080516020614adb8339815191526148ce565b604051630a646b7760e41b8152600490fd5b3461031d57600036600319011261031d57602060ff60ca54166040519015158152f35b3461031d57602036600319011261031d576004803560009081526102696020908152604091829020805460018201546002830154600384015493909601548551928352938201526001600160a01b03948516938101939093528316606083015291909116608082015260a090f35b3461031d57600036600319011261031d57602060405160008152f35b3461031d57600036600319011261031d5760ca5460405160109190911c6001600160a01b03168152602090f35b3461031d57600036600319011261031d5760206101f754604051908152f35b3461031d57600036600319011261031d5760206101f854604051908152f35b3461031d57604036600319011261031d576024356001600160a01b0381169081900361031d57600435600052610193602052604060002090600052602052602060ff604060002054166040519015158152f35b3461031d57600036600319011261031d5760206001600160801b036102715416604051908152f35b3461031d57602036600319011261031d5760043560005261026b602052604060002060018060a01b03610319818354169160018401549360028101549180600383015416906005816004850154169301541692604051968796876128bb565b3461031d57602036600319011261031d57600435600052610268602052604060002060018060a01b03610319818354169160018401549360028101549180600383015416906005816004850154169301541692604051968796876128bb565b3461031d57600036600319011261031d57610ca0612ec1565b60ca54601081901c6001600160a01b03163303610d0b5760ff811615610cf9576101009061ff0019161760ca557f62e78cea01bee320cd4e420270b5ea74000d11b0c9f74754ebdbfc544b05a2586020604051338152a1005b60405163866099c360e01b8152600490fd5b604051631d77d47760e21b8152600490fd5b60c036600319011261031d57610d31612ec1565b610d48600080516020614adb833981519152612f42565b610d546101f954614950565b610265805460405191610d68604084612867565b60038352602083019260018060f81b03431684528260005261027060205260406000209051600a8110156103f95760ff6020958119905160081b169116179055816000526102688352610dc060046040600020614788565b604051828152600384820152600080516020614abb83398151915260403392a26103ef8154614779565b3461031d57602036600319011261031d5760043560005261027060205260406000205460ff81169060405190600a8310156103f957604092825260081c6020820152f35b3461031d57600036600319011261031d5760206101fe54604051908152f35b3461031d57600036600319011261031d57602061026554604051908152f35b3461031d57602036600319011261031d5760043560005261026c602052604060002060018060a01b03610319818354169160018401549360028101549160038201548160048401541691600681600586015416940154169360405197889788612824565b60e036600319011261031d57610ee4612ec1565b610efb600080516020614adb833981519152612f42565b610f076101fd54614950565b610265805460405191610f1b604084612867565b60078352602083019260018060f81b03431684528260005261027060205260406000209051600a8110156103f95760ff6020958119905160081b1691161790558160005261026d8352610f73600460406000206147f3565b604051828152600784820152600080516020614abb83398151915260403392a26103ef8154614779565b3461031d57600036600319011261031d57610fb6612e3e565b60ca805460ff19166001179055005b3461031d57600036600319011261031d576020610266546102655414604051908152f35b3461031d57600036600319011261031d5760206101fc54604051908152f35b3461031d57602036600319011261031d576001600160801b03600435818116810361031d57611035612e3e565b610271805490921660809190911b6001600160801b031916179055005b3461031d57600036600319011261031d57602060ff60ca5460081c166040519015158152f35b3461031d57602036600319011261031d5760043560005261026e602052604060002060018060a01b03610319818354169160018401549360028101549160038201548160048401541691600681600586015416940154169360405197889788612824565b3461031d57600036600319011261031d577f00000000000000000000000000000000000000000000000000000000000000006001600160a01b031630036111475760206040517f360894a13ba1a3210667c828492db98dca3e2076cc3735a920a3ca505d382bbc8152f35b60405162461bcd60e51b815260206004820152603860248201527f555550535570677261646561626c653a206d757374206e6f742062652063616c60448201527f6c6564207468726f7567682064656c656761746563616c6c00000000000000006064820152608490fd5b3461031d57600036600319011261031d576111cb612e3e565b60ca805460ff19169055005b604036600319011261031d576001600160a01b03600435818116810361031d5760243567ffffffffffffffff811161031d573660238201121561031d578060040135916112238361289f565b916112316040519384612867565b838352366024858301011161031d576108d394600060208660019760246112b496018389013786010152807f0000000000000000000000000000000000000000000000000000000000000000169061128b82301415612974565b7f360894a13ba1a3210667c828492db98dca3e2076cc3735a920a3ca505d382bbc5416146129d5565b6112bc612e3e565b612a36565b3461031d57602036600319011261031d576004356001600160a01b038116900361031d576112ed612ec1565b60026102325414611f8f576002610232556113277fd8aa0f3194971a2a116679f7c2090f6939c8d4e01a2a8d7e41d55e5351469e63612f42565b6102665460006102655461027154908160801c8401808210600014611f845750909291925b818310611399575b50506102665580611368575b600161023255005b6000808080936004355af161137b612d11565b50156113875780611360565b604051638f58940960e01b8152600490fd5b9091600090600091816000526102706020526040600020604051906113bf604083612867565b546113cd60ff82168361318e565b60081c8060208301526001600160801b038616430310600014611452575060009250829050805b61143c575b156114355780600191337fb207e6b6b26274f3764b879e578b4539b8e37f41dff43932ddc87b3e04090974600080a3019301919092919261134c565b9250611354565b81600052610270602052600060408120556113f9565b8051600a8110156103f95760010361171657505080915060005261026760205261147f604060002061319a565b61026480546040805163235e81cf60e01b81528451600482015260208501516024820152908401516001600160a01b0390811660448301526060850151811660648301526080850151811660848301529091600091168260a48160c09485945af16000928392826116e1575b50506116655750506114fb612d11565b61150481613249565b906001600160e01b03198216630b63f1a760e01b8103611600575050611540600080516020614a7b8339815191529160405191829187836132b6565b0390a15b5460408201516020909201516001600160a01b039182169290911690823b1561031d576040516358f32de960e01b81526001600160a01b039290921660048301526024820152906000908290604490829084905af180156115f4576115e3575b505b806000526102676020526115d6604060002060046000918281558260018201558260028201558260038201550155565b6101f754906001806113f4565b60006115ee91612867565b846115a4565b6040513d6000823e3d90fd5b637912120160e01b03611636575061162e600080516020614a7b83398151915291604051918291878361327a565b0390a1611544565b600080516020614a9b833981519152915061162e90604051918291878352604060208401526040830190612e01565b7f5090a820029acae4d47b64da9af62ce04a5a1bdb546934e5fcfe091ee1f780ee91925060018060a01b03604085015116926116d986606060018060a01b03818901511697805194805192602082015190604083015192015192608060018060a01b039101511693604051988998896132fb565b0390a36115a6565b80919294506117059350903d1061170f575b6116fd8183612867565b810190613226565b92905089806114eb565b503d6116f3565b8051600a8110156103f957600203611a1b575050809150600052610269602052611743604060002061319a565b61026480546040805163bfe4262160e01b81528451600482015260208501516024820152908401516001600160a01b0390811660448301526060850151811660648301526080850151811660848301529091600091168260a48160c09485945af16000928392826119f6575b505061197a5750506117bf612d11565b6117c881613249565b6001600160e01b031981169163a5db715d60e01b83036118e357505060a0600080516020614a7b83398151915291604051908682526020820152601960608060408401528201527f496e73756666696369656e7420746320746f2072656465656d000000000000006080820152a15b54604082015191516001600160a01b039182169290911690823b1561031d576040516353b16d1760e01b81526001600160a01b039290921660048301526024820152906000908290604490829084905af180156115f4576118d2575b505b806000526102696020526118c5604060002060046000918281558260018201558260028201558260038201550155565b6101f854906001806113f4565b60006118dd91612867565b84611893565b90916354cde31360e01b810361191d575050611915600080516020614a7b83398151915291604051918291878361333a565b0390a1611837565b637912120160e01b0361194b5750611915600080516020614a7b83398151915291604051918291878361327a565b600080516020614a9b833981519152915061191590604051918291878352604060208401526040830190612e01565b7f7e7043742f69701e6292386d468d710f2d6e44bf93232a1e52f1641e50a9de1291925060018060a01b03604085015116926119ee86606060018060a01b03818901511697805194805192602082015190604083015192015192608060018060a01b039101511693604051988998896132fb565b0390a3611895565b8091929450611a119350903d1061170f576116fd8183612867565b92905089806117af565b8051600a8110156103f957600303611a465750509050611a3a81613480565b90816101f954926113f4565b8051600a8110156103f957600403611a715750509050611a6581613789565b90816101fa54926113f4565b8051600a8110156103f957600503611a9c5750509050611a90816139f8565b90816101ff54926113f4565b8051600a8110156103f957600603611ac75750509050611abb81613d8c565b90816101fe54926113f4565b8051600a8110156103f957600703611af25750509050611ae68161415a565b90816101fd54926113f4565b8051600a8110156103f957600803611b1d5750509050611b118161443c565b90816101fc54926113f4565b51600a8110156103f957600914611b35575b806113f4565b5080915060005261026f60205260006040812060405190611b5861010083612867565b60018060a01b03815416825260018060a01b03600182015416602083015260028101546040830152600381015460608301526004810154608083015260018060a01b0360058201541660a083015260018060a01b0360068201541660c0830152600760018060a01b039101541660e082015282825261026f60205281600760408220828155826001820155826002820155826003820155826004820155826005820155826006820155015560e060018060a01b0361026454166101046040518095819363391bf6cf861b835260018060a01b03875116600484015260018060a01b03602088015116602484015260408701516044840152606087015160648401526080870151608484015260018060a01b0360a08801511660a484015260018060a01b0360c08801511660c484015260018060a01b03868801511660e48401525af19182600091600094611f4d575b50611e9757509050611cb7612d11565b611cc081613249565b906001600160e01b03198216630b63f1a760e01b8103611e02575050611cfc600080516020614a7b8339815191529160405191829186836132b6565b0390a15b6102645460a0820151825160408401516001600160a01b039182169392821692909116803b1561031d57604051630e2c5e9960e41b81526001600160a01b03938416600482015293909216602484015260448301526000908290606490829084905af180156115f457611df1575b506102645460a08201516080909201516001600160a01b039182169290911690823b1561031d576040516358f32de960e01b81526001600160a01b039290921660048301526024820152906000908290604490829084905af180156115f457611de0575b505b6101fb54906001611b2f565b6000611deb91612867565b84611dd2565b6000611dfc91612867565b85611d6e565b63272e3f5960e21b8103611e3a575050611e32600080516020614a7b83398151915291604051918291868361410d565b0390a1611d00565b637912120160e01b03611e685750611e32600080516020614a7b83398151915291604051918291868361327a565b600080516020614a9b8339815191529150611e3290604051918291868352604060208401526040830190612e01565b7ff86f4487d2c5541b78f06d2368e28e0f4052e182124def54d5855bf2a01d325861012060018060a01b038451169260018060a01b036020860151169060018060a01b0360a0870151169560018060a01b0360c082015116976040820151928151602083015191606060408501519401519460e060018060a01b039101511695604051978852602088015260408701526060860152608085015260a084015260c083015260e082015286610100820152a4611dd4565b909350611f72915060e03d60e011611f7d575b611f6a8183612867565b8101906139d4565b925050909288611ca7565b503d611f60565b90509092919261134c565b60405162461bcd60e51b815260206004820152601f60248201527f5265656e7472616e637947756172643a207265656e7472616e742063616c6c006044820152606490fd5b3461031d5761012036600319011261031d57611fee612e3e565b610266546102655403612005576108d36004614972565b6040516315996eab60e01b8152600490fd5b60c036600319011261031d5761202b612ec1565b612042600080516020614adb833981519152612f42565b61204e6101ff54614950565b610265805460405191612062604084612867565b60058352602083019260018060f81b03431684528260005261027060205260406000209051600a8110156103f95760ff6020958119905160081b1691161790558160005261026b83526120ba60046040600020614788565b604051828152600584820152600080516020614abb83398151915260403392a26103ef8154614779565b3461031d57602036600319011261031d5760043560005261026f602052610100604060002060018060a01b03808254169181600182015416916002820154600383015460048401549183600586015416936007816006880154169601541695604051978852602088015260408701526060860152608085015260a084015260c083015260e0820152f35b3461031d57600036600319011261031d5760206101ff54604051908152f35b3461031d57600036600319011261031d5760ca5460ff8160081c16156121f557601081901c6001600160a01b03163303610d0b5761ff00191660ca557f5db9ee0a495bf2e6ff9c91a7834c1ba4fdd244a5e8aa4e537bd38aeae4b073aa6020604051338152a1005b604051637c7fd07960e01b8152600490fd5b3461031d57600036600319011261031d5760206101f954604051908152f35b3461031d57600036600319011261031d576020612241614869565b6040519015158152f35b3461031d57602036600319011261031d576004356001600160801b03811680910361031d57612278612e3e565b61027180546001600160801b0319169091179055005b3461031d57602036600319011261031d576004356001600160a01b03808216820361031d576108d3916122ed826000937f0000000000000000000000000000000000000000000000000000000000000000169061128b82301415612974565b6122f5612e3e565b6122fe8261289f565b9061230c6040519283612867565b828252601f1961231b8461289f565b01366020840137612a36565b3461031d57604036600319011261031d576024356001600160a01b03811680820361031d57330361235e576108d3906004356128f5565b60405162461bcd60e51b815260206004820152602f60248201527f416363657373436f6e74726f6c3a2063616e206f6e6c792072656e6f756e636560448201526e103937b632b9903337b91039b2b63360891b6064820152608490fd5b61010036600319011261031d576123d0612ec1565b6123e7600080516020614adb833981519152612f42565b6123f36101fb54614950565b6102658054604051612406604082612867565b600981526020810160018060f81b0343168152826000526102706020526040600020915190600a8210156103f9575160ff9190911660089190911b60ff1916179055600081815261026f602052604090206001600160a01b0360043581811694929085900361031d576001600160601b0360a01b94858254161781556001810160243583811680910361031d57868254161790556044356002820155606435600382015560843560048201556005810160a43583811680910361031d5786825416179055600681019060c4359183831680930361031d5760079287825416179055019060e43590811680910361031d57602094825416179055604051828152600984820152600080516020614abb83398151915260403392a26103ef8154614779565b3461031d57604036600319011261031d576004356024356001600160a01b038116810361031d578161255d6108d3936149c2565b6148ce565b3461031d57602036600319011261031d576004356001600160a01b038116810361031d5761258e612e3e565b60ca805462010000600160b01b03191660109290921b62010000600160b01b0316919091179055005b3461031d57600036600319011261031d57602061026654604051908152f35b3461031d57602036600319011261031d576004356000526101936020526020600160406000200154604051908152f35b3461031d57602036600319011261031d576004803560009081526102676020908152604091829020805460018201546002830154600384015493909601548551928352938201526001600160a01b03948516938101939093528316606083015291909116608082015260a090f35b3461031d57602036600319011261031d5760043560005261026d602052604060002060018060a01b03610319818354169160018401549360028101549160038201548160048401541691600681600586015416940154169360405197889788612824565b3461031d57600036600319011261031d576097546040516001600160a01b039091168152602090f35b3461031d57602036600319011261031d5760043563ffffffff60e01b811680910361031d57602090637965db0b60e01b8114908115612746575b506040519015158152f35b6301ffc9a760e01b1490508261273b565b60e036600319011261031d5761276b612ec1565b612782600080516020614adb833981519152612f42565b61278e6101fc54614950565b6102658054604051916127a2604084612867565b60088352602083019260018060f81b03431684528260005261027060205260406000209051600a8110156103f95760ff6020958119905160081b1691161790558160005261026e83526127fa600460406000206147f3565b604051828152600884820152600080516020614abb83398151915260403392a26103ef8154614779565b6001600160a01b039182168152602081019290925260408201929092526060810192909252918216608082015291811660a083015290911660c082015260e00190565b90601f8019910116810190811067ffffffffffffffff82111761288957604052565b634e487b7160e01b600052604160045260246000fd5b67ffffffffffffffff811161288957601f01601f191660200190565b6001600160a01b0391821681526020810192909252604082019290925291811660608301529182166080820152911660a082015260c00190565b9060009180835261019380602052604084209260018060a01b03169283855260205260ff60408520541661292a575b50505050565b818452602052604083208284526020526040832060ff1981541690557ff6391f5c32d9c69d2a47ea670b442974b53935d1edc7fd64eb21e047a839171b339380a438808080612924565b1561297b57565b60405162461bcd60e51b815260206004820152602c60248201527f46756e6374696f6e206d7573742062652063616c6c6564207468726f7567682060448201526b19195b1959d85d1958d85b1b60a21b6064820152608490fd5b156129dc57565b60405162461bcd60e51b815260206004820152602c60248201527f46756e6374696f6e206d7573742062652063616c6c6564207468726f7567682060448201526b6163746976652070726f787960a01b6064820152608490fd5b9060ff7f4910fdfa16fed3260ed0e7147f7cc6da11a60208b5b9406d12a635614ffd91435416600014612a705750612a6e9150612c6f565b565b6040516352d1902d60e01b8152602093919291906001600160a01b038316908581600481855afa60009181612c3d575b50612b015760405162461bcd60e51b815260048101879052602e60248201527f45524331393637557067726164653a206e657720696d706c656d656e7461746960448201526d6f6e206973206e6f74205555505360901b6064820152608490fd5b9394937fc9f76b5ec45e5cdef99837d7b6d2467235c1df8933c8ca56df5c35afa2c7d44401612be657612b3383612c6f565b7fbc7cd75a20ee27fd9adebab32041f755214dbc6bffa90cc0225b39da2e5c2d3b600080a283511590811591612bde575b50612b6e57505050565b600080612bdb94612b7f602761289f565b94612b8d6040519687612867565b602786527f416464726573733a206c6f772d6c6576656c2064656c65676174652063616c6c81870152660819985a5b195960ca1b604087015281519101845af4612bd5612d11565b91612d41565b50565b905038612b64565b60405162461bcd60e51b815260048101859052602960248201527f45524331393637557067726164653a20756e737570706f727465642070726f786044820152681a58589b195555525160ba1b6064820152608490fd5b90918782813d8311612c68575b612c548183612867565b81010312612c655750519038612aa0565b80fd5b503d612c4a565b803b15612cb6577f360894a13ba1a3210667c828492db98dca3e2076cc3735a920a3ca505d382bbc80546001600160a01b0319166001600160a01b03909216919091179055565b60405162461bcd60e51b815260206004820152602d60248201527f455243313936373a206e657720696d706c656d656e746174696f6e206973206e60448201526c1bdd08184818dbdb9d1c9858dd609a1b6064820152608490fd5b3d15612d3c573d90612d228261289f565b91612d306040519384612867565b82523d6000602084013e565b606090565b91929015612da35750815115612d55575090565b3b15612d5e5790565b60405162461bcd60e51b815260206004820152601d60248201527f416464726573733a2063616c6c20746f206e6f6e2d636f6e74726163740000006044820152606490fd5b825190915015612db65750805190602001fd5b60405162461bcd60e51b815260206004820152908190612dda906024830190612e01565b0390fd5b60005b838110612df15750506000910152565b8181015183820152602001612de1565b90602091612e1a81518092818552858086019101612dde565b601f01601f1916010190565b9081602091031261031d5751801515810361031d5790565b60975460405163d994d6d560e01b815233600482015290602090829060249082906001600160a01b03165afa9081156115f457600091612e93575b5015612e8157565b604051631dd1b1b560e21b8152600490fd5b612eb4915060203d8111612eba575b612eac8183612867565b810190612e26565b38612e79565b503d612ea2565b60ff60ca5460081c16612ed057565b60405163783bb6c960e11b8152600490fd5b15612ee957565b60405162461bcd60e51b815260206004820152602b60248201527f496e697469616c697a61626c653a20636f6e7472616374206973206e6f74206960448201526a6e697469616c697a696e6760a81b6064820152608490fd5b8060005260206101938152604060002033600052815260ff6040600020541615612f6a575050565b6130006048612f8483612f7e601433613021565b95613021565b936040519485917f416363657373436f6e74726f6c3a206163636f756e742000000000000000000086840152612fc38151809288603787019101612dde565b82017001034b99036b4b9b9b4b733903937b6329607d1b6037820152612ff182518093888785019101612dde565b01036028810185520183612867565b612dda60405192839262461bcd60e51b845260048401526024830190612e01565b60019180831b91906001600160ff1b03811603613162576002820192838311613162576130666130508561289f565b9461305e6040519687612867565b80865261289f565b6020939085850190601f190136823785511561317857603090538451821015613178576078602186015381810180911161316257905b8082116130f05750506130ad575090565b6064906040519062461bcd60e51b825280600483015260248201527f537472696e67733a20686578206c656e67746820696e73756666696369656e746044820152fd5b9091600f8116601081101561314d57855184101561314d576f181899199a1a9b1b9c1cb0b131b232b360811b901a85840185015360041c91801561313857600019019061309c565b60246000634e487b7160e01b81526011600452fd5b60246000634e487b7160e01b81526032600452fd5b634e487b7160e01b600052601160045260246000fd5b634e487b7160e01b600052603260045260246000fd5b600a8210156103f95752565b906040516131a960a082612867565b825481526001830154602082015260028301546001600160a01b0390811660408301526003840154811660608301526004909301549092166080830152565b919082608091031261031d57604051613202608082612867565b60608082948051845260208101516020850152604081015160408501520151910152565b909160c08284031261031d576132468251936040602085015194016131e8565b90565b906020825192015163ffffffff60e01b90818116936004811061326b57505050565b60040360031b82901b16169150565b909160a092825263ffffffff60e01b16602082015260606040820152600c60608201526b4c6f7720636f76657261676560a01b60808201520190565b909160a092825263ffffffff60e01b166020820152606060408201526015606082015274125b9cdd59999a58da595b9d081c5858c81cd95b9d605a1b60808201520190565b94919260e0969399989794919961010087019a8752602087015260408601526060850152608084015260a083015260018060a01b031660c08201520152565b909160a092825263ffffffff60e01b16602082015260606040820152601a60608201527f7141432062656c6f77206d696e696d756d20726571756972656400000000000060808201520190565b9060405161339660c082612867565b82546001600160a01b039081168252600184015460208301526002840154604083015260038401548116606083015260048401548116608083015260059093015490921660a0830152565b60a09081600180821b03918281511685526020810151602086015260408101516040860152826060820151166060860152826080820151166080860152015116910152565b909160c092825263ffffffff60e01b16602082015260606040820152602460608201527f4d617820666c757820636170616369746f72206f7065726174696f6e2072656160808201526318da195960e21b60a08201520190565b90600082815261026892602090848252604061349d818520613387565b61026480548351635a21a61960e11b81526001600160a01b039992969160c090829060c49082908c908f166134d5600484018b6133e1565b5af1908189918a93613765575b506136ec5750506134f1612d11565b986134fb8a613249565b966001600160e01b031988166306da41e560e11b810361354257505050505050600080516020614a7b8339815191529394955061353c905192839283613426565b0390a190565b869998839598969c63c39b739f60e09996991b831460001461365b57505060a0600080516020614a7b8339815191529185519088825289820152606086820152601760608201527f496e73756666696369656e7420747020746f206d696e740000000000000000006080820152a15b54169160608a01511698015197813b156136575786516358f32de960e01b81526001600160a01b039091166004820152602481019890985284908890818381604481015b03925af196871561364d576136349697613639575b505b8352522060056000918281558260018201558260028201558260038201558260048201550155565b600190565b8461364691959295612867565b923861360a565b85513d86823e3d90fd5b8580fd5b9091630b63f1a760e01b810361369457505061368c600080516020614a7b83398151915291855191829189836132b6565b0390a16135b1565b637912120160e01b036136c1575061368c600080516020614a7b833981519152918551918291898361327a565b600080516020614a9b833981519152915061368c908551918291898352878b84015287830190612e01565b8492959897507f125247fdf990b9b419d4b4f895b1bb75bc485e3f8b813cf5557a4a12a56d054d908b6136349b9c9395989651169261375d878c836060890151169784608082015116998c820151958d8251908301519160a0606087860151950151950151169451988998896132fb565b0390a461360c565b909250613780915060c03d811161170f576116fd8183612867565b929050386134e2565b90600082815261026a60209381855260406137a5818520613387565b6102648054835163ad4e666d60e01b81526001600160a01b03999296939160c090829060c49082908c908f166137de60048401896133e1565b5af1908189918a936139b0575b5061393f5750506137fa612d11565b9561380487613249565b966001600160e01b031988166306da41e560e11b810361384557505050505050600080516020614a7b8339815191529394955061353c905192839283613426565b908b9394969998916354cde31360e09997991b81146000146138df575050613882600080516020614a7b833981519152918a51918291888361333a565b0390a15b54169083896060830151169982511691015198823b156138db578751630e2c5e9960e41b81526001600160a01b03918216600482015291166024820152604481019890985284908890818381606481016135f5565b8680fd5b637912120160e01b03613914575061390c600080516020614a7b833981519152918a51918291888361327a565b0390a1613886565b600080516020614a9b833981519152915061390c908a519182918883528c8a8401528c830190612e01565b8a9193959897507f625b9fc283a619f53beb817d79b8ab044d60e307fd2af4bb89fa5e9a24ce4ebc906136349a9b8498969851169261375d878c836060890151169784608082015116998c820151958d8251908301519160a0606087860151950151950151169451988998896132fb565b9092506139cb915060c03d811161170f576116fd8183612867565b929050386137eb565b60e08183031261031d578051926132466020830151936060604085015194016131e8565b90600082815261026b80602052604093613a13858420613387565b9460018060a01b0395610264938560e08987541660c486518094819363883d21cb861b8352613a45600484018a6133e1565b5af187918291829181613c6f575b50613bf457505050613a63612d11565b97613a6d89613249565b956001600160e01b031987166306da41e560e11b8103613aad575050505050600080516020614a7b8339815191529394955061353c905192839283613426565b9682949a869998630b63f1a760e0999896991b8114600014613b93575050613aea600080516020614a7b83398151915291855191829189836132b6565b0390a15b54169160608901511697015196813b15613b8f5785516358f32de960e01b81526001600160a01b03919091166004820152602481019790975283908790604490829084905af1958615613b85576136349596613b71575b505b82526020522060056000918281558260018201558260028201558260038201558260048201550155565b83613b7e91949294612867565b9138613b45565b84513d85823e3d90fd5b8480fd5b637912120160e01b03613bc85750613bc0600080516020614a7b833981519152918551918291898361327a565b0390a1613aee565b600080516020614a9b8339815191529150613bc090855191829189835287602084015287830190612e01565b85989750907f03e9e02a94d7486426fcf2b05a27e911b8d1b61e2e1dcf103785512f46c8476491613c678887959699988e6136349e9f9951169689606082015116988a6080830151169a60208301519782519060208401519260a0606088870151960151960151169551998a998a613c94565b0390a4613b47565b91509250613c8b915060e03d8111611f7d57611f6a8183612867565b93905038613a53565b95926101009794919a9998959261012088019b8852602088015260408701526060860152608085015260a084015260c083015260018060a01b031660e08201520152565b90604051613ce760e082612867565b82546001600160a01b0390811682526001840154602083015260028401546040830152600384015460608301526004840154811660808301526005840154811660a083015260069093015490921660c0830152565b60c0908160018060a01b03918281511685526020810151602086015260408101516040860152606081015160608601528260808201511660808601528260a08201511660a0860152015116910152565b90600082815261026c602090808252604090613da9828520613cd8565b61026480548451633631a6bb60e21b81526001600160a01b039693929160e090829060e49082908c908c16613de1600484018a613d3c565b5af19088828a928b946140e5575b5061406b57505050613dff612d11565b95613e0987613249565b966001600160e01b03198816906306da41e560e11b8203613e4b57505050505050509361353c600080516020614a7b8339815191529394955192839283613426565b637a031da360e19a99929394959697989a1b8314600014613fda57505060a0600080516020614a7b833981519152918951908c82528782015260608a8201526014606082015273125b9cdd59999a58da595b9d081d1c081cd95b9d60621b6080820152a15b808254169160808401928284511690838651168a87015192823b15613fd6578b51630e2c5e9960e41b81526001600160a01b03918216600482015291166024820152604481019290925288908290606490829084905af18015613fcc57613fb4575b5090808592541692511692015191813b156136575786516353b16d1760e01b81526001600160a01b039091166004820152602481019290925284908290818381604481015b03925af1801561364d57613f9b575b5061363494955b8352522060066000918281558260018201558260028201558260038201558260048201558260058201550155565b613fa6848092612867565b613fb05738613f66565b8280fd5b9187613fc38293998895612867565b97919250613f12565b89513d8a823e3d90fd5b8a80fd5b90916354cde31360e01b810361401357505061400b600080516020614a7b8339815191529189519182918d8361333a565b0390a1613eb0565b637912120160e01b03614040575061400b600080516020614a7b8339815191529189519182918d8361327a565b600080516020614a9b833981519152915061400b9089519182918d83528b898401528b830190612e01565b84929350907f4d33a2f9c4f66a101333f7ca2ab718582e763c941ff6fc304d2d4408d43a8284916140dd8d8a6136349e9f999a9b9d9c809951169689608082015116988a60a0830151169a8d80840151978351918401519260c0606088870151960151960151169551998a998a613c94565b0390a4613f6d565b91509250614101915060e03d8111611f7d57611f6a8183612867565b92905090919238613def565b909160a092825263ffffffff60e01b16602082015260606040820152601a60608201527f7154702062656c6f77206d696e696d756d20726571756972656400000000000060808201520190565b90600082815261026d602090808252604090614177828520613cd8565b610264805484516312bce9bf60e21b81526001600160a01b039693929160e090829060e49082908c908c166141af600484018a613d3c565b5af1908189918a93614416575b506143a55750506141cb612d11565b956141d587613249565b966001600160e01b031988166306da41e560e11b810361421657505050505050509361353c600080516020614a7b8339815191529394955192839283613426565b630b63f1a760e09a999394959697989a1b8114600014614316575050614251600080516020614a7b8339815191529189519182918d836132b6565b0390a15b8082541691608084019282845116908686015191813b15614312578a516353b16d1760e01b81526001600160a01b039091166004820152602481019290925288908290818381604481015b03925af18015613fcc576142f9575b509080606092541692511692015191813b156136575786516358f32de960e01b81526001600160a01b03909116600482015260248101929092528490829081838160448101613f57565b9187614309829399606095612867565b979192506142af565b8980fd5b63272e3f5960e21b810361434d575050614345600080516020614a7b8339815191529189519182918d8361410d565b0390a1614255565b637912120160e01b0361437a5750614345600080516020614a7b8339815191529189519182918d8361327a565b600080516020614a9b83398151915291506143459089519182918d83528b898401528b830190612e01565b8392507ff8dcb57698d7067da58ab71c48cd2e3b329b69e7e9853f88630c2c69c2557c7890886136349b9c9697989a9993955116926140dd878c83608089015116978460a082015116998c820151958d8251908301519160c0606087860151950151950151169451988998896132fb565b909250614431915060e03d8111611f7d57611f6a8183612867565b9250509091386141bc565b90600082815261026e602090808252604090614459828520613cd8565b61026480548451635e272ad960e11b81526001600160a01b039693929160e090829060e49082908c908c16614491600484018a613d3c565b5af1908189918a936146cc575b5061465b5750506144ad612d11565b956144b787613249565b966001600160e01b03198816906306da41e560e11b82036144f957505050505050509361353c600080516020614a7b8339815191529394955192839283613426565b630b63f1a760e09a99929394959697989a1b83146000146145945750600080516020614a7b83398151915291506145369089519182918d836132b6565b0390a15b808254169160808401928284511690838651168787015192823b15613fd6578b51630e2c5e9960e41b81526001600160a01b03918216600482015291166024820152604481019290925288908290818381606481016142a0565b63f577bef560e01b83036145f957505060a0600080516020614a7b833981519152918951908c82528782015260608a820152601a60608201527f7154632062656c6f77206d696e696d756d2072657175697265640000000000006080820152a161453a565b9091637912120160e01b036146305750614628600080516020614a7b8339815191529189519182918d8361327a565b0390a161453a565b600080516020614a9b83398151915291506146289089519182918d83528b898401528b830190612e01565b8392507f8ab42044ce8b230e021e5542eb53688d77443e50ee84cda7917f6bdd833c697f90886136349b9c9697989a9993955116926140dd878c83608089015116978460a082015116998c820151958d8251908301519160c0606087860151950151950151169451988998896132fb565b9092506146e7915060e03d8111611f7d57611f6a8183612867565b92505090913861449e565b356001600160a01b038116810361031d5790565b813581556020820135600182015560028101906001600160a01b039061476f9060809060049084614739604089016146f2565b16956001600160601b0360a01b9687825416179055600381018561475f60608a016146f2565b16878254161790550194016146f2565b1690825416179055565b60001981146131625760010190565b6001600160a01b0361476f60a06005836147a1876146f2565b16946001600160601b03831b9586825416178155602087013560018201556040870135600282015560038101856147da60608a016146f2565b1687825416179055600481018561475f60808a016146f2565b6001600160a01b0361476f60c060068361480c876146f2565b16946001600160601b0360a01b9586825416178155602087013560018201556040870135600282015560608701356003820155600481018561485060808a016146f2565b1687825416179055600581018561475f60a08a016146f2565b610266546102655481146148c8576000526102706020526020604060002060405190614896604083612867565b546148a460ff82168361318e565b60081c91829101526001600160801b03610271541643039043821161316257111590565b50600090565b9060009180835261019380602052604084209260018060a01b03169283855260205260ff604085205416156149035750505050565b8184526020526040832082845260205260408320600160ff198254161790557f2f8788117e7eff1d82e926ec794901d17c78024a50270940304540a733656f0d339380a438808080612924565b34810361495a5750565b6024906040519063049e6f6960e41b82526004820152fd5b80356101f75560208101356101f85560408101356101f95560608101356101fa5560808101356101fb5560a08101356101fc5560c08101356101fd5560e08101356101fe5561010001356101ff55565b6097546040805163d994d6d560e01b8152336004820152909291602090829060249082906001600160a01b03165afa908115614a6f57600091614a51575b50159081614a21575b50614a115750565b51631dd1b1b560e21b8152600490fd5b90506000526101936020526001816000200154600052806000203360005260205260ff8160002054161538614a09565b614a69915060203d8111612eba57612eac8183612867565b38614a00565b83513d6000823e3d90fdfe5bbebb64d62396f99cae4b3b78d9386cb0f2893aab6a69f27eb61f8e7c29775e3ea497186958ec638834f65ec5a571c2b2e877e5d59a76804ec0448fac7829babfa5d40ab595fa613b17566ea5e38a5cac79a71f09ce1435246db2e6805816c27d5e686862ec2250829eb6dee4a7cb0834865072f135485c874d3bbbe39bdfdba2646970667358221220d516e5624a1bed1b85eb5258e760f97f37799d0567946952dbd82f9ac78a43a964736f6c63430008140033",
  "devdoc": {
    "events": {
      "AdminChanged(address,address)": {
        "details": "Emitted when the admin account has changed."
      },
      "BeaconUpgraded(address)": {
        "details": "Emitted when the beacon is changed."
      },
      "Initialized(uint8)": {
        "details": "Triggered when the contract has been initialized or reinitialized."
      },
      "RoleAdminChanged(bytes32,bytes32,bytes32)": {
        "details": "Emitted when `newAdminRole` is set as ``role``'s admin role, replacing `previousAdminRole` `DEFAULT_ADMIN_ROLE` is the starting admin for all roles, despite {RoleAdminChanged} not being emitted signaling this. _Available since v3.1._"
      },
      "RoleGranted(bytes32,address,address)": {
        "details": "Emitted when `account` is granted `role`. `sender` is the account that originated the contract call, an admin role bearer except when using {AccessControl-_setupRole}."
      },
      "RoleRevoked(bytes32,address,address)": {
        "details": "Emitted when `account` is revoked `role`. `sender` is the account that originated the contract call:   - if using `revokeRole`, it is the admin role bearer   - if using `renounceRole`, it is the role bearer (i.e. `account`)"
      },
      "Upgraded(address)": {
        "details": "Emitted when the implementation is upgraded."
      }
    },
    "kind": "dev",
    "methods": {
      "changeGovernor(address)": {
        "params": {
          "newGovernor_": "New governor address"
        }
      },
      "execute(address)": {
        "details": "does not revert on Operation failure, throws Process and Error events according to the Oper type and result"
      },
      "getRoleAdmin(bytes32)": {
        "details": "Returns the admin role that controls `role`. See {grantRole} and {revokeRole}. To change a role's admin, use {_setRoleAdmin}."
      },
      "grantRole(bytes32,address)": {
        "details": "Grants `role` to `account`. If `account` had not been already granted `role`, emits a {RoleGranted} event. Requirements: - the caller must have ``role``'s admin role  OR   the caller must have be an authorized Governance changer. May emit a {RoleGranted} event."
      },
      "hasRole(bytes32,address)": {
        "details": "Returns `true` if `account` has been granted `role`."
      },
      "makeStoppable()": {
        "details": "Should be called through governance"
      },
      "makeUnstoppable()": {
        "details": "Should be called through governance"
      },
      "pause()": {
        "details": "Should only be called by the pauser and when it is stoppable"
      },
      "proxiableUUID()": {
        "details": "Implementation of the ERC1822 {proxiableUUID} function. This returns the storage slot used by the implementation. It is used to validate the implementation's compatibility when performing an upgrade. IMPORTANT: A proxy pointing at a proxiable contract should not be considered proxiable itself, because this risks bricking a proxy that upgrades to it, by delegating to itself until out of gas. Thus it is critical that this function revert if invoked through a proxy. This is guaranteed by the `notDelegated` modifier."
      },
      "queueMintTC((uint256,uint256,address,address,address))": {
        "returns": {
          "operId": "Identifier to track the Operation lifecycle"
        }
      },
      "queueMintTCandTP((address,uint256,uint256,address,address,address))": {
        "returns": {
          "operId": "Identifier to track the Operation lifecycle"
        }
      },
      "queueMintTP((address,uint256,uint256,address,address,address))": {
        "returns": {
          "operId": "Identifier to track the Operation lifecycle"
        }
      },
      "queueRedeemTC((uint256,uint256,address,address,address))": {
        "returns": {
          "operId": "Identifier to track the Operation lifecycle"
        }
      },
      "queueRedeemTCandTP((address,uint256,uint256,uint256,address,address,address))": {
        "returns": {
          "operId": "Identifier to track the Operation lifecycle"
        }
      },
      "queueRedeemTP((address,uint256,uint256,address,address,address))": {
        "returns": {
          "operId": "Identifier to track the Operation lifecycle"
        }
      },
      "queueSwapTCforTP((address,uint256,uint256,uint256,address,address,address))": {
        "returns": {
          "operId": "Identifier to track the Operation lifecycle"
        }
      },
      "queueSwapTPforTC((address,uint256,uint256,uint256,address,address,address))": {
        "returns": {
          "operId": "Identifier to track the Operation lifecycle"
        }
      },
      "queueSwapTPforTP((address,address,uint256,uint256,uint256,address,address,address))": {
        "returns": {
          "operId": "Identifier to track the Operation lifecycle"
        }
      },
      "registerBucket(address)": {
        "details": "in order to operate, the queue needs to be whitelisted as EXECUTOR on the bucket as well",
        "params": {
          "bucket_": "address of the mocCore implementation to interact with May emit a {RoleGranted} event for ENQUEUER role"
        }
      },
      "renounceRole(bytes32,address)": {
        "details": "Revokes `role` from the calling account. Roles are often managed via {grantRole} and {revokeRole}: this function's purpose is to provide a mechanism for accounts to lose their privileges if they are compromised (such as when a trusted device is misplaced). If the calling account had been revoked `role`, emits a {RoleRevoked} event. Requirements: - the caller must be `account`. May emit a {RoleRevoked} event."
      },
      "revokeRole(bytes32,address)": {
        "details": "Revokes `role` from `account`. If `account` had been granted `role`, emits a {RoleRevoked} event. Requirements: - the caller must have ``role``'s admin role  OR   the caller must have be an authorized Governance changer. May emit a {RoleRevoked} event."
      },
      "setMaxOperPerBatch(uint128)": {
        "params": {
          "maxOperPerBatch_": "maximum amount of operations allowed on a batch to avoid going over the block gas limit"
        }
      },
      "setMinOperWaitingBlk(uint128)": {
        "params": {
          "minOperWaitingBlk_": "minimum amount of blocks an operation needs to remain in the queue before it can be executed"
        }
      },
      "setPauser(address)": {
        "details": "Should be called through governance",
        "params": {
          "newPauser_": "Address of the new pauser"
        }
      },
      "supportsInterface(bytes4)": {
        "details": "See {IERC165-supportsInterface}."
      },
      "upgradeTo(address)": {
        "custom:oz-upgrades-unsafe-allow-reachable": "delegatecall",
        "details": "Upgrade the implementation of the proxy to `newImplementation`. Calls {_authorizeUpgrade}. Emits an {Upgraded} event."
      },
      "upgradeToAndCall(address,bytes)": {
        "custom:oz-upgrades-unsafe-allow-reachable": "delegatecall",
        "details": "Upgrade the implementation of the proxy to `newImplementation`, and subsequently execute the function call encoded in `data`. Calls {_authorizeUpgrade}. Emits an {Upgraded} event."
      }
    },
    "stateVariables": {
      "__gap": {
        "details": "This empty reserved space is put in place to allow future versions to add new variables without shifting down storage in the inheritance chain. See https://docs.openzeppelin.com/contracts/4.x/upgradeable#storage_gaps"
      }
    },
    "title": "MocQueue: Allows queue Operation deferral execution processing",
    "version": 1
  },
  "userdoc": {
    "kind": "user",
    "methods": {
      "changeGovernor(address)": {
        "notice": "Change the contract's governor. Should be called through the old governance system"
      },
      "execute(address)": {
        "notice": "registered executors can process Operations in the queue"
      },
      "governor()": {
        "notice": "The address of the contract which governs this one"
      },
      "isEmpty()": {
        "notice": "true if the queue is empty"
      },
      "makeStoppable()": {
        "notice": "Switches ON the stoppability of the contract; if the contract was paused before making it unstoppable it will be paused again after calling this function"
      },
      "makeUnstoppable()": {
        "notice": "Switches OFF the stoppability of the contract; if the contract was paused it will no longer be so"
      },
      "pause()": {
        "notice": "Called by the owner to pause, triggers stopped state"
      },
      "paused()": {
        "notice": "Returns true if paused"
      },
      "queueMintTC((uint256,uint256,address,address,address))": {
        "notice": "registered enqueuer can queue an Operations"
      },
      "queueMintTCandTP((address,uint256,uint256,address,address,address))": {
        "notice": "Registered enqueuer can queue an Operations"
      },
      "queueMintTP((address,uint256,uint256,address,address,address))": {
        "notice": "registered enqueuer can queue an Operations"
      },
      "queueRedeemTC((uint256,uint256,address,address,address))": {
        "notice": "registered enqueuer can queue an Operations"
      },
      "queueRedeemTCandTP((address,uint256,uint256,uint256,address,address,address))": {
        "notice": "Registered enqueuer can queue an Operations"
      },
      "queueRedeemTP((address,uint256,uint256,address,address,address))": {
        "notice": "Registered enqueuer can queue an Operations"
      },
      "queueSwapTCforTP((address,uint256,uint256,uint256,address,address,address))": {
        "notice": "Registered enqueuer can queue an Operations"
      },
      "queueSwapTPforTC((address,uint256,uint256,uint256,address,address,address))": {
        "notice": "Registered enqueuer can queue an Operations"
      },
      "queueSwapTPforTP((address,address,uint256,uint256,uint256,address,address,address))": {
        "notice": "Registered enqueuer can queue an Operations"
      },
      "readyToExecute()": {
        "notice": "true if the queue has at least one Operation ready to be executed"
      },
      "registerBucket(address)": {
        "notice": "registers the mocCore bucket that would operate over this queue"
      },
      "setMaxOperPerBatch(uint128)": {
        "notice": "sets Moc Queue maximum amount of operations per execution batch"
      },
      "setMinOperWaitingBlk(uint128)": {
        "notice": "sets Moc Queue minimum operation waiting blocks"
      },
      "setPauser(address)": {
        "notice": "Changes the address which is enable to pause this contract"
      },
      "unpause()": {
        "notice": "Called by the owner to unpause, returns to normal state"
      }
    },
    "version": 1
  },
  "storageLayout": {
    "storage": [
      {
        "astId": 950,
        "contract": "moc-main/contracts/queue/MocQueue.sol:MocQueue",
        "label": "_initialized",
        "offset": 0,
        "slot": "0",
        "type": "t_uint8"
      },
      {
        "astId": 953,
        "contract": "moc-main/contracts/queue/MocQueue.sol:MocQueue",
        "label": "_initializing",
        "offset": 1,
        "slot": "0",
        "type": "t_bool"
      },
      {
        "astId": 932,
        "contract": "moc-main/contracts/queue/MocQueue.sol:MocQueue",
        "label": "__gap",
        "offset": 0,
        "slot": "1",
        "type": "t_array(t_uint256)50_storage"
      },
      {
        "astId": 1247,
        "contract": "moc-main/contracts/queue/MocQueue.sol:MocQueue",
        "label": "__gap",
        "offset": 0,
        "slot": "51",
        "type": "t_array(t_uint256)50_storage"
      },
      {
        "astId": 19615,
        "contract": "moc-main/contracts/queue/MocQueue.sol:MocQueue",
        "label": "__gap",
        "offset": 0,
        "slot": "101",
        "type": "t_array(t_uint256)50_storage"
      },
      {
        "astId": 15749,
        "contract": "moc-main/contracts/queue/MocQueue.sol:MocQueue",
        "label": "governor",
        "offset": 0,
        "slot": "151",
        "type": "t_contract(IGovernor)16094"
      },
      {
        "astId": 15820,
        "contract": "moc-main/contracts/queue/MocQueue.sol:MocQueue",
        "label": "__gap",
        "offset": 0,
        "slot": "152",
        "type": "t_array(t_uint256)50_storage"
      },
      {
        "astId": 15889,
        "contract": "moc-main/contracts/queue/MocQueue.sol:MocQueue",
        "label": "stoppable",
        "offset": 0,
        "slot": "202",
        "type": "t_bool"
      },
      {
        "astId": 15891,
        "contract": "moc-main/contracts/queue/MocQueue.sol:MocQueue",
        "label": "_paused",
        "offset": 1,
        "slot": "202",
        "type": "t_bool"
      },
      {
        "astId": 15893,
        "contract": "moc-main/contracts/queue/MocQueue.sol:MocQueue",
        "label": "pauser",
        "offset": 2,
        "slot": "202",
        "type": "t_address"
      },
      {
        "astId": 16052,
        "contract": "moc-main/contracts/queue/MocQueue.sol:MocQueue",
        "label": "__gap",
        "offset": 0,
        "slot": "203",
        "type": "t_array(t_uint256)50_storage"
      },
      {
        "astId": 15871,
        "contract": "moc-main/contracts/queue/MocQueue.sol:MocQueue",
        "label": "__gap",
        "offset": 0,
        "slot": "253",
        "type": "t_array(t_uint256)50_storage"
      },
      {
        "astId": 3017,
        "contract": "moc-main/contracts/queue/MocQueue.sol:MocQueue",
        "label": "__gap",
        "offset": 0,
        "slot": "303",
        "type": "t_array(t_uint256)50_storage"
      },
      {
        "astId": 3400,
        "contract": "moc-main/contracts/queue/MocQueue.sol:MocQueue",
        "label": "__gap",
        "offset": 0,
        "slot": "353",
        "type": "t_array(t_uint256)50_storage"
      },
      {
        "astId": 184,
        "contract": "moc-main/contracts/queue/MocQueue.sol:MocQueue",
        "label": "_roles",
        "offset": 0,
        "slot": "403",
        "type": "t_mapping(t_bytes32,t_struct(RoleData)179_storage)"
      },
      {
        "astId": 479,
        "contract": "moc-main/contracts/queue/MocQueue.sol:MocQueue",
        "label": "__gap",
        "offset": 0,
        "slot": "404",
        "type": "t_array(t_uint256)49_storage"
      },
      {
        "astId": 19519,
        "contract": "moc-main/contracts/queue/MocQueue.sol:MocQueue",
        "label": "__gap",
        "offset": 0,
        "slot": "453",
        "type": "t_array(t_uint256)50_storage"
      },
      {
        "astId": 18932,
        "contract": "moc-main/contracts/queue/MocQueue.sol:MocQueue",
        "label": "tcMintExecFee",
        "offset": 0,
        "slot": "503",
        "type": "t_uint256"
      },
      {
        "astId": 18934,
        "contract": "moc-main/contracts/queue/MocQueue.sol:MocQueue",
        "label": "tcRedeemExecFee",
        "offset": 0,
        "slot": "504",
        "type": "t_uint256"
      },
      {
        "astId": 18936,
        "contract": "moc-main/contracts/queue/MocQueue.sol:MocQueue",
        "label": "tpMintExecFee",
        "offset": 0,
        "slot": "505",
        "type": "t_uint256"
      },
      {
        "astId": 18938,
        "contract": "moc-main/contracts/queue/MocQueue.sol:MocQueue",
        "label": "tpRedeemExecFee",
        "offset": 0,
        "slot": "506",
        "type": "t_uint256"
      },
      {
        "astId": 18940,
        "contract": "moc-main/contracts/queue/MocQueue.sol:MocQueue",
        "label": "swapTPforTPExecFee",
        "offset": 0,
        "slot": "507",
        "type": "t_uint256"
      },
      {
        "astId": 18942,
        "contract": "moc-main/contracts/queue/MocQueue.sol:MocQueue",
        "label": "swapTPforTCExecFee",
        "offset": 0,
        "slot": "508",
        "type": "t_uint256"
      },
      {
        "astId": 18944,
        "contract": "moc-main/contracts/queue/MocQueue.sol:MocQueue",
        "label": "swapTCforTPExecFee",
        "offset": 0,
        "slot": "509",
        "type": "t_uint256"
      },
      {
        "astId": 18946,
        "contract": "moc-main/contracts/queue/MocQueue.sol:MocQueue",
        "label": "redeemTCandTPExecFee",
        "offset": 0,
        "slot": "510",
        "type": "t_uint256"
      },
      {
        "astId": 18948,
        "contract": "moc-main/contracts/queue/MocQueue.sol:MocQueue",
        "label": "mintTCandTPExecFee",
        "offset": 0,
        "slot": "511",
        "type": "t_uint256"
      },
      {
        "astId": 19069,
        "contract": "moc-main/contracts/queue/MocQueue.sol:MocQueue",
        "label": "__gap",
        "offset": 0,
        "slot": "512",
        "type": "t_array(t_uint256)50_storage"
      },
      {
        "astId": 1389,
        "contract": "moc-main/contracts/queue/MocQueue.sol:MocQueue",
        "label": "_status",
        "offset": 0,
        "slot": "562",
        "type": "t_uint256"
      },
      {
        "astId": 1458,
        "contract": "moc-main/contracts/queue/MocQueue.sol:MocQueue",
        "label": "__gap",
        "offset": 0,
        "slot": "563",
        "type": "t_array(t_uint256)49_storage"
      },
      {
        "astId": 16422,
        "contract": "moc-main/contracts/queue/MocQueue.sol:MocQueue",
        "label": "mocCore",
        "offset": 0,
        "slot": "612",
        "type": "t_contract(MocCARC20Deferred)9522"
      },
      {
        "astId": 16424,
        "contract": "moc-main/contracts/queue/MocQueue.sol:MocQueue",
        "label": "operIdCount",
        "offset": 0,
        "slot": "613",
        "type": "t_uint256"
      },
      {
        "astId": 16426,
        "contract": "moc-main/contracts/queue/MocQueue.sol:MocQueue",
        "label": "firstOperId",
        "offset": 0,
        "slot": "614",
        "type": "t_uint256"
      },
      {
        "astId": 16431,
        "contract": "moc-main/contracts/queue/MocQueue.sol:MocQueue",
        "label": "operationsMintTC",
        "offset": 0,
        "slot": "615",
        "type": "t_mapping(t_uint256,t_struct(MintTCParams)12491_storage)"
      },
      {
        "astId": 16436,
        "contract": "moc-main/contracts/queue/MocQueue.sol:MocQueue",
        "label": "operationsMintTP",
        "offset": 0,
        "slot": "616",
        "type": "t_mapping(t_uint256,t_struct(MintTPParams)12758_storage)"
      },
      {
        "astId": 16441,
        "contract": "moc-main/contracts/queue/MocQueue.sol:MocQueue",
        "label": "operationsRedeemTC",
        "offset": 0,
        "slot": "617",
        "type": "t_mapping(t_uint256,t_struct(RedeemTCParams)12623_storage)"
      },
      {
        "astId": 16446,
        "contract": "moc-main/contracts/queue/MocQueue.sol:MocQueue",
        "label": "operationsRedeemTP",
        "offset": 0,
        "slot": "618",
        "type": "t_mapping(t_uint256,t_struct(RedeemTPParams)11471_storage)"
      },
      {
        "astId": 16451,
        "contract": "moc-main/contracts/queue/MocQueue.sol:MocQueue",
        "label": "operationsMintTCandTP",
        "offset": 0,
        "slot": "619",
        "type": "t_mapping(t_uint256,t_struct(MintTCandTPParams)11396_storage)"
      },
      {
        "astId": 16456,
        "contract": "moc-main/contracts/queue/MocQueue.sol:MocQueue",
        "label": "operationsRedeemTCandTP",
        "offset": 0,
        "slot": "620",
        "type": "t_mapping(t_uint256,t_struct(RedeemTCandTPParams)11411_storage)"
      },
      {
        "astId": 16461,
        "contract": "moc-main/contracts/queue/MocQueue.sol:MocQueue",
        "label": "operationsSwapTCforTP",
        "offset": 0,
        "slot": "621",
        "type": "t_mapping(t_uint256,t_struct(SwapTCforTPParams)11458_storage)"
      },
      {
        "astId": 16466,
        "contract": "moc-main/contracts/queue/MocQueue.sol:MocQueue",
        "label": "operationsSwapTPforTC",
        "offset": 0,
        "slot": "622",
        "type": "t_mapping(t_uint256,t_struct(SwapTPforTCParams)11443_storage)"
      },
      {
        "astId": 16471,
        "contract": "moc-main/contracts/queue/MocQueue.sol:MocQueue",
        "label": "operationsSwapTPforTP",
        "offset": 0,
        "slot": "623",
        "type": "t_mapping(t_uint256,t_struct(SwapTPforTPParams)11428_storage)"
      },
      {
        "astId": 16487,
        "contract": "moc-main/contracts/queue/MocQueue.sol:MocQueue",
        "label": "opersInfo",
        "offset": 0,
        "slot": "624",
        "type": "t_mapping(t_uint256,t_struct(OperInfo)16419_storage)"
      },
      {
        "astId": 16489,
        "contract": "moc-main/contracts/queue/MocQueue.sol:MocQueue",
        "label": "minOperWaitingBlk",
        "offset": 0,
        "slot": "625",
        "type": "t_uint128"
      },
      {
        "astId": 16491,
        "contract": "moc-main/contracts/queue/MocQueue.sol:MocQueue",
        "label": "maxOperPerBatch",
        "offset": 16,
        "slot": "625",
        "type": "t_uint128"
      },
      {
        "astId": 18895,
        "contract": "moc-main/contracts/queue/MocQueue.sol:MocQueue",
        "label": "__gap",
        "offset": 0,
        "slot": "626",
        "type": "t_array(t_uint256)50_storage"
      }
    ],
    "types": {
      "t_address": {
        "encoding": "inplace",
        "label": "address",
        "numberOfBytes": "20"
      },
      "t_array(t_uint256)49_storage": {
        "base": "t_uint256",
        "encoding": "inplace",
        "label": "uint256[49]",
        "numberOfBytes": "1568"
      },
      "t_array(t_uint256)50_storage": {
        "base": "t_uint256",
        "encoding": "inplace",
        "label": "uint256[50]",
        "numberOfBytes": "1600"
      },
      "t_bool": {
        "encoding": "inplace",
        "label": "bool",
        "numberOfBytes": "1"
      },
      "t_bytes32": {
        "encoding": "inplace",
        "label": "bytes32",
        "numberOfBytes": "32"
      },
      "t_contract(IGovernor)16094": {
        "encoding": "inplace",
        "label": "contract IGovernor",
        "numberOfBytes": "20"
      },
      "t_contract(MocCARC20Deferred)9522": {
        "encoding": "inplace",
        "label": "contract MocCARC20Deferred",
        "numberOfBytes": "20"
      },
      "t_enum(OperType)16482": {
        "encoding": "inplace",
        "label": "enum MocQueue.OperType",
        "numberOfBytes": "1"
      },
      "t_mapping(t_address,t_bool)": {
        "encoding": "mapping",
        "key": "t_address",
        "label": "mapping(address => bool)",
        "numberOfBytes": "32",
        "value": "t_bool"
      },
      "t_mapping(t_bytes32,t_struct(RoleData)179_storage)": {
        "encoding": "mapping",
        "key": "t_bytes32",
        "label": "mapping(bytes32 => struct AccessControlUpgradeable.RoleData)",
        "numberOfBytes": "32",
        "value": "t_struct(RoleData)179_storage"
      },
      "t_mapping(t_uint256,t_struct(MintTCParams)12491_storage)": {
        "encoding": "mapping",
        "key": "t_uint256",
        "label": "mapping(uint256 => struct MocCore.MintTCParams)",
        "numberOfBytes": "32",
        "value": "t_struct(MintTCParams)12491_storage"
      },
      "t_mapping(t_uint256,t_struct(MintTCandTPParams)11396_storage)": {
        "encoding": "mapping",
        "key": "t_uint256",
        "label": "mapping(uint256 => struct MocCommons.MintTCandTPParams)",
        "numberOfBytes": "32",
        "value": "t_struct(MintTCandTPParams)11396_storage"
      },
      "t_mapping(t_uint256,t_struct(MintTPParams)12758_storage)": {
        "encoding": "mapping",
        "key": "t_uint256",
        "label": "mapping(uint256 => struct MocCore.MintTPParams)",
        "numberOfBytes": "32",
        "value": "t_struct(MintTPParams)12758_storage"
      },
      "t_mapping(t_uint256,t_struct(OperInfo)16419_storage)": {
        "encoding": "mapping",
        "key": "t_uint256",
        "label": "mapping(uint256 => struct MocQueue.OperInfo)",
        "numberOfBytes": "32",
        "value": "t_struct(OperInfo)16419_storage"
      },
      "t_mapping(t_uint256,t_struct(RedeemTCParams)12623_storage)": {
        "encoding": "mapping",
        "key": "t_uint256",
        "label": "mapping(uint256 => struct MocCore.RedeemTCParams)",
        "numberOfBytes": "32",
        "value": "t_struct(RedeemTCParams)12623_storage"
      },
      "t_mapping(t_uint256,t_struct(RedeemTCandTPParams)11411_storage)": {
        "encoding": "mapping",
        "key": "t_uint256",
        "label": "mapping(uint256 => struct MocCommons.RedeemTCandTPParams)",
        "numberOfBytes": "32",
        "value": "t_struct(RedeemTCandTPParams)11411_storage"
      },
      "t_mapping(t_uint256,t_struct(RedeemTPParams)11471_storage)": {
        "encoding": "mapping",
        "key": "t_uint256",
        "label": "mapping(uint256 => struct MocCommons.RedeemTPParams)",
        "numberOfBytes": "32",
        "value": "t_struct(RedeemTPParams)11471_storage"
      },
      "t_mapping(t_uint256,t_struct(SwapTCforTPParams)11458_storage)": {
        "encoding": "mapping",
        "key": "t_uint256",
        "label": "mapping(uint256 => struct MocCommons.SwapTCforTPParams)",
        "numberOfBytes": "32",
        "value": "t_struct(SwapTCforTPParams)11458_storage"
      },
      "t_mapping(t_uint256,t_struct(SwapTPforTCParams)11443_storage)": {
        "encoding": "mapping",
        "key": "t_uint256",
        "label": "mapping(uint256 => struct MocCommons.SwapTPforTCParams)",
        "numberOfBytes": "32",
        "value": "t_struct(SwapTPforTCParams)11443_storage"
      },
      "t_mapping(t_uint256,t_struct(SwapTPforTPParams)11428_storage)": {
        "encoding": "mapping",
        "key": "t_uint256",
        "label": "mapping(uint256 => struct MocCommons.SwapTPforTPParams)",
        "numberOfBytes": "32",
        "value": "t_struct(SwapTPforTPParams)11428_storage"
      },
      "t_struct(MintTCParams)12491_storage": {
        "encoding": "inplace",
        "label": "struct MocCore.MintTCParams",
        "members": [
          {
            "astId": 12482,
            "contract": "moc-main/contracts/queue/MocQueue.sol:MocQueue",
            "label": "qTC",
            "offset": 0,
            "slot": "0",
            "type": "t_uint256"
          },
          {
            "astId": 12484,
            "contract": "moc-main/contracts/queue/MocQueue.sol:MocQueue",
            "label": "qACmax",
            "offset": 0,
            "slot": "1",
            "type": "t_uint256"
          },
          {
            "astId": 12486,
            "contract": "moc-main/contracts/queue/MocQueue.sol:MocQueue",
            "label": "sender",
            "offset": 0,
            "slot": "2",
            "type": "t_address"
          },
          {
            "astId": 12488,
            "contract": "moc-main/contracts/queue/MocQueue.sol:MocQueue",
            "label": "recipient",
            "offset": 0,
            "slot": "3",
            "type": "t_address"
          },
          {
            "astId": 12490,
            "contract": "moc-main/contracts/queue/MocQueue.sol:MocQueue",
            "label": "vendor",
            "offset": 0,
            "slot": "4",
            "type": "t_address"
          }
        ],
        "numberOfBytes": "160"
      },
      "t_struct(MintTCandTPParams)11396_storage": {
        "encoding": "inplace",
        "label": "struct MocCommons.MintTCandTPParams",
        "members": [
          {
            "astId": 11385,
            "contract": "moc-main/contracts/queue/MocQueue.sol:MocQueue",
            "label": "tp",
            "offset": 0,
            "slot": "0",
            "type": "t_address"
          },
          {
            "astId": 11387,
            "contract": "moc-main/contracts/queue/MocQueue.sol:MocQueue",
            "label": "qTP",
            "offset": 0,
            "slot": "1",
            "type": "t_uint256"
          },
          {
            "astId": 11389,
            "contract": "moc-main/contracts/queue/MocQueue.sol:MocQueue",
            "label": "qACmax",
            "offset": 0,
            "slot": "2",
            "type": "t_uint256"
          },
          {
            "astId": 11391,
            "contract": "moc-main/contracts/queue/MocQueue.sol:MocQueue",
            "label": "sender",
            "offset": 0,
            "slot": "3",
            "type": "t_address"
          },
          {
            "astId": 11393,
            "contract": "moc-main/contracts/queue/MocQueue.sol:MocQueue",
            "label": "recipient",
            "offset": 0,
            "slot": "4",
            "type": "t_address"
          },
          {
            "astId": 11395,
            "contract": "moc-main/contracts/queue/MocQueue.sol:MocQueue",
            "label": "vendor",
            "offset": 0,
            "slot": "5",
            "type": "t_address"
          }
        ],
        "numberOfBytes": "192"
      },
      "t_struct(MintTPParams)12758_storage": {
        "encoding": "inplace",
        "label": "struct MocCore.MintTPParams",
        "members": [
          {
            "astId": 12747,
            "contract": "moc-main/contracts/queue/MocQueue.sol:MocQueue",
            "label": "tp",
            "offset": 0,
            "slot": "0",
            "type": "t_address"
          },
          {
            "astId": 12749,
            "contract": "moc-main/contracts/queue/MocQueue.sol:MocQueue",
            "label": "qTP",
            "offset": 0,
            "slot": "1",
            "type": "t_uint256"
          },
          {
            "astId": 12751,
            "contract": "moc-main/contracts/queue/MocQueue.sol:MocQueue",
            "label": "qACmax",
            "offset": 0,
            "slot": "2",
            "type": "t_uint256"
          },
          {
            "astId": 12753,
            "contract": "moc-main/contracts/queue/MocQueue.sol:MocQueue",
            "label": "sender",
            "offset": 0,
            "slot": "3",
            "type": "t_address"
          },
          {
            "astId": 12755,
            "contract": "moc-main/contracts/queue/MocQueue.sol:MocQueue",
            "label": "recipient",
            "offset": 0,
            "slot": "4",
            "type": "t_address"
          },
          {
            "astId": 12757,
            "contract": "moc-main/contracts/queue/MocQueue.sol:MocQueue",
            "label": "vendor",
            "offset": 0,
            "slot": "5",
            "type": "t_address"
          }
        ],
        "numberOfBytes": "192"
      },
      "t_struct(OperInfo)16419_storage": {
        "encoding": "inplace",
        "label": "struct MocQueue.OperInfo",
        "members": [
          {
            "astId": 16416,
            "contract": "moc-main/contracts/queue/MocQueue.sol:MocQueue",
            "label": "operType",
            "offset": 0,
            "slot": "0",
            "type": "t_enum(OperType)16482"
          },
          {
            "astId": 16418,
            "contract": "moc-main/contracts/queue/MocQueue.sol:MocQueue",
            "label": "queuedBlk",
            "offset": 1,
            "slot": "0",
            "type": "t_uint248"
          }
        ],
        "numberOfBytes": "32"
      },
      "t_struct(RedeemTCParams)12623_storage": {
        "encoding": "inplace",
        "label": "struct MocCore.RedeemTCParams",
        "members": [
          {
            "astId": 12614,
            "contract": "moc-main/contracts/queue/MocQueue.sol:MocQueue",
            "label": "qTC",
            "offset": 0,
            "slot": "0",
            "type": "t_uint256"
          },
          {
            "astId": 12616,
            "contract": "moc-main/contracts/queue/MocQueue.sol:MocQueue",
            "label": "qACmin",
            "offset": 0,
            "slot": "1",
            "type": "t_uint256"
          },
          {
            "astId": 12618,
            "contract": "moc-main/contracts/queue/MocQueue.sol:MocQueue",
            "label": "sender",
            "offset": 0,
            "slot": "2",
            "type": "t_address"
          },
          {
            "astId": 12620,
            "contract": "moc-main/contracts/queue/MocQueue.sol:MocQueue",
            "label": "recipient",
            "offset": 0,
            "slot": "3",
            "type": "t_address"
          },
          {
            "astId": 12622,
            "contract": "moc-main/contracts/queue/MocQueue.sol:MocQueue",
            "label": "vendor",
            "offset": 0,
            "slot": "4",
            "type": "t_address"
          }
        ],
        "numberOfBytes": "160"
      },
      "t_struct(RedeemTCandTPParams)11411_storage": {
        "encoding": "inplace",
        "label": "struct MocCommons.RedeemTCandTPParams",
        "members": [
          {
            "astId": 11398,
            "contract": "moc-main/contracts/queue/MocQueue.sol:MocQueue",
            "label": "tp",
            "offset": 0,
            "slot": "0",
            "type": "t_address"
          },
          {
            "astId": 11400,
            "contract": "moc-main/contracts/queue/MocQueue.sol:MocQueue",
            "label": "qTC",
            "offset": 0,
            "slot": "1",
            "type": "t_uint256"
          },
          {
            "astId": 11402,
            "contract": "moc-main/contracts/queue/MocQueue.sol:MocQueue",
            "label": "qTP",
            "offset": 0,
            "slot": "2",
            "type": "t_uint256"
          },
          {
            "astId": 11404,
            "contract": "moc-main/contracts/queue/MocQueue.sol:MocQueue",
            "label": "qACmin",
            "offset": 0,
            "slot": "3",
            "type": "t_uint256"
          },
          {
            "astId": 11406,
            "contract": "moc-main/contracts/queue/MocQueue.sol:MocQueue",
            "label": "sender",
            "offset": 0,
            "slot": "4",
            "type": "t_address"
          },
          {
            "astId": 11408,
            "contract": "moc-main/contracts/queue/MocQueue.sol:MocQueue",
            "label": "recipient",
            "offset": 0,
            "slot": "5",
            "type": "t_address"
          },
          {
            "astId": 11410,
            "contract": "moc-main/contracts/queue/MocQueue.sol:MocQueue",
            "label": "vendor",
            "offset": 0,
            "slot": "6",
            "type": "t_address"
          }
        ],
        "numberOfBytes": "224"
      },
      "t_struct(RedeemTPParams)11471_storage": {
        "encoding": "inplace",
        "label": "struct MocCommons.RedeemTPParams",
        "members": [
          {
            "astId": 11460,
            "contract": "moc-main/contracts/queue/MocQueue.sol:MocQueue",
            "label": "tp",
            "offset": 0,
            "slot": "0",
            "type": "t_address"
          },
          {
            "astId": 11462,
            "contract": "moc-main/contracts/queue/MocQueue.sol:MocQueue",
            "label": "qTP",
            "offset": 0,
            "slot": "1",
            "type": "t_uint256"
          },
          {
            "astId": 11464,
            "contract": "moc-main/contracts/queue/MocQueue.sol:MocQueue",
            "label": "qACmin",
            "offset": 0,
            "slot": "2",
            "type": "t_uint256"
          },
          {
            "astId": 11466,
            "contract": "moc-main/contracts/queue/MocQueue.sol:MocQueue",
            "label": "sender",
            "offset": 0,
            "slot": "3",
            "type": "t_address"
          },
          {
            "astId": 11468,
            "contract": "moc-main/contracts/queue/MocQueue.sol:MocQueue",
            "label": "recipient",
            "offset": 0,
            "slot": "4",
            "type": "t_address"
          },
          {
            "astId": 11470,
            "contract": "moc-main/contracts/queue/MocQueue.sol:MocQueue",
            "label": "vendor",
            "offset": 0,
            "slot": "5",
            "type": "t_address"
          }
        ],
        "numberOfBytes": "192"
      },
      "t_struct(RoleData)179_storage": {
        "encoding": "inplace",
        "label": "struct AccessControlUpgradeable.RoleData",
        "members": [
          {
            "astId": 176,
            "contract": "moc-main/contracts/queue/MocQueue.sol:MocQueue",
            "label": "members",
            "offset": 0,
            "slot": "0",
            "type": "t_mapping(t_address,t_bool)"
          },
          {
            "astId": 178,
            "contract": "moc-main/contracts/queue/MocQueue.sol:MocQueue",
            "label": "adminRole",
            "offset": 0,
            "slot": "1",
            "type": "t_bytes32"
          }
        ],
        "numberOfBytes": "64"
      },
      "t_struct(SwapTCforTPParams)11458_storage": {
        "encoding": "inplace",
        "label": "struct MocCommons.SwapTCforTPParams",
        "members": [
          {
            "astId": 11445,
            "contract": "moc-main/contracts/queue/MocQueue.sol:MocQueue",
            "label": "tp",
            "offset": 0,
            "slot": "0",
            "type": "t_address"
          },
          {
            "astId": 11447,
            "contract": "moc-main/contracts/queue/MocQueue.sol:MocQueue",
            "label": "qTC",
            "offset": 0,
            "slot": "1",
            "type": "t_uint256"
          },
          {
            "astId": 11449,
            "contract": "moc-main/contracts/queue/MocQueue.sol:MocQueue",
            "label": "qTPmin",
            "offset": 0,
            "slot": "2",
            "type": "t_uint256"
          },
          {
            "astId": 11451,
            "contract": "moc-main/contracts/queue/MocQueue.sol:MocQueue",
            "label": "qACmax",
            "offset": 0,
            "slot": "3",
            "type": "t_uint256"
          },
          {
            "astId": 11453,
            "contract": "moc-main/contracts/queue/MocQueue.sol:MocQueue",
            "label": "sender",
            "offset": 0,
            "slot": "4",
            "type": "t_address"
          },
          {
            "astId": 11455,
            "contract": "moc-main/contracts/queue/MocQueue.sol:MocQueue",
            "label": "recipient",
            "offset": 0,
            "slot": "5",
            "type": "t_address"
          },
          {
            "astId": 11457,
            "contract": "moc-main/contracts/queue/MocQueue.sol:MocQueue",
            "label": "vendor",
            "offset": 0,
            "slot": "6",
            "type": "t_address"
          }
        ],
        "numberOfBytes": "224"
      },
      "t_struct(SwapTPforTCParams)11443_storage": {
        "encoding": "inplace",
        "label": "struct MocCommons.SwapTPforTCParams",
        "members": [
          {
            "astId": 11430,
            "contract": "moc-main/contracts/queue/MocQueue.sol:MocQueue",
            "label": "tp",
            "offset": 0,
            "slot": "0",
            "type": "t_address"
          },
          {
            "astId": 11432,
            "contract": "moc-main/contracts/queue/MocQueue.sol:MocQueue",
            "label": "qTP",
            "offset": 0,
            "slot": "1",
            "type": "t_uint256"
          },
          {
            "astId": 11434,
            "contract": "moc-main/contracts/queue/MocQueue.sol:MocQueue",
            "label": "qTCmin",
            "offset": 0,
            "slot": "2",
            "type": "t_uint256"
          },
          {
            "astId": 11436,
            "contract": "moc-main/contracts/queue/MocQueue.sol:MocQueue",
            "label": "qACmax",
            "offset": 0,
            "slot": "3",
            "type": "t_uint256"
          },
          {
            "astId": 11438,
            "contract": "moc-main/contracts/queue/MocQueue.sol:MocQueue",
            "label": "sender",
            "offset": 0,
            "slot": "4",
            "type": "t_address"
          },
          {
            "astId": 11440,
            "contract": "moc-main/contracts/queue/MocQueue.sol:MocQueue",
            "label": "recipient",
            "offset": 0,
            "slot": "5",
            "type": "t_address"
          },
          {
            "astId": 11442,
            "contract": "moc-main/contracts/queue/MocQueue.sol:MocQueue",
            "label": "vendor",
            "offset": 0,
            "slot": "6",
            "type": "t_address"
          }
        ],
        "numberOfBytes": "224"
      },
      "t_struct(SwapTPforTPParams)11428_storage": {
        "encoding": "inplace",
        "label": "struct MocCommons.SwapTPforTPParams",
        "members": [
          {
            "astId": 11413,
            "contract": "moc-main/contracts/queue/MocQueue.sol:MocQueue",
            "label": "tpFrom",
            "offset": 0,
            "slot": "0",
            "type": "t_address"
          },
          {
            "astId": 11415,
            "contract": "moc-main/contracts/queue/MocQueue.sol:MocQueue",
            "label": "tpTo",
            "offset": 0,
            "slot": "1",
            "type": "t_address"
          },
          {
            "astId": 11417,
            "contract": "moc-main/contracts/queue/MocQueue.sol:MocQueue",
            "label": "qTP",
            "offset": 0,
            "slot": "2",
            "type": "t_uint256"
          },
          {
            "astId": 11419,
            "contract": "moc-main/contracts/queue/MocQueue.sol:MocQueue",
            "label": "qTPmin",
            "offset": 0,
            "slot": "3",
            "type": "t_uint256"
          },
          {
            "astId": 11421,
            "contract": "moc-main/contracts/queue/MocQueue.sol:MocQueue",
            "label": "qACmax",
            "offset": 0,
            "slot": "4",
            "type": "t_uint256"
          },
          {
            "astId": 11423,
            "contract": "moc-main/contracts/queue/MocQueue.sol:MocQueue",
            "label": "sender",
            "offset": 0,
            "slot": "5",
            "type": "t_address"
          },
          {
            "astId": 11425,
            "contract": "moc-main/contracts/queue/MocQueue.sol:MocQueue",
            "label": "recipient",
            "offset": 0,
            "slot": "6",
            "type": "t_address"
          },
          {
            "astId": 11427,
            "contract": "moc-main/contracts/queue/MocQueue.sol:MocQueue",
            "label": "vendor",
            "offset": 0,
            "slot": "7",
            "type": "t_address"
          }
        ],
        "numberOfBytes": "256"
      },
      "t_uint128": {
        "encoding": "inplace",
        "label": "uint128",
        "numberOfBytes": "16"
      },
      "t_uint248": {
        "encoding": "inplace",
        "label": "uint248",
        "numberOfBytes": "31"
      },
      "t_uint256": {
        "encoding": "inplace",
        "label": "uint256",
        "numberOfBytes": "32"
      },
      "t_uint8": {
        "encoding": "inplace",
        "label": "uint8",
        "numberOfBytes": "1"
      }
    }
  }
}