{
  "address": "0x60744BE41058Aa876153CdBeE75aD281Ab1a9738",
  "abi": [
    {
      "inputs": [
        {
          "internalType": "address",
          "name": "owner_",
          "type": "address"
        }
      ],
      "stateMutability": "nonpayable",
      "type": "constructor"
    },
    {
      "anonymous": false,
      "inputs": [
        {
          "indexed": true,
          "internalType": "address",
          "name": "previousOwner",
          "type": "address"
        },
        {
          "indexed": true,
          "internalType": "address",
          "name": "newOwner",
          "type": "address"
        }
      ],
      "name": "OwnershipTransferred",
      "type": "event"
    },
    {
      "inputs": [],
      "name": "data",
      "outputs": [
        {
          "internalType": "bytes32",
          "name": "",
          "type": "bytes32"
        }
      ],
      "stateMutability": "view",
      "type": "function"
    },
    {
      "inputs": [],
      "name": "owner",
      "outputs": [
        {
          "internalType": "address",
          "name": "",
          "type": "address"
        }
      ],
      "stateMutability": "view",
      "type": "function"
    },
    {
      "inputs": [],
      "name": "peek",
      "outputs": [
        {
          "internalType": "bytes32",
          "name": "",
          "type": "bytes32"
        },
        {
          "internalType": "bool",
          "name": "",
          "type": "bool"
        }
      ],
      "stateMutability": "view",
      "type": "function"
    },
    {
      "inputs": [],
      "name": "renounceOwnership",
      "outputs": [],
      "stateMutability": "nonpayable",
      "type": "function"
    },
    {
      "inputs": [
        {
          "internalType": "uint256",
          "name": "data_",
          "type": "uint256"
        }
      ],
      "name": "setMaxOperationalDifference",
      "outputs": [],
      "stateMutability": "nonpayable",
      "type": "function"
    },
    {
      "inputs": [
        {
          "internalType": "address",
          "name": "newOwner",
          "type": "address"
        }
      ],
      "name": "transferOwnership",
      "outputs": [],
      "stateMutability": "nonpayable",
      "type": "function"
    }
  ],
  "transactionHash": "0xa2a0c312f300b533326984b1543e03f50176238942bc3d3d0deeb0caad76f7d8",
  "args": [
    "0x40662eD57284B4B541A42D347BE2447ABd1b119d"
  ],
  "numDeployments": 1,
  "solcInputHash": "76e1e12d11f02c94d3bdaf0b14e68353",
  "bytecode": "0x60803461007057601f61037538819003918201601f19168301916001600160401b038311848410176100755780849260209460405283398101031261007057516001600160a01b0381168103610070576100619061005c3361008b565b61008b565b6040516102a290816100d38239f35b600080fd5b634e487b7160e01b600052604160045260246000fd5b600080546001600160a01b039283166001600160a01b03198216811783559216907f8be0079c531659141344cd1fd0a4f28419497f9722a3daafe3b4186f6b6457e09080a356fe604060808152600436101561001357600080fd5b600090813560e01c80634dc0c2b0146101f157806359e02dd7146101cd578063715018a61461017057806373d4a13a146101525780638da5cb5b1461012b5763f2fde38b1461006157600080fd5b34610127576020366003190112610127576001600160a01b03600435818116929083900361012357610091610214565b82156100d1575082546001600160a01b0319811683178455167f8be0079c531659141344cd1fd0a4f28419497f9722a3daafe3b4186f6b6457e08380a380f35b5162461bcd60e51b815260206004820152602660248201527f4f776e61626c653a206e6577206f776e657220697320746865207a65726f206160448201526564647265737360d01b6064820152608490fd5b8380fd5b5080fd5b5034610127578160031936011261012757905490516001600160a01b039091168152602090f35b50346101275781600319360112610127576020906001549051908152f35b82346101ca57806003193601126101ca57610189610214565b80546001600160a01b03198116825581906001600160a01b03167f8be0079c531659141344cd1fd0a4f28419497f9722a3daafe3b4186f6b6457e08280a380f35b80fd5b5090346101ca57806003193601126101ca5750600154815190815260016020820152f35b82346101ca5760203660031901126101ca5761020b610214565b60043560015580f35b6000546001600160a01b0316330361022857565b606460405162461bcd60e51b815260206004820152602060248201527f4f776e61626c653a2063616c6c6572206973206e6f7420746865206f776e65726044820152fdfea2646970667358221220d915572f475264e8fe96732d1a875d8d0ff24b2851f08718b4b778512f7e03d964736f6c63430008140033",
  "devdoc": {
    "kind": "dev",
    "methods": {
      "owner()": {
        "details": "Returns the address of the current owner."
      },
      "peek()": {
        "params": {
          "data": "peeked",
          "valid": "true if the data is valid"
        }
      },
      "renounceOwnership()": {
        "details": "Leaves the contract without owner. It will not be possible to call `onlyOwner` functions. Can only be called by the current owner. NOTE: Renouncing ownership will leave the contract without an owner, thereby disabling any functionality that is only available to the owner."
      },
      "transferOwnership(address)": {
        "details": "Transfers ownership of the contract to a new account (`newOwner`). Can only be called by the current owner."
      }
    },
    "title": "Flux Capacitor Operation Difference Maximum DataProvider",
    "version": 1
  },
  "userdoc": {
    "kind": "user",
    "methods": {
      "peek()": {
        "notice": "returns the given `data` if `valid`"
      }
    },
    "notice": "Allows the Owner, to set the value so that the protocol cold peek it.",
    "version": 1
  },
  "storageLayout": {
    "storage": [
      {
        "astId": 5005,
        "contract": "contracts/providers/FCMaxOpDifferenceProvider.sol:FCMaxOpDifferenceProvider",
        "label": "_owner",
        "offset": 0,
        "slot": "0",
        "type": "t_address"
      },
      {
        "astId": 7609,
        "contract": "contracts/providers/FCMaxOpDifferenceProvider.sol:FCMaxOpDifferenceProvider",
        "label": "data",
        "offset": 0,
        "slot": "1",
        "type": "t_bytes32"
      }
    ],
    "types": {
      "t_address": {
        "encoding": "inplace",
        "label": "address",
        "numberOfBytes": "20"
      },
      "t_bytes32": {
        "encoding": "inplace",
        "label": "bytes32",
        "numberOfBytes": "32"
      }
    }
  }
}