{
  "address": "0x14D227fa8666772E7d1B49Ce47A736f4909091A4",
  "abi": [
    {
      "inputs": [
        {
          "internalType": "address",
          "name": "owner_",
          "type": "address"
        }
      ],
      "stateMutability": "nonpayable",
      "type": "constructor"
    },
    {
      "anonymous": false,
      "inputs": [
        {
          "indexed": true,
          "internalType": "address",
          "name": "previousOwner",
          "type": "address"
        },
        {
          "indexed": true,
          "internalType": "address",
          "name": "newOwner",
          "type": "address"
        }
      ],
      "name": "OwnershipTransferred",
      "type": "event"
    },
    {
      "inputs": [],
      "name": "data",
      "outputs": [
        {
          "internalType": "bytes32",
          "name": "",
          "type": "bytes32"
        }
      ],
      "stateMutability": "view",
      "type": "function"
    },
    {
      "inputs": [],
      "name": "owner",
      "outputs": [
        {
          "internalType": "address",
          "name": "",
          "type": "address"
        }
      ],
      "stateMutability": "view",
      "type": "function"
    },
    {
      "inputs": [],
      "name": "peek",
      "outputs": [
        {
          "internalType": "bytes32",
          "name": "",
          "type": "bytes32"
        },
        {
          "internalType": "bool",
          "name": "",
          "type": "bool"
        }
      ],
      "stateMutability": "view",
      "type": "function"
    },
    {
      "inputs": [],
      "name": "renounceOwnership",
      "outputs": [],
      "stateMutability": "nonpayable",
      "type": "function"
    },
    {
      "inputs": [
        {
          "internalType": "uint256",
          "name": "data_",
          "type": "uint256"
        }
      ],
      "name": "setMaxAbsoluteOperation",
      "outputs": [],
      "stateMutability": "nonpayable",
      "type": "function"
    },
    {
      "inputs": [
        {
          "internalType": "address",
          "name": "newOwner",
          "type": "address"
        }
      ],
      "name": "transferOwnership",
      "outputs": [],
      "stateMutability": "nonpayable",
      "type": "function"
    }
  ],
  "transactionHash": "0x1144d0516141b76e7194291e87067bca7013b52701c06c456c71ff08cf237765",
  "args": [
    "0x5bCdf8A2E61BD238AEe43b99962Ee8BfBda1Beca"
  ],
  "numDeployments": 1,
  "solcInputHash": "76e1e12d11f02c94d3bdaf0b14e68353",
  "bytecode": "0x60803461007057601f61037638819003918201601f19168301916001600160401b038311848410176100755780849260209460405283398101031261007057516001600160a01b0381168103610070576100619061005c3361008b565b61008b565b6040516102a390816100d38239f35b600080fd5b634e487b7160e01b600052604160045260246000fd5b600080546001600160a01b039283166001600160a01b03198216811783559216907f8be0079c531659141344cd1fd0a4f28419497f9722a3daafe3b4186f6b6457e09080a356fe608080604052600436101561001357600080fd5b600090813560e01c90816359e02dd7146101ee57508063692987de146101cb578063715018a61461017157806373d4a13a146101535780638da5cb5b1461012c5763f2fde38b1461006357600080fd5b34610129576020366003190112610129576004356001600160a01b038181169182900361012557610092610215565b81156100d15782546001600160a01b0319811683178455167f8be0079c531659141344cd1fd0a4f28419497f9722a3daafe3b4186f6b6457e08380a380f35b60405162461bcd60e51b815260206004820152602660248201527f4f776e61626c653a206e6577206f776e657220697320746865207a65726f206160448201526564647265737360d01b6064820152608490fd5b8280fd5b80fd5b5034610129578060031936011261012957546040516001600160a01b039091168152602090f35b50346101295780600319360112610129576020600154604051908152f35b503461012957806003193601126101295761018a610215565b80546001600160a01b03198116825581906001600160a01b03167f8be0079c531659141344cd1fd0a4f28419497f9722a3daafe3b4186f6b6457e08280a380f35b5034610129576020366003190112610129576101e5610215565b60043560015580f35b905034610211578160031936011261021157604090600154815260016020820152f35b5080fd5b6000546001600160a01b0316330361022957565b606460405162461bcd60e51b815260206004820152602060248201527f4f776e61626c653a2063616c6c6572206973206e6f7420746865206f776e65726044820152fdfea26469706673582212207cc11a60cc5e8f2f3dfad2424e2960aed984a3ca1fff1fff2886cb90acd111ec64736f6c63430008140033",
  "devdoc": {
    "kind": "dev",
    "methods": {
      "owner()": {
        "details": "Returns the address of the current owner."
      },
      "peek()": {
        "params": {
          "data": "peeked",
          "valid": "true if the data is valid"
        }
      },
      "renounceOwnership()": {
        "details": "Leaves the contract without owner. It will not be possible to call `onlyOwner` functions. Can only be called by the current owner. NOTE: Renouncing ownership will leave the contract without an owner, thereby disabling any functionality that is only available to the owner."
      },
      "transferOwnership(address)": {
        "details": "Transfers ownership of the contract to a new account (`newOwner`). Can only be called by the current owner."
      }
    },
    "title": "Flux Capacitor Operation Absolute Maximum DataProvider",
    "version": 1
  },
  "userdoc": {
    "kind": "user",
    "methods": {
      "peek()": {
        "notice": "returns the given `data` if `valid`"
      }
    },
    "notice": "Allows the Owner, to set the value so that the protocol cold peek it.",
    "version": 1
  },
  "storageLayout": {
    "storage": [
      {
        "astId": 5005,
        "contract": "contracts/providers/FCMaxAbsoluteOpProvider.sol:FCMaxAbsoluteOpProvider",
        "label": "_owner",
        "offset": 0,
        "slot": "0",
        "type": "t_address"
      },
      {
        "astId": 7556,
        "contract": "contracts/providers/FCMaxAbsoluteOpProvider.sol:FCMaxAbsoluteOpProvider",
        "label": "data",
        "offset": 0,
        "slot": "1",
        "type": "t_bytes32"
      }
    ],
    "types": {
      "t_address": {
        "encoding": "inplace",
        "label": "address",
        "numberOfBytes": "20"
      },
      "t_bytes32": {
        "encoding": "inplace",
        "label": "bytes32",
        "numberOfBytes": "32"
      }
    }
  }
}