{
  "address": "0xC9f31644fEd40a9A15dc289613905F3c3292Dfb1",
  "abi": [
    {
      "inputs": [
        {
          "internalType": "contract IMocCARC20",
          "name": "rocCoreProxy_",
          "type": "address"
        },
        {
          "internalType": "contract IMoCState",
          "name": "mocMocStateProxy_",
          "type": "address"
        },
        {
          "internalType": "contract IUpgradeDelegator",
          "name": "upgradeDelegator_",
          "type": "address"
        },
        {
          "internalType": "address",
          "name": "mocFeeTokenPriceProvider_",
          "type": "address"
        },
        {
          "internalType": "address",
          "name": "rocFeeTokenPriceProvider_",
          "type": "address"
        },
        {
          "internalType": "address",
          "name": "revAucBTC2MOCProxy_",
          "type": "address"
        },
        {
          "internalType": "address",
          "name": "revAucBTC2MOCNewImplement_",
          "type": "address"
        },
        {
          "internalType": "contract IMOCCommissionSplitterV2",
          "name": "mocCommissionSplitterV2_",
          "type": "address"
        },
        {
          "internalType": "contract IROCCommissionSplitterV2",
          "name": "rocCommissionSplitterV2_",
          "type": "address"
        },
        {
          "internalType": "address payable",
          "name": "mocFeeTokenAddressRecipient2_",
          "type": "address"
        },
        {
          "internalType": "address payable",
          "name": "rocFeeTokenAddressRecipient2_",
          "type": "address"
        },
        {
          "internalType": "contract IReverseAuctionUniswapToken",
          "name": "revAuctionRIF2BTC_",
          "type": "address"
        },
        {
          "internalType": "contract IReverseAuctionUniswapToken",
          "name": "revAuctionBTC2RIF_",
          "type": "address"
        },
        {
          "internalType": "uint24",
          "name": "revAuctionFee_",
          "type": "uint24"
        }
      ],
      "stateMutability": "nonpayable",
      "type": "constructor"
    },
    {
      "inputs": [],
      "name": "execute",
      "outputs": [],
      "stateMutability": "nonpayable",
      "type": "function"
    },
    {
      "inputs": [],
      "name": "mocCommissionSplitterV2",
      "outputs": [
        {
          "internalType": "contract IMOCCommissionSplitterV2",
          "name": "",
          "type": "address"
        }
      ],
      "stateMutability": "view",
      "type": "function"
    },
    {
      "inputs": [],
      "name": "mocFeeTokenAddressRecipient2",
      "outputs": [
        {
          "internalType": "address payable",
          "name": "",
          "type": "address"
        }
      ],
      "stateMutability": "view",
      "type": "function"
    },
    {
      "inputs": [],
      "name": "mocFeeTokenPriceProvider",
      "outputs": [
        {
          "internalType": "address",
          "name": "",
          "type": "address"
        }
      ],
      "stateMutability": "view",
      "type": "function"
    },
    {
      "inputs": [],
      "name": "mocMocStateProxy",
      "outputs": [
        {
          "internalType": "contract IMoCState",
          "name": "",
          "type": "address"
        }
      ],
      "stateMutability": "view",
      "type": "function"
    },
    {
      "inputs": [],
      "name": "revAucBTC2MOCNewImplement",
      "outputs": [
        {
          "internalType": "address",
          "name": "",
          "type": "address"
        }
      ],
      "stateMutability": "view",
      "type": "function"
    },
    {
      "inputs": [],
      "name": "revAucBTC2MOCProxy",
      "outputs": [
        {
          "internalType": "address",
          "name": "",
          "type": "address"
        }
      ],
      "stateMutability": "view",
      "type": "function"
    },
    {
      "inputs": [],
      "name": "revAuctionBTC2RIF",
      "outputs": [
        {
          "internalType": "contract IReverseAuctionUniswapToken",
          "name": "",
          "type": "address"
        }
      ],
      "stateMutability": "view",
      "type": "function"
    },
    {
      "inputs": [],
      "name": "revAuctionFee",
      "outputs": [
        {
          "internalType": "uint24",
          "name": "",
          "type": "uint24"
        }
      ],
      "stateMutability": "view",
      "type": "function"
    },
    {
      "inputs": [],
      "name": "revAuctionRIF2BTC",
      "outputs": [
        {
          "internalType": "contract IReverseAuctionUniswapToken",
          "name": "",
          "type": "address"
        }
      ],
      "stateMutability": "view",
      "type": "function"
    },
    {
      "inputs": [],
      "name": "rocCommissionSplitterV2",
      "outputs": [
        {
          "internalType": "contract IROCCommissionSplitterV2",
          "name": "",
          "type": "address"
        }
      ],
      "stateMutability": "view",
      "type": "function"
    },
    {
      "inputs": [],
      "name": "rocCoreProxy",
      "outputs": [
        {
          "internalType": "contract IMocCARC20",
          "name": "",
          "type": "address"
        }
      ],
      "stateMutability": "view",
      "type": "function"
    },
    {
      "inputs": [],
      "name": "rocFeeTokenAddressRecipient2",
      "outputs": [
        {
          "internalType": "address payable",
          "name": "",
          "type": "address"
        }
      ],
      "stateMutability": "view",
      "type": "function"
    },
    {
      "inputs": [],
      "name": "rocFeeTokenPriceProvider",
      "outputs": [
        {
          "internalType": "address",
          "name": "",
          "type": "address"
        }
      ],
      "stateMutability": "view",
      "type": "function"
    },
    {
      "inputs": [],
      "name": "upgradeDelegator",
      "outputs": [
        {
          "internalType": "contract IUpgradeDelegator",
          "name": "",
          "type": "address"
        }
      ],
      "stateMutability": "view",
      "type": "function"
    }
  ],
  "transactionHash": "0x870454b2a0080e65f66e80d5e5f4e80f88e1a19fead57741bbdd442a38203158",
  "args": [
    "0xf5008675cF2b677682C8dfF7f1ae149643781169",
    "0xfb526c0Ace90f52049691389B040a33D03343eb7",
    "0xa12a9A492eFEBf4E43B174A57886286dA5057B8D",
    "0xE972c8E83A5b97bB4FC867855A0aA13EF96f228D",
    "0x4F9724e78e7Cd521c879b6B9eE7D5b4e7df3cfbC",
    "0xb908E56e1f386d6F955569a687d5286F7e49A90F",
    "0xc2d83b071aC905c0083a4Be4547631Cf197Bcc28",
    "0xA260d5A35Be13dE8c55234f67Cd776058c3fc94b",
    "0x45da0053c4108F3C99672c98D5B6Abbb8921E21b",
    "0xCD8A1c9aCc980ae031456573e34dC05cD7daE6e3",
    "0xCD8A1c9aCc980ae031456573e34dC05cD7daE6e3",
    "0xb908E56e1f386d6F955569a687d5286F7e49A90F",
    "0xb908E56e1f386d6F955569a687d5286F7e49A90F",
    3000
  ],
  "numDeployments": 1,
  "solcInputHash": "1d98d7117339c0eb0eae878186cb67ec",
  "bytecode": "0x3461024757610b1038819003610200601f8201601f19168101906001600160401b0382119082101761024c576101c0928291604052610200391261024757610200516001600160a01b03811681036102475761022051906001600160a01b03821682036102475761024051916001600160a01b038316830361024757610086610260610262565b92610092610280610262565b61009d6102a0610262565b946100a96102c0610262565b6102e0516001600160a01b03811681036102475761030051916001600160a01b038316830361024757610120986100e1610320610262565b946100ed610340610262565b966100f9610360610262565b98610105610380610262565b9a6101a061020001519c8d62ffffff8116036102475760805260a05260c052600080546001600160a01b039384166001600160a01b0319918216179091556001805492909316911617905560e0526101005287526101405261016052610180526101a0526101c0526101e0908152604051610899929091908361027784396080518381816102960152610461015260a0518381816101cd0152610408015260c05183818161036701526107b9015260e05183818161025301526103a101526101005183818161031c01526103d101525182818161021001526104bc015261014051828181610533015261074c01526101605182818161014b01526104fa015261018051828181610108015261057101526101a0518281816102d901526105aa01526101c05182818161062601526107fc01525181818161019501526105ec0152f35b600080fd5b634e487b7160e01b600052604160045260246000fd5b51906001600160a01b03821682036102475756fe608060408181526004918236101561001657600080fd5b600092833560e01c9182632ead3074146107e85750816333d2e956146107a457816344f060641461077b578163531e107b14610737578163614619541461034b57508063615a36f7146103085780636b140e4e146102c55780637e00ac85146102825780638def23341461023f578063a792022d146101fc578063bf694775146101b9578063d097336e1461017a578063ddb46e5d14610137578063e61fb293146100f45763f2dd0152146100ca57600080fd5b346100f057816003193601126100f057905490516001600160a01b039091168152602090f35b5080fd5b50346100f057816003193601126100f057517f00000000000000000000000000000000000000000000000000000000000000006001600160a01b03168152602090f35b50346100f057816003193601126100f057517f00000000000000000000000000000000000000000000000000000000000000006001600160a01b03168152602090f35b50346100f057816003193601126100f0576020905162ffffff7f0000000000000000000000000000000000000000000000000000000000000000168152f35b50346100f057816003193601126100f057517f00000000000000000000000000000000000000000000000000000000000000006001600160a01b03168152602090f35b50346100f057816003193601126100f057517f00000000000000000000000000000000000000000000000000000000000000006001600160a01b03168152602090f35b50346100f057816003193601126100f057517f00000000000000000000000000000000000000000000000000000000000000006001600160a01b03168152602090f35b50346100f057816003193601126100f057517f00000000000000000000000000000000000000000000000000000000000000006001600160a01b03168152602090f35b50346100f057816003193601126100f057517f00000000000000000000000000000000000000000000000000000000000000006001600160a01b03168152602090f35b50346100f057816003193601126100f057517f00000000000000000000000000000000000000000000000000000000000000006001600160a01b03168152602090f35b8383346100f057816003193601126100f0576001600160a01b037f000000000000000000000000000000000000000000000000000000000000000081169190823b156107335781519463266a23b160e21b8652817f00000000000000000000000000000000000000000000000000000000000000001681870152848660448183602498877f0000000000000000000000000000000000000000000000000000000000000000168a8401525af1801561072957610714575b849550817f00000000000000000000000000000000000000000000000000000000000000001682865416813b1561068b5786918683928751948593849262aeeb1160e61b8452888401525af180156106cb579086916106ff575b5050817f0000000000000000000000000000000000000000000000000000000000000000168260015416813b1561068b57869186839287519485938492630f1e5e2b60e01b8452888401525af180156106cb579086916106ea575b5050817f000000000000000000000000000000000000000000000000000000000000000016803b156106ae578580918686518094819363c574dd3360e01b8352887f000000000000000000000000000000000000000000000000000000000000000016888401525af180156106cb579086916106d5575b5050817f000000000000000000000000000000000000000000000000000000000000000016803b156106ae5785809186865180948193631545ee9160e01b8352887f000000000000000000000000000000000000000000000000000000000000000016888401525af180156106cb579086916106b2575b5050817f00000000000000000000000000000000000000000000000000000000000000001693843b156106ae5783519263755dab1160e11b93848152878184818362ffffff7f0000000000000000000000000000000000000000000000000000000000000000169b8c8a8401525af180156106a45790889161068f575b50507f00000000000000000000000000000000000000000000000000000000000000001692833b1561068b578680948651978895869485528401525af1908115610682575061066e5750f35b816106789161082b565b61067f5780f35b80fd5b513d84823e3d90fd5b8680fd5b816106999161082b565b61068b578689610622565b86513d8a823e3d90fd5b8580fd5b816106bc9161082b565b6106c75784876105a5565b8480fd5b84513d88823e3d90fd5b816106df9161082b565b6106c757848761052e565b816106f49161082b565b6106c75784876104b7565b816107099161082b565b6106c757848761045c565b939094816107219161082b565b928490610402565b83513d87823e3d90fd5b8380fd5b5050346100f057816003193601126100f057517f00000000000000000000000000000000000000000000000000000000000000006001600160a01b03168152602090f35b5050346100f057816003193601126100f05760015490516001600160a01b039091168152602090f35b5050346100f057816003193601126100f057517f00000000000000000000000000000000000000000000000000000000000000006001600160a01b03168152602090f35b8490346100f057816003193601126100f0577f00000000000000000000000000000000000000000000000000000000000000006001600160a01b03168152602090f35b90601f8019910116810190811067ffffffffffffffff82111761084d57604052565b634e487b7160e01b600052604160045260246000fdfea2646970667358221220f9ff25049593632db2f6e7e0213c8c3f03549c5bb401bc88c237c528efc543e764736f6c63430008140033",
  "devdoc": {
    "kind": "dev",
    "methods": {
      "constructor": {
        "params": {
          "mocCommissionSplitterV2_": "MoC Commission Splitter V2",
          "mocFeeTokenAddressRecipient2_": "MOC Output Token MOC Destination Recipient 2",
          "mocFeeTokenPriceProvider_": "new Fee Token Price Provider address for MOC/USD",
          "mocMocStateProxy_": "MoCState proxy contract MOC V1",
          "revAucBTC2MOCNewImplement_": "Implementation of the RevAuction BTC2MOC",
          "revAucBTC2MOCProxy_": "Proxy of the RevAuction BTC2MOC",
          "revAuctionBTC2RIF_": "Reverse Auction BTC2RIF",
          "revAuctionFee_": "Reverse Auction Uniswap Token Fee",
          "revAuctionRIF2BTC_": "Reverse Auction RIF2BTC",
          "rocCommissionSplitterV2_": "RoC Commission Splitter V2",
          "rocCoreProxy_": "RoC Core proxy contract ROC V2",
          "rocFeeTokenAddressRecipient2_": "ROC Output Token MOC Destination Recipient 2",
          "rocFeeTokenPriceProvider_": "new Fee Token Price Provider address for MOC/RIF",
          "upgradeDelegator_": "Upgrade Delegator for OMOC"
        }
      },
      "execute()": {
        "details": "Should be called by the governor, but this contract does not check that explicitly because it is not its responsibility in the current architecture IMPORTANT: This function should not be overridden, you should only redefine _beforeUpgrade and _afterUpgrade methods to use this template"
      }
    },
    "version": 1
  },
  "userdoc": {
    "kind": "user",
    "methods": {
      "constructor": {
        "notice": "constructor"
      },
      "execute()": {
        "notice": "Execute the changes."
      }
    },
    "version": 1
  },
  "storageLayout": {
    "storage": [
      {
        "astId": 7587,
        "contract": "contracts/changers/FixReverseAuctionProposal.sol:FixReverseAuctionProposal",
        "label": "mocFeeTokenPriceProvider",
        "offset": 0,
        "slot": "0",
        "type": "t_address"
      },
      {
        "astId": 7589,
        "contract": "contracts/changers/FixReverseAuctionProposal.sol:FixReverseAuctionProposal",
        "label": "rocFeeTokenPriceProvider",
        "offset": 0,
        "slot": "1",
        "type": "t_address"
      }
    ],
    "types": {
      "t_address": {
        "encoding": "inplace",
        "label": "address",
        "numberOfBytes": "20"
      }
    }
  }
}