{
  "address": "0xeAcB4ACceaFebE4C5FE9f16a4ae544e4D86bf4aD",
  "abi": [
    {
      "inputs": [],
      "stateMutability": "nonpayable",
      "type": "constructor"
    },
    {
      "inputs": [],
      "name": "BucketAlreadyRegistered",
      "type": "error"
    },
    {
      "inputs": [],
      "name": "ExecutionFeePaymentFailed",
      "type": "error"
    },
    {
      "inputs": [],
      "name": "InvalidAddress",
      "type": "error"
    },
    {
      "inputs": [],
      "name": "InvalidValue",
      "type": "error"
    },
    {
      "inputs": [],
      "name": "NotAuthorizedChanger",
      "type": "error"
    },
    {
      "inputs": [],
      "name": "NotWhenPaused",
      "type": "error"
    },
    {
      "inputs": [],
      "name": "OnlyPauser",
      "type": "error"
    },
    {
      "inputs": [],
      "name": "OnlyWhilePaused",
      "type": "error"
    },
    {
      "inputs": [],
      "name": "Unstoppable",
      "type": "error"
    },
    {
      "inputs": [
        {
          "internalType": "uint256",
          "name": "expectedValue",
          "type": "uint256"
        }
      ],
      "name": "WrongExecutionFee",
      "type": "error"
    },
    {
      "anonymous": false,
      "inputs": [
        {
          "indexed": false,
          "internalType": "address",
          "name": "previousAdmin",
          "type": "address"
        },
        {
          "indexed": false,
          "internalType": "address",
          "name": "newAdmin",
          "type": "address"
        }
      ],
      "name": "AdminChanged",
      "type": "event"
    },
    {
      "anonymous": false,
      "inputs": [
        {
          "indexed": true,
          "internalType": "address",
          "name": "beacon",
          "type": "address"
        }
      ],
      "name": "BeaconUpgraded",
      "type": "event"
    },
    {
      "anonymous": false,
      "inputs": [
        {
          "indexed": false,
          "internalType": "uint8",
          "name": "version",
          "type": "uint8"
        }
      ],
      "name": "Initialized",
      "type": "event"
    },
    {
      "anonymous": false,
      "inputs": [
        {
          "indexed": false,
          "internalType": "uint256",
          "name": "operId_",
          "type": "uint256"
        },
        {
          "indexed": false,
          "internalType": "bytes4",
          "name": "errorCode_",
          "type": "bytes4"
        },
        {
          "indexed": false,
          "internalType": "string",
          "name": "msg_",
          "type": "string"
        }
      ],
      "name": "OperationError",
      "type": "event"
    },
    {
      "anonymous": false,
      "inputs": [
        {
          "indexed": true,
          "internalType": "address",
          "name": "executor",
          "type": "address"
        },
        {
          "indexed": true,
          "internalType": "uint256",
          "name": "operId_",
          "type": "uint256"
        }
      ],
      "name": "OperationExecuted",
      "type": "event"
    },
    {
      "anonymous": false,
      "inputs": [
        {
          "indexed": true,
          "internalType": "address",
          "name": "bucket_",
          "type": "address"
        },
        {
          "indexed": false,
          "internalType": "uint256",
          "name": "operId_",
          "type": "uint256"
        },
        {
          "indexed": false,
          "internalType": "enum MocQueueExecFees.OperType",
          "name": "operType_",
          "type": "uint8"
        }
      ],
      "name": "OperationQueued",
      "type": "event"
    },
    {
      "anonymous": false,
      "inputs": [
        {
          "indexed": false,
          "internalType": "address",
          "name": "account",
          "type": "address"
        }
      ],
      "name": "Paused",
      "type": "event"
    },
    {
      "anonymous": false,
      "inputs": [
        {
          "indexed": true,
          "internalType": "bytes32",
          "name": "role",
          "type": "bytes32"
        },
        {
          "indexed": true,
          "internalType": "bytes32",
          "name": "previousAdminRole",
          "type": "bytes32"
        },
        {
          "indexed": true,
          "internalType": "bytes32",
          "name": "newAdminRole",
          "type": "bytes32"
        }
      ],
      "name": "RoleAdminChanged",
      "type": "event"
    },
    {
      "anonymous": false,
      "inputs": [
        {
          "indexed": true,
          "internalType": "bytes32",
          "name": "role",
          "type": "bytes32"
        },
        {
          "indexed": true,
          "internalType": "address",
          "name": "account",
          "type": "address"
        },
        {
          "indexed": true,
          "internalType": "address",
          "name": "sender",
          "type": "address"
        }
      ],
      "name": "RoleGranted",
      "type": "event"
    },
    {
      "anonymous": false,
      "inputs": [
        {
          "indexed": true,
          "internalType": "bytes32",
          "name": "role",
          "type": "bytes32"
        },
        {
          "indexed": true,
          "internalType": "address",
          "name": "account",
          "type": "address"
        },
        {
          "indexed": true,
          "internalType": "address",
          "name": "sender",
          "type": "address"
        }
      ],
      "name": "RoleRevoked",
      "type": "event"
    },
    {
      "anonymous": false,
      "inputs": [
        {
          "indexed": true,
          "internalType": "address",
          "name": "sender_",
          "type": "address"
        },
        {
          "indexed": true,
          "internalType": "address",
          "name": "recipient_",
          "type": "address"
        },
        {
          "indexed": false,
          "internalType": "uint256",
          "name": "qTC_",
          "type": "uint256"
        },
        {
          "indexed": false,
          "internalType": "uint256",
          "name": "qAC_",
          "type": "uint256"
        },
        {
          "indexed": false,
          "internalType": "uint256",
          "name": "qACfee_",
          "type": "uint256"
        },
        {
          "indexed": false,
          "internalType": "uint256",
          "name": "qFeeToken_",
          "type": "uint256"
        },
        {
          "indexed": false,
          "internalType": "uint256",
          "name": "qACVendorMarkup_",
          "type": "uint256"
        },
        {
          "indexed": false,
          "internalType": "uint256",
          "name": "qFeeTokenVendorMarkup_",
          "type": "uint256"
        },
        {
          "indexed": false,
          "internalType": "address",
          "name": "vendor_",
          "type": "address"
        },
        {
          "indexed": false,
          "internalType": "uint256",
          "name": "operId_",
          "type": "uint256"
        }
      ],
      "name": "TCMinted",
      "type": "event"
    },
    {
      "anonymous": false,
      "inputs": [
        {
          "indexed": true,
          "internalType": "address",
          "name": "sender_",
          "type": "address"
        },
        {
          "indexed": true,
          "internalType": "address",
          "name": "recipient_",
          "type": "address"
        },
        {
          "indexed": false,
          "internalType": "uint256",
          "name": "qTC_",
          "type": "uint256"
        },
        {
          "indexed": false,
          "internalType": "uint256",
          "name": "qAC_",
          "type": "uint256"
        },
        {
          "indexed": false,
          "internalType": "uint256",
          "name": "qACfee_",
          "type": "uint256"
        },
        {
          "indexed": false,
          "internalType": "uint256",
          "name": "qFeeToken_",
          "type": "uint256"
        },
        {
          "indexed": false,
          "internalType": "uint256",
          "name": "qACVendorMarkup_",
          "type": "uint256"
        },
        {
          "indexed": false,
          "internalType": "uint256",
          "name": "qFeeTokenVendorMarkup_",
          "type": "uint256"
        },
        {
          "indexed": false,
          "internalType": "address",
          "name": "vendor_",
          "type": "address"
        },
        {
          "indexed": false,
          "internalType": "uint256",
          "name": "operId_",
          "type": "uint256"
        }
      ],
      "name": "TCRedeemed",
      "type": "event"
    },
    {
      "anonymous": false,
      "inputs": [
        {
          "indexed": true,
          "internalType": "address",
          "name": "tp_",
          "type": "address"
        },
        {
          "indexed": true,
          "internalType": "address",
          "name": "sender_",
          "type": "address"
        },
        {
          "indexed": true,
          "internalType": "address",
          "name": "recipient_",
          "type": "address"
        },
        {
          "indexed": false,
          "internalType": "uint256",
          "name": "qTC_",
          "type": "uint256"
        },
        {
          "indexed": false,
          "internalType": "uint256",
          "name": "qTP_",
          "type": "uint256"
        },
        {
          "indexed": false,
          "internalType": "uint256",
          "name": "qACfee_",
          "type": "uint256"
        },
        {
          "indexed": false,
          "internalType": "uint256",
          "name": "qFeeToken_",
          "type": "uint256"
        },
        {
          "indexed": false,
          "internalType": "uint256",
          "name": "qACVendorMarkup_",
          "type": "uint256"
        },
        {
          "indexed": false,
          "internalType": "uint256",
          "name": "qFeeTokenVendorMarkup_",
          "type": "uint256"
        },
        {
          "indexed": false,
          "internalType": "address",
          "name": "vendor_",
          "type": "address"
        },
        {
          "indexed": false,
          "internalType": "uint256",
          "name": "operId_",
          "type": "uint256"
        }
      ],
      "name": "TCSwappedForTP",
      "type": "event"
    },
    {
      "anonymous": false,
      "inputs": [
        {
          "indexed": true,
          "internalType": "address",
          "name": "tp_",
          "type": "address"
        },
        {
          "indexed": true,
          "internalType": "address",
          "name": "sender_",
          "type": "address"
        },
        {
          "indexed": true,
          "internalType": "address",
          "name": "recipient_",
          "type": "address"
        },
        {
          "indexed": false,
          "internalType": "uint256",
          "name": "qTC_",
          "type": "uint256"
        },
        {
          "indexed": false,
          "internalType": "uint256",
          "name": "qTP_",
          "type": "uint256"
        },
        {
          "indexed": false,
          "internalType": "uint256",
          "name": "qAC_",
          "type": "uint256"
        },
        {
          "indexed": false,
          "internalType": "uint256",
          "name": "qACfee_",
          "type": "uint256"
        },
        {
          "indexed": false,
          "internalType": "uint256",
          "name": "qFeeToken_",
          "type": "uint256"
        },
        {
          "indexed": false,
          "internalType": "uint256",
          "name": "qACVendorMarkup_",
          "type": "uint256"
        },
        {
          "indexed": false,
          "internalType": "uint256",
          "name": "qFeeTokenVendorMarkup_",
          "type": "uint256"
        },
        {
          "indexed": false,
          "internalType": "address",
          "name": "vendor_",
          "type": "address"
        },
        {
          "indexed": false,
          "internalType": "uint256",
          "name": "operId_",
          "type": "uint256"
        }
      ],
      "name": "TCandTPMinted",
      "type": "event"
    },
    {
      "anonymous": false,
      "inputs": [
        {
          "indexed": true,
          "internalType": "address",
          "name": "tp_",
          "type": "address"
        },
        {
          "indexed": true,
          "internalType": "address",
          "name": "sender_",
          "type": "address"
        },
        {
          "indexed": true,
          "internalType": "address",
          "name": "recipient_",
          "type": "address"
        },
        {
          "indexed": false,
          "internalType": "uint256",
          "name": "qTC_",
          "type": "uint256"
        },
        {
          "indexed": false,
          "internalType": "uint256",
          "name": "qTP_",
          "type": "uint256"
        },
        {
          "indexed": false,
          "internalType": "uint256",
          "name": "qAC_",
          "type": "uint256"
        },
        {
          "indexed": false,
          "internalType": "uint256",
          "name": "qACfee_",
          "type": "uint256"
        },
        {
          "indexed": false,
          "internalType": "uint256",
          "name": "qFeeToken_",
          "type": "uint256"
        },
        {
          "indexed": false,
          "internalType": "uint256",
          "name": "qACVendorMarkup_",
          "type": "uint256"
        },
        {
          "indexed": false,
          "internalType": "uint256",
          "name": "qFeeTokenVendorMarkup_",
          "type": "uint256"
        },
        {
          "indexed": false,
          "internalType": "address",
          "name": "vendor_",
          "type": "address"
        },
        {
          "indexed": false,
          "internalType": "uint256",
          "name": "operId_",
          "type": "uint256"
        }
      ],
      "name": "TCandTPRedeemed",
      "type": "event"
    },
    {
      "anonymous": false,
      "inputs": [
        {
          "indexed": true,
          "internalType": "address",
          "name": "tp_",
          "type": "address"
        },
        {
          "indexed": true,
          "internalType": "address",
          "name": "sender_",
          "type": "address"
        },
        {
          "indexed": true,
          "internalType": "address",
          "name": "recipient_",
          "type": "address"
        },
        {
          "indexed": false,
          "internalType": "uint256",
          "name": "qTP_",
          "type": "uint256"
        },
        {
          "indexed": false,
          "internalType": "uint256",
          "name": "qAC_",
          "type": "uint256"
        },
        {
          "indexed": false,
          "internalType": "uint256",
          "name": "qACfee_",
          "type": "uint256"
        },
        {
          "indexed": false,
          "internalType": "uint256",
          "name": "qFeeToken_",
          "type": "uint256"
        },
        {
          "indexed": false,
          "internalType": "uint256",
          "name": "qACVendorMarkup_",
          "type": "uint256"
        },
        {
          "indexed": false,
          "internalType": "uint256",
          "name": "qFeeTokenVendorMarkup_",
          "type": "uint256"
        },
        {
          "indexed": false,
          "internalType": "address",
          "name": "vendor_",
          "type": "address"
        },
        {
          "indexed": false,
          "internalType": "uint256",
          "name": "operId_",
          "type": "uint256"
        }
      ],
      "name": "TPMinted",
      "type": "event"
    },
    {
      "anonymous": false,
      "inputs": [
        {
          "indexed": true,
          "internalType": "address",
          "name": "tp_",
          "type": "address"
        },
        {
          "indexed": true,
          "internalType": "address",
          "name": "sender_",
          "type": "address"
        },
        {
          "indexed": true,
          "internalType": "address",
          "name": "recipient_",
          "type": "address"
        },
        {
          "indexed": false,
          "internalType": "uint256",
          "name": "qTP_",
          "type": "uint256"
        },
        {
          "indexed": false,
          "internalType": "uint256",
          "name": "qAC_",
          "type": "uint256"
        },
        {
          "indexed": false,
          "internalType": "uint256",
          "name": "qACfee_",
          "type": "uint256"
        },
        {
          "indexed": false,
          "internalType": "uint256",
          "name": "qFeeToken_",
          "type": "uint256"
        },
        {
          "indexed": false,
          "internalType": "uint256",
          "name": "qACVendorMarkup_",
          "type": "uint256"
        },
        {
          "indexed": false,
          "internalType": "uint256",
          "name": "qFeeTokenVendorMarkup_",
          "type": "uint256"
        },
        {
          "indexed": false,
          "internalType": "address",
          "name": "vendor_",
          "type": "address"
        },
        {
          "indexed": false,
          "internalType": "uint256",
          "name": "operId_",
          "type": "uint256"
        }
      ],
      "name": "TPRedeemed",
      "type": "event"
    },
    {
      "anonymous": false,
      "inputs": [
        {
          "indexed": true,
          "internalType": "address",
          "name": "tp_",
          "type": "address"
        },
        {
          "indexed": true,
          "internalType": "address",
          "name": "sender_",
          "type": "address"
        },
        {
          "indexed": true,
          "internalType": "address",
          "name": "recipient_",
          "type": "address"
        },
        {
          "indexed": false,
          "internalType": "uint256",
          "name": "qTP_",
          "type": "uint256"
        },
        {
          "indexed": false,
          "internalType": "uint256",
          "name": "qTC_",
          "type": "uint256"
        },
        {
          "indexed": false,
          "internalType": "uint256",
          "name": "qACfee_",
          "type": "uint256"
        },
        {
          "indexed": false,
          "internalType": "uint256",
          "name": "qFeeToken_",
          "type": "uint256"
        },
        {
          "indexed": false,
          "internalType": "uint256",
          "name": "qACVendorMarkup_",
          "type": "uint256"
        },
        {
          "indexed": false,
          "internalType": "uint256",
          "name": "qFeeTokenVendorMarkup_",
          "type": "uint256"
        },
        {
          "indexed": false,
          "internalType": "address",
          "name": "vendor_",
          "type": "address"
        },
        {
          "indexed": false,
          "internalType": "uint256",
          "name": "operId_",
          "type": "uint256"
        }
      ],
      "name": "TPSwappedForTC",
      "type": "event"
    },
    {
      "anonymous": false,
      "inputs": [
        {
          "indexed": true,
          "internalType": "address",
          "name": "tpFrom_",
          "type": "address"
        },
        {
          "indexed": false,
          "internalType": "address",
          "name": "tpTo_",
          "type": "address"
        },
        {
          "indexed": true,
          "internalType": "address",
          "name": "sender_",
          "type": "address"
        },
        {
          "indexed": true,
          "internalType": "address",
          "name": "recipient_",
          "type": "address"
        },
        {
          "indexed": false,
          "internalType": "uint256",
          "name": "qTPfrom_",
          "type": "uint256"
        },
        {
          "indexed": false,
          "internalType": "uint256",
          "name": "qTPto_",
          "type": "uint256"
        },
        {
          "indexed": false,
          "internalType": "uint256",
          "name": "qACfee_",
          "type": "uint256"
        },
        {
          "indexed": false,
          "internalType": "uint256",
          "name": "qFeeToken_",
          "type": "uint256"
        },
        {
          "indexed": false,
          "internalType": "uint256",
          "name": "qACVendorMarkup_",
          "type": "uint256"
        },
        {
          "indexed": false,
          "internalType": "uint256",
          "name": "qFeeTokenVendorMarkup_",
          "type": "uint256"
        },
        {
          "indexed": false,
          "internalType": "address",
          "name": "vendor_",
          "type": "address"
        },
        {
          "indexed": false,
          "internalType": "uint256",
          "name": "operId_",
          "type": "uint256"
        }
      ],
      "name": "TPSwappedForTP",
      "type": "event"
    },
    {
      "anonymous": false,
      "inputs": [
        {
          "indexed": false,
          "internalType": "uint256",
          "name": "operId_",
          "type": "uint256"
        },
        {
          "indexed": false,
          "internalType": "bytes",
          "name": "reason_",
          "type": "bytes"
        }
      ],
      "name": "UnhandledError",
      "type": "event"
    },
    {
      "anonymous": false,
      "inputs": [
        {
          "indexed": false,
          "internalType": "address",
          "name": "account",
          "type": "address"
        }
      ],
      "name": "Unpaused",
      "type": "event"
    },
    {
      "anonymous": false,
      "inputs": [
        {
          "indexed": true,
          "internalType": "address",
          "name": "implementation",
          "type": "address"
        }
      ],
      "name": "Upgraded",
      "type": "event"
    },
    {
      "inputs": [],
      "name": "DEFAULT_ADMIN_ROLE",
      "outputs": [
        {
          "internalType": "bytes32",
          "name": "",
          "type": "bytes32"
        }
      ],
      "stateMutability": "view",
      "type": "function"
    },
    {
      "inputs": [
        {
          "internalType": "contract IGovernor",
          "name": "newGovernor_",
          "type": "address"
        }
      ],
      "name": "changeGovernor",
      "outputs": [],
      "stateMutability": "nonpayable",
      "type": "function"
    },
    {
      "inputs": [
        {
          "internalType": "enum MocQueueExecFees.OperType",
          "name": "",
          "type": "uint8"
        }
      ],
      "name": "execFee",
      "outputs": [
        {
          "internalType": "uint256",
          "name": "",
          "type": "uint256"
        }
      ],
      "stateMutability": "view",
      "type": "function"
    },
    {
      "inputs": [
        {
          "internalType": "address",
          "name": "executionFeeRecipient",
          "type": "address"
        }
      ],
      "name": "execute",
      "outputs": [],
      "stateMutability": "nonpayable",
      "type": "function"
    },
    {
      "inputs": [],
      "name": "firstOperId",
      "outputs": [
        {
          "internalType": "uint256",
          "name": "",
          "type": "uint256"
        }
      ],
      "stateMutability": "view",
      "type": "function"
    },
    {
      "inputs": [
        {
          "internalType": "enum MocQueueExecFees.OperType",
          "name": "operType_",
          "type": "uint8"
        },
        {
          "internalType": "uint256",
          "name": "value_",
          "type": "uint256"
        }
      ],
      "name": "getAndVerifyExecFee",
      "outputs": [
        {
          "internalType": "uint256",
          "name": "currentExecFee",
          "type": "uint256"
        }
      ],
      "stateMutability": "view",
      "type": "function"
    },
    {
      "inputs": [
        {
          "internalType": "bytes32",
          "name": "role",
          "type": "bytes32"
        }
      ],
      "name": "getRoleAdmin",
      "outputs": [
        {
          "internalType": "bytes32",
          "name": "",
          "type": "bytes32"
        }
      ],
      "stateMutability": "view",
      "type": "function"
    },
    {
      "inputs": [],
      "name": "governor",
      "outputs": [
        {
          "internalType": "contract IGovernor",
          "name": "",
          "type": "address"
        }
      ],
      "stateMutability": "view",
      "type": "function"
    },
    {
      "inputs": [
        {
          "internalType": "bytes32",
          "name": "role",
          "type": "bytes32"
        },
        {
          "internalType": "address",
          "name": "account",
          "type": "address"
        }
      ],
      "name": "grantRole",
      "outputs": [],
      "stateMutability": "nonpayable",
      "type": "function"
    },
    {
      "inputs": [
        {
          "internalType": "bytes32",
          "name": "role",
          "type": "bytes32"
        },
        {
          "internalType": "address",
          "name": "account",
          "type": "address"
        }
      ],
      "name": "hasRole",
      "outputs": [
        {
          "internalType": "bool",
          "name": "",
          "type": "bool"
        }
      ],
      "stateMutability": "view",
      "type": "function"
    },
    {
      "inputs": [
        {
          "internalType": "address",
          "name": "governor_",
          "type": "address"
        },
        {
          "internalType": "address",
          "name": "pauser_",
          "type": "address"
        },
        {
          "internalType": "uint128",
          "name": "minOperWaitingBlk_",
          "type": "uint128"
        },
        {
          "internalType": "uint128",
          "name": "maxOperPerBatch_",
          "type": "uint128"
        },
        {
          "components": [
            {
              "internalType": "uint256",
              "name": "tcMintExecFee",
              "type": "uint256"
            },
            {
              "internalType": "uint256",
              "name": "tcRedeemExecFee",
              "type": "uint256"
            },
            {
              "internalType": "uint256",
              "name": "tpMintExecFee",
              "type": "uint256"
            },
            {
              "internalType": "uint256",
              "name": "tpRedeemExecFee",
              "type": "uint256"
            },
            {
              "internalType": "uint256",
              "name": "swapTPforTPExecFee",
              "type": "uint256"
            },
            {
              "internalType": "uint256",
              "name": "swapTPforTCExecFee",
              "type": "uint256"
            },
            {
              "internalType": "uint256",
              "name": "swapTCforTPExecFee",
              "type": "uint256"
            },
            {
              "internalType": "uint256",
              "name": "redeemTCandTPExecFee",
              "type": "uint256"
            },
            {
              "internalType": "uint256",
              "name": "mintTCandTPExecFee",
              "type": "uint256"
            }
          ],
          "internalType": "struct MocQueueExecFees.InitializeMocQueueExecFeesParams",
          "name": "mocQueueExecFeesParams_",
          "type": "tuple"
        }
      ],
      "name": "initialize",
      "outputs": [],
      "stateMutability": "nonpayable",
      "type": "function"
    },
    {
      "inputs": [],
      "name": "isEmpty",
      "outputs": [
        {
          "internalType": "bool",
          "name": "",
          "type": "bool"
        }
      ],
      "stateMutability": "view",
      "type": "function"
    },
    {
      "inputs": [],
      "name": "makeStoppable",
      "outputs": [],
      "stateMutability": "nonpayable",
      "type": "function"
    },
    {
      "inputs": [],
      "name": "makeUnstoppable",
      "outputs": [],
      "stateMutability": "nonpayable",
      "type": "function"
    },
    {
      "inputs": [],
      "name": "maxOperPerBatch",
      "outputs": [
        {
          "internalType": "uint128",
          "name": "",
          "type": "uint128"
        }
      ],
      "stateMutability": "view",
      "type": "function"
    },
    {
      "inputs": [],
      "name": "minOperWaitingBlk",
      "outputs": [
        {
          "internalType": "uint128",
          "name": "",
          "type": "uint128"
        }
      ],
      "stateMutability": "view",
      "type": "function"
    },
    {
      "inputs": [],
      "name": "mocOperations",
      "outputs": [
        {
          "internalType": "contract MocOperations",
          "name": "",
          "type": "address"
        }
      ],
      "stateMutability": "view",
      "type": "function"
    },
    {
      "inputs": [],
      "name": "operIdCount",
      "outputs": [
        {
          "internalType": "uint256",
          "name": "",
          "type": "uint256"
        }
      ],
      "stateMutability": "view",
      "type": "function"
    },
    {
      "inputs": [
        {
          "internalType": "uint256",
          "name": "",
          "type": "uint256"
        }
      ],
      "name": "operationsMintTC",
      "outputs": [
        {
          "internalType": "uint256",
          "name": "qTC",
          "type": "uint256"
        },
        {
          "internalType": "uint256",
          "name": "qACmax",
          "type": "uint256"
        },
        {
          "internalType": "address",
          "name": "sender",
          "type": "address"
        },
        {
          "internalType": "address",
          "name": "recipient",
          "type": "address"
        },
        {
          "internalType": "address",
          "name": "vendor",
          "type": "address"
        }
      ],
      "stateMutability": "view",
      "type": "function"
    },
    {
      "inputs": [
        {
          "internalType": "uint256",
          "name": "",
          "type": "uint256"
        }
      ],
      "name": "operationsMintTCandTP",
      "outputs": [
        {
          "internalType": "address",
          "name": "tp",
          "type": "address"
        },
        {
          "internalType": "uint256",
          "name": "qTP",
          "type": "uint256"
        },
        {
          "internalType": "uint256",
          "name": "qACmax",
          "type": "uint256"
        },
        {
          "internalType": "address",
          "name": "sender",
          "type": "address"
        },
        {
          "internalType": "address",
          "name": "recipient",
          "type": "address"
        },
        {
          "internalType": "address",
          "name": "vendor",
          "type": "address"
        }
      ],
      "stateMutability": "view",
      "type": "function"
    },
    {
      "inputs": [
        {
          "internalType": "uint256",
          "name": "",
          "type": "uint256"
        }
      ],
      "name": "operationsMintTP",
      "outputs": [
        {
          "internalType": "address",
          "name": "tp",
          "type": "address"
        },
        {
          "internalType": "uint256",
          "name": "qTP",
          "type": "uint256"
        },
        {
          "internalType": "uint256",
          "name": "qACmax",
          "type": "uint256"
        },
        {
          "internalType": "address",
          "name": "sender",
          "type": "address"
        },
        {
          "internalType": "address",
          "name": "recipient",
          "type": "address"
        },
        {
          "internalType": "address",
          "name": "vendor",
          "type": "address"
        }
      ],
      "stateMutability": "view",
      "type": "function"
    },
    {
      "inputs": [
        {
          "internalType": "uint256",
          "name": "",
          "type": "uint256"
        }
      ],
      "name": "operationsRedeemTC",
      "outputs": [
        {
          "internalType": "uint256",
          "name": "qTC",
          "type": "uint256"
        },
        {
          "internalType": "uint256",
          "name": "qACmin",
          "type": "uint256"
        },
        {
          "internalType": "address",
          "name": "sender",
          "type": "address"
        },
        {
          "internalType": "address",
          "name": "recipient",
          "type": "address"
        },
        {
          "internalType": "address",
          "name": "vendor",
          "type": "address"
        }
      ],
      "stateMutability": "view",
      "type": "function"
    },
    {
      "inputs": [
        {
          "internalType": "uint256",
          "name": "",
          "type": "uint256"
        }
      ],
      "name": "operationsRedeemTCandTP",
      "outputs": [
        {
          "internalType": "address",
          "name": "tp",
          "type": "address"
        },
        {
          "internalType": "uint256",
          "name": "qTC",
          "type": "uint256"
        },
        {
          "internalType": "uint256",
          "name": "qTP",
          "type": "uint256"
        },
        {
          "internalType": "uint256",
          "name": "qACmin",
          "type": "uint256"
        },
        {
          "internalType": "address",
          "name": "sender",
          "type": "address"
        },
        {
          "internalType": "address",
          "name": "recipient",
          "type": "address"
        },
        {
          "internalType": "address",
          "name": "vendor",
          "type": "address"
        }
      ],
      "stateMutability": "view",
      "type": "function"
    },
    {
      "inputs": [
        {
          "internalType": "uint256",
          "name": "",
          "type": "uint256"
        }
      ],
      "name": "operationsRedeemTP",
      "outputs": [
        {
          "internalType": "address",
          "name": "tp",
          "type": "address"
        },
        {
          "internalType": "uint256",
          "name": "qTP",
          "type": "uint256"
        },
        {
          "internalType": "uint256",
          "name": "qACmin",
          "type": "uint256"
        },
        {
          "internalType": "address",
          "name": "sender",
          "type": "address"
        },
        {
          "internalType": "address",
          "name": "recipient",
          "type": "address"
        },
        {
          "internalType": "address",
          "name": "vendor",
          "type": "address"
        }
      ],
      "stateMutability": "view",
      "type": "function"
    },
    {
      "inputs": [
        {
          "internalType": "uint256",
          "name": "",
          "type": "uint256"
        }
      ],
      "name": "operationsSwapTCforTP",
      "outputs": [
        {
          "internalType": "address",
          "name": "tp",
          "type": "address"
        },
        {
          "internalType": "uint256",
          "name": "qTC",
          "type": "uint256"
        },
        {
          "internalType": "uint256",
          "name": "qTPmin",
          "type": "uint256"
        },
        {
          "internalType": "uint256",
          "name": "qACmax",
          "type": "uint256"
        },
        {
          "internalType": "address",
          "name": "sender",
          "type": "address"
        },
        {
          "internalType": "address",
          "name": "recipient",
          "type": "address"
        },
        {
          "internalType": "address",
          "name": "vendor",
          "type": "address"
        }
      ],
      "stateMutability": "view",
      "type": "function"
    },
    {
      "inputs": [
        {
          "internalType": "uint256",
          "name": "",
          "type": "uint256"
        }
      ],
      "name": "operationsSwapTPforTC",
      "outputs": [
        {
          "internalType": "address",
          "name": "tp",
          "type": "address"
        },
        {
          "internalType": "uint256",
          "name": "qTP",
          "type": "uint256"
        },
        {
          "internalType": "uint256",
          "name": "qTCmin",
          "type": "uint256"
        },
        {
          "internalType": "uint256",
          "name": "qACmax",
          "type": "uint256"
        },
        {
          "internalType": "address",
          "name": "sender",
          "type": "address"
        },
        {
          "internalType": "address",
          "name": "recipient",
          "type": "address"
        },
        {
          "internalType": "address",
          "name": "vendor",
          "type": "address"
        }
      ],
      "stateMutability": "view",
      "type": "function"
    },
    {
      "inputs": [
        {
          "internalType": "uint256",
          "name": "",
          "type": "uint256"
        }
      ],
      "name": "operationsSwapTPforTP",
      "outputs": [
        {
          "internalType": "address",
          "name": "tpFrom",
          "type": "address"
        },
        {
          "internalType": "address",
          "name": "tpTo",
          "type": "address"
        },
        {
          "internalType": "uint256",
          "name": "qTP",
          "type": "uint256"
        },
        {
          "internalType": "uint256",
          "name": "qTPmin",
          "type": "uint256"
        },
        {
          "internalType": "uint256",
          "name": "qACmax",
          "type": "uint256"
        },
        {
          "internalType": "address",
          "name": "sender",
          "type": "address"
        },
        {
          "internalType": "address",
          "name": "recipient",
          "type": "address"
        },
        {
          "internalType": "address",
          "name": "vendor",
          "type": "address"
        }
      ],
      "stateMutability": "view",
      "type": "function"
    },
    {
      "inputs": [
        {
          "internalType": "uint256",
          "name": "",
          "type": "uint256"
        }
      ],
      "name": "opersInfo",
      "outputs": [
        {
          "internalType": "enum MocQueueExecFees.OperType",
          "name": "operType",
          "type": "uint8"
        },
        {
          "internalType": "uint248",
          "name": "queuedBlk",
          "type": "uint248"
        }
      ],
      "stateMutability": "view",
      "type": "function"
    },
    {
      "inputs": [],
      "name": "pause",
      "outputs": [],
      "stateMutability": "nonpayable",
      "type": "function"
    },
    {
      "inputs": [],
      "name": "paused",
      "outputs": [
        {
          "internalType": "bool",
          "name": "",
          "type": "bool"
        }
      ],
      "stateMutability": "view",
      "type": "function"
    },
    {
      "inputs": [],
      "name": "pauser",
      "outputs": [
        {
          "internalType": "address",
          "name": "",
          "type": "address"
        }
      ],
      "stateMutability": "view",
      "type": "function"
    },
    {
      "inputs": [],
      "name": "proxiableUUID",
      "outputs": [
        {
          "internalType": "bytes32",
          "name": "",
          "type": "bytes32"
        }
      ],
      "stateMutability": "view",
      "type": "function"
    },
    {
      "inputs": [
        {
          "components": [
            {
              "internalType": "uint256",
              "name": "qTC",
              "type": "uint256"
            },
            {
              "internalType": "uint256",
              "name": "qACmax",
              "type": "uint256"
            },
            {
              "internalType": "address",
              "name": "sender",
              "type": "address"
            },
            {
              "internalType": "address",
              "name": "recipient",
              "type": "address"
            },
            {
              "internalType": "address",
              "name": "vendor",
              "type": "address"
            }
          ],
          "internalType": "struct MocCore.MintTCParams",
          "name": "params",
          "type": "tuple"
        }
      ],
      "name": "queueMintTC",
      "outputs": [
        {
          "internalType": "uint256",
          "name": "operId",
          "type": "uint256"
        }
      ],
      "stateMutability": "payable",
      "type": "function"
    },
    {
      "inputs": [
        {
          "components": [
            {
              "internalType": "address",
              "name": "tp",
              "type": "address"
            },
            {
              "internalType": "uint256",
              "name": "qTP",
              "type": "uint256"
            },
            {
              "internalType": "uint256",
              "name": "qACmax",
              "type": "uint256"
            },
            {
              "internalType": "address",
              "name": "sender",
              "type": "address"
            },
            {
              "internalType": "address",
              "name": "recipient",
              "type": "address"
            },
            {
              "internalType": "address",
              "name": "vendor",
              "type": "address"
            }
          ],
          "internalType": "struct MocCommons.MintTCandTPParams",
          "name": "params",
          "type": "tuple"
        }
      ],
      "name": "queueMintTCandTP",
      "outputs": [
        {
          "internalType": "uint256",
          "name": "operId",
          "type": "uint256"
        }
      ],
      "stateMutability": "payable",
      "type": "function"
    },
    {
      "inputs": [
        {
          "components": [
            {
              "internalType": "address",
              "name": "tp",
              "type": "address"
            },
            {
              "internalType": "uint256",
              "name": "qTP",
              "type": "uint256"
            },
            {
              "internalType": "uint256",
              "name": "qACmax",
              "type": "uint256"
            },
            {
              "internalType": "address",
              "name": "sender",
              "type": "address"
            },
            {
              "internalType": "address",
              "name": "recipient",
              "type": "address"
            },
            {
              "internalType": "address",
              "name": "vendor",
              "type": "address"
            }
          ],
          "internalType": "struct MocCore.MintTPParams",
          "name": "params",
          "type": "tuple"
        }
      ],
      "name": "queueMintTP",
      "outputs": [
        {
          "internalType": "uint256",
          "name": "operId",
          "type": "uint256"
        }
      ],
      "stateMutability": "payable",
      "type": "function"
    },
    {
      "inputs": [
        {
          "components": [
            {
              "internalType": "uint256",
              "name": "qTC",
              "type": "uint256"
            },
            {
              "internalType": "uint256",
              "name": "qACmin",
              "type": "uint256"
            },
            {
              "internalType": "address",
              "name": "sender",
              "type": "address"
            },
            {
              "internalType": "address",
              "name": "recipient",
              "type": "address"
            },
            {
              "internalType": "address",
              "name": "vendor",
              "type": "address"
            }
          ],
          "internalType": "struct MocCore.RedeemTCParams",
          "name": "params",
          "type": "tuple"
        }
      ],
      "name": "queueRedeemTC",
      "outputs": [
        {
          "internalType": "uint256",
          "name": "operId",
          "type": "uint256"
        }
      ],
      "stateMutability": "payable",
      "type": "function"
    },
    {
      "inputs": [
        {
          "components": [
            {
              "internalType": "address",
              "name": "tp",
              "type": "address"
            },
            {
              "internalType": "uint256",
              "name": "qTC",
              "type": "uint256"
            },
            {
              "internalType": "uint256",
              "name": "qTP",
              "type": "uint256"
            },
            {
              "internalType": "uint256",
              "name": "qACmin",
              "type": "uint256"
            },
            {
              "internalType": "address",
              "name": "sender",
              "type": "address"
            },
            {
              "internalType": "address",
              "name": "recipient",
              "type": "address"
            },
            {
              "internalType": "address",
              "name": "vendor",
              "type": "address"
            }
          ],
          "internalType": "struct MocCommons.RedeemTCandTPParams",
          "name": "params",
          "type": "tuple"
        }
      ],
      "name": "queueRedeemTCandTP",
      "outputs": [
        {
          "internalType": "uint256",
          "name": "operId",
          "type": "uint256"
        }
      ],
      "stateMutability": "payable",
      "type": "function"
    },
    {
      "inputs": [
        {
          "components": [
            {
              "internalType": "address",
              "name": "tp",
              "type": "address"
            },
            {
              "internalType": "uint256",
              "name": "qTP",
              "type": "uint256"
            },
            {
              "internalType": "uint256",
              "name": "qACmin",
              "type": "uint256"
            },
            {
              "internalType": "address",
              "name": "sender",
              "type": "address"
            },
            {
              "internalType": "address",
              "name": "recipient",
              "type": "address"
            },
            {
              "internalType": "address",
              "name": "vendor",
              "type": "address"
            }
          ],
          "internalType": "struct MocCommons.RedeemTPParams",
          "name": "params",
          "type": "tuple"
        }
      ],
      "name": "queueRedeemTP",
      "outputs": [
        {
          "internalType": "uint256",
          "name": "operId",
          "type": "uint256"
        }
      ],
      "stateMutability": "payable",
      "type": "function"
    },
    {
      "inputs": [
        {
          "components": [
            {
              "internalType": "address",
              "name": "tp",
              "type": "address"
            },
            {
              "internalType": "uint256",
              "name": "qTC",
              "type": "uint256"
            },
            {
              "internalType": "uint256",
              "name": "qTPmin",
              "type": "uint256"
            },
            {
              "internalType": "uint256",
              "name": "qACmax",
              "type": "uint256"
            },
            {
              "internalType": "address",
              "name": "sender",
              "type": "address"
            },
            {
              "internalType": "address",
              "name": "recipient",
              "type": "address"
            },
            {
              "internalType": "address",
              "name": "vendor",
              "type": "address"
            }
          ],
          "internalType": "struct MocCommons.SwapTCforTPParams",
          "name": "params",
          "type": "tuple"
        }
      ],
      "name": "queueSwapTCforTP",
      "outputs": [
        {
          "internalType": "uint256",
          "name": "operId",
          "type": "uint256"
        }
      ],
      "stateMutability": "payable",
      "type": "function"
    },
    {
      "inputs": [
        {
          "components": [
            {
              "internalType": "address",
              "name": "tp",
              "type": "address"
            },
            {
              "internalType": "uint256",
              "name": "qTP",
              "type": "uint256"
            },
            {
              "internalType": "uint256",
              "name": "qTCmin",
              "type": "uint256"
            },
            {
              "internalType": "uint256",
              "name": "qACmax",
              "type": "uint256"
            },
            {
              "internalType": "address",
              "name": "sender",
              "type": "address"
            },
            {
              "internalType": "address",
              "name": "recipient",
              "type": "address"
            },
            {
              "internalType": "address",
              "name": "vendor",
              "type": "address"
            }
          ],
          "internalType": "struct MocCommons.SwapTPforTCParams",
          "name": "params",
          "type": "tuple"
        }
      ],
      "name": "queueSwapTPforTC",
      "outputs": [
        {
          "internalType": "uint256",
          "name": "operId",
          "type": "uint256"
        }
      ],
      "stateMutability": "payable",
      "type": "function"
    },
    {
      "inputs": [
        {
          "components": [
            {
              "internalType": "address",
              "name": "tpFrom",
              "type": "address"
            },
            {
              "internalType": "address",
              "name": "tpTo",
              "type": "address"
            },
            {
              "internalType": "uint256",
              "name": "qTP",
              "type": "uint256"
            },
            {
              "internalType": "uint256",
              "name": "qTPmin",
              "type": "uint256"
            },
            {
              "internalType": "uint256",
              "name": "qACmax",
              "type": "uint256"
            },
            {
              "internalType": "address",
              "name": "sender",
              "type": "address"
            },
            {
              "internalType": "address",
              "name": "recipient",
              "type": "address"
            },
            {
              "internalType": "address",
              "name": "vendor",
              "type": "address"
            }
          ],
          "internalType": "struct MocCommons.SwapTPforTPParams",
          "name": "params",
          "type": "tuple"
        }
      ],
      "name": "queueSwapTPforTP",
      "outputs": [
        {
          "internalType": "uint256",
          "name": "operId",
          "type": "uint256"
        }
      ],
      "stateMutability": "payable",
      "type": "function"
    },
    {
      "inputs": [],
      "name": "readyToExecute",
      "outputs": [
        {
          "internalType": "bool",
          "name": "",
          "type": "bool"
        }
      ],
      "stateMutability": "view",
      "type": "function"
    },
    {
      "inputs": [
        {
          "internalType": "contract MocOperations",
          "name": "bucket_",
          "type": "address"
        }
      ],
      "name": "registerBucket",
      "outputs": [],
      "stateMutability": "nonpayable",
      "type": "function"
    },
    {
      "inputs": [
        {
          "internalType": "bytes32",
          "name": "role",
          "type": "bytes32"
        },
        {
          "internalType": "address",
          "name": "account",
          "type": "address"
        }
      ],
      "name": "renounceRole",
      "outputs": [],
      "stateMutability": "nonpayable",
      "type": "function"
    },
    {
      "inputs": [
        {
          "internalType": "bytes32",
          "name": "role",
          "type": "bytes32"
        },
        {
          "internalType": "address",
          "name": "account",
          "type": "address"
        }
      ],
      "name": "revokeRole",
      "outputs": [],
      "stateMutability": "nonpayable",
      "type": "function"
    },
    {
      "inputs": [
        {
          "internalType": "uint128",
          "name": "maxOperPerBatch_",
          "type": "uint128"
        }
      ],
      "name": "setMaxOperPerBatch",
      "outputs": [],
      "stateMutability": "nonpayable",
      "type": "function"
    },
    {
      "inputs": [
        {
          "internalType": "uint128",
          "name": "minOperWaitingBlk_",
          "type": "uint128"
        }
      ],
      "name": "setMinOperWaitingBlk",
      "outputs": [],
      "stateMutability": "nonpayable",
      "type": "function"
    },
    {
      "inputs": [
        {
          "internalType": "address",
          "name": "newPauser_",
          "type": "address"
        }
      ],
      "name": "setPauser",
      "outputs": [],
      "stateMutability": "nonpayable",
      "type": "function"
    },
    {
      "inputs": [],
      "name": "stoppable",
      "outputs": [
        {
          "internalType": "bool",
          "name": "",
          "type": "bool"
        }
      ],
      "stateMutability": "view",
      "type": "function"
    },
    {
      "inputs": [
        {
          "internalType": "bytes4",
          "name": "interfaceId",
          "type": "bytes4"
        }
      ],
      "name": "supportsInterface",
      "outputs": [
        {
          "internalType": "bool",
          "name": "",
          "type": "bool"
        }
      ],
      "stateMutability": "view",
      "type": "function"
    },
    {
      "inputs": [],
      "name": "unpause",
      "outputs": [],
      "stateMutability": "nonpayable",
      "type": "function"
    },
    {
      "inputs": [
        {
          "components": [
            {
              "internalType": "uint256",
              "name": "tcMintExecFee",
              "type": "uint256"
            },
            {
              "internalType": "uint256",
              "name": "tcRedeemExecFee",
              "type": "uint256"
            },
            {
              "internalType": "uint256",
              "name": "tpMintExecFee",
              "type": "uint256"
            },
            {
              "internalType": "uint256",
              "name": "tpRedeemExecFee",
              "type": "uint256"
            },
            {
              "internalType": "uint256",
              "name": "swapTPforTPExecFee",
              "type": "uint256"
            },
            {
              "internalType": "uint256",
              "name": "swapTPforTCExecFee",
              "type": "uint256"
            },
            {
              "internalType": "uint256",
              "name": "swapTCforTPExecFee",
              "type": "uint256"
            },
            {
              "internalType": "uint256",
              "name": "redeemTCandTPExecFee",
              "type": "uint256"
            },
            {
              "internalType": "uint256",
              "name": "mintTCandTPExecFee",
              "type": "uint256"
            }
          ],
          "internalType": "struct MocQueueExecFees.InitializeMocQueueExecFeesParams",
          "name": "mocQueueExecFeesParams_",
          "type": "tuple"
        }
      ],
      "name": "updateExecutionFees",
      "outputs": [],
      "stateMutability": "nonpayable",
      "type": "function"
    },
    {
      "inputs": [
        {
          "internalType": "address",
          "name": "newImplementation",
          "type": "address"
        }
      ],
      "name": "upgradeTo",
      "outputs": [],
      "stateMutability": "nonpayable",
      "type": "function"
    },
    {
      "inputs": [
        {
          "internalType": "address",
          "name": "newImplementation",
          "type": "address"
        },
        {
          "internalType": "bytes",
          "name": "data",
          "type": "bytes"
        }
      ],
      "name": "upgradeToAndCall",
      "outputs": [],
      "stateMutability": "payable",
      "type": "function"
    },
    {
      "stateMutability": "payable",
      "type": "receive"
    }
  ],
  "transactionHash": "0x29a0c3e5e9f50081c2d1571a0b63d16a35b12f6be480fe39ee9e704e825c9a72",
  "args": [],
  "numDeployments": 1,
  "solcInputHash": "8120120f7599b289fd4ab9f177162d3a",
  "bytecode": "0x60a08060405234620000e157306080526000549060ff8260081c166200008f575060ff8082160362000053575b604051614c699081620000e7823960805181818161106e015281816111dd01526135040152f35b60ff90811916176000557f7f26b83ff96e1f2b6a682f133852f6798a09c465da95921460cefb3847402498602060405160ff8152a1386200002c565b62461bcd60e51b815260206004820152602760248201527f496e697469616c697a61626c653a20636f6e747261637420697320696e697469604482015266616c697a696e6760c81b6064820152608490fd5b600080fdfe6080604052600436101561001b575b361561001957600080fd5b005b60003560e01c8062c6e88e146139f557806301ffc9a71461399f5780630c340a24146139765780631826ebf0146139125780631a0c5440146138a457806324524ea11461384e578063248a9ca31461381e5780632b994849146137ff5780632d88af4a146137aa5780632f2ff15d1461377157806334975a41146135ff57806336568abe1461356b5780633659cfe6146134d25780633bb4b05c1461348f5780633cbcf4c41461346a5780633f4ba83a14613375578063435c7e37146132eb57806347d8496a1461321a5780634981d04e146131735780634b5a9e3d1461313f5780634b64e492146112405780634f1ef286146111565780635210570c1461113157806352d1902d1461105b5780635c817aa314610ff75780635c975abb14610fd15780635ee1d2bb14610f87578063681fe70c14610f635780636827435714610f3b5780636b59c22f14610e6a5780636b76333014610e0657806373e3d08614610de75780637c50b7e414610da35780637e81a82114610cd25780638456cb5914610c3c5780638a4737ab14610bdd5780638b20076c14610b7e5780638e7e818914610b5657806391d1485414610b035780639fd0506d14610ad6578063a217fddf14610aba578063ad16c2de14610a4c578063bb4872de14610a29578063bbe720d9146109b4578063c84d8bb6146108e3578063caeb12b6146108b9578063d547741f14610880578063db901477146105da578063dbb0b684146105b8578063e4c0aaf414610572578063e4e1b729146104a1578063e97a4d63146103d0578063fa91a9a5146102d95763fb8aafb80361000e57346102d45760203660031901126102d457600435600052610262602052604060002060018060a01b036102d081835416916001840154936002810154918060038301541690600581600485015416930154169260405196879687613b75565b0390f35b600080fd5b60a03660031901126102d4576102ed61416b565b610304600080516020614c148339815191526146f3565b61031a61031460026101f7613b09565b54614af1565b61025d80546040519161032e604084613b21565b60028352602083019260018060f81b03431684528260005261026860205260406000209051600a8110156103ba5760ff6020958119905160081b1691161790558160005261026183526103866004604060002061465b565b604051828152600284820152600080516020614bf483398151915260403392a26103b081546146ce565b9055604051908152f35b634e487b7160e01b600052602160045260246000fd5b60a03660031901126102d4576103e461416b565b6103fb600080516020614c148339815191526146f3565b61040b61031460016101f7613b09565b61025d80546040519161041f604084613b21565b60018352602083019260018060f81b03431684528260005261026860205260406000209051600a8110156103ba5760ff6020958119905160081b1691161790558160005261025f83526104776004604060002061465b565b604051828152600184820152600080516020614bf483398151915260403392a26103b081546146ce565b60e03660031901126102d4576104b561416b565b6104cc600080516020614c148339815191526146f3565b6104dc61031460066101f7613b09565b61025d8054604051916104f0604084613b21565b60068352602083019260018060f81b03431684528260005261026860205260406000209051600a8110156103ba5760ff6020958119905160081b16911617905581600052610264835261054860046040600020614994565b604051828152600684820152600080516020614bf483398151915260403392a26103b081546146ce565b346102d45760203660031901126102d4576004356001600160a01b038116908190036102d4576105a06140f8565b6001600160601b0360a01b6097541617609755600080f35b346102d45760003660031901126102d45760206102695460801c604051908152f35b346102d4576101a03660031901126102d4576001600160a01b03600435818116908190036102d45760243591821682036102d4576044356001600160801b03928382168092036102d45760643593841684036102d4576101203660831901126102d4576000549260ff8460081c161593848095610873575b801561085c575b15610800576106f092600191868360ff198316176000556107ee575b5060ff60005460081c16926106898461418c565b6106928461418c565b61069b8461418c565b6106a48461418c565b6106ad8461418c565b6001600160601b0360a01b60975416176097556106c98361418c565b60ca5490620100008360b01b039060101b169061ff018360b01b031916171760ca5561418c565b6101f7608435610701600183613b09565b5560a435610710600283613b09565b5560c43561071f600383613b09565b5560e43561072e600483613b09565b556101043561073e600983613b09565b556101243561074e600883613b09565b556101443561075e600783613b09565b556101643561076e600683613b09565b5561077e60056101843592613b09565b556000549261079b60ff8560081c166107968161418c565b61418c565b600161022a5560801b6001600160801b03191617610269556107b957005b61ff0019166000557f7f26b83ff96e1f2b6a682f133852f6798a09c465da95921460cefb3847402498602060405160018152a1005b61ffff19166101011760005587610675565b60405162461bcd60e51b815260206004820152602e60248201527f496e697469616c697a61626c653a20636f6e747261637420697320616c72656160448201526d191e481a5b9a5d1a585b1a5e995960921b6064820152608490fd5b50303b1580156106595750600160ff821614610659565b50600160ff821610610652565b346102d45760403660031901126102d4576004356024356001600160a01b03811681036102d457816108b461001993614afb565b613baf565b346102d45760003660031901126102d45761025c546040516001600160a01b039091168152602090f35b60c03660031901126102d4576108f761416b565b61090e600080516020614c148339815191526146f3565b61091e61031460046101f7613b09565b61025d805460405191610932604084613b21565b60048352602083019260018060f81b03431684528260005261026860205260406000209051600a8110156103ba5760ff6020958119905160081b16911617905581600052610262835261098a60046040600020614929565b604051828152600484820152600080516020614bf483398151915260403392a26103b081546146ce565b346102d45760203660031901126102d4576001600160a01b03600435818116908190036102d4576109e36140f8565b61025c8054928316610a175781610019936001600160601b0360a01b16179055600080516020614c14833981519152614a6f565b604051630a646b7760e41b8152600490fd5b346102d45760003660031901126102d457602060ff60ca54166040519015158152f35b346102d45760203660031901126102d4576004803560009081526102616020908152604091829020805460018201546002830154600384015493909601548551928352938201526001600160a01b03948516938101939093528316606083015291909116608082015260a090f35b346102d45760003660031901126102d457602060405160008152f35b346102d45760003660031901126102d45760ca5460405160109190911c6001600160a01b03168152602090f35b346102d45760403660031901126102d4576024356001600160a01b038116908190036102d457600435600052610193602052604060002090600052602052602060ff604060002054166040519015158152f35b346102d45760003660031901126102d45760206001600160801b036102695416604051908152f35b346102d45760203660031901126102d457600435600052610263602052604060002060018060a01b036102d081835416916001840154936002810154918060038301541690600581600485015416930154169260405196879687613b75565b346102d45760203660031901126102d457600435600052610260602052604060002060018060a01b036102d081835416916001840154936002810154918060038301541690600581600485015416930154169260405196879687613b75565b346102d45760003660031901126102d457610c5561416b565b60ca54601081901c6001600160a01b03163303610cc05760ff811615610cae576101009061ff0019161760ca557f62e78cea01bee320cd4e420270b5ea74000d11b0c9f74754ebdbfc544b05a2586020604051338152a1005b60405163866099c360e01b8152600490fd5b604051631d77d47760e21b8152600490fd5b60c03660031901126102d457610ce661416b565b610cfd600080516020614c148339815191526146f3565b610d0d61031460036101f7613b09565b61025d805460405191610d21604084613b21565b60038352602083019260018060f81b03431684528260005261026860205260406000209051600a8110156103ba5760ff6020958119905160081b169116179055816000526102608352610d7960046040600020614929565b604051828152600384820152600080516020614bf483398151915260403392a26103b081546146ce565b346102d45760203660031901126102d45760043560005261026860205260406000205460ff81169060405190600a8310156103ba57604092825260081c6020820152f35b346102d45760003660031901126102d457602061025d54604051908152f35b346102d45760203660031901126102d457600435600052610264602052604060002060018060a01b036102d0818354169160018401549360028101549160038201548160048401541691600681600586015416940154169360405197889788613ac6565b60e03660031901126102d457610e7e61416b565b610e95600080516020614c148339815191526146f3565b610ea561031460076101f7613b09565b61025d805460405191610eb9604084613b21565b60078352602083019260018060f81b03431684528260005261026860205260406000209051600a8110156103ba5760ff6020958119905160081b169116179055816000526102658352610f1160046040600020614994565b604051828152600784820152600080516020614bf483398151915260403392a26103b081546146ce565b346102d45760003660031901126102d457610f546140f8565b60ca805460ff19166001179055005b346102d45760003660031901126102d457602061025e5461025d5414604051908152f35b346102d45760203660031901126102d4576001600160801b0360043581811681036102d457610fb46140f8565b610269805490921660809190911b6001600160801b031916179055005b346102d45760003660031901126102d457602060ff60ca5460081c166040519015158152f35b346102d45760203660031901126102d457600435600052610266602052604060002060018060a01b036102d0818354169160018401549360028101549160038201548160048401541691600681600586015416940154169360405197889788613ac6565b346102d45760003660031901126102d4577f00000000000000000000000000000000000000000000000000000000000000006001600160a01b031630036110c65760206040517f360894a13ba1a3210667c828492db98dca3e2076cc3735a920a3ca505d382bbc8152f35b60405162461bcd60e51b815260206004820152603860248201527f555550535570677261646561626c653a206d757374206e6f742062652063616c60448201527f6c6564207468726f7567682064656c656761746563616c6c00000000000000006064820152608490fd5b346102d45760003660031901126102d45761114a6140f8565b60ca805460ff19169055005b60403660031901126102d4576001600160a01b0360043581811681036102d45760243567ffffffffffffffff81116102d457366023820112156102d4578060040135916111a283613b59565b916111b06040519384613b21565b83835236602485830101116102d457610019946000602086600197602461123396018389013786010152807f0000000000000000000000000000000000000000000000000000000000000000169061120a82301415613c2e565b7f360894a13ba1a3210667c828492db98dca3e2076cc3735a920a3ca505d382bbc541614613c8f565b61123b6140f8565b613cf0565b346102d45760203660031901126102d4576004356001600160a01b03811690036102d45761126c61416b565b600261022a54146130fa57600261022a5561025e54600061025d5461026954908160801c84018082106000146130ef5750909291925b8183106112fe575b505061025e55806112be575b600161022a55005b4781116112f7575b6000808080936004355af16112d9613fcb565b50156112e557806112b6565b604051638f58940960e01b8152600490fd5b50476112c6565b90918060005261026860205260406000206040519061131e604083613b21565b5461132c60ff8216836141ec565b60081c8060208301526001600160801b0384164303106130e8575190600a8210156103ba5760009160018103611656575080915060005261025f60205261137660406000206141f8565b61025c80546040805163235e81cf60e01b81528451600482015260208501516024820152908401516001600160a01b0390811660448301526060850151811660648301526080850151811660848301529091600091168260a48160c09485945af1600092839282611621575b50506115a55750506113f2613fcb565b6113fb816142a7565b906001600160e01b03198216630b63f1a760e01b8103611540575050611437600080516020614bb4833981519152916040519182918783614314565b0390a15b5460408201516020909201516001600160a01b039182169290911690823b156102d4576040516358f32de960e01b81526001600160a01b039290921660048301526024820152906000908290604490829084905af1801561153457611523575b505b8060005261025f6020526114cd604060002060046000918281558260018201558260028201558260038201550155565b60016114db816101f7613b09565b54915b80337fb207e6b6b26274f3764b879e578b4539b8e37f41dff43932ddc87b3e04090974600080a3806000526102686020526000604081205501930191909291926112a2565b600061152e91613b21565b8461149b565b6040513d6000823e3d90fd5b637912120160e01b03611576575061156e600080516020614bb48339815191529160405191829187836142d8565b0390a161143b565b600080516020614bd4833981519152915061156e906040519182918783526040602084015260408301906140bb565b7f5090a820029acae4d47b64da9af62ce04a5a1bdb546934e5fcfe091ee1f780ee91925060018060a01b036040850151169261161986606060018060a01b03818901511697805194805192602082015190604083015192015192608060018060a01b03910151169360405198899889614359565b0390a361149d565b80919294506116459350903d1061164f575b61163d8183613b21565b810190614284565b92905089806113e2565b503d611633565b60028103611959575080915060005261026160205261167860406000206141f8565b61025c80546040805163bfe4262160e01b81528451600482015260208501516024820152908401516001600160a01b0390811660448301526060850151811660648301526080850151811660848301529091600091168260a48160c09485945af1600092839282611934575b50506118b85750506116f4613fcb565b6116fd816142a7565b6001600160e01b031981169163a5db715d60e01b830361182157505060a0600080516020614bb483398151915291604051908682526020820152601960608060408401528201527f496e73756666696369656e7420746320746f2072656465656d000000000000006080820152a15b54604082015191516001600160a01b039182169290911690823b156102d4576040516353b16d1760e01b81526001600160a01b039290921660048301526024820152906000908290604490829084905af1801561153457611810575b505b806000526102616020526117fa604060002060046000918281558260018201558260028201558260038201550155565b600161180960026101f7613b09565b54916114de565b600061181b91613b21565b846117c8565b90916354cde31360e01b810361185b575050611853600080516020614bb4833981519152916040519182918783614398565b0390a161176c565b637912120160e01b036118895750611853600080516020614bb48339815191529160405191829187836142d8565b600080516020614bd48339815191529150611853906040519182918783526040602084015260408301906140bb565b7f7e7043742f69701e6292386d468d710f2d6e44bf93232a1e52f1641e50a9de1291925060018060a01b036040850151169261192c86606060018060a01b03818901511697805194805192602082015190604083015192015192608060018060a01b03910151169360405198899889614359565b0390a36117ca565b809192945061194f9350903d1061164f5761163d8183613b21565b92905089806116e4565b60038103611c77575080915060005261026060205261197b60406000206143e5565b61025c8054604051635a21a61960e11b8152906000906001600160a01b03166119a7600484018661443f565b8260c48160c09485945af1600092839282611c52575b5050611bcd5750506119cd613fcb565b6119d6816142a7565b6001600160e01b03198116916306da41e560e11b8303611acf5750600080516020614bb48339815191529150611a13906040519182918783614484565b0390a15b5460608201516040909201516001600160a01b039182169290911690823b156102d4576040516358f32de960e01b81526001600160a01b039290921660048301526024820152906000908290604490829084905af1801561153457611abe575b505b80600052610260602052611aaf604060002060056000918281558260018201558260028201558260038201558260048201550155565b600161180960036101f7613b09565b6000611ac991613b21565b84611a77565b63c39b739f60e01b8303611b3657505060a0600080516020614bb483398151915291604051908682526020820152601760608060408401528201527f496e73756666696369656e7420747020746f206d696e740000000000000000006080820152a1611a17565b9091630b63f1a760e01b8103611b70575050611b68600080516020614bb4833981519152916040519182918783614314565b0390a1611a17565b637912120160e01b03611b9e5750611b68600080516020614bb48339815191529160405191829187836142d8565b600080516020614bd48339815191529150611b68906040519182918783526040602084015260408301906140bb565b835160608086015160808701516020808901518751918801516040808a0151999096015160a0909b015195516001600160a01b039485169b9585169a50968416987f125247fdf990b9b419d4b4f895b1bb75bc485e3f8b813cf5557a4a12a56d054d988897611c4a978f9790911695909492939290919089614359565b0390a4611a79565b8091929450611c6d9350903d1061164f5761163d8183613b21565b92905089806119bd565b60048103611f375750809150600052610262602052611c9960406000206143e5565b61025c805460405163ad4e666d60e01b8152906000906001600160a01b0316611cc5600484018661443f565b8260c48160c09485945af1600092839282611f12575b5050611e8d575050611ceb613fcb565b611cf4816142a7565b906001600160e01b031982166306da41e560e11b8103611df8575050611d30600080516020614bb4833981519152916040519182918783614484565b0390a15b54606082015182516020909301516001600160a01b039384169391821692909116803b156102d457604051630e2c5e9960e41b81526001600160a01b03938416600482015293909216602484015260448301526000908290606490829084905af1801561153457611de7575b505b80600052610262602052611dd8604060002060056000918281558260018201558260028201558260038201558260048201550155565b600161180960046101f7613b09565b6000611df291613b21565b84611da0565b6354cde31360e01b8103611e30575050611e28600080516020614bb4833981519152916040519182918783614398565b0390a1611d34565b637912120160e01b03611e5e5750611e28600080516020614bb48339815191529160405191829187836142d8565b600080516020614bd48339815191529150611e28906040519182918783526040602084015260408301906140bb565b835160608086015160808701516020808901518751918801516040808a0151999096015160a0909b015195516001600160a01b039485169b9585169a50968416987f625b9fc283a619f53beb817d79b8ab044d60e307fd2af4bb89fa5e9a24ce4ebc988897611f0a978f9790911695909492939290919089614359565b0390a4611da2565b8091929450611f2d9350903d1061164f5761163d8183613b21565b9290508980611cdb565b6005810361220857508091506000526102636020526000611f5a604082206143e5565b61025c5460405163883d21cb60e01b81529260e091849160c4918391906001600160a01b0316611f8d600484018861443f565b5af1916000836000926000956121cf575b506121485750509050611faf613fcb565b611fb8816142a7565b906001600160e01b031982166306da41e560e11b81036120b3575050611ff4600080516020614bb4833981519152916040519182918683614484565b0390a15b61025c5460608201516040909201516001600160a01b039182169290911690823b156102d4576040516358f32de960e01b81526001600160a01b039290921660048301526024820152906000908290604490829084905af18015611534576120a2575b505b80600052610263602052612093604060002060056000918281558260018201558260028201558260038201558260048201550155565b600161180960056101f7613b09565b60006120ad91613b21565b8461205b565b630b63f1a760e01b81036120eb5750506120e3600080516020614bb4833981519152916040519182918683614314565b0390a1611ff8565b637912120160e01b0361211957506120e3600080516020614bb48339815191529160405191829186836142d8565b600080516020614bd483398151915291506120e3906040519182918683526040602084015260408301906140bb565b7f03e9e02a94d7486426fcf2b05a27e911b8d1b61e2e1dcf103785512f46c847649060018060a01b03845116926121c78760609360018060a01b0385890151169760018060a01b0360808201511699602082015196815160208301519160408401519301519360a0600180821b039101511694604051998a998a614502565b0390a461205d565b915093506121f5915060e03d60e011612201575b6121ed8183613b21565b8101906144de565b92905090919389611f9e565b503d6121e3565b600681036125af575080915060005261026460205261222a6040600020614546565b61025c54604051633631a6bb60e21b81529060e090829060e49082906000906001600160a01b031661225f60048401896145aa565b5af160009181600091600093612588575b5061250057505050612280613fcb565b612289816142a7565b6001600160e01b03198116916306da41e560e11b830361240b5750600080516020614bb483398151915291506122c6906040519182918683614484565b0390a15b61025c546080820151825160408401516001600160a01b039182169392821692909116803b156102d457604051630e2c5e9960e41b81526001600160a01b03938416600482015293909216602484015260448301526000908290606490829084905af18015611534576123fa575b5061025c5460808201516020909201516001600160a01b039182169290911690823b156102d4576040516353b16d1760e01b81526001600160a01b039290921660048301526024820152906000908290604490829084905af18015611534576123e9575b505b806000526102646020526123da604060002060066000918281558260018201558260028201558260038201558260048201558260058201550155565b600161180960066101f7613b09565b60006123f491613b21565b8461239c565b600061240591613b21565b85612338565b637a031da360e11b830361246957505060a0600080516020614bb4833981519152916040519085825260208201526014606080604084015282015273125b9cdd59999a58da595b9d081d1c081cd95b9d60621b6080820152a16122ca565b90916354cde31360e01b81036124a357505061249b600080516020614bb4833981519152916040519182918683614398565b0390a16122ca565b637912120160e01b036124d1575061249b600080516020614bb48339815191529160405191829186836142d8565b600080516020614bd4833981519152915061249b906040519182918683526040602084015260408301906140bb565b7f4d33a2f9c4f66a101333f7ca2ab718582e763c941ff6fc304d2d4408d43a82849060018060a01b03855116926125808760018060a01b036080890151169660018060a01b0360a08a015116986020810151948051602082015190606060408401519301519360c060018060a01b039101511694604051998a998a614502565b0390a461239e565b915092506125a5915060e03d60e011612201576121ed8183613b21565b9293905089612270565b60078103612915575080915060005261026560205260006125d260408220614546565b61025c546040516312bce9bf60e21b81529260e091849160e4918391906001600160a01b031661260560048401886145aa565b5af191826000916000946128ee575b5061286757509050612624613fcb565b61262d816142a7565b906001600160e01b031982166306da41e560e11b81036127a2575050612669600080516020614bb4833981519152916040519182918683614484565b0390a15b61025c54608082015160208301516001600160a01b039283169290911690823b156102d4576040516353b16d1760e01b81526001600160a01b039290921660048301526024820152906000908290604490829084905af1801561153457612791575b5061025c5460808201516060909201516001600160a01b039182169290911690823b156102d4576040516358f32de960e01b81526001600160a01b039290921660048301526024820152906000908290604490829084905af1801561153457612780575b505b80600052610265602052612771604060002060066000918281558260018201558260028201558260038201558260048201558260058201550155565b600161180960076101f7613b09565b600061278b91613b21565b84612733565b600061279c91613b21565b856126cf565b630b63f1a760e01b81036127da5750506127d2600080516020614bb4833981519152916040519182918683614314565b0390a161266d565b63272e3f5960e21b810361280a5750506127d2600080516020614bb48339815191529160405191829186836145fa565b637912120160e01b0361283857506127d2600080516020614bb48339815191529160405191829186836142d8565b600080516020614bd483398151915291506127d2906040519182918683526040602084015260408301906140bb565b7ff8dcb57698d7067da58ab71c48cd2e3b329b69e7e9853f88630c2c69c2557c7860018060a01b038351169160018060a01b03608085015116936128e68760018060a01b0360a084015116976020840151938151916020810151606060408301519201519260c060018060a01b03910151169360405198899889614359565b0390a4612735565b90935061290a915060e03d60e011612201576121ed8183613b21565b925050909288612614565b60088103612cc25750809150600052610266602052600061293860408220614546565b61025c54604051635e272ad960e11b81529260e091849160e4918391906001600160a01b031661296b60048401886145aa565b5af19182600091600094612c9b575b50612c145750905061298a613fcb565b612993816142a7565b6001600160e01b03198116916306da41e560e11b8303612b155750600080516020614bb483398151915291506129d0906040519182918683614484565b0390a15b61025c546080820151825160208401516001600160a01b039182169392821692909116803b156102d457604051630e2c5e9960e41b81526001600160a01b03938416600482015293909216602484015260448301526000908290606490829084905af1801561153457612b04575b5061025c5460808201516060909201516001600160a01b039182169290911690823b156102d4576040516358f32de960e01b81526001600160a01b039290921660048301526024820152906000908290604490829084905af1801561153457612af3575b505b80600052610266602052612ae4604060002060066000918281558260018201558260028201558260038201558260048201558260058201550155565b600161180960086101f7613b09565b6000612afe91613b21565b84612aa6565b6000612b0f91613b21565b85612a42565b630b63f1a760e01b8303612b4e5750600080516020614bb48339815191529150612b46906040519182918683614314565b0390a16129d4565b63f577bef560e01b8303612bb557505060a0600080516020614bb483398151915291604051908582526020820152601a60608060408401528201527f7154632062656c6f77206d696e696d756d2072657175697265640000000000006080820152a16129d4565b9091637912120160e01b03612be55750612b46600080516020614bb48339815191529160405191829186836142d8565b600080516020614bd48339815191529150612b46906040519182918683526040602084015260408301906140bb565b7f8ab42044ce8b230e021e5542eb53688d77443e50ee84cda7917f6bdd833c697f60018060a01b038351169160018060a01b0360808501511693612c938760018060a01b0360a084015116976020840151938151916020810151606060408301519201519260c060018060a01b03910151169360405198899889614359565b0390a4612aa8565b909350612cb7915060e03d60e011612201576121ed8183613b21565b92505090928861297a565b600914612cd2575b6001906114de565b80915060005261026760205260006040812060405190612cf461010083613b21565b80546001600160a01b039081168352600182015481166020840190815260028301546040808601918252600385015460608701908152600480870154608089019081526005880154871660a08a019081526006890154881660c08b01908152600790990154881660e0808c0191825261025c54965163391bf6cf60e01b81528c518b169581019590955297518916602485015295516044840152925160648301525160848201529051851660a48201529451841660c48601529051831660e48501529294909285926101049284929091165af191826000916000946130c1575b5061300b57509050612de4613fcb565b612ded816142a7565b906001600160e01b03198216630b63f1a760e01b8103612f76575050612e29600080516020614bb4833981519152916040519182918683614314565b0390a15b61025c5460a0820151825160408401516001600160a01b039182169392821692909116803b156102d457604051630e2c5e9960e41b81526001600160a01b03938416600482015293909216602484015260448301526000908290606490829084905af1801561153457612f65575b5061025c5460a08201516080909201516001600160a01b039182169290911690823b156102d4576040516358f32de960e01b81526001600160a01b039290921660048301526024820152906000908290604490829084905af1801561153457612f54575b505b80600052610267602052600060076040822082815582600182015582600282015582600382015582600482015582600582015582600682015501556001612f4b60096101f7613b09565b54919050612cca565b6000612f5f91613b21565b84612eff565b6000612f7091613b21565b85612e9b565b63272e3f5960e21b8103612fae575050612fa6600080516020614bb48339815191529160405191829186836145fa565b0390a1612e2d565b637912120160e01b03612fdc5750612fa6600080516020614bb48339815191529160405191829186836142d8565b600080516020614bd48339815191529150612fa6906040519182918683526040602084015260408301906140bb565b7ff86f4487d2c5541b78f06d2368e28e0f4052e182124def54d5855bf2a01d325861012060018060a01b038451169260018060a01b036020860151169060018060a01b0360a0870151169560018060a01b0360c082015116976040820151928151602083015191606060408501519401519460e060018060a01b039101511695604051978852602088015260408701526060860152608085015260a084015260c083015260e082015286610100820152a4612f01565b9093506130dd915060e03d60e011612201576121ed8183613b21565b925050909288612dd4565b50916112aa565b9050909291926112a2565b60405162461bcd60e51b815260206004820152601f60248201527f5265656e7472616e637947756172643a207265656e7472616e742063616c6c006044820152606490fd5b346102d45760203660031901126102d457600435600a8110156102d45761316a6020916101f7613b09565b54604051908152f35b346102d4576101203660031901126102d45761318d6140f8565b6101f760043561319e600183613b09565b556024356131ad600283613b09565b556044356131bc600383613b09565b556064356131cb600483613b09565b556084356131da600983613b09565b5560a4356131e9600883613b09565b5560c4356131f8600783613b09565b5560e435613207600683613b09565b5561321760056101043592613b09565b55005b60c03660031901126102d45761322e61416b565b613245600080516020614c148339815191526146f3565b61325561031460056101f7613b09565b61025d805460405191613269604084613b21565b60058352602083019260018060f81b03431684528260005261026860205260406000209051600a8110156103ba5760ff6020958119905160081b1691161790558160005261026383526132c160046040600020614929565b604051828152600584820152600080516020614bf483398151915260403392a26103b081546146ce565b346102d45760203660031901126102d457600435600052610267602052610100604060002060018060a01b03808254169181600182015416916002820154600383015460048401549183600586015416936007816006880154169601541695604051978852602088015260408701526060860152608085015260a084015260c083015260e0820152f35b346102d45760003660031901126102d45760ca5460ff8160081c16156134585760018060a01b03808260101c1633141590816133ee575b50610cc05760ff811615610cae5761ff00191660ca557f5db9ee0a495bf2e6ff9c91a7834c1ba4fdd244a5e8aa4e537bd38aeae4b073aa6020604051338152a1005b60975460405163d994d6d560e01b8152336004820152925060209183916024918391165afa9081156115345760009161342a575b5015826133ac565b61344b915060203d8111613451575b6134438183613b21565b8101906140e0565b82613422565b503d613439565b604051637c7fd07960e01b8152600490fd5b346102d45760003660031901126102d4576020613485614a0a565b6040519015158152f35b346102d45760203660031901126102d4576004356001600160801b0381168091036102d4576134bc6140f8565b61026980546001600160801b0319169091179055005b346102d45760203660031901126102d4576004356001600160a01b0380821682036102d45761001991613531826000937f0000000000000000000000000000000000000000000000000000000000000000169061120a82301415613c2e565b6135396140f8565b61354282613b59565b906135506040519283613b21565b828252601f1961355f84613b59565b01366020840137613cf0565b346102d45760403660031901126102d4576024356001600160a01b0381168082036102d45733036135a25761001990600435613baf565b60405162461bcd60e51b815260206004820152602f60248201527f416363657373436f6e74726f6c3a2063616e206f6e6c792072656e6f756e636560448201526e103937b632b9903337b91039b2b63360891b6064820152608490fd5b6101003660031901126102d45761361461416b565b61362b600080516020614c148339815191526146f3565b61363b61031460096101f7613b09565b61025d805460405161364e604082613b21565b600981526020810160018060f81b0343168152826000526102686020526040600020915190600a8210156103ba575160ff9190911660089190911b60ff19161790556000818152610267602052604090206001600160a01b036004358181169492908590036102d4576001600160601b0360a01b9485825416178155600181016024358381168091036102d457868254161790556044356002820155606435600382015560843560048201556005810160a4358381168091036102d45786825416179055600681019060c435918383168093036102d45760079287825416179055019060e4359081168091036102d457602094825416179055604051828152600984820152600080516020614bf483398151915260403392a26103b081546146ce565b346102d45760403660031901126102d4576004356024356001600160a01b03811681036102d457816137a561001993614afb565b614a6f565b346102d45760203660031901126102d4576004356001600160a01b03811681036102d4576137d66140f8565b60ca805462010000600160b01b03191660109290921b62010000600160b01b0316919091179055005b346102d45760003660031901126102d457602061025e54604051908152f35b346102d45760203660031901126102d4576004356000526101936020526020600160406000200154604051908152f35b346102d45760403660031901126102d457600435600a8110156102d457613877906101f7613b09565b54602435811161388c57602090604051908152f35b6024906040519063049e6f6960e41b82526004820152fd5b346102d45760203660031901126102d45760048035600090815261025f6020908152604091829020805460018201546002830154600384015493909601548551928352938201526001600160a01b03948516938101939093528316606083015291909116608082015260a090f35b346102d45760203660031901126102d457600435600052610265602052604060002060018060a01b036102d0818354169160018401549360028101549160038201548160048401541691600681600586015416940154169360405197889788613ac6565b346102d45760003660031901126102d4576097546040516001600160a01b039091168152602090f35b346102d45760203660031901126102d45760043563ffffffff60e01b81168091036102d457602090637965db0b60e01b81149081156139e4575b506040519015158152f35b6301ffc9a760e01b149050826139d9565b60e03660031901126102d457613a0961416b565b613a20600080516020614c148339815191526146f3565b613a3061031460086101f7613b09565b61025d805460405191613a44604084613b21565b60088352602083019260018060f81b03431684528260005261026860205260406000209051600a8110156103ba5760ff6020958119905160081b169116179055816000526102668352613a9c60046040600020614994565b604051828152600884820152600080516020614bf483398151915260403392a26103b081546146ce565b6001600160a01b039182168152602081019290925260408201929092526060810192909252918216608082015291811660a083015290911660c082015260e00190565b90600a8110156103ba57600052602052604060002090565b90601f8019910116810190811067ffffffffffffffff821117613b4357604052565b634e487b7160e01b600052604160045260246000fd5b67ffffffffffffffff8111613b4357601f01601f191660200190565b6001600160a01b0391821681526020810192909252604082019290925291811660608301529182166080820152911660a082015260c00190565b9060009180835261019380602052604084209260018060a01b03169283855260205260ff604085205416613be4575b50505050565b818452602052604083208284526020526040832060ff1981541690557ff6391f5c32d9c69d2a47ea670b442974b53935d1edc7fd64eb21e047a839171b339380a438808080613bde565b15613c3557565b60405162461bcd60e51b815260206004820152602c60248201527f46756e6374696f6e206d7573742062652063616c6c6564207468726f7567682060448201526b19195b1959d85d1958d85b1b60a21b6064820152608490fd5b15613c9657565b60405162461bcd60e51b815260206004820152602c60248201527f46756e6374696f6e206d7573742062652063616c6c6564207468726f7567682060448201526b6163746976652070726f787960a01b6064820152608490fd5b9060ff7f4910fdfa16fed3260ed0e7147f7cc6da11a60208b5b9406d12a635614ffd91435416600014613d2a5750613d289150613f29565b565b6040516352d1902d60e01b8152602093919291906001600160a01b038316908581600481855afa60009181613ef7575b50613dbb5760405162461bcd60e51b815260048101879052602e60248201527f45524331393637557067726164653a206e657720696d706c656d656e7461746960448201526d6f6e206973206e6f74205555505360901b6064820152608490fd5b9394937fc9f76b5ec45e5cdef99837d7b6d2467235c1df8933c8ca56df5c35afa2c7d44401613ea057613ded83613f29565b7fbc7cd75a20ee27fd9adebab32041f755214dbc6bffa90cc0225b39da2e5c2d3b600080a283511590811591613e98575b50613e2857505050565b600080613e9594613e396027613b59565b94613e476040519687613b21565b602786527f416464726573733a206c6f772d6c6576656c2064656c65676174652063616c6c81870152660819985a5b195960ca1b604087015281519101845af4613e8f613fcb565b91613ffb565b50565b905038613e1e565b60405162461bcd60e51b815260048101859052602960248201527f45524331393637557067726164653a20756e737570706f727465642070726f786044820152681a58589b195555525160ba1b6064820152608490fd5b90918782813d8311613f22575b613f0e8183613b21565b81010312613f1f5750519038613d5a565b80fd5b503d613f04565b803b15613f70577f360894a13ba1a3210667c828492db98dca3e2076cc3735a920a3ca505d382bbc80546001600160a01b0319166001600160a01b03909216919091179055565b60405162461bcd60e51b815260206004820152602d60248201527f455243313936373a206e657720696d706c656d656e746174696f6e206973206e60448201526c1bdd08184818dbdb9d1c9858dd609a1b6064820152608490fd5b3d15613ff6573d90613fdc82613b59565b91613fea6040519384613b21565b82523d6000602084013e565b606090565b9192901561405d575081511561400f575090565b3b156140185790565b60405162461bcd60e51b815260206004820152601d60248201527f416464726573733a2063616c6c20746f206e6f6e2d636f6e74726163740000006044820152606490fd5b8251909150156140705750805190602001fd5b60405162461bcd60e51b8152602060048201529081906140949060248301906140bb565b0390fd5b60005b8381106140ab5750506000910152565b818101518382015260200161409b565b906020916140d481518092818552858086019101614098565b601f01601f1916010190565b908160209103126102d4575180151581036102d45790565b60975460405163d994d6d560e01b815233600482015290602090829060249082906001600160a01b03165afa9081156115345760009161414d575b501561413b57565b604051631dd1b1b560e21b8152600490fd5b614165915060203d8111613451576134438183613b21565b38614133565b60ff60ca5460081c1661417a57565b60405163783bb6c960e11b8152600490fd5b1561419357565b60405162461bcd60e51b815260206004820152602b60248201527f496e697469616c697a61626c653a20636f6e7472616374206973206e6f74206960448201526a6e697469616c697a696e6760a81b6064820152608490fd5b600a8210156103ba5752565b9060405161420760a082613b21565b825481526001830154602082015260028301546001600160a01b0390811660408301526003840154811660608301526004909301549092166080830152565b91908260809103126102d457604051614260608082613b21565b60608082948051845260208101516020850152604081015160408501520151910152565b909160c0828403126102d4576142a4825193604060208501519401614246565b90565b906020825192015163ffffffff60e01b9081811693600481106142c957505050565b60040360031b82901b16169150565b909160a092825263ffffffff60e01b16602082015260606040820152600c60608201526b4c6f7720636f76657261676560a01b60808201520190565b909160a092825263ffffffff60e01b166020820152606060408201526015606082015274125b9cdd59999a58da595b9d081c5858c81cd95b9d605a1b60808201520190565b94919260e0969399989794919961010087019a8752602087015260408601526060850152608084015260a083015260018060a01b031660c08201520152565b909160a092825263ffffffff60e01b16602082015260606040820152601a60608201527f7141432062656c6f77206d696e696d756d20726571756972656400000000000060808201520190565b906040516143f460c082613b21565b82546001600160a01b039081168252600184015460208301526002840154604083015260038401548116606083015260048401548116608083015260059093015490921660a0830152565b60a09081600180821b03918281511685526020810151602086015260408101516040860152826060820151166060860152826080820151166080860152015116910152565b909160c092825263ffffffff60e01b16602082015260606040820152602460608201527f4d617820666c757820636170616369746f72206f7065726174696f6e2072656160808201526318da195960e21b60a08201520190565b60e0818303126102d4578051926142a4602083015193606060408501519401614246565b95926101009794919a9998959261012088019b8852602088015260408701526060860152608085015260a084015260c083015260018060a01b031660e08201520152565b9060405161455560e082613b21565b82546001600160a01b0390811682526001840154602083015260028401546040830152600384015460608301526004840154811660808301526005840154811660a083015260069093015490921660c0830152565b60c0908160018060a01b03918281511685526020810151602086015260408101516040860152606081015160608601528260808201511660808601528260a08201511660a0860152015116910152565b909160a092825263ffffffff60e01b16602082015260606040820152601a60608201527f7154702062656c6f77206d696e696d756d20726571756972656400000000000060808201520190565b356001600160a01b03811681036102d45790565b813581556020820135600182015560028101906001600160a01b03906146c4906080906004908461468e60408901614647565b16956001600160601b0360a01b968782541617905560038101856146b460608a01614647565b1687825416179055019401614647565b1690825416179055565b60001981146146dd5760010190565b634e487b7160e01b600052601160045260246000fd5b8060005260206101938152604060002033600052815260ff604060002054161561471b575050565b6147b160486147358361472f6014336147d2565b956147d2565b936040519485917f416363657373436f6e74726f6c3a206163636f756e7420000000000000000000868401526147748151809288603787019101614098565b82017001034b99036b4b9b9b4b733903937b6329607d1b60378201526147a282518093888785019101614098565b01036028810185520183613b21565b61409460405192839262461bcd60e51b8452600484015260248301906140bb565b60019180831b91906001600160ff1b038116036146dd5760028201928383116146dd5761481761480185613b59565b9461480f6040519687613b21565b808652613b59565b6020939085850190601f19013682378551156149135760309053845182101561491357607860218601538181018091116146dd57905b8082116148a157505061485e575090565b6064906040519062461bcd60e51b825280600483015260248201527f537472696e67733a20686578206c656e67746820696e73756666696369656e746044820152fd5b9091600f811660108110156148fe5785518410156148fe576f181899199a1a9b1b9c1cb0b131b232b360811b901a85840185015360041c9180156148e957600019019061484d565b60246000634e487b7160e01b81526011600452fd5b60246000634e487b7160e01b81526032600452fd5b634e487b7160e01b600052603260045260246000fd5b6001600160a01b036146c460a060058361494287614647565b16946001600160601b03831b95868254161781556020870135600182015560408701356002820155600381018561497b60608a01614647565b168782541617905560048101856146b460808a01614647565b6001600160a01b036146c460c06006836149ad87614647565b16946001600160601b0360a01b958682541617815560208701356001820155604087013560028201556060870135600382015560048101856149f160808a01614647565b168782541617905560058101856146b460a08a01614647565b61025e5461025d548114614a69576000526102686020526020604060002060405190614a37604083613b21565b54614a4560ff8216836141ec565b60081c91829101526001600160801b0361026954164303904382116146dd57111590565b50600090565b9060009180835261019380602052604084209260018060a01b03169283855260205260ff60408520541615614aa45750505050565b8184526020526040832082845260205260408320600160ff198254161790557f2f8788117e7eff1d82e926ec794901d17c78024a50270940304540a733656f0d339380a438808080613bde565b34810361388c5750565b6097546040805163d994d6d560e01b8152336004820152909291602090829060249082906001600160a01b03165afa908115614ba857600091614b8a575b50159081614b5a575b50614b4a5750565b51631dd1b1b560e21b8152600490fd5b90506000526101936020526001816000200154600052806000203360005260205260ff8160002054161538614b42565b614ba2915060203d8111613451576134438183613b21565b38614b39565b83513d6000823e3d90fdfe5bbebb64d62396f99cae4b3b78d9386cb0f2893aab6a69f27eb61f8e7c29775e3ea497186958ec638834f65ec5a571c2b2e877e5d59a76804ec0448fac7829babfa5d40ab595fa613b17566ea5e38a5cac79a71f09ce1435246db2e6805816c27d5e686862ec2250829eb6dee4a7cb0834865072f135485c874d3bbbe39bdfdba26469706673582212204ac6739db576cc699a92f9cbab8452e066c29f100e635dc2d21f6c2ea1048def64736f6c63430008140033",
  "devdoc": {
    "events": {
      "AdminChanged(address,address)": {
        "details": "Emitted when the admin account has changed."
      },
      "BeaconUpgraded(address)": {
        "details": "Emitted when the beacon is changed."
      },
      "Initialized(uint8)": {
        "details": "Triggered when the contract has been initialized or reinitialized."
      },
      "RoleAdminChanged(bytes32,bytes32,bytes32)": {
        "details": "Emitted when `newAdminRole` is set as ``role``'s admin role, replacing `previousAdminRole` `DEFAULT_ADMIN_ROLE` is the starting admin for all roles, despite {RoleAdminChanged} not being emitted signaling this. _Available since v3.1._"
      },
      "RoleGranted(bytes32,address,address)": {
        "details": "Emitted when `account` is granted `role`. `sender` is the account that originated the contract call, an admin role bearer except when using {AccessControl-_setupRole}."
      },
      "RoleRevoked(bytes32,address,address)": {
        "details": "Emitted when `account` is revoked `role`. `sender` is the account that originated the contract call:   - if using `revokeRole`, it is the admin role bearer   - if using `renounceRole`, it is the role bearer (i.e. `account`)"
      },
      "Upgraded(address)": {
        "details": "Emitted when the implementation is upgraded."
      }
    },
    "kind": "dev",
    "methods": {
      "changeGovernor(address)": {
        "params": {
          "newGovernor_": "New governor address"
        }
      },
      "constructor": {
        "custom:oz-upgrades-unsafe-allow": "constructor"
      },
      "execute(address)": {
        "details": "does not revert on Operation failure, throws Process and Error events according to the Oper type and result"
      },
      "getAndVerifyExecFee(uint8,uint256)": {
        "details": "only used for coinbase flavor",
        "params": {
          "operType_": "operation type registered",
          "value_": "value sent to pay execution fee"
        },
        "returns": {
          "currentExecFee": "execution fee required for the operation"
        }
      },
      "getRoleAdmin(bytes32)": {
        "details": "Returns the admin role that controls `role`. See {grantRole} and {revokeRole}. To change a role's admin, use {_setRoleAdmin}."
      },
      "grantRole(bytes32,address)": {
        "details": "Grants `role` to `account`. If `account` had not been already granted `role`, emits a {RoleGranted} event. Requirements: - the caller must have ``role``'s admin role  OR   the caller must have be an authorized Governance changer. May emit a {RoleGranted} event."
      },
      "hasRole(bytes32,address)": {
        "details": "Returns `true` if `account` has been granted `role`."
      },
      "makeStoppable()": {
        "details": "Should be called through governance"
      },
      "makeUnstoppable()": {
        "details": "Should be called through governance"
      },
      "pause()": {
        "details": "Should only be called by the pauser and when it is stoppable"
      },
      "proxiableUUID()": {
        "details": "Implementation of the ERC1822 {proxiableUUID} function. This returns the storage slot used by the implementation. It is used to validate the implementation's compatibility when performing an upgrade. IMPORTANT: A proxy pointing at a proxiable contract should not be considered proxiable itself, because this risks bricking a proxy that upgrades to it, by delegating to itself until out of gas. Thus it is critical that this function revert if invoked through a proxy. This is guaranteed by the `notDelegated` modifier."
      },
      "queueMintTC((uint256,uint256,address,address,address))": {
        "returns": {
          "operId": "Identifier to track the Operation lifecycle"
        }
      },
      "queueMintTCandTP((address,uint256,uint256,address,address,address))": {
        "returns": {
          "operId": "Identifier to track the Operation lifecycle"
        }
      },
      "queueMintTP((address,uint256,uint256,address,address,address))": {
        "returns": {
          "operId": "Identifier to track the Operation lifecycle"
        }
      },
      "queueRedeemTC((uint256,uint256,address,address,address))": {
        "returns": {
          "operId": "Identifier to track the Operation lifecycle"
        }
      },
      "queueRedeemTCandTP((address,uint256,uint256,uint256,address,address,address))": {
        "returns": {
          "operId": "Identifier to track the Operation lifecycle"
        }
      },
      "queueRedeemTP((address,uint256,uint256,address,address,address))": {
        "returns": {
          "operId": "Identifier to track the Operation lifecycle"
        }
      },
      "queueSwapTCforTP((address,uint256,uint256,uint256,address,address,address))": {
        "returns": {
          "operId": "Identifier to track the Operation lifecycle"
        }
      },
      "queueSwapTPforTC((address,uint256,uint256,uint256,address,address,address))": {
        "returns": {
          "operId": "Identifier to track the Operation lifecycle"
        }
      },
      "queueSwapTPforTP((address,address,uint256,uint256,uint256,address,address,address))": {
        "returns": {
          "operId": "Identifier to track the Operation lifecycle"
        }
      },
      "registerBucket(address)": {
        "details": "in order to operate, the queue needs to be whitelisted as ENQUEUER_ROLE on the bucket as well",
        "params": {
          "bucket_": "address of the mocOperations implementation to interact with May emit a {RoleGranted} event for ENQUEUER role"
        }
      },
      "renounceRole(bytes32,address)": {
        "details": "Revokes `role` from the calling account. Roles are often managed via {grantRole} and {revokeRole}: this function's purpose is to provide a mechanism for accounts to lose their privileges if they are compromised (such as when a trusted device is misplaced). If the calling account had been revoked `role`, emits a {RoleRevoked} event. Requirements: - the caller must be `account`. May emit a {RoleRevoked} event."
      },
      "revokeRole(bytes32,address)": {
        "details": "Revokes `role` from `account`. If `account` had been granted `role`, emits a {RoleRevoked} event. Requirements: - the caller must have ``role``'s admin role  OR   the caller must have be an authorized Governance changer. May emit a {RoleRevoked} event."
      },
      "setMaxOperPerBatch(uint128)": {
        "params": {
          "maxOperPerBatch_": "maximum amount of operations allowed on a batch to avoid going over the block gas limit"
        }
      },
      "setMinOperWaitingBlk(uint128)": {
        "params": {
          "minOperWaitingBlk_": "minimum amount of blocks an operation needs to remain in the queue before it can be executed"
        }
      },
      "setPauser(address)": {
        "details": "Should be called through governance",
        "params": {
          "newPauser_": "Address of the new pauser"
        }
      },
      "supportsInterface(bytes4)": {
        "details": "See {IERC165-supportsInterface}."
      },
      "unpause()": {
        "details": "Should only be called by the pauser and when it is stoppable"
      },
      "updateExecutionFees((uint256,uint256,uint256,uint256,uint256,uint256,uint256,uint256,uint256))": {
        "details": "When the changer is executed there could be pending operations on the queue, thats means that  users have already paid for those operations, so, two situations could occur:  1. If execution fees are decreased, the executor will receive all the new fees and the       remaining funds will stay in this contract  2. If execution fees are increased, the executor will receive less fees, unless this contract has funds       remaining from another execution fee update (1.) or previously sent by another address",
        "params": {
          "mocQueueExecFeesParams_": "new execution fees"
        }
      },
      "upgradeTo(address)": {
        "custom:oz-upgrades-unsafe-allow-reachable": "delegatecall",
        "details": "Upgrade the implementation of the proxy to `newImplementation`. Calls {_authorizeUpgrade}. Emits an {Upgraded} event."
      },
      "upgradeToAndCall(address,bytes)": {
        "custom:oz-upgrades-unsafe-allow-reachable": "delegatecall",
        "details": "Upgrade the implementation of the proxy to `newImplementation`, and subsequently execute the function call encoded in `data`. Calls {_authorizeUpgrade}. Emits an {Upgraded} event."
      }
    },
    "stateVariables": {
      "__gap": {
        "details": "This empty reserved space is put in place to allow future versions to add new variables without shifting down storage in the inheritance chain. See https://docs.openzeppelin.com/contracts/4.x/upgradeable#storage_gaps"
      }
    },
    "title": "MocQueue: Allows queue Operation deferral execution processing",
    "version": 1
  },
  "userdoc": {
    "kind": "user",
    "methods": {
      "changeGovernor(address)": {
        "notice": "Change the contract's governor. Should be called through the old governance system"
      },
      "execute(address)": {
        "notice": "Processes Operations in the queue"
      },
      "getAndVerifyExecFee(uint8,uint256)": {
        "notice": "get execution fee for the operation requested  reverts if value sent is not enough to pay the execution fee"
      },
      "governor()": {
        "notice": "The address of the contract which governs this one"
      },
      "isEmpty()": {
        "notice": "true if the queue is empty"
      },
      "makeStoppable()": {
        "notice": "Switches ON the stoppability of the contract. It can be paused or unpaused  Doesn't change the pause state, if the contract was already paused it cannot be operated"
      },
      "makeUnstoppable()": {
        "notice": "Switches OFF the stoppability of the contract. It cannot be paused or unpaused Doesn't change the pause state, if the contract was already paused it cannot be operated"
      },
      "pause()": {
        "notice": "Called by the owner to pause, triggers stopped state"
      },
      "paused()": {
        "notice": "Returns true if paused"
      },
      "queueMintTC((uint256,uint256,address,address,address))": {
        "notice": "registered enqueuer can queue an Operations"
      },
      "queueMintTCandTP((address,uint256,uint256,address,address,address))": {
        "notice": "Registered enqueuer can queue an Operations"
      },
      "queueMintTP((address,uint256,uint256,address,address,address))": {
        "notice": "registered enqueuer can queue an Operations"
      },
      "queueRedeemTC((uint256,uint256,address,address,address))": {
        "notice": "registered enqueuer can queue an Operations"
      },
      "queueRedeemTCandTP((address,uint256,uint256,uint256,address,address,address))": {
        "notice": "Registered enqueuer can queue an Operations"
      },
      "queueRedeemTP((address,uint256,uint256,address,address,address))": {
        "notice": "Registered enqueuer can queue an Operations"
      },
      "queueSwapTCforTP((address,uint256,uint256,uint256,address,address,address))": {
        "notice": "Registered enqueuer can queue an Operations"
      },
      "queueSwapTPforTC((address,uint256,uint256,uint256,address,address,address))": {
        "notice": "Registered enqueuer can queue an Operations"
      },
      "queueSwapTPforTP((address,address,uint256,uint256,uint256,address,address,address))": {
        "notice": "Registered enqueuer can queue an Operations"
      },
      "readyToExecute()": {
        "notice": "true if the queue has at least one Operation ready to be executed"
      },
      "registerBucket(address)": {
        "notice": "registers the mocOperations bucket that would operate over this queue"
      },
      "setMaxOperPerBatch(uint128)": {
        "notice": "sets Moc Queue maximum amount of operations per execution batch"
      },
      "setMinOperWaitingBlk(uint128)": {
        "notice": "sets Moc Queue minimum operation waiting blocks"
      },
      "setPauser(address)": {
        "notice": "Changes the address which is enable to pause this contract"
      },
      "unpause()": {
        "notice": "Called by the owner to unpause, returns to normal state"
      },
      "updateExecutionFees((uint256,uint256,uint256,uint256,uint256,uint256,uint256,uint256,uint256))": {
        "notice": "Updates executions fees with absolute values for each operation type"
      }
    },
    "version": 1
  },
  "storageLayout": {
    "storage": [
      {
        "astId": 950,
        "contract": "moc-main/contracts/queue/MocQueue.sol:MocQueue",
        "label": "_initialized",
        "offset": 0,
        "slot": "0",
        "type": "t_uint8"
      },
      {
        "astId": 953,
        "contract": "moc-main/contracts/queue/MocQueue.sol:MocQueue",
        "label": "_initializing",
        "offset": 1,
        "slot": "0",
        "type": "t_bool"
      },
      {
        "astId": 932,
        "contract": "moc-main/contracts/queue/MocQueue.sol:MocQueue",
        "label": "__gap",
        "offset": 0,
        "slot": "1",
        "type": "t_array(t_uint256)50_storage"
      },
      {
        "astId": 1247,
        "contract": "moc-main/contracts/queue/MocQueue.sol:MocQueue",
        "label": "__gap",
        "offset": 0,
        "slot": "51",
        "type": "t_array(t_uint256)50_storage"
      },
      {
        "astId": 19582,
        "contract": "moc-main/contracts/queue/MocQueue.sol:MocQueue",
        "label": "__gap",
        "offset": 0,
        "slot": "101",
        "type": "t_array(t_uint256)50_storage"
      },
      {
        "astId": 15695,
        "contract": "moc-main/contracts/queue/MocQueue.sol:MocQueue",
        "label": "governor",
        "offset": 0,
        "slot": "151",
        "type": "t_contract(IGovernor)16053"
      },
      {
        "astId": 15766,
        "contract": "moc-main/contracts/queue/MocQueue.sol:MocQueue",
        "label": "__gap",
        "offset": 0,
        "slot": "152",
        "type": "t_array(t_uint256)50_storage"
      },
      {
        "astId": 15835,
        "contract": "moc-main/contracts/queue/MocQueue.sol:MocQueue",
        "label": "stoppable",
        "offset": 0,
        "slot": "202",
        "type": "t_bool"
      },
      {
        "astId": 15837,
        "contract": "moc-main/contracts/queue/MocQueue.sol:MocQueue",
        "label": "_paused",
        "offset": 1,
        "slot": "202",
        "type": "t_bool"
      },
      {
        "astId": 15839,
        "contract": "moc-main/contracts/queue/MocQueue.sol:MocQueue",
        "label": "pauser",
        "offset": 2,
        "slot": "202",
        "type": "t_address"
      },
      {
        "astId": 16011,
        "contract": "moc-main/contracts/queue/MocQueue.sol:MocQueue",
        "label": "__gap",
        "offset": 0,
        "slot": "203",
        "type": "t_array(t_uint256)50_storage"
      },
      {
        "astId": 15817,
        "contract": "moc-main/contracts/queue/MocQueue.sol:MocQueue",
        "label": "__gap",
        "offset": 0,
        "slot": "253",
        "type": "t_array(t_uint256)50_storage"
      },
      {
        "astId": 3017,
        "contract": "moc-main/contracts/queue/MocQueue.sol:MocQueue",
        "label": "__gap",
        "offset": 0,
        "slot": "303",
        "type": "t_array(t_uint256)50_storage"
      },
      {
        "astId": 3400,
        "contract": "moc-main/contracts/queue/MocQueue.sol:MocQueue",
        "label": "__gap",
        "offset": 0,
        "slot": "353",
        "type": "t_array(t_uint256)50_storage"
      },
      {
        "astId": 184,
        "contract": "moc-main/contracts/queue/MocQueue.sol:MocQueue",
        "label": "_roles",
        "offset": 0,
        "slot": "403",
        "type": "t_mapping(t_bytes32,t_struct(RoleData)179_storage)"
      },
      {
        "astId": 479,
        "contract": "moc-main/contracts/queue/MocQueue.sol:MocQueue",
        "label": "__gap",
        "offset": 0,
        "slot": "404",
        "type": "t_array(t_uint256)49_storage"
      },
      {
        "astId": 19486,
        "contract": "moc-main/contracts/queue/MocQueue.sol:MocQueue",
        "label": "__gap",
        "offset": 0,
        "slot": "453",
        "type": "t_array(t_uint256)50_storage"
      },
      {
        "astId": 18867,
        "contract": "moc-main/contracts/queue/MocQueue.sol:MocQueue",
        "label": "execFee",
        "offset": 0,
        "slot": "503",
        "type": "t_mapping(t_enum(OperType)18837,t_uint256)"
      },
      {
        "astId": 19031,
        "contract": "moc-main/contracts/queue/MocQueue.sol:MocQueue",
        "label": "__gap",
        "offset": 0,
        "slot": "504",
        "type": "t_array(t_uint256)50_storage"
      },
      {
        "astId": 1389,
        "contract": "moc-main/contracts/queue/MocQueue.sol:MocQueue",
        "label": "_status",
        "offset": 0,
        "slot": "554",
        "type": "t_uint256"
      },
      {
        "astId": 1458,
        "contract": "moc-main/contracts/queue/MocQueue.sol:MocQueue",
        "label": "__gap",
        "offset": 0,
        "slot": "555",
        "type": "t_array(t_uint256)49_storage"
      },
      {
        "astId": 16377,
        "contract": "moc-main/contracts/queue/MocQueue.sol:MocQueue",
        "label": "mocOperations",
        "offset": 0,
        "slot": "604",
        "type": "t_contract(MocOperations)15678"
      },
      {
        "astId": 16379,
        "contract": "moc-main/contracts/queue/MocQueue.sol:MocQueue",
        "label": "operIdCount",
        "offset": 0,
        "slot": "605",
        "type": "t_uint256"
      },
      {
        "astId": 16381,
        "contract": "moc-main/contracts/queue/MocQueue.sol:MocQueue",
        "label": "firstOperId",
        "offset": 0,
        "slot": "606",
        "type": "t_uint256"
      },
      {
        "astId": 16386,
        "contract": "moc-main/contracts/queue/MocQueue.sol:MocQueue",
        "label": "operationsMintTC",
        "offset": 0,
        "slot": "607",
        "type": "t_mapping(t_uint256,t_struct(MintTCParams)11492_storage)"
      },
      {
        "astId": 16391,
        "contract": "moc-main/contracts/queue/MocQueue.sol:MocQueue",
        "label": "operationsMintTP",
        "offset": 0,
        "slot": "608",
        "type": "t_mapping(t_uint256,t_struct(MintTPParams)11744_storage)"
      },
      {
        "astId": 16396,
        "contract": "moc-main/contracts/queue/MocQueue.sol:MocQueue",
        "label": "operationsRedeemTC",
        "offset": 0,
        "slot": "609",
        "type": "t_mapping(t_uint256,t_struct(RedeemTCParams)11618_storage)"
      },
      {
        "astId": 16401,
        "contract": "moc-main/contracts/queue/MocQueue.sol:MocQueue",
        "label": "operationsRedeemTP",
        "offset": 0,
        "slot": "610",
        "type": "t_mapping(t_uint256,t_struct(RedeemTPParams)10594_storage)"
      },
      {
        "astId": 16406,
        "contract": "moc-main/contracts/queue/MocQueue.sol:MocQueue",
        "label": "operationsMintTCandTP",
        "offset": 0,
        "slot": "611",
        "type": "t_mapping(t_uint256,t_struct(MintTCandTPParams)10519_storage)"
      },
      {
        "astId": 16411,
        "contract": "moc-main/contracts/queue/MocQueue.sol:MocQueue",
        "label": "operationsRedeemTCandTP",
        "offset": 0,
        "slot": "612",
        "type": "t_mapping(t_uint256,t_struct(RedeemTCandTPParams)10534_storage)"
      },
      {
        "astId": 16416,
        "contract": "moc-main/contracts/queue/MocQueue.sol:MocQueue",
        "label": "operationsSwapTCforTP",
        "offset": 0,
        "slot": "613",
        "type": "t_mapping(t_uint256,t_struct(SwapTCforTPParams)10581_storage)"
      },
      {
        "astId": 16421,
        "contract": "moc-main/contracts/queue/MocQueue.sol:MocQueue",
        "label": "operationsSwapTPforTC",
        "offset": 0,
        "slot": "614",
        "type": "t_mapping(t_uint256,t_struct(SwapTPforTCParams)10566_storage)"
      },
      {
        "astId": 16426,
        "contract": "moc-main/contracts/queue/MocQueue.sol:MocQueue",
        "label": "operationsSwapTPforTP",
        "offset": 0,
        "slot": "615",
        "type": "t_mapping(t_uint256,t_struct(SwapTPforTPParams)10551_storage)"
      },
      {
        "astId": 16431,
        "contract": "moc-main/contracts/queue/MocQueue.sol:MocQueue",
        "label": "opersInfo",
        "offset": 0,
        "slot": "616",
        "type": "t_mapping(t_uint256,t_struct(OperInfo)16374_storage)"
      },
      {
        "astId": 16433,
        "contract": "moc-main/contracts/queue/MocQueue.sol:MocQueue",
        "label": "minOperWaitingBlk",
        "offset": 0,
        "slot": "617",
        "type": "t_uint128"
      },
      {
        "astId": 16435,
        "contract": "moc-main/contracts/queue/MocQueue.sol:MocQueue",
        "label": "maxOperPerBatch",
        "offset": 16,
        "slot": "617",
        "type": "t_uint128"
      },
      {
        "astId": 18818,
        "contract": "moc-main/contracts/queue/MocQueue.sol:MocQueue",
        "label": "__gap",
        "offset": 0,
        "slot": "618",
        "type": "t_array(t_uint256)50_storage"
      }
    ],
    "types": {
      "t_address": {
        "encoding": "inplace",
        "label": "address",
        "numberOfBytes": "20"
      },
      "t_array(t_uint256)49_storage": {
        "base": "t_uint256",
        "encoding": "inplace",
        "label": "uint256[49]",
        "numberOfBytes": "1568"
      },
      "t_array(t_uint256)50_storage": {
        "base": "t_uint256",
        "encoding": "inplace",
        "label": "uint256[50]",
        "numberOfBytes": "1600"
      },
      "t_bool": {
        "encoding": "inplace",
        "label": "bool",
        "numberOfBytes": "1"
      },
      "t_bytes32": {
        "encoding": "inplace",
        "label": "bytes32",
        "numberOfBytes": "32"
      },
      "t_contract(IGovernor)16053": {
        "encoding": "inplace",
        "label": "contract IGovernor",
        "numberOfBytes": "20"
      },
      "t_contract(MocOperations)15678": {
        "encoding": "inplace",
        "label": "contract MocOperations",
        "numberOfBytes": "20"
      },
      "t_enum(OperType)18837": {
        "encoding": "inplace",
        "label": "enum MocQueueExecFees.OperType",
        "numberOfBytes": "1"
      },
      "t_mapping(t_address,t_bool)": {
        "encoding": "mapping",
        "key": "t_address",
        "label": "mapping(address => bool)",
        "numberOfBytes": "32",
        "value": "t_bool"
      },
      "t_mapping(t_bytes32,t_struct(RoleData)179_storage)": {
        "encoding": "mapping",
        "key": "t_bytes32",
        "label": "mapping(bytes32 => struct AccessControlUpgradeable.RoleData)",
        "numberOfBytes": "32",
        "value": "t_struct(RoleData)179_storage"
      },
      "t_mapping(t_enum(OperType)18837,t_uint256)": {
        "encoding": "mapping",
        "key": "t_enum(OperType)18837",
        "label": "mapping(enum MocQueueExecFees.OperType => uint256)",
        "numberOfBytes": "32",
        "value": "t_uint256"
      },
      "t_mapping(t_uint256,t_struct(MintTCParams)11492_storage)": {
        "encoding": "mapping",
        "key": "t_uint256",
        "label": "mapping(uint256 => struct MocCore.MintTCParams)",
        "numberOfBytes": "32",
        "value": "t_struct(MintTCParams)11492_storage"
      },
      "t_mapping(t_uint256,t_struct(MintTCandTPParams)10519_storage)": {
        "encoding": "mapping",
        "key": "t_uint256",
        "label": "mapping(uint256 => struct MocCommons.MintTCandTPParams)",
        "numberOfBytes": "32",
        "value": "t_struct(MintTCandTPParams)10519_storage"
      },
      "t_mapping(t_uint256,t_struct(MintTPParams)11744_storage)": {
        "encoding": "mapping",
        "key": "t_uint256",
        "label": "mapping(uint256 => struct MocCore.MintTPParams)",
        "numberOfBytes": "32",
        "value": "t_struct(MintTPParams)11744_storage"
      },
      "t_mapping(t_uint256,t_struct(OperInfo)16374_storage)": {
        "encoding": "mapping",
        "key": "t_uint256",
        "label": "mapping(uint256 => struct MocQueue.OperInfo)",
        "numberOfBytes": "32",
        "value": "t_struct(OperInfo)16374_storage"
      },
      "t_mapping(t_uint256,t_struct(RedeemTCParams)11618_storage)": {
        "encoding": "mapping",
        "key": "t_uint256",
        "label": "mapping(uint256 => struct MocCore.RedeemTCParams)",
        "numberOfBytes": "32",
        "value": "t_struct(RedeemTCParams)11618_storage"
      },
      "t_mapping(t_uint256,t_struct(RedeemTCandTPParams)10534_storage)": {
        "encoding": "mapping",
        "key": "t_uint256",
        "label": "mapping(uint256 => struct MocCommons.RedeemTCandTPParams)",
        "numberOfBytes": "32",
        "value": "t_struct(RedeemTCandTPParams)10534_storage"
      },
      "t_mapping(t_uint256,t_struct(RedeemTPParams)10594_storage)": {
        "encoding": "mapping",
        "key": "t_uint256",
        "label": "mapping(uint256 => struct MocCommons.RedeemTPParams)",
        "numberOfBytes": "32",
        "value": "t_struct(RedeemTPParams)10594_storage"
      },
      "t_mapping(t_uint256,t_struct(SwapTCforTPParams)10581_storage)": {
        "encoding": "mapping",
        "key": "t_uint256",
        "label": "mapping(uint256 => struct MocCommons.SwapTCforTPParams)",
        "numberOfBytes": "32",
        "value": "t_struct(SwapTCforTPParams)10581_storage"
      },
      "t_mapping(t_uint256,t_struct(SwapTPforTCParams)10566_storage)": {
        "encoding": "mapping",
        "key": "t_uint256",
        "label": "mapping(uint256 => struct MocCommons.SwapTPforTCParams)",
        "numberOfBytes": "32",
        "value": "t_struct(SwapTPforTCParams)10566_storage"
      },
      "t_mapping(t_uint256,t_struct(SwapTPforTPParams)10551_storage)": {
        "encoding": "mapping",
        "key": "t_uint256",
        "label": "mapping(uint256 => struct MocCommons.SwapTPforTPParams)",
        "numberOfBytes": "32",
        "value": "t_struct(SwapTPforTPParams)10551_storage"
      },
      "t_struct(MintTCParams)11492_storage": {
        "encoding": "inplace",
        "label": "struct MocCore.MintTCParams",
        "members": [
          {
            "astId": 11483,
            "contract": "moc-main/contracts/queue/MocQueue.sol:MocQueue",
            "label": "qTC",
            "offset": 0,
            "slot": "0",
            "type": "t_uint256"
          },
          {
            "astId": 11485,
            "contract": "moc-main/contracts/queue/MocQueue.sol:MocQueue",
            "label": "qACmax",
            "offset": 0,
            "slot": "1",
            "type": "t_uint256"
          },
          {
            "astId": 11487,
            "contract": "moc-main/contracts/queue/MocQueue.sol:MocQueue",
            "label": "sender",
            "offset": 0,
            "slot": "2",
            "type": "t_address"
          },
          {
            "astId": 11489,
            "contract": "moc-main/contracts/queue/MocQueue.sol:MocQueue",
            "label": "recipient",
            "offset": 0,
            "slot": "3",
            "type": "t_address"
          },
          {
            "astId": 11491,
            "contract": "moc-main/contracts/queue/MocQueue.sol:MocQueue",
            "label": "vendor",
            "offset": 0,
            "slot": "4",
            "type": "t_address"
          }
        ],
        "numberOfBytes": "160"
      },
      "t_struct(MintTCandTPParams)10519_storage": {
        "encoding": "inplace",
        "label": "struct MocCommons.MintTCandTPParams",
        "members": [
          {
            "astId": 10508,
            "contract": "moc-main/contracts/queue/MocQueue.sol:MocQueue",
            "label": "tp",
            "offset": 0,
            "slot": "0",
            "type": "t_address"
          },
          {
            "astId": 10510,
            "contract": "moc-main/contracts/queue/MocQueue.sol:MocQueue",
            "label": "qTP",
            "offset": 0,
            "slot": "1",
            "type": "t_uint256"
          },
          {
            "astId": 10512,
            "contract": "moc-main/contracts/queue/MocQueue.sol:MocQueue",
            "label": "qACmax",
            "offset": 0,
            "slot": "2",
            "type": "t_uint256"
          },
          {
            "astId": 10514,
            "contract": "moc-main/contracts/queue/MocQueue.sol:MocQueue",
            "label": "sender",
            "offset": 0,
            "slot": "3",
            "type": "t_address"
          },
          {
            "astId": 10516,
            "contract": "moc-main/contracts/queue/MocQueue.sol:MocQueue",
            "label": "recipient",
            "offset": 0,
            "slot": "4",
            "type": "t_address"
          },
          {
            "astId": 10518,
            "contract": "moc-main/contracts/queue/MocQueue.sol:MocQueue",
            "label": "vendor",
            "offset": 0,
            "slot": "5",
            "type": "t_address"
          }
        ],
        "numberOfBytes": "192"
      },
      "t_struct(MintTPParams)11744_storage": {
        "encoding": "inplace",
        "label": "struct MocCore.MintTPParams",
        "members": [
          {
            "astId": 11733,
            "contract": "moc-main/contracts/queue/MocQueue.sol:MocQueue",
            "label": "tp",
            "offset": 0,
            "slot": "0",
            "type": "t_address"
          },
          {
            "astId": 11735,
            "contract": "moc-main/contracts/queue/MocQueue.sol:MocQueue",
            "label": "qTP",
            "offset": 0,
            "slot": "1",
            "type": "t_uint256"
          },
          {
            "astId": 11737,
            "contract": "moc-main/contracts/queue/MocQueue.sol:MocQueue",
            "label": "qACmax",
            "offset": 0,
            "slot": "2",
            "type": "t_uint256"
          },
          {
            "astId": 11739,
            "contract": "moc-main/contracts/queue/MocQueue.sol:MocQueue",
            "label": "sender",
            "offset": 0,
            "slot": "3",
            "type": "t_address"
          },
          {
            "astId": 11741,
            "contract": "moc-main/contracts/queue/MocQueue.sol:MocQueue",
            "label": "recipient",
            "offset": 0,
            "slot": "4",
            "type": "t_address"
          },
          {
            "astId": 11743,
            "contract": "moc-main/contracts/queue/MocQueue.sol:MocQueue",
            "label": "vendor",
            "offset": 0,
            "slot": "5",
            "type": "t_address"
          }
        ],
        "numberOfBytes": "192"
      },
      "t_struct(OperInfo)16374_storage": {
        "encoding": "inplace",
        "label": "struct MocQueue.OperInfo",
        "members": [
          {
            "astId": 16371,
            "contract": "moc-main/contracts/queue/MocQueue.sol:MocQueue",
            "label": "operType",
            "offset": 0,
            "slot": "0",
            "type": "t_enum(OperType)18837"
          },
          {
            "astId": 16373,
            "contract": "moc-main/contracts/queue/MocQueue.sol:MocQueue",
            "label": "queuedBlk",
            "offset": 1,
            "slot": "0",
            "type": "t_uint248"
          }
        ],
        "numberOfBytes": "32"
      },
      "t_struct(RedeemTCParams)11618_storage": {
        "encoding": "inplace",
        "label": "struct MocCore.RedeemTCParams",
        "members": [
          {
            "astId": 11609,
            "contract": "moc-main/contracts/queue/MocQueue.sol:MocQueue",
            "label": "qTC",
            "offset": 0,
            "slot": "0",
            "type": "t_uint256"
          },
          {
            "astId": 11611,
            "contract": "moc-main/contracts/queue/MocQueue.sol:MocQueue",
            "label": "qACmin",
            "offset": 0,
            "slot": "1",
            "type": "t_uint256"
          },
          {
            "astId": 11613,
            "contract": "moc-main/contracts/queue/MocQueue.sol:MocQueue",
            "label": "sender",
            "offset": 0,
            "slot": "2",
            "type": "t_address"
          },
          {
            "astId": 11615,
            "contract": "moc-main/contracts/queue/MocQueue.sol:MocQueue",
            "label": "recipient",
            "offset": 0,
            "slot": "3",
            "type": "t_address"
          },
          {
            "astId": 11617,
            "contract": "moc-main/contracts/queue/MocQueue.sol:MocQueue",
            "label": "vendor",
            "offset": 0,
            "slot": "4",
            "type": "t_address"
          }
        ],
        "numberOfBytes": "160"
      },
      "t_struct(RedeemTCandTPParams)10534_storage": {
        "encoding": "inplace",
        "label": "struct MocCommons.RedeemTCandTPParams",
        "members": [
          {
            "astId": 10521,
            "contract": "moc-main/contracts/queue/MocQueue.sol:MocQueue",
            "label": "tp",
            "offset": 0,
            "slot": "0",
            "type": "t_address"
          },
          {
            "astId": 10523,
            "contract": "moc-main/contracts/queue/MocQueue.sol:MocQueue",
            "label": "qTC",
            "offset": 0,
            "slot": "1",
            "type": "t_uint256"
          },
          {
            "astId": 10525,
            "contract": "moc-main/contracts/queue/MocQueue.sol:MocQueue",
            "label": "qTP",
            "offset": 0,
            "slot": "2",
            "type": "t_uint256"
          },
          {
            "astId": 10527,
            "contract": "moc-main/contracts/queue/MocQueue.sol:MocQueue",
            "label": "qACmin",
            "offset": 0,
            "slot": "3",
            "type": "t_uint256"
          },
          {
            "astId": 10529,
            "contract": "moc-main/contracts/queue/MocQueue.sol:MocQueue",
            "label": "sender",
            "offset": 0,
            "slot": "4",
            "type": "t_address"
          },
          {
            "astId": 10531,
            "contract": "moc-main/contracts/queue/MocQueue.sol:MocQueue",
            "label": "recipient",
            "offset": 0,
            "slot": "5",
            "type": "t_address"
          },
          {
            "astId": 10533,
            "contract": "moc-main/contracts/queue/MocQueue.sol:MocQueue",
            "label": "vendor",
            "offset": 0,
            "slot": "6",
            "type": "t_address"
          }
        ],
        "numberOfBytes": "224"
      },
      "t_struct(RedeemTPParams)10594_storage": {
        "encoding": "inplace",
        "label": "struct MocCommons.RedeemTPParams",
        "members": [
          {
            "astId": 10583,
            "contract": "moc-main/contracts/queue/MocQueue.sol:MocQueue",
            "label": "tp",
            "offset": 0,
            "slot": "0",
            "type": "t_address"
          },
          {
            "astId": 10585,
            "contract": "moc-main/contracts/queue/MocQueue.sol:MocQueue",
            "label": "qTP",
            "offset": 0,
            "slot": "1",
            "type": "t_uint256"
          },
          {
            "astId": 10587,
            "contract": "moc-main/contracts/queue/MocQueue.sol:MocQueue",
            "label": "qACmin",
            "offset": 0,
            "slot": "2",
            "type": "t_uint256"
          },
          {
            "astId": 10589,
            "contract": "moc-main/contracts/queue/MocQueue.sol:MocQueue",
            "label": "sender",
            "offset": 0,
            "slot": "3",
            "type": "t_address"
          },
          {
            "astId": 10591,
            "contract": "moc-main/contracts/queue/MocQueue.sol:MocQueue",
            "label": "recipient",
            "offset": 0,
            "slot": "4",
            "type": "t_address"
          },
          {
            "astId": 10593,
            "contract": "moc-main/contracts/queue/MocQueue.sol:MocQueue",
            "label": "vendor",
            "offset": 0,
            "slot": "5",
            "type": "t_address"
          }
        ],
        "numberOfBytes": "192"
      },
      "t_struct(RoleData)179_storage": {
        "encoding": "inplace",
        "label": "struct AccessControlUpgradeable.RoleData",
        "members": [
          {
            "astId": 176,
            "contract": "moc-main/contracts/queue/MocQueue.sol:MocQueue",
            "label": "members",
            "offset": 0,
            "slot": "0",
            "type": "t_mapping(t_address,t_bool)"
          },
          {
            "astId": 178,
            "contract": "moc-main/contracts/queue/MocQueue.sol:MocQueue",
            "label": "adminRole",
            "offset": 0,
            "slot": "1",
            "type": "t_bytes32"
          }
        ],
        "numberOfBytes": "64"
      },
      "t_struct(SwapTCforTPParams)10581_storage": {
        "encoding": "inplace",
        "label": "struct MocCommons.SwapTCforTPParams",
        "members": [
          {
            "astId": 10568,
            "contract": "moc-main/contracts/queue/MocQueue.sol:MocQueue",
            "label": "tp",
            "offset": 0,
            "slot": "0",
            "type": "t_address"
          },
          {
            "astId": 10570,
            "contract": "moc-main/contracts/queue/MocQueue.sol:MocQueue",
            "label": "qTC",
            "offset": 0,
            "slot": "1",
            "type": "t_uint256"
          },
          {
            "astId": 10572,
            "contract": "moc-main/contracts/queue/MocQueue.sol:MocQueue",
            "label": "qTPmin",
            "offset": 0,
            "slot": "2",
            "type": "t_uint256"
          },
          {
            "astId": 10574,
            "contract": "moc-main/contracts/queue/MocQueue.sol:MocQueue",
            "label": "qACmax",
            "offset": 0,
            "slot": "3",
            "type": "t_uint256"
          },
          {
            "astId": 10576,
            "contract": "moc-main/contracts/queue/MocQueue.sol:MocQueue",
            "label": "sender",
            "offset": 0,
            "slot": "4",
            "type": "t_address"
          },
          {
            "astId": 10578,
            "contract": "moc-main/contracts/queue/MocQueue.sol:MocQueue",
            "label": "recipient",
            "offset": 0,
            "slot": "5",
            "type": "t_address"
          },
          {
            "astId": 10580,
            "contract": "moc-main/contracts/queue/MocQueue.sol:MocQueue",
            "label": "vendor",
            "offset": 0,
            "slot": "6",
            "type": "t_address"
          }
        ],
        "numberOfBytes": "224"
      },
      "t_struct(SwapTPforTCParams)10566_storage": {
        "encoding": "inplace",
        "label": "struct MocCommons.SwapTPforTCParams",
        "members": [
          {
            "astId": 10553,
            "contract": "moc-main/contracts/queue/MocQueue.sol:MocQueue",
            "label": "tp",
            "offset": 0,
            "slot": "0",
            "type": "t_address"
          },
          {
            "astId": 10555,
            "contract": "moc-main/contracts/queue/MocQueue.sol:MocQueue",
            "label": "qTP",
            "offset": 0,
            "slot": "1",
            "type": "t_uint256"
          },
          {
            "astId": 10557,
            "contract": "moc-main/contracts/queue/MocQueue.sol:MocQueue",
            "label": "qTCmin",
            "offset": 0,
            "slot": "2",
            "type": "t_uint256"
          },
          {
            "astId": 10559,
            "contract": "moc-main/contracts/queue/MocQueue.sol:MocQueue",
            "label": "qACmax",
            "offset": 0,
            "slot": "3",
            "type": "t_uint256"
          },
          {
            "astId": 10561,
            "contract": "moc-main/contracts/queue/MocQueue.sol:MocQueue",
            "label": "sender",
            "offset": 0,
            "slot": "4",
            "type": "t_address"
          },
          {
            "astId": 10563,
            "contract": "moc-main/contracts/queue/MocQueue.sol:MocQueue",
            "label": "recipient",
            "offset": 0,
            "slot": "5",
            "type": "t_address"
          },
          {
            "astId": 10565,
            "contract": "moc-main/contracts/queue/MocQueue.sol:MocQueue",
            "label": "vendor",
            "offset": 0,
            "slot": "6",
            "type": "t_address"
          }
        ],
        "numberOfBytes": "224"
      },
      "t_struct(SwapTPforTPParams)10551_storage": {
        "encoding": "inplace",
        "label": "struct MocCommons.SwapTPforTPParams",
        "members": [
          {
            "astId": 10536,
            "contract": "moc-main/contracts/queue/MocQueue.sol:MocQueue",
            "label": "tpFrom",
            "offset": 0,
            "slot": "0",
            "type": "t_address"
          },
          {
            "astId": 10538,
            "contract": "moc-main/contracts/queue/MocQueue.sol:MocQueue",
            "label": "tpTo",
            "offset": 0,
            "slot": "1",
            "type": "t_address"
          },
          {
            "astId": 10540,
            "contract": "moc-main/contracts/queue/MocQueue.sol:MocQueue",
            "label": "qTP",
            "offset": 0,
            "slot": "2",
            "type": "t_uint256"
          },
          {
            "astId": 10542,
            "contract": "moc-main/contracts/queue/MocQueue.sol:MocQueue",
            "label": "qTPmin",
            "offset": 0,
            "slot": "3",
            "type": "t_uint256"
          },
          {
            "astId": 10544,
            "contract": "moc-main/contracts/queue/MocQueue.sol:MocQueue",
            "label": "qACmax",
            "offset": 0,
            "slot": "4",
            "type": "t_uint256"
          },
          {
            "astId": 10546,
            "contract": "moc-main/contracts/queue/MocQueue.sol:MocQueue",
            "label": "sender",
            "offset": 0,
            "slot": "5",
            "type": "t_address"
          },
          {
            "astId": 10548,
            "contract": "moc-main/contracts/queue/MocQueue.sol:MocQueue",
            "label": "recipient",
            "offset": 0,
            "slot": "6",
            "type": "t_address"
          },
          {
            "astId": 10550,
            "contract": "moc-main/contracts/queue/MocQueue.sol:MocQueue",
            "label": "vendor",
            "offset": 0,
            "slot": "7",
            "type": "t_address"
          }
        ],
        "numberOfBytes": "256"
      },
      "t_uint128": {
        "encoding": "inplace",
        "label": "uint128",
        "numberOfBytes": "16"
      },
      "t_uint248": {
        "encoding": "inplace",
        "label": "uint248",
        "numberOfBytes": "31"
      },
      "t_uint256": {
        "encoding": "inplace",
        "label": "uint256",
        "numberOfBytes": "32"
      },
      "t_uint8": {
        "encoding": "inplace",
        "label": "uint8",
        "numberOfBytes": "1"
      }
    }
  }
}